{
	"contract.sol": {
		"AirportContract": {
			"abi": [
				{
					"inputs": [
						{
							"internalType": "string",
							"name": "name_",
							"type": "string"
						},
						{
							"internalType": "string",
							"name": "symbol_",
							"type": "string"
						},
						{
							"internalType": "uint8",
							"name": "decimals_",
							"type": "uint8"
						},
						{
							"internalType": "uint256",
							"name": "initialSupply_",
							"type": "uint256"
						},
						{
							"internalType": "string",
							"name": "airportName",
							"type": "string"
						}
					],
					"stateMutability": "nonpayable",
					"type": "constructor"
				},
				{
					"anonymous": false,
					"inputs": [
						{
							"indexed": true,
							"internalType": "address",
							"name": "passenger",
							"type": "address"
						},
						{
							"indexed": false,
							"internalType": "uint256",
							"name": "units",
							"type": "uint256"
						}
					],
					"name": "ExtraLuggage",
					"type": "event"
				},
				{
					"anonymous": false,
					"inputs": [
						{
							"indexed": true,
							"internalType": "address",
							"name": "passenger",
							"type": "address"
						}
					],
					"name": "UpgradeLounge",
					"type": "event"
				},
				{
					"anonymous": false,
					"inputs": [
						{
							"indexed": true,
							"internalType": "address",
							"name": "passenger",
							"type": "address"
						}
					],
					"name": "UpgradeSeat",
					"type": "event"
				},
				{
					"anonymous": false,
					"inputs": [
						{
							"indexed": true,
							"internalType": "address",
							"name": "passenger",
							"type": "address"
						}
					],
					"name": "UpgradeUser",
					"type": "event"
				},
				{
					"inputs": [
						{
							"internalType": "uint256",
							"name": "amount",
							"type": "uint256"
						}
					],
					"name": "burn",
					"outputs": [],
					"stateMutability": "nonpayable",
					"type": "function"
				},
				{
					"inputs": [
						{
							"internalType": "uint256",
							"name": "numberOfLugagges",
							"type": "uint256"
						}
					],
					"name": "extraLuggage",
					"outputs": [],
					"stateMutability": "nonpayable",
					"type": "function"
				},
				{
					"inputs": [
						{
							"internalType": "address",
							"name": "id_",
							"type": "address"
						}
					],
					"name": "getBalancePassenger",
					"outputs": [
						{
							"internalType": "uint256",
							"name": "",
							"type": "uint256"
						}
					],
					"stateMutability": "view",
					"type": "function"
				},
				{
					"inputs": [],
					"name": "getBalancePassenger",
					"outputs": [
						{
							"internalType": "uint256",
							"name": "",
							"type": "uint256"
						}
					],
					"stateMutability": "view",
					"type": "function"
				},
				{
					"inputs": [],
					"name": "getName",
					"outputs": [
						{
							"internalType": "string",
							"name": "",
							"type": "string"
						}
					],
					"stateMutability": "view",
					"type": "function"
				},
				{
					"inputs": [],
					"name": "getToken",
					"outputs": [
						{
							"internalType": "contract ERC20Simple",
							"name": "",
							"type": "address"
						}
					],
					"stateMutability": "view",
					"type": "function"
				},
				{
					"inputs": [],
					"name": "owner",
					"outputs": [
						{
							"internalType": "address payable",
							"name": "",
							"type": "address"
						}
					],
					"stateMutability": "view",
					"type": "function"
				},
				{
					"inputs": [
						{
							"internalType": "address",
							"name": "from",
							"type": "address"
						},
						{
							"internalType": "uint256",
							"name": "amount",
							"type": "uint256"
						}
					],
					"name": "ownerBurn",
					"outputs": [],
					"stateMutability": "nonpayable",
					"type": "function"
				},
				{
					"inputs": [
						{
							"internalType": "address",
							"name": "id",
							"type": "address"
						},
						{
							"internalType": "uint256",
							"name": "miles",
							"type": "uint256"
						}
					],
					"name": "ownerMint",
					"outputs": [],
					"stateMutability": "nonpayable",
					"type": "function"
				},
				{
					"inputs": [
						{
							"internalType": "address",
							"name": "id_",
							"type": "address"
						},
						{
							"internalType": "string",
							"name": "name_",
							"type": "string"
						}
					],
					"name": "register",
					"outputs": [],
					"stateMutability": "nonpayable",
					"type": "function"
				},
				{
					"inputs": [],
					"name": "upgradeLounge",
					"outputs": [],
					"stateMutability": "nonpayable",
					"type": "function"
				},
				{
					"inputs": [],
					"name": "upgradeSeat",
					"outputs": [],
					"stateMutability": "nonpayable",
					"type": "function"
				},
				{
					"inputs": [],
					"name": "upgradeUser",
					"outputs": [],
					"stateMutability": "nonpayable",
					"type": "function"
				}
			],
			"devdoc": {
				"kind": "dev",
				"methods": {},
				"version": 1
			},
			"evm": {
				"assembly": "    /* \"contract.sol\":86:2932  contract AirportContract {... */\n  mstore(0x40, 0x80)\n    /* \"contract.sol\":591:922  constructor(... */\n  callvalue\n  dup1\n  iszero\n  tag_1\n  jumpi\n  revert(0x00, 0x00)\ntag_1:\n  pop\n  mload(0x40)\n  sub(codesize, bytecodeSize)\n  dup1\n  bytecodeSize\n  dup4\n  codecopy\n  dup2\n  dup2\n  add\n  0x40\n  mstore\n  dup2\n  add\n  swap1\n  tag_2\n  swap2\n  swap1\n  tag_3\n  jump\t// in\ntag_2:\n    /* \"contract.sol\":795:805  msg.sender */\n  caller\n    /* \"contract.sol\":778:783  owner */\n  0x02\n  0x00\n    /* \"contract.sol\":778:806  owner = payable (msg.sender) */\n  0x0100\n  exp\n  dup2\n  sload\n  dup2\n  0xffffffffffffffffffffffffffffffffffffffff\n  mul\n  not\n  and\n  swap1\n  dup4\n  0xffffffffffffffffffffffffffffffffffffffff\n  and\n  mul\n  or\n  swap1\n  sstore\n  pop\n    /* \"contract.sol\":842:847  name_ */\n  dup5\n    /* \"contract.sol\":849:856  symbol_ */\n  dup5\n    /* \"contract.sol\":858:867  decimals_ */\n  dup5\n    /* \"contract.sol\":869:883  initialSupply_ */\n  dup5\n    /* \"contract.sol\":826:884  new ERC20Simple(name_, symbol_, decimals_, initialSupply_) */\n  mload(0x40)\n  tag_6\n  swap1\n  tag_7\n  jump\t// in\ntag_6:\n  tag_8\n  swap5\n  swap4\n  swap3\n  swap2\n  swap1\n  tag_9\n  jump\t// in\ntag_8:\n  mload(0x40)\n  dup1\n  swap2\n  sub\n  swap1\n  0x00\n  create\n  dup1\n  iszero\n  dup1\n  iszero\n  tag_10\n  jumpi\n  returndatacopy(0x00, 0x00, returndatasize)\n  revert(0x00, returndatasize)\ntag_10:\n  pop\n    /* \"contract.sol\":817:823  _token */\n  0x01\n  0x00\n    /* \"contract.sol\":817:884  _token = new ERC20Simple(name_, symbol_, decimals_, initialSupply_) */\n  0x0100\n  exp\n  dup2\n  sload\n  dup2\n  0xffffffffffffffffffffffffffffffffffffffff\n  mul\n  not\n  and\n  swap1\n  dup4\n  0xffffffffffffffffffffffffffffffffffffffff\n  and\n  mul\n  or\n  swap1\n  sstore\n  pop\n    /* \"contract.sol\":903:914  airportName */\n  dup1\n    /* \"contract.sol\":895:900  _name */\n  0x00\n    /* \"contract.sol\":895:914  _name = airportName */\n  swap1\n  dup2\n  tag_11\n  swap2\n  swap1\n  tag_12\n  jump\t// in\ntag_11:\n  pop\n    /* \"contract.sol\":591:922  constructor(... */\n  pop\n  pop\n  pop\n  pop\n  pop\n    /* \"contract.sol\":86:2932  contract AirportContract {... */\n  jump(tag_13)\ntag_7:\n  dataSize(sub_1)\n  dup1\n  dataOffset(sub_1)\n  dup4\n  codecopy\n  add\n  swap1\n  jump\t// out\n    /* \"#utility.yul\":7:82   */\ntag_14:\n    /* \"#utility.yul\":40:46   */\n  0x00\n    /* \"#utility.yul\":73:75   */\n  0x40\n    /* \"#utility.yul\":67:76   */\n  mload\n    /* \"#utility.yul\":57:76   */\n  swap1\n  pop\n    /* \"#utility.yul\":7:82   */\n  swap1\n  jump\t// out\n    /* \"#utility.yul\":88:205   */\ntag_15:\n    /* \"#utility.yul\":197:198   */\n  0x00\n    /* \"#utility.yul\":194:195   */\n  0x00\n    /* \"#utility.yul\":187:199   */\n  revert\n    /* \"#utility.yul\":211:328   */\ntag_16:\n    /* \"#utility.yul\":320:321   */\n  0x00\n    /* \"#utility.yul\":317:318   */\n  0x00\n    /* \"#utility.yul\":310:322   */\n  revert\n    /* \"#utility.yul\":334:451   */\ntag_17:\n    /* \"#utility.yul\":443:444   */\n  0x00\n    /* \"#utility.yul\":440:441   */\n  0x00\n    /* \"#utility.yul\":433:445   */\n  revert\n    /* \"#utility.yul\":457:574   */\ntag_18:\n    /* \"#utility.yul\":566:567   */\n  0x00\n    /* \"#utility.yul\":563:564   */\n  0x00\n    /* \"#utility.yul\":556:568   */\n  revert\n    /* \"#utility.yul\":580:682   */\ntag_19:\n    /* \"#utility.yul\":621:627   */\n  0x00\n    /* \"#utility.yul\":672:674   */\n  0x1f\n    /* \"#utility.yul\":668:675   */\n  not\n    /* \"#utility.yul\":663:665   */\n  0x1f\n    /* \"#utility.yul\":656:661   */\n  dup4\n    /* \"#utility.yul\":652:666   */\n  add\n    /* \"#utility.yul\":648:676   */\n  and\n    /* \"#utility.yul\":638:676   */\n  swap1\n  pop\n    /* \"#utility.yul\":580:682   */\n  swap2\n  swap1\n  pop\n  jump\t// out\n    /* \"#utility.yul\":688:868   */\ntag_20:\n    /* \"#utility.yul\":736:813   */\n  0x4e487b7100000000000000000000000000000000000000000000000000000000\n    /* \"#utility.yul\":733:734   */\n  0x00\n    /* \"#utility.yul\":726:814   */\n  mstore\n    /* \"#utility.yul\":833:837   */\n  0x41\n    /* \"#utility.yul\":830:831   */\n  0x04\n    /* \"#utility.yul\":823:838   */\n  mstore\n    /* \"#utility.yul\":857:861   */\n  0x24\n    /* \"#utility.yul\":854:855   */\n  0x00\n    /* \"#utility.yul\":847:862   */\n  revert\n    /* \"#utility.yul\":874:1155   */\ntag_21:\n    /* \"#utility.yul\":957:984   */\n  tag_64\n    /* \"#utility.yul\":979:983   */\n  dup3\n    /* \"#utility.yul\":957:984   */\n  tag_19\n  jump\t// in\ntag_64:\n    /* \"#utility.yul\":949:955   */\n  dup2\n    /* \"#utility.yul\":945:985   */\n  add\n    /* \"#utility.yul\":1087:1093   */\n  dup2\n    /* \"#utility.yul\":1075:1085   */\n  dup2\n    /* \"#utility.yul\":1072:1094   */\n  lt\n    /* \"#utility.yul\":1051:1069   */\n  0xffffffffffffffff\n    /* \"#utility.yul\":1039:1049   */\n  dup3\n    /* \"#utility.yul\":1036:1070   */\n  gt\n    /* \"#utility.yul\":1033:1095   */\n  or\n    /* \"#utility.yul\":1030:1118   */\n  iszero\n  tag_65\n  jumpi\n    /* \"#utility.yul\":1098:1116   */\n  tag_66\n  tag_20\n  jump\t// in\ntag_66:\n    /* \"#utility.yul\":1030:1118   */\ntag_65:\n    /* \"#utility.yul\":1138:1148   */\n  dup1\n    /* \"#utility.yul\":1134:1136   */\n  0x40\n    /* \"#utility.yul\":1127:1149   */\n  mstore\n    /* \"#utility.yul\":917:1155   */\n  pop\n    /* \"#utility.yul\":874:1155   */\n  pop\n  pop\n  jump\t// out\n    /* \"#utility.yul\":1161:1290   */\ntag_22:\n    /* \"#utility.yul\":1195:1201   */\n  0x00\n    /* \"#utility.yul\":1222:1242   */\n  tag_68\n  tag_14\n  jump\t// in\ntag_68:\n    /* \"#utility.yul\":1212:1242   */\n  swap1\n  pop\n    /* \"#utility.yul\":1251:1284   */\n  tag_69\n    /* \"#utility.yul\":1279:1283   */\n  dup3\n    /* \"#utility.yul\":1271:1277   */\n  dup3\n    /* \"#utility.yul\":1251:1284   */\n  tag_21\n  jump\t// in\ntag_69:\n    /* \"#utility.yul\":1161:1290   */\n  swap2\n  swap1\n  pop\n  jump\t// out\n    /* \"#utility.yul\":1296:1604   */\ntag_23:\n    /* \"#utility.yul\":1358:1362   */\n  0x00\n    /* \"#utility.yul\":1448:1466   */\n  0xffffffffffffffff\n    /* \"#utility.yul\":1440:1446   */\n  dup3\n    /* \"#utility.yul\":1437:1467   */\n  gt\n    /* \"#utility.yul\":1434:1490   */\n  iszero\n  tag_71\n  jumpi\n    /* \"#utility.yul\":1470:1488   */\n  tag_72\n  tag_20\n  jump\t// in\ntag_72:\n    /* \"#utility.yul\":1434:1490   */\ntag_71:\n    /* \"#utility.yul\":1508:1537   */\n  tag_73\n    /* \"#utility.yul\":1530:1536   */\n  dup3\n    /* \"#utility.yul\":1508:1537   */\n  tag_19\n  jump\t// in\ntag_73:\n    /* \"#utility.yul\":1500:1537   */\n  swap1\n  pop\n    /* \"#utility.yul\":1592:1596   */\n  0x20\n    /* \"#utility.yul\":1586:1590   */\n  dup2\n    /* \"#utility.yul\":1582:1597   */\n  add\n    /* \"#utility.yul\":1574:1597   */\n  swap1\n  pop\n    /* \"#utility.yul\":1296:1604   */\n  swap2\n  swap1\n  pop\n  jump\t// out\n    /* \"#utility.yul\":1610:1749   */\ntag_24:\n    /* \"#utility.yul\":1699:1705   */\n  dup3\n    /* \"#utility.yul\":1694:1697   */\n  dup2\n    /* \"#utility.yul\":1689:1692   */\n  dup4\n    /* \"#utility.yul\":1683:1706   */\n  mcopy\n    /* \"#utility.yul\":1740:1741   */\n  0x00\n    /* \"#utility.yul\":1731:1737   */\n  dup4\n    /* \"#utility.yul\":1726:1729   */\n  dup4\n    /* \"#utility.yul\":1722:1738   */\n  add\n    /* \"#utility.yul\":1715:1742   */\n  mstore\n    /* \"#utility.yul\":1610:1749   */\n  pop\n  pop\n  pop\n  jump\t// out\n    /* \"#utility.yul\":1755:2189   */\ntag_25:\n    /* \"#utility.yul\":1844:1849   */\n  0x00\n    /* \"#utility.yul\":1869:1935   */\n  tag_76\n    /* \"#utility.yul\":1885:1934   */\n  tag_77\n    /* \"#utility.yul\":1927:1933   */\n  dup5\n    /* \"#utility.yul\":1885:1934   */\n  tag_23\n  jump\t// in\ntag_77:\n    /* \"#utility.yul\":1869:1935   */\n  tag_22\n  jump\t// in\ntag_76:\n    /* \"#utility.yul\":1860:1935   */\n  swap1\n  pop\n    /* \"#utility.yul\":1958:1964   */\n  dup3\n    /* \"#utility.yul\":1951:1956   */\n  dup2\n    /* \"#utility.yul\":1944:1965   */\n  mstore\n    /* \"#utility.yul\":1996:2000   */\n  0x20\n    /* \"#utility.yul\":1989:1994   */\n  dup2\n    /* \"#utility.yul\":1985:2001   */\n  add\n    /* \"#utility.yul\":2034:2037   */\n  dup5\n    /* \"#utility.yul\":2025:2031   */\n  dup5\n    /* \"#utility.yul\":2020:2023   */\n  dup5\n    /* \"#utility.yul\":2016:2032   */\n  add\n    /* \"#utility.yul\":2013:2038   */\n  gt\n    /* \"#utility.yul\":2010:2122   */\n  iszero\n  tag_78\n  jumpi\n    /* \"#utility.yul\":2041:2120   */\n  tag_79\n  tag_18\n  jump\t// in\ntag_79:\n    /* \"#utility.yul\":2010:2122   */\ntag_78:\n    /* \"#utility.yul\":2131:2183   */\n  tag_80\n    /* \"#utility.yul\":2176:2182   */\n  dup5\n    /* \"#utility.yul\":2171:2174   */\n  dup3\n    /* \"#utility.yul\":2166:2169   */\n  dup6\n    /* \"#utility.yul\":2131:2183   */\n  tag_24\n  jump\t// in\ntag_80:\n    /* \"#utility.yul\":1850:2189   */\n  pop\n    /* \"#utility.yul\":1755:2189   */\n  swap4\n  swap3\n  pop\n  pop\n  pop\n  jump\t// out\n    /* \"#utility.yul\":2209:2564   */\ntag_26:\n    /* \"#utility.yul\":2276:2281   */\n  0x00\n    /* \"#utility.yul\":2325:2328   */\n  dup3\n    /* \"#utility.yul\":2318:2322   */\n  0x1f\n    /* \"#utility.yul\":2310:2316   */\n  dup4\n    /* \"#utility.yul\":2306:2323   */\n  add\n    /* \"#utility.yul\":2302:2329   */\n  slt\n    /* \"#utility.yul\":2292:2414   */\n  tag_82\n  jumpi\n    /* \"#utility.yul\":2333:2412   */\n  tag_83\n  tag_17\n  jump\t// in\ntag_83:\n    /* \"#utility.yul\":2292:2414   */\ntag_82:\n    /* \"#utility.yul\":2443:2449   */\n  dup2\n    /* \"#utility.yul\":2437:2450   */\n  mload\n    /* \"#utility.yul\":2468:2558   */\n  tag_84\n    /* \"#utility.yul\":2554:2557   */\n  dup5\n    /* \"#utility.yul\":2546:2552   */\n  dup3\n    /* \"#utility.yul\":2539:2543   */\n  0x20\n    /* \"#utility.yul\":2531:2537   */\n  dup7\n    /* \"#utility.yul\":2527:2544   */\n  add\n    /* \"#utility.yul\":2468:2558   */\n  tag_25\n  jump\t// in\ntag_84:\n    /* \"#utility.yul\":2459:2558   */\n  swap2\n  pop\n    /* \"#utility.yul\":2282:2564   */\n  pop\n    /* \"#utility.yul\":2209:2564   */\n  swap3\n  swap2\n  pop\n  pop\n  jump\t// out\n    /* \"#utility.yul\":2570:2656   */\ntag_27:\n    /* \"#utility.yul\":2605:2612   */\n  0x00\n    /* \"#utility.yul\":2645:2649   */\n  0xff\n    /* \"#utility.yul\":2638:2643   */\n  dup3\n    /* \"#utility.yul\":2634:2650   */\n  and\n    /* \"#utility.yul\":2623:2650   */\n  swap1\n  pop\n    /* \"#utility.yul\":2570:2656   */\n  swap2\n  swap1\n  pop\n  jump\t// out\n    /* \"#utility.yul\":2662:2780   */\ntag_28:\n    /* \"#utility.yul\":2733:2755   */\n  tag_87\n    /* \"#utility.yul\":2749:2754   */\n  dup2\n    /* \"#utility.yul\":2733:2755   */\n  tag_27\n  jump\t// in\ntag_87:\n    /* \"#utility.yul\":2726:2731   */\n  dup2\n    /* \"#utility.yul\":2723:2756   */\n  eq\n    /* \"#utility.yul\":2713:2774   */\n  tag_88\n  jumpi\n    /* \"#utility.yul\":2770:2771   */\n  0x00\n    /* \"#utility.yul\":2767:2768   */\n  0x00\n    /* \"#utility.yul\":2760:2772   */\n  revert\n    /* \"#utility.yul\":2713:2774   */\ntag_88:\n    /* \"#utility.yul\":2662:2780   */\n  pop\n  jump\t// out\n    /* \"#utility.yul\":2786:2925   */\ntag_29:\n    /* \"#utility.yul\":2841:2846   */\n  0x00\n    /* \"#utility.yul\":2872:2878   */\n  dup2\n    /* \"#utility.yul\":2866:2879   */\n  mload\n    /* \"#utility.yul\":2857:2879   */\n  swap1\n  pop\n    /* \"#utility.yul\":2888:2919   */\n  tag_90\n    /* \"#utility.yul\":2913:2918   */\n  dup2\n    /* \"#utility.yul\":2888:2919   */\n  tag_28\n  jump\t// in\ntag_90:\n    /* \"#utility.yul\":2786:2925   */\n  swap3\n  swap2\n  pop\n  pop\n  jump\t// out\n    /* \"#utility.yul\":2931:3008   */\ntag_30:\n    /* \"#utility.yul\":2968:2975   */\n  0x00\n    /* \"#utility.yul\":2997:3002   */\n  dup2\n    /* \"#utility.yul\":2986:3002   */\n  swap1\n  pop\n    /* \"#utility.yul\":2931:3008   */\n  swap2\n  swap1\n  pop\n  jump\t// out\n    /* \"#utility.yul\":3014:3136   */\ntag_31:\n    /* \"#utility.yul\":3087:3111   */\n  tag_93\n    /* \"#utility.yul\":3105:3110   */\n  dup2\n    /* \"#utility.yul\":3087:3111   */\n  tag_30\n  jump\t// in\ntag_93:\n    /* \"#utility.yul\":3080:3085   */\n  dup2\n    /* \"#utility.yul\":3077:3112   */\n  eq\n    /* \"#utility.yul\":3067:3130   */\n  tag_94\n  jumpi\n    /* \"#utility.yul\":3126:3127   */\n  0x00\n    /* \"#utility.yul\":3123:3124   */\n  0x00\n    /* \"#utility.yul\":3116:3128   */\n  revert\n    /* \"#utility.yul\":3067:3130   */\ntag_94:\n    /* \"#utility.yul\":3014:3136   */\n  pop\n  jump\t// out\n    /* \"#utility.yul\":3142:3285   */\ntag_32:\n    /* \"#utility.yul\":3199:3204   */\n  0x00\n    /* \"#utility.yul\":3230:3236   */\n  dup2\n    /* \"#utility.yul\":3224:3237   */\n  mload\n    /* \"#utility.yul\":3215:3237   */\n  swap1\n  pop\n    /* \"#utility.yul\":3246:3279   */\n  tag_96\n    /* \"#utility.yul\":3273:3278   */\n  dup2\n    /* \"#utility.yul\":3246:3279   */\n  tag_31\n  jump\t// in\ntag_96:\n    /* \"#utility.yul\":3142:3285   */\n  swap3\n  swap2\n  pop\n  pop\n  jump\t// out\n    /* \"#utility.yul\":3291:4783   */\ntag_3:\n    /* \"#utility.yul\":3425:3431   */\n  0x00\n    /* \"#utility.yul\":3433:3439   */\n  0x00\n    /* \"#utility.yul\":3441:3447   */\n  0x00\n    /* \"#utility.yul\":3449:3455   */\n  0x00\n    /* \"#utility.yul\":3457:3463   */\n  0x00\n    /* \"#utility.yul\":3506:3509   */\n  0xa0\n    /* \"#utility.yul\":3494:3503   */\n  dup7\n    /* \"#utility.yul\":3485:3492   */\n  dup9\n    /* \"#utility.yul\":3481:3504   */\n  sub\n    /* \"#utility.yul\":3477:3510   */\n  slt\n    /* \"#utility.yul\":3474:3594   */\n  iszero\n  tag_98\n  jumpi\n    /* \"#utility.yul\":3513:3592   */\n  tag_99\n  tag_15\n  jump\t// in\ntag_99:\n    /* \"#utility.yul\":3474:3594   */\ntag_98:\n    /* \"#utility.yul\":3654:3655   */\n  0x00\n    /* \"#utility.yul\":3643:3652   */\n  dup7\n    /* \"#utility.yul\":3639:3656   */\n  add\n    /* \"#utility.yul\":3633:3657   */\n  mload\n    /* \"#utility.yul\":3684:3702   */\n  0xffffffffffffffff\n    /* \"#utility.yul\":3676:3682   */\n  dup2\n    /* \"#utility.yul\":3673:3703   */\n  gt\n    /* \"#utility.yul\":3670:3787   */\n  iszero\n  tag_100\n  jumpi\n    /* \"#utility.yul\":3706:3785   */\n  tag_101\n  tag_16\n  jump\t// in\ntag_101:\n    /* \"#utility.yul\":3670:3787   */\ntag_100:\n    /* \"#utility.yul\":3811:3885   */\n  tag_102\n    /* \"#utility.yul\":3877:3884   */\n  dup9\n    /* \"#utility.yul\":3868:3874   */\n  dup3\n    /* \"#utility.yul\":3857:3866   */\n  dup10\n    /* \"#utility.yul\":3853:3875   */\n  add\n    /* \"#utility.yul\":3811:3885   */\n  tag_26\n  jump\t// in\ntag_102:\n    /* \"#utility.yul\":3801:3885   */\n  swap6\n  pop\n    /* \"#utility.yul\":3604:3895   */\n  pop\n    /* \"#utility.yul\":3955:3957   */\n  0x20\n    /* \"#utility.yul\":3944:3953   */\n  dup7\n    /* \"#utility.yul\":3940:3958   */\n  add\n    /* \"#utility.yul\":3934:3959   */\n  mload\n    /* \"#utility.yul\":3986:4004   */\n  0xffffffffffffffff\n    /* \"#utility.yul\":3978:3984   */\n  dup2\n    /* \"#utility.yul\":3975:4005   */\n  gt\n    /* \"#utility.yul\":3972:4089   */\n  iszero\n  tag_103\n  jumpi\n    /* \"#utility.yul\":4008:4087   */\n  tag_104\n  tag_16\n  jump\t// in\ntag_104:\n    /* \"#utility.yul\":3972:4089   */\ntag_103:\n    /* \"#utility.yul\":4113:4187   */\n  tag_105\n    /* \"#utility.yul\":4179:4186   */\n  dup9\n    /* \"#utility.yul\":4170:4176   */\n  dup3\n    /* \"#utility.yul\":4159:4168   */\n  dup10\n    /* \"#utility.yul\":4155:4177   */\n  add\n    /* \"#utility.yul\":4113:4187   */\n  tag_26\n  jump\t// in\ntag_105:\n    /* \"#utility.yul\":4103:4187   */\n  swap5\n  pop\n    /* \"#utility.yul\":3905:4197   */\n  pop\n    /* \"#utility.yul\":4236:4238   */\n  0x40\n    /* \"#utility.yul\":4262:4324   */\n  tag_106\n    /* \"#utility.yul\":4316:4323   */\n  dup9\n    /* \"#utility.yul\":4307:4313   */\n  dup3\n    /* \"#utility.yul\":4296:4305   */\n  dup10\n    /* \"#utility.yul\":4292:4314   */\n  add\n    /* \"#utility.yul\":4262:4324   */\n  tag_29\n  jump\t// in\ntag_106:\n    /* \"#utility.yul\":4252:4324   */\n  swap4\n  pop\n    /* \"#utility.yul\":4207:4334   */\n  pop\n    /* \"#utility.yul\":4373:4375   */\n  0x60\n    /* \"#utility.yul\":4399:4463   */\n  tag_107\n    /* \"#utility.yul\":4455:4462   */\n  dup9\n    /* \"#utility.yul\":4446:4452   */\n  dup3\n    /* \"#utility.yul\":4435:4444   */\n  dup10\n    /* \"#utility.yul\":4431:4453   */\n  add\n    /* \"#utility.yul\":4399:4463   */\n  tag_32\n  jump\t// in\ntag_107:\n    /* \"#utility.yul\":4389:4463   */\n  swap3\n  pop\n    /* \"#utility.yul\":4344:4473   */\n  pop\n    /* \"#utility.yul\":4533:4536   */\n  0x80\n    /* \"#utility.yul\":4522:4531   */\n  dup7\n    /* \"#utility.yul\":4518:4537   */\n  add\n    /* \"#utility.yul\":4512:4538   */\n  mload\n    /* \"#utility.yul\":4565:4583   */\n  0xffffffffffffffff\n    /* \"#utility.yul\":4557:4563   */\n  dup2\n    /* \"#utility.yul\":4554:4584   */\n  gt\n    /* \"#utility.yul\":4551:4668   */\n  iszero\n  tag_108\n  jumpi\n    /* \"#utility.yul\":4587:4666   */\n  tag_109\n  tag_16\n  jump\t// in\ntag_109:\n    /* \"#utility.yul\":4551:4668   */\ntag_108:\n    /* \"#utility.yul\":4692:4766   */\n  tag_110\n    /* \"#utility.yul\":4758:4765   */\n  dup9\n    /* \"#utility.yul\":4749:4755   */\n  dup3\n    /* \"#utility.yul\":4738:4747   */\n  dup10\n    /* \"#utility.yul\":4734:4756   */\n  add\n    /* \"#utility.yul\":4692:4766   */\n  tag_26\n  jump\t// in\ntag_110:\n    /* \"#utility.yul\":4682:4766   */\n  swap2\n  pop\n    /* \"#utility.yul\":4483:4776   */\n  pop\n    /* \"#utility.yul\":3291:4783   */\n  swap3\n  swap6\n  pop\n  swap3\n  swap6\n  swap1\n  swap4\n  pop\n  jump\t// out\n    /* \"#utility.yul\":4789:4888   */\ntag_33:\n    /* \"#utility.yul\":4841:4847   */\n  0x00\n    /* \"#utility.yul\":4875:4880   */\n  dup2\n    /* \"#utility.yul\":4869:4881   */\n  mload\n    /* \"#utility.yul\":4859:4881   */\n  swap1\n  pop\n    /* \"#utility.yul\":4789:4888   */\n  swap2\n  swap1\n  pop\n  jump\t// out\n    /* \"#utility.yul\":4894:5063   */\ntag_34:\n    /* \"#utility.yul\":4978:4989   */\n  0x00\n    /* \"#utility.yul\":5012:5018   */\n  dup3\n    /* \"#utility.yul\":5007:5010   */\n  dup3\n    /* \"#utility.yul\":5000:5019   */\n  mstore\n    /* \"#utility.yul\":5052:5056   */\n  0x20\n    /* \"#utility.yul\":5047:5050   */\n  dup3\n    /* \"#utility.yul\":5043:5057   */\n  add\n    /* \"#utility.yul\":5028:5057   */\n  swap1\n  pop\n    /* \"#utility.yul\":4894:5063   */\n  swap3\n  swap2\n  pop\n  pop\n  jump\t// out\n    /* \"#utility.yul\":5069:5446   */\ntag_35:\n    /* \"#utility.yul\":5157:5160   */\n  0x00\n    /* \"#utility.yul\":5185:5224   */\n  tag_114\n    /* \"#utility.yul\":5218:5223   */\n  dup3\n    /* \"#utility.yul\":5185:5224   */\n  tag_33\n  jump\t// in\ntag_114:\n    /* \"#utility.yul\":5240:5311   */\n  tag_115\n    /* \"#utility.yul\":5304:5310   */\n  dup2\n    /* \"#utility.yul\":5299:5302   */\n  dup6\n    /* \"#utility.yul\":5240:5311   */\n  tag_34\n  jump\t// in\ntag_115:\n    /* \"#utility.yul\":5233:5311   */\n  swap4\n  pop\n    /* \"#utility.yul\":5320:5385   */\n  tag_116\n    /* \"#utility.yul\":5378:5384   */\n  dup2\n    /* \"#utility.yul\":5373:5376   */\n  dup6\n    /* \"#utility.yul\":5366:5370   */\n  0x20\n    /* \"#utility.yul\":5359:5364   */\n  dup7\n    /* \"#utility.yul\":5355:5371   */\n  add\n    /* \"#utility.yul\":5320:5385   */\n  tag_24\n  jump\t// in\ntag_116:\n    /* \"#utility.yul\":5410:5439   */\n  tag_117\n    /* \"#utility.yul\":5432:5438   */\n  dup2\n    /* \"#utility.yul\":5410:5439   */\n  tag_19\n  jump\t// in\ntag_117:\n    /* \"#utility.yul\":5405:5408   */\n  dup5\n    /* \"#utility.yul\":5401:5440   */\n  add\n    /* \"#utility.yul\":5394:5440   */\n  swap2\n  pop\n    /* \"#utility.yul\":5161:5446   */\n  pop\n    /* \"#utility.yul\":5069:5446   */\n  swap3\n  swap2\n  pop\n  pop\n  jump\t// out\n    /* \"#utility.yul\":5452:5564   */\ntag_36:\n    /* \"#utility.yul\":5535:5557   */\n  tag_119\n    /* \"#utility.yul\":5551:5556   */\n  dup2\n    /* \"#utility.yul\":5535:5557   */\n  tag_27\n  jump\t// in\ntag_119:\n    /* \"#utility.yul\":5530:5533   */\n  dup3\n    /* \"#utility.yul\":5523:5558   */\n  mstore\n    /* \"#utility.yul\":5452:5564   */\n  pop\n  pop\n  jump\t// out\n    /* \"#utility.yul\":5570:5688   */\ntag_37:\n    /* \"#utility.yul\":5657:5681   */\n  tag_121\n    /* \"#utility.yul\":5675:5680   */\n  dup2\n    /* \"#utility.yul\":5657:5681   */\n  tag_30\n  jump\t// in\ntag_121:\n    /* \"#utility.yul\":5652:5655   */\n  dup3\n    /* \"#utility.yul\":5645:5682   */\n  mstore\n    /* \"#utility.yul\":5570:5688   */\n  pop\n  pop\n  jump\t// out\n    /* \"#utility.yul\":5694:6421   */\ntag_9:\n    /* \"#utility.yul\":5907:5911   */\n  0x00\n    /* \"#utility.yul\":5945:5948   */\n  0x80\n    /* \"#utility.yul\":5934:5943   */\n  dup3\n    /* \"#utility.yul\":5930:5949   */\n  add\n    /* \"#utility.yul\":5922:5949   */\n  swap1\n  pop\n    /* \"#utility.yul\":5995:6004   */\n  dup2\n    /* \"#utility.yul\":5989:5993   */\n  dup2\n    /* \"#utility.yul\":5985:6005   */\n  sub\n    /* \"#utility.yul\":5981:5982   */\n  0x00\n    /* \"#utility.yul\":5970:5979   */\n  dup4\n    /* \"#utility.yul\":5966:5983   */\n  add\n    /* \"#utility.yul\":5959:6006   */\n  mstore\n    /* \"#utility.yul\":6023:6101   */\n  tag_123\n    /* \"#utility.yul\":6096:6100   */\n  dup2\n    /* \"#utility.yul\":6087:6093   */\n  dup8\n    /* \"#utility.yul\":6023:6101   */\n  tag_35\n  jump\t// in\ntag_123:\n    /* \"#utility.yul\":6015:6101   */\n  swap1\n  pop\n    /* \"#utility.yul\":6148:6157   */\n  dup2\n    /* \"#utility.yul\":6142:6146   */\n  dup2\n    /* \"#utility.yul\":6138:6158   */\n  sub\n    /* \"#utility.yul\":6133:6135   */\n  0x20\n    /* \"#utility.yul\":6122:6131   */\n  dup4\n    /* \"#utility.yul\":6118:6136   */\n  add\n    /* \"#utility.yul\":6111:6159   */\n  mstore\n    /* \"#utility.yul\":6176:6254   */\n  tag_124\n    /* \"#utility.yul\":6249:6253   */\n  dup2\n    /* \"#utility.yul\":6240:6246   */\n  dup7\n    /* \"#utility.yul\":6176:6254   */\n  tag_35\n  jump\t// in\ntag_124:\n    /* \"#utility.yul\":6168:6254   */\n  swap1\n  pop\n    /* \"#utility.yul\":6264:6332   */\n  tag_125\n    /* \"#utility.yul\":6328:6330   */\n  0x40\n    /* \"#utility.yul\":6317:6326   */\n  dup4\n    /* \"#utility.yul\":6313:6331   */\n  add\n    /* \"#utility.yul\":6304:6310   */\n  dup6\n    /* \"#utility.yul\":6264:6332   */\n  tag_36\n  jump\t// in\ntag_125:\n    /* \"#utility.yul\":6342:6414   */\n  tag_126\n    /* \"#utility.yul\":6410:6412   */\n  0x60\n    /* \"#utility.yul\":6399:6408   */\n  dup4\n    /* \"#utility.yul\":6395:6413   */\n  add\n    /* \"#utility.yul\":6386:6392   */\n  dup5\n    /* \"#utility.yul\":6342:6414   */\n  tag_37\n  jump\t// in\ntag_126:\n    /* \"#utility.yul\":5694:6421   */\n  swap6\n  swap5\n  pop\n  pop\n  pop\n  pop\n  pop\n  jump\t// out\n    /* \"#utility.yul\":6427:6607   */\ntag_38:\n    /* \"#utility.yul\":6475:6552   */\n  0x4e487b7100000000000000000000000000000000000000000000000000000000\n    /* \"#utility.yul\":6472:6473   */\n  0x00\n    /* \"#utility.yul\":6465:6553   */\n  mstore\n    /* \"#utility.yul\":6572:6576   */\n  0x22\n    /* \"#utility.yul\":6569:6570   */\n  0x04\n    /* \"#utility.yul\":6562:6577   */\n  mstore\n    /* \"#utility.yul\":6596:6600   */\n  0x24\n    /* \"#utility.yul\":6593:6594   */\n  0x00\n    /* \"#utility.yul\":6586:6601   */\n  revert\n    /* \"#utility.yul\":6613:6933   */\ntag_39:\n    /* \"#utility.yul\":6657:6663   */\n  0x00\n    /* \"#utility.yul\":6694:6695   */\n  0x02\n    /* \"#utility.yul\":6688:6692   */\n  dup3\n    /* \"#utility.yul\":6684:6696   */\n  div\n    /* \"#utility.yul\":6674:6696   */\n  swap1\n  pop\n    /* \"#utility.yul\":6741:6742   */\n  0x01\n    /* \"#utility.yul\":6735:6739   */\n  dup3\n    /* \"#utility.yul\":6731:6743   */\n  and\n    /* \"#utility.yul\":6762:6780   */\n  dup1\n    /* \"#utility.yul\":6752:6833   */\n  tag_129\n  jumpi\n    /* \"#utility.yul\":6818:6822   */\n  0x7f\n    /* \"#utility.yul\":6810:6816   */\n  dup3\n    /* \"#utility.yul\":6806:6823   */\n  and\n    /* \"#utility.yul\":6796:6823   */\n  swap2\n  pop\n    /* \"#utility.yul\":6752:6833   */\ntag_129:\n    /* \"#utility.yul\":6880:6882   */\n  0x20\n    /* \"#utility.yul\":6872:6878   */\n  dup3\n    /* \"#utility.yul\":6869:6883   */\n  lt\n    /* \"#utility.yul\":6849:6867   */\n  dup2\n    /* \"#utility.yul\":6846:6884   */\n  sub\n    /* \"#utility.yul\":6843:6927   */\n  tag_130\n  jumpi\n    /* \"#utility.yul\":6899:6917   */\n  tag_131\n  tag_38\n  jump\t// in\ntag_131:\n    /* \"#utility.yul\":6843:6927   */\ntag_130:\n    /* \"#utility.yul\":6664:6933   */\n  pop\n    /* \"#utility.yul\":6613:6933   */\n  swap2\n  swap1\n  pop\n  jump\t// out\n    /* \"#utility.yul\":6939:7080   */\ntag_40:\n    /* \"#utility.yul\":6988:6992   */\n  0x00\n    /* \"#utility.yul\":7011:7014   */\n  dup2\n    /* \"#utility.yul\":7003:7014   */\n  swap1\n  pop\n    /* \"#utility.yul\":7034:7037   */\n  dup2\n    /* \"#utility.yul\":7031:7032   */\n  0x00\n    /* \"#utility.yul\":7024:7038   */\n  mstore\n    /* \"#utility.yul\":7068:7072   */\n  0x20\n    /* \"#utility.yul\":7065:7066   */\n  0x00\n    /* \"#utility.yul\":7055:7073   */\n  keccak256\n    /* \"#utility.yul\":7047:7073   */\n  swap1\n  pop\n    /* \"#utility.yul\":6939:7080   */\n  swap2\n  swap1\n  pop\n  jump\t// out\n    /* \"#utility.yul\":7086:7179   */\ntag_41:\n    /* \"#utility.yul\":7123:7129   */\n  0x00\n    /* \"#utility.yul\":7170:7172   */\n  0x20\n    /* \"#utility.yul\":7165:7167   */\n  0x1f\n    /* \"#utility.yul\":7158:7163   */\n  dup4\n    /* \"#utility.yul\":7154:7168   */\n  add\n    /* \"#utility.yul\":7150:7173   */\n  div\n    /* \"#utility.yul\":7140:7173   */\n  swap1\n  pop\n    /* \"#utility.yul\":7086:7179   */\n  swap2\n  swap1\n  pop\n  jump\t// out\n    /* \"#utility.yul\":7185:7292   */\ntag_42:\n    /* \"#utility.yul\":7229:7237   */\n  0x00\n    /* \"#utility.yul\":7279:7284   */\n  dup3\n    /* \"#utility.yul\":7273:7277   */\n  dup3\n    /* \"#utility.yul\":7269:7285   */\n  shl\n    /* \"#utility.yul\":7248:7285   */\n  swap1\n  pop\n    /* \"#utility.yul\":7185:7292   */\n  swap3\n  swap2\n  pop\n  pop\n  jump\t// out\n    /* \"#utility.yul\":7298:7691   */\ntag_43:\n    /* \"#utility.yul\":7367:7373   */\n  0x00\n    /* \"#utility.yul\":7417:7418   */\n  0x08\n    /* \"#utility.yul\":7405:7415   */\n  dup4\n    /* \"#utility.yul\":7401:7419   */\n  mul\n    /* \"#utility.yul\":7440:7537   */\n  tag_136\n    /* \"#utility.yul\":7470:7536   */\n  0xffffffffffffffffffffffffffffffffffffffffffffffffffffffffffffffff\n    /* \"#utility.yul\":7459:7468   */\n  dup3\n    /* \"#utility.yul\":7440:7537   */\n  tag_42\n  jump\t// in\ntag_136:\n    /* \"#utility.yul\":7558:7597   */\n  tag_137\n    /* \"#utility.yul\":7588:7596   */\n  dup7\n    /* \"#utility.yul\":7577:7586   */\n  dup4\n    /* \"#utility.yul\":7558:7597   */\n  tag_42\n  jump\t// in\ntag_137:\n    /* \"#utility.yul\":7546:7597   */\n  swap6\n  pop\n    /* \"#utility.yul\":7630:7634   */\n  dup1\n    /* \"#utility.yul\":7626:7635   */\n  not\n    /* \"#utility.yul\":7619:7624   */\n  dup5\n    /* \"#utility.yul\":7615:7636   */\n  and\n    /* \"#utility.yul\":7606:7636   */\n  swap4\n  pop\n    /* \"#utility.yul\":7679:7683   */\n  dup1\n    /* \"#utility.yul\":7669:7677   */\n  dup7\n    /* \"#utility.yul\":7665:7684   */\n  and\n    /* \"#utility.yul\":7658:7663   */\n  dup5\n    /* \"#utility.yul\":7655:7685   */\n  or\n    /* \"#utility.yul\":7645:7685   */\n  swap3\n  pop\n    /* \"#utility.yul\":7374:7691   */\n  pop\n  pop\n    /* \"#utility.yul\":7298:7691   */\n  swap4\n  swap3\n  pop\n  pop\n  pop\n  jump\t// out\n    /* \"#utility.yul\":7697:7757   */\ntag_44:\n    /* \"#utility.yul\":7725:7728   */\n  0x00\n    /* \"#utility.yul\":7746:7751   */\n  dup2\n    /* \"#utility.yul\":7739:7751   */\n  swap1\n  pop\n    /* \"#utility.yul\":7697:7757   */\n  swap2\n  swap1\n  pop\n  jump\t// out\n    /* \"#utility.yul\":7763:7905   */\ntag_45:\n    /* \"#utility.yul\":7813:7822   */\n  0x00\n    /* \"#utility.yul\":7846:7899   */\n  tag_140\n    /* \"#utility.yul\":7864:7898   */\n  tag_141\n    /* \"#utility.yul\":7873:7897   */\n  tag_142\n    /* \"#utility.yul\":7891:7896   */\n  dup5\n    /* \"#utility.yul\":7873:7897   */\n  tag_30\n  jump\t// in\ntag_142:\n    /* \"#utility.yul\":7864:7898   */\n  tag_44\n  jump\t// in\ntag_141:\n    /* \"#utility.yul\":7846:7899   */\n  tag_30\n  jump\t// in\ntag_140:\n    /* \"#utility.yul\":7833:7899   */\n  swap1\n  pop\n    /* \"#utility.yul\":7763:7905   */\n  swap2\n  swap1\n  pop\n  jump\t// out\n    /* \"#utility.yul\":7911:7986   */\ntag_46:\n    /* \"#utility.yul\":7954:7957   */\n  0x00\n    /* \"#utility.yul\":7975:7980   */\n  dup2\n    /* \"#utility.yul\":7968:7980   */\n  swap1\n  pop\n    /* \"#utility.yul\":7911:7986   */\n  swap2\n  swap1\n  pop\n  jump\t// out\n    /* \"#utility.yul\":7992:8261   */\ntag_47:\n    /* \"#utility.yul\":8102:8141   */\n  tag_145\n    /* \"#utility.yul\":8133:8140   */\n  dup4\n    /* \"#utility.yul\":8102:8141   */\n  tag_45\n  jump\t// in\ntag_145:\n    /* \"#utility.yul\":8163:8254   */\n  tag_146\n    /* \"#utility.yul\":8212:8253   */\n  tag_147\n    /* \"#utility.yul\":8236:8252   */\n  dup3\n    /* \"#utility.yul\":8212:8253   */\n  tag_46\n  jump\t// in\ntag_147:\n    /* \"#utility.yul\":8204:8210   */\n  dup5\n    /* \"#utility.yul\":8197:8201   */\n  dup5\n    /* \"#utility.yul\":8191:8202   */\n  sload\n    /* \"#utility.yul\":8163:8254   */\n  tag_43\n  jump\t// in\ntag_146:\n    /* \"#utility.yul\":8157:8161   */\n  dup3\n    /* \"#utility.yul\":8150:8255   */\n  sstore\n    /* \"#utility.yul\":8068:8261   */\n  pop\n    /* \"#utility.yul\":7992:8261   */\n  pop\n  pop\n  pop\n  jump\t// out\n    /* \"#utility.yul\":8267:8340   */\ntag_48:\n    /* \"#utility.yul\":8312:8315   */\n  0x00\n    /* \"#utility.yul\":8333:8334   */\n  0x00\n    /* \"#utility.yul\":8326:8334   */\n  swap1\n  pop\n    /* \"#utility.yul\":8267:8340   */\n  swap1\n  jump\t// out\n    /* \"#utility.yul\":8346:8535   */\ntag_49:\n    /* \"#utility.yul\":8423:8455   */\n  tag_150\n  tag_48\n  jump\t// in\ntag_150:\n    /* \"#utility.yul\":8464:8529   */\n  tag_151\n    /* \"#utility.yul\":8522:8528   */\n  dup2\n    /* \"#utility.yul\":8514:8520   */\n  dup5\n    /* \"#utility.yul\":8508:8512   */\n  dup5\n    /* \"#utility.yul\":8464:8529   */\n  tag_47\n  jump\t// in\ntag_151:\n    /* \"#utility.yul\":8399:8535   */\n  pop\n    /* \"#utility.yul\":8346:8535   */\n  pop\n  pop\n  jump\t// out\n    /* \"#utility.yul\":8541:8727   */\ntag_50:\n    /* \"#utility.yul\":8601:8721   */\ntag_153:\n    /* \"#utility.yul\":8618:8621   */\n  dup2\n    /* \"#utility.yul\":8611:8616   */\n  dup2\n    /* \"#utility.yul\":8608:8622   */\n  lt\n    /* \"#utility.yul\":8601:8721   */\n  iszero\n  tag_155\n  jumpi\n    /* \"#utility.yul\":8672:8711   */\n  tag_156\n    /* \"#utility.yul\":8709:8710   */\n  0x00\n    /* \"#utility.yul\":8702:8707   */\n  dup3\n    /* \"#utility.yul\":8672:8711   */\n  tag_49\n  jump\t// in\ntag_156:\n    /* \"#utility.yul\":8645:8646   */\n  0x01\n    /* \"#utility.yul\":8638:8643   */\n  dup2\n    /* \"#utility.yul\":8634:8647   */\n  add\n    /* \"#utility.yul\":8625:8647   */\n  swap1\n  pop\n    /* \"#utility.yul\":8601:8721   */\n  jump(tag_153)\ntag_155:\n    /* \"#utility.yul\":8541:8727   */\n  pop\n  pop\n  jump\t// out\n    /* \"#utility.yul\":8733:9276   */\ntag_51:\n    /* \"#utility.yul\":8834:8836   */\n  0x1f\n    /* \"#utility.yul\":8829:8832   */\n  dup3\n    /* \"#utility.yul\":8826:8837   */\n  gt\n    /* \"#utility.yul\":8823:9269   */\n  iszero\n  tag_158\n  jumpi\n    /* \"#utility.yul\":8868:8906   */\n  tag_159\n    /* \"#utility.yul\":8900:8905   */\n  dup2\n    /* \"#utility.yul\":8868:8906   */\n  tag_40\n  jump\t// in\ntag_159:\n    /* \"#utility.yul\":8952:8981   */\n  tag_160\n    /* \"#utility.yul\":8970:8980   */\n  dup5\n    /* \"#utility.yul\":8952:8981   */\n  tag_41\n  jump\t// in\ntag_160:\n    /* \"#utility.yul\":8942:8950   */\n  dup2\n    /* \"#utility.yul\":8938:8982   */\n  add\n    /* \"#utility.yul\":9135:9137   */\n  0x20\n    /* \"#utility.yul\":9123:9133   */\n  dup6\n    /* \"#utility.yul\":9120:9138   */\n  lt\n    /* \"#utility.yul\":9117:9166   */\n  iszero\n  tag_161\n  jumpi\n    /* \"#utility.yul\":9156:9164   */\n  dup2\n    /* \"#utility.yul\":9141:9164   */\n  swap1\n  pop\n    /* \"#utility.yul\":9117:9166   */\ntag_161:\n    /* \"#utility.yul\":9179:9259   */\n  tag_162\n    /* \"#utility.yul\":9235:9257   */\n  tag_163\n    /* \"#utility.yul\":9253:9256   */\n  dup6\n    /* \"#utility.yul\":9235:9257   */\n  tag_41\n  jump\t// in\ntag_163:\n    /* \"#utility.yul\":9225:9233   */\n  dup4\n    /* \"#utility.yul\":9221:9258   */\n  add\n    /* \"#utility.yul\":9208:9219   */\n  dup3\n    /* \"#utility.yul\":9179:9259   */\n  tag_50\n  jump\t// in\ntag_162:\n    /* \"#utility.yul\":8838:9269   */\n  pop\n  pop\n    /* \"#utility.yul\":8823:9269   */\ntag_158:\n    /* \"#utility.yul\":8733:9276   */\n  pop\n  pop\n  pop\n  jump\t// out\n    /* \"#utility.yul\":9282:9399   */\ntag_52:\n    /* \"#utility.yul\":9336:9344   */\n  0x00\n    /* \"#utility.yul\":9386:9391   */\n  dup3\n    /* \"#utility.yul\":9380:9384   */\n  dup3\n    /* \"#utility.yul\":9376:9392   */\n  shr\n    /* \"#utility.yul\":9355:9392   */\n  swap1\n  pop\n    /* \"#utility.yul\":9282:9399   */\n  swap3\n  swap2\n  pop\n  pop\n  jump\t// out\n    /* \"#utility.yul\":9405:9574   */\ntag_53:\n    /* \"#utility.yul\":9449:9455   */\n  0x00\n    /* \"#utility.yul\":9482:9533   */\n  tag_166\n    /* \"#utility.yul\":9530:9531   */\n  0x00\n    /* \"#utility.yul\":9526:9532   */\n  not\n    /* \"#utility.yul\":9518:9523   */\n  dup5\n    /* \"#utility.yul\":9515:9516   */\n  0x08\n    /* \"#utility.yul\":9511:9524   */\n  mul\n    /* \"#utility.yul\":9482:9533   */\n  tag_52\n  jump\t// in\ntag_166:\n    /* \"#utility.yul\":9478:9534   */\n  not\n    /* \"#utility.yul\":9563:9567   */\n  dup1\n    /* \"#utility.yul\":9557:9561   */\n  dup4\n    /* \"#utility.yul\":9553:9568   */\n  and\n    /* \"#utility.yul\":9543:9568   */\n  swap2\n  pop\n    /* \"#utility.yul\":9456:9574   */\n  pop\n    /* \"#utility.yul\":9405:9574   */\n  swap3\n  swap2\n  pop\n  pop\n  jump\t// out\n    /* \"#utility.yul\":9579:9874   */\ntag_54:\n    /* \"#utility.yul\":9655:9659   */\n  0x00\n    /* \"#utility.yul\":9801:9830   */\n  tag_168\n    /* \"#utility.yul\":9826:9829   */\n  dup4\n    /* \"#utility.yul\":9820:9824   */\n  dup4\n    /* \"#utility.yul\":9801:9830   */\n  tag_53\n  jump\t// in\ntag_168:\n    /* \"#utility.yul\":9793:9830   */\n  swap2\n  pop\n    /* \"#utility.yul\":9863:9866   */\n  dup3\n    /* \"#utility.yul\":9860:9861   */\n  0x02\n    /* \"#utility.yul\":9856:9867   */\n  mul\n    /* \"#utility.yul\":9850:9854   */\n  dup3\n    /* \"#utility.yul\":9847:9868   */\n  or\n    /* \"#utility.yul\":9839:9868   */\n  swap1\n  pop\n    /* \"#utility.yul\":9579:9874   */\n  swap3\n  swap2\n  pop\n  pop\n  jump\t// out\n    /* \"#utility.yul\":9879:11274   */\ntag_12:\n    /* \"#utility.yul\":9996:10033   */\n  tag_170\n    /* \"#utility.yul\":10029:10032   */\n  dup3\n    /* \"#utility.yul\":9996:10033   */\n  tag_33\n  jump\t// in\ntag_170:\n    /* \"#utility.yul\":10098:10116   */\n  0xffffffffffffffff\n    /* \"#utility.yul\":10090:10096   */\n  dup2\n    /* \"#utility.yul\":10087:10117   */\n  gt\n    /* \"#utility.yul\":10084:10140   */\n  iszero\n  tag_171\n  jumpi\n    /* \"#utility.yul\":10120:10138   */\n  tag_172\n  tag_20\n  jump\t// in\ntag_172:\n    /* \"#utility.yul\":10084:10140   */\ntag_171:\n    /* \"#utility.yul\":10164:10202   */\n  tag_173\n    /* \"#utility.yul\":10196:10200   */\n  dup3\n    /* \"#utility.yul\":10190:10201   */\n  sload\n    /* \"#utility.yul\":10164:10202   */\n  tag_39\n  jump\t// in\ntag_173:\n    /* \"#utility.yul\":10249:10316   */\n  tag_174\n    /* \"#utility.yul\":10309:10315   */\n  dup3\n    /* \"#utility.yul\":10301:10307   */\n  dup3\n    /* \"#utility.yul\":10295:10299   */\n  dup6\n    /* \"#utility.yul\":10249:10316   */\n  tag_51\n  jump\t// in\ntag_174:\n    /* \"#utility.yul\":10343:10344   */\n  0x00\n    /* \"#utility.yul\":10367:10371   */\n  0x20\n    /* \"#utility.yul\":10354:10371   */\n  swap1\n  pop\n    /* \"#utility.yul\":10399:10401   */\n  0x1f\n    /* \"#utility.yul\":10391:10397   */\n  dup4\n    /* \"#utility.yul\":10388:10402   */\n  gt\n    /* \"#utility.yul\":10416:10417   */\n  0x01\n    /* \"#utility.yul\":10411:11029   */\n  dup2\n  eq\n  tag_176\n  jumpi\n    /* \"#utility.yul\":11073:11074   */\n  0x00\n    /* \"#utility.yul\":11090:11096   */\n  dup5\n    /* \"#utility.yul\":11087:11164   */\n  iszero\n  tag_177\n  jumpi\n    /* \"#utility.yul\":11139:11148   */\n  dup3\n    /* \"#utility.yul\":11134:11137   */\n  dup8\n    /* \"#utility.yul\":11130:11149   */\n  add\n    /* \"#utility.yul\":11124:11150   */\n  mload\n    /* \"#utility.yul\":11115:11150   */\n  swap1\n  pop\n    /* \"#utility.yul\":11087:11164   */\ntag_177:\n    /* \"#utility.yul\":11190:11257   */\n  tag_178\n    /* \"#utility.yul\":11250:11256   */\n  dup6\n    /* \"#utility.yul\":11243:11248   */\n  dup3\n    /* \"#utility.yul\":11190:11257   */\n  tag_54\n  jump\t// in\ntag_178:\n    /* \"#utility.yul\":11184:11188   */\n  dup7\n    /* \"#utility.yul\":11177:11258   */\n  sstore\n    /* \"#utility.yul\":11046:11268   */\n  pop\n    /* \"#utility.yul\":10381:11268   */\n  jump(tag_175)\n    /* \"#utility.yul\":10411:11029   */\ntag_176:\n    /* \"#utility.yul\":10463:10467   */\n  0x1f\n    /* \"#utility.yul\":10459:10468   */\n  not\n    /* \"#utility.yul\":10451:10457   */\n  dup5\n    /* \"#utility.yul\":10447:10469   */\n  and\n    /* \"#utility.yul\":10497:10534   */\n  tag_179\n    /* \"#utility.yul\":10529:10533   */\n  dup7\n    /* \"#utility.yul\":10497:10534   */\n  tag_40\n  jump\t// in\ntag_179:\n    /* \"#utility.yul\":10556:10557   */\n  0x00\n    /* \"#utility.yul\":10570:10778   */\ntag_180:\n    /* \"#utility.yul\":10584:10591   */\n  dup3\n    /* \"#utility.yul\":10581:10582   */\n  dup2\n    /* \"#utility.yul\":10578:10592   */\n  lt\n    /* \"#utility.yul\":10570:10778   */\n  iszero\n  tag_182\n  jumpi\n    /* \"#utility.yul\":10663:10672   */\n  dup5\n    /* \"#utility.yul\":10658:10661   */\n  dup10\n    /* \"#utility.yul\":10654:10673   */\n  add\n    /* \"#utility.yul\":10648:10674   */\n  mload\n    /* \"#utility.yul\":10640:10646   */\n  dup3\n    /* \"#utility.yul\":10633:10675   */\n  sstore\n    /* \"#utility.yul\":10714:10715   */\n  0x01\n    /* \"#utility.yul\":10706:10712   */\n  dup3\n    /* \"#utility.yul\":10702:10716   */\n  add\n    /* \"#utility.yul\":10692:10716   */\n  swap2\n  pop\n    /* \"#utility.yul\":10761:10763   */\n  0x20\n    /* \"#utility.yul\":10750:10759   */\n  dup6\n    /* \"#utility.yul\":10746:10764   */\n  add\n    /* \"#utility.yul\":10733:10764   */\n  swap5\n  pop\n    /* \"#utility.yul\":10607:10611   */\n  0x20\n    /* \"#utility.yul\":10604:10605   */\n  dup2\n    /* \"#utility.yul\":10600:10612   */\n  add\n    /* \"#utility.yul\":10595:10612   */\n  swap1\n  pop\n    /* \"#utility.yul\":10570:10778   */\n  jump(tag_180)\ntag_182:\n    /* \"#utility.yul\":10806:10812   */\n  dup7\n    /* \"#utility.yul\":10797:10804   */\n  dup4\n    /* \"#utility.yul\":10794:10813   */\n  lt\n    /* \"#utility.yul\":10791:10970   */\n  iszero\n  tag_183\n  jumpi\n    /* \"#utility.yul\":10864:10873   */\n  dup5\n    /* \"#utility.yul\":10859:10862   */\n  dup10\n    /* \"#utility.yul\":10855:10874   */\n  add\n    /* \"#utility.yul\":10849:10875   */\n  mload\n    /* \"#utility.yul\":10907:10955   */\n  tag_184\n    /* \"#utility.yul\":10949:10953   */\n  0x1f\n    /* \"#utility.yul\":10941:10947   */\n  dup10\n    /* \"#utility.yul\":10937:10954   */\n  and\n    /* \"#utility.yul\":10926:10935   */\n  dup3\n    /* \"#utility.yul\":10907:10955   */\n  tag_53\n  jump\t// in\ntag_184:\n    /* \"#utility.yul\":10899:10905   */\n  dup4\n    /* \"#utility.yul\":10892:10956   */\n  sstore\n    /* \"#utility.yul\":10814:10970   */\n  pop\n    /* \"#utility.yul\":10791:10970   */\ntag_183:\n    /* \"#utility.yul\":11016:11017   */\n  0x01\n    /* \"#utility.yul\":11012:11013   */\n  0x02\n    /* \"#utility.yul\":11004:11010   */\n  dup9\n    /* \"#utility.yul\":11000:11014   */\n  mul\n    /* \"#utility.yul\":10996:11018   */\n  add\n    /* \"#utility.yul\":10990:10994   */\n  dup9\n    /* \"#utility.yul\":10983:11019   */\n  sstore\n    /* \"#utility.yul\":10418:11029   */\n  pop\n  pop\n  pop\n    /* \"#utility.yul\":10381:11268   */\ntag_175:\n  pop\n    /* \"#utility.yul\":9971:11274   */\n  pop\n  pop\n  pop\n    /* \"#utility.yul\":9879:11274   */\n  pop\n  pop\n  jump\t// out\n    /* \"contract.sol\":86:2932  contract AirportContract {... */\ntag_13:\n  dataSize(sub_0)\n  dup1\n  dataOffset(sub_0)\n  0x00\n  codecopy\n  0x00\n  return\nstop\n\nsub_0: assembly {\n        /* \"contract.sol\":86:2932  contract AirportContract {... */\n      mstore(0x40, 0x80)\n      callvalue\n      dup1\n      iszero\n      tag_1\n      jumpi\n      revert(0x00, 0x00)\n    tag_1:\n      pop\n      jumpi(tag_2, lt(calldatasize, 0x04))\n      shr(0xe0, calldataload(0x00))\n      dup1\n      0x8a0b4879\n      gt\n      tag_16\n      jumpi\n      dup1\n      0xb31fae70\n      gt\n      tag_17\n      jumpi\n      dup1\n      0xb31fae70\n      eq\n      tag_12\n      jumpi\n      dup1\n      0xc0001786\n      eq\n      tag_13\n      jumpi\n      dup1\n      0xc863a972\n      eq\n      tag_14\n      jumpi\n      dup1\n      0xf48a311b\n      eq\n      tag_15\n      jumpi\n      jump(tag_2)\n    tag_17:\n      dup1\n      0x8a0b4879\n      eq\n      tag_9\n      jumpi\n      dup1\n      0x8da5cb5b\n      eq\n      tag_10\n      jumpi\n      dup1\n      0xa7269aab\n      eq\n      tag_11\n      jumpi\n      jump(tag_2)\n    tag_16:\n      dup1\n      0x09c20c3f\n      eq\n      tag_3\n      jumpi\n      dup1\n      0x17d7de7c\n      eq\n      tag_4\n      jumpi\n      dup1\n      0x21df0da7\n      eq\n      tag_5\n      jumpi\n      dup1\n      0x32434a2e\n      eq\n      tag_6\n      jumpi\n      dup1\n      0x42966c68\n      eq\n      tag_7\n      jumpi\n      dup1\n      0x484b973c\n      eq\n      tag_8\n      jumpi\n    tag_2:\n      revert(0x00, 0x00)\n        /* \"contract.sol\":1122:1243  function getBalancePassenger(address id_) external view returns (uint256) {... */\n    tag_3:\n      tag_18\n      0x04\n      dup1\n      calldatasize\n      sub\n      dup2\n      add\n      swap1\n      tag_19\n      swap2\n      swap1\n      tag_20\n      jump\t// in\n    tag_19:\n      tag_21\n      jump\t// in\n    tag_18:\n      mload(0x40)\n      tag_22\n      swap2\n      swap1\n      tag_23\n      jump\t// in\n    tag_22:\n      mload(0x40)\n      dup1\n      swap2\n      sub\n      swap1\n      return\n        /* \"contract.sol\":930:1018  function getName() external view returns (string memory) {... */\n    tag_4:\n      tag_24\n      tag_25\n      jump\t// in\n    tag_24:\n      mload(0x40)\n      tag_26\n      swap2\n      swap1\n      tag_27\n      jump\t// in\n    tag_26:\n      mload(0x40)\n      dup1\n      swap2\n      sub\n      swap1\n      return\n        /* \"contract.sol\":1026:1114  function getToken() external view returns (ERC20Simple) {... */\n    tag_5:\n      tag_28\n      tag_29\n      jump\t// in\n    tag_28:\n      mload(0x40)\n      tag_30\n      swap2\n      swap1\n      tag_31\n      jump\t// in\n    tag_30:\n      mload(0x40)\n      dup1\n      swap2\n      sub\n      swap1\n      return\n        /* \"contract.sol\":1495:1822  function register(address id_, string memory name_) external onlyOwner  {... */\n    tag_6:\n      tag_32\n      0x04\n      dup1\n      calldatasize\n      sub\n      dup2\n      add\n      swap1\n      tag_33\n      swap2\n      swap1\n      tag_34\n      jump\t// in\n    tag_33:\n      tag_35\n      jump\t// in\n    tag_32:\n      stop\n        /* \"contract.sol\":1944:2031  function burn(uint256 amount) public {... */\n    tag_7:\n      tag_36\n      0x04\n      dup1\n      calldatasize\n      sub\n      dup2\n      add\n      swap1\n      tag_37\n      swap2\n      swap1\n      tag_38\n      jump\t// in\n    tag_37:\n      tag_39\n      jump\t// in\n    tag_36:\n      stop\n        /* \"contract.sol\":1830:1936  function ownerMint(address id, uint256 miles) external onlyOwner {... */\n    tag_8:\n      tag_40\n      0x04\n      dup1\n      calldatasize\n      sub\n      dup2\n      add\n      swap1\n      tag_41\n      swap2\n      swap1\n      tag_42\n      jump\t// in\n    tag_41:\n      tag_43\n      jump\t// in\n    tag_40:\n      stop\n        /* \"contract.sol\":2312:2617  function extraLuggage(uint256 numberOfLugagges) external {... */\n    tag_9:\n      tag_44\n      0x04\n      dup1\n      calldatasize\n      sub\n      dup2\n      add\n      swap1\n      tag_45\n      swap2\n      swap1\n      tag_38\n      jump\t// in\n    tag_45:\n      tag_46\n      jump\t// in\n    tag_44:\n      stop\n        /* \"contract.sol\":178:206  address payable public owner */\n    tag_10:\n      tag_47\n      tag_48\n      jump\t// in\n    tag_47:\n      mload(0x40)\n      tag_49\n      swap2\n      swap1\n      tag_50\n      jump\t// in\n    tag_49:\n      mload(0x40)\n      dup1\n      swap2\n      sub\n      swap1\n      return\n        /* \"contract.sol\":1251:1372  function getBalancePassenger() external view returns (uint256) {    ... */\n    tag_11:\n      tag_51\n      tag_52\n      jump\t// in\n    tag_51:\n      mload(0x40)\n      tag_53\n      swap2\n      swap1\n      tag_23\n      jump\t// in\n    tag_53:\n      mload(0x40)\n      dup1\n      swap2\n      sub\n      swap1\n      return\n        /* \"contract.sol\":2625:2772  function upgradeUser() external {... */\n    tag_12:\n      tag_54\n      tag_55\n      jump\t// in\n    tag_54:\n      stop\n        /* \"contract.sol\":2039:2151  function ownerBurn(address from, uint256 amount) external onlyOwner {... */\n    tag_13:\n      tag_56\n      0x04\n      dup1\n      calldatasize\n      sub\n      dup2\n      add\n      swap1\n      tag_57\n      swap2\n      swap1\n      tag_42\n      jump\t// in\n    tag_57:\n      tag_58\n      jump\t// in\n    tag_56:\n      stop\n        /* \"contract.sol\":2163:2304  function upgradeSeat() external {... */\n    tag_14:\n      tag_59\n      tag_60\n      jump\t// in\n    tag_59:\n      stop\n        /* \"contract.sol\":2780:2929  function upgradeLounge() external {... */\n    tag_15:\n      tag_61\n      tag_62\n      jump\t// in\n    tag_61:\n      stop\n        /* \"contract.sol\":1122:1243  function getBalancePassenger(address id_) external view returns (uint256) {... */\n    tag_21:\n        /* \"contract.sol\":1187:1194  uint256 */\n      0x00\n        /* \"contract.sol\":1214:1220  _token */\n      0x01\n      0x00\n      swap1\n      sload\n      swap1\n      0x0100\n      exp\n      swap1\n      div\n      0xffffffffffffffffffffffffffffffffffffffff\n      and\n        /* \"contract.sol\":1214:1230  _token.balanceOf */\n      0xffffffffffffffffffffffffffffffffffffffff\n      and\n      0x70a08231\n        /* \"contract.sol\":1231:1234  id_ */\n      dup4\n        /* \"contract.sol\":1214:1235  _token.balanceOf(id_) */\n      mload(0x40)\n      dup3\n      0xffffffff\n      and\n      0xe0\n      shl\n      dup2\n      mstore\n      0x04\n      add\n      tag_64\n      swap2\n      swap1\n      tag_65\n      jump\t// in\n    tag_64:\n      0x20\n      mload(0x40)\n      dup1\n      dup4\n      sub\n      dup2\n      dup7\n      gas\n      staticcall\n      iszero\n      dup1\n      iszero\n      tag_67\n      jumpi\n      returndatacopy(0x00, 0x00, returndatasize)\n      revert(0x00, returndatasize)\n    tag_67:\n      pop\n      pop\n      pop\n      pop\n      mload(0x40)\n      returndatasize\n      not(0x1f)\n      0x1f\n      dup3\n      add\n      and\n      dup3\n      add\n      dup1\n      0x40\n      mstore\n      pop\n      dup2\n      add\n      swap1\n      tag_68\n      swap2\n      swap1\n      tag_69\n      jump\t// in\n    tag_68:\n        /* \"contract.sol\":1207:1235  return _token.balanceOf(id_) */\n      swap1\n      pop\n        /* \"contract.sol\":1122:1243  function getBalancePassenger(address id_) external view returns (uint256) {... */\n      swap2\n      swap1\n      pop\n      jump\t// out\n        /* \"contract.sol\":930:1018  function getName() external view returns (string memory) {... */\n    tag_25:\n        /* \"contract.sol\":972:985  string memory */\n      0x60\n        /* \"contract.sol\":1005:1010  _name */\n      0x00\n        /* \"contract.sol\":998:1010  return _name */\n      dup1\n      sload\n      tag_71\n      swap1\n      tag_72\n      jump\t// in\n    tag_71:\n      dup1\n      0x1f\n      add\n      0x20\n      dup1\n      swap2\n      div\n      mul\n      0x20\n      add\n      mload(0x40)\n      swap1\n      dup2\n      add\n      0x40\n      mstore\n      dup1\n      swap3\n      swap2\n      swap1\n      dup2\n      dup2\n      mstore\n      0x20\n      add\n      dup3\n      dup1\n      sload\n      tag_73\n      swap1\n      tag_72\n      jump\t// in\n    tag_73:\n      dup1\n      iszero\n      tag_74\n      jumpi\n      dup1\n      0x1f\n      lt\n      tag_75\n      jumpi\n      0x0100\n      dup1\n      dup4\n      sload\n      div\n      mul\n      dup4\n      mstore\n      swap2\n      0x20\n      add\n      swap2\n      jump(tag_74)\n    tag_75:\n      dup3\n      add\n      swap2\n      swap1\n      0x00\n      mstore\n      keccak256(0x00, 0x20)\n      swap1\n    tag_76:\n      dup2\n      sload\n      dup2\n      mstore\n      swap1\n      0x01\n      add\n      swap1\n      0x20\n      add\n      dup1\n      dup4\n      gt\n      tag_76\n      jumpi\n      dup3\n      swap1\n      sub\n      0x1f\n      and\n      dup3\n      add\n      swap2\n    tag_74:\n      pop\n      pop\n      pop\n      pop\n      pop\n      swap1\n      pop\n        /* \"contract.sol\":930:1018  function getName() external view returns (string memory) {... */\n      swap1\n      jump\t// out\n        /* \"contract.sol\":1026:1114  function getToken() external view returns (ERC20Simple) {... */\n    tag_29:\n        /* \"contract.sol\":1069:1080  ERC20Simple */\n      0x00\n        /* \"contract.sol\":1100:1106  _token */\n      0x01\n      0x00\n      swap1\n      sload\n      swap1\n      0x0100\n      exp\n      swap1\n      div\n      0xffffffffffffffffffffffffffffffffffffffff\n      and\n        /* \"contract.sol\":1093:1106  return _token */\n      swap1\n      pop\n        /* \"contract.sol\":1026:1114  function getToken() external view returns (ERC20Simple) {... */\n      swap1\n      jump\t// out\n        /* \"contract.sol\":1495:1822  function register(address id_, string memory name_) external onlyOwner  {... */\n    tag_35:\n        /* \"contract.sol\":1436:1441  owner */\n      0x02\n      0x00\n      swap1\n      sload\n      swap1\n      0x0100\n      exp\n      swap1\n      div\n      0xffffffffffffffffffffffffffffffffffffffff\n      and\n        /* \"contract.sol\":1422:1441  msg.sender == owner */\n      0xffffffffffffffffffffffffffffffffffffffff\n      and\n        /* \"contract.sol\":1422:1432  msg.sender */\n      caller\n        /* \"contract.sol\":1422:1441  msg.sender == owner */\n      0xffffffffffffffffffffffffffffffffffffffff\n      and\n      eq\n        /* \"contract.sol\":1414:1467  require(msg.sender == owner, \"You are not the owner\") */\n      tag_79\n      jumpi\n      mload(0x40)\n      0x08c379a000000000000000000000000000000000000000000000000000000000\n      dup2\n      mstore\n      0x04\n      add\n      tag_80\n      swap1\n      tag_81\n      jump\t// in\n    tag_80:\n      mload(0x40)\n      dup1\n      swap2\n      sub\n      swap1\n      revert\n    tag_79:\n        /* \"contract.sol\":1620:1621  0 */\n      0x00\n        /* \"contract.sol\":1586:1622  listPassengers[id_].id == address(0) */\n      0xffffffffffffffffffffffffffffffffffffffff\n      and\n        /* \"contract.sol\":1586:1600  listPassengers */\n      0x03\n        /* \"contract.sol\":1586:1605  listPassengers[id_] */\n      0x00\n        /* \"contract.sol\":1601:1604  id_ */\n      dup5\n        /* \"contract.sol\":1586:1605  listPassengers[id_] */\n      0xffffffffffffffffffffffffffffffffffffffff\n      and\n      0xffffffffffffffffffffffffffffffffffffffff\n      and\n      dup2\n      mstore\n      0x20\n      add\n      swap1\n      dup2\n      mstore\n      0x20\n      add\n      0x00\n      keccak256\n        /* \"contract.sol\":1586:1608  listPassengers[id_].id */\n      0x00\n      add\n      0x00\n      swap1\n      sload\n      swap1\n      0x0100\n      exp\n      swap1\n      div\n      0xffffffffffffffffffffffffffffffffffffffff\n      and\n        /* \"contract.sol\":1586:1622  listPassengers[id_].id == address(0) */\n      0xffffffffffffffffffffffffffffffffffffffff\n      and\n      eq\n        /* \"contract.sol\":1578:1658  require(listPassengers[id_].id == address(0), \"Passenger is already registered\") */\n      tag_83\n      jumpi\n      mload(0x40)\n      0x08c379a000000000000000000000000000000000000000000000000000000000\n      dup2\n      mstore\n      0x04\n      add\n      tag_84\n      swap1\n      tag_85\n      jump\t// in\n    tag_84:\n      mload(0x40)\n      dup1\n      swap2\n      sub\n      swap1\n      revert\n    tag_83:\n        /* \"contract.sol\":1671:1697  Passenger memory passenger */\n      0x00\n        /* \"contract.sol\":1700:1770  Passenger({... */\n      mload(0x40)\n      dup1\n      0x40\n      add\n      0x40\n      mstore\n      dup1\n        /* \"contract.sol\":1729:1732  id_ */\n      dup5\n        /* \"contract.sol\":1700:1770  Passenger({... */\n      0xffffffffffffffffffffffffffffffffffffffff\n      and\n      dup2\n      mstore\n      0x20\n      add\n        /* \"contract.sol\":1753:1758  name_ */\n      dup4\n        /* \"contract.sol\":1700:1770  Passenger({... */\n      dup2\n      mstore\n      pop\n        /* \"contract.sol\":1671:1770  Passenger memory passenger = Passenger({... */\n      swap1\n      pop\n        /* \"contract.sol\":1805:1814  passenger */\n      dup1\n        /* \"contract.sol\":1783:1797  listPassengers */\n      0x03\n        /* \"contract.sol\":1783:1802  listPassengers[id_] */\n      0x00\n        /* \"contract.sol\":1798:1801  id_ */\n      dup6\n        /* \"contract.sol\":1783:1802  listPassengers[id_] */\n      0xffffffffffffffffffffffffffffffffffffffff\n      and\n      0xffffffffffffffffffffffffffffffffffffffff\n      and\n      dup2\n      mstore\n      0x20\n      add\n      swap1\n      dup2\n      mstore\n      0x20\n      add\n      0x00\n      keccak256\n        /* \"contract.sol\":1783:1814  listPassengers[id_] = passenger */\n      0x00\n      dup3\n      add\n      mload\n      dup2\n      0x00\n      add\n      exp(0x0100, 0x00)\n      dup2\n      sload\n      dup2\n      0xffffffffffffffffffffffffffffffffffffffff\n      mul\n      not\n      and\n      swap1\n      dup4\n      0xffffffffffffffffffffffffffffffffffffffff\n      and\n      mul\n      or\n      swap1\n      sstore\n      pop\n      0x20\n      dup3\n      add\n      mload\n      dup2\n      0x01\n      add\n      swap1\n      dup2\n      tag_86\n      swap2\n      swap1\n      tag_87\n      jump\t// in\n    tag_86:\n      pop\n      swap1\n      pop\n      pop\n        /* \"contract.sol\":1567:1822  {... */\n      pop\n        /* \"contract.sol\":1495:1822  function register(address id_, string memory name_) external onlyOwner  {... */\n      pop\n      pop\n      jump\t// out\n        /* \"contract.sol\":1944:2031  function burn(uint256 amount) public {... */\n    tag_39:\n        /* \"contract.sol\":1992:1998  _token */\n      0x01\n      0x00\n      swap1\n      sload\n      swap1\n      0x0100\n      exp\n      swap1\n      div\n      0xffffffffffffffffffffffffffffffffffffffff\n      and\n        /* \"contract.sol\":1992:2003  _token.burn */\n      0xffffffffffffffffffffffffffffffffffffffff\n      and\n      0x9dc29fac\n        /* \"contract.sol\":2004:2014  msg.sender */\n      caller\n        /* \"contract.sol\":2016:2022  amount */\n      dup4\n        /* \"contract.sol\":1992:2023  _token.burn(msg.sender, amount) */\n      mload(0x40)\n      dup4\n      0xffffffff\n      and\n      0xe0\n      shl\n      dup2\n      mstore\n      0x04\n      add\n      tag_89\n      swap3\n      swap2\n      swap1\n      tag_90\n      jump\t// in\n    tag_89:\n      0x00\n      mload(0x40)\n      dup1\n      dup4\n      sub\n      dup2\n      0x00\n      dup8\n      dup1\n      extcodesize\n      iszero\n      dup1\n      iszero\n      tag_91\n      jumpi\n      revert(0x00, 0x00)\n    tag_91:\n      pop\n      gas\n      call\n      iszero\n      dup1\n      iszero\n      tag_93\n      jumpi\n      returndatacopy(0x00, 0x00, returndatasize)\n      revert(0x00, returndatasize)\n    tag_93:\n      pop\n      pop\n      pop\n      pop\n        /* \"contract.sol\":1944:2031  function burn(uint256 amount) public {... */\n      pop\n      jump\t// out\n        /* \"contract.sol\":1830:1936  function ownerMint(address id, uint256 miles) external onlyOwner {... */\n    tag_43:\n        /* \"contract.sol\":1436:1441  owner */\n      0x02\n      0x00\n      swap1\n      sload\n      swap1\n      0x0100\n      exp\n      swap1\n      div\n      0xffffffffffffffffffffffffffffffffffffffff\n      and\n        /* \"contract.sol\":1422:1441  msg.sender == owner */\n      0xffffffffffffffffffffffffffffffffffffffff\n      and\n        /* \"contract.sol\":1422:1432  msg.sender */\n      caller\n        /* \"contract.sol\":1422:1441  msg.sender == owner */\n      0xffffffffffffffffffffffffffffffffffffffff\n      and\n      eq\n        /* \"contract.sol\":1414:1467  require(msg.sender == owner, \"You are not the owner\") */\n      tag_95\n      jumpi\n      mload(0x40)\n      0x08c379a000000000000000000000000000000000000000000000000000000000\n      dup2\n      mstore\n      0x04\n      add\n      tag_96\n      swap1\n      tag_81\n      jump\t// in\n    tag_96:\n      mload(0x40)\n      dup1\n      swap2\n      sub\n      swap1\n      revert\n    tag_95:\n        /* \"contract.sol\":1906:1912  _token */\n      0x01\n      0x00\n      swap1\n      sload\n      swap1\n      0x0100\n      exp\n      swap1\n      div\n      0xffffffffffffffffffffffffffffffffffffffff\n      and\n        /* \"contract.sol\":1906:1917  _token.mint */\n      0xffffffffffffffffffffffffffffffffffffffff\n      and\n      0x40c10f19\n        /* \"contract.sol\":1918:1920  id */\n      dup4\n        /* \"contract.sol\":1922:1927  miles */\n      dup4\n        /* \"contract.sol\":1906:1928  _token.mint(id, miles) */\n      mload(0x40)\n      dup4\n      0xffffffff\n      and\n      0xe0\n      shl\n      dup2\n      mstore\n      0x04\n      add\n      tag_98\n      swap3\n      swap2\n      swap1\n      tag_90\n      jump\t// in\n    tag_98:\n      0x00\n      mload(0x40)\n      dup1\n      dup4\n      sub\n      dup2\n      0x00\n      dup8\n      dup1\n      extcodesize\n      iszero\n      dup1\n      iszero\n      tag_99\n      jumpi\n      revert(0x00, 0x00)\n    tag_99:\n      pop\n      gas\n      call\n      iszero\n      dup1\n      iszero\n      tag_101\n      jumpi\n      returndatacopy(0x00, 0x00, returndatasize)\n      revert(0x00, returndatasize)\n    tag_101:\n      pop\n      pop\n      pop\n      pop\n        /* \"contract.sol\":1830:1936  function ownerMint(address id, uint256 miles) external onlyOwner {... */\n      pop\n      pop\n      jump\t// out\n        /* \"contract.sol\":2312:2617  function extraLuggage(uint256 numberOfLugagges) external {... */\n    tag_46:\n        /* \"contract.sol\":2380:2400  uint256 priceLuggage */\n      0x00\n        /* \"contract.sol\":2403:2406  250 */\n      0xfa\n        /* \"contract.sol\":2380:2406  uint256 priceLuggage = 250 */\n      swap1\n      pop\n        /* \"contract.sol\":2445:2446  1 */\n      0x01\n        /* \"contract.sol\":2425:2441  numberOfLugagges */\n      dup3\n        /* \"contract.sol\":2425:2446  numberOfLugagges >= 1 */\n      lt\n      iszero\n        /* \"contract.sol\":2417:2465  require(numberOfLugagges >= 1, \"Invalid amount\") */\n      tag_103\n      jumpi\n      mload(0x40)\n      0x08c379a000000000000000000000000000000000000000000000000000000000\n      dup2\n      mstore\n      0x04\n      add\n      tag_104\n      swap1\n      tag_105\n      jump\t// in\n    tag_104:\n      mload(0x40)\n      dup1\n      swap2\n      sub\n      swap1\n      revert\n    tag_103:\n        /* \"contract.sol\":2476:2491  uint256 luggage */\n      0x00\n        /* \"contract.sol\":2513:2525  priceLuggage */\n      dup2\n        /* \"contract.sol\":2494:2510  numberOfLugagges */\n      dup4\n        /* \"contract.sol\":2494:2525  numberOfLugagges * priceLuggage */\n      tag_106\n      swap2\n      swap1\n      tag_107\n      jump\t// in\n    tag_106:\n        /* \"contract.sol\":2476:2525  uint256 luggage = numberOfLugagges * priceLuggage */\n      swap1\n      pop\n        /* \"contract.sol\":2536:2549  burn(luggage) */\n      tag_108\n        /* \"contract.sol\":2541:2548  luggage */\n      dup2\n        /* \"contract.sol\":2536:2540  burn */\n      tag_39\n        /* \"contract.sol\":2536:2549  burn(luggage) */\n      jump\t// in\n    tag_108:\n        /* \"contract.sol\":2580:2590  msg.sender */\n      caller\n        /* \"contract.sol\":2567:2609  ExtraLuggage(msg.sender, numberOfLugagges) */\n      0xffffffffffffffffffffffffffffffffffffffff\n      and\n      0xd72f490c1449b88f0e0200c443d362eef0d62bf07d92319cfc46bdea7b8323fc\n        /* \"contract.sol\":2592:2608  numberOfLugagges */\n      dup5\n        /* \"contract.sol\":2567:2609  ExtraLuggage(msg.sender, numberOfLugagges) */\n      mload(0x40)\n      tag_109\n      swap2\n      swap1\n      tag_23\n      jump\t// in\n    tag_109:\n      mload(0x40)\n      dup1\n      swap2\n      sub\n      swap1\n      log2\n        /* \"contract.sol\":2369:2617  {... */\n      pop\n      pop\n        /* \"contract.sol\":2312:2617  function extraLuggage(uint256 numberOfLugagges) external {... */\n      pop\n      jump\t// out\n        /* \"contract.sol\":178:206  address payable public owner */\n    tag_48:\n      0x02\n      0x00\n      swap1\n      sload\n      swap1\n      0x0100\n      exp\n      swap1\n      div\n      0xffffffffffffffffffffffffffffffffffffffff\n      and\n      dup2\n      jump\t// out\n        /* \"contract.sol\":1251:1372  function getBalancePassenger() external view returns (uint256) {    ... */\n    tag_52:\n        /* \"contract.sol\":1305:1312  uint256 */\n      0x00\n        /* \"contract.sol\":1336:1342  _token */\n      0x01\n      0x00\n      swap1\n      sload\n      swap1\n      0x0100\n      exp\n      swap1\n      div\n      0xffffffffffffffffffffffffffffffffffffffff\n      and\n        /* \"contract.sol\":1336:1352  _token.balanceOf */\n      0xffffffffffffffffffffffffffffffffffffffff\n      and\n      0x70a08231\n        /* \"contract.sol\":1353:1363  msg.sender */\n      caller\n        /* \"contract.sol\":1336:1364  _token.balanceOf(msg.sender) */\n      mload(0x40)\n      dup3\n      0xffffffff\n      and\n      0xe0\n      shl\n      dup2\n      mstore\n      0x04\n      add\n      tag_111\n      swap2\n      swap1\n      tag_65\n      jump\t// in\n    tag_111:\n      0x20\n      mload(0x40)\n      dup1\n      dup4\n      sub\n      dup2\n      dup7\n      gas\n      staticcall\n      iszero\n      dup1\n      iszero\n      tag_113\n      jumpi\n      returndatacopy(0x00, 0x00, returndatasize)\n      revert(0x00, returndatasize)\n    tag_113:\n      pop\n      pop\n      pop\n      pop\n      mload(0x40)\n      returndatasize\n      not(0x1f)\n      0x1f\n      dup3\n      add\n      and\n      dup3\n      add\n      dup1\n      0x40\n      mstore\n      pop\n      dup2\n      add\n      swap1\n      tag_114\n      swap2\n      swap1\n      tag_69\n      jump\t// in\n    tag_114:\n        /* \"contract.sol\":1329:1364  return _token.balanceOf(msg.sender) */\n      swap1\n      pop\n        /* \"contract.sol\":1251:1372  function getBalancePassenger() external view returns (uint256) {    ... */\n      swap1\n      jump\t// out\n        /* \"contract.sol\":2625:2772  function upgradeUser() external {... */\n    tag_55:\n        /* \"contract.sol\":2668:2688  uint256 priceUpgrade */\n      0x00\n        /* \"contract.sol\":2691:2694  500 */\n      0x01f4\n        /* \"contract.sol\":2668:2694  uint256 priceUpgrade = 500 */\n      swap1\n      pop\n        /* \"contract.sol\":2705:2723  burn(priceUpgrade) */\n      tag_116\n        /* \"contract.sol\":2710:2722  priceUpgrade */\n      dup2\n        /* \"contract.sol\":2705:2709  burn */\n      tag_39\n        /* \"contract.sol\":2705:2723  burn(priceUpgrade) */\n      jump\t// in\n    tag_116:\n        /* \"contract.sol\":2753:2763  msg.sender */\n      caller\n        /* \"contract.sol\":2741:2764  UpgradeUser(msg.sender) */\n      0xffffffffffffffffffffffffffffffffffffffff\n      and\n      0xeb93ecee6f0fcbe7754f4fb0c84ba91b043ba19fe913e5c83b1857128ef97251\n      mload(0x40)\n      mload(0x40)\n      dup1\n      swap2\n      sub\n      swap1\n      log2\n        /* \"contract.sol\":2657:2772  {... */\n      pop\n        /* \"contract.sol\":2625:2772  function upgradeUser() external {... */\n      jump\t// out\n        /* \"contract.sol\":2039:2151  function ownerBurn(address from, uint256 amount) external onlyOwner {... */\n    tag_58:\n        /* \"contract.sol\":1436:1441  owner */\n      0x02\n      0x00\n      swap1\n      sload\n      swap1\n      0x0100\n      exp\n      swap1\n      div\n      0xffffffffffffffffffffffffffffffffffffffff\n      and\n        /* \"contract.sol\":1422:1441  msg.sender == owner */\n      0xffffffffffffffffffffffffffffffffffffffff\n      and\n        /* \"contract.sol\":1422:1432  msg.sender */\n      caller\n        /* \"contract.sol\":1422:1441  msg.sender == owner */\n      0xffffffffffffffffffffffffffffffffffffffff\n      and\n      eq\n        /* \"contract.sol\":1414:1467  require(msg.sender == owner, \"You are not the owner\") */\n      tag_118\n      jumpi\n      mload(0x40)\n      0x08c379a000000000000000000000000000000000000000000000000000000000\n      dup2\n      mstore\n      0x04\n      add\n      tag_119\n      swap1\n      tag_81\n      jump\t// in\n    tag_119:\n      mload(0x40)\n      dup1\n      swap2\n      sub\n      swap1\n      revert\n    tag_118:\n        /* \"contract.sol\":2118:2124  _token */\n      0x01\n      0x00\n      swap1\n      sload\n      swap1\n      0x0100\n      exp\n      swap1\n      div\n      0xffffffffffffffffffffffffffffffffffffffff\n      and\n        /* \"contract.sol\":2118:2129  _token.burn */\n      0xffffffffffffffffffffffffffffffffffffffff\n      and\n      0x9dc29fac\n        /* \"contract.sol\":2130:2134  from */\n      dup4\n        /* \"contract.sol\":2136:2142  amount */\n      dup4\n        /* \"contract.sol\":2118:2143  _token.burn(from, amount) */\n      mload(0x40)\n      dup4\n      0xffffffff\n      and\n      0xe0\n      shl\n      dup2\n      mstore\n      0x04\n      add\n      tag_121\n      swap3\n      swap2\n      swap1\n      tag_90\n      jump\t// in\n    tag_121:\n      0x00\n      mload(0x40)\n      dup1\n      dup4\n      sub\n      dup2\n      0x00\n      dup8\n      dup1\n      extcodesize\n      iszero\n      dup1\n      iszero\n      tag_122\n      jumpi\n      revert(0x00, 0x00)\n    tag_122:\n      pop\n      gas\n      call\n      iszero\n      dup1\n      iszero\n      tag_124\n      jumpi\n      returndatacopy(0x00, 0x00, returndatasize)\n      revert(0x00, returndatasize)\n    tag_124:\n      pop\n      pop\n      pop\n      pop\n        /* \"contract.sol\":2039:2151  function ownerBurn(address from, uint256 amount) external onlyOwner {... */\n      pop\n      pop\n      jump\t// out\n        /* \"contract.sol\":2163:2304  function upgradeSeat() external {... */\n    tag_60:\n        /* \"contract.sol\":2206:2223  uint256 priceSeat */\n      0x00\n        /* \"contract.sol\":2226:2229  250 */\n      0xfa\n        /* \"contract.sol\":2206:2229  uint256 priceSeat = 250 */\n      swap1\n      pop\n        /* \"contract.sol\":2240:2255  burn(priceSeat) */\n      tag_126\n        /* \"contract.sol\":2245:2254  priceSeat */\n      dup2\n        /* \"contract.sol\":2240:2244  burn */\n      tag_39\n        /* \"contract.sol\":2240:2255  burn(priceSeat) */\n      jump\t// in\n    tag_126:\n        /* \"contract.sol\":2285:2295  msg.sender */\n      caller\n        /* \"contract.sol\":2273:2296  UpgradeSeat(msg.sender) */\n      0xffffffffffffffffffffffffffffffffffffffff\n      and\n      0xe0d90d47609fb99b5824a89addaa6a218ddfd2c9bb3384d96f51dde2b6740129\n      mload(0x40)\n      mload(0x40)\n      dup1\n      swap2\n      sub\n      swap1\n      log2\n        /* \"contract.sol\":2195:2304  {... */\n      pop\n        /* \"contract.sol\":2163:2304  function upgradeSeat() external {... */\n      jump\t// out\n        /* \"contract.sol\":2780:2929  function upgradeLounge() external {... */\n    tag_62:\n        /* \"contract.sol\":2825:2844  uint256 priceLounge */\n      0x00\n        /* \"contract.sol\":2847:2850  500 */\n      0x01f4\n        /* \"contract.sol\":2825:2850  uint256 priceLounge = 500 */\n      swap1\n      pop\n        /* \"contract.sol\":2861:2878  burn(priceLounge) */\n      tag_128\n        /* \"contract.sol\":2866:2877  priceLounge */\n      dup2\n        /* \"contract.sol\":2861:2865  burn */\n      tag_39\n        /* \"contract.sol\":2861:2878  burn(priceLounge) */\n      jump\t// in\n    tag_128:\n        /* \"contract.sol\":2910:2920  msg.sender */\n      caller\n        /* \"contract.sol\":2896:2921  UpgradeLounge(msg.sender) */\n      0xffffffffffffffffffffffffffffffffffffffff\n      and\n      0xd736583d01c1cbd92a96fcb7456eb2682f1bec6e8268149b27bac50f450c9fee\n      mload(0x40)\n      mload(0x40)\n      dup1\n      swap2\n      sub\n      swap1\n      log2\n        /* \"contract.sol\":2814:2929  {... */\n      pop\n        /* \"contract.sol\":2780:2929  function upgradeLounge() external {... */\n      jump\t// out\n        /* \"#utility.yul\":7:82   */\n    tag_129:\n        /* \"#utility.yul\":40:46   */\n      0x00\n        /* \"#utility.yul\":73:75   */\n      0x40\n        /* \"#utility.yul\":67:76   */\n      mload\n        /* \"#utility.yul\":57:76   */\n      swap1\n      pop\n        /* \"#utility.yul\":7:82   */\n      swap1\n      jump\t// out\n        /* \"#utility.yul\":88:205   */\n    tag_130:\n        /* \"#utility.yul\":197:198   */\n      0x00\n        /* \"#utility.yul\":194:195   */\n      0x00\n        /* \"#utility.yul\":187:199   */\n      revert\n        /* \"#utility.yul\":211:328   */\n    tag_131:\n        /* \"#utility.yul\":320:321   */\n      0x00\n        /* \"#utility.yul\":317:318   */\n      0x00\n        /* \"#utility.yul\":310:322   */\n      revert\n        /* \"#utility.yul\":334:460   */\n    tag_132:\n        /* \"#utility.yul\":371:378   */\n      0x00\n        /* \"#utility.yul\":411:453   */\n      0xffffffffffffffffffffffffffffffffffffffff\n        /* \"#utility.yul\":404:409   */\n      dup3\n        /* \"#utility.yul\":400:454   */\n      and\n        /* \"#utility.yul\":389:454   */\n      swap1\n      pop\n        /* \"#utility.yul\":334:460   */\n      swap2\n      swap1\n      pop\n      jump\t// out\n        /* \"#utility.yul\":466:562   */\n    tag_133:\n        /* \"#utility.yul\":503:510   */\n      0x00\n        /* \"#utility.yul\":532:556   */\n      tag_191\n        /* \"#utility.yul\":550:555   */\n      dup3\n        /* \"#utility.yul\":532:556   */\n      tag_132\n      jump\t// in\n    tag_191:\n        /* \"#utility.yul\":521:556   */\n      swap1\n      pop\n        /* \"#utility.yul\":466:562   */\n      swap2\n      swap1\n      pop\n      jump\t// out\n        /* \"#utility.yul\":568:690   */\n    tag_134:\n        /* \"#utility.yul\":641:665   */\n      tag_193\n        /* \"#utility.yul\":659:664   */\n      dup2\n        /* \"#utility.yul\":641:665   */\n      tag_133\n      jump\t// in\n    tag_193:\n        /* \"#utility.yul\":634:639   */\n      dup2\n        /* \"#utility.yul\":631:666   */\n      eq\n        /* \"#utility.yul\":621:684   */\n      tag_194\n      jumpi\n        /* \"#utility.yul\":680:681   */\n      0x00\n        /* \"#utility.yul\":677:678   */\n      0x00\n        /* \"#utility.yul\":670:682   */\n      revert\n        /* \"#utility.yul\":621:684   */\n    tag_194:\n        /* \"#utility.yul\":568:690   */\n      pop\n      jump\t// out\n        /* \"#utility.yul\":696:835   */\n    tag_135:\n        /* \"#utility.yul\":742:747   */\n      0x00\n        /* \"#utility.yul\":780:786   */\n      dup2\n        /* \"#utility.yul\":767:787   */\n      calldataload\n        /* \"#utility.yul\":758:787   */\n      swap1\n      pop\n        /* \"#utility.yul\":796:829   */\n      tag_196\n        /* \"#utility.yul\":823:828   */\n      dup2\n        /* \"#utility.yul\":796:829   */\n      tag_134\n      jump\t// in\n    tag_196:\n        /* \"#utility.yul\":696:835   */\n      swap3\n      swap2\n      pop\n      pop\n      jump\t// out\n        /* \"#utility.yul\":841:1170   */\n    tag_20:\n        /* \"#utility.yul\":900:906   */\n      0x00\n        /* \"#utility.yul\":949:951   */\n      0x20\n        /* \"#utility.yul\":937:946   */\n      dup3\n        /* \"#utility.yul\":928:935   */\n      dup5\n        /* \"#utility.yul\":924:947   */\n      sub\n        /* \"#utility.yul\":920:952   */\n      slt\n        /* \"#utility.yul\":917:1036   */\n      iszero\n      tag_198\n      jumpi\n        /* \"#utility.yul\":955:1034   */\n      tag_199\n      tag_130\n      jump\t// in\n    tag_199:\n        /* \"#utility.yul\":917:1036   */\n    tag_198:\n        /* \"#utility.yul\":1075:1076   */\n      0x00\n        /* \"#utility.yul\":1100:1153   */\n      tag_200\n        /* \"#utility.yul\":1145:1152   */\n      dup5\n        /* \"#utility.yul\":1136:1142   */\n      dup3\n        /* \"#utility.yul\":1125:1134   */\n      dup6\n        /* \"#utility.yul\":1121:1143   */\n      add\n        /* \"#utility.yul\":1100:1153   */\n      tag_135\n      jump\t// in\n    tag_200:\n        /* \"#utility.yul\":1090:1153   */\n      swap2\n      pop\n        /* \"#utility.yul\":1046:1163   */\n      pop\n        /* \"#utility.yul\":841:1170   */\n      swap3\n      swap2\n      pop\n      pop\n      jump\t// out\n        /* \"#utility.yul\":1176:1253   */\n    tag_136:\n        /* \"#utility.yul\":1213:1220   */\n      0x00\n        /* \"#utility.yul\":1242:1247   */\n      dup2\n        /* \"#utility.yul\":1231:1247   */\n      swap1\n      pop\n        /* \"#utility.yul\":1176:1253   */\n      swap2\n      swap1\n      pop\n      jump\t// out\n        /* \"#utility.yul\":1259:1377   */\n    tag_137:\n        /* \"#utility.yul\":1346:1370   */\n      tag_203\n        /* \"#utility.yul\":1364:1369   */\n      dup2\n        /* \"#utility.yul\":1346:1370   */\n      tag_136\n      jump\t// in\n    tag_203:\n        /* \"#utility.yul\":1341:1344   */\n      dup3\n        /* \"#utility.yul\":1334:1371   */\n      mstore\n        /* \"#utility.yul\":1259:1377   */\n      pop\n      pop\n      jump\t// out\n        /* \"#utility.yul\":1383:1605   */\n    tag_23:\n        /* \"#utility.yul\":1476:1480   */\n      0x00\n        /* \"#utility.yul\":1514:1516   */\n      0x20\n        /* \"#utility.yul\":1503:1512   */\n      dup3\n        /* \"#utility.yul\":1499:1517   */\n      add\n        /* \"#utility.yul\":1491:1517   */\n      swap1\n      pop\n        /* \"#utility.yul\":1527:1598   */\n      tag_205\n        /* \"#utility.yul\":1595:1596   */\n      0x00\n        /* \"#utility.yul\":1584:1593   */\n      dup4\n        /* \"#utility.yul\":1580:1597   */\n      add\n        /* \"#utility.yul\":1571:1577   */\n      dup5\n        /* \"#utility.yul\":1527:1598   */\n      tag_137\n      jump\t// in\n    tag_205:\n        /* \"#utility.yul\":1383:1605   */\n      swap3\n      swap2\n      pop\n      pop\n      jump\t// out\n        /* \"#utility.yul\":1611:1710   */\n    tag_138:\n        /* \"#utility.yul\":1663:1669   */\n      0x00\n        /* \"#utility.yul\":1697:1702   */\n      dup2\n        /* \"#utility.yul\":1691:1703   */\n      mload\n        /* \"#utility.yul\":1681:1703   */\n      swap1\n      pop\n        /* \"#utility.yul\":1611:1710   */\n      swap2\n      swap1\n      pop\n      jump\t// out\n        /* \"#utility.yul\":1716:1885   */\n    tag_139:\n        /* \"#utility.yul\":1800:1811   */\n      0x00\n        /* \"#utility.yul\":1834:1840   */\n      dup3\n        /* \"#utility.yul\":1829:1832   */\n      dup3\n        /* \"#utility.yul\":1822:1841   */\n      mstore\n        /* \"#utility.yul\":1874:1878   */\n      0x20\n        /* \"#utility.yul\":1869:1872   */\n      dup3\n        /* \"#utility.yul\":1865:1879   */\n      add\n        /* \"#utility.yul\":1850:1879   */\n      swap1\n      pop\n        /* \"#utility.yul\":1716:1885   */\n      swap3\n      swap2\n      pop\n      pop\n      jump\t// out\n        /* \"#utility.yul\":1891:2030   */\n    tag_140:\n        /* \"#utility.yul\":1980:1986   */\n      dup3\n        /* \"#utility.yul\":1975:1978   */\n      dup2\n        /* \"#utility.yul\":1970:1973   */\n      dup4\n        /* \"#utility.yul\":1964:1987   */\n      mcopy\n        /* \"#utility.yul\":2021:2022   */\n      0x00\n        /* \"#utility.yul\":2012:2018   */\n      dup4\n        /* \"#utility.yul\":2007:2010   */\n      dup4\n        /* \"#utility.yul\":2003:2019   */\n      add\n        /* \"#utility.yul\":1996:2023   */\n      mstore\n        /* \"#utility.yul\":1891:2030   */\n      pop\n      pop\n      pop\n      jump\t// out\n        /* \"#utility.yul\":2036:2138   */\n    tag_141:\n        /* \"#utility.yul\":2077:2083   */\n      0x00\n        /* \"#utility.yul\":2128:2130   */\n      0x1f\n        /* \"#utility.yul\":2124:2131   */\n      not\n        /* \"#utility.yul\":2119:2121   */\n      0x1f\n        /* \"#utility.yul\":2112:2117   */\n      dup4\n        /* \"#utility.yul\":2108:2122   */\n      add\n        /* \"#utility.yul\":2104:2132   */\n      and\n        /* \"#utility.yul\":2094:2132   */\n      swap1\n      pop\n        /* \"#utility.yul\":2036:2138   */\n      swap2\n      swap1\n      pop\n      jump\t// out\n        /* \"#utility.yul\":2144:2521   */\n    tag_142:\n        /* \"#utility.yul\":2232:2235   */\n      0x00\n        /* \"#utility.yul\":2260:2299   */\n      tag_211\n        /* \"#utility.yul\":2293:2298   */\n      dup3\n        /* \"#utility.yul\":2260:2299   */\n      tag_138\n      jump\t// in\n    tag_211:\n        /* \"#utility.yul\":2315:2386   */\n      tag_212\n        /* \"#utility.yul\":2379:2385   */\n      dup2\n        /* \"#utility.yul\":2374:2377   */\n      dup6\n        /* \"#utility.yul\":2315:2386   */\n      tag_139\n      jump\t// in\n    tag_212:\n        /* \"#utility.yul\":2308:2386   */\n      swap4\n      pop\n        /* \"#utility.yul\":2395:2460   */\n      tag_213\n        /* \"#utility.yul\":2453:2459   */\n      dup2\n        /* \"#utility.yul\":2448:2451   */\n      dup6\n        /* \"#utility.yul\":2441:2445   */\n      0x20\n        /* \"#utility.yul\":2434:2439   */\n      dup7\n        /* \"#utility.yul\":2430:2446   */\n      add\n        /* \"#utility.yul\":2395:2460   */\n      tag_140\n      jump\t// in\n    tag_213:\n        /* \"#utility.yul\":2485:2514   */\n      tag_214\n        /* \"#utility.yul\":2507:2513   */\n      dup2\n        /* \"#utility.yul\":2485:2514   */\n      tag_141\n      jump\t// in\n    tag_214:\n        /* \"#utility.yul\":2480:2483   */\n      dup5\n        /* \"#utility.yul\":2476:2515   */\n      add\n        /* \"#utility.yul\":2469:2515   */\n      swap2\n      pop\n        /* \"#utility.yul\":2236:2521   */\n      pop\n        /* \"#utility.yul\":2144:2521   */\n      swap3\n      swap2\n      pop\n      pop\n      jump\t// out\n        /* \"#utility.yul\":2527:2840   */\n    tag_27:\n        /* \"#utility.yul\":2640:2644   */\n      0x00\n        /* \"#utility.yul\":2678:2680   */\n      0x20\n        /* \"#utility.yul\":2667:2676   */\n      dup3\n        /* \"#utility.yul\":2663:2681   */\n      add\n        /* \"#utility.yul\":2655:2681   */\n      swap1\n      pop\n        /* \"#utility.yul\":2727:2736   */\n      dup2\n        /* \"#utility.yul\":2721:2725   */\n      dup2\n        /* \"#utility.yul\":2717:2737   */\n      sub\n        /* \"#utility.yul\":2713:2714   */\n      0x00\n        /* \"#utility.yul\":2702:2711   */\n      dup4\n        /* \"#utility.yul\":2698:2715   */\n      add\n        /* \"#utility.yul\":2691:2738   */\n      mstore\n        /* \"#utility.yul\":2755:2833   */\n      tag_216\n        /* \"#utility.yul\":2828:2832   */\n      dup2\n        /* \"#utility.yul\":2819:2825   */\n      dup5\n        /* \"#utility.yul\":2755:2833   */\n      tag_142\n      jump\t// in\n    tag_216:\n        /* \"#utility.yul\":2747:2833   */\n      swap1\n      pop\n        /* \"#utility.yul\":2527:2840   */\n      swap3\n      swap2\n      pop\n      pop\n      jump\t// out\n        /* \"#utility.yul\":2846:2906   */\n    tag_143:\n        /* \"#utility.yul\":2874:2877   */\n      0x00\n        /* \"#utility.yul\":2895:2900   */\n      dup2\n        /* \"#utility.yul\":2888:2900   */\n      swap1\n      pop\n        /* \"#utility.yul\":2846:2906   */\n      swap2\n      swap1\n      pop\n      jump\t// out\n        /* \"#utility.yul\":2912:3054   */\n    tag_144:\n        /* \"#utility.yul\":2962:2971   */\n      0x00\n        /* \"#utility.yul\":2995:3048   */\n      tag_219\n        /* \"#utility.yul\":3013:3047   */\n      tag_220\n        /* \"#utility.yul\":3022:3046   */\n      tag_221\n        /* \"#utility.yul\":3040:3045   */\n      dup5\n        /* \"#utility.yul\":3022:3046   */\n      tag_132\n      jump\t// in\n    tag_221:\n        /* \"#utility.yul\":3013:3047   */\n      tag_143\n      jump\t// in\n    tag_220:\n        /* \"#utility.yul\":2995:3048   */\n      tag_132\n      jump\t// in\n    tag_219:\n        /* \"#utility.yul\":2982:3048   */\n      swap1\n      pop\n        /* \"#utility.yul\":2912:3054   */\n      swap2\n      swap1\n      pop\n      jump\t// out\n        /* \"#utility.yul\":3060:3186   */\n    tag_145:\n        /* \"#utility.yul\":3110:3119   */\n      0x00\n        /* \"#utility.yul\":3143:3180   */\n      tag_223\n        /* \"#utility.yul\":3174:3179   */\n      dup3\n        /* \"#utility.yul\":3143:3180   */\n      tag_144\n      jump\t// in\n    tag_223:\n        /* \"#utility.yul\":3130:3180   */\n      swap1\n      pop\n        /* \"#utility.yul\":3060:3186   */\n      swap2\n      swap1\n      pop\n      jump\t// out\n        /* \"#utility.yul\":3192:3337   */\n    tag_146:\n        /* \"#utility.yul\":3261:3270   */\n      0x00\n        /* \"#utility.yul\":3294:3331   */\n      tag_225\n        /* \"#utility.yul\":3325:3330   */\n      dup3\n        /* \"#utility.yul\":3294:3331   */\n      tag_145\n      jump\t// in\n    tag_225:\n        /* \"#utility.yul\":3281:3331   */\n      swap1\n      pop\n        /* \"#utility.yul\":3192:3337   */\n      swap2\n      swap1\n      pop\n      jump\t// out\n        /* \"#utility.yul\":3343:3512   */\n    tag_147:\n        /* \"#utility.yul\":3449:3505   */\n      tag_227\n        /* \"#utility.yul\":3499:3504   */\n      dup2\n        /* \"#utility.yul\":3449:3505   */\n      tag_146\n      jump\t// in\n    tag_227:\n        /* \"#utility.yul\":3444:3447   */\n      dup3\n        /* \"#utility.yul\":3437:3506   */\n      mstore\n        /* \"#utility.yul\":3343:3512   */\n      pop\n      pop\n      jump\t// out\n        /* \"#utility.yul\":3518:3778   */\n    tag_31:\n        /* \"#utility.yul\":3630:3634   */\n      0x00\n        /* \"#utility.yul\":3668:3670   */\n      0x20\n        /* \"#utility.yul\":3657:3666   */\n      dup3\n        /* \"#utility.yul\":3653:3671   */\n      add\n        /* \"#utility.yul\":3645:3671   */\n      swap1\n      pop\n        /* \"#utility.yul\":3681:3771   */\n      tag_229\n        /* \"#utility.yul\":3768:3769   */\n      0x00\n        /* \"#utility.yul\":3757:3766   */\n      dup4\n        /* \"#utility.yul\":3753:3770   */\n      add\n        /* \"#utility.yul\":3744:3750   */\n      dup5\n        /* \"#utility.yul\":3681:3771   */\n      tag_147\n      jump\t// in\n    tag_229:\n        /* \"#utility.yul\":3518:3778   */\n      swap3\n      swap2\n      pop\n      pop\n      jump\t// out\n        /* \"#utility.yul\":3784:3901   */\n    tag_148:\n        /* \"#utility.yul\":3893:3894   */\n      0x00\n        /* \"#utility.yul\":3890:3891   */\n      0x00\n        /* \"#utility.yul\":3883:3895   */\n      revert\n        /* \"#utility.yul\":3907:4024   */\n    tag_149:\n        /* \"#utility.yul\":4016:4017   */\n      0x00\n        /* \"#utility.yul\":4013:4014   */\n      0x00\n        /* \"#utility.yul\":4006:4018   */\n      revert\n        /* \"#utility.yul\":4030:4210   */\n    tag_150:\n        /* \"#utility.yul\":4078:4155   */\n      0x4e487b7100000000000000000000000000000000000000000000000000000000\n        /* \"#utility.yul\":4075:4076   */\n      0x00\n        /* \"#utility.yul\":4068:4156   */\n      mstore\n        /* \"#utility.yul\":4175:4179   */\n      0x41\n        /* \"#utility.yul\":4172:4173   */\n      0x04\n        /* \"#utility.yul\":4165:4180   */\n      mstore\n        /* \"#utility.yul\":4199:4203   */\n      0x24\n        /* \"#utility.yul\":4196:4197   */\n      0x00\n        /* \"#utility.yul\":4189:4204   */\n      revert\n        /* \"#utility.yul\":4216:4497   */\n    tag_151:\n        /* \"#utility.yul\":4299:4326   */\n      tag_234\n        /* \"#utility.yul\":4321:4325   */\n      dup3\n        /* \"#utility.yul\":4299:4326   */\n      tag_141\n      jump\t// in\n    tag_234:\n        /* \"#utility.yul\":4291:4297   */\n      dup2\n        /* \"#utility.yul\":4287:4327   */\n      add\n        /* \"#utility.yul\":4429:4435   */\n      dup2\n        /* \"#utility.yul\":4417:4427   */\n      dup2\n        /* \"#utility.yul\":4414:4436   */\n      lt\n        /* \"#utility.yul\":4393:4411   */\n      0xffffffffffffffff\n        /* \"#utility.yul\":4381:4391   */\n      dup3\n        /* \"#utility.yul\":4378:4412   */\n      gt\n        /* \"#utility.yul\":4375:4437   */\n      or\n        /* \"#utility.yul\":4372:4460   */\n      iszero\n      tag_235\n      jumpi\n        /* \"#utility.yul\":4440:4458   */\n      tag_236\n      tag_150\n      jump\t// in\n    tag_236:\n        /* \"#utility.yul\":4372:4460   */\n    tag_235:\n        /* \"#utility.yul\":4480:4490   */\n      dup1\n        /* \"#utility.yul\":4476:4478   */\n      0x40\n        /* \"#utility.yul\":4469:4491   */\n      mstore\n        /* \"#utility.yul\":4259:4497   */\n      pop\n        /* \"#utility.yul\":4216:4497   */\n      pop\n      pop\n      jump\t// out\n        /* \"#utility.yul\":4503:4632   */\n    tag_152:\n        /* \"#utility.yul\":4537:4543   */\n      0x00\n        /* \"#utility.yul\":4564:4584   */\n      tag_238\n      tag_129\n      jump\t// in\n    tag_238:\n        /* \"#utility.yul\":4554:4584   */\n      swap1\n      pop\n        /* \"#utility.yul\":4593:4626   */\n      tag_239\n        /* \"#utility.yul\":4621:4625   */\n      dup3\n        /* \"#utility.yul\":4613:4619   */\n      dup3\n        /* \"#utility.yul\":4593:4626   */\n      tag_151\n      jump\t// in\n    tag_239:\n        /* \"#utility.yul\":4503:4632   */\n      swap2\n      swap1\n      pop\n      jump\t// out\n        /* \"#utility.yul\":4638:4946   */\n    tag_153:\n        /* \"#utility.yul\":4700:4704   */\n      0x00\n        /* \"#utility.yul\":4790:4808   */\n      0xffffffffffffffff\n        /* \"#utility.yul\":4782:4788   */\n      dup3\n        /* \"#utility.yul\":4779:4809   */\n      gt\n        /* \"#utility.yul\":4776:4832   */\n      iszero\n      tag_241\n      jumpi\n        /* \"#utility.yul\":4812:4830   */\n      tag_242\n      tag_150\n      jump\t// in\n    tag_242:\n        /* \"#utility.yul\":4776:4832   */\n    tag_241:\n        /* \"#utility.yul\":4850:4879   */\n      tag_243\n        /* \"#utility.yul\":4872:4878   */\n      dup3\n        /* \"#utility.yul\":4850:4879   */\n      tag_141\n      jump\t// in\n    tag_243:\n        /* \"#utility.yul\":4842:4879   */\n      swap1\n      pop\n        /* \"#utility.yul\":4934:4938   */\n      0x20\n        /* \"#utility.yul\":4928:4932   */\n      dup2\n        /* \"#utility.yul\":4924:4939   */\n      add\n        /* \"#utility.yul\":4916:4939   */\n      swap1\n      pop\n        /* \"#utility.yul\":4638:4946   */\n      swap2\n      swap1\n      pop\n      jump\t// out\n        /* \"#utility.yul\":4952:5100   */\n    tag_154:\n        /* \"#utility.yul\":5050:5056   */\n      dup3\n        /* \"#utility.yul\":5045:5048   */\n      dup2\n        /* \"#utility.yul\":5040:5043   */\n      dup4\n        /* \"#utility.yul\":5027:5057   */\n      calldatacopy\n        /* \"#utility.yul\":5091:5092   */\n      0x00\n        /* \"#utility.yul\":5082:5088   */\n      dup4\n        /* \"#utility.yul\":5077:5080   */\n      dup4\n        /* \"#utility.yul\":5073:5089   */\n      add\n        /* \"#utility.yul\":5066:5093   */\n      mstore\n        /* \"#utility.yul\":4952:5100   */\n      pop\n      pop\n      pop\n      jump\t// out\n        /* \"#utility.yul\":5106:5531   */\n    tag_155:\n        /* \"#utility.yul\":5184:5189   */\n      0x00\n        /* \"#utility.yul\":5209:5275   */\n      tag_246\n        /* \"#utility.yul\":5225:5274   */\n      tag_247\n        /* \"#utility.yul\":5267:5273   */\n      dup5\n        /* \"#utility.yul\":5225:5274   */\n      tag_153\n      jump\t// in\n    tag_247:\n        /* \"#utility.yul\":5209:5275   */\n      tag_152\n      jump\t// in\n    tag_246:\n        /* \"#utility.yul\":5200:5275   */\n      swap1\n      pop\n        /* \"#utility.yul\":5298:5304   */\n      dup3\n        /* \"#utility.yul\":5291:5296   */\n      dup2\n        /* \"#utility.yul\":5284:5305   */\n      mstore\n        /* \"#utility.yul\":5336:5340   */\n      0x20\n        /* \"#utility.yul\":5329:5334   */\n      dup2\n        /* \"#utility.yul\":5325:5341   */\n      add\n        /* \"#utility.yul\":5374:5377   */\n      dup5\n        /* \"#utility.yul\":5365:5371   */\n      dup5\n        /* \"#utility.yul\":5360:5363   */\n      dup5\n        /* \"#utility.yul\":5356:5372   */\n      add\n        /* \"#utility.yul\":5353:5378   */\n      gt\n        /* \"#utility.yul\":5350:5462   */\n      iszero\n      tag_248\n      jumpi\n        /* \"#utility.yul\":5381:5460   */\n      tag_249\n      tag_149\n      jump\t// in\n    tag_249:\n        /* \"#utility.yul\":5350:5462   */\n    tag_248:\n        /* \"#utility.yul\":5471:5525   */\n      tag_250\n        /* \"#utility.yul\":5518:5524   */\n      dup5\n        /* \"#utility.yul\":5513:5516   */\n      dup3\n        /* \"#utility.yul\":5508:5511   */\n      dup6\n        /* \"#utility.yul\":5471:5525   */\n      tag_154\n      jump\t// in\n    tag_250:\n        /* \"#utility.yul\":5190:5531   */\n      pop\n        /* \"#utility.yul\":5106:5531   */\n      swap4\n      swap3\n      pop\n      pop\n      pop\n      jump\t// out\n        /* \"#utility.yul\":5551:5891   */\n    tag_156:\n        /* \"#utility.yul\":5607:5612   */\n      0x00\n        /* \"#utility.yul\":5656:5659   */\n      dup3\n        /* \"#utility.yul\":5649:5653   */\n      0x1f\n        /* \"#utility.yul\":5641:5647   */\n      dup4\n        /* \"#utility.yul\":5637:5654   */\n      add\n        /* \"#utility.yul\":5633:5660   */\n      slt\n        /* \"#utility.yul\":5623:5745   */\n      tag_252\n      jumpi\n        /* \"#utility.yul\":5664:5743   */\n      tag_253\n      tag_148\n      jump\t// in\n    tag_253:\n        /* \"#utility.yul\":5623:5745   */\n    tag_252:\n        /* \"#utility.yul\":5781:5787   */\n      dup2\n        /* \"#utility.yul\":5768:5788   */\n      calldataload\n        /* \"#utility.yul\":5806:5885   */\n      tag_254\n        /* \"#utility.yul\":5881:5884   */\n      dup5\n        /* \"#utility.yul\":5873:5879   */\n      dup3\n        /* \"#utility.yul\":5866:5870   */\n      0x20\n        /* \"#utility.yul\":5858:5864   */\n      dup7\n        /* \"#utility.yul\":5854:5871   */\n      add\n        /* \"#utility.yul\":5806:5885   */\n      tag_155\n      jump\t// in\n    tag_254:\n        /* \"#utility.yul\":5797:5885   */\n      swap2\n      pop\n        /* \"#utility.yul\":5613:5891   */\n      pop\n        /* \"#utility.yul\":5551:5891   */\n      swap3\n      swap2\n      pop\n      pop\n      jump\t// out\n        /* \"#utility.yul\":5897:6551   */\n    tag_34:\n        /* \"#utility.yul\":5975:5981   */\n      0x00\n        /* \"#utility.yul\":5983:5989   */\n      0x00\n        /* \"#utility.yul\":6032:6034   */\n      0x40\n        /* \"#utility.yul\":6020:6029   */\n      dup4\n        /* \"#utility.yul\":6011:6018   */\n      dup6\n        /* \"#utility.yul\":6007:6030   */\n      sub\n        /* \"#utility.yul\":6003:6035   */\n      slt\n        /* \"#utility.yul\":6000:6119   */\n      iszero\n      tag_256\n      jumpi\n        /* \"#utility.yul\":6038:6117   */\n      tag_257\n      tag_130\n      jump\t// in\n    tag_257:\n        /* \"#utility.yul\":6000:6119   */\n    tag_256:\n        /* \"#utility.yul\":6158:6159   */\n      0x00\n        /* \"#utility.yul\":6183:6236   */\n      tag_258\n        /* \"#utility.yul\":6228:6235   */\n      dup6\n        /* \"#utility.yul\":6219:6225   */\n      dup3\n        /* \"#utility.yul\":6208:6217   */\n      dup7\n        /* \"#utility.yul\":6204:6226   */\n      add\n        /* \"#utility.yul\":6183:6236   */\n      tag_135\n      jump\t// in\n    tag_258:\n        /* \"#utility.yul\":6173:6236   */\n      swap3\n      pop\n        /* \"#utility.yul\":6129:6246   */\n      pop\n        /* \"#utility.yul\":6313:6315   */\n      0x20\n        /* \"#utility.yul\":6302:6311   */\n      dup4\n        /* \"#utility.yul\":6298:6316   */\n      add\n        /* \"#utility.yul\":6285:6317   */\n      calldataload\n        /* \"#utility.yul\":6344:6362   */\n      0xffffffffffffffff\n        /* \"#utility.yul\":6336:6342   */\n      dup2\n        /* \"#utility.yul\":6333:6363   */\n      gt\n        /* \"#utility.yul\":6330:6447   */\n      iszero\n      tag_259\n      jumpi\n        /* \"#utility.yul\":6366:6445   */\n      tag_260\n      tag_131\n      jump\t// in\n    tag_260:\n        /* \"#utility.yul\":6330:6447   */\n    tag_259:\n        /* \"#utility.yul\":6471:6534   */\n      tag_261\n        /* \"#utility.yul\":6526:6533   */\n      dup6\n        /* \"#utility.yul\":6517:6523   */\n      dup3\n        /* \"#utility.yul\":6506:6515   */\n      dup7\n        /* \"#utility.yul\":6502:6524   */\n      add\n        /* \"#utility.yul\":6471:6534   */\n      tag_156\n      jump\t// in\n    tag_261:\n        /* \"#utility.yul\":6461:6534   */\n      swap2\n      pop\n        /* \"#utility.yul\":6256:6544   */\n      pop\n        /* \"#utility.yul\":5897:6551   */\n      swap3\n      pop\n      swap3\n      swap1\n      pop\n      jump\t// out\n        /* \"#utility.yul\":6557:6679   */\n    tag_157:\n        /* \"#utility.yul\":6630:6654   */\n      tag_263\n        /* \"#utility.yul\":6648:6653   */\n      dup2\n        /* \"#utility.yul\":6630:6654   */\n      tag_136\n      jump\t// in\n    tag_263:\n        /* \"#utility.yul\":6623:6628   */\n      dup2\n        /* \"#utility.yul\":6620:6655   */\n      eq\n        /* \"#utility.yul\":6610:6673   */\n      tag_264\n      jumpi\n        /* \"#utility.yul\":6669:6670   */\n      0x00\n        /* \"#utility.yul\":6666:6667   */\n      0x00\n        /* \"#utility.yul\":6659:6671   */\n      revert\n        /* \"#utility.yul\":6610:6673   */\n    tag_264:\n        /* \"#utility.yul\":6557:6679   */\n      pop\n      jump\t// out\n        /* \"#utility.yul\":6685:6824   */\n    tag_158:\n        /* \"#utility.yul\":6731:6736   */\n      0x00\n        /* \"#utility.yul\":6769:6775   */\n      dup2\n        /* \"#utility.yul\":6756:6776   */\n      calldataload\n        /* \"#utility.yul\":6747:6776   */\n      swap1\n      pop\n        /* \"#utility.yul\":6785:6818   */\n      tag_266\n        /* \"#utility.yul\":6812:6817   */\n      dup2\n        /* \"#utility.yul\":6785:6818   */\n      tag_157\n      jump\t// in\n    tag_266:\n        /* \"#utility.yul\":6685:6824   */\n      swap3\n      swap2\n      pop\n      pop\n      jump\t// out\n        /* \"#utility.yul\":6830:7159   */\n    tag_38:\n        /* \"#utility.yul\":6889:6895   */\n      0x00\n        /* \"#utility.yul\":6938:6940   */\n      0x20\n        /* \"#utility.yul\":6926:6935   */\n      dup3\n        /* \"#utility.yul\":6917:6924   */\n      dup5\n        /* \"#utility.yul\":6913:6936   */\n      sub\n        /* \"#utility.yul\":6909:6941   */\n      slt\n        /* \"#utility.yul\":6906:7025   */\n      iszero\n      tag_268\n      jumpi\n        /* \"#utility.yul\":6944:7023   */\n      tag_269\n      tag_130\n      jump\t// in\n    tag_269:\n        /* \"#utility.yul\":6906:7025   */\n    tag_268:\n        /* \"#utility.yul\":7064:7065   */\n      0x00\n        /* \"#utility.yul\":7089:7142   */\n      tag_270\n        /* \"#utility.yul\":7134:7141   */\n      dup5\n        /* \"#utility.yul\":7125:7131   */\n      dup3\n        /* \"#utility.yul\":7114:7123   */\n      dup6\n        /* \"#utility.yul\":7110:7132   */\n      add\n        /* \"#utility.yul\":7089:7142   */\n      tag_158\n      jump\t// in\n    tag_270:\n        /* \"#utility.yul\":7079:7142   */\n      swap2\n      pop\n        /* \"#utility.yul\":7035:7152   */\n      pop\n        /* \"#utility.yul\":6830:7159   */\n      swap3\n      swap2\n      pop\n      pop\n      jump\t// out\n        /* \"#utility.yul\":7165:7639   */\n    tag_42:\n        /* \"#utility.yul\":7233:7239   */\n      0x00\n        /* \"#utility.yul\":7241:7247   */\n      0x00\n        /* \"#utility.yul\":7290:7292   */\n      0x40\n        /* \"#utility.yul\":7278:7287   */\n      dup4\n        /* \"#utility.yul\":7269:7276   */\n      dup6\n        /* \"#utility.yul\":7265:7288   */\n      sub\n        /* \"#utility.yul\":7261:7293   */\n      slt\n        /* \"#utility.yul\":7258:7377   */\n      iszero\n      tag_272\n      jumpi\n        /* \"#utility.yul\":7296:7375   */\n      tag_273\n      tag_130\n      jump\t// in\n    tag_273:\n        /* \"#utility.yul\":7258:7377   */\n    tag_272:\n        /* \"#utility.yul\":7416:7417   */\n      0x00\n        /* \"#utility.yul\":7441:7494   */\n      tag_274\n        /* \"#utility.yul\":7486:7493   */\n      dup6\n        /* \"#utility.yul\":7477:7483   */\n      dup3\n        /* \"#utility.yul\":7466:7475   */\n      dup7\n        /* \"#utility.yul\":7462:7484   */\n      add\n        /* \"#utility.yul\":7441:7494   */\n      tag_135\n      jump\t// in\n    tag_274:\n        /* \"#utility.yul\":7431:7494   */\n      swap3\n      pop\n        /* \"#utility.yul\":7387:7504   */\n      pop\n        /* \"#utility.yul\":7543:7545   */\n      0x20\n        /* \"#utility.yul\":7569:7622   */\n      tag_275\n        /* \"#utility.yul\":7614:7621   */\n      dup6\n        /* \"#utility.yul\":7605:7611   */\n      dup3\n        /* \"#utility.yul\":7594:7603   */\n      dup7\n        /* \"#utility.yul\":7590:7612   */\n      add\n        /* \"#utility.yul\":7569:7622   */\n      tag_158\n      jump\t// in\n    tag_275:\n        /* \"#utility.yul\":7559:7622   */\n      swap2\n      pop\n        /* \"#utility.yul\":7514:7632   */\n      pop\n        /* \"#utility.yul\":7165:7639   */\n      swap3\n      pop\n      swap3\n      swap1\n      pop\n      jump\t// out\n        /* \"#utility.yul\":7645:7749   */\n    tag_159:\n        /* \"#utility.yul\":7690:7697   */\n      0x00\n        /* \"#utility.yul\":7719:7743   */\n      tag_277\n        /* \"#utility.yul\":7737:7742   */\n      dup3\n        /* \"#utility.yul\":7719:7743   */\n      tag_132\n      jump\t// in\n    tag_277:\n        /* \"#utility.yul\":7708:7743   */\n      swap1\n      pop\n        /* \"#utility.yul\":7645:7749   */\n      swap2\n      swap1\n      pop\n      jump\t// out\n        /* \"#utility.yul\":7755:7897   */\n    tag_160:\n        /* \"#utility.yul\":7858:7890   */\n      tag_279\n        /* \"#utility.yul\":7884:7889   */\n      dup2\n        /* \"#utility.yul\":7858:7890   */\n      tag_159\n      jump\t// in\n    tag_279:\n        /* \"#utility.yul\":7853:7856   */\n      dup3\n        /* \"#utility.yul\":7846:7891   */\n      mstore\n        /* \"#utility.yul\":7755:7897   */\n      pop\n      pop\n      jump\t// out\n        /* \"#utility.yul\":7903:8157   */\n    tag_50:\n        /* \"#utility.yul\":8012:8016   */\n      0x00\n        /* \"#utility.yul\":8050:8052   */\n      0x20\n        /* \"#utility.yul\":8039:8048   */\n      dup3\n        /* \"#utility.yul\":8035:8053   */\n      add\n        /* \"#utility.yul\":8027:8053   */\n      swap1\n      pop\n        /* \"#utility.yul\":8063:8150   */\n      tag_281\n        /* \"#utility.yul\":8147:8148   */\n      0x00\n        /* \"#utility.yul\":8136:8145   */\n      dup4\n        /* \"#utility.yul\":8132:8149   */\n      add\n        /* \"#utility.yul\":8123:8129   */\n      dup5\n        /* \"#utility.yul\":8063:8150   */\n      tag_160\n      jump\t// in\n    tag_281:\n        /* \"#utility.yul\":7903:8157   */\n      swap3\n      swap2\n      pop\n      pop\n      jump\t// out\n        /* \"#utility.yul\":8163:8281   */\n    tag_161:\n        /* \"#utility.yul\":8250:8274   */\n      tag_283\n        /* \"#utility.yul\":8268:8273   */\n      dup2\n        /* \"#utility.yul\":8250:8274   */\n      tag_133\n      jump\t// in\n    tag_283:\n        /* \"#utility.yul\":8245:8248   */\n      dup3\n        /* \"#utility.yul\":8238:8275   */\n      mstore\n        /* \"#utility.yul\":8163:8281   */\n      pop\n      pop\n      jump\t// out\n        /* \"#utility.yul\":8287:8509   */\n    tag_65:\n        /* \"#utility.yul\":8380:8384   */\n      0x00\n        /* \"#utility.yul\":8418:8420   */\n      0x20\n        /* \"#utility.yul\":8407:8416   */\n      dup3\n        /* \"#utility.yul\":8403:8421   */\n      add\n        /* \"#utility.yul\":8395:8421   */\n      swap1\n      pop\n        /* \"#utility.yul\":8431:8502   */\n      tag_285\n        /* \"#utility.yul\":8499:8500   */\n      0x00\n        /* \"#utility.yul\":8488:8497   */\n      dup4\n        /* \"#utility.yul\":8484:8501   */\n      add\n        /* \"#utility.yul\":8475:8481   */\n      dup5\n        /* \"#utility.yul\":8431:8502   */\n      tag_161\n      jump\t// in\n    tag_285:\n        /* \"#utility.yul\":8287:8509   */\n      swap3\n      swap2\n      pop\n      pop\n      jump\t// out\n        /* \"#utility.yul\":8515:8658   */\n    tag_162:\n        /* \"#utility.yul\":8572:8577   */\n      0x00\n        /* \"#utility.yul\":8603:8609   */\n      dup2\n        /* \"#utility.yul\":8597:8610   */\n      mload\n        /* \"#utility.yul\":8588:8610   */\n      swap1\n      pop\n        /* \"#utility.yul\":8619:8652   */\n      tag_287\n        /* \"#utility.yul\":8646:8651   */\n      dup2\n        /* \"#utility.yul\":8619:8652   */\n      tag_157\n      jump\t// in\n    tag_287:\n        /* \"#utility.yul\":8515:8658   */\n      swap3\n      swap2\n      pop\n      pop\n      jump\t// out\n        /* \"#utility.yul\":8664:9015   */\n    tag_69:\n        /* \"#utility.yul\":8734:8740   */\n      0x00\n        /* \"#utility.yul\":8783:8785   */\n      0x20\n        /* \"#utility.yul\":8771:8780   */\n      dup3\n        /* \"#utility.yul\":8762:8769   */\n      dup5\n        /* \"#utility.yul\":8758:8781   */\n      sub\n        /* \"#utility.yul\":8754:8786   */\n      slt\n        /* \"#utility.yul\":8751:8870   */\n      iszero\n      tag_289\n      jumpi\n        /* \"#utility.yul\":8789:8868   */\n      tag_290\n      tag_130\n      jump\t// in\n    tag_290:\n        /* \"#utility.yul\":8751:8870   */\n    tag_289:\n        /* \"#utility.yul\":8909:8910   */\n      0x00\n        /* \"#utility.yul\":8934:8998   */\n      tag_291\n        /* \"#utility.yul\":8990:8997   */\n      dup5\n        /* \"#utility.yul\":8981:8987   */\n      dup3\n        /* \"#utility.yul\":8970:8979   */\n      dup6\n        /* \"#utility.yul\":8966:8988   */\n      add\n        /* \"#utility.yul\":8934:8998   */\n      tag_162\n      jump\t// in\n    tag_291:\n        /* \"#utility.yul\":8924:8998   */\n      swap2\n      pop\n        /* \"#utility.yul\":8880:9008   */\n      pop\n        /* \"#utility.yul\":8664:9015   */\n      swap3\n      swap2\n      pop\n      pop\n      jump\t// out\n        /* \"#utility.yul\":9021:9201   */\n    tag_163:\n        /* \"#utility.yul\":9069:9146   */\n      0x4e487b7100000000000000000000000000000000000000000000000000000000\n        /* \"#utility.yul\":9066:9067   */\n      0x00\n        /* \"#utility.yul\":9059:9147   */\n      mstore\n        /* \"#utility.yul\":9166:9170   */\n      0x22\n        /* \"#utility.yul\":9163:9164   */\n      0x04\n        /* \"#utility.yul\":9156:9171   */\n      mstore\n        /* \"#utility.yul\":9190:9194   */\n      0x24\n        /* \"#utility.yul\":9187:9188   */\n      0x00\n        /* \"#utility.yul\":9180:9195   */\n      revert\n        /* \"#utility.yul\":9207:9527   */\n    tag_72:\n        /* \"#utility.yul\":9251:9257   */\n      0x00\n        /* \"#utility.yul\":9288:9289   */\n      0x02\n        /* \"#utility.yul\":9282:9286   */\n      dup3\n        /* \"#utility.yul\":9278:9290   */\n      div\n        /* \"#utility.yul\":9268:9290   */\n      swap1\n      pop\n        /* \"#utility.yul\":9335:9336   */\n      0x01\n        /* \"#utility.yul\":9329:9333   */\n      dup3\n        /* \"#utility.yul\":9325:9337   */\n      and\n        /* \"#utility.yul\":9356:9374   */\n      dup1\n        /* \"#utility.yul\":9346:9427   */\n      tag_294\n      jumpi\n        /* \"#utility.yul\":9412:9416   */\n      0x7f\n        /* \"#utility.yul\":9404:9410   */\n      dup3\n        /* \"#utility.yul\":9400:9417   */\n      and\n        /* \"#utility.yul\":9390:9417   */\n      swap2\n      pop\n        /* \"#utility.yul\":9346:9427   */\n    tag_294:\n        /* \"#utility.yul\":9474:9476   */\n      0x20\n        /* \"#utility.yul\":9466:9472   */\n      dup3\n        /* \"#utility.yul\":9463:9477   */\n      lt\n        /* \"#utility.yul\":9443:9461   */\n      dup2\n        /* \"#utility.yul\":9440:9478   */\n      sub\n        /* \"#utility.yul\":9437:9521   */\n      tag_295\n      jumpi\n        /* \"#utility.yul\":9493:9511   */\n      tag_296\n      tag_163\n      jump\t// in\n    tag_296:\n        /* \"#utility.yul\":9437:9521   */\n    tag_295:\n        /* \"#utility.yul\":9258:9527   */\n      pop\n        /* \"#utility.yul\":9207:9527   */\n      swap2\n      swap1\n      pop\n      jump\t// out\n        /* \"#utility.yul\":9533:9704   */\n    tag_164:\n        /* \"#utility.yul\":9673:9696   */\n      0x596f7520617265206e6f7420746865206f776e65720000000000000000000000\n        /* \"#utility.yul\":9669:9670   */\n      0x00\n        /* \"#utility.yul\":9661:9667   */\n      dup3\n        /* \"#utility.yul\":9657:9671   */\n      add\n        /* \"#utility.yul\":9650:9697   */\n      mstore\n        /* \"#utility.yul\":9533:9704   */\n      pop\n      jump\t// out\n        /* \"#utility.yul\":9710:10076   */\n    tag_165:\n        /* \"#utility.yul\":9852:9855   */\n      0x00\n        /* \"#utility.yul\":9873:9940   */\n      tag_299\n        /* \"#utility.yul\":9937:9939   */\n      0x15\n        /* \"#utility.yul\":9932:9935   */\n      dup4\n        /* \"#utility.yul\":9873:9940   */\n      tag_139\n      jump\t// in\n    tag_299:\n        /* \"#utility.yul\":9866:9940   */\n      swap2\n      pop\n        /* \"#utility.yul\":9949:10042   */\n      tag_300\n        /* \"#utility.yul\":10038:10041   */\n      dup3\n        /* \"#utility.yul\":9949:10042   */\n      tag_164\n      jump\t// in\n    tag_300:\n        /* \"#utility.yul\":10067:10069   */\n      0x20\n        /* \"#utility.yul\":10062:10065   */\n      dup3\n        /* \"#utility.yul\":10058:10070   */\n      add\n        /* \"#utility.yul\":10051:10070   */\n      swap1\n      pop\n        /* \"#utility.yul\":9710:10076   */\n      swap2\n      swap1\n      pop\n      jump\t// out\n        /* \"#utility.yul\":10082:10501   */\n    tag_81:\n        /* \"#utility.yul\":10248:10252   */\n      0x00\n        /* \"#utility.yul\":10286:10288   */\n      0x20\n        /* \"#utility.yul\":10275:10284   */\n      dup3\n        /* \"#utility.yul\":10271:10289   */\n      add\n        /* \"#utility.yul\":10263:10289   */\n      swap1\n      pop\n        /* \"#utility.yul\":10335:10344   */\n      dup2\n        /* \"#utility.yul\":10329:10333   */\n      dup2\n        /* \"#utility.yul\":10325:10345   */\n      sub\n        /* \"#utility.yul\":10321:10322   */\n      0x00\n        /* \"#utility.yul\":10310:10319   */\n      dup4\n        /* \"#utility.yul\":10306:10323   */\n      add\n        /* \"#utility.yul\":10299:10346   */\n      mstore\n        /* \"#utility.yul\":10363:10494   */\n      tag_302\n        /* \"#utility.yul\":10489:10493   */\n      dup2\n        /* \"#utility.yul\":10363:10494   */\n      tag_165\n      jump\t// in\n    tag_302:\n        /* \"#utility.yul\":10355:10494   */\n      swap1\n      pop\n        /* \"#utility.yul\":10082:10501   */\n      swap2\n      swap1\n      pop\n      jump\t// out\n        /* \"#utility.yul\":10507:10688   */\n    tag_166:\n        /* \"#utility.yul\":10647:10680   */\n      0x50617373656e67657220697320616c7265616479207265676973746572656400\n        /* \"#utility.yul\":10643:10644   */\n      0x00\n        /* \"#utility.yul\":10635:10641   */\n      dup3\n        /* \"#utility.yul\":10631:10645   */\n      add\n        /* \"#utility.yul\":10624:10681   */\n      mstore\n        /* \"#utility.yul\":10507:10688   */\n      pop\n      jump\t// out\n        /* \"#utility.yul\":10694:11060   */\n    tag_167:\n        /* \"#utility.yul\":10836:10839   */\n      0x00\n        /* \"#utility.yul\":10857:10924   */\n      tag_305\n        /* \"#utility.yul\":10921:10923   */\n      0x1f\n        /* \"#utility.yul\":10916:10919   */\n      dup4\n        /* \"#utility.yul\":10857:10924   */\n      tag_139\n      jump\t// in\n    tag_305:\n        /* \"#utility.yul\":10850:10924   */\n      swap2\n      pop\n        /* \"#utility.yul\":10933:11026   */\n      tag_306\n        /* \"#utility.yul\":11022:11025   */\n      dup3\n        /* \"#utility.yul\":10933:11026   */\n      tag_166\n      jump\t// in\n    tag_306:\n        /* \"#utility.yul\":11051:11053   */\n      0x20\n        /* \"#utility.yul\":11046:11049   */\n      dup3\n        /* \"#utility.yul\":11042:11054   */\n      add\n        /* \"#utility.yul\":11035:11054   */\n      swap1\n      pop\n        /* \"#utility.yul\":10694:11060   */\n      swap2\n      swap1\n      pop\n      jump\t// out\n        /* \"#utility.yul\":11066:11485   */\n    tag_85:\n        /* \"#utility.yul\":11232:11236   */\n      0x00\n        /* \"#utility.yul\":11270:11272   */\n      0x20\n        /* \"#utility.yul\":11259:11268   */\n      dup3\n        /* \"#utility.yul\":11255:11273   */\n      add\n        /* \"#utility.yul\":11247:11273   */\n      swap1\n      pop\n        /* \"#utility.yul\":11319:11328   */\n      dup2\n        /* \"#utility.yul\":11313:11317   */\n      dup2\n        /* \"#utility.yul\":11309:11329   */\n      sub\n        /* \"#utility.yul\":11305:11306   */\n      0x00\n        /* \"#utility.yul\":11294:11303   */\n      dup4\n        /* \"#utility.yul\":11290:11307   */\n      add\n        /* \"#utility.yul\":11283:11330   */\n      mstore\n        /* \"#utility.yul\":11347:11478   */\n      tag_308\n        /* \"#utility.yul\":11473:11477   */\n      dup2\n        /* \"#utility.yul\":11347:11478   */\n      tag_167\n      jump\t// in\n    tag_308:\n        /* \"#utility.yul\":11339:11478   */\n      swap1\n      pop\n        /* \"#utility.yul\":11066:11485   */\n      swap2\n      swap1\n      pop\n      jump\t// out\n        /* \"#utility.yul\":11491:11632   */\n    tag_168:\n        /* \"#utility.yul\":11540:11544   */\n      0x00\n        /* \"#utility.yul\":11563:11566   */\n      dup2\n        /* \"#utility.yul\":11555:11566   */\n      swap1\n      pop\n        /* \"#utility.yul\":11586:11589   */\n      dup2\n        /* \"#utility.yul\":11583:11584   */\n      0x00\n        /* \"#utility.yul\":11576:11590   */\n      mstore\n        /* \"#utility.yul\":11620:11624   */\n      0x20\n        /* \"#utility.yul\":11617:11618   */\n      0x00\n        /* \"#utility.yul\":11607:11625   */\n      keccak256\n        /* \"#utility.yul\":11599:11625   */\n      swap1\n      pop\n        /* \"#utility.yul\":11491:11632   */\n      swap2\n      swap1\n      pop\n      jump\t// out\n        /* \"#utility.yul\":11638:11731   */\n    tag_169:\n        /* \"#utility.yul\":11675:11681   */\n      0x00\n        /* \"#utility.yul\":11722:11724   */\n      0x20\n        /* \"#utility.yul\":11717:11719   */\n      0x1f\n        /* \"#utility.yul\":11710:11715   */\n      dup4\n        /* \"#utility.yul\":11706:11720   */\n      add\n        /* \"#utility.yul\":11702:11725   */\n      div\n        /* \"#utility.yul\":11692:11725   */\n      swap1\n      pop\n        /* \"#utility.yul\":11638:11731   */\n      swap2\n      swap1\n      pop\n      jump\t// out\n        /* \"#utility.yul\":11737:11844   */\n    tag_170:\n        /* \"#utility.yul\":11781:11789   */\n      0x00\n        /* \"#utility.yul\":11831:11836   */\n      dup3\n        /* \"#utility.yul\":11825:11829   */\n      dup3\n        /* \"#utility.yul\":11821:11837   */\n      shl\n        /* \"#utility.yul\":11800:11837   */\n      swap1\n      pop\n        /* \"#utility.yul\":11737:11844   */\n      swap3\n      swap2\n      pop\n      pop\n      jump\t// out\n        /* \"#utility.yul\":11850:12243   */\n    tag_171:\n        /* \"#utility.yul\":11919:11925   */\n      0x00\n        /* \"#utility.yul\":11969:11970   */\n      0x08\n        /* \"#utility.yul\":11957:11967   */\n      dup4\n        /* \"#utility.yul\":11953:11971   */\n      mul\n        /* \"#utility.yul\":11992:12089   */\n      tag_313\n        /* \"#utility.yul\":12022:12088   */\n      0xffffffffffffffffffffffffffffffffffffffffffffffffffffffffffffffff\n        /* \"#utility.yul\":12011:12020   */\n      dup3\n        /* \"#utility.yul\":11992:12089   */\n      tag_170\n      jump\t// in\n    tag_313:\n        /* \"#utility.yul\":12110:12149   */\n      tag_314\n        /* \"#utility.yul\":12140:12148   */\n      dup7\n        /* \"#utility.yul\":12129:12138   */\n      dup4\n        /* \"#utility.yul\":12110:12149   */\n      tag_170\n      jump\t// in\n    tag_314:\n        /* \"#utility.yul\":12098:12149   */\n      swap6\n      pop\n        /* \"#utility.yul\":12182:12186   */\n      dup1\n        /* \"#utility.yul\":12178:12187   */\n      not\n        /* \"#utility.yul\":12171:12176   */\n      dup5\n        /* \"#utility.yul\":12167:12188   */\n      and\n        /* \"#utility.yul\":12158:12188   */\n      swap4\n      pop\n        /* \"#utility.yul\":12231:12235   */\n      dup1\n        /* \"#utility.yul\":12221:12229   */\n      dup7\n        /* \"#utility.yul\":12217:12236   */\n      and\n        /* \"#utility.yul\":12210:12215   */\n      dup5\n        /* \"#utility.yul\":12207:12237   */\n      or\n        /* \"#utility.yul\":12197:12237   */\n      swap3\n      pop\n        /* \"#utility.yul\":11926:12243   */\n      pop\n      pop\n        /* \"#utility.yul\":11850:12243   */\n      swap4\n      swap3\n      pop\n      pop\n      pop\n      jump\t// out\n        /* \"#utility.yul\":12249:12391   */\n    tag_172:\n        /* \"#utility.yul\":12299:12308   */\n      0x00\n        /* \"#utility.yul\":12332:12385   */\n      tag_316\n        /* \"#utility.yul\":12350:12384   */\n      tag_317\n        /* \"#utility.yul\":12359:12383   */\n      tag_318\n        /* \"#utility.yul\":12377:12382   */\n      dup5\n        /* \"#utility.yul\":12359:12383   */\n      tag_136\n      jump\t// in\n    tag_318:\n        /* \"#utility.yul\":12350:12384   */\n      tag_143\n      jump\t// in\n    tag_317:\n        /* \"#utility.yul\":12332:12385   */\n      tag_136\n      jump\t// in\n    tag_316:\n        /* \"#utility.yul\":12319:12385   */\n      swap1\n      pop\n        /* \"#utility.yul\":12249:12391   */\n      swap2\n      swap1\n      pop\n      jump\t// out\n        /* \"#utility.yul\":12397:12472   */\n    tag_173:\n        /* \"#utility.yul\":12440:12443   */\n      0x00\n        /* \"#utility.yul\":12461:12466   */\n      dup2\n        /* \"#utility.yul\":12454:12466   */\n      swap1\n      pop\n        /* \"#utility.yul\":12397:12472   */\n      swap2\n      swap1\n      pop\n      jump\t// out\n        /* \"#utility.yul\":12478:12747   */\n    tag_174:\n        /* \"#utility.yul\":12588:12627   */\n      tag_321\n        /* \"#utility.yul\":12619:12626   */\n      dup4\n        /* \"#utility.yul\":12588:12627   */\n      tag_172\n      jump\t// in\n    tag_321:\n        /* \"#utility.yul\":12649:12740   */\n      tag_322\n        /* \"#utility.yul\":12698:12739   */\n      tag_323\n        /* \"#utility.yul\":12722:12738   */\n      dup3\n        /* \"#utility.yul\":12698:12739   */\n      tag_173\n      jump\t// in\n    tag_323:\n        /* \"#utility.yul\":12690:12696   */\n      dup5\n        /* \"#utility.yul\":12683:12687   */\n      dup5\n        /* \"#utility.yul\":12677:12688   */\n      sload\n        /* \"#utility.yul\":12649:12740   */\n      tag_171\n      jump\t// in\n    tag_322:\n        /* \"#utility.yul\":12643:12647   */\n      dup3\n        /* \"#utility.yul\":12636:12741   */\n      sstore\n        /* \"#utility.yul\":12554:12747   */\n      pop\n        /* \"#utility.yul\":12478:12747   */\n      pop\n      pop\n      pop\n      jump\t// out\n        /* \"#utility.yul\":12753:12826   */\n    tag_175:\n        /* \"#utility.yul\":12798:12801   */\n      0x00\n        /* \"#utility.yul\":12819:12820   */\n      0x00\n        /* \"#utility.yul\":12812:12820   */\n      swap1\n      pop\n        /* \"#utility.yul\":12753:12826   */\n      swap1\n      jump\t// out\n        /* \"#utility.yul\":12832:13021   */\n    tag_176:\n        /* \"#utility.yul\":12909:12941   */\n      tag_326\n      tag_175\n      jump\t// in\n    tag_326:\n        /* \"#utility.yul\":12950:13015   */\n      tag_327\n        /* \"#utility.yul\":13008:13014   */\n      dup2\n        /* \"#utility.yul\":13000:13006   */\n      dup5\n        /* \"#utility.yul\":12994:12998   */\n      dup5\n        /* \"#utility.yul\":12950:13015   */\n      tag_174\n      jump\t// in\n    tag_327:\n        /* \"#utility.yul\":12885:13021   */\n      pop\n        /* \"#utility.yul\":12832:13021   */\n      pop\n      pop\n      jump\t// out\n        /* \"#utility.yul\":13027:13213   */\n    tag_177:\n        /* \"#utility.yul\":13087:13207   */\n    tag_329:\n        /* \"#utility.yul\":13104:13107   */\n      dup2\n        /* \"#utility.yul\":13097:13102   */\n      dup2\n        /* \"#utility.yul\":13094:13108   */\n      lt\n        /* \"#utility.yul\":13087:13207   */\n      iszero\n      tag_331\n      jumpi\n        /* \"#utility.yul\":13158:13197   */\n      tag_332\n        /* \"#utility.yul\":13195:13196   */\n      0x00\n        /* \"#utility.yul\":13188:13193   */\n      dup3\n        /* \"#utility.yul\":13158:13197   */\n      tag_176\n      jump\t// in\n    tag_332:\n        /* \"#utility.yul\":13131:13132   */\n      0x01\n        /* \"#utility.yul\":13124:13129   */\n      dup2\n        /* \"#utility.yul\":13120:13133   */\n      add\n        /* \"#utility.yul\":13111:13133   */\n      swap1\n      pop\n        /* \"#utility.yul\":13087:13207   */\n      jump(tag_329)\n    tag_331:\n        /* \"#utility.yul\":13027:13213   */\n      pop\n      pop\n      jump\t// out\n        /* \"#utility.yul\":13219:13762   */\n    tag_178:\n        /* \"#utility.yul\":13320:13322   */\n      0x1f\n        /* \"#utility.yul\":13315:13318   */\n      dup3\n        /* \"#utility.yul\":13312:13323   */\n      gt\n        /* \"#utility.yul\":13309:13755   */\n      iszero\n      tag_334\n      jumpi\n        /* \"#utility.yul\":13354:13392   */\n      tag_335\n        /* \"#utility.yul\":13386:13391   */\n      dup2\n        /* \"#utility.yul\":13354:13392   */\n      tag_168\n      jump\t// in\n    tag_335:\n        /* \"#utility.yul\":13438:13467   */\n      tag_336\n        /* \"#utility.yul\":13456:13466   */\n      dup5\n        /* \"#utility.yul\":13438:13467   */\n      tag_169\n      jump\t// in\n    tag_336:\n        /* \"#utility.yul\":13428:13436   */\n      dup2\n        /* \"#utility.yul\":13424:13468   */\n      add\n        /* \"#utility.yul\":13621:13623   */\n      0x20\n        /* \"#utility.yul\":13609:13619   */\n      dup6\n        /* \"#utility.yul\":13606:13624   */\n      lt\n        /* \"#utility.yul\":13603:13652   */\n      iszero\n      tag_337\n      jumpi\n        /* \"#utility.yul\":13642:13650   */\n      dup2\n        /* \"#utility.yul\":13627:13650   */\n      swap1\n      pop\n        /* \"#utility.yul\":13603:13652   */\n    tag_337:\n        /* \"#utility.yul\":13665:13745   */\n      tag_338\n        /* \"#utility.yul\":13721:13743   */\n      tag_339\n        /* \"#utility.yul\":13739:13742   */\n      dup6\n        /* \"#utility.yul\":13721:13743   */\n      tag_169\n      jump\t// in\n    tag_339:\n        /* \"#utility.yul\":13711:13719   */\n      dup4\n        /* \"#utility.yul\":13707:13744   */\n      add\n        /* \"#utility.yul\":13694:13705   */\n      dup3\n        /* \"#utility.yul\":13665:13745   */\n      tag_177\n      jump\t// in\n    tag_338:\n        /* \"#utility.yul\":13324:13755   */\n      pop\n      pop\n        /* \"#utility.yul\":13309:13755   */\n    tag_334:\n        /* \"#utility.yul\":13219:13762   */\n      pop\n      pop\n      pop\n      jump\t// out\n        /* \"#utility.yul\":13768:13885   */\n    tag_179:\n        /* \"#utility.yul\":13822:13830   */\n      0x00\n        /* \"#utility.yul\":13872:13877   */\n      dup3\n        /* \"#utility.yul\":13866:13870   */\n      dup3\n        /* \"#utility.yul\":13862:13878   */\n      shr\n        /* \"#utility.yul\":13841:13878   */\n      swap1\n      pop\n        /* \"#utility.yul\":13768:13885   */\n      swap3\n      swap2\n      pop\n      pop\n      jump\t// out\n        /* \"#utility.yul\":13891:14060   */\n    tag_180:\n        /* \"#utility.yul\":13935:13941   */\n      0x00\n        /* \"#utility.yul\":13968:14019   */\n      tag_342\n        /* \"#utility.yul\":14016:14017   */\n      0x00\n        /* \"#utility.yul\":14012:14018   */\n      not\n        /* \"#utility.yul\":14004:14009   */\n      dup5\n        /* \"#utility.yul\":14001:14002   */\n      0x08\n        /* \"#utility.yul\":13997:14010   */\n      mul\n        /* \"#utility.yul\":13968:14019   */\n      tag_179\n      jump\t// in\n    tag_342:\n        /* \"#utility.yul\":13964:14020   */\n      not\n        /* \"#utility.yul\":14049:14053   */\n      dup1\n        /* \"#utility.yul\":14043:14047   */\n      dup4\n        /* \"#utility.yul\":14039:14054   */\n      and\n        /* \"#utility.yul\":14029:14054   */\n      swap2\n      pop\n        /* \"#utility.yul\":13942:14060   */\n      pop\n        /* \"#utility.yul\":13891:14060   */\n      swap3\n      swap2\n      pop\n      pop\n      jump\t// out\n        /* \"#utility.yul\":14065:14360   */\n    tag_181:\n        /* \"#utility.yul\":14141:14145   */\n      0x00\n        /* \"#utility.yul\":14287:14316   */\n      tag_344\n        /* \"#utility.yul\":14312:14315   */\n      dup4\n        /* \"#utility.yul\":14306:14310   */\n      dup4\n        /* \"#utility.yul\":14287:14316   */\n      tag_180\n      jump\t// in\n    tag_344:\n        /* \"#utility.yul\":14279:14316   */\n      swap2\n      pop\n        /* \"#utility.yul\":14349:14352   */\n      dup3\n        /* \"#utility.yul\":14346:14347   */\n      0x02\n        /* \"#utility.yul\":14342:14353   */\n      mul\n        /* \"#utility.yul\":14336:14340   */\n      dup3\n        /* \"#utility.yul\":14333:14354   */\n      or\n        /* \"#utility.yul\":14325:14354   */\n      swap1\n      pop\n        /* \"#utility.yul\":14065:14360   */\n      swap3\n      swap2\n      pop\n      pop\n      jump\t// out\n        /* \"#utility.yul\":14365:15760   */\n    tag_87:\n        /* \"#utility.yul\":14482:14519   */\n      tag_346\n        /* \"#utility.yul\":14515:14518   */\n      dup3\n        /* \"#utility.yul\":14482:14519   */\n      tag_138\n      jump\t// in\n    tag_346:\n        /* \"#utility.yul\":14584:14602   */\n      0xffffffffffffffff\n        /* \"#utility.yul\":14576:14582   */\n      dup2\n        /* \"#utility.yul\":14573:14603   */\n      gt\n        /* \"#utility.yul\":14570:14626   */\n      iszero\n      tag_347\n      jumpi\n        /* \"#utility.yul\":14606:14624   */\n      tag_348\n      tag_150\n      jump\t// in\n    tag_348:\n        /* \"#utility.yul\":14570:14626   */\n    tag_347:\n        /* \"#utility.yul\":14650:14688   */\n      tag_349\n        /* \"#utility.yul\":14682:14686   */\n      dup3\n        /* \"#utility.yul\":14676:14687   */\n      sload\n        /* \"#utility.yul\":14650:14688   */\n      tag_72\n      jump\t// in\n    tag_349:\n        /* \"#utility.yul\":14735:14802   */\n      tag_350\n        /* \"#utility.yul\":14795:14801   */\n      dup3\n        /* \"#utility.yul\":14787:14793   */\n      dup3\n        /* \"#utility.yul\":14781:14785   */\n      dup6\n        /* \"#utility.yul\":14735:14802   */\n      tag_178\n      jump\t// in\n    tag_350:\n        /* \"#utility.yul\":14829:14830   */\n      0x00\n        /* \"#utility.yul\":14853:14857   */\n      0x20\n        /* \"#utility.yul\":14840:14857   */\n      swap1\n      pop\n        /* \"#utility.yul\":14885:14887   */\n      0x1f\n        /* \"#utility.yul\":14877:14883   */\n      dup4\n        /* \"#utility.yul\":14874:14888   */\n      gt\n        /* \"#utility.yul\":14902:14903   */\n      0x01\n        /* \"#utility.yul\":14897:15515   */\n      dup2\n      eq\n      tag_352\n      jumpi\n        /* \"#utility.yul\":15559:15560   */\n      0x00\n        /* \"#utility.yul\":15576:15582   */\n      dup5\n        /* \"#utility.yul\":15573:15650   */\n      iszero\n      tag_353\n      jumpi\n        /* \"#utility.yul\":15625:15634   */\n      dup3\n        /* \"#utility.yul\":15620:15623   */\n      dup8\n        /* \"#utility.yul\":15616:15635   */\n      add\n        /* \"#utility.yul\":15610:15636   */\n      mload\n        /* \"#utility.yul\":15601:15636   */\n      swap1\n      pop\n        /* \"#utility.yul\":15573:15650   */\n    tag_353:\n        /* \"#utility.yul\":15676:15743   */\n      tag_354\n        /* \"#utility.yul\":15736:15742   */\n      dup6\n        /* \"#utility.yul\":15729:15734   */\n      dup3\n        /* \"#utility.yul\":15676:15743   */\n      tag_181\n      jump\t// in\n    tag_354:\n        /* \"#utility.yul\":15670:15674   */\n      dup7\n        /* \"#utility.yul\":15663:15744   */\n      sstore\n        /* \"#utility.yul\":15532:15754   */\n      pop\n        /* \"#utility.yul\":14867:15754   */\n      jump(tag_351)\n        /* \"#utility.yul\":14897:15515   */\n    tag_352:\n        /* \"#utility.yul\":14949:14953   */\n      0x1f\n        /* \"#utility.yul\":14945:14954   */\n      not\n        /* \"#utility.yul\":14937:14943   */\n      dup5\n        /* \"#utility.yul\":14933:14955   */\n      and\n        /* \"#utility.yul\":14983:15020   */\n      tag_355\n        /* \"#utility.yul\":15015:15019   */\n      dup7\n        /* \"#utility.yul\":14983:15020   */\n      tag_168\n      jump\t// in\n    tag_355:\n        /* \"#utility.yul\":15042:15043   */\n      0x00\n        /* \"#utility.yul\":15056:15264   */\n    tag_356:\n        /* \"#utility.yul\":15070:15077   */\n      dup3\n        /* \"#utility.yul\":15067:15068   */\n      dup2\n        /* \"#utility.yul\":15064:15078   */\n      lt\n        /* \"#utility.yul\":15056:15264   */\n      iszero\n      tag_358\n      jumpi\n        /* \"#utility.yul\":15149:15158   */\n      dup5\n        /* \"#utility.yul\":15144:15147   */\n      dup10\n        /* \"#utility.yul\":15140:15159   */\n      add\n        /* \"#utility.yul\":15134:15160   */\n      mload\n        /* \"#utility.yul\":15126:15132   */\n      dup3\n        /* \"#utility.yul\":15119:15161   */\n      sstore\n        /* \"#utility.yul\":15200:15201   */\n      0x01\n        /* \"#utility.yul\":15192:15198   */\n      dup3\n        /* \"#utility.yul\":15188:15202   */\n      add\n        /* \"#utility.yul\":15178:15202   */\n      swap2\n      pop\n        /* \"#utility.yul\":15247:15249   */\n      0x20\n        /* \"#utility.yul\":15236:15245   */\n      dup6\n        /* \"#utility.yul\":15232:15250   */\n      add\n        /* \"#utility.yul\":15219:15250   */\n      swap5\n      pop\n        /* \"#utility.yul\":15093:15097   */\n      0x20\n        /* \"#utility.yul\":15090:15091   */\n      dup2\n        /* \"#utility.yul\":15086:15098   */\n      add\n        /* \"#utility.yul\":15081:15098   */\n      swap1\n      pop\n        /* \"#utility.yul\":15056:15264   */\n      jump(tag_356)\n    tag_358:\n        /* \"#utility.yul\":15292:15298   */\n      dup7\n        /* \"#utility.yul\":15283:15290   */\n      dup4\n        /* \"#utility.yul\":15280:15299   */\n      lt\n        /* \"#utility.yul\":15277:15456   */\n      iszero\n      tag_359\n      jumpi\n        /* \"#utility.yul\":15350:15359   */\n      dup5\n        /* \"#utility.yul\":15345:15348   */\n      dup10\n        /* \"#utility.yul\":15341:15360   */\n      add\n        /* \"#utility.yul\":15335:15361   */\n      mload\n        /* \"#utility.yul\":15393:15441   */\n      tag_360\n        /* \"#utility.yul\":15435:15439   */\n      0x1f\n        /* \"#utility.yul\":15427:15433   */\n      dup10\n        /* \"#utility.yul\":15423:15440   */\n      and\n        /* \"#utility.yul\":15412:15421   */\n      dup3\n        /* \"#utility.yul\":15393:15441   */\n      tag_180\n      jump\t// in\n    tag_360:\n        /* \"#utility.yul\":15385:15391   */\n      dup4\n        /* \"#utility.yul\":15378:15442   */\n      sstore\n        /* \"#utility.yul\":15300:15456   */\n      pop\n        /* \"#utility.yul\":15277:15456   */\n    tag_359:\n        /* \"#utility.yul\":15502:15503   */\n      0x01\n        /* \"#utility.yul\":15498:15499   */\n      0x02\n        /* \"#utility.yul\":15490:15496   */\n      dup9\n        /* \"#utility.yul\":15486:15500   */\n      mul\n        /* \"#utility.yul\":15482:15504   */\n      add\n        /* \"#utility.yul\":15476:15480   */\n      dup9\n        /* \"#utility.yul\":15469:15505   */\n      sstore\n        /* \"#utility.yul\":14904:15515   */\n      pop\n      pop\n      pop\n        /* \"#utility.yul\":14867:15754   */\n    tag_351:\n      pop\n        /* \"#utility.yul\":14457:15760   */\n      pop\n      pop\n      pop\n        /* \"#utility.yul\":14365:15760   */\n      pop\n      pop\n      jump\t// out\n        /* \"#utility.yul\":15766:16098   */\n    tag_90:\n        /* \"#utility.yul\":15887:15891   */\n      0x00\n        /* \"#utility.yul\":15925:15927   */\n      0x40\n        /* \"#utility.yul\":15914:15923   */\n      dup3\n        /* \"#utility.yul\":15910:15928   */\n      add\n        /* \"#utility.yul\":15902:15928   */\n      swap1\n      pop\n        /* \"#utility.yul\":15938:16009   */\n      tag_362\n        /* \"#utility.yul\":16006:16007   */\n      0x00\n        /* \"#utility.yul\":15995:16004   */\n      dup4\n        /* \"#utility.yul\":15991:16008   */\n      add\n        /* \"#utility.yul\":15982:15988   */\n      dup6\n        /* \"#utility.yul\":15938:16009   */\n      tag_161\n      jump\t// in\n    tag_362:\n        /* \"#utility.yul\":16019:16091   */\n      tag_363\n        /* \"#utility.yul\":16087:16089   */\n      0x20\n        /* \"#utility.yul\":16076:16085   */\n      dup4\n        /* \"#utility.yul\":16072:16090   */\n      add\n        /* \"#utility.yul\":16063:16069   */\n      dup5\n        /* \"#utility.yul\":16019:16091   */\n      tag_137\n      jump\t// in\n    tag_363:\n        /* \"#utility.yul\":15766:16098   */\n      swap4\n      swap3\n      pop\n      pop\n      pop\n      jump\t// out\n        /* \"#utility.yul\":16104:16268   */\n    tag_182:\n        /* \"#utility.yul\":16244:16260   */\n      0x496e76616c696420616d6f756e74000000000000000000000000000000000000\n        /* \"#utility.yul\":16240:16241   */\n      0x00\n        /* \"#utility.yul\":16232:16238   */\n      dup3\n        /* \"#utility.yul\":16228:16242   */\n      add\n        /* \"#utility.yul\":16221:16261   */\n      mstore\n        /* \"#utility.yul\":16104:16268   */\n      pop\n      jump\t// out\n        /* \"#utility.yul\":16274:16640   */\n    tag_183:\n        /* \"#utility.yul\":16416:16419   */\n      0x00\n        /* \"#utility.yul\":16437:16504   */\n      tag_366\n        /* \"#utility.yul\":16501:16503   */\n      0x0e\n        /* \"#utility.yul\":16496:16499   */\n      dup4\n        /* \"#utility.yul\":16437:16504   */\n      tag_139\n      jump\t// in\n    tag_366:\n        /* \"#utility.yul\":16430:16504   */\n      swap2\n      pop\n        /* \"#utility.yul\":16513:16606   */\n      tag_367\n        /* \"#utility.yul\":16602:16605   */\n      dup3\n        /* \"#utility.yul\":16513:16606   */\n      tag_182\n      jump\t// in\n    tag_367:\n        /* \"#utility.yul\":16631:16633   */\n      0x20\n        /* \"#utility.yul\":16626:16629   */\n      dup3\n        /* \"#utility.yul\":16622:16634   */\n      add\n        /* \"#utility.yul\":16615:16634   */\n      swap1\n      pop\n        /* \"#utility.yul\":16274:16640   */\n      swap2\n      swap1\n      pop\n      jump\t// out\n        /* \"#utility.yul\":16646:17065   */\n    tag_105:\n        /* \"#utility.yul\":16812:16816   */\n      0x00\n        /* \"#utility.yul\":16850:16852   */\n      0x20\n        /* \"#utility.yul\":16839:16848   */\n      dup3\n        /* \"#utility.yul\":16835:16853   */\n      add\n        /* \"#utility.yul\":16827:16853   */\n      swap1\n      pop\n        /* \"#utility.yul\":16899:16908   */\n      dup2\n        /* \"#utility.yul\":16893:16897   */\n      dup2\n        /* \"#utility.yul\":16889:16909   */\n      sub\n        /* \"#utility.yul\":16885:16886   */\n      0x00\n        /* \"#utility.yul\":16874:16883   */\n      dup4\n        /* \"#utility.yul\":16870:16887   */\n      add\n        /* \"#utility.yul\":16863:16910   */\n      mstore\n        /* \"#utility.yul\":16927:17058   */\n      tag_369\n        /* \"#utility.yul\":17053:17057   */\n      dup2\n        /* \"#utility.yul\":16927:17058   */\n      tag_183\n      jump\t// in\n    tag_369:\n        /* \"#utility.yul\":16919:17058   */\n      swap1\n      pop\n        /* \"#utility.yul\":16646:17065   */\n      swap2\n      swap1\n      pop\n      jump\t// out\n        /* \"#utility.yul\":17071:17251   */\n    tag_184:\n        /* \"#utility.yul\":17119:17196   */\n      0x4e487b7100000000000000000000000000000000000000000000000000000000\n        /* \"#utility.yul\":17116:17117   */\n      0x00\n        /* \"#utility.yul\":17109:17197   */\n      mstore\n        /* \"#utility.yul\":17216:17220   */\n      0x11\n        /* \"#utility.yul\":17213:17214   */\n      0x04\n        /* \"#utility.yul\":17206:17221   */\n      mstore\n        /* \"#utility.yul\":17240:17244   */\n      0x24\n        /* \"#utility.yul\":17237:17238   */\n      0x00\n        /* \"#utility.yul\":17230:17245   */\n      revert\n        /* \"#utility.yul\":17257:17667   */\n    tag_107:\n        /* \"#utility.yul\":17297:17304   */\n      0x00\n        /* \"#utility.yul\":17320:17340   */\n      tag_372\n        /* \"#utility.yul\":17338:17339   */\n      dup3\n        /* \"#utility.yul\":17320:17340   */\n      tag_136\n      jump\t// in\n    tag_372:\n        /* \"#utility.yul\":17315:17340   */\n      swap2\n      pop\n        /* \"#utility.yul\":17354:17374   */\n      tag_373\n        /* \"#utility.yul\":17372:17373   */\n      dup4\n        /* \"#utility.yul\":17354:17374   */\n      tag_136\n      jump\t// in\n    tag_373:\n        /* \"#utility.yul\":17349:17374   */\n      swap3\n      pop\n        /* \"#utility.yul\":17409:17410   */\n      dup3\n        /* \"#utility.yul\":17406:17407   */\n      dup3\n        /* \"#utility.yul\":17402:17411   */\n      mul\n        /* \"#utility.yul\":17431:17461   */\n      tag_374\n        /* \"#utility.yul\":17449:17460   */\n      dup2\n        /* \"#utility.yul\":17431:17461   */\n      tag_136\n      jump\t// in\n    tag_374:\n        /* \"#utility.yul\":17420:17461   */\n      swap2\n      pop\n        /* \"#utility.yul\":17610:17611   */\n      dup3\n        /* \"#utility.yul\":17601:17608   */\n      dup3\n        /* \"#utility.yul\":17597:17612   */\n      div\n        /* \"#utility.yul\":17594:17595   */\n      dup5\n        /* \"#utility.yul\":17591:17613   */\n      eq\n        /* \"#utility.yul\":17571:17572   */\n      dup4\n        /* \"#utility.yul\":17564:17573   */\n      iszero\n        /* \"#utility.yul\":17544:17627   */\n      or\n        /* \"#utility.yul\":17521:17660   */\n      tag_375\n      jumpi\n        /* \"#utility.yul\":17640:17658   */\n      tag_376\n      tag_184\n      jump\t// in\n    tag_376:\n        /* \"#utility.yul\":17521:17660   */\n    tag_375:\n        /* \"#utility.yul\":17305:17667   */\n      pop\n        /* \"#utility.yul\":17257:17667   */\n      swap3\n      swap2\n      pop\n      pop\n      jump\t// out\n\n    auxdata: 0xa2646970667358221220c49683106aa09490731500add5fe4e3db40aa6f6430c2e768c20d0139684a97664736f6c634300081f0033\n}\n\nsub_1: assembly {\n        /* \"erc20.sol\":120:4034  contract ERC20Simple {... */\n      mstore(0x40, 0x80)\n        /* \"erc20.sol\":679:957  constructor(... */\n      callvalue\n      dup1\n      iszero\n      tag_1\n      jumpi\n      revert(0x00, 0x00)\n    tag_1:\n      pop\n      mload(0x40)\n      sub(codesize, bytecodeSize)\n      dup1\n      bytecodeSize\n      dup4\n      codecopy\n      dup2\n      dup2\n      add\n      0x40\n      mstore\n      dup2\n      add\n      swap1\n      tag_2\n      swap2\n      swap1\n      tag_3\n      jump\t// in\n    tag_2:\n        /* \"erc20.sol\":838:843  name_ */\n      dup4\n        /* \"erc20.sol\":830:835  _name */\n      0x00\n        /* \"erc20.sol\":830:843  _name = name_ */\n      swap1\n      dup2\n      tag_6\n      swap2\n      swap1\n      tag_7\n      jump\t// in\n    tag_6:\n      pop\n        /* \"erc20.sol\":864:871  symbol_ */\n      dup3\n        /* \"erc20.sol\":854:861  _symbol */\n      0x01\n        /* \"erc20.sol\":854:871  _symbol = symbol_ */\n      swap1\n      dup2\n      tag_8\n      swap2\n      swap1\n      tag_7\n      jump\t// in\n    tag_8:\n      pop\n        /* \"erc20.sol\":894:903  decimals_ */\n      dup2\n        /* \"erc20.sol\":882:891  _decimals */\n      0x02\n      0x00\n        /* \"erc20.sol\":882:903  _decimals = decimals_ */\n      0x0100\n      exp\n      dup2\n      sload\n      dup2\n      0xff\n      mul\n      not\n      and\n      swap1\n      dup4\n      0xff\n      and\n      mul\n      or\n      swap1\n      sstore\n      pop\n        /* \"erc20.sol\":916:949  _mint(msg.sender, initialSupply_) */\n      tag_9\n        /* \"erc20.sol\":922:932  msg.sender */\n      caller\n        /* \"erc20.sol\":934:948  initialSupply_ */\n      dup3\n        /* \"erc20.sol\":916:921  _mint */\n      shl(0x20, tag_10)\n        /* \"erc20.sol\":916:949  _mint(msg.sender, initialSupply_) */\n      0x20\n      shr\n      jump\t// in\n    tag_9:\n        /* \"erc20.sol\":679:957  constructor(... */\n      pop\n      pop\n      pop\n      pop\n        /* \"erc20.sol\":120:4034  contract ERC20Simple {... */\n      jump(tag_11)\n        /* \"erc20.sol\":3172:3484  function _mint(address to, uint256 amount) internal {... */\n    tag_10:\n        /* \"erc20.sol\":3257:3258  0 */\n      0x00\n        /* \"erc20.sol\":3243:3259  to != address(0) */\n      0xffffffffffffffffffffffffffffffffffffffff\n      and\n        /* \"erc20.sol\":3243:3245  to */\n      dup3\n        /* \"erc20.sol\":3243:3259  to != address(0) */\n      0xffffffffffffffffffffffffffffffffffffffff\n      and\n      sub\n        /* \"erc20.sol\":3235:3295  require(to != address(0), \"ERC20: mint to the zero address\") */\n      tag_13\n      jumpi\n      mload(0x40)\n      0x08c379a000000000000000000000000000000000000000000000000000000000\n      dup2\n      mstore\n      0x04\n      add\n      tag_14\n      swap1\n      tag_15\n      jump\t// in\n    tag_14:\n      mload(0x40)\n      dup1\n      swap2\n      sub\n      swap1\n      revert\n    tag_13:\n        /* \"erc20.sol\":3324:3330  amount */\n      dup1\n        /* \"erc20.sol\":3308:3320  _totalSupply */\n      0x03\n      0x00\n        /* \"erc20.sol\":3308:3330  _totalSupply += amount */\n      dup3\n      dup3\n      sload\n      tag_16\n      swap2\n      swap1\n      tag_17\n      jump\t// in\n    tag_16:\n      swap3\n      pop\n      pop\n      dup2\n      swap1\n      sstore\n      pop\n        /* \"erc20.sol\":3358:3364  amount */\n      dup1\n        /* \"erc20.sol\":3341:3350  _balances */\n      0x04\n        /* \"erc20.sol\":3341:3354  _balances[to] */\n      0x00\n        /* \"erc20.sol\":3351:3353  to */\n      dup5\n        /* \"erc20.sol\":3341:3354  _balances[to] */\n      0xffffffffffffffffffffffffffffffffffffffff\n      and\n      0xffffffffffffffffffffffffffffffffffffffff\n      and\n      dup2\n      mstore\n      0x20\n      add\n      swap1\n      dup2\n      mstore\n      0x20\n      add\n      0x00\n      keccak256\n      0x00\n        /* \"erc20.sol\":3341:3364  _balances[to] += amount */\n      dup3\n      dup3\n      sload\n      tag_18\n      swap2\n      swap1\n      tag_17\n      jump\t// in\n    tag_18:\n      swap3\n      pop\n      pop\n      dup2\n      swap1\n      sstore\n      pop\n        /* \"erc20.sol\":3465:3467  to */\n      dup2\n        /* \"erc20.sol\":3444:3476  Transfer(address(0), to, amount) */\n      0xffffffffffffffffffffffffffffffffffffffff\n      and\n        /* \"erc20.sol\":3461:3462  0 */\n      0x00\n        /* \"erc20.sol\":3444:3476  Transfer(address(0), to, amount) */\n      0xffffffffffffffffffffffffffffffffffffffff\n      and\n      0xddf252ad1be2c89b69c2b068fc378daa952ba7f163c4a11628f55a4df523b3ef\n        /* \"erc20.sol\":3469:3475  amount */\n      dup4\n        /* \"erc20.sol\":3444:3476  Transfer(address(0), to, amount) */\n      mload(0x40)\n      tag_19\n      swap2\n      swap1\n      tag_20\n      jump\t// in\n    tag_19:\n      mload(0x40)\n      dup1\n      swap2\n      sub\n      swap1\n      log3\n        /* \"erc20.sol\":3172:3484  function _mint(address to, uint256 amount) internal {... */\n      pop\n      pop\n      jump\t// out\n        /* \"#utility.yul\":7:82   */\n    tag_21:\n        /* \"#utility.yul\":40:46   */\n      0x00\n        /* \"#utility.yul\":73:75   */\n      0x40\n        /* \"#utility.yul\":67:76   */\n      mload\n        /* \"#utility.yul\":57:76   */\n      swap1\n      pop\n        /* \"#utility.yul\":7:82   */\n      swap1\n      jump\t// out\n        /* \"#utility.yul\":88:205   */\n    tag_22:\n        /* \"#utility.yul\":197:198   */\n      0x00\n        /* \"#utility.yul\":194:195   */\n      0x00\n        /* \"#utility.yul\":187:199   */\n      revert\n        /* \"#utility.yul\":211:328   */\n    tag_23:\n        /* \"#utility.yul\":320:321   */\n      0x00\n        /* \"#utility.yul\":317:318   */\n      0x00\n        /* \"#utility.yul\":310:322   */\n      revert\n        /* \"#utility.yul\":334:451   */\n    tag_24:\n        /* \"#utility.yul\":443:444   */\n      0x00\n        /* \"#utility.yul\":440:441   */\n      0x00\n        /* \"#utility.yul\":433:445   */\n      revert\n        /* \"#utility.yul\":457:574   */\n    tag_25:\n        /* \"#utility.yul\":566:567   */\n      0x00\n        /* \"#utility.yul\":563:564   */\n      0x00\n        /* \"#utility.yul\":556:568   */\n      revert\n        /* \"#utility.yul\":580:682   */\n    tag_26:\n        /* \"#utility.yul\":621:627   */\n      0x00\n        /* \"#utility.yul\":672:674   */\n      0x1f\n        /* \"#utility.yul\":668:675   */\n      not\n        /* \"#utility.yul\":663:665   */\n      0x1f\n        /* \"#utility.yul\":656:661   */\n      dup4\n        /* \"#utility.yul\":652:666   */\n      add\n        /* \"#utility.yul\":648:676   */\n      and\n        /* \"#utility.yul\":638:676   */\n      swap1\n      pop\n        /* \"#utility.yul\":580:682   */\n      swap2\n      swap1\n      pop\n      jump\t// out\n        /* \"#utility.yul\":688:868   */\n    tag_27:\n        /* \"#utility.yul\":736:813   */\n      0x4e487b7100000000000000000000000000000000000000000000000000000000\n        /* \"#utility.yul\":733:734   */\n      0x00\n        /* \"#utility.yul\":726:814   */\n      mstore\n        /* \"#utility.yul\":833:837   */\n      0x41\n        /* \"#utility.yul\":830:831   */\n      0x04\n        /* \"#utility.yul\":823:838   */\n      mstore\n        /* \"#utility.yul\":857:861   */\n      0x24\n        /* \"#utility.yul\":854:855   */\n      0x00\n        /* \"#utility.yul\":847:862   */\n      revert\n        /* \"#utility.yul\":874:1155   */\n    tag_28:\n        /* \"#utility.yul\":957:984   */\n      tag_72\n        /* \"#utility.yul\":979:983   */\n      dup3\n        /* \"#utility.yul\":957:984   */\n      tag_26\n      jump\t// in\n    tag_72:\n        /* \"#utility.yul\":949:955   */\n      dup2\n        /* \"#utility.yul\":945:985   */\n      add\n        /* \"#utility.yul\":1087:1093   */\n      dup2\n        /* \"#utility.yul\":1075:1085   */\n      dup2\n        /* \"#utility.yul\":1072:1094   */\n      lt\n        /* \"#utility.yul\":1051:1069   */\n      0xffffffffffffffff\n        /* \"#utility.yul\":1039:1049   */\n      dup3\n        /* \"#utility.yul\":1036:1070   */\n      gt\n        /* \"#utility.yul\":1033:1095   */\n      or\n        /* \"#utility.yul\":1030:1118   */\n      iszero\n      tag_73\n      jumpi\n        /* \"#utility.yul\":1098:1116   */\n      tag_74\n      tag_27\n      jump\t// in\n    tag_74:\n        /* \"#utility.yul\":1030:1118   */\n    tag_73:\n        /* \"#utility.yul\":1138:1148   */\n      dup1\n        /* \"#utility.yul\":1134:1136   */\n      0x40\n        /* \"#utility.yul\":1127:1149   */\n      mstore\n        /* \"#utility.yul\":917:1155   */\n      pop\n        /* \"#utility.yul\":874:1155   */\n      pop\n      pop\n      jump\t// out\n        /* \"#utility.yul\":1161:1290   */\n    tag_29:\n        /* \"#utility.yul\":1195:1201   */\n      0x00\n        /* \"#utility.yul\":1222:1242   */\n      tag_76\n      tag_21\n      jump\t// in\n    tag_76:\n        /* \"#utility.yul\":1212:1242   */\n      swap1\n      pop\n        /* \"#utility.yul\":1251:1284   */\n      tag_77\n        /* \"#utility.yul\":1279:1283   */\n      dup3\n        /* \"#utility.yul\":1271:1277   */\n      dup3\n        /* \"#utility.yul\":1251:1284   */\n      tag_28\n      jump\t// in\n    tag_77:\n        /* \"#utility.yul\":1161:1290   */\n      swap2\n      swap1\n      pop\n      jump\t// out\n        /* \"#utility.yul\":1296:1604   */\n    tag_30:\n        /* \"#utility.yul\":1358:1362   */\n      0x00\n        /* \"#utility.yul\":1448:1466   */\n      0xffffffffffffffff\n        /* \"#utility.yul\":1440:1446   */\n      dup3\n        /* \"#utility.yul\":1437:1467   */\n      gt\n        /* \"#utility.yul\":1434:1490   */\n      iszero\n      tag_79\n      jumpi\n        /* \"#utility.yul\":1470:1488   */\n      tag_80\n      tag_27\n      jump\t// in\n    tag_80:\n        /* \"#utility.yul\":1434:1490   */\n    tag_79:\n        /* \"#utility.yul\":1508:1537   */\n      tag_81\n        /* \"#utility.yul\":1530:1536   */\n      dup3\n        /* \"#utility.yul\":1508:1537   */\n      tag_26\n      jump\t// in\n    tag_81:\n        /* \"#utility.yul\":1500:1537   */\n      swap1\n      pop\n        /* \"#utility.yul\":1592:1596   */\n      0x20\n        /* \"#utility.yul\":1586:1590   */\n      dup2\n        /* \"#utility.yul\":1582:1597   */\n      add\n        /* \"#utility.yul\":1574:1597   */\n      swap1\n      pop\n        /* \"#utility.yul\":1296:1604   */\n      swap2\n      swap1\n      pop\n      jump\t// out\n        /* \"#utility.yul\":1610:1749   */\n    tag_31:\n        /* \"#utility.yul\":1699:1705   */\n      dup3\n        /* \"#utility.yul\":1694:1697   */\n      dup2\n        /* \"#utility.yul\":1689:1692   */\n      dup4\n        /* \"#utility.yul\":1683:1706   */\n      mcopy\n        /* \"#utility.yul\":1740:1741   */\n      0x00\n        /* \"#utility.yul\":1731:1737   */\n      dup4\n        /* \"#utility.yul\":1726:1729   */\n      dup4\n        /* \"#utility.yul\":1722:1738   */\n      add\n        /* \"#utility.yul\":1715:1742   */\n      mstore\n        /* \"#utility.yul\":1610:1749   */\n      pop\n      pop\n      pop\n      jump\t// out\n        /* \"#utility.yul\":1755:2189   */\n    tag_32:\n        /* \"#utility.yul\":1844:1849   */\n      0x00\n        /* \"#utility.yul\":1869:1935   */\n      tag_84\n        /* \"#utility.yul\":1885:1934   */\n      tag_85\n        /* \"#utility.yul\":1927:1933   */\n      dup5\n        /* \"#utility.yul\":1885:1934   */\n      tag_30\n      jump\t// in\n    tag_85:\n        /* \"#utility.yul\":1869:1935   */\n      tag_29\n      jump\t// in\n    tag_84:\n        /* \"#utility.yul\":1860:1935   */\n      swap1\n      pop\n        /* \"#utility.yul\":1958:1964   */\n      dup3\n        /* \"#utility.yul\":1951:1956   */\n      dup2\n        /* \"#utility.yul\":1944:1965   */\n      mstore\n        /* \"#utility.yul\":1996:2000   */\n      0x20\n        /* \"#utility.yul\":1989:1994   */\n      dup2\n        /* \"#utility.yul\":1985:2001   */\n      add\n        /* \"#utility.yul\":2034:2037   */\n      dup5\n        /* \"#utility.yul\":2025:2031   */\n      dup5\n        /* \"#utility.yul\":2020:2023   */\n      dup5\n        /* \"#utility.yul\":2016:2032   */\n      add\n        /* \"#utility.yul\":2013:2038   */\n      gt\n        /* \"#utility.yul\":2010:2122   */\n      iszero\n      tag_86\n      jumpi\n        /* \"#utility.yul\":2041:2120   */\n      tag_87\n      tag_25\n      jump\t// in\n    tag_87:\n        /* \"#utility.yul\":2010:2122   */\n    tag_86:\n        /* \"#utility.yul\":2131:2183   */\n      tag_88\n        /* \"#utility.yul\":2176:2182   */\n      dup5\n        /* \"#utility.yul\":2171:2174   */\n      dup3\n        /* \"#utility.yul\":2166:2169   */\n      dup6\n        /* \"#utility.yul\":2131:2183   */\n      tag_31\n      jump\t// in\n    tag_88:\n        /* \"#utility.yul\":1850:2189   */\n      pop\n        /* \"#utility.yul\":1755:2189   */\n      swap4\n      swap3\n      pop\n      pop\n      pop\n      jump\t// out\n        /* \"#utility.yul\":2209:2564   */\n    tag_33:\n        /* \"#utility.yul\":2276:2281   */\n      0x00\n        /* \"#utility.yul\":2325:2328   */\n      dup3\n        /* \"#utility.yul\":2318:2322   */\n      0x1f\n        /* \"#utility.yul\":2310:2316   */\n      dup4\n        /* \"#utility.yul\":2306:2323   */\n      add\n        /* \"#utility.yul\":2302:2329   */\n      slt\n        /* \"#utility.yul\":2292:2414   */\n      tag_90\n      jumpi\n        /* \"#utility.yul\":2333:2412   */\n      tag_91\n      tag_24\n      jump\t// in\n    tag_91:\n        /* \"#utility.yul\":2292:2414   */\n    tag_90:\n        /* \"#utility.yul\":2443:2449   */\n      dup2\n        /* \"#utility.yul\":2437:2450   */\n      mload\n        /* \"#utility.yul\":2468:2558   */\n      tag_92\n        /* \"#utility.yul\":2554:2557   */\n      dup5\n        /* \"#utility.yul\":2546:2552   */\n      dup3\n        /* \"#utility.yul\":2539:2543   */\n      0x20\n        /* \"#utility.yul\":2531:2537   */\n      dup7\n        /* \"#utility.yul\":2527:2544   */\n      add\n        /* \"#utility.yul\":2468:2558   */\n      tag_32\n      jump\t// in\n    tag_92:\n        /* \"#utility.yul\":2459:2558   */\n      swap2\n      pop\n        /* \"#utility.yul\":2282:2564   */\n      pop\n        /* \"#utility.yul\":2209:2564   */\n      swap3\n      swap2\n      pop\n      pop\n      jump\t// out\n        /* \"#utility.yul\":2570:2656   */\n    tag_34:\n        /* \"#utility.yul\":2605:2612   */\n      0x00\n        /* \"#utility.yul\":2645:2649   */\n      0xff\n        /* \"#utility.yul\":2638:2643   */\n      dup3\n        /* \"#utility.yul\":2634:2650   */\n      and\n        /* \"#utility.yul\":2623:2650   */\n      swap1\n      pop\n        /* \"#utility.yul\":2570:2656   */\n      swap2\n      swap1\n      pop\n      jump\t// out\n        /* \"#utility.yul\":2662:2780   */\n    tag_35:\n        /* \"#utility.yul\":2733:2755   */\n      tag_95\n        /* \"#utility.yul\":2749:2754   */\n      dup2\n        /* \"#utility.yul\":2733:2755   */\n      tag_34\n      jump\t// in\n    tag_95:\n        /* \"#utility.yul\":2726:2731   */\n      dup2\n        /* \"#utility.yul\":2723:2756   */\n      eq\n        /* \"#utility.yul\":2713:2774   */\n      tag_96\n      jumpi\n        /* \"#utility.yul\":2770:2771   */\n      0x00\n        /* \"#utility.yul\":2767:2768   */\n      0x00\n        /* \"#utility.yul\":2760:2772   */\n      revert\n        /* \"#utility.yul\":2713:2774   */\n    tag_96:\n        /* \"#utility.yul\":2662:2780   */\n      pop\n      jump\t// out\n        /* \"#utility.yul\":2786:2925   */\n    tag_36:\n        /* \"#utility.yul\":2841:2846   */\n      0x00\n        /* \"#utility.yul\":2872:2878   */\n      dup2\n        /* \"#utility.yul\":2866:2879   */\n      mload\n        /* \"#utility.yul\":2857:2879   */\n      swap1\n      pop\n        /* \"#utility.yul\":2888:2919   */\n      tag_98\n        /* \"#utility.yul\":2913:2918   */\n      dup2\n        /* \"#utility.yul\":2888:2919   */\n      tag_35\n      jump\t// in\n    tag_98:\n        /* \"#utility.yul\":2786:2925   */\n      swap3\n      swap2\n      pop\n      pop\n      jump\t// out\n        /* \"#utility.yul\":2931:3008   */\n    tag_37:\n        /* \"#utility.yul\":2968:2975   */\n      0x00\n        /* \"#utility.yul\":2997:3002   */\n      dup2\n        /* \"#utility.yul\":2986:3002   */\n      swap1\n      pop\n        /* \"#utility.yul\":2931:3008   */\n      swap2\n      swap1\n      pop\n      jump\t// out\n        /* \"#utility.yul\":3014:3136   */\n    tag_38:\n        /* \"#utility.yul\":3087:3111   */\n      tag_101\n        /* \"#utility.yul\":3105:3110   */\n      dup2\n        /* \"#utility.yul\":3087:3111   */\n      tag_37\n      jump\t// in\n    tag_101:\n        /* \"#utility.yul\":3080:3085   */\n      dup2\n        /* \"#utility.yul\":3077:3112   */\n      eq\n        /* \"#utility.yul\":3067:3130   */\n      tag_102\n      jumpi\n        /* \"#utility.yul\":3126:3127   */\n      0x00\n        /* \"#utility.yul\":3123:3124   */\n      0x00\n        /* \"#utility.yul\":3116:3128   */\n      revert\n        /* \"#utility.yul\":3067:3130   */\n    tag_102:\n        /* \"#utility.yul\":3014:3136   */\n      pop\n      jump\t// out\n        /* \"#utility.yul\":3142:3285   */\n    tag_39:\n        /* \"#utility.yul\":3199:3204   */\n      0x00\n        /* \"#utility.yul\":3230:3236   */\n      dup2\n        /* \"#utility.yul\":3224:3237   */\n      mload\n        /* \"#utility.yul\":3215:3237   */\n      swap1\n      pop\n        /* \"#utility.yul\":3246:3279   */\n      tag_104\n        /* \"#utility.yul\":3273:3278   */\n      dup2\n        /* \"#utility.yul\":3246:3279   */\n      tag_38\n      jump\t// in\n    tag_104:\n        /* \"#utility.yul\":3142:3285   */\n      swap3\n      swap2\n      pop\n      pop\n      jump\t// out\n        /* \"#utility.yul\":3291:4453   */\n    tag_3:\n        /* \"#utility.yul\":3406:3412   */\n      0x00\n        /* \"#utility.yul\":3414:3420   */\n      0x00\n        /* \"#utility.yul\":3422:3428   */\n      0x00\n        /* \"#utility.yul\":3430:3436   */\n      0x00\n        /* \"#utility.yul\":3479:3482   */\n      0x80\n        /* \"#utility.yul\":3467:3476   */\n      dup6\n        /* \"#utility.yul\":3458:3465   */\n      dup8\n        /* \"#utility.yul\":3454:3477   */\n      sub\n        /* \"#utility.yul\":3450:3483   */\n      slt\n        /* \"#utility.yul\":3447:3567   */\n      iszero\n      tag_106\n      jumpi\n        /* \"#utility.yul\":3486:3565   */\n      tag_107\n      tag_22\n      jump\t// in\n    tag_107:\n        /* \"#utility.yul\":3447:3567   */\n    tag_106:\n        /* \"#utility.yul\":3627:3628   */\n      0x00\n        /* \"#utility.yul\":3616:3625   */\n      dup6\n        /* \"#utility.yul\":3612:3629   */\n      add\n        /* \"#utility.yul\":3606:3630   */\n      mload\n        /* \"#utility.yul\":3657:3675   */\n      0xffffffffffffffff\n        /* \"#utility.yul\":3649:3655   */\n      dup2\n        /* \"#utility.yul\":3646:3676   */\n      gt\n        /* \"#utility.yul\":3643:3760   */\n      iszero\n      tag_108\n      jumpi\n        /* \"#utility.yul\":3679:3758   */\n      tag_109\n      tag_23\n      jump\t// in\n    tag_109:\n        /* \"#utility.yul\":3643:3760   */\n    tag_108:\n        /* \"#utility.yul\":3784:3858   */\n      tag_110\n        /* \"#utility.yul\":3850:3857   */\n      dup8\n        /* \"#utility.yul\":3841:3847   */\n      dup3\n        /* \"#utility.yul\":3830:3839   */\n      dup9\n        /* \"#utility.yul\":3826:3848   */\n      add\n        /* \"#utility.yul\":3784:3858   */\n      tag_33\n      jump\t// in\n    tag_110:\n        /* \"#utility.yul\":3774:3858   */\n      swap5\n      pop\n        /* \"#utility.yul\":3577:3868   */\n      pop\n        /* \"#utility.yul\":3928:3930   */\n      0x20\n        /* \"#utility.yul\":3917:3926   */\n      dup6\n        /* \"#utility.yul\":3913:3931   */\n      add\n        /* \"#utility.yul\":3907:3932   */\n      mload\n        /* \"#utility.yul\":3959:3977   */\n      0xffffffffffffffff\n        /* \"#utility.yul\":3951:3957   */\n      dup2\n        /* \"#utility.yul\":3948:3978   */\n      gt\n        /* \"#utility.yul\":3945:4062   */\n      iszero\n      tag_111\n      jumpi\n        /* \"#utility.yul\":3981:4060   */\n      tag_112\n      tag_23\n      jump\t// in\n    tag_112:\n        /* \"#utility.yul\":3945:4062   */\n    tag_111:\n        /* \"#utility.yul\":4086:4160   */\n      tag_113\n        /* \"#utility.yul\":4152:4159   */\n      dup8\n        /* \"#utility.yul\":4143:4149   */\n      dup3\n        /* \"#utility.yul\":4132:4141   */\n      dup9\n        /* \"#utility.yul\":4128:4150   */\n      add\n        /* \"#utility.yul\":4086:4160   */\n      tag_33\n      jump\t// in\n    tag_113:\n        /* \"#utility.yul\":4076:4160   */\n      swap4\n      pop\n        /* \"#utility.yul\":3878:4170   */\n      pop\n        /* \"#utility.yul\":4209:4211   */\n      0x40\n        /* \"#utility.yul\":4235:4297   */\n      tag_114\n        /* \"#utility.yul\":4289:4296   */\n      dup8\n        /* \"#utility.yul\":4280:4286   */\n      dup3\n        /* \"#utility.yul\":4269:4278   */\n      dup9\n        /* \"#utility.yul\":4265:4287   */\n      add\n        /* \"#utility.yul\":4235:4297   */\n      tag_36\n      jump\t// in\n    tag_114:\n        /* \"#utility.yul\":4225:4297   */\n      swap3\n      pop\n        /* \"#utility.yul\":4180:4307   */\n      pop\n        /* \"#utility.yul\":4346:4348   */\n      0x60\n        /* \"#utility.yul\":4372:4436   */\n      tag_115\n        /* \"#utility.yul\":4428:4435   */\n      dup8\n        /* \"#utility.yul\":4419:4425   */\n      dup3\n        /* \"#utility.yul\":4408:4417   */\n      dup9\n        /* \"#utility.yul\":4404:4426   */\n      add\n        /* \"#utility.yul\":4372:4436   */\n      tag_39\n      jump\t// in\n    tag_115:\n        /* \"#utility.yul\":4362:4436   */\n      swap2\n      pop\n        /* \"#utility.yul\":4317:4446   */\n      pop\n        /* \"#utility.yul\":3291:4453   */\n      swap3\n      swap6\n      swap2\n      swap5\n      pop\n      swap3\n      pop\n      jump\t// out\n        /* \"#utility.yul\":4459:4558   */\n    tag_40:\n        /* \"#utility.yul\":4511:4517   */\n      0x00\n        /* \"#utility.yul\":4545:4550   */\n      dup2\n        /* \"#utility.yul\":4539:4551   */\n      mload\n        /* \"#utility.yul\":4529:4551   */\n      swap1\n      pop\n        /* \"#utility.yul\":4459:4558   */\n      swap2\n      swap1\n      pop\n      jump\t// out\n        /* \"#utility.yul\":4564:4744   */\n    tag_41:\n        /* \"#utility.yul\":4612:4689   */\n      0x4e487b7100000000000000000000000000000000000000000000000000000000\n        /* \"#utility.yul\":4609:4610   */\n      0x00\n        /* \"#utility.yul\":4602:4690   */\n      mstore\n        /* \"#utility.yul\":4709:4713   */\n      0x22\n        /* \"#utility.yul\":4706:4707   */\n      0x04\n        /* \"#utility.yul\":4699:4714   */\n      mstore\n        /* \"#utility.yul\":4733:4737   */\n      0x24\n        /* \"#utility.yul\":4730:4731   */\n      0x00\n        /* \"#utility.yul\":4723:4738   */\n      revert\n        /* \"#utility.yul\":4750:5070   */\n    tag_42:\n        /* \"#utility.yul\":4794:4800   */\n      0x00\n        /* \"#utility.yul\":4831:4832   */\n      0x02\n        /* \"#utility.yul\":4825:4829   */\n      dup3\n        /* \"#utility.yul\":4821:4833   */\n      div\n        /* \"#utility.yul\":4811:4833   */\n      swap1\n      pop\n        /* \"#utility.yul\":4878:4879   */\n      0x01\n        /* \"#utility.yul\":4872:4876   */\n      dup3\n        /* \"#utility.yul\":4868:4880   */\n      and\n        /* \"#utility.yul\":4899:4917   */\n      dup1\n        /* \"#utility.yul\":4889:4970   */\n      tag_119\n      jumpi\n        /* \"#utility.yul\":4955:4959   */\n      0x7f\n        /* \"#utility.yul\":4947:4953   */\n      dup3\n        /* \"#utility.yul\":4943:4960   */\n      and\n        /* \"#utility.yul\":4933:4960   */\n      swap2\n      pop\n        /* \"#utility.yul\":4889:4970   */\n    tag_119:\n        /* \"#utility.yul\":5017:5019   */\n      0x20\n        /* \"#utility.yul\":5009:5015   */\n      dup3\n        /* \"#utility.yul\":5006:5020   */\n      lt\n        /* \"#utility.yul\":4986:5004   */\n      dup2\n        /* \"#utility.yul\":4983:5021   */\n      sub\n        /* \"#utility.yul\":4980:5064   */\n      tag_120\n      jumpi\n        /* \"#utility.yul\":5036:5054   */\n      tag_121\n      tag_41\n      jump\t// in\n    tag_121:\n        /* \"#utility.yul\":4980:5064   */\n    tag_120:\n        /* \"#utility.yul\":4801:5070   */\n      pop\n        /* \"#utility.yul\":4750:5070   */\n      swap2\n      swap1\n      pop\n      jump\t// out\n        /* \"#utility.yul\":5076:5217   */\n    tag_43:\n        /* \"#utility.yul\":5125:5129   */\n      0x00\n        /* \"#utility.yul\":5148:5151   */\n      dup2\n        /* \"#utility.yul\":5140:5151   */\n      swap1\n      pop\n        /* \"#utility.yul\":5171:5174   */\n      dup2\n        /* \"#utility.yul\":5168:5169   */\n      0x00\n        /* \"#utility.yul\":5161:5175   */\n      mstore\n        /* \"#utility.yul\":5205:5209   */\n      0x20\n        /* \"#utility.yul\":5202:5203   */\n      0x00\n        /* \"#utility.yul\":5192:5210   */\n      keccak256\n        /* \"#utility.yul\":5184:5210   */\n      swap1\n      pop\n        /* \"#utility.yul\":5076:5217   */\n      swap2\n      swap1\n      pop\n      jump\t// out\n        /* \"#utility.yul\":5223:5316   */\n    tag_44:\n        /* \"#utility.yul\":5260:5266   */\n      0x00\n        /* \"#utility.yul\":5307:5309   */\n      0x20\n        /* \"#utility.yul\":5302:5304   */\n      0x1f\n        /* \"#utility.yul\":5295:5300   */\n      dup4\n        /* \"#utility.yul\":5291:5305   */\n      add\n        /* \"#utility.yul\":5287:5310   */\n      div\n        /* \"#utility.yul\":5277:5310   */\n      swap1\n      pop\n        /* \"#utility.yul\":5223:5316   */\n      swap2\n      swap1\n      pop\n      jump\t// out\n        /* \"#utility.yul\":5322:5429   */\n    tag_45:\n        /* \"#utility.yul\":5366:5374   */\n      0x00\n        /* \"#utility.yul\":5416:5421   */\n      dup3\n        /* \"#utility.yul\":5410:5414   */\n      dup3\n        /* \"#utility.yul\":5406:5422   */\n      shl\n        /* \"#utility.yul\":5385:5422   */\n      swap1\n      pop\n        /* \"#utility.yul\":5322:5429   */\n      swap3\n      swap2\n      pop\n      pop\n      jump\t// out\n        /* \"#utility.yul\":5435:5828   */\n    tag_46:\n        /* \"#utility.yul\":5504:5510   */\n      0x00\n        /* \"#utility.yul\":5554:5555   */\n      0x08\n        /* \"#utility.yul\":5542:5552   */\n      dup4\n        /* \"#utility.yul\":5538:5556   */\n      mul\n        /* \"#utility.yul\":5577:5674   */\n      tag_126\n        /* \"#utility.yul\":5607:5673   */\n      0xffffffffffffffffffffffffffffffffffffffffffffffffffffffffffffffff\n        /* \"#utility.yul\":5596:5605   */\n      dup3\n        /* \"#utility.yul\":5577:5674   */\n      tag_45\n      jump\t// in\n    tag_126:\n        /* \"#utility.yul\":5695:5734   */\n      tag_127\n        /* \"#utility.yul\":5725:5733   */\n      dup7\n        /* \"#utility.yul\":5714:5723   */\n      dup4\n        /* \"#utility.yul\":5695:5734   */\n      tag_45\n      jump\t// in\n    tag_127:\n        /* \"#utility.yul\":5683:5734   */\n      swap6\n      pop\n        /* \"#utility.yul\":5767:5771   */\n      dup1\n        /* \"#utility.yul\":5763:5772   */\n      not\n        /* \"#utility.yul\":5756:5761   */\n      dup5\n        /* \"#utility.yul\":5752:5773   */\n      and\n        /* \"#utility.yul\":5743:5773   */\n      swap4\n      pop\n        /* \"#utility.yul\":5816:5820   */\n      dup1\n        /* \"#utility.yul\":5806:5814   */\n      dup7\n        /* \"#utility.yul\":5802:5821   */\n      and\n        /* \"#utility.yul\":5795:5800   */\n      dup5\n        /* \"#utility.yul\":5792:5822   */\n      or\n        /* \"#utility.yul\":5782:5822   */\n      swap3\n      pop\n        /* \"#utility.yul\":5511:5828   */\n      pop\n      pop\n        /* \"#utility.yul\":5435:5828   */\n      swap4\n      swap3\n      pop\n      pop\n      pop\n      jump\t// out\n        /* \"#utility.yul\":5834:5894   */\n    tag_47:\n        /* \"#utility.yul\":5862:5865   */\n      0x00\n        /* \"#utility.yul\":5883:5888   */\n      dup2\n        /* \"#utility.yul\":5876:5888   */\n      swap1\n      pop\n        /* \"#utility.yul\":5834:5894   */\n      swap2\n      swap1\n      pop\n      jump\t// out\n        /* \"#utility.yul\":5900:6042   */\n    tag_48:\n        /* \"#utility.yul\":5950:5959   */\n      0x00\n        /* \"#utility.yul\":5983:6036   */\n      tag_130\n        /* \"#utility.yul\":6001:6035   */\n      tag_131\n        /* \"#utility.yul\":6010:6034   */\n      tag_132\n        /* \"#utility.yul\":6028:6033   */\n      dup5\n        /* \"#utility.yul\":6010:6034   */\n      tag_37\n      jump\t// in\n    tag_132:\n        /* \"#utility.yul\":6001:6035   */\n      tag_47\n      jump\t// in\n    tag_131:\n        /* \"#utility.yul\":5983:6036   */\n      tag_37\n      jump\t// in\n    tag_130:\n        /* \"#utility.yul\":5970:6036   */\n      swap1\n      pop\n        /* \"#utility.yul\":5900:6042   */\n      swap2\n      swap1\n      pop\n      jump\t// out\n        /* \"#utility.yul\":6048:6123   */\n    tag_49:\n        /* \"#utility.yul\":6091:6094   */\n      0x00\n        /* \"#utility.yul\":6112:6117   */\n      dup2\n        /* \"#utility.yul\":6105:6117   */\n      swap1\n      pop\n        /* \"#utility.yul\":6048:6123   */\n      swap2\n      swap1\n      pop\n      jump\t// out\n        /* \"#utility.yul\":6129:6398   */\n    tag_50:\n        /* \"#utility.yul\":6239:6278   */\n      tag_135\n        /* \"#utility.yul\":6270:6277   */\n      dup4\n        /* \"#utility.yul\":6239:6278   */\n      tag_48\n      jump\t// in\n    tag_135:\n        /* \"#utility.yul\":6300:6391   */\n      tag_136\n        /* \"#utility.yul\":6349:6390   */\n      tag_137\n        /* \"#utility.yul\":6373:6389   */\n      dup3\n        /* \"#utility.yul\":6349:6390   */\n      tag_49\n      jump\t// in\n    tag_137:\n        /* \"#utility.yul\":6341:6347   */\n      dup5\n        /* \"#utility.yul\":6334:6338   */\n      dup5\n        /* \"#utility.yul\":6328:6339   */\n      sload\n        /* \"#utility.yul\":6300:6391   */\n      tag_46\n      jump\t// in\n    tag_136:\n        /* \"#utility.yul\":6294:6298   */\n      dup3\n        /* \"#utility.yul\":6287:6392   */\n      sstore\n        /* \"#utility.yul\":6205:6398   */\n      pop\n        /* \"#utility.yul\":6129:6398   */\n      pop\n      pop\n      pop\n      jump\t// out\n        /* \"#utility.yul\":6404:6477   */\n    tag_51:\n        /* \"#utility.yul\":6449:6452   */\n      0x00\n        /* \"#utility.yul\":6470:6471   */\n      0x00\n        /* \"#utility.yul\":6463:6471   */\n      swap1\n      pop\n        /* \"#utility.yul\":6404:6477   */\n      swap1\n      jump\t// out\n        /* \"#utility.yul\":6483:6672   */\n    tag_52:\n        /* \"#utility.yul\":6560:6592   */\n      tag_140\n      tag_51\n      jump\t// in\n    tag_140:\n        /* \"#utility.yul\":6601:6666   */\n      tag_141\n        /* \"#utility.yul\":6659:6665   */\n      dup2\n        /* \"#utility.yul\":6651:6657   */\n      dup5\n        /* \"#utility.yul\":6645:6649   */\n      dup5\n        /* \"#utility.yul\":6601:6666   */\n      tag_50\n      jump\t// in\n    tag_141:\n        /* \"#utility.yul\":6536:6672   */\n      pop\n        /* \"#utility.yul\":6483:6672   */\n      pop\n      pop\n      jump\t// out\n        /* \"#utility.yul\":6678:6864   */\n    tag_53:\n        /* \"#utility.yul\":6738:6858   */\n    tag_143:\n        /* \"#utility.yul\":6755:6758   */\n      dup2\n        /* \"#utility.yul\":6748:6753   */\n      dup2\n        /* \"#utility.yul\":6745:6759   */\n      lt\n        /* \"#utility.yul\":6738:6858   */\n      iszero\n      tag_145\n      jumpi\n        /* \"#utility.yul\":6809:6848   */\n      tag_146\n        /* \"#utility.yul\":6846:6847   */\n      0x00\n        /* \"#utility.yul\":6839:6844   */\n      dup3\n        /* \"#utility.yul\":6809:6848   */\n      tag_52\n      jump\t// in\n    tag_146:\n        /* \"#utility.yul\":6782:6783   */\n      0x01\n        /* \"#utility.yul\":6775:6780   */\n      dup2\n        /* \"#utility.yul\":6771:6784   */\n      add\n        /* \"#utility.yul\":6762:6784   */\n      swap1\n      pop\n        /* \"#utility.yul\":6738:6858   */\n      jump(tag_143)\n    tag_145:\n        /* \"#utility.yul\":6678:6864   */\n      pop\n      pop\n      jump\t// out\n        /* \"#utility.yul\":6870:7413   */\n    tag_54:\n        /* \"#utility.yul\":6971:6973   */\n      0x1f\n        /* \"#utility.yul\":6966:6969   */\n      dup3\n        /* \"#utility.yul\":6963:6974   */\n      gt\n        /* \"#utility.yul\":6960:7406   */\n      iszero\n      tag_148\n      jumpi\n        /* \"#utility.yul\":7005:7043   */\n      tag_149\n        /* \"#utility.yul\":7037:7042   */\n      dup2\n        /* \"#utility.yul\":7005:7043   */\n      tag_43\n      jump\t// in\n    tag_149:\n        /* \"#utility.yul\":7089:7118   */\n      tag_150\n        /* \"#utility.yul\":7107:7117   */\n      dup5\n        /* \"#utility.yul\":7089:7118   */\n      tag_44\n      jump\t// in\n    tag_150:\n        /* \"#utility.yul\":7079:7087   */\n      dup2\n        /* \"#utility.yul\":7075:7119   */\n      add\n        /* \"#utility.yul\":7272:7274   */\n      0x20\n        /* \"#utility.yul\":7260:7270   */\n      dup6\n        /* \"#utility.yul\":7257:7275   */\n      lt\n        /* \"#utility.yul\":7254:7303   */\n      iszero\n      tag_151\n      jumpi\n        /* \"#utility.yul\":7293:7301   */\n      dup2\n        /* \"#utility.yul\":7278:7301   */\n      swap1\n      pop\n        /* \"#utility.yul\":7254:7303   */\n    tag_151:\n        /* \"#utility.yul\":7316:7396   */\n      tag_152\n        /* \"#utility.yul\":7372:7394   */\n      tag_153\n        /* \"#utility.yul\":7390:7393   */\n      dup6\n        /* \"#utility.yul\":7372:7394   */\n      tag_44\n      jump\t// in\n    tag_153:\n        /* \"#utility.yul\":7362:7370   */\n      dup4\n        /* \"#utility.yul\":7358:7395   */\n      add\n        /* \"#utility.yul\":7345:7356   */\n      dup3\n        /* \"#utility.yul\":7316:7396   */\n      tag_53\n      jump\t// in\n    tag_152:\n        /* \"#utility.yul\":6975:7406   */\n      pop\n      pop\n        /* \"#utility.yul\":6960:7406   */\n    tag_148:\n        /* \"#utility.yul\":6870:7413   */\n      pop\n      pop\n      pop\n      jump\t// out\n        /* \"#utility.yul\":7419:7536   */\n    tag_55:\n        /* \"#utility.yul\":7473:7481   */\n      0x00\n        /* \"#utility.yul\":7523:7528   */\n      dup3\n        /* \"#utility.yul\":7517:7521   */\n      dup3\n        /* \"#utility.yul\":7513:7529   */\n      shr\n        /* \"#utility.yul\":7492:7529   */\n      swap1\n      pop\n        /* \"#utility.yul\":7419:7536   */\n      swap3\n      swap2\n      pop\n      pop\n      jump\t// out\n        /* \"#utility.yul\":7542:7711   */\n    tag_56:\n        /* \"#utility.yul\":7586:7592   */\n      0x00\n        /* \"#utility.yul\":7619:7670   */\n      tag_156\n        /* \"#utility.yul\":7667:7668   */\n      0x00\n        /* \"#utility.yul\":7663:7669   */\n      not\n        /* \"#utility.yul\":7655:7660   */\n      dup5\n        /* \"#utility.yul\":7652:7653   */\n      0x08\n        /* \"#utility.yul\":7648:7661   */\n      mul\n        /* \"#utility.yul\":7619:7670   */\n      tag_55\n      jump\t// in\n    tag_156:\n        /* \"#utility.yul\":7615:7671   */\n      not\n        /* \"#utility.yul\":7700:7704   */\n      dup1\n        /* \"#utility.yul\":7694:7698   */\n      dup4\n        /* \"#utility.yul\":7690:7705   */\n      and\n        /* \"#utility.yul\":7680:7705   */\n      swap2\n      pop\n        /* \"#utility.yul\":7593:7711   */\n      pop\n        /* \"#utility.yul\":7542:7711   */\n      swap3\n      swap2\n      pop\n      pop\n      jump\t// out\n        /* \"#utility.yul\":7716:8011   */\n    tag_57:\n        /* \"#utility.yul\":7792:7796   */\n      0x00\n        /* \"#utility.yul\":7938:7967   */\n      tag_158\n        /* \"#utility.yul\":7963:7966   */\n      dup4\n        /* \"#utility.yul\":7957:7961   */\n      dup4\n        /* \"#utility.yul\":7938:7967   */\n      tag_56\n      jump\t// in\n    tag_158:\n        /* \"#utility.yul\":7930:7967   */\n      swap2\n      pop\n        /* \"#utility.yul\":8000:8003   */\n      dup3\n        /* \"#utility.yul\":7997:7998   */\n      0x02\n        /* \"#utility.yul\":7993:8004   */\n      mul\n        /* \"#utility.yul\":7987:7991   */\n      dup3\n        /* \"#utility.yul\":7984:8005   */\n      or\n        /* \"#utility.yul\":7976:8005   */\n      swap1\n      pop\n        /* \"#utility.yul\":7716:8011   */\n      swap3\n      swap2\n      pop\n      pop\n      jump\t// out\n        /* \"#utility.yul\":8016:9411   */\n    tag_7:\n        /* \"#utility.yul\":8133:8170   */\n      tag_160\n        /* \"#utility.yul\":8166:8169   */\n      dup3\n        /* \"#utility.yul\":8133:8170   */\n      tag_40\n      jump\t// in\n    tag_160:\n        /* \"#utility.yul\":8235:8253   */\n      0xffffffffffffffff\n        /* \"#utility.yul\":8227:8233   */\n      dup2\n        /* \"#utility.yul\":8224:8254   */\n      gt\n        /* \"#utility.yul\":8221:8277   */\n      iszero\n      tag_161\n      jumpi\n        /* \"#utility.yul\":8257:8275   */\n      tag_162\n      tag_27\n      jump\t// in\n    tag_162:\n        /* \"#utility.yul\":8221:8277   */\n    tag_161:\n        /* \"#utility.yul\":8301:8339   */\n      tag_163\n        /* \"#utility.yul\":8333:8337   */\n      dup3\n        /* \"#utility.yul\":8327:8338   */\n      sload\n        /* \"#utility.yul\":8301:8339   */\n      tag_42\n      jump\t// in\n    tag_163:\n        /* \"#utility.yul\":8386:8453   */\n      tag_164\n        /* \"#utility.yul\":8446:8452   */\n      dup3\n        /* \"#utility.yul\":8438:8444   */\n      dup3\n        /* \"#utility.yul\":8432:8436   */\n      dup6\n        /* \"#utility.yul\":8386:8453   */\n      tag_54\n      jump\t// in\n    tag_164:\n        /* \"#utility.yul\":8480:8481   */\n      0x00\n        /* \"#utility.yul\":8504:8508   */\n      0x20\n        /* \"#utility.yul\":8491:8508   */\n      swap1\n      pop\n        /* \"#utility.yul\":8536:8538   */\n      0x1f\n        /* \"#utility.yul\":8528:8534   */\n      dup4\n        /* \"#utility.yul\":8525:8539   */\n      gt\n        /* \"#utility.yul\":8553:8554   */\n      0x01\n        /* \"#utility.yul\":8548:9166   */\n      dup2\n      eq\n      tag_166\n      jumpi\n        /* \"#utility.yul\":9210:9211   */\n      0x00\n        /* \"#utility.yul\":9227:9233   */\n      dup5\n        /* \"#utility.yul\":9224:9301   */\n      iszero\n      tag_167\n      jumpi\n        /* \"#utility.yul\":9276:9285   */\n      dup3\n        /* \"#utility.yul\":9271:9274   */\n      dup8\n        /* \"#utility.yul\":9267:9286   */\n      add\n        /* \"#utility.yul\":9261:9287   */\n      mload\n        /* \"#utility.yul\":9252:9287   */\n      swap1\n      pop\n        /* \"#utility.yul\":9224:9301   */\n    tag_167:\n        /* \"#utility.yul\":9327:9394   */\n      tag_168\n        /* \"#utility.yul\":9387:9393   */\n      dup6\n        /* \"#utility.yul\":9380:9385   */\n      dup3\n        /* \"#utility.yul\":9327:9394   */\n      tag_57\n      jump\t// in\n    tag_168:\n        /* \"#utility.yul\":9321:9325   */\n      dup7\n        /* \"#utility.yul\":9314:9395   */\n      sstore\n        /* \"#utility.yul\":9183:9405   */\n      pop\n        /* \"#utility.yul\":8518:9405   */\n      jump(tag_165)\n        /* \"#utility.yul\":8548:9166   */\n    tag_166:\n        /* \"#utility.yul\":8600:8604   */\n      0x1f\n        /* \"#utility.yul\":8596:8605   */\n      not\n        /* \"#utility.yul\":8588:8594   */\n      dup5\n        /* \"#utility.yul\":8584:8606   */\n      and\n        /* \"#utility.yul\":8634:8671   */\n      tag_169\n        /* \"#utility.yul\":8666:8670   */\n      dup7\n        /* \"#utility.yul\":8634:8671   */\n      tag_43\n      jump\t// in\n    tag_169:\n        /* \"#utility.yul\":8693:8694   */\n      0x00\n        /* \"#utility.yul\":8707:8915   */\n    tag_170:\n        /* \"#utility.yul\":8721:8728   */\n      dup3\n        /* \"#utility.yul\":8718:8719   */\n      dup2\n        /* \"#utility.yul\":8715:8729   */\n      lt\n        /* \"#utility.yul\":8707:8915   */\n      iszero\n      tag_172\n      jumpi\n        /* \"#utility.yul\":8800:8809   */\n      dup5\n        /* \"#utility.yul\":8795:8798   */\n      dup10\n        /* \"#utility.yul\":8791:8810   */\n      add\n        /* \"#utility.yul\":8785:8811   */\n      mload\n        /* \"#utility.yul\":8777:8783   */\n      dup3\n        /* \"#utility.yul\":8770:8812   */\n      sstore\n        /* \"#utility.yul\":8851:8852   */\n      0x01\n        /* \"#utility.yul\":8843:8849   */\n      dup3\n        /* \"#utility.yul\":8839:8853   */\n      add\n        /* \"#utility.yul\":8829:8853   */\n      swap2\n      pop\n        /* \"#utility.yul\":8898:8900   */\n      0x20\n        /* \"#utility.yul\":8887:8896   */\n      dup6\n        /* \"#utility.yul\":8883:8901   */\n      add\n        /* \"#utility.yul\":8870:8901   */\n      swap5\n      pop\n        /* \"#utility.yul\":8744:8748   */\n      0x20\n        /* \"#utility.yul\":8741:8742   */\n      dup2\n        /* \"#utility.yul\":8737:8749   */\n      add\n        /* \"#utility.yul\":8732:8749   */\n      swap1\n      pop\n        /* \"#utility.yul\":8707:8915   */\n      jump(tag_170)\n    tag_172:\n        /* \"#utility.yul\":8943:8949   */\n      dup7\n        /* \"#utility.yul\":8934:8941   */\n      dup4\n        /* \"#utility.yul\":8931:8950   */\n      lt\n        /* \"#utility.yul\":8928:9107   */\n      iszero\n      tag_173\n      jumpi\n        /* \"#utility.yul\":9001:9010   */\n      dup5\n        /* \"#utility.yul\":8996:8999   */\n      dup10\n        /* \"#utility.yul\":8992:9011   */\n      add\n        /* \"#utility.yul\":8986:9012   */\n      mload\n        /* \"#utility.yul\":9044:9092   */\n      tag_174\n        /* \"#utility.yul\":9086:9090   */\n      0x1f\n        /* \"#utility.yul\":9078:9084   */\n      dup10\n        /* \"#utility.yul\":9074:9091   */\n      and\n        /* \"#utility.yul\":9063:9072   */\n      dup3\n        /* \"#utility.yul\":9044:9092   */\n      tag_56\n      jump\t// in\n    tag_174:\n        /* \"#utility.yul\":9036:9042   */\n      dup4\n        /* \"#utility.yul\":9029:9093   */\n      sstore\n        /* \"#utility.yul\":8951:9107   */\n      pop\n        /* \"#utility.yul\":8928:9107   */\n    tag_173:\n        /* \"#utility.yul\":9153:9154   */\n      0x01\n        /* \"#utility.yul\":9149:9150   */\n      0x02\n        /* \"#utility.yul\":9141:9147   */\n      dup9\n        /* \"#utility.yul\":9137:9151   */\n      mul\n        /* \"#utility.yul\":9133:9155   */\n      add\n        /* \"#utility.yul\":9127:9131   */\n      dup9\n        /* \"#utility.yul\":9120:9156   */\n      sstore\n        /* \"#utility.yul\":8555:9166   */\n      pop\n      pop\n      pop\n        /* \"#utility.yul\":8518:9405   */\n    tag_165:\n      pop\n        /* \"#utility.yul\":8108:9411   */\n      pop\n      pop\n      pop\n        /* \"#utility.yul\":8016:9411   */\n      pop\n      pop\n      jump\t// out\n        /* \"#utility.yul\":9417:9586   */\n    tag_58:\n        /* \"#utility.yul\":9501:9512   */\n      0x00\n        /* \"#utility.yul\":9535:9541   */\n      dup3\n        /* \"#utility.yul\":9530:9533   */\n      dup3\n        /* \"#utility.yul\":9523:9542   */\n      mstore\n        /* \"#utility.yul\":9575:9579   */\n      0x20\n        /* \"#utility.yul\":9570:9573   */\n      dup3\n        /* \"#utility.yul\":9566:9580   */\n      add\n        /* \"#utility.yul\":9551:9580   */\n      swap1\n      pop\n        /* \"#utility.yul\":9417:9586   */\n      swap3\n      swap2\n      pop\n      pop\n      jump\t// out\n        /* \"#utility.yul\":9592:9773   */\n    tag_59:\n        /* \"#utility.yul\":9732:9765   */\n      0x45524332303a206d696e7420746f20746865207a65726f206164647265737300\n        /* \"#utility.yul\":9728:9729   */\n      0x00\n        /* \"#utility.yul\":9720:9726   */\n      dup3\n        /* \"#utility.yul\":9716:9730   */\n      add\n        /* \"#utility.yul\":9709:9766   */\n      mstore\n        /* \"#utility.yul\":9592:9773   */\n      pop\n      jump\t// out\n        /* \"#utility.yul\":9779:10145   */\n    tag_60:\n        /* \"#utility.yul\":9921:9924   */\n      0x00\n        /* \"#utility.yul\":9942:10009   */\n      tag_178\n        /* \"#utility.yul\":10006:10008   */\n      0x1f\n        /* \"#utility.yul\":10001:10004   */\n      dup4\n        /* \"#utility.yul\":9942:10009   */\n      tag_58\n      jump\t// in\n    tag_178:\n        /* \"#utility.yul\":9935:10009   */\n      swap2\n      pop\n        /* \"#utility.yul\":10018:10111   */\n      tag_179\n        /* \"#utility.yul\":10107:10110   */\n      dup3\n        /* \"#utility.yul\":10018:10111   */\n      tag_59\n      jump\t// in\n    tag_179:\n        /* \"#utility.yul\":10136:10138   */\n      0x20\n        /* \"#utility.yul\":10131:10134   */\n      dup3\n        /* \"#utility.yul\":10127:10139   */\n      add\n        /* \"#utility.yul\":10120:10139   */\n      swap1\n      pop\n        /* \"#utility.yul\":9779:10145   */\n      swap2\n      swap1\n      pop\n      jump\t// out\n        /* \"#utility.yul\":10151:10570   */\n    tag_15:\n        /* \"#utility.yul\":10317:10321   */\n      0x00\n        /* \"#utility.yul\":10355:10357   */\n      0x20\n        /* \"#utility.yul\":10344:10353   */\n      dup3\n        /* \"#utility.yul\":10340:10358   */\n      add\n        /* \"#utility.yul\":10332:10358   */\n      swap1\n      pop\n        /* \"#utility.yul\":10404:10413   */\n      dup2\n        /* \"#utility.yul\":10398:10402   */\n      dup2\n        /* \"#utility.yul\":10394:10414   */\n      sub\n        /* \"#utility.yul\":10390:10391   */\n      0x00\n        /* \"#utility.yul\":10379:10388   */\n      dup4\n        /* \"#utility.yul\":10375:10392   */\n      add\n        /* \"#utility.yul\":10368:10415   */\n      mstore\n        /* \"#utility.yul\":10432:10563   */\n      tag_181\n        /* \"#utility.yul\":10558:10562   */\n      dup2\n        /* \"#utility.yul\":10432:10563   */\n      tag_60\n      jump\t// in\n    tag_181:\n        /* \"#utility.yul\":10424:10563   */\n      swap1\n      pop\n        /* \"#utility.yul\":10151:10570   */\n      swap2\n      swap1\n      pop\n      jump\t// out\n        /* \"#utility.yul\":10576:10756   */\n    tag_61:\n        /* \"#utility.yul\":10624:10701   */\n      0x4e487b7100000000000000000000000000000000000000000000000000000000\n        /* \"#utility.yul\":10621:10622   */\n      0x00\n        /* \"#utility.yul\":10614:10702   */\n      mstore\n        /* \"#utility.yul\":10721:10725   */\n      0x11\n        /* \"#utility.yul\":10718:10719   */\n      0x04\n        /* \"#utility.yul\":10711:10726   */\n      mstore\n        /* \"#utility.yul\":10745:10749   */\n      0x24\n        /* \"#utility.yul\":10742:10743   */\n      0x00\n        /* \"#utility.yul\":10735:10750   */\n      revert\n        /* \"#utility.yul\":10762:10953   */\n    tag_17:\n        /* \"#utility.yul\":10802:10805   */\n      0x00\n        /* \"#utility.yul\":10821:10841   */\n      tag_184\n        /* \"#utility.yul\":10839:10840   */\n      dup3\n        /* \"#utility.yul\":10821:10841   */\n      tag_37\n      jump\t// in\n    tag_184:\n        /* \"#utility.yul\":10816:10841   */\n      swap2\n      pop\n        /* \"#utility.yul\":10855:10875   */\n      tag_185\n        /* \"#utility.yul\":10873:10874   */\n      dup4\n        /* \"#utility.yul\":10855:10875   */\n      tag_37\n      jump\t// in\n    tag_185:\n        /* \"#utility.yul\":10850:10875   */\n      swap3\n      pop\n        /* \"#utility.yul\":10898:10899   */\n      dup3\n        /* \"#utility.yul\":10895:10896   */\n      dup3\n        /* \"#utility.yul\":10891:10900   */\n      add\n        /* \"#utility.yul\":10884:10900   */\n      swap1\n      pop\n        /* \"#utility.yul\":10919:10922   */\n      dup1\n        /* \"#utility.yul\":10916:10917   */\n      dup3\n        /* \"#utility.yul\":10913:10923   */\n      gt\n        /* \"#utility.yul\":10910:10946   */\n      iszero\n      tag_186\n      jumpi\n        /* \"#utility.yul\":10926:10944   */\n      tag_187\n      tag_61\n      jump\t// in\n    tag_187:\n        /* \"#utility.yul\":10910:10946   */\n    tag_186:\n        /* \"#utility.yul\":10762:10953   */\n      swap3\n      swap2\n      pop\n      pop\n      jump\t// out\n        /* \"#utility.yul\":10959:11077   */\n    tag_62:\n        /* \"#utility.yul\":11046:11070   */\n      tag_189\n        /* \"#utility.yul\":11064:11069   */\n      dup2\n        /* \"#utility.yul\":11046:11070   */\n      tag_37\n      jump\t// in\n    tag_189:\n        /* \"#utility.yul\":11041:11044   */\n      dup3\n        /* \"#utility.yul\":11034:11071   */\n      mstore\n        /* \"#utility.yul\":10959:11077   */\n      pop\n      pop\n      jump\t// out\n        /* \"#utility.yul\":11083:11305   */\n    tag_20:\n        /* \"#utility.yul\":11176:11180   */\n      0x00\n        /* \"#utility.yul\":11214:11216   */\n      0x20\n        /* \"#utility.yul\":11203:11212   */\n      dup3\n        /* \"#utility.yul\":11199:11217   */\n      add\n        /* \"#utility.yul\":11191:11217   */\n      swap1\n      pop\n        /* \"#utility.yul\":11227:11298   */\n      tag_191\n        /* \"#utility.yul\":11295:11296   */\n      0x00\n        /* \"#utility.yul\":11284:11293   */\n      dup4\n        /* \"#utility.yul\":11280:11297   */\n      add\n        /* \"#utility.yul\":11271:11277   */\n      dup5\n        /* \"#utility.yul\":11227:11298   */\n      tag_62\n      jump\t// in\n    tag_191:\n        /* \"#utility.yul\":11083:11305   */\n      swap3\n      swap2\n      pop\n      pop\n      jump\t// out\n        /* \"erc20.sol\":120:4034  contract ERC20Simple {... */\n    tag_11:\n      dataSize(sub_0)\n      dup1\n      dataOffset(sub_0)\n      0x00\n      codecopy\n      0x00\n      return\n    stop\n\n    sub_0: assembly {\n            /* \"erc20.sol\":120:4034  contract ERC20Simple {... */\n          mstore(0x40, 0x80)\n          callvalue\n          dup1\n          iszero\n          tag_1\n          jumpi\n          revert(0x00, 0x00)\n        tag_1:\n          pop\n          jumpi(tag_2, lt(calldatasize, 0x04))\n          shr(0xe0, calldataload(0x00))\n          dup1\n          0x40c10f19\n          gt\n          tag_14\n          jumpi\n          dup1\n          0x40c10f19\n          eq\n          tag_8\n          jumpi\n          dup1\n          0x70a08231\n          eq\n          tag_9\n          jumpi\n          dup1\n          0x95d89b41\n          eq\n          tag_10\n          jumpi\n          dup1\n          0x9dc29fac\n          eq\n          tag_11\n          jumpi\n          dup1\n          0xa9059cbb\n          eq\n          tag_12\n          jumpi\n          dup1\n          0xdd62ed3e\n          eq\n          tag_13\n          jumpi\n          jump(tag_2)\n        tag_14:\n          dup1\n          0x06fdde03\n          eq\n          tag_3\n          jumpi\n          dup1\n          0x095ea7b3\n          eq\n          tag_4\n          jumpi\n          dup1\n          0x18160ddd\n          eq\n          tag_5\n          jumpi\n          dup1\n          0x23b872dd\n          eq\n          tag_6\n          jumpi\n          dup1\n          0x313ce567\n          eq\n          tag_7\n          jumpi\n        tag_2:\n          revert(0x00, 0x00)\n            /* \"erc20.sol\":1008:1093  function name() external view returns (string memory) {... */\n        tag_3:\n          tag_15\n          tag_16\n          jump\t// in\n        tag_15:\n          mload(0x40)\n          tag_17\n          swap2\n          swap1\n          tag_18\n          jump\t// in\n        tag_17:\n          mload(0x40)\n          dup1\n          swap2\n          sub\n          swap1\n          return\n            /* \"erc20.sol\":1845:2135  function approve(address spender, uint256 amount) external returns (bool) {... */\n        tag_4:\n          tag_19\n          0x04\n          dup1\n          calldatasize\n          sub\n          dup2\n          add\n          swap1\n          tag_20\n          swap2\n          swap1\n          tag_21\n          jump\t// in\n        tag_20:\n          tag_22\n          jump\t// in\n        tag_19:\n          mload(0x40)\n          tag_23\n          swap2\n          swap1\n          tag_24\n          jump\t// in\n        tag_23:\n          mload(0x40)\n          dup1\n          swap2\n          sub\n          swap1\n          return\n            /* \"erc20.sol\":1332:1425  function totalSupply() external view returns (uint256) {... */\n        tag_5:\n          tag_25\n          tag_26\n          jump\t// in\n        tag_25:\n          mload(0x40)\n          tag_27\n          swap2\n          swap1\n          tag_28\n          jump\t// in\n        tag_27:\n          mload(0x40)\n          dup1\n          swap2\n          sub\n          swap1\n          return\n            /* \"erc20.sol\":2143:2621  function transferFrom(address from, address to, uint256 amount) external returns (bool) {... */\n        tag_6:\n          tag_29\n          0x04\n          dup1\n          calldatasize\n          sub\n          dup2\n          add\n          swap1\n          tag_30\n          swap2\n          swap1\n          tag_31\n          jump\t// in\n        tag_30:\n          tag_32\n          jump\t// in\n        tag_29:\n          mload(0x40)\n          tag_33\n          swap2\n          swap1\n          tag_24\n          jump\t// in\n        tag_33:\n          mload(0x40)\n          dup1\n          swap2\n          sub\n          swap1\n          return\n            /* \"erc20.sol\":1198:1283  function decimals() external view returns (uint8) {... */\n        tag_7:\n          tag_34\n          tag_35\n          jump\t// in\n        tag_34:\n          mload(0x40)\n          tag_36\n          swap2\n          swap1\n          tag_37\n          jump\t// in\n        tag_36:\n          mload(0x40)\n          dup1\n          swap2\n          sub\n          swap1\n          return\n            /* \"erc20.sol\":3845:3932  function mint(address to, uint256 amount) external {... */\n        tag_8:\n          tag_38\n          0x04\n          dup1\n          calldatasize\n          sub\n          dup2\n          add\n          swap1\n          tag_39\n          swap2\n          swap1\n          tag_21\n          jump\t// in\n        tag_39:\n          tag_40\n          jump\t// in\n        tag_38:\n          stop\n            /* \"erc20.sol\":1433:1541  function balanceOf(address owner) external view returns (uint256) {... */\n        tag_9:\n          tag_41\n          0x04\n          dup1\n          calldatasize\n          sub\n          dup2\n          add\n          swap1\n          tag_42\n          swap2\n          swap1\n          tag_43\n          jump\t// in\n        tag_42:\n          tag_44\n          jump\t// in\n        tag_41:\n          mload(0x40)\n          tag_45\n          swap2\n          swap1\n          tag_28\n          jump\t// in\n        tag_45:\n          mload(0x40)\n          dup1\n          swap2\n          sub\n          swap1\n          return\n            /* \"erc20.sol\":1101:1190  function symbol() external view returns (string memory) {... */\n        tag_10:\n          tag_46\n          tag_47\n          jump\t// in\n        tag_46:\n          mload(0x40)\n          tag_48\n          swap2\n          swap1\n          tag_18\n          jump\t// in\n        tag_48:\n          mload(0x40)\n          dup1\n          swap2\n          sub\n          swap1\n          return\n            /* \"erc20.sol\":3940:4031  function burn(address from, uint256 amount) external {... */\n        tag_11:\n          tag_49\n          0x04\n          dup1\n          calldatasize\n          sub\n          dup2\n          add\n          swap1\n          tag_50\n          swap2\n          swap1\n          tag_21\n          jump\t// in\n        tag_50:\n          tag_51\n          jump\t// in\n        tag_49:\n          stop\n            /* \"erc20.sol\":1693:1837  function transfer(address to, uint256 amount) external returns (bool) {... */\n        tag_12:\n          tag_52\n          0x04\n          dup1\n          calldatasize\n          sub\n          dup2\n          add\n          swap1\n          tag_53\n          swap2\n          swap1\n          tag_21\n          jump\t// in\n        tag_53:\n          tag_54\n          jump\t// in\n        tag_52:\n          mload(0x40)\n          tag_55\n          swap2\n          swap1\n          tag_24\n          jump\t// in\n        tag_55:\n          mload(0x40)\n          dup1\n          swap2\n          sub\n          swap1\n          return\n            /* \"erc20.sol\":1549:1685  function allowance(address owner, address spender) external view returns (uint256) {... */\n        tag_13:\n          tag_56\n          0x04\n          dup1\n          calldatasize\n          sub\n          dup2\n          add\n          swap1\n          tag_57\n          swap2\n          swap1\n          tag_58\n          jump\t// in\n        tag_57:\n          tag_59\n          jump\t// in\n        tag_56:\n          mload(0x40)\n          tag_60\n          swap2\n          swap1\n          tag_28\n          jump\t// in\n        tag_60:\n          mload(0x40)\n          dup1\n          swap2\n          sub\n          swap1\n          return\n            /* \"erc20.sol\":1008:1093  function name() external view returns (string memory) {... */\n        tag_16:\n            /* \"erc20.sol\":1047:1060  string memory */\n          0x60\n            /* \"erc20.sol\":1080:1085  _name */\n          0x00\n            /* \"erc20.sol\":1073:1085  return _name */\n          dup1\n          sload\n          tag_62\n          swap1\n          tag_63\n          jump\t// in\n        tag_62:\n          dup1\n          0x1f\n          add\n          0x20\n          dup1\n          swap2\n          div\n          mul\n          0x20\n          add\n          mload(0x40)\n          swap1\n          dup2\n          add\n          0x40\n          mstore\n          dup1\n          swap3\n          swap2\n          swap1\n          dup2\n          dup2\n          mstore\n          0x20\n          add\n          dup3\n          dup1\n          sload\n          tag_64\n          swap1\n          tag_63\n          jump\t// in\n        tag_64:\n          dup1\n          iszero\n          tag_65\n          jumpi\n          dup1\n          0x1f\n          lt\n          tag_66\n          jumpi\n          0x0100\n          dup1\n          dup4\n          sload\n          div\n          mul\n          dup4\n          mstore\n          swap2\n          0x20\n          add\n          swap2\n          jump(tag_65)\n        tag_66:\n          dup3\n          add\n          swap2\n          swap1\n          0x00\n          mstore\n          keccak256(0x00, 0x20)\n          swap1\n        tag_67:\n          dup2\n          sload\n          dup2\n          mstore\n          swap1\n          0x01\n          add\n          swap1\n          0x20\n          add\n          dup1\n          dup4\n          gt\n          tag_67\n          jumpi\n          dup3\n          swap1\n          sub\n          0x1f\n          and\n          dup3\n          add\n          swap2\n        tag_65:\n          pop\n          pop\n          pop\n          pop\n          pop\n          swap1\n          pop\n            /* \"erc20.sol\":1008:1093  function name() external view returns (string memory) {... */\n          swap1\n          jump\t// out\n            /* \"erc20.sol\":1845:2135  function approve(address spender, uint256 amount) external returns (bool) {... */\n        tag_22:\n            /* \"erc20.sol\":1913:1917  bool */\n          0x00\n            /* \"erc20.sol\":1957:1958  0 */\n          0x00\n            /* \"erc20.sol\":1938:1959  spender != address(0) */\n          0xffffffffffffffffffffffffffffffffffffffff\n          and\n            /* \"erc20.sol\":1938:1945  spender */\n          dup4\n            /* \"erc20.sol\":1938:1959  spender != address(0) */\n          0xffffffffffffffffffffffffffffffffffffffff\n          and\n          sub\n            /* \"erc20.sol\":1930:1998  require(spender != address(0), \"ERC20: approve to the zero address\") */\n          tag_69\n          jumpi\n          mload(0x40)\n          0x08c379a000000000000000000000000000000000000000000000000000000000\n          dup2\n          mstore\n          0x04\n          add\n          tag_70\n          swap1\n          tag_71\n          jump\t// in\n        tag_70:\n          mload(0x40)\n          dup1\n          swap2\n          sub\n          swap1\n          revert\n        tag_69:\n            /* \"erc20.sol\":2046:2052  amount */\n          dup2\n            /* \"erc20.sol\":2011:2022  _allowances */\n          0x05\n            /* \"erc20.sol\":2011:2034  _allowances[msg.sender] */\n          0x00\n            /* \"erc20.sol\":2023:2033  msg.sender */\n          caller\n            /* \"erc20.sol\":2011:2034  _allowances[msg.sender] */\n          0xffffffffffffffffffffffffffffffffffffffff\n          and\n          0xffffffffffffffffffffffffffffffffffffffff\n          and\n          dup2\n          mstore\n          0x20\n          add\n          swap1\n          dup2\n          mstore\n          0x20\n          add\n          0x00\n          keccak256\n            /* \"erc20.sol\":2011:2043  _allowances[msg.sender][spender] */\n          0x00\n            /* \"erc20.sol\":2035:2042  spender */\n          dup6\n            /* \"erc20.sol\":2011:2043  _allowances[msg.sender][spender] */\n          0xffffffffffffffffffffffffffffffffffffffff\n          and\n          0xffffffffffffffffffffffffffffffffffffffff\n          and\n          dup2\n          mstore\n          0x20\n          add\n          swap1\n          dup2\n          mstore\n          0x20\n          add\n          0x00\n          keccak256\n            /* \"erc20.sol\":2011:2052  _allowances[msg.sender][spender] = amount */\n          dup2\n          swap1\n          sstore\n          pop\n            /* \"erc20.sol\":2089:2096  spender */\n          dup3\n            /* \"erc20.sol\":2068:2105  Approval(msg.sender, spender, amount) */\n          0xffffffffffffffffffffffffffffffffffffffff\n          and\n            /* \"erc20.sol\":2077:2087  msg.sender */\n          caller\n            /* \"erc20.sol\":2068:2105  Approval(msg.sender, spender, amount) */\n          0xffffffffffffffffffffffffffffffffffffffff\n          and\n          0x8c5be1e5ebec7d5bd14f71427d1e84f3dd0314c0f7b2291e5b200ac8c7c3b925\n            /* \"erc20.sol\":2098:2104  amount */\n          dup5\n            /* \"erc20.sol\":2068:2105  Approval(msg.sender, spender, amount) */\n          mload(0x40)\n          tag_72\n          swap2\n          swap1\n          tag_28\n          jump\t// in\n        tag_72:\n          mload(0x40)\n          dup1\n          swap2\n          sub\n          swap1\n          log3\n            /* \"erc20.sol\":2123:2127  true */\n          0x01\n            /* \"erc20.sol\":2116:2127  return true */\n          swap1\n          pop\n            /* \"erc20.sol\":1845:2135  function approve(address spender, uint256 amount) external returns (bool) {... */\n          swap3\n          swap2\n          pop\n          pop\n          jump\t// out\n            /* \"erc20.sol\":1332:1425  function totalSupply() external view returns (uint256) {... */\n        tag_26:\n            /* \"erc20.sol\":1378:1385  uint256 */\n          0x00\n            /* \"erc20.sol\":1405:1417  _totalSupply */\n          sload(0x03)\n            /* \"erc20.sol\":1398:1417  return _totalSupply */\n          swap1\n          pop\n            /* \"erc20.sol\":1332:1425  function totalSupply() external view returns (uint256) {... */\n          swap1\n          jump\t// out\n            /* \"erc20.sol\":2143:2621  function transferFrom(address from, address to, uint256 amount) external returns (bool) {... */\n        tag_32:\n            /* \"erc20.sol\":2225:2229  bool */\n          0x00\n            /* \"erc20.sol\":2242:2266  uint256 currentAllowance */\n          0x00\n            /* \"erc20.sol\":2269:2280  _allowances */\n          0x05\n            /* \"erc20.sol\":2269:2286  _allowances[from] */\n          0x00\n            /* \"erc20.sol\":2281:2285  from */\n          dup7\n            /* \"erc20.sol\":2269:2286  _allowances[from] */\n          0xffffffffffffffffffffffffffffffffffffffff\n          and\n          0xffffffffffffffffffffffffffffffffffffffff\n          and\n          dup2\n          mstore\n          0x20\n          add\n          swap1\n          dup2\n          mstore\n          0x20\n          add\n          0x00\n          keccak256\n            /* \"erc20.sol\":2269:2298  _allowances[from][msg.sender] */\n          0x00\n            /* \"erc20.sol\":2287:2297  msg.sender */\n          caller\n            /* \"erc20.sol\":2269:2298  _allowances[from][msg.sender] */\n          0xffffffffffffffffffffffffffffffffffffffff\n          and\n          0xffffffffffffffffffffffffffffffffffffffff\n          and\n          dup2\n          mstore\n          0x20\n          add\n          swap1\n          dup2\n          mstore\n          0x20\n          add\n          0x00\n          keccak256\n          sload\n            /* \"erc20.sol\":2242:2298  uint256 currentAllowance = _allowances[from][msg.sender] */\n          swap1\n          pop\n            /* \"erc20.sol\":2337:2343  amount */\n          dup3\n            /* \"erc20.sol\":2317:2333  currentAllowance */\n          dup2\n            /* \"erc20.sol\":2317:2343  currentAllowance >= amount */\n          lt\n          iszero\n            /* \"erc20.sol\":2309:2377  require(currentAllowance >= amount, \"ERC20: insufficient allowance\") */\n          tag_75\n          jumpi\n          mload(0x40)\n          0x08c379a000000000000000000000000000000000000000000000000000000000\n          dup2\n          mstore\n          0x04\n          add\n          tag_76\n          swap1\n          tag_77\n          jump\t// in\n        tag_76:\n          mload(0x40)\n          dup1\n          swap2\n          sub\n          swap1\n          revert\n        tag_75:\n            /* \"erc20.sol\":2472:2478  amount */\n          dup3\n            /* \"erc20.sol\":2453:2469  currentAllowance */\n          dup2\n            /* \"erc20.sol\":2453:2478  currentAllowance - amount */\n          tag_78\n          swap2\n          swap1\n          tag_79\n          jump\t// in\n        tag_78:\n            /* \"erc20.sol\":2421:2432  _allowances */\n          0x05\n            /* \"erc20.sol\":2421:2438  _allowances[from] */\n          0x00\n            /* \"erc20.sol\":2433:2437  from */\n          dup8\n            /* \"erc20.sol\":2421:2438  _allowances[from] */\n          0xffffffffffffffffffffffffffffffffffffffff\n          and\n          0xffffffffffffffffffffffffffffffffffffffff\n          and\n          dup2\n          mstore\n          0x20\n          add\n          swap1\n          dup2\n          mstore\n          0x20\n          add\n          0x00\n          keccak256\n            /* \"erc20.sol\":2421:2450  _allowances[from][msg.sender] */\n          0x00\n            /* \"erc20.sol\":2439:2449  msg.sender */\n          caller\n            /* \"erc20.sol\":2421:2450  _allowances[from][msg.sender] */\n          0xffffffffffffffffffffffffffffffffffffffff\n          and\n          0xffffffffffffffffffffffffffffffffffffffff\n          and\n          dup2\n          mstore\n          0x20\n          add\n          swap1\n          dup2\n          mstore\n          0x20\n          add\n          0x00\n          keccak256\n            /* \"erc20.sol\":2421:2478  _allowances[from][msg.sender] = currentAllowance - amount */\n          dup2\n          swap1\n          sstore\n          pop\n            /* \"erc20.sol\":2509:2519  msg.sender */\n          caller\n            /* \"erc20.sol\":2494:2551  Approval(from, msg.sender, _allowances[from][msg.sender]) */\n          0xffffffffffffffffffffffffffffffffffffffff\n          and\n            /* \"erc20.sol\":2503:2507  from */\n          dup6\n            /* \"erc20.sol\":2494:2551  Approval(from, msg.sender, _allowances[from][msg.sender]) */\n          0xffffffffffffffffffffffffffffffffffffffff\n          and\n          0x8c5be1e5ebec7d5bd14f71427d1e84f3dd0314c0f7b2291e5b200ac8c7c3b925\n            /* \"erc20.sol\":2521:2532  _allowances */\n          0x05\n            /* \"erc20.sol\":2521:2538  _allowances[from] */\n          0x00\n            /* \"erc20.sol\":2533:2537  from */\n          dup10\n            /* \"erc20.sol\":2521:2538  _allowances[from] */\n          0xffffffffffffffffffffffffffffffffffffffff\n          and\n          0xffffffffffffffffffffffffffffffffffffffff\n          and\n          dup2\n          mstore\n          0x20\n          add\n          swap1\n          dup2\n          mstore\n          0x20\n          add\n          0x00\n          keccak256\n            /* \"erc20.sol\":2521:2550  _allowances[from][msg.sender] */\n          0x00\n            /* \"erc20.sol\":2539:2549  msg.sender */\n          caller\n            /* \"erc20.sol\":2521:2550  _allowances[from][msg.sender] */\n          0xffffffffffffffffffffffffffffffffffffffff\n          and\n          0xffffffffffffffffffffffffffffffffffffffff\n          and\n          dup2\n          mstore\n          0x20\n          add\n          swap1\n          dup2\n          mstore\n          0x20\n          add\n          0x00\n          keccak256\n          sload\n            /* \"erc20.sol\":2494:2551  Approval(from, msg.sender, _allowances[from][msg.sender]) */\n          mload(0x40)\n          tag_80\n          swap2\n          swap1\n          tag_28\n          jump\t// in\n        tag_80:\n          mload(0x40)\n          dup1\n          swap2\n          sub\n          swap1\n          log3\n            /* \"erc20.sol\":2564:2591  _transfer(from, to, amount) */\n          tag_81\n            /* \"erc20.sol\":2574:2578  from */\n          dup6\n            /* \"erc20.sol\":2580:2582  to */\n          dup6\n            /* \"erc20.sol\":2584:2590  amount */\n          dup6\n            /* \"erc20.sol\":2564:2573  _transfer */\n          tag_82\n            /* \"erc20.sol\":2564:2591  _transfer(from, to, amount) */\n          jump\t// in\n        tag_81:\n            /* \"erc20.sol\":2609:2613  true */\n          0x01\n            /* \"erc20.sol\":2602:2613  return true */\n          swap2\n          pop\n          pop\n            /* \"erc20.sol\":2143:2621  function transferFrom(address from, address to, uint256 amount) external returns (bool) {... */\n          swap4\n          swap3\n          pop\n          pop\n          pop\n          jump\t// out\n            /* \"erc20.sol\":1198:1283  function decimals() external view returns (uint8) {... */\n        tag_35:\n            /* \"erc20.sol\":1241:1246  uint8 */\n          0x00\n            /* \"erc20.sol\":1266:1275  _decimals */\n          0x02\n          0x00\n          swap1\n          sload\n          swap1\n          0x0100\n          exp\n          swap1\n          div\n          0xff\n          and\n            /* \"erc20.sol\":1259:1275  return _decimals */\n          swap1\n          pop\n            /* \"erc20.sol\":1198:1283  function decimals() external view returns (uint8) {... */\n          swap1\n          jump\t// out\n            /* \"erc20.sol\":3845:3932  function mint(address to, uint256 amount) external {... */\n        tag_40:\n            /* \"erc20.sol\":3907:3924  _mint(to, amount) */\n          tag_85\n            /* \"erc20.sol\":3913:3915  to */\n          dup3\n            /* \"erc20.sol\":3917:3923  amount */\n          dup3\n            /* \"erc20.sol\":3907:3912  _mint */\n          tag_86\n            /* \"erc20.sol\":3907:3924  _mint(to, amount) */\n          jump\t// in\n        tag_85:\n            /* \"erc20.sol\":3845:3932  function mint(address to, uint256 amount) external {... */\n          pop\n          pop\n          jump\t// out\n            /* \"erc20.sol\":1433:1541  function balanceOf(address owner) external view returns (uint256) {... */\n        tag_44:\n            /* \"erc20.sol\":1490:1497  uint256 */\n          0x00\n            /* \"erc20.sol\":1517:1526  _balances */\n          0x04\n            /* \"erc20.sol\":1517:1533  _balances[owner] */\n          0x00\n            /* \"erc20.sol\":1527:1532  owner */\n          dup4\n            /* \"erc20.sol\":1517:1533  _balances[owner] */\n          0xffffffffffffffffffffffffffffffffffffffff\n          and\n          0xffffffffffffffffffffffffffffffffffffffff\n          and\n          dup2\n          mstore\n          0x20\n          add\n          swap1\n          dup2\n          mstore\n          0x20\n          add\n          0x00\n          keccak256\n          sload\n            /* \"erc20.sol\":1510:1533  return _balances[owner] */\n          swap1\n          pop\n            /* \"erc20.sol\":1433:1541  function balanceOf(address owner) external view returns (uint256) {... */\n          swap2\n          swap1\n          pop\n          jump\t// out\n            /* \"erc20.sol\":1101:1190  function symbol() external view returns (string memory) {... */\n        tag_47:\n            /* \"erc20.sol\":1142:1155  string memory */\n          0x60\n            /* \"erc20.sol\":1175:1182  _symbol */\n          0x01\n            /* \"erc20.sol\":1168:1182  return _symbol */\n          dup1\n          sload\n          tag_89\n          swap1\n          tag_63\n          jump\t// in\n        tag_89:\n          dup1\n          0x1f\n          add\n          0x20\n          dup1\n          swap2\n          div\n          mul\n          0x20\n          add\n          mload(0x40)\n          swap1\n          dup2\n          add\n          0x40\n          mstore\n          dup1\n          swap3\n          swap2\n          swap1\n          dup2\n          dup2\n          mstore\n          0x20\n          add\n          dup3\n          dup1\n          sload\n          tag_90\n          swap1\n          tag_63\n          jump\t// in\n        tag_90:\n          dup1\n          iszero\n          tag_91\n          jumpi\n          dup1\n          0x1f\n          lt\n          tag_92\n          jumpi\n          0x0100\n          dup1\n          dup4\n          sload\n          div\n          mul\n          dup4\n          mstore\n          swap2\n          0x20\n          add\n          swap2\n          jump(tag_91)\n        tag_92:\n          dup3\n          add\n          swap2\n          swap1\n          0x00\n          mstore\n          keccak256(0x00, 0x20)\n          swap1\n        tag_93:\n          dup2\n          sload\n          dup2\n          mstore\n          swap1\n          0x01\n          add\n          swap1\n          0x20\n          add\n          dup1\n          dup4\n          gt\n          tag_93\n          jumpi\n          dup3\n          swap1\n          sub\n          0x1f\n          and\n          dup3\n          add\n          swap2\n        tag_91:\n          pop\n          pop\n          pop\n          pop\n          pop\n          swap1\n          pop\n            /* \"erc20.sol\":1101:1190  function symbol() external view returns (string memory) {... */\n          swap1\n          jump\t// out\n            /* \"erc20.sol\":3940:4031  function burn(address from, uint256 amount) external {... */\n        tag_51:\n            /* \"erc20.sol\":4004:4023  _burn(from, amount) */\n          tag_95\n            /* \"erc20.sol\":4010:4014  from */\n          dup3\n            /* \"erc20.sol\":4016:4022  amount */\n          dup3\n            /* \"erc20.sol\":4004:4009  _burn */\n          tag_96\n            /* \"erc20.sol\":4004:4023  _burn(from, amount) */\n          jump\t// in\n        tag_95:\n            /* \"erc20.sol\":3940:4031  function burn(address from, uint256 amount) external {... */\n          pop\n          pop\n          jump\t// out\n            /* \"erc20.sol\":1693:1837  function transfer(address to, uint256 amount) external returns (bool) {... */\n        tag_54:\n            /* \"erc20.sol\":1757:1761  bool */\n          0x00\n            /* \"erc20.sol\":1774:1807  _transfer(msg.sender, to, amount) */\n          tag_98\n            /* \"erc20.sol\":1784:1794  msg.sender */\n          caller\n            /* \"erc20.sol\":1796:1798  to */\n          dup5\n            /* \"erc20.sol\":1800:1806  amount */\n          dup5\n            /* \"erc20.sol\":1774:1783  _transfer */\n          tag_82\n            /* \"erc20.sol\":1774:1807  _transfer(msg.sender, to, amount) */\n          jump\t// in\n        tag_98:\n            /* \"erc20.sol\":1825:1829  true */\n          0x01\n            /* \"erc20.sol\":1818:1829  return true */\n          swap1\n          pop\n            /* \"erc20.sol\":1693:1837  function transfer(address to, uint256 amount) external returns (bool) {... */\n          swap3\n          swap2\n          pop\n          pop\n          jump\t// out\n            /* \"erc20.sol\":1549:1685  function allowance(address owner, address spender) external view returns (uint256) {... */\n        tag_59:\n            /* \"erc20.sol\":1623:1630  uint256 */\n          0x00\n            /* \"erc20.sol\":1650:1661  _allowances */\n          0x05\n            /* \"erc20.sol\":1650:1668  _allowances[owner] */\n          0x00\n            /* \"erc20.sol\":1662:1667  owner */\n          dup5\n            /* \"erc20.sol\":1650:1668  _allowances[owner] */\n          0xffffffffffffffffffffffffffffffffffffffff\n          and\n          0xffffffffffffffffffffffffffffffffffffffff\n          and\n          dup2\n          mstore\n          0x20\n          add\n          swap1\n          dup2\n          mstore\n          0x20\n          add\n          0x00\n          keccak256\n            /* \"erc20.sol\":1650:1677  _allowances[owner][spender] */\n          0x00\n            /* \"erc20.sol\":1669:1676  spender */\n          dup4\n            /* \"erc20.sol\":1650:1677  _allowances[owner][spender] */\n          0xffffffffffffffffffffffffffffffffffffffff\n          and\n          0xffffffffffffffffffffffffffffffffffffffff\n          and\n          dup2\n          mstore\n          0x20\n          add\n          swap1\n          dup2\n          mstore\n          0x20\n          add\n          0x00\n          keccak256\n          sload\n            /* \"erc20.sol\":1643:1677  return _allowances[owner][spender] */\n          swap1\n          pop\n            /* \"erc20.sol\":1549:1685  function allowance(address owner, address spender) external view returns (uint256) {... */\n          swap3\n          swap2\n          pop\n          pop\n          jump\t// out\n            /* \"erc20.sol\":2670:3164  function _transfer(address from, address to, uint256 amount) internal {... */\n        tag_82:\n            /* \"erc20.sol\":2775:2776  0 */\n          0x00\n            /* \"erc20.sol\":2759:2777  from != address(0) */\n          0xffffffffffffffffffffffffffffffffffffffff\n          and\n            /* \"erc20.sol\":2759:2763  from */\n          dup4\n            /* \"erc20.sol\":2759:2777  from != address(0) */\n          0xffffffffffffffffffffffffffffffffffffffff\n          and\n          sub\n            /* \"erc20.sol\":2751:2819  require(from != address(0), \"ERC20: transfer from the zero address\") */\n          tag_101\n          jumpi\n          mload(0x40)\n          0x08c379a000000000000000000000000000000000000000000000000000000000\n          dup2\n          mstore\n          0x04\n          add\n          tag_102\n          swap1\n          tag_103\n          jump\t// in\n        tag_102:\n          mload(0x40)\n          dup1\n          swap2\n          sub\n          swap1\n          revert\n        tag_101:\n            /* \"erc20.sol\":2852:2853  0 */\n          0x00\n            /* \"erc20.sol\":2838:2854  to != address(0) */\n          0xffffffffffffffffffffffffffffffffffffffff\n          and\n            /* \"erc20.sol\":2838:2840  to */\n          dup3\n            /* \"erc20.sol\":2838:2854  to != address(0) */\n          0xffffffffffffffffffffffffffffffffffffffff\n          and\n          sub\n            /* \"erc20.sol\":2830:2894  require(to != address(0), \"ERC20: transfer to the zero address\") */\n          tag_104\n          jumpi\n          mload(0x40)\n          0x08c379a000000000000000000000000000000000000000000000000000000000\n          dup2\n          mstore\n          0x04\n          add\n          tag_105\n          swap1\n          tag_106\n          jump\t// in\n        tag_105:\n          mload(0x40)\n          dup1\n          swap2\n          sub\n          swap1\n          revert\n        tag_104:\n            /* \"erc20.sol\":2907:2926  uint256 fromBalance */\n          0x00\n            /* \"erc20.sol\":2929:2938  _balances */\n          0x04\n            /* \"erc20.sol\":2929:2944  _balances[from] */\n          0x00\n            /* \"erc20.sol\":2939:2943  from */\n          dup6\n            /* \"erc20.sol\":2929:2944  _balances[from] */\n          0xffffffffffffffffffffffffffffffffffffffff\n          and\n          0xffffffffffffffffffffffffffffffffffffffff\n          and\n          dup2\n          mstore\n          0x20\n          add\n          swap1\n          dup2\n          mstore\n          0x20\n          add\n          0x00\n          keccak256\n          sload\n            /* \"erc20.sol\":2907:2944  uint256 fromBalance = _balances[from] */\n          swap1\n          pop\n            /* \"erc20.sol\":2978:2984  amount */\n          dup2\n            /* \"erc20.sol\":2963:2974  fromBalance */\n          dup2\n            /* \"erc20.sol\":2963:2984  fromBalance >= amount */\n          lt\n          iszero\n            /* \"erc20.sol\":2955:3027  require(fromBalance >= amount, \"ERC20: transfer amount exceeds balance\") */\n          tag_107\n          jumpi\n          mload(0x40)\n          0x08c379a000000000000000000000000000000000000000000000000000000000\n          dup2\n          mstore\n          0x04\n          add\n          tag_108\n          swap1\n          tag_109\n          jump\t// in\n        tag_108:\n          mload(0x40)\n          dup1\n          swap2\n          sub\n          swap1\n          revert\n        tag_107:\n            /* \"erc20.sol\":3072:3078  amount */\n          dup2\n            /* \"erc20.sol\":3058:3069  fromBalance */\n          dup2\n            /* \"erc20.sol\":3058:3078  fromBalance - amount */\n          tag_110\n          swap2\n          swap1\n          tag_79\n          jump\t// in\n        tag_110:\n            /* \"erc20.sol\":3040:3049  _balances */\n          0x04\n            /* \"erc20.sol\":3040:3055  _balances[from] */\n          0x00\n            /* \"erc20.sol\":3050:3054  from */\n          dup7\n            /* \"erc20.sol\":3040:3055  _balances[from] */\n          0xffffffffffffffffffffffffffffffffffffffff\n          and\n          0xffffffffffffffffffffffffffffffffffffffff\n          and\n          dup2\n          mstore\n          0x20\n          add\n          swap1\n          dup2\n          mstore\n          0x20\n          add\n          0x00\n          keccak256\n            /* \"erc20.sol\":3040:3078  _balances[from] = fromBalance - amount */\n          dup2\n          swap1\n          sstore\n          pop\n            /* \"erc20.sol\":3106:3112  amount */\n          dup2\n            /* \"erc20.sol\":3089:3098  _balances */\n          0x04\n            /* \"erc20.sol\":3089:3102  _balances[to] */\n          0x00\n            /* \"erc20.sol\":3099:3101  to */\n          dup6\n            /* \"erc20.sol\":3089:3102  _balances[to] */\n          0xffffffffffffffffffffffffffffffffffffffff\n          and\n          0xffffffffffffffffffffffffffffffffffffffff\n          and\n          dup2\n          mstore\n          0x20\n          add\n          swap1\n          dup2\n          mstore\n          0x20\n          add\n          0x00\n          keccak256\n          0x00\n            /* \"erc20.sol\":3089:3112  _balances[to] += amount */\n          dup3\n          dup3\n          sload\n          tag_111\n          swap2\n          swap1\n          tag_112\n          jump\t// in\n        tag_111:\n          swap3\n          pop\n          pop\n          dup2\n          swap1\n          sstore\n          pop\n            /* \"erc20.sol\":3145:3147  to */\n          dup3\n            /* \"erc20.sol\":3130:3156  Transfer(from, to, amount) */\n          0xffffffffffffffffffffffffffffffffffffffff\n          and\n            /* \"erc20.sol\":3139:3143  from */\n          dup5\n            /* \"erc20.sol\":3130:3156  Transfer(from, to, amount) */\n          0xffffffffffffffffffffffffffffffffffffffff\n          and\n          0xddf252ad1be2c89b69c2b068fc378daa952ba7f163c4a11628f55a4df523b3ef\n            /* \"erc20.sol\":3149:3155  amount */\n          dup5\n            /* \"erc20.sol\":3130:3156  Transfer(from, to, amount) */\n          mload(0x40)\n          tag_113\n          swap2\n          swap1\n          tag_28\n          jump\t// in\n        tag_113:\n          mload(0x40)\n          dup1\n          swap2\n          sub\n          swap1\n          log3\n            /* \"erc20.sol\":2740:3164  {... */\n          pop\n            /* \"erc20.sol\":2670:3164  function _transfer(address from, address to, uint256 amount) internal {... */\n          pop\n          pop\n          pop\n          jump\t// out\n            /* \"erc20.sol\":3172:3484  function _mint(address to, uint256 amount) internal {... */\n        tag_86:\n            /* \"erc20.sol\":3257:3258  0 */\n          0x00\n            /* \"erc20.sol\":3243:3259  to != address(0) */\n          0xffffffffffffffffffffffffffffffffffffffff\n          and\n            /* \"erc20.sol\":3243:3245  to */\n          dup3\n            /* \"erc20.sol\":3243:3259  to != address(0) */\n          0xffffffffffffffffffffffffffffffffffffffff\n          and\n          sub\n            /* \"erc20.sol\":3235:3295  require(to != address(0), \"ERC20: mint to the zero address\") */\n          tag_115\n          jumpi\n          mload(0x40)\n          0x08c379a000000000000000000000000000000000000000000000000000000000\n          dup2\n          mstore\n          0x04\n          add\n          tag_116\n          swap1\n          tag_117\n          jump\t// in\n        tag_116:\n          mload(0x40)\n          dup1\n          swap2\n          sub\n          swap1\n          revert\n        tag_115:\n            /* \"erc20.sol\":3324:3330  amount */\n          dup1\n            /* \"erc20.sol\":3308:3320  _totalSupply */\n          0x03\n          0x00\n            /* \"erc20.sol\":3308:3330  _totalSupply += amount */\n          dup3\n          dup3\n          sload\n          tag_118\n          swap2\n          swap1\n          tag_112\n          jump\t// in\n        tag_118:\n          swap3\n          pop\n          pop\n          dup2\n          swap1\n          sstore\n          pop\n            /* \"erc20.sol\":3358:3364  amount */\n          dup1\n            /* \"erc20.sol\":3341:3350  _balances */\n          0x04\n            /* \"erc20.sol\":3341:3354  _balances[to] */\n          0x00\n            /* \"erc20.sol\":3351:3353  to */\n          dup5\n            /* \"erc20.sol\":3341:3354  _balances[to] */\n          0xffffffffffffffffffffffffffffffffffffffff\n          and\n          0xffffffffffffffffffffffffffffffffffffffff\n          and\n          dup2\n          mstore\n          0x20\n          add\n          swap1\n          dup2\n          mstore\n          0x20\n          add\n          0x00\n          keccak256\n          0x00\n            /* \"erc20.sol\":3341:3364  _balances[to] += amount */\n          dup3\n          dup3\n          sload\n          tag_119\n          swap2\n          swap1\n          tag_112\n          jump\t// in\n        tag_119:\n          swap3\n          pop\n          pop\n          dup2\n          swap1\n          sstore\n          pop\n            /* \"erc20.sol\":3465:3467  to */\n          dup2\n            /* \"erc20.sol\":3444:3476  Transfer(address(0), to, amount) */\n          0xffffffffffffffffffffffffffffffffffffffff\n          and\n            /* \"erc20.sol\":3461:3462  0 */\n          0x00\n            /* \"erc20.sol\":3444:3476  Transfer(address(0), to, amount) */\n          0xffffffffffffffffffffffffffffffffffffffff\n          and\n          0xddf252ad1be2c89b69c2b068fc378daa952ba7f163c4a11628f55a4df523b3ef\n            /* \"erc20.sol\":3469:3475  amount */\n          dup4\n            /* \"erc20.sol\":3444:3476  Transfer(address(0), to, amount) */\n          mload(0x40)\n          tag_120\n          swap2\n          swap1\n          tag_28\n          jump\t// in\n        tag_120:\n          mload(0x40)\n          dup1\n          swap2\n          sub\n          swap1\n          log3\n            /* \"erc20.sol\":3172:3484  function _mint(address to, uint256 amount) internal {... */\n          pop\n          pop\n          jump\t// out\n            /* \"erc20.sol\":3492:3807  function _burn(address from, uint256 amount) internal {... */\n        tag_96:\n            /* \"erc20.sol\":3581:3582  0 */\n          0x00\n            /* \"erc20.sol\":3565:3583  from != address(0) */\n          0xffffffffffffffffffffffffffffffffffffffff\n          and\n            /* \"erc20.sol\":3565:3569  from */\n          dup3\n            /* \"erc20.sol\":3565:3583  from != address(0) */\n          0xffffffffffffffffffffffffffffffffffffffff\n          and\n          sub\n            /* \"erc20.sol\":3557:3602  require(from != address(0), \"No hay address\") */\n          tag_122\n          jumpi\n          mload(0x40)\n          0x08c379a000000000000000000000000000000000000000000000000000000000\n          dup2\n          mstore\n          0x04\n          add\n          tag_123\n          swap1\n          tag_124\n          jump\t// in\n        tag_123:\n          mload(0x40)\n          dup1\n          swap2\n          sub\n          swap1\n          revert\n        tag_122:\n            /* \"erc20.sol\":3640:3646  amount */\n          dup1\n            /* \"erc20.sol\":3621:3630  _balances */\n          0x04\n            /* \"erc20.sol\":3621:3636  _balances[from] */\n          0x00\n            /* \"erc20.sol\":3631:3635  from */\n          dup5\n            /* \"erc20.sol\":3621:3636  _balances[from] */\n          0xffffffffffffffffffffffffffffffffffffffff\n          and\n          0xffffffffffffffffffffffffffffffffffffffff\n          and\n          dup2\n          mstore\n          0x20\n          add\n          swap1\n          dup2\n          mstore\n          0x20\n          add\n          0x00\n          keccak256\n          sload\n            /* \"erc20.sol\":3621:3646  _balances[from] >= amount */\n          lt\n          iszero\n            /* \"erc20.sol\":3613:3677  require(_balances[from] >= amount, \"No hay suficientes tokens.\") */\n          tag_125\n          jumpi\n          mload(0x40)\n          0x08c379a000000000000000000000000000000000000000000000000000000000\n          dup2\n          mstore\n          0x04\n          add\n          tag_126\n          swap1\n          tag_127\n          jump\t// in\n        tag_126:\n          mload(0x40)\n          dup1\n          swap2\n          sub\n          swap1\n          revert\n        tag_125:\n            /* \"erc20.sol\":3709:3715  amount */\n          dup1\n            /* \"erc20.sol\":3690:3699  _balances */\n          0x04\n            /* \"erc20.sol\":3690:3705  _balances[from] */\n          0x00\n            /* \"erc20.sol\":3700:3704  from */\n          dup5\n            /* \"erc20.sol\":3690:3705  _balances[from] */\n          0xffffffffffffffffffffffffffffffffffffffff\n          and\n          0xffffffffffffffffffffffffffffffffffffffff\n          and\n          dup2\n          mstore\n          0x20\n          add\n          swap1\n          dup2\n          mstore\n          0x20\n          add\n          0x00\n          keccak256\n          0x00\n            /* \"erc20.sol\":3690:3715  _balances[from] -= amount */\n          dup3\n          dup3\n          sload\n          tag_128\n          swap2\n          swap1\n          tag_79\n          jump\t// in\n        tag_128:\n          swap3\n          pop\n          pop\n          dup2\n          swap1\n          sstore\n          pop\n            /* \"erc20.sol\":3741:3747  amount */\n          dup1\n            /* \"erc20.sol\":3726:3738  _totalSupply */\n          0x03\n          0x00\n            /* \"erc20.sol\":3726:3747  _totalSupply -=amount */\n          dup3\n          dup3\n          sload\n          tag_129\n          swap2\n          swap1\n          tag_79\n          jump\t// in\n        tag_129:\n          swap3\n          pop\n          pop\n          dup2\n          swap1\n          sstore\n          pop\n            /* \"erc20.sol\":3788:3789  0 */\n          0x00\n            /* \"erc20.sol\":3765:3799  Transfer(from, address(0), amount) */\n          0xffffffffffffffffffffffffffffffffffffffff\n          and\n            /* \"erc20.sol\":3774:3778  from */\n          dup3\n            /* \"erc20.sol\":3765:3799  Transfer(from, address(0), amount) */\n          0xffffffffffffffffffffffffffffffffffffffff\n          and\n          0xddf252ad1be2c89b69c2b068fc378daa952ba7f163c4a11628f55a4df523b3ef\n            /* \"erc20.sol\":3792:3798  amount */\n          dup4\n            /* \"erc20.sol\":3765:3799  Transfer(from, address(0), amount) */\n          mload(0x40)\n          tag_130\n          swap2\n          swap1\n          tag_28\n          jump\t// in\n        tag_130:\n          mload(0x40)\n          dup1\n          swap2\n          sub\n          swap1\n          log3\n            /* \"erc20.sol\":3492:3807  function _burn(address from, uint256 amount) internal {... */\n          pop\n          pop\n          jump\t// out\n            /* \"#utility.yul\":7:106   */\n        tag_131:\n            /* \"#utility.yul\":59:65   */\n          0x00\n            /* \"#utility.yul\":93:98   */\n          dup2\n            /* \"#utility.yul\":87:99   */\n          mload\n            /* \"#utility.yul\":77:99   */\n          swap1\n          pop\n            /* \"#utility.yul\":7:106   */\n          swap2\n          swap1\n          pop\n          jump\t// out\n            /* \"#utility.yul\":112:281   */\n        tag_132:\n            /* \"#utility.yul\":196:207   */\n          0x00\n            /* \"#utility.yul\":230:236   */\n          dup3\n            /* \"#utility.yul\":225:228   */\n          dup3\n            /* \"#utility.yul\":218:237   */\n          mstore\n            /* \"#utility.yul\":270:274   */\n          0x20\n            /* \"#utility.yul\":265:268   */\n          dup3\n            /* \"#utility.yul\":261:275   */\n          add\n            /* \"#utility.yul\":246:275   */\n          swap1\n          pop\n            /* \"#utility.yul\":112:281   */\n          swap3\n          swap2\n          pop\n          pop\n          jump\t// out\n            /* \"#utility.yul\":287:426   */\n        tag_133:\n            /* \"#utility.yul\":376:382   */\n          dup3\n            /* \"#utility.yul\":371:374   */\n          dup2\n            /* \"#utility.yul\":366:369   */\n          dup4\n            /* \"#utility.yul\":360:383   */\n          mcopy\n            /* \"#utility.yul\":417:418   */\n          0x00\n            /* \"#utility.yul\":408:414   */\n          dup4\n            /* \"#utility.yul\":403:406   */\n          dup4\n            /* \"#utility.yul\":399:415   */\n          add\n            /* \"#utility.yul\":392:419   */\n          mstore\n            /* \"#utility.yul\":287:426   */\n          pop\n          pop\n          pop\n          jump\t// out\n            /* \"#utility.yul\":432:534   */\n        tag_134:\n            /* \"#utility.yul\":473:479   */\n          0x00\n            /* \"#utility.yul\":524:526   */\n          0x1f\n            /* \"#utility.yul\":520:527   */\n          not\n            /* \"#utility.yul\":515:517   */\n          0x1f\n            /* \"#utility.yul\":508:513   */\n          dup4\n            /* \"#utility.yul\":504:518   */\n          add\n            /* \"#utility.yul\":500:528   */\n          and\n            /* \"#utility.yul\":490:528   */\n          swap1\n          pop\n            /* \"#utility.yul\":432:534   */\n          swap2\n          swap1\n          pop\n          jump\t// out\n            /* \"#utility.yul\":540:917   */\n        tag_135:\n            /* \"#utility.yul\":628:631   */\n          0x00\n            /* \"#utility.yul\":656:695   */\n          tag_175\n            /* \"#utility.yul\":689:694   */\n          dup3\n            /* \"#utility.yul\":656:695   */\n          tag_131\n          jump\t// in\n        tag_175:\n            /* \"#utility.yul\":711:782   */\n          tag_176\n            /* \"#utility.yul\":775:781   */\n          dup2\n            /* \"#utility.yul\":770:773   */\n          dup6\n            /* \"#utility.yul\":711:782   */\n          tag_132\n          jump\t// in\n        tag_176:\n            /* \"#utility.yul\":704:782   */\n          swap4\n          pop\n            /* \"#utility.yul\":791:856   */\n          tag_177\n            /* \"#utility.yul\":849:855   */\n          dup2\n            /* \"#utility.yul\":844:847   */\n          dup6\n            /* \"#utility.yul\":837:841   */\n          0x20\n            /* \"#utility.yul\":830:835   */\n          dup7\n            /* \"#utility.yul\":826:842   */\n          add\n            /* \"#utility.yul\":791:856   */\n          tag_133\n          jump\t// in\n        tag_177:\n            /* \"#utility.yul\":881:910   */\n          tag_178\n            /* \"#utility.yul\":903:909   */\n          dup2\n            /* \"#utility.yul\":881:910   */\n          tag_134\n          jump\t// in\n        tag_178:\n            /* \"#utility.yul\":876:879   */\n          dup5\n            /* \"#utility.yul\":872:911   */\n          add\n            /* \"#utility.yul\":865:911   */\n          swap2\n          pop\n            /* \"#utility.yul\":632:917   */\n          pop\n            /* \"#utility.yul\":540:917   */\n          swap3\n          swap2\n          pop\n          pop\n          jump\t// out\n            /* \"#utility.yul\":923:1236   */\n        tag_18:\n            /* \"#utility.yul\":1036:1040   */\n          0x00\n            /* \"#utility.yul\":1074:1076   */\n          0x20\n            /* \"#utility.yul\":1063:1072   */\n          dup3\n            /* \"#utility.yul\":1059:1077   */\n          add\n            /* \"#utility.yul\":1051:1077   */\n          swap1\n          pop\n            /* \"#utility.yul\":1123:1132   */\n          dup2\n            /* \"#utility.yul\":1117:1121   */\n          dup2\n            /* \"#utility.yul\":1113:1133   */\n          sub\n            /* \"#utility.yul\":1109:1110   */\n          0x00\n            /* \"#utility.yul\":1098:1107   */\n          dup4\n            /* \"#utility.yul\":1094:1111   */\n          add\n            /* \"#utility.yul\":1087:1134   */\n          mstore\n            /* \"#utility.yul\":1151:1229   */\n          tag_180\n            /* \"#utility.yul\":1224:1228   */\n          dup2\n            /* \"#utility.yul\":1215:1221   */\n          dup5\n            /* \"#utility.yul\":1151:1229   */\n          tag_135\n          jump\t// in\n        tag_180:\n            /* \"#utility.yul\":1143:1229   */\n          swap1\n          pop\n            /* \"#utility.yul\":923:1236   */\n          swap3\n          swap2\n          pop\n          pop\n          jump\t// out\n            /* \"#utility.yul\":1323:1440   */\n        tag_137:\n            /* \"#utility.yul\":1432:1433   */\n          0x00\n            /* \"#utility.yul\":1429:1430   */\n          0x00\n            /* \"#utility.yul\":1422:1434   */\n          revert\n            /* \"#utility.yul\":1569:1695   */\n        tag_139:\n            /* \"#utility.yul\":1606:1613   */\n          0x00\n            /* \"#utility.yul\":1646:1688   */\n          0xffffffffffffffffffffffffffffffffffffffff\n            /* \"#utility.yul\":1639:1644   */\n          dup3\n            /* \"#utility.yul\":1635:1689   */\n          and\n            /* \"#utility.yul\":1624:1689   */\n          swap1\n          pop\n            /* \"#utility.yul\":1569:1695   */\n          swap2\n          swap1\n          pop\n          jump\t// out\n            /* \"#utility.yul\":1701:1797   */\n        tag_140:\n            /* \"#utility.yul\":1738:1745   */\n          0x00\n            /* \"#utility.yul\":1767:1791   */\n          tag_186\n            /* \"#utility.yul\":1785:1790   */\n          dup3\n            /* \"#utility.yul\":1767:1791   */\n          tag_139\n          jump\t// in\n        tag_186:\n            /* \"#utility.yul\":1756:1791   */\n          swap1\n          pop\n            /* \"#utility.yul\":1701:1797   */\n          swap2\n          swap1\n          pop\n          jump\t// out\n            /* \"#utility.yul\":1803:1925   */\n        tag_141:\n            /* \"#utility.yul\":1876:1900   */\n          tag_188\n            /* \"#utility.yul\":1894:1899   */\n          dup2\n            /* \"#utility.yul\":1876:1900   */\n          tag_140\n          jump\t// in\n        tag_188:\n            /* \"#utility.yul\":1869:1874   */\n          dup2\n            /* \"#utility.yul\":1866:1901   */\n          eq\n            /* \"#utility.yul\":1856:1919   */\n          tag_189\n          jumpi\n            /* \"#utility.yul\":1915:1916   */\n          0x00\n            /* \"#utility.yul\":1912:1913   */\n          0x00\n            /* \"#utility.yul\":1905:1917   */\n          revert\n            /* \"#utility.yul\":1856:1919   */\n        tag_189:\n            /* \"#utility.yul\":1803:1925   */\n          pop\n          jump\t// out\n            /* \"#utility.yul\":1931:2070   */\n        tag_142:\n            /* \"#utility.yul\":1977:1982   */\n          0x00\n            /* \"#utility.yul\":2015:2021   */\n          dup2\n            /* \"#utility.yul\":2002:2022   */\n          calldataload\n            /* \"#utility.yul\":1993:2022   */\n          swap1\n          pop\n            /* \"#utility.yul\":2031:2064   */\n          tag_191\n            /* \"#utility.yul\":2058:2063   */\n          dup2\n            /* \"#utility.yul\":2031:2064   */\n          tag_141\n          jump\t// in\n        tag_191:\n            /* \"#utility.yul\":1931:2070   */\n          swap3\n          swap2\n          pop\n          pop\n          jump\t// out\n            /* \"#utility.yul\":2076:2153   */\n        tag_143:\n            /* \"#utility.yul\":2113:2120   */\n          0x00\n            /* \"#utility.yul\":2142:2147   */\n          dup2\n            /* \"#utility.yul\":2131:2147   */\n          swap1\n          pop\n            /* \"#utility.yul\":2076:2153   */\n          swap2\n          swap1\n          pop\n          jump\t// out\n            /* \"#utility.yul\":2159:2281   */\n        tag_144:\n            /* \"#utility.yul\":2232:2256   */\n          tag_194\n            /* \"#utility.yul\":2250:2255   */\n          dup2\n            /* \"#utility.yul\":2232:2256   */\n          tag_143\n          jump\t// in\n        tag_194:\n            /* \"#utility.yul\":2225:2230   */\n          dup2\n            /* \"#utility.yul\":2222:2257   */\n          eq\n            /* \"#utility.yul\":2212:2275   */\n          tag_195\n          jumpi\n            /* \"#utility.yul\":2271:2272   */\n          0x00\n            /* \"#utility.yul\":2268:2269   */\n          0x00\n            /* \"#utility.yul\":2261:2273   */\n          revert\n            /* \"#utility.yul\":2212:2275   */\n        tag_195:\n            /* \"#utility.yul\":2159:2281   */\n          pop\n          jump\t// out\n            /* \"#utility.yul\":2287:2426   */\n        tag_145:\n            /* \"#utility.yul\":2333:2338   */\n          0x00\n            /* \"#utility.yul\":2371:2377   */\n          dup2\n            /* \"#utility.yul\":2358:2378   */\n          calldataload\n            /* \"#utility.yul\":2349:2378   */\n          swap1\n          pop\n            /* \"#utility.yul\":2387:2420   */\n          tag_197\n            /* \"#utility.yul\":2414:2419   */\n          dup2\n            /* \"#utility.yul\":2387:2420   */\n          tag_144\n          jump\t// in\n        tag_197:\n            /* \"#utility.yul\":2287:2426   */\n          swap3\n          swap2\n          pop\n          pop\n          jump\t// out\n            /* \"#utility.yul\":2432:2906   */\n        tag_21:\n            /* \"#utility.yul\":2500:2506   */\n          0x00\n            /* \"#utility.yul\":2508:2514   */\n          0x00\n            /* \"#utility.yul\":2557:2559   */\n          0x40\n            /* \"#utility.yul\":2545:2554   */\n          dup4\n            /* \"#utility.yul\":2536:2543   */\n          dup6\n            /* \"#utility.yul\":2532:2555   */\n          sub\n            /* \"#utility.yul\":2528:2560   */\n          slt\n            /* \"#utility.yul\":2525:2644   */\n          iszero\n          tag_199\n          jumpi\n            /* \"#utility.yul\":2563:2642   */\n          tag_200\n          tag_137\n          jump\t// in\n        tag_200:\n            /* \"#utility.yul\":2525:2644   */\n        tag_199:\n            /* \"#utility.yul\":2683:2684   */\n          0x00\n            /* \"#utility.yul\":2708:2761   */\n          tag_201\n            /* \"#utility.yul\":2753:2760   */\n          dup6\n            /* \"#utility.yul\":2744:2750   */\n          dup3\n            /* \"#utility.yul\":2733:2742   */\n          dup7\n            /* \"#utility.yul\":2729:2751   */\n          add\n            /* \"#utility.yul\":2708:2761   */\n          tag_142\n          jump\t// in\n        tag_201:\n            /* \"#utility.yul\":2698:2761   */\n          swap3\n          pop\n            /* \"#utility.yul\":2654:2771   */\n          pop\n            /* \"#utility.yul\":2810:2812   */\n          0x20\n            /* \"#utility.yul\":2836:2889   */\n          tag_202\n            /* \"#utility.yul\":2881:2888   */\n          dup6\n            /* \"#utility.yul\":2872:2878   */\n          dup3\n            /* \"#utility.yul\":2861:2870   */\n          dup7\n            /* \"#utility.yul\":2857:2879   */\n          add\n            /* \"#utility.yul\":2836:2889   */\n          tag_145\n          jump\t// in\n        tag_202:\n            /* \"#utility.yul\":2826:2889   */\n          swap2\n          pop\n            /* \"#utility.yul\":2781:2899   */\n          pop\n            /* \"#utility.yul\":2432:2906   */\n          swap3\n          pop\n          swap3\n          swap1\n          pop\n          jump\t// out\n            /* \"#utility.yul\":2912:3002   */\n        tag_146:\n            /* \"#utility.yul\":2946:2953   */\n          0x00\n            /* \"#utility.yul\":2989:2994   */\n          dup2\n            /* \"#utility.yul\":2982:2995   */\n          iszero\n            /* \"#utility.yul\":2975:2996   */\n          iszero\n            /* \"#utility.yul\":2964:2996   */\n          swap1\n          pop\n            /* \"#utility.yul\":2912:3002   */\n          swap2\n          swap1\n          pop\n          jump\t// out\n            /* \"#utility.yul\":3008:3117   */\n        tag_147:\n            /* \"#utility.yul\":3089:3110   */\n          tag_205\n            /* \"#utility.yul\":3104:3109   */\n          dup2\n            /* \"#utility.yul\":3089:3110   */\n          tag_146\n          jump\t// in\n        tag_205:\n            /* \"#utility.yul\":3084:3087   */\n          dup3\n            /* \"#utility.yul\":3077:3111   */\n          mstore\n            /* \"#utility.yul\":3008:3117   */\n          pop\n          pop\n          jump\t// out\n            /* \"#utility.yul\":3123:3333   */\n        tag_24:\n            /* \"#utility.yul\":3210:3214   */\n          0x00\n            /* \"#utility.yul\":3248:3250   */\n          0x20\n            /* \"#utility.yul\":3237:3246   */\n          dup3\n            /* \"#utility.yul\":3233:3251   */\n          add\n            /* \"#utility.yul\":3225:3251   */\n          swap1\n          pop\n            /* \"#utility.yul\":3261:3326   */\n          tag_207\n            /* \"#utility.yul\":3323:3324   */\n          0x00\n            /* \"#utility.yul\":3312:3321   */\n          dup4\n            /* \"#utility.yul\":3308:3325   */\n          add\n            /* \"#utility.yul\":3299:3305   */\n          dup5\n            /* \"#utility.yul\":3261:3326   */\n          tag_147\n          jump\t// in\n        tag_207:\n            /* \"#utility.yul\":3123:3333   */\n          swap3\n          swap2\n          pop\n          pop\n          jump\t// out\n            /* \"#utility.yul\":3339:3457   */\n        tag_148:\n            /* \"#utility.yul\":3426:3450   */\n          tag_209\n            /* \"#utility.yul\":3444:3449   */\n          dup2\n            /* \"#utility.yul\":3426:3450   */\n          tag_143\n          jump\t// in\n        tag_209:\n            /* \"#utility.yul\":3421:3424   */\n          dup3\n            /* \"#utility.yul\":3414:3451   */\n          mstore\n            /* \"#utility.yul\":3339:3457   */\n          pop\n          pop\n          jump\t// out\n            /* \"#utility.yul\":3463:3685   */\n        tag_28:\n            /* \"#utility.yul\":3556:3560   */\n          0x00\n            /* \"#utility.yul\":3594:3596   */\n          0x20\n            /* \"#utility.yul\":3583:3592   */\n          dup3\n            /* \"#utility.yul\":3579:3597   */\n          add\n            /* \"#utility.yul\":3571:3597   */\n          swap1\n          pop\n            /* \"#utility.yul\":3607:3678   */\n          tag_211\n            /* \"#utility.yul\":3675:3676   */\n          0x00\n            /* \"#utility.yul\":3664:3673   */\n          dup4\n            /* \"#utility.yul\":3660:3677   */\n          add\n            /* \"#utility.yul\":3651:3657   */\n          dup5\n            /* \"#utility.yul\":3607:3678   */\n          tag_148\n          jump\t// in\n        tag_211:\n            /* \"#utility.yul\":3463:3685   */\n          swap3\n          swap2\n          pop\n          pop\n          jump\t// out\n            /* \"#utility.yul\":3691:4310   */\n        tag_31:\n            /* \"#utility.yul\":3768:3774   */\n          0x00\n            /* \"#utility.yul\":3776:3782   */\n          0x00\n            /* \"#utility.yul\":3784:3790   */\n          0x00\n            /* \"#utility.yul\":3833:3835   */\n          0x60\n            /* \"#utility.yul\":3821:3830   */\n          dup5\n            /* \"#utility.yul\":3812:3819   */\n          dup7\n            /* \"#utility.yul\":3808:3831   */\n          sub\n            /* \"#utility.yul\":3804:3836   */\n          slt\n            /* \"#utility.yul\":3801:3920   */\n          iszero\n          tag_213\n          jumpi\n            /* \"#utility.yul\":3839:3918   */\n          tag_214\n          tag_137\n          jump\t// in\n        tag_214:\n            /* \"#utility.yul\":3801:3920   */\n        tag_213:\n            /* \"#utility.yul\":3959:3960   */\n          0x00\n            /* \"#utility.yul\":3984:4037   */\n          tag_215\n            /* \"#utility.yul\":4029:4036   */\n          dup7\n            /* \"#utility.yul\":4020:4026   */\n          dup3\n            /* \"#utility.yul\":4009:4018   */\n          dup8\n            /* \"#utility.yul\":4005:4027   */\n          add\n            /* \"#utility.yul\":3984:4037   */\n          tag_142\n          jump\t// in\n        tag_215:\n            /* \"#utility.yul\":3974:4037   */\n          swap4\n          pop\n            /* \"#utility.yul\":3930:4047   */\n          pop\n            /* \"#utility.yul\":4086:4088   */\n          0x20\n            /* \"#utility.yul\":4112:4165   */\n          tag_216\n            /* \"#utility.yul\":4157:4164   */\n          dup7\n            /* \"#utility.yul\":4148:4154   */\n          dup3\n            /* \"#utility.yul\":4137:4146   */\n          dup8\n            /* \"#utility.yul\":4133:4155   */\n          add\n            /* \"#utility.yul\":4112:4165   */\n          tag_142\n          jump\t// in\n        tag_216:\n            /* \"#utility.yul\":4102:4165   */\n          swap3\n          pop\n            /* \"#utility.yul\":4057:4175   */\n          pop\n            /* \"#utility.yul\":4214:4216   */\n          0x40\n            /* \"#utility.yul\":4240:4293   */\n          tag_217\n            /* \"#utility.yul\":4285:4292   */\n          dup7\n            /* \"#utility.yul\":4276:4282   */\n          dup3\n            /* \"#utility.yul\":4265:4274   */\n          dup8\n            /* \"#utility.yul\":4261:4283   */\n          add\n            /* \"#utility.yul\":4240:4293   */\n          tag_145\n          jump\t// in\n        tag_217:\n            /* \"#utility.yul\":4230:4293   */\n          swap2\n          pop\n            /* \"#utility.yul\":4185:4303   */\n          pop\n            /* \"#utility.yul\":3691:4310   */\n          swap3\n          pop\n          swap3\n          pop\n          swap3\n          jump\t// out\n            /* \"#utility.yul\":4316:4402   */\n        tag_149:\n            /* \"#utility.yul\":4351:4358   */\n          0x00\n            /* \"#utility.yul\":4391:4395   */\n          0xff\n            /* \"#utility.yul\":4384:4389   */\n          dup3\n            /* \"#utility.yul\":4380:4396   */\n          and\n            /* \"#utility.yul\":4369:4396   */\n          swap1\n          pop\n            /* \"#utility.yul\":4316:4402   */\n          swap2\n          swap1\n          pop\n          jump\t// out\n            /* \"#utility.yul\":4408:4520   */\n        tag_150:\n            /* \"#utility.yul\":4491:4513   */\n          tag_220\n            /* \"#utility.yul\":4507:4512   */\n          dup2\n            /* \"#utility.yul\":4491:4513   */\n          tag_149\n          jump\t// in\n        tag_220:\n            /* \"#utility.yul\":4486:4489   */\n          dup3\n            /* \"#utility.yul\":4479:4514   */\n          mstore\n            /* \"#utility.yul\":4408:4520   */\n          pop\n          pop\n          jump\t// out\n            /* \"#utility.yul\":4526:4740   */\n        tag_37:\n            /* \"#utility.yul\":4615:4619   */\n          0x00\n            /* \"#utility.yul\":4653:4655   */\n          0x20\n            /* \"#utility.yul\":4642:4651   */\n          dup3\n            /* \"#utility.yul\":4638:4656   */\n          add\n            /* \"#utility.yul\":4630:4656   */\n          swap1\n          pop\n            /* \"#utility.yul\":4666:4733   */\n          tag_222\n            /* \"#utility.yul\":4730:4731   */\n          0x00\n            /* \"#utility.yul\":4719:4728   */\n          dup4\n            /* \"#utility.yul\":4715:4732   */\n          add\n            /* \"#utility.yul\":4706:4712   */\n          dup5\n            /* \"#utility.yul\":4666:4733   */\n          tag_150\n          jump\t// in\n        tag_222:\n            /* \"#utility.yul\":4526:4740   */\n          swap3\n          swap2\n          pop\n          pop\n          jump\t// out\n            /* \"#utility.yul\":4746:5075   */\n        tag_43:\n            /* \"#utility.yul\":4805:4811   */\n          0x00\n            /* \"#utility.yul\":4854:4856   */\n          0x20\n            /* \"#utility.yul\":4842:4851   */\n          dup3\n            /* \"#utility.yul\":4833:4840   */\n          dup5\n            /* \"#utility.yul\":4829:4852   */\n          sub\n            /* \"#utility.yul\":4825:4857   */\n          slt\n            /* \"#utility.yul\":4822:4941   */\n          iszero\n          tag_224\n          jumpi\n            /* \"#utility.yul\":4860:4939   */\n          tag_225\n          tag_137\n          jump\t// in\n        tag_225:\n            /* \"#utility.yul\":4822:4941   */\n        tag_224:\n            /* \"#utility.yul\":4980:4981   */\n          0x00\n            /* \"#utility.yul\":5005:5058   */\n          tag_226\n            /* \"#utility.yul\":5050:5057   */\n          dup5\n            /* \"#utility.yul\":5041:5047   */\n          dup3\n            /* \"#utility.yul\":5030:5039   */\n          dup6\n            /* \"#utility.yul\":5026:5048   */\n          add\n            /* \"#utility.yul\":5005:5058   */\n          tag_142\n          jump\t// in\n        tag_226:\n            /* \"#utility.yul\":4995:5058   */\n          swap2\n          pop\n            /* \"#utility.yul\":4951:5068   */\n          pop\n            /* \"#utility.yul\":4746:5075   */\n          swap3\n          swap2\n          pop\n          pop\n          jump\t// out\n            /* \"#utility.yul\":5081:5555   */\n        tag_58:\n            /* \"#utility.yul\":5149:5155   */\n          0x00\n            /* \"#utility.yul\":5157:5163   */\n          0x00\n            /* \"#utility.yul\":5206:5208   */\n          0x40\n            /* \"#utility.yul\":5194:5203   */\n          dup4\n            /* \"#utility.yul\":5185:5192   */\n          dup6\n            /* \"#utility.yul\":5181:5204   */\n          sub\n            /* \"#utility.yul\":5177:5209   */\n          slt\n            /* \"#utility.yul\":5174:5293   */\n          iszero\n          tag_228\n          jumpi\n            /* \"#utility.yul\":5212:5291   */\n          tag_229\n          tag_137\n          jump\t// in\n        tag_229:\n            /* \"#utility.yul\":5174:5293   */\n        tag_228:\n            /* \"#utility.yul\":5332:5333   */\n          0x00\n            /* \"#utility.yul\":5357:5410   */\n          tag_230\n            /* \"#utility.yul\":5402:5409   */\n          dup6\n            /* \"#utility.yul\":5393:5399   */\n          dup3\n            /* \"#utility.yul\":5382:5391   */\n          dup7\n            /* \"#utility.yul\":5378:5400   */\n          add\n            /* \"#utility.yul\":5357:5410   */\n          tag_142\n          jump\t// in\n        tag_230:\n            /* \"#utility.yul\":5347:5410   */\n          swap3\n          pop\n            /* \"#utility.yul\":5303:5420   */\n          pop\n            /* \"#utility.yul\":5459:5461   */\n          0x20\n            /* \"#utility.yul\":5485:5538   */\n          tag_231\n            /* \"#utility.yul\":5530:5537   */\n          dup6\n            /* \"#utility.yul\":5521:5527   */\n          dup3\n            /* \"#utility.yul\":5510:5519   */\n          dup7\n            /* \"#utility.yul\":5506:5528   */\n          add\n            /* \"#utility.yul\":5485:5538   */\n          tag_142\n          jump\t// in\n        tag_231:\n            /* \"#utility.yul\":5475:5538   */\n          swap2\n          pop\n            /* \"#utility.yul\":5430:5548   */\n          pop\n            /* \"#utility.yul\":5081:5555   */\n          swap3\n          pop\n          swap3\n          swap1\n          pop\n          jump\t// out\n            /* \"#utility.yul\":5561:5741   */\n        tag_151:\n            /* \"#utility.yul\":5609:5686   */\n          0x4e487b7100000000000000000000000000000000000000000000000000000000\n            /* \"#utility.yul\":5606:5607   */\n          0x00\n            /* \"#utility.yul\":5599:5687   */\n          mstore\n            /* \"#utility.yul\":5706:5710   */\n          0x22\n            /* \"#utility.yul\":5703:5704   */\n          0x04\n            /* \"#utility.yul\":5696:5711   */\n          mstore\n            /* \"#utility.yul\":5730:5734   */\n          0x24\n            /* \"#utility.yul\":5727:5728   */\n          0x00\n            /* \"#utility.yul\":5720:5735   */\n          revert\n            /* \"#utility.yul\":5747:6067   */\n        tag_63:\n            /* \"#utility.yul\":5791:5797   */\n          0x00\n            /* \"#utility.yul\":5828:5829   */\n          0x02\n            /* \"#utility.yul\":5822:5826   */\n          dup3\n            /* \"#utility.yul\":5818:5830   */\n          div\n            /* \"#utility.yul\":5808:5830   */\n          swap1\n          pop\n            /* \"#utility.yul\":5875:5876   */\n          0x01\n            /* \"#utility.yul\":5869:5873   */\n          dup3\n            /* \"#utility.yul\":5865:5877   */\n          and\n            /* \"#utility.yul\":5896:5914   */\n          dup1\n            /* \"#utility.yul\":5886:5967   */\n          tag_234\n          jumpi\n            /* \"#utility.yul\":5952:5956   */\n          0x7f\n            /* \"#utility.yul\":5944:5950   */\n          dup3\n            /* \"#utility.yul\":5940:5957   */\n          and\n            /* \"#utility.yul\":5930:5957   */\n          swap2\n          pop\n            /* \"#utility.yul\":5886:5967   */\n        tag_234:\n            /* \"#utility.yul\":6014:6016   */\n          0x20\n            /* \"#utility.yul\":6006:6012   */\n          dup3\n            /* \"#utility.yul\":6003:6017   */\n          lt\n            /* \"#utility.yul\":5983:6001   */\n          dup2\n            /* \"#utility.yul\":5980:6018   */\n          sub\n            /* \"#utility.yul\":5977:6061   */\n          tag_235\n          jumpi\n            /* \"#utility.yul\":6033:6051   */\n          tag_236\n          tag_151\n          jump\t// in\n        tag_236:\n            /* \"#utility.yul\":5977:6061   */\n        tag_235:\n            /* \"#utility.yul\":5798:6067   */\n          pop\n            /* \"#utility.yul\":5747:6067   */\n          swap2\n          swap1\n          pop\n          jump\t// out\n            /* \"#utility.yul\":6073:6294   */\n        tag_152:\n            /* \"#utility.yul\":6213:6247   */\n          0x45524332303a20617070726f766520746f20746865207a65726f206164647265\n            /* \"#utility.yul\":6209:6210   */\n          0x00\n            /* \"#utility.yul\":6201:6207   */\n          dup3\n            /* \"#utility.yul\":6197:6211   */\n          add\n            /* \"#utility.yul\":6190:6248   */\n          mstore\n            /* \"#utility.yul\":6282:6286   */\n          0x7373000000000000000000000000000000000000000000000000000000000000\n            /* \"#utility.yul\":6277:6279   */\n          0x20\n            /* \"#utility.yul\":6269:6275   */\n          dup3\n            /* \"#utility.yul\":6265:6280   */\n          add\n            /* \"#utility.yul\":6258:6287   */\n          mstore\n            /* \"#utility.yul\":6073:6294   */\n          pop\n          jump\t// out\n            /* \"#utility.yul\":6300:6666   */\n        tag_153:\n            /* \"#utility.yul\":6442:6445   */\n          0x00\n            /* \"#utility.yul\":6463:6530   */\n          tag_239\n            /* \"#utility.yul\":6527:6529   */\n          0x22\n            /* \"#utility.yul\":6522:6525   */\n          dup4\n            /* \"#utility.yul\":6463:6530   */\n          tag_132\n          jump\t// in\n        tag_239:\n            /* \"#utility.yul\":6456:6530   */\n          swap2\n          pop\n            /* \"#utility.yul\":6539:6632   */\n          tag_240\n            /* \"#utility.yul\":6628:6631   */\n          dup3\n            /* \"#utility.yul\":6539:6632   */\n          tag_152\n          jump\t// in\n        tag_240:\n            /* \"#utility.yul\":6657:6659   */\n          0x40\n            /* \"#utility.yul\":6652:6655   */\n          dup3\n            /* \"#utility.yul\":6648:6660   */\n          add\n            /* \"#utility.yul\":6641:6660   */\n          swap1\n          pop\n            /* \"#utility.yul\":6300:6666   */\n          swap2\n          swap1\n          pop\n          jump\t// out\n            /* \"#utility.yul\":6672:7091   */\n        tag_71:\n            /* \"#utility.yul\":6838:6842   */\n          0x00\n            /* \"#utility.yul\":6876:6878   */\n          0x20\n            /* \"#utility.yul\":6865:6874   */\n          dup3\n            /* \"#utility.yul\":6861:6879   */\n          add\n            /* \"#utility.yul\":6853:6879   */\n          swap1\n          pop\n            /* \"#utility.yul\":6925:6934   */\n          dup2\n            /* \"#utility.yul\":6919:6923   */\n          dup2\n            /* \"#utility.yul\":6915:6935   */\n          sub\n            /* \"#utility.yul\":6911:6912   */\n          0x00\n            /* \"#utility.yul\":6900:6909   */\n          dup4\n            /* \"#utility.yul\":6896:6913   */\n          add\n            /* \"#utility.yul\":6889:6936   */\n          mstore\n            /* \"#utility.yul\":6953:7084   */\n          tag_242\n            /* \"#utility.yul\":7079:7083   */\n          dup2\n            /* \"#utility.yul\":6953:7084   */\n          tag_153\n          jump\t// in\n        tag_242:\n            /* \"#utility.yul\":6945:7084   */\n          swap1\n          pop\n            /* \"#utility.yul\":6672:7091   */\n          swap2\n          swap1\n          pop\n          jump\t// out\n            /* \"#utility.yul\":7097:7276   */\n        tag_154:\n            /* \"#utility.yul\":7237:7268   */\n          0x45524332303a20696e73756666696369656e7420616c6c6f77616e6365000000\n            /* \"#utility.yul\":7233:7234   */\n          0x00\n            /* \"#utility.yul\":7225:7231   */\n          dup3\n            /* \"#utility.yul\":7221:7235   */\n          add\n            /* \"#utility.yul\":7214:7269   */\n          mstore\n            /* \"#utility.yul\":7097:7276   */\n          pop\n          jump\t// out\n            /* \"#utility.yul\":7282:7648   */\n        tag_155:\n            /* \"#utility.yul\":7424:7427   */\n          0x00\n            /* \"#utility.yul\":7445:7512   */\n          tag_245\n            /* \"#utility.yul\":7509:7511   */\n          0x1d\n            /* \"#utility.yul\":7504:7507   */\n          dup4\n            /* \"#utility.yul\":7445:7512   */\n          tag_132\n          jump\t// in\n        tag_245:\n            /* \"#utility.yul\":7438:7512   */\n          swap2\n          pop\n            /* \"#utility.yul\":7521:7614   */\n          tag_246\n            /* \"#utility.yul\":7610:7613   */\n          dup3\n            /* \"#utility.yul\":7521:7614   */\n          tag_154\n          jump\t// in\n        tag_246:\n            /* \"#utility.yul\":7639:7641   */\n          0x20\n            /* \"#utility.yul\":7634:7637   */\n          dup3\n            /* \"#utility.yul\":7630:7642   */\n          add\n            /* \"#utility.yul\":7623:7642   */\n          swap1\n          pop\n            /* \"#utility.yul\":7282:7648   */\n          swap2\n          swap1\n          pop\n          jump\t// out\n            /* \"#utility.yul\":7654:8073   */\n        tag_77:\n            /* \"#utility.yul\":7820:7824   */\n          0x00\n            /* \"#utility.yul\":7858:7860   */\n          0x20\n            /* \"#utility.yul\":7847:7856   */\n          dup3\n            /* \"#utility.yul\":7843:7861   */\n          add\n            /* \"#utility.yul\":7835:7861   */\n          swap1\n          pop\n            /* \"#utility.yul\":7907:7916   */\n          dup2\n            /* \"#utility.yul\":7901:7905   */\n          dup2\n            /* \"#utility.yul\":7897:7917   */\n          sub\n            /* \"#utility.yul\":7893:7894   */\n          0x00\n            /* \"#utility.yul\":7882:7891   */\n          dup4\n            /* \"#utility.yul\":7878:7895   */\n          add\n            /* \"#utility.yul\":7871:7918   */\n          mstore\n            /* \"#utility.yul\":7935:8066   */\n          tag_248\n            /* \"#utility.yul\":8061:8065   */\n          dup2\n            /* \"#utility.yul\":7935:8066   */\n          tag_155\n          jump\t// in\n        tag_248:\n            /* \"#utility.yul\":7927:8066   */\n          swap1\n          pop\n            /* \"#utility.yul\":7654:8073   */\n          swap2\n          swap1\n          pop\n          jump\t// out\n            /* \"#utility.yul\":8079:8259   */\n        tag_156:\n            /* \"#utility.yul\":8127:8204   */\n          0x4e487b7100000000000000000000000000000000000000000000000000000000\n            /* \"#utility.yul\":8124:8125   */\n          0x00\n            /* \"#utility.yul\":8117:8205   */\n          mstore\n            /* \"#utility.yul\":8224:8228   */\n          0x11\n            /* \"#utility.yul\":8221:8222   */\n          0x04\n            /* \"#utility.yul\":8214:8229   */\n          mstore\n            /* \"#utility.yul\":8248:8252   */\n          0x24\n            /* \"#utility.yul\":8245:8246   */\n          0x00\n            /* \"#utility.yul\":8238:8253   */\n          revert\n            /* \"#utility.yul\":8265:8459   */\n        tag_79:\n            /* \"#utility.yul\":8305:8309   */\n          0x00\n            /* \"#utility.yul\":8325:8345   */\n          tag_251\n            /* \"#utility.yul\":8343:8344   */\n          dup3\n            /* \"#utility.yul\":8325:8345   */\n          tag_143\n          jump\t// in\n        tag_251:\n            /* \"#utility.yul\":8320:8345   */\n          swap2\n          pop\n            /* \"#utility.yul\":8359:8379   */\n          tag_252\n            /* \"#utility.yul\":8377:8378   */\n          dup4\n            /* \"#utility.yul\":8359:8379   */\n          tag_143\n          jump\t// in\n        tag_252:\n            /* \"#utility.yul\":8354:8379   */\n          swap3\n          pop\n            /* \"#utility.yul\":8403:8404   */\n          dup3\n            /* \"#utility.yul\":8400:8401   */\n          dup3\n            /* \"#utility.yul\":8396:8405   */\n          sub\n            /* \"#utility.yul\":8388:8405   */\n          swap1\n          pop\n            /* \"#utility.yul\":8427:8428   */\n          dup2\n            /* \"#utility.yul\":8421:8425   */\n          dup2\n            /* \"#utility.yul\":8418:8429   */\n          gt\n            /* \"#utility.yul\":8415:8452   */\n          iszero\n          tag_253\n          jumpi\n            /* \"#utility.yul\":8432:8450   */\n          tag_254\n          tag_156\n          jump\t// in\n        tag_254:\n            /* \"#utility.yul\":8415:8452   */\n        tag_253:\n            /* \"#utility.yul\":8265:8459   */\n          swap3\n          swap2\n          pop\n          pop\n          jump\t// out\n            /* \"#utility.yul\":8465:8689   */\n        tag_157:\n            /* \"#utility.yul\":8605:8639   */\n          0x45524332303a207472616e736665722066726f6d20746865207a65726f206164\n            /* \"#utility.yul\":8601:8602   */\n          0x00\n            /* \"#utility.yul\":8593:8599   */\n          dup3\n            /* \"#utility.yul\":8589:8603   */\n          add\n            /* \"#utility.yul\":8582:8640   */\n          mstore\n            /* \"#utility.yul\":8674:8681   */\n          0x6472657373000000000000000000000000000000000000000000000000000000\n            /* \"#utility.yul\":8669:8671   */\n          0x20\n            /* \"#utility.yul\":8661:8667   */\n          dup3\n            /* \"#utility.yul\":8657:8672   */\n          add\n            /* \"#utility.yul\":8650:8682   */\n          mstore\n            /* \"#utility.yul\":8465:8689   */\n          pop\n          jump\t// out\n            /* \"#utility.yul\":8695:9061   */\n        tag_158:\n            /* \"#utility.yul\":8837:8840   */\n          0x00\n            /* \"#utility.yul\":8858:8925   */\n          tag_257\n            /* \"#utility.yul\":8922:8924   */\n          0x25\n            /* \"#utility.yul\":8917:8920   */\n          dup4\n            /* \"#utility.yul\":8858:8925   */\n          tag_132\n          jump\t// in\n        tag_257:\n            /* \"#utility.yul\":8851:8925   */\n          swap2\n          pop\n            /* \"#utility.yul\":8934:9027   */\n          tag_258\n            /* \"#utility.yul\":9023:9026   */\n          dup3\n            /* \"#utility.yul\":8934:9027   */\n          tag_157\n          jump\t// in\n        tag_258:\n            /* \"#utility.yul\":9052:9054   */\n          0x40\n            /* \"#utility.yul\":9047:9050   */\n          dup3\n            /* \"#utility.yul\":9043:9055   */\n          add\n            /* \"#utility.yul\":9036:9055   */\n          swap1\n          pop\n            /* \"#utility.yul\":8695:9061   */\n          swap2\n          swap1\n          pop\n          jump\t// out\n            /* \"#utility.yul\":9067:9486   */\n        tag_103:\n            /* \"#utility.yul\":9233:9237   */\n          0x00\n            /* \"#utility.yul\":9271:9273   */\n          0x20\n            /* \"#utility.yul\":9260:9269   */\n          dup3\n            /* \"#utility.yul\":9256:9274   */\n          add\n            /* \"#utility.yul\":9248:9274   */\n          swap1\n          pop\n            /* \"#utility.yul\":9320:9329   */\n          dup2\n            /* \"#utility.yul\":9314:9318   */\n          dup2\n            /* \"#utility.yul\":9310:9330   */\n          sub\n            /* \"#utility.yul\":9306:9307   */\n          0x00\n            /* \"#utility.yul\":9295:9304   */\n          dup4\n            /* \"#utility.yul\":9291:9308   */\n          add\n            /* \"#utility.yul\":9284:9331   */\n          mstore\n            /* \"#utility.yul\":9348:9479   */\n          tag_260\n            /* \"#utility.yul\":9474:9478   */\n          dup2\n            /* \"#utility.yul\":9348:9479   */\n          tag_158\n          jump\t// in\n        tag_260:\n            /* \"#utility.yul\":9340:9479   */\n          swap1\n          pop\n            /* \"#utility.yul\":9067:9486   */\n          swap2\n          swap1\n          pop\n          jump\t// out\n            /* \"#utility.yul\":9492:9714   */\n        tag_159:\n            /* \"#utility.yul\":9632:9666   */\n          0x45524332303a207472616e7366657220746f20746865207a65726f2061646472\n            /* \"#utility.yul\":9628:9629   */\n          0x00\n            /* \"#utility.yul\":9620:9626   */\n          dup3\n            /* \"#utility.yul\":9616:9630   */\n          add\n            /* \"#utility.yul\":9609:9667   */\n          mstore\n            /* \"#utility.yul\":9701:9706   */\n          0x6573730000000000000000000000000000000000000000000000000000000000\n            /* \"#utility.yul\":9696:9698   */\n          0x20\n            /* \"#utility.yul\":9688:9694   */\n          dup3\n            /* \"#utility.yul\":9684:9699   */\n          add\n            /* \"#utility.yul\":9677:9707   */\n          mstore\n            /* \"#utility.yul\":9492:9714   */\n          pop\n          jump\t// out\n            /* \"#utility.yul\":9720:10086   */\n        tag_160:\n            /* \"#utility.yul\":9862:9865   */\n          0x00\n            /* \"#utility.yul\":9883:9950   */\n          tag_263\n            /* \"#utility.yul\":9947:9949   */\n          0x23\n            /* \"#utility.yul\":9942:9945   */\n          dup4\n            /* \"#utility.yul\":9883:9950   */\n          tag_132\n          jump\t// in\n        tag_263:\n            /* \"#utility.yul\":9876:9950   */\n          swap2\n          pop\n            /* \"#utility.yul\":9959:10052   */\n          tag_264\n            /* \"#utility.yul\":10048:10051   */\n          dup3\n            /* \"#utility.yul\":9959:10052   */\n          tag_159\n          jump\t// in\n        tag_264:\n            /* \"#utility.yul\":10077:10079   */\n          0x40\n            /* \"#utility.yul\":10072:10075   */\n          dup3\n            /* \"#utility.yul\":10068:10080   */\n          add\n            /* \"#utility.yul\":10061:10080   */\n          swap1\n          pop\n            /* \"#utility.yul\":9720:10086   */\n          swap2\n          swap1\n          pop\n          jump\t// out\n            /* \"#utility.yul\":10092:10511   */\n        tag_106:\n            /* \"#utility.yul\":10258:10262   */\n          0x00\n            /* \"#utility.yul\":10296:10298   */\n          0x20\n            /* \"#utility.yul\":10285:10294   */\n          dup3\n            /* \"#utility.yul\":10281:10299   */\n          add\n            /* \"#utility.yul\":10273:10299   */\n          swap1\n          pop\n            /* \"#utility.yul\":10345:10354   */\n          dup2\n            /* \"#utility.yul\":10339:10343   */\n          dup2\n            /* \"#utility.yul\":10335:10355   */\n          sub\n            /* \"#utility.yul\":10331:10332   */\n          0x00\n            /* \"#utility.yul\":10320:10329   */\n          dup4\n            /* \"#utility.yul\":10316:10333   */\n          add\n            /* \"#utility.yul\":10309:10356   */\n          mstore\n            /* \"#utility.yul\":10373:10504   */\n          tag_266\n            /* \"#utility.yul\":10499:10503   */\n          dup2\n            /* \"#utility.yul\":10373:10504   */\n          tag_160\n          jump\t// in\n        tag_266:\n            /* \"#utility.yul\":10365:10504   */\n          swap1\n          pop\n            /* \"#utility.yul\":10092:10511   */\n          swap2\n          swap1\n          pop\n          jump\t// out\n            /* \"#utility.yul\":10517:10742   */\n        tag_161:\n            /* \"#utility.yul\":10657:10691   */\n          0x45524332303a207472616e7366657220616d6f756e7420657863656564732062\n            /* \"#utility.yul\":10653:10654   */\n          0x00\n            /* \"#utility.yul\":10645:10651   */\n          dup3\n            /* \"#utility.yul\":10641:10655   */\n          add\n            /* \"#utility.yul\":10634:10692   */\n          mstore\n            /* \"#utility.yul\":10726:10734   */\n          0x616c616e63650000000000000000000000000000000000000000000000000000\n            /* \"#utility.yul\":10721:10723   */\n          0x20\n            /* \"#utility.yul\":10713:10719   */\n          dup3\n            /* \"#utility.yul\":10709:10724   */\n          add\n            /* \"#utility.yul\":10702:10735   */\n          mstore\n            /* \"#utility.yul\":10517:10742   */\n          pop\n          jump\t// out\n            /* \"#utility.yul\":10748:11114   */\n        tag_162:\n            /* \"#utility.yul\":10890:10893   */\n          0x00\n            /* \"#utility.yul\":10911:10978   */\n          tag_269\n            /* \"#utility.yul\":10975:10977   */\n          0x26\n            /* \"#utility.yul\":10970:10973   */\n          dup4\n            /* \"#utility.yul\":10911:10978   */\n          tag_132\n          jump\t// in\n        tag_269:\n            /* \"#utility.yul\":10904:10978   */\n          swap2\n          pop\n            /* \"#utility.yul\":10987:11080   */\n          tag_270\n            /* \"#utility.yul\":11076:11079   */\n          dup3\n            /* \"#utility.yul\":10987:11080   */\n          tag_161\n          jump\t// in\n        tag_270:\n            /* \"#utility.yul\":11105:11107   */\n          0x40\n            /* \"#utility.yul\":11100:11103   */\n          dup3\n            /* \"#utility.yul\":11096:11108   */\n          add\n            /* \"#utility.yul\":11089:11108   */\n          swap1\n          pop\n            /* \"#utility.yul\":10748:11114   */\n          swap2\n          swap1\n          pop\n          jump\t// out\n            /* \"#utility.yul\":11120:11539   */\n        tag_109:\n            /* \"#utility.yul\":11286:11290   */\n          0x00\n            /* \"#utility.yul\":11324:11326   */\n          0x20\n            /* \"#utility.yul\":11313:11322   */\n          dup3\n            /* \"#utility.yul\":11309:11327   */\n          add\n            /* \"#utility.yul\":11301:11327   */\n          swap1\n          pop\n            /* \"#utility.yul\":11373:11382   */\n          dup2\n            /* \"#utility.yul\":11367:11371   */\n          dup2\n            /* \"#utility.yul\":11363:11383   */\n          sub\n            /* \"#utility.yul\":11359:11360   */\n          0x00\n            /* \"#utility.yul\":11348:11357   */\n          dup4\n            /* \"#utility.yul\":11344:11361   */\n          add\n            /* \"#utility.yul\":11337:11384   */\n          mstore\n            /* \"#utility.yul\":11401:11532   */\n          tag_272\n            /* \"#utility.yul\":11527:11531   */\n          dup2\n            /* \"#utility.yul\":11401:11532   */\n          tag_162\n          jump\t// in\n        tag_272:\n            /* \"#utility.yul\":11393:11532   */\n          swap1\n          pop\n            /* \"#utility.yul\":11120:11539   */\n          swap2\n          swap1\n          pop\n          jump\t// out\n            /* \"#utility.yul\":11545:11736   */\n        tag_112:\n            /* \"#utility.yul\":11585:11588   */\n          0x00\n            /* \"#utility.yul\":11604:11624   */\n          tag_274\n            /* \"#utility.yul\":11622:11623   */\n          dup3\n            /* \"#utility.yul\":11604:11624   */\n          tag_143\n          jump\t// in\n        tag_274:\n            /* \"#utility.yul\":11599:11624   */\n          swap2\n          pop\n            /* \"#utility.yul\":11638:11658   */\n          tag_275\n            /* \"#utility.yul\":11656:11657   */\n          dup4\n            /* \"#utility.yul\":11638:11658   */\n          tag_143\n          jump\t// in\n        tag_275:\n            /* \"#utility.yul\":11633:11658   */\n          swap3\n          pop\n            /* \"#utility.yul\":11681:11682   */\n          dup3\n            /* \"#utility.yul\":11678:11679   */\n          dup3\n            /* \"#utility.yul\":11674:11683   */\n          add\n            /* \"#utility.yul\":11667:11683   */\n          swap1\n          pop\n            /* \"#utility.yul\":11702:11705   */\n          dup1\n            /* \"#utility.yul\":11699:11700   */\n          dup3\n            /* \"#utility.yul\":11696:11706   */\n          gt\n            /* \"#utility.yul\":11693:11729   */\n          iszero\n          tag_276\n          jumpi\n            /* \"#utility.yul\":11709:11727   */\n          tag_277\n          tag_156\n          jump\t// in\n        tag_277:\n            /* \"#utility.yul\":11693:11729   */\n        tag_276:\n            /* \"#utility.yul\":11545:11736   */\n          swap3\n          swap2\n          pop\n          pop\n          jump\t// out\n            /* \"#utility.yul\":11742:11923   */\n        tag_163:\n            /* \"#utility.yul\":11882:11915   */\n          0x45524332303a206d696e7420746f20746865207a65726f206164647265737300\n            /* \"#utility.yul\":11878:11879   */\n          0x00\n            /* \"#utility.yul\":11870:11876   */\n          dup3\n            /* \"#utility.yul\":11866:11880   */\n          add\n            /* \"#utility.yul\":11859:11916   */\n          mstore\n            /* \"#utility.yul\":11742:11923   */\n          pop\n          jump\t// out\n            /* \"#utility.yul\":11929:12295   */\n        tag_164:\n            /* \"#utility.yul\":12071:12074   */\n          0x00\n            /* \"#utility.yul\":12092:12159   */\n          tag_280\n            /* \"#utility.yul\":12156:12158   */\n          0x1f\n            /* \"#utility.yul\":12151:12154   */\n          dup4\n            /* \"#utility.yul\":12092:12159   */\n          tag_132\n          jump\t// in\n        tag_280:\n            /* \"#utility.yul\":12085:12159   */\n          swap2\n          pop\n            /* \"#utility.yul\":12168:12261   */\n          tag_281\n            /* \"#utility.yul\":12257:12260   */\n          dup3\n            /* \"#utility.yul\":12168:12261   */\n          tag_163\n          jump\t// in\n        tag_281:\n            /* \"#utility.yul\":12286:12288   */\n          0x20\n            /* \"#utility.yul\":12281:12284   */\n          dup3\n            /* \"#utility.yul\":12277:12289   */\n          add\n            /* \"#utility.yul\":12270:12289   */\n          swap1\n          pop\n            /* \"#utility.yul\":11929:12295   */\n          swap2\n          swap1\n          pop\n          jump\t// out\n            /* \"#utility.yul\":12301:12720   */\n        tag_117:\n            /* \"#utility.yul\":12467:12471   */\n          0x00\n            /* \"#utility.yul\":12505:12507   */\n          0x20\n            /* \"#utility.yul\":12494:12503   */\n          dup3\n            /* \"#utility.yul\":12490:12508   */\n          add\n            /* \"#utility.yul\":12482:12508   */\n          swap1\n          pop\n            /* \"#utility.yul\":12554:12563   */\n          dup2\n            /* \"#utility.yul\":12548:12552   */\n          dup2\n            /* \"#utility.yul\":12544:12564   */\n          sub\n            /* \"#utility.yul\":12540:12541   */\n          0x00\n            /* \"#utility.yul\":12529:12538   */\n          dup4\n            /* \"#utility.yul\":12525:12542   */\n          add\n            /* \"#utility.yul\":12518:12565   */\n          mstore\n            /* \"#utility.yul\":12582:12713   */\n          tag_283\n            /* \"#utility.yul\":12708:12712   */\n          dup2\n            /* \"#utility.yul\":12582:12713   */\n          tag_164\n          jump\t// in\n        tag_283:\n            /* \"#utility.yul\":12574:12713   */\n          swap1\n          pop\n            /* \"#utility.yul\":12301:12720   */\n          swap2\n          swap1\n          pop\n          jump\t// out\n            /* \"#utility.yul\":12726:12890   */\n        tag_165:\n            /* \"#utility.yul\":12866:12882   */\n          0x4e6f206861792061646472657373000000000000000000000000000000000000\n            /* \"#utility.yul\":12862:12863   */\n          0x00\n            /* \"#utility.yul\":12854:12860   */\n          dup3\n            /* \"#utility.yul\":12850:12864   */\n          add\n            /* \"#utility.yul\":12843:12883   */\n          mstore\n            /* \"#utility.yul\":12726:12890   */\n          pop\n          jump\t// out\n            /* \"#utility.yul\":12896:13262   */\n        tag_166:\n            /* \"#utility.yul\":13038:13041   */\n          0x00\n            /* \"#utility.yul\":13059:13126   */\n          tag_286\n            /* \"#utility.yul\":13123:13125   */\n          0x0e\n            /* \"#utility.yul\":13118:13121   */\n          dup4\n            /* \"#utility.yul\":13059:13126   */\n          tag_132\n          jump\t// in\n        tag_286:\n            /* \"#utility.yul\":13052:13126   */\n          swap2\n          pop\n            /* \"#utility.yul\":13135:13228   */\n          tag_287\n            /* \"#utility.yul\":13224:13227   */\n          dup3\n            /* \"#utility.yul\":13135:13228   */\n          tag_165\n          jump\t// in\n        tag_287:\n            /* \"#utility.yul\":13253:13255   */\n          0x20\n            /* \"#utility.yul\":13248:13251   */\n          dup3\n            /* \"#utility.yul\":13244:13256   */\n          add\n            /* \"#utility.yul\":13237:13256   */\n          swap1\n          pop\n            /* \"#utility.yul\":12896:13262   */\n          swap2\n          swap1\n          pop\n          jump\t// out\n            /* \"#utility.yul\":13268:13687   */\n        tag_124:\n            /* \"#utility.yul\":13434:13438   */\n          0x00\n            /* \"#utility.yul\":13472:13474   */\n          0x20\n            /* \"#utility.yul\":13461:13470   */\n          dup3\n            /* \"#utility.yul\":13457:13475   */\n          add\n            /* \"#utility.yul\":13449:13475   */\n          swap1\n          pop\n            /* \"#utility.yul\":13521:13530   */\n          dup2\n            /* \"#utility.yul\":13515:13519   */\n          dup2\n            /* \"#utility.yul\":13511:13531   */\n          sub\n            /* \"#utility.yul\":13507:13508   */\n          0x00\n            /* \"#utility.yul\":13496:13505   */\n          dup4\n            /* \"#utility.yul\":13492:13509   */\n          add\n            /* \"#utility.yul\":13485:13532   */\n          mstore\n            /* \"#utility.yul\":13549:13680   */\n          tag_289\n            /* \"#utility.yul\":13675:13679   */\n          dup2\n            /* \"#utility.yul\":13549:13680   */\n          tag_166\n          jump\t// in\n        tag_289:\n            /* \"#utility.yul\":13541:13680   */\n          swap1\n          pop\n            /* \"#utility.yul\":13268:13687   */\n          swap2\n          swap1\n          pop\n          jump\t// out\n            /* \"#utility.yul\":13693:13869   */\n        tag_167:\n            /* \"#utility.yul\":13833:13861   */\n          0x4e6f2068617920737566696369656e74657320746f6b656e732e000000000000\n            /* \"#utility.yul\":13829:13830   */\n          0x00\n            /* \"#utility.yul\":13821:13827   */\n          dup3\n            /* \"#utility.yul\":13817:13831   */\n          add\n            /* \"#utility.yul\":13810:13862   */\n          mstore\n            /* \"#utility.yul\":13693:13869   */\n          pop\n          jump\t// out\n            /* \"#utility.yul\":13875:14241   */\n        tag_168:\n            /* \"#utility.yul\":14017:14020   */\n          0x00\n            /* \"#utility.yul\":14038:14105   */\n          tag_292\n            /* \"#utility.yul\":14102:14104   */\n          0x1a\n            /* \"#utility.yul\":14097:14100   */\n          dup4\n            /* \"#utility.yul\":14038:14105   */\n          tag_132\n          jump\t// in\n        tag_292:\n            /* \"#utility.yul\":14031:14105   */\n          swap2\n          pop\n            /* \"#utility.yul\":14114:14207   */\n          tag_293\n            /* \"#utility.yul\":14203:14206   */\n          dup3\n            /* \"#utility.yul\":14114:14207   */\n          tag_167\n          jump\t// in\n        tag_293:\n            /* \"#utility.yul\":14232:14234   */\n          0x20\n            /* \"#utility.yul\":14227:14230   */\n          dup3\n            /* \"#utility.yul\":14223:14235   */\n          add\n            /* \"#utility.yul\":14216:14235   */\n          swap1\n          pop\n            /* \"#utility.yul\":13875:14241   */\n          swap2\n          swap1\n          pop\n          jump\t// out\n            /* \"#utility.yul\":14247:14666   */\n        tag_127:\n            /* \"#utility.yul\":14413:14417   */\n          0x00\n            /* \"#utility.yul\":14451:14453   */\n          0x20\n            /* \"#utility.yul\":14440:14449   */\n          dup3\n            /* \"#utility.yul\":14436:14454   */\n          add\n            /* \"#utility.yul\":14428:14454   */\n          swap1\n          pop\n            /* \"#utility.yul\":14500:14509   */\n          dup2\n            /* \"#utility.yul\":14494:14498   */\n          dup2\n            /* \"#utility.yul\":14490:14510   */\n          sub\n            /* \"#utility.yul\":14486:14487   */\n          0x00\n            /* \"#utility.yul\":14475:14484   */\n          dup4\n            /* \"#utility.yul\":14471:14488   */\n          add\n            /* \"#utility.yul\":14464:14511   */\n          mstore\n            /* \"#utility.yul\":14528:14659   */\n          tag_295\n            /* \"#utility.yul\":14654:14658   */\n          dup2\n            /* \"#utility.yul\":14528:14659   */\n          tag_168\n          jump\t// in\n        tag_295:\n            /* \"#utility.yul\":14520:14659   */\n          swap1\n          pop\n            /* \"#utility.yul\":14247:14666   */\n          swap2\n          swap1\n          pop\n          jump\t// out\n\n        auxdata: 0xa26469706673582212208414b2239914425ef28bab31b21608c806b8a1e0aefc8a746f6dd9f8a53f831164736f6c634300081f0033\n    }\n}\n",
				"bytecode": {
					"linkReferences": {},
					"object": "608060405234801561000f575f5ffd5b50604051613877380380613877833981810160405281019061003191906102c3565b3360025f6101000a81548173ffffffffffffffffffffffffffffffffffffffff021916908373ffffffffffffffffffffffffffffffffffffffff1602179055508484848460405161008190610100565b61008e94939291906103fe565b604051809103905ff0801580156100a7573d5f5f3e3d5ffd5b5060015f6101000a81548173ffffffffffffffffffffffffffffffffffffffff021916908373ffffffffffffffffffffffffffffffffffffffff160217905550805f90816100f5919061064c565b50505050505061071b565b611d2780611b5083390190565b5f604051905090565b5f5ffd5b5f5ffd5b5f5ffd5b5f5ffd5b5f601f19601f8301169050919050565b7f4e487b71000000000000000000000000000000000000000000000000000000005f52604160045260245ffd5b61016c82610126565b810181811067ffffffffffffffff8211171561018b5761018a610136565b5b80604052505050565b5f61019d61010d565b90506101a98282610163565b919050565b5f67ffffffffffffffff8211156101c8576101c7610136565b5b6101d182610126565b9050602081019050919050565b8281835e5f83830152505050565b5f6101fe6101f9846101ae565b610194565b90508281526020810184848401111561021a57610219610122565b5b6102258482856101de565b509392505050565b5f82601f8301126102415761024061011e565b5b81516102518482602086016101ec565b91505092915050565b5f60ff82169050919050565b61026f8161025a565b8114610279575f5ffd5b50565b5f8151905061028a81610266565b92915050565b5f819050919050565b6102a281610290565b81146102ac575f5ffd5b50565b5f815190506102bd81610299565b92915050565b5f5f5f5f5f60a086880312156102dc576102db610116565b5b5f86015167ffffffffffffffff8111156102f9576102f861011a565b5b6103058882890161022d565b955050602086015167ffffffffffffffff8111156103265761032561011a565b5b6103328882890161022d565b94505060406103438882890161027c565b9350506060610354888289016102af565b925050608086015167ffffffffffffffff8111156103755761037461011a565b5b6103818882890161022d565b9150509295509295909350565b5f81519050919050565b5f82825260208201905092915050565b5f6103b28261038e565b6103bc8185610398565b93506103cc8185602086016101de565b6103d581610126565b840191505092915050565b6103e98161025a565b82525050565b6103f881610290565b82525050565b5f6080820190508181035f83015261041681876103a8565b9050818103602083015261042a81866103a8565b905061043960408301856103e0565b61044660608301846103ef565b95945050505050565b7f4e487b71000000000000000000000000000000000000000000000000000000005f52602260045260245ffd5b5f600282049050600182168061049357607f821691505b6020821081036104a6576104a561044f565b5b50919050565b5f819050815f5260205f209050919050565b5f6020601f8301049050919050565b5f82821b905092915050565b5f600883026105087fffffffffffffffffffffffffffffffffffffffffffffffffffffffffffffffff826104cd565b61051286836104cd565b95508019841693508086168417925050509392505050565b5f819050919050565b5f61054d61054861054384610290565b61052a565b610290565b9050919050565b5f819050919050565b61056683610533565b61057a61057282610554565b8484546104d9565b825550505050565b5f5f905090565b610591610582565b61059c81848461055d565b505050565b5b818110156105bf576105b45f82610589565b6001810190506105a2565b5050565b601f821115610604576105d5816104ac565b6105de846104be565b810160208510156105ed578190505b6106016105f9856104be565b8301826105a1565b50505b505050565b5f82821c905092915050565b5f6106245f1984600802610609565b1980831691505092915050565b5f61063c8383610615565b9150826002028217905092915050565b6106558261038e565b67ffffffffffffffff81111561066e5761066d610136565b5b610678825461047c565b6106838282856105c3565b5f60209050601f8311600181146106b4575f84156106a2578287015190505b6106ac8582610631565b865550610713565b601f1984166106c2866104ac565b5f5b828110156106e9578489015182556001820191506020850194506020810190506106c4565b868310156107065784890151610702601f891682610615565b8355505b6001600288020188555050505b505050505050565b611428806107285f395ff3fe608060405234801561000f575f5ffd5b50600436106100cd575f3560e01c80638a0b48791161008a578063b31fae7011610064578063b31fae70146101e9578063c0001786146101f3578063c863a9721461020f578063f48a311b14610219576100cd565b80638a0b4879146101915780638da5cb5b146101ad578063a7269aab146101cb576100cd565b806309c20c3f146100d157806317d7de7c1461010157806321df0da71461011f57806332434a2e1461013d57806342966c6814610159578063484b973c14610175575b5f5ffd5b6100eb60048036038101906100e69190610b49565b610223565b6040516100f89190610b8c565b60405180910390f35b6101096102c4565b6040516101169190610c15565b60405180910390f35b610127610353565b6040516101349190610c90565b60405180910390f35b61015760048036038101906101529190610dd5565b61037b565b005b610173600480360381019061016e9190610e59565b6105a4565b005b61018f600480360381019061018a9190610e84565b610630565b005b6101ab60048036038101906101a69190610e59565b61074c565b005b6101b5610800565b6040516101c29190610ee2565b60405180910390f35b6101d3610825565b6040516101e09190610b8c565b60405180910390f35b6101f16108c4565b005b61020d60048036038101906102089190610e84565b610919565b005b610217610a35565b005b610221610a89565b005b5f60015f9054906101000a900473ffffffffffffffffffffffffffffffffffffffff1673ffffffffffffffffffffffffffffffffffffffff166370a08231836040518263ffffffff1660e01b815260040161027e9190610f0a565b602060405180830381865afa158015610299573d5f5f3e3d5ffd5b505050506040513d601f19601f820116820180604052508101906102bd9190610f37565b9050919050565b60605f80546102d290610f8f565b80601f01602080910402602001604051908101604052809291908181526020018280546102fe90610f8f565b80156103495780601f1061032057610100808354040283529160200191610349565b820191905f5260205f20905b81548152906001019060200180831161032c57829003601f168201915b5050505050905090565b5f60015f9054906101000a900473ffffffffffffffffffffffffffffffffffffffff16905090565b60025f9054906101000a900473ffffffffffffffffffffffffffffffffffffffff1673ffffffffffffffffffffffffffffffffffffffff163373ffffffffffffffffffffffffffffffffffffffff161461040a576040517f08c379a000000000000000000000000000000000000000000000000000000000815260040161040190611009565b60405180910390fd5b5f73ffffffffffffffffffffffffffffffffffffffff1660035f8473ffffffffffffffffffffffffffffffffffffffff1673ffffffffffffffffffffffffffffffffffffffff1681526020019081526020015f205f015f9054906101000a900473ffffffffffffffffffffffffffffffffffffffff1673ffffffffffffffffffffffffffffffffffffffff16146104d6576040517f08c379a00000000000000000000000000000000000000000000000000000000081526004016104cd90611071565b60405180910390fd5b5f60405180604001604052808473ffffffffffffffffffffffffffffffffffffffff1681526020018381525090508060035f8573ffffffffffffffffffffffffffffffffffffffff1673ffffffffffffffffffffffffffffffffffffffff1681526020019081526020015f205f820151815f015f6101000a81548173ffffffffffffffffffffffffffffffffffffffff021916908373ffffffffffffffffffffffffffffffffffffffff160217905550602082015181600101908161059b9190611226565b50905050505050565b60015f9054906101000a900473ffffffffffffffffffffffffffffffffffffffff1673ffffffffffffffffffffffffffffffffffffffff16639dc29fac33836040518363ffffffff1660e01b81526004016106009291906112f5565b5f604051808303815f87803b158015610617575f5ffd5b505af1158015610629573d5f5f3e3d5ffd5b5050505050565b60025f9054906101000a900473ffffffffffffffffffffffffffffffffffffffff1673ffffffffffffffffffffffffffffffffffffffff163373ffffffffffffffffffffffffffffffffffffffff16146106bf576040517f08c379a00000000000000000000000000000000000000000000000000000000081526004016106b690611009565b60405180910390fd5b60015f9054906101000a900473ffffffffffffffffffffffffffffffffffffffff1673ffffffffffffffffffffffffffffffffffffffff166340c10f1983836040518363ffffffff1660e01b815260040161071b9291906112f5565b5f604051808303815f87803b158015610732575f5ffd5b505af1158015610744573d5f5f3e3d5ffd5b505050505050565b5f60fa90506001821015610795576040517f08c379a000000000000000000000000000000000000000000000000000000000815260040161078c90611366565b60405180910390fd5b5f81836107a291906113b1565b90506107ad816105a4565b3373ffffffffffffffffffffffffffffffffffffffff167fd72f490c1449b88f0e0200c443d362eef0d62bf07d92319cfc46bdea7b8323fc846040516107f39190610b8c565b60405180910390a2505050565b60025f9054906101000a900473ffffffffffffffffffffffffffffffffffffffff1681565b5f60015f9054906101000a900473ffffffffffffffffffffffffffffffffffffffff1673ffffffffffffffffffffffffffffffffffffffff166370a08231336040518263ffffffff1660e01b81526004016108809190610f0a565b602060405180830381865afa15801561089b573d5f5f3e3d5ffd5b505050506040513d601f19601f820116820180604052508101906108bf9190610f37565b905090565b5f6101f490506108d3816105a4565b3373ffffffffffffffffffffffffffffffffffffffff167feb93ecee6f0fcbe7754f4fb0c84ba91b043ba19fe913e5c83b1857128ef9725160405160405180910390a250565b60025f9054906101000a900473ffffffffffffffffffffffffffffffffffffffff1673ffffffffffffffffffffffffffffffffffffffff163373ffffffffffffffffffffffffffffffffffffffff16146109a8576040517f08c379a000000000000000000000000000000000000000000000000000000000815260040161099f90611009565b60405180910390fd5b60015f9054906101000a900473ffffffffffffffffffffffffffffffffffffffff1673ffffffffffffffffffffffffffffffffffffffff16639dc29fac83836040518363ffffffff1660e01b8152600401610a049291906112f5565b5f604051808303815f87803b158015610a1b575f5ffd5b505af1158015610a2d573d5f5f3e3d5ffd5b505050505050565b5f60fa9050610a43816105a4565b3373ffffffffffffffffffffffffffffffffffffffff167fe0d90d47609fb99b5824a89addaa6a218ddfd2c9bb3384d96f51dde2b674012960405160405180910390a250565b5f6101f49050610a98816105a4565b3373ffffffffffffffffffffffffffffffffffffffff167fd736583d01c1cbd92a96fcb7456eb2682f1bec6e8268149b27bac50f450c9fee60405160405180910390a250565b5f604051905090565b5f5ffd5b5f5ffd5b5f73ffffffffffffffffffffffffffffffffffffffff82169050919050565b5f610b1882610aef565b9050919050565b610b2881610b0e565b8114610b32575f5ffd5b50565b5f81359050610b4381610b1f565b92915050565b5f60208284031215610b5e57610b5d610ae7565b5b5f610b6b84828501610b35565b91505092915050565b5f819050919050565b610b8681610b74565b82525050565b5f602082019050610b9f5f830184610b7d565b92915050565b5f81519050919050565b5f82825260208201905092915050565b8281835e5f83830152505050565b5f601f19601f8301169050919050565b5f610be782610ba5565b610bf18185610baf565b9350610c01818560208601610bbf565b610c0a81610bcd565b840191505092915050565b5f6020820190508181035f830152610c2d8184610bdd565b905092915050565b5f819050919050565b5f610c58610c53610c4e84610aef565b610c35565b610aef565b9050919050565b5f610c6982610c3e565b9050919050565b5f610c7a82610c5f565b9050919050565b610c8a81610c70565b82525050565b5f602082019050610ca35f830184610c81565b92915050565b5f5ffd5b5f5ffd5b7f4e487b71000000000000000000000000000000000000000000000000000000005f52604160045260245ffd5b610ce782610bcd565b810181811067ffffffffffffffff82111715610d0657610d05610cb1565b5b80604052505050565b5f610d18610ade565b9050610d248282610cde565b919050565b5f67ffffffffffffffff821115610d4357610d42610cb1565b5b610d4c82610bcd565b9050602081019050919050565b828183375f83830152505050565b5f610d79610d7484610d29565b610d0f565b905082815260208101848484011115610d9557610d94610cad565b5b610da0848285610d59565b509392505050565b5f82601f830112610dbc57610dbb610ca9565b5b8135610dcc848260208601610d67565b91505092915050565b5f5f60408385031215610deb57610dea610ae7565b5b5f610df885828601610b35565b925050602083013567ffffffffffffffff811115610e1957610e18610aeb565b5b610e2585828601610da8565b9150509250929050565b610e3881610b74565b8114610e42575f5ffd5b50565b5f81359050610e5381610e2f565b92915050565b5f60208284031215610e6e57610e6d610ae7565b5b5f610e7b84828501610e45565b91505092915050565b5f5f60408385031215610e9a57610e99610ae7565b5b5f610ea785828601610b35565b9250506020610eb885828601610e45565b9150509250929050565b5f610ecc82610aef565b9050919050565b610edc81610ec2565b82525050565b5f602082019050610ef55f830184610ed3565b92915050565b610f0481610b0e565b82525050565b5f602082019050610f1d5f830184610efb565b92915050565b5f81519050610f3181610e2f565b92915050565b5f60208284031215610f4c57610f4b610ae7565b5b5f610f5984828501610f23565b91505092915050565b7f4e487b71000000000000000000000000000000000000000000000000000000005f52602260045260245ffd5b5f6002820490506001821680610fa657607f821691505b602082108103610fb957610fb8610f62565b5b50919050565b7f596f7520617265206e6f7420746865206f776e657200000000000000000000005f82015250565b5f610ff3601583610baf565b9150610ffe82610fbf565b602082019050919050565b5f6020820190508181035f83015261102081610fe7565b9050919050565b7f50617373656e67657220697320616c72656164792072656769737465726564005f82015250565b5f61105b601f83610baf565b915061106682611027565b602082019050919050565b5f6020820190508181035f8301526110888161104f565b9050919050565b5f819050815f5260205f209050919050565b5f6020601f8301049050919050565b5f82821b905092915050565b5f600883026110eb7fffffffffffffffffffffffffffffffffffffffffffffffffffffffffffffffff826110b0565b6110f586836110b0565b95508019841693508086168417925050509392505050565b5f61112761112261111d84610b74565b610c35565b610b74565b9050919050565b5f819050919050565b6111408361110d565b61115461114c8261112e565b8484546110bc565b825550505050565b5f5f905090565b61116b61115c565b611176818484611137565b505050565b5b818110156111995761118e5f82611163565b60018101905061117c565b5050565b601f8211156111de576111af8161108f565b6111b8846110a1565b810160208510156111c7578190505b6111db6111d3856110a1565b83018261117b565b50505b505050565b5f82821c905092915050565b5f6111fe5f19846008026111e3565b1980831691505092915050565b5f61121683836111ef565b9150826002028217905092915050565b61122f82610ba5565b67ffffffffffffffff81111561124857611247610cb1565b5b6112528254610f8f565b61125d82828561119d565b5f60209050601f83116001811461128e575f841561127c578287015190505b611286858261120b565b8655506112ed565b601f19841661129c8661108f565b5f5b828110156112c35784890151825560018201915060208501945060208101905061129e565b868310156112e057848901516112dc601f8916826111ef565b8355505b6001600288020188555050505b505050505050565b5f6040820190506113085f830185610efb565b6113156020830184610b7d565b9392505050565b7f496e76616c696420616d6f756e740000000000000000000000000000000000005f82015250565b5f611350600e83610baf565b915061135b8261131c565b602082019050919050565b5f6020820190508181035f83015261137d81611344565b9050919050565b7f4e487b71000000000000000000000000000000000000000000000000000000005f52601160045260245ffd5b5f6113bb82610b74565b91506113c683610b74565b92508282026113d481610b74565b915082820484148315176113eb576113ea611384565b5b509291505056fea2646970667358221220c49683106aa09490731500add5fe4e3db40aa6f6430c2e768c20d0139684a97664736f6c634300081f0033608060405234801561000f575f5ffd5b50604051611d27380380611d278339818101604052810190610031919061037b565b835f908161003f919061061e565b50826001908161004f919061061e565b508160025f6101000a81548160ff021916908360ff16021790555061007a338261008360201b60201c565b505050506107ed565b5f73ffffffffffffffffffffffffffffffffffffffff168273ffffffffffffffffffffffffffffffffffffffff16036100f1576040517f08c379a00000000000000000000000000000000000000000000000000000000081526004016100e890610747565b60405180910390fd5b8060035f8282546101029190610792565b925050819055508060045f8473ffffffffffffffffffffffffffffffffffffffff1673ffffffffffffffffffffffffffffffffffffffff1681526020019081526020015f205f8282546101559190610792565b925050819055508173ffffffffffffffffffffffffffffffffffffffff165f73ffffffffffffffffffffffffffffffffffffffff167fddf252ad1be2c89b69c2b068fc378daa952ba7f163c4a11628f55a4df523b3ef836040516101b991906107d4565b60405180910390a35050565b5f604051905090565b5f5ffd5b5f5ffd5b5f5ffd5b5f5ffd5b5f601f19601f8301169050919050565b7f4e487b71000000000000000000000000000000000000000000000000000000005f52604160045260245ffd5b610224826101de565b810181811067ffffffffffffffff82111715610243576102426101ee565b5b80604052505050565b5f6102556101c5565b9050610261828261021b565b919050565b5f67ffffffffffffffff8211156102805761027f6101ee565b5b610289826101de565b9050602081019050919050565b8281835e5f83830152505050565b5f6102b66102b184610266565b61024c565b9050828152602081018484840111156102d2576102d16101da565b5b6102dd848285610296565b509392505050565b5f82601f8301126102f9576102f86101d6565b5b81516103098482602086016102a4565b91505092915050565b5f60ff82169050919050565b61032781610312565b8114610331575f5ffd5b50565b5f815190506103428161031e565b92915050565b5f819050919050565b61035a81610348565b8114610364575f5ffd5b50565b5f8151905061037581610351565b92915050565b5f5f5f5f60808587031215610393576103926101ce565b5b5f85015167ffffffffffffffff8111156103b0576103af6101d2565b5b6103bc878288016102e5565b945050602085015167ffffffffffffffff8111156103dd576103dc6101d2565b5b6103e9878288016102e5565b93505060406103fa87828801610334565b925050606061040b87828801610367565b91505092959194509250565b5f81519050919050565b7f4e487b71000000000000000000000000000000000000000000000000000000005f52602260045260245ffd5b5f600282049050600182168061046557607f821691505b60208210810361047857610477610421565b5b50919050565b5f819050815f5260205f209050919050565b5f6020601f8301049050919050565b5f82821b905092915050565b5f600883026104da7fffffffffffffffffffffffffffffffffffffffffffffffffffffffffffffffff8261049f565b6104e4868361049f565b95508019841693508086168417925050509392505050565b5f819050919050565b5f61051f61051a61051584610348565b6104fc565b610348565b9050919050565b5f819050919050565b61053883610505565b61054c61054482610526565b8484546104ab565b825550505050565b5f5f905090565b610563610554565b61056e81848461052f565b505050565b5b81811015610591576105865f8261055b565b600181019050610574565b5050565b601f8211156105d6576105a78161047e565b6105b084610490565b810160208510156105bf578190505b6105d36105cb85610490565b830182610573565b50505b505050565b5f82821c905092915050565b5f6105f65f19846008026105db565b1980831691505092915050565b5f61060e83836105e7565b9150826002028217905092915050565b61062782610417565b67ffffffffffffffff8111156106405761063f6101ee565b5b61064a825461044e565b610655828285610595565b5f60209050601f831160018114610686575f8415610674578287015190505b61067e8582610603565b8655506106e5565b601f1984166106948661047e565b5f5b828110156106bb57848901518255600182019150602085019450602081019050610696565b868310156106d857848901516106d4601f8916826105e7565b8355505b6001600288020188555050505b505050505050565b5f82825260208201905092915050565b7f45524332303a206d696e7420746f20746865207a65726f2061646472657373005f82015250565b5f610731601f836106ed565b915061073c826106fd565b602082019050919050565b5f6020820190508181035f83015261075e81610725565b9050919050565b7f4e487b71000000000000000000000000000000000000000000000000000000005f52601160045260245ffd5b5f61079c82610348565b91506107a783610348565b92508282019050808211156107bf576107be610765565b5b92915050565b6107ce81610348565b82525050565b5f6020820190506107e75f8301846107c5565b92915050565b61152d806107fa5f395ff3fe608060405234801561000f575f5ffd5b50600436106100a7575f3560e01c806340c10f191161006f57806340c10f191461016557806370a082311461018157806395d89b41146101b15780639dc29fac146101cf578063a9059cbb146101eb578063dd62ed3e1461021b576100a7565b806306fdde03146100ab578063095ea7b3146100c957806318160ddd146100f957806323b872dd14610117578063313ce56714610147575b5f5ffd5b6100b361024b565b6040516100c09190610df8565b60405180910390f35b6100e360048036038101906100de9190610ea9565b6102da565b6040516100f09190610f01565b60405180910390f35b610101610435565b60405161010e9190610f29565b60405180910390f35b610131600480360381019061012c9190610f42565b61043e565b60405161013e9190610f01565b60405180910390f35b61014f61067a565b60405161015c9190610fad565b60405180910390f35b61017f600480360381019061017a9190610ea9565b61068f565b005b61019b60048036038101906101969190610fc6565b61069d565b6040516101a89190610f29565b60405180910390f35b6101b96106e3565b6040516101c69190610df8565b60405180910390f35b6101e960048036038101906101e49190610ea9565b610773565b005b61020560048036038101906102009190610ea9565b610781565b6040516102129190610f01565b60405180910390f35b61023560048036038101906102309190610ff1565b610797565b6040516102429190610f29565b60405180910390f35b60605f80546102599061105c565b80601f01602080910402602001604051908101604052809291908181526020018280546102859061105c565b80156102d05780601f106102a7576101008083540402835291602001916102d0565b820191905f5260205f20905b8154815290600101906020018083116102b357829003601f168201915b5050505050905090565b5f5f73ffffffffffffffffffffffffffffffffffffffff168373ffffffffffffffffffffffffffffffffffffffff1603610349576040517f08c379a0000000000000000000000000000000000000000000000000000000008152600401610340906110fc565b60405180910390fd5b8160055f3373ffffffffffffffffffffffffffffffffffffffff1673ffffffffffffffffffffffffffffffffffffffff1681526020019081526020015f205f8573ffffffffffffffffffffffffffffffffffffffff1673ffffffffffffffffffffffffffffffffffffffff1681526020019081526020015f20819055508273ffffffffffffffffffffffffffffffffffffffff163373ffffffffffffffffffffffffffffffffffffffff167f8c5be1e5ebec7d5bd14f71427d1e84f3dd0314c0f7b2291e5b200ac8c7c3b925846040516104239190610f29565b60405180910390a36001905092915050565b5f600354905090565b5f5f60055f8673ffffffffffffffffffffffffffffffffffffffff1673ffffffffffffffffffffffffffffffffffffffff1681526020019081526020015f205f3373ffffffffffffffffffffffffffffffffffffffff1673ffffffffffffffffffffffffffffffffffffffff1681526020019081526020015f20549050828110156104fe576040517f08c379a00000000000000000000000000000000000000000000000000000000081526004016104f590611164565b60405180910390fd5b828161050a91906111af565b60055f8773ffffffffffffffffffffffffffffffffffffffff1673ffffffffffffffffffffffffffffffffffffffff1681526020019081526020015f205f3373ffffffffffffffffffffffffffffffffffffffff1673ffffffffffffffffffffffffffffffffffffffff1681526020019081526020015f20819055503373ffffffffffffffffffffffffffffffffffffffff168573ffffffffffffffffffffffffffffffffffffffff167f8c5be1e5ebec7d5bd14f71427d1e84f3dd0314c0f7b2291e5b200ac8c7c3b92560055f8973ffffffffffffffffffffffffffffffffffffffff1673ffffffffffffffffffffffffffffffffffffffff1681526020019081526020015f205f3373ffffffffffffffffffffffffffffffffffffffff1673ffffffffffffffffffffffffffffffffffffffff1681526020019081526020015f205460405161065b9190610f29565b60405180910390a361066e858585610819565b60019150509392505050565b5f60025f9054906101000a900460ff16905090565b6106998282610a84565b5050565b5f60045f8373ffffffffffffffffffffffffffffffffffffffff1673ffffffffffffffffffffffffffffffffffffffff1681526020019081526020015f20549050919050565b6060600180546106f29061105c565b80601f016020809104026020016040519081016040528092919081815260200182805461071e9061105c565b80156107695780601f1061074057610100808354040283529160200191610769565b820191905f5260205f20905b81548152906001019060200180831161074c57829003601f168201915b5050505050905090565b61077d8282610bc6565b5050565b5f61078d338484610819565b6001905092915050565b5f60055f8473ffffffffffffffffffffffffffffffffffffffff1673ffffffffffffffffffffffffffffffffffffffff1681526020019081526020015f205f8373ffffffffffffffffffffffffffffffffffffffff1673ffffffffffffffffffffffffffffffffffffffff1681526020019081526020015f2054905092915050565b5f73ffffffffffffffffffffffffffffffffffffffff168373ffffffffffffffffffffffffffffffffffffffff1603610887576040517f08c379a000000000000000000000000000000000000000000000000000000000815260040161087e90611252565b60405180910390fd5b5f73ffffffffffffffffffffffffffffffffffffffff168273ffffffffffffffffffffffffffffffffffffffff16036108f5576040517f08c379a00000000000000000000000000000000000000000000000000000000081526004016108ec906112e0565b60405180910390fd5b5f60045f8573ffffffffffffffffffffffffffffffffffffffff1673ffffffffffffffffffffffffffffffffffffffff1681526020019081526020015f2054905081811015610979576040517f08c379a00000000000000000000000000000000000000000000000000000000081526004016109709061136e565b60405180910390fd5b818161098591906111af565b60045f8673ffffffffffffffffffffffffffffffffffffffff1673ffffffffffffffffffffffffffffffffffffffff1681526020019081526020015f20819055508160045f8573ffffffffffffffffffffffffffffffffffffffff1673ffffffffffffffffffffffffffffffffffffffff1681526020019081526020015f205f828254610a12919061138c565b925050819055508273ffffffffffffffffffffffffffffffffffffffff168473ffffffffffffffffffffffffffffffffffffffff167fddf252ad1be2c89b69c2b068fc378daa952ba7f163c4a11628f55a4df523b3ef84604051610a769190610f29565b60405180910390a350505050565b5f73ffffffffffffffffffffffffffffffffffffffff168273ffffffffffffffffffffffffffffffffffffffff1603610af2576040517f08c379a0000000000000000000000000000000000000000000000000000000008152600401610ae990611409565b60405180910390fd5b8060035f828254610b03919061138c565b925050819055508060045f8473ffffffffffffffffffffffffffffffffffffffff1673ffffffffffffffffffffffffffffffffffffffff1681526020019081526020015f205f828254610b56919061138c565b925050819055508173ffffffffffffffffffffffffffffffffffffffff165f73ffffffffffffffffffffffffffffffffffffffff167fddf252ad1be2c89b69c2b068fc378daa952ba7f163c4a11628f55a4df523b3ef83604051610bba9190610f29565b60405180910390a35050565b5f73ffffffffffffffffffffffffffffffffffffffff168273ffffffffffffffffffffffffffffffffffffffff1603610c34576040517f08c379a0000000000000000000000000000000000000000000000000000000008152600401610c2b90611471565b60405180910390fd5b8060045f8473ffffffffffffffffffffffffffffffffffffffff1673ffffffffffffffffffffffffffffffffffffffff1681526020019081526020015f20541015610cb4576040517f08c379a0000000000000000000000000000000000000000000000000000000008152600401610cab906114d9565b60405180910390fd5b8060045f8473ffffffffffffffffffffffffffffffffffffffff1673ffffffffffffffffffffffffffffffffffffffff1681526020019081526020015f205f828254610d0091906111af565b925050819055508060035f828254610d1891906111af565b925050819055505f73ffffffffffffffffffffffffffffffffffffffff168273ffffffffffffffffffffffffffffffffffffffff167fddf252ad1be2c89b69c2b068fc378daa952ba7f163c4a11628f55a4df523b3ef83604051610d7c9190610f29565b60405180910390a35050565b5f81519050919050565b5f82825260208201905092915050565b8281835e5f83830152505050565b5f601f19601f8301169050919050565b5f610dca82610d88565b610dd48185610d92565b9350610de4818560208601610da2565b610ded81610db0565b840191505092915050565b5f6020820190508181035f830152610e108184610dc0565b905092915050565b5f5ffd5b5f73ffffffffffffffffffffffffffffffffffffffff82169050919050565b5f610e4582610e1c565b9050919050565b610e5581610e3b565b8114610e5f575f5ffd5b50565b5f81359050610e7081610e4c565b92915050565b5f819050919050565b610e8881610e76565b8114610e92575f5ffd5b50565b5f81359050610ea381610e7f565b92915050565b5f5f60408385031215610ebf57610ebe610e18565b5b5f610ecc85828601610e62565b9250506020610edd85828601610e95565b9150509250929050565b5f8115159050919050565b610efb81610ee7565b82525050565b5f602082019050610f145f830184610ef2565b92915050565b610f2381610e76565b82525050565b5f602082019050610f3c5f830184610f1a565b92915050565b5f5f5f60608486031215610f5957610f58610e18565b5b5f610f6686828701610e62565b9350506020610f7786828701610e62565b9250506040610f8886828701610e95565b9150509250925092565b5f60ff82169050919050565b610fa781610f92565b82525050565b5f602082019050610fc05f830184610f9e565b92915050565b5f60208284031215610fdb57610fda610e18565b5b5f610fe884828501610e62565b91505092915050565b5f5f6040838503121561100757611006610e18565b5b5f61101485828601610e62565b925050602061102585828601610e62565b9150509250929050565b7f4e487b71000000000000000000000000000000000000000000000000000000005f52602260045260245ffd5b5f600282049050600182168061107357607f821691505b6020821081036110865761108561102f565b5b50919050565b7f45524332303a20617070726f766520746f20746865207a65726f2061646472655f8201527f7373000000000000000000000000000000000000000000000000000000000000602082015250565b5f6110e6602283610d92565b91506110f18261108c565b604082019050919050565b5f6020820190508181035f830152611113816110da565b9050919050565b7f45524332303a20696e73756666696369656e7420616c6c6f77616e63650000005f82015250565b5f61114e601d83610d92565b91506111598261111a565b602082019050919050565b5f6020820190508181035f83015261117b81611142565b9050919050565b7f4e487b71000000000000000000000000000000000000000000000000000000005f52601160045260245ffd5b5f6111b982610e76565b91506111c483610e76565b92508282039050818111156111dc576111db611182565b5b92915050565b7f45524332303a207472616e736665722066726f6d20746865207a65726f2061645f8201527f6472657373000000000000000000000000000000000000000000000000000000602082015250565b5f61123c602583610d92565b9150611247826111e2565b604082019050919050565b5f6020820190508181035f83015261126981611230565b9050919050565b7f45524332303a207472616e7366657220746f20746865207a65726f20616464725f8201527f6573730000000000000000000000000000000000000000000000000000000000602082015250565b5f6112ca602383610d92565b91506112d582611270565b604082019050919050565b5f6020820190508181035f8301526112f7816112be565b9050919050565b7f45524332303a207472616e7366657220616d6f756e74206578636565647320625f8201527f616c616e63650000000000000000000000000000000000000000000000000000602082015250565b5f611358602683610d92565b9150611363826112fe565b604082019050919050565b5f6020820190508181035f8301526113858161134c565b9050919050565b5f61139682610e76565b91506113a183610e76565b92508282019050808211156113b9576113b8611182565b5b92915050565b7f45524332303a206d696e7420746f20746865207a65726f2061646472657373005f82015250565b5f6113f3601f83610d92565b91506113fe826113bf565b602082019050919050565b5f6020820190508181035f830152611420816113e7565b9050919050565b7f4e6f2068617920616464726573730000000000000000000000000000000000005f82015250565b5f61145b600e83610d92565b915061146682611427565b602082019050919050565b5f6020820190508181035f8301526114888161144f565b9050919050565b7f4e6f2068617920737566696369656e74657320746f6b656e732e0000000000005f82015250565b5f6114c3601a83610d92565b91506114ce8261148f565b602082019050919050565b5f6020820190508181035f8301526114f0816114b7565b905091905056fea26469706673582212208414b2239914425ef28bab31b21608c806b8a1e0aefc8a746f6dd9f8a53f831164736f6c634300081f0033",
					"opcodes": "PUSH1 0x80 PUSH1 0x40 MSTORE CALLVALUE DUP1 ISZERO PUSH2 0xF JUMPI PUSH0 PUSH0 REVERT JUMPDEST POP PUSH1 0x40 MLOAD PUSH2 0x3877 CODESIZE SUB DUP1 PUSH2 0x3877 DUP4 CODECOPY DUP2 DUP2 ADD PUSH1 0x40 MSTORE DUP2 ADD SWAP1 PUSH2 0x31 SWAP2 SWAP1 PUSH2 0x2C3 JUMP JUMPDEST CALLER PUSH1 0x2 PUSH0 PUSH2 0x100 EXP DUP2 SLOAD DUP2 PUSH20 0xFFFFFFFFFFFFFFFFFFFFFFFFFFFFFFFFFFFFFFFF MUL NOT AND SWAP1 DUP4 PUSH20 0xFFFFFFFFFFFFFFFFFFFFFFFFFFFFFFFFFFFFFFFF AND MUL OR SWAP1 SSTORE POP DUP5 DUP5 DUP5 DUP5 PUSH1 0x40 MLOAD PUSH2 0x81 SWAP1 PUSH2 0x100 JUMP JUMPDEST PUSH2 0x8E SWAP5 SWAP4 SWAP3 SWAP2 SWAP1 PUSH2 0x3FE JUMP JUMPDEST PUSH1 0x40 MLOAD DUP1 SWAP2 SUB SWAP1 PUSH0 CREATE DUP1 ISZERO DUP1 ISZERO PUSH2 0xA7 JUMPI RETURNDATASIZE PUSH0 PUSH0 RETURNDATACOPY RETURNDATASIZE PUSH0 REVERT JUMPDEST POP PUSH1 0x1 PUSH0 PUSH2 0x100 EXP DUP2 SLOAD DUP2 PUSH20 0xFFFFFFFFFFFFFFFFFFFFFFFFFFFFFFFFFFFFFFFF MUL NOT AND SWAP1 DUP4 PUSH20 0xFFFFFFFFFFFFFFFFFFFFFFFFFFFFFFFFFFFFFFFF AND MUL OR SWAP1 SSTORE POP DUP1 PUSH0 SWAP1 DUP2 PUSH2 0xF5 SWAP2 SWAP1 PUSH2 0x64C JUMP JUMPDEST POP POP POP POP POP POP PUSH2 0x71B JUMP JUMPDEST PUSH2 0x1D27 DUP1 PUSH2 0x1B50 DUP4 CODECOPY ADD SWAP1 JUMP JUMPDEST PUSH0 PUSH1 0x40 MLOAD SWAP1 POP SWAP1 JUMP JUMPDEST PUSH0 PUSH0 REVERT JUMPDEST PUSH0 PUSH0 REVERT JUMPDEST PUSH0 PUSH0 REVERT JUMPDEST PUSH0 PUSH0 REVERT JUMPDEST PUSH0 PUSH1 0x1F NOT PUSH1 0x1F DUP4 ADD AND SWAP1 POP SWAP2 SWAP1 POP JUMP JUMPDEST PUSH32 0x4E487B7100000000000000000000000000000000000000000000000000000000 PUSH0 MSTORE PUSH1 0x41 PUSH1 0x4 MSTORE PUSH1 0x24 PUSH0 REVERT JUMPDEST PUSH2 0x16C DUP3 PUSH2 0x126 JUMP JUMPDEST DUP2 ADD DUP2 DUP2 LT PUSH8 0xFFFFFFFFFFFFFFFF DUP3 GT OR ISZERO PUSH2 0x18B JUMPI PUSH2 0x18A PUSH2 0x136 JUMP JUMPDEST JUMPDEST DUP1 PUSH1 0x40 MSTORE POP POP POP JUMP JUMPDEST PUSH0 PUSH2 0x19D PUSH2 0x10D JUMP JUMPDEST SWAP1 POP PUSH2 0x1A9 DUP3 DUP3 PUSH2 0x163 JUMP JUMPDEST SWAP2 SWAP1 POP JUMP JUMPDEST PUSH0 PUSH8 0xFFFFFFFFFFFFFFFF DUP3 GT ISZERO PUSH2 0x1C8 JUMPI PUSH2 0x1C7 PUSH2 0x136 JUMP JUMPDEST JUMPDEST PUSH2 0x1D1 DUP3 PUSH2 0x126 JUMP JUMPDEST SWAP1 POP PUSH1 0x20 DUP2 ADD SWAP1 POP SWAP2 SWAP1 POP JUMP JUMPDEST DUP3 DUP2 DUP4 MCOPY PUSH0 DUP4 DUP4 ADD MSTORE POP POP POP JUMP JUMPDEST PUSH0 PUSH2 0x1FE PUSH2 0x1F9 DUP5 PUSH2 0x1AE JUMP JUMPDEST PUSH2 0x194 JUMP JUMPDEST SWAP1 POP DUP3 DUP2 MSTORE PUSH1 0x20 DUP2 ADD DUP5 DUP5 DUP5 ADD GT ISZERO PUSH2 0x21A JUMPI PUSH2 0x219 PUSH2 0x122 JUMP JUMPDEST JUMPDEST PUSH2 0x225 DUP5 DUP3 DUP6 PUSH2 0x1DE JUMP JUMPDEST POP SWAP4 SWAP3 POP POP POP JUMP JUMPDEST PUSH0 DUP3 PUSH1 0x1F DUP4 ADD SLT PUSH2 0x241 JUMPI PUSH2 0x240 PUSH2 0x11E JUMP JUMPDEST JUMPDEST DUP2 MLOAD PUSH2 0x251 DUP5 DUP3 PUSH1 0x20 DUP7 ADD PUSH2 0x1EC JUMP JUMPDEST SWAP2 POP POP SWAP3 SWAP2 POP POP JUMP JUMPDEST PUSH0 PUSH1 0xFF DUP3 AND SWAP1 POP SWAP2 SWAP1 POP JUMP JUMPDEST PUSH2 0x26F DUP2 PUSH2 0x25A JUMP JUMPDEST DUP2 EQ PUSH2 0x279 JUMPI PUSH0 PUSH0 REVERT JUMPDEST POP JUMP JUMPDEST PUSH0 DUP2 MLOAD SWAP1 POP PUSH2 0x28A DUP2 PUSH2 0x266 JUMP JUMPDEST SWAP3 SWAP2 POP POP JUMP JUMPDEST PUSH0 DUP2 SWAP1 POP SWAP2 SWAP1 POP JUMP JUMPDEST PUSH2 0x2A2 DUP2 PUSH2 0x290 JUMP JUMPDEST DUP2 EQ PUSH2 0x2AC JUMPI PUSH0 PUSH0 REVERT JUMPDEST POP JUMP JUMPDEST PUSH0 DUP2 MLOAD SWAP1 POP PUSH2 0x2BD DUP2 PUSH2 0x299 JUMP JUMPDEST SWAP3 SWAP2 POP POP JUMP JUMPDEST PUSH0 PUSH0 PUSH0 PUSH0 PUSH0 PUSH1 0xA0 DUP7 DUP9 SUB SLT ISZERO PUSH2 0x2DC JUMPI PUSH2 0x2DB PUSH2 0x116 JUMP JUMPDEST JUMPDEST PUSH0 DUP7 ADD MLOAD PUSH8 0xFFFFFFFFFFFFFFFF DUP2 GT ISZERO PUSH2 0x2F9 JUMPI PUSH2 0x2F8 PUSH2 0x11A JUMP JUMPDEST JUMPDEST PUSH2 0x305 DUP9 DUP3 DUP10 ADD PUSH2 0x22D JUMP JUMPDEST SWAP6 POP POP PUSH1 0x20 DUP7 ADD MLOAD PUSH8 0xFFFFFFFFFFFFFFFF DUP2 GT ISZERO PUSH2 0x326 JUMPI PUSH2 0x325 PUSH2 0x11A JUMP JUMPDEST JUMPDEST PUSH2 0x332 DUP9 DUP3 DUP10 ADD PUSH2 0x22D JUMP JUMPDEST SWAP5 POP POP PUSH1 0x40 PUSH2 0x343 DUP9 DUP3 DUP10 ADD PUSH2 0x27C JUMP JUMPDEST SWAP4 POP POP PUSH1 0x60 PUSH2 0x354 DUP9 DUP3 DUP10 ADD PUSH2 0x2AF JUMP JUMPDEST SWAP3 POP POP PUSH1 0x80 DUP7 ADD MLOAD PUSH8 0xFFFFFFFFFFFFFFFF DUP2 GT ISZERO PUSH2 0x375 JUMPI PUSH2 0x374 PUSH2 0x11A JUMP JUMPDEST JUMPDEST PUSH2 0x381 DUP9 DUP3 DUP10 ADD PUSH2 0x22D JUMP JUMPDEST SWAP2 POP POP SWAP3 SWAP6 POP SWAP3 SWAP6 SWAP1 SWAP4 POP JUMP JUMPDEST PUSH0 DUP2 MLOAD SWAP1 POP SWAP2 SWAP1 POP JUMP JUMPDEST PUSH0 DUP3 DUP3 MSTORE PUSH1 0x20 DUP3 ADD SWAP1 POP SWAP3 SWAP2 POP POP JUMP JUMPDEST PUSH0 PUSH2 0x3B2 DUP3 PUSH2 0x38E JUMP JUMPDEST PUSH2 0x3BC DUP2 DUP6 PUSH2 0x398 JUMP JUMPDEST SWAP4 POP PUSH2 0x3CC DUP2 DUP6 PUSH1 0x20 DUP7 ADD PUSH2 0x1DE JUMP JUMPDEST PUSH2 0x3D5 DUP2 PUSH2 0x126 JUMP JUMPDEST DUP5 ADD SWAP2 POP POP SWAP3 SWAP2 POP POP JUMP JUMPDEST PUSH2 0x3E9 DUP2 PUSH2 0x25A JUMP JUMPDEST DUP3 MSTORE POP POP JUMP JUMPDEST PUSH2 0x3F8 DUP2 PUSH2 0x290 JUMP JUMPDEST DUP3 MSTORE POP POP JUMP JUMPDEST PUSH0 PUSH1 0x80 DUP3 ADD SWAP1 POP DUP2 DUP2 SUB PUSH0 DUP4 ADD MSTORE PUSH2 0x416 DUP2 DUP8 PUSH2 0x3A8 JUMP JUMPDEST SWAP1 POP DUP2 DUP2 SUB PUSH1 0x20 DUP4 ADD MSTORE PUSH2 0x42A DUP2 DUP7 PUSH2 0x3A8 JUMP JUMPDEST SWAP1 POP PUSH2 0x439 PUSH1 0x40 DUP4 ADD DUP6 PUSH2 0x3E0 JUMP JUMPDEST PUSH2 0x446 PUSH1 0x60 DUP4 ADD DUP5 PUSH2 0x3EF JUMP JUMPDEST SWAP6 SWAP5 POP POP POP POP POP JUMP JUMPDEST PUSH32 0x4E487B7100000000000000000000000000000000000000000000000000000000 PUSH0 MSTORE PUSH1 0x22 PUSH1 0x4 MSTORE PUSH1 0x24 PUSH0 REVERT JUMPDEST PUSH0 PUSH1 0x2 DUP3 DIV SWAP1 POP PUSH1 0x1 DUP3 AND DUP1 PUSH2 0x493 JUMPI PUSH1 0x7F DUP3 AND SWAP2 POP JUMPDEST PUSH1 0x20 DUP3 LT DUP2 SUB PUSH2 0x4A6 JUMPI PUSH2 0x4A5 PUSH2 0x44F JUMP JUMPDEST JUMPDEST POP SWAP2 SWAP1 POP JUMP JUMPDEST PUSH0 DUP2 SWAP1 POP DUP2 PUSH0 MSTORE PUSH1 0x20 PUSH0 KECCAK256 SWAP1 POP SWAP2 SWAP1 POP JUMP JUMPDEST PUSH0 PUSH1 0x20 PUSH1 0x1F DUP4 ADD DIV SWAP1 POP SWAP2 SWAP1 POP JUMP JUMPDEST PUSH0 DUP3 DUP3 SHL SWAP1 POP SWAP3 SWAP2 POP POP JUMP JUMPDEST PUSH0 PUSH1 0x8 DUP4 MUL PUSH2 0x508 PUSH32 0xFFFFFFFFFFFFFFFFFFFFFFFFFFFFFFFFFFFFFFFFFFFFFFFFFFFFFFFFFFFFFFFF DUP3 PUSH2 0x4CD JUMP JUMPDEST PUSH2 0x512 DUP7 DUP4 PUSH2 0x4CD JUMP JUMPDEST SWAP6 POP DUP1 NOT DUP5 AND SWAP4 POP DUP1 DUP7 AND DUP5 OR SWAP3 POP POP POP SWAP4 SWAP3 POP POP POP JUMP JUMPDEST PUSH0 DUP2 SWAP1 POP SWAP2 SWAP1 POP JUMP JUMPDEST PUSH0 PUSH2 0x54D PUSH2 0x548 PUSH2 0x543 DUP5 PUSH2 0x290 JUMP JUMPDEST PUSH2 0x52A JUMP JUMPDEST PUSH2 0x290 JUMP JUMPDEST SWAP1 POP SWAP2 SWAP1 POP JUMP JUMPDEST PUSH0 DUP2 SWAP1 POP SWAP2 SWAP1 POP JUMP JUMPDEST PUSH2 0x566 DUP4 PUSH2 0x533 JUMP JUMPDEST PUSH2 0x57A PUSH2 0x572 DUP3 PUSH2 0x554 JUMP JUMPDEST DUP5 DUP5 SLOAD PUSH2 0x4D9 JUMP JUMPDEST DUP3 SSTORE POP POP POP POP JUMP JUMPDEST PUSH0 PUSH0 SWAP1 POP SWAP1 JUMP JUMPDEST PUSH2 0x591 PUSH2 0x582 JUMP JUMPDEST PUSH2 0x59C DUP2 DUP5 DUP5 PUSH2 0x55D JUMP JUMPDEST POP POP POP JUMP JUMPDEST JUMPDEST DUP2 DUP2 LT ISZERO PUSH2 0x5BF JUMPI PUSH2 0x5B4 PUSH0 DUP3 PUSH2 0x589 JUMP JUMPDEST PUSH1 0x1 DUP2 ADD SWAP1 POP PUSH2 0x5A2 JUMP JUMPDEST POP POP JUMP JUMPDEST PUSH1 0x1F DUP3 GT ISZERO PUSH2 0x604 JUMPI PUSH2 0x5D5 DUP2 PUSH2 0x4AC JUMP JUMPDEST PUSH2 0x5DE DUP5 PUSH2 0x4BE JUMP JUMPDEST DUP2 ADD PUSH1 0x20 DUP6 LT ISZERO PUSH2 0x5ED JUMPI DUP2 SWAP1 POP JUMPDEST PUSH2 0x601 PUSH2 0x5F9 DUP6 PUSH2 0x4BE JUMP JUMPDEST DUP4 ADD DUP3 PUSH2 0x5A1 JUMP JUMPDEST POP POP JUMPDEST POP POP POP JUMP JUMPDEST PUSH0 DUP3 DUP3 SHR SWAP1 POP SWAP3 SWAP2 POP POP JUMP JUMPDEST PUSH0 PUSH2 0x624 PUSH0 NOT DUP5 PUSH1 0x8 MUL PUSH2 0x609 JUMP JUMPDEST NOT DUP1 DUP4 AND SWAP2 POP POP SWAP3 SWAP2 POP POP JUMP JUMPDEST PUSH0 PUSH2 0x63C DUP4 DUP4 PUSH2 0x615 JUMP JUMPDEST SWAP2 POP DUP3 PUSH1 0x2 MUL DUP3 OR SWAP1 POP SWAP3 SWAP2 POP POP JUMP JUMPDEST PUSH2 0x655 DUP3 PUSH2 0x38E JUMP JUMPDEST PUSH8 0xFFFFFFFFFFFFFFFF DUP2 GT ISZERO PUSH2 0x66E JUMPI PUSH2 0x66D PUSH2 0x136 JUMP JUMPDEST JUMPDEST PUSH2 0x678 DUP3 SLOAD PUSH2 0x47C JUMP JUMPDEST PUSH2 0x683 DUP3 DUP3 DUP6 PUSH2 0x5C3 JUMP JUMPDEST PUSH0 PUSH1 0x20 SWAP1 POP PUSH1 0x1F DUP4 GT PUSH1 0x1 DUP2 EQ PUSH2 0x6B4 JUMPI PUSH0 DUP5 ISZERO PUSH2 0x6A2 JUMPI DUP3 DUP8 ADD MLOAD SWAP1 POP JUMPDEST PUSH2 0x6AC DUP6 DUP3 PUSH2 0x631 JUMP JUMPDEST DUP7 SSTORE POP PUSH2 0x713 JUMP JUMPDEST PUSH1 0x1F NOT DUP5 AND PUSH2 0x6C2 DUP7 PUSH2 0x4AC JUMP JUMPDEST PUSH0 JUMPDEST DUP3 DUP2 LT ISZERO PUSH2 0x6E9 JUMPI DUP5 DUP10 ADD MLOAD DUP3 SSTORE PUSH1 0x1 DUP3 ADD SWAP2 POP PUSH1 0x20 DUP6 ADD SWAP5 POP PUSH1 0x20 DUP2 ADD SWAP1 POP PUSH2 0x6C4 JUMP JUMPDEST DUP7 DUP4 LT ISZERO PUSH2 0x706 JUMPI DUP5 DUP10 ADD MLOAD PUSH2 0x702 PUSH1 0x1F DUP10 AND DUP3 PUSH2 0x615 JUMP JUMPDEST DUP4 SSTORE POP JUMPDEST PUSH1 0x1 PUSH1 0x2 DUP9 MUL ADD DUP9 SSTORE POP POP POP JUMPDEST POP POP POP POP POP POP JUMP JUMPDEST PUSH2 0x1428 DUP1 PUSH2 0x728 PUSH0 CODECOPY PUSH0 RETURN INVALID PUSH1 0x80 PUSH1 0x40 MSTORE CALLVALUE DUP1 ISZERO PUSH2 0xF JUMPI PUSH0 PUSH0 REVERT JUMPDEST POP PUSH1 0x4 CALLDATASIZE LT PUSH2 0xCD JUMPI PUSH0 CALLDATALOAD PUSH1 0xE0 SHR DUP1 PUSH4 0x8A0B4879 GT PUSH2 0x8A JUMPI DUP1 PUSH4 0xB31FAE70 GT PUSH2 0x64 JUMPI DUP1 PUSH4 0xB31FAE70 EQ PUSH2 0x1E9 JUMPI DUP1 PUSH4 0xC0001786 EQ PUSH2 0x1F3 JUMPI DUP1 PUSH4 0xC863A972 EQ PUSH2 0x20F JUMPI DUP1 PUSH4 0xF48A311B EQ PUSH2 0x219 JUMPI PUSH2 0xCD JUMP JUMPDEST DUP1 PUSH4 0x8A0B4879 EQ PUSH2 0x191 JUMPI DUP1 PUSH4 0x8DA5CB5B EQ PUSH2 0x1AD JUMPI DUP1 PUSH4 0xA7269AAB EQ PUSH2 0x1CB JUMPI PUSH2 0xCD JUMP JUMPDEST DUP1 PUSH4 0x9C20C3F EQ PUSH2 0xD1 JUMPI DUP1 PUSH4 0x17D7DE7C EQ PUSH2 0x101 JUMPI DUP1 PUSH4 0x21DF0DA7 EQ PUSH2 0x11F JUMPI DUP1 PUSH4 0x32434A2E EQ PUSH2 0x13D JUMPI DUP1 PUSH4 0x42966C68 EQ PUSH2 0x159 JUMPI DUP1 PUSH4 0x484B973C EQ PUSH2 0x175 JUMPI JUMPDEST PUSH0 PUSH0 REVERT JUMPDEST PUSH2 0xEB PUSH1 0x4 DUP1 CALLDATASIZE SUB DUP2 ADD SWAP1 PUSH2 0xE6 SWAP2 SWAP1 PUSH2 0xB49 JUMP JUMPDEST PUSH2 0x223 JUMP JUMPDEST PUSH1 0x40 MLOAD PUSH2 0xF8 SWAP2 SWAP1 PUSH2 0xB8C JUMP JUMPDEST PUSH1 0x40 MLOAD DUP1 SWAP2 SUB SWAP1 RETURN JUMPDEST PUSH2 0x109 PUSH2 0x2C4 JUMP JUMPDEST PUSH1 0x40 MLOAD PUSH2 0x116 SWAP2 SWAP1 PUSH2 0xC15 JUMP JUMPDEST PUSH1 0x40 MLOAD DUP1 SWAP2 SUB SWAP1 RETURN JUMPDEST PUSH2 0x127 PUSH2 0x353 JUMP JUMPDEST PUSH1 0x40 MLOAD PUSH2 0x134 SWAP2 SWAP1 PUSH2 0xC90 JUMP JUMPDEST PUSH1 0x40 MLOAD DUP1 SWAP2 SUB SWAP1 RETURN JUMPDEST PUSH2 0x157 PUSH1 0x4 DUP1 CALLDATASIZE SUB DUP2 ADD SWAP1 PUSH2 0x152 SWAP2 SWAP1 PUSH2 0xDD5 JUMP JUMPDEST PUSH2 0x37B JUMP JUMPDEST STOP JUMPDEST PUSH2 0x173 PUSH1 0x4 DUP1 CALLDATASIZE SUB DUP2 ADD SWAP1 PUSH2 0x16E SWAP2 SWAP1 PUSH2 0xE59 JUMP JUMPDEST PUSH2 0x5A4 JUMP JUMPDEST STOP JUMPDEST PUSH2 0x18F PUSH1 0x4 DUP1 CALLDATASIZE SUB DUP2 ADD SWAP1 PUSH2 0x18A SWAP2 SWAP1 PUSH2 0xE84 JUMP JUMPDEST PUSH2 0x630 JUMP JUMPDEST STOP JUMPDEST PUSH2 0x1AB PUSH1 0x4 DUP1 CALLDATASIZE SUB DUP2 ADD SWAP1 PUSH2 0x1A6 SWAP2 SWAP1 PUSH2 0xE59 JUMP JUMPDEST PUSH2 0x74C JUMP JUMPDEST STOP JUMPDEST PUSH2 0x1B5 PUSH2 0x800 JUMP JUMPDEST PUSH1 0x40 MLOAD PUSH2 0x1C2 SWAP2 SWAP1 PUSH2 0xEE2 JUMP JUMPDEST PUSH1 0x40 MLOAD DUP1 SWAP2 SUB SWAP1 RETURN JUMPDEST PUSH2 0x1D3 PUSH2 0x825 JUMP JUMPDEST PUSH1 0x40 MLOAD PUSH2 0x1E0 SWAP2 SWAP1 PUSH2 0xB8C JUMP JUMPDEST PUSH1 0x40 MLOAD DUP1 SWAP2 SUB SWAP1 RETURN JUMPDEST PUSH2 0x1F1 PUSH2 0x8C4 JUMP JUMPDEST STOP JUMPDEST PUSH2 0x20D PUSH1 0x4 DUP1 CALLDATASIZE SUB DUP2 ADD SWAP1 PUSH2 0x208 SWAP2 SWAP1 PUSH2 0xE84 JUMP JUMPDEST PUSH2 0x919 JUMP JUMPDEST STOP JUMPDEST PUSH2 0x217 PUSH2 0xA35 JUMP JUMPDEST STOP JUMPDEST PUSH2 0x221 PUSH2 0xA89 JUMP JUMPDEST STOP JUMPDEST PUSH0 PUSH1 0x1 PUSH0 SWAP1 SLOAD SWAP1 PUSH2 0x100 EXP SWAP1 DIV PUSH20 0xFFFFFFFFFFFFFFFFFFFFFFFFFFFFFFFFFFFFFFFF AND PUSH20 0xFFFFFFFFFFFFFFFFFFFFFFFFFFFFFFFFFFFFFFFF AND PUSH4 0x70A08231 DUP4 PUSH1 0x40 MLOAD DUP3 PUSH4 0xFFFFFFFF AND PUSH1 0xE0 SHL DUP2 MSTORE PUSH1 0x4 ADD PUSH2 0x27E SWAP2 SWAP1 PUSH2 0xF0A JUMP JUMPDEST PUSH1 0x20 PUSH1 0x40 MLOAD DUP1 DUP4 SUB DUP2 DUP7 GAS STATICCALL ISZERO DUP1 ISZERO PUSH2 0x299 JUMPI RETURNDATASIZE PUSH0 PUSH0 RETURNDATACOPY RETURNDATASIZE PUSH0 REVERT JUMPDEST POP POP POP POP PUSH1 0x40 MLOAD RETURNDATASIZE PUSH1 0x1F NOT PUSH1 0x1F DUP3 ADD AND DUP3 ADD DUP1 PUSH1 0x40 MSTORE POP DUP2 ADD SWAP1 PUSH2 0x2BD SWAP2 SWAP1 PUSH2 0xF37 JUMP JUMPDEST SWAP1 POP SWAP2 SWAP1 POP JUMP JUMPDEST PUSH1 0x60 PUSH0 DUP1 SLOAD PUSH2 0x2D2 SWAP1 PUSH2 0xF8F JUMP JUMPDEST DUP1 PUSH1 0x1F ADD PUSH1 0x20 DUP1 SWAP2 DIV MUL PUSH1 0x20 ADD PUSH1 0x40 MLOAD SWAP1 DUP2 ADD PUSH1 0x40 MSTORE DUP1 SWAP3 SWAP2 SWAP1 DUP2 DUP2 MSTORE PUSH1 0x20 ADD DUP3 DUP1 SLOAD PUSH2 0x2FE SWAP1 PUSH2 0xF8F JUMP JUMPDEST DUP1 ISZERO PUSH2 0x349 JUMPI DUP1 PUSH1 0x1F LT PUSH2 0x320 JUMPI PUSH2 0x100 DUP1 DUP4 SLOAD DIV MUL DUP4 MSTORE SWAP2 PUSH1 0x20 ADD SWAP2 PUSH2 0x349 JUMP JUMPDEST DUP3 ADD SWAP2 SWAP1 PUSH0 MSTORE PUSH1 0x20 PUSH0 KECCAK256 SWAP1 JUMPDEST DUP2 SLOAD DUP2 MSTORE SWAP1 PUSH1 0x1 ADD SWAP1 PUSH1 0x20 ADD DUP1 DUP4 GT PUSH2 0x32C JUMPI DUP3 SWAP1 SUB PUSH1 0x1F AND DUP3 ADD SWAP2 JUMPDEST POP POP POP POP POP SWAP1 POP SWAP1 JUMP JUMPDEST PUSH0 PUSH1 0x1 PUSH0 SWAP1 SLOAD SWAP1 PUSH2 0x100 EXP SWAP1 DIV PUSH20 0xFFFFFFFFFFFFFFFFFFFFFFFFFFFFFFFFFFFFFFFF AND SWAP1 POP SWAP1 JUMP JUMPDEST PUSH1 0x2 PUSH0 SWAP1 SLOAD SWAP1 PUSH2 0x100 EXP SWAP1 DIV PUSH20 0xFFFFFFFFFFFFFFFFFFFFFFFFFFFFFFFFFFFFFFFF AND PUSH20 0xFFFFFFFFFFFFFFFFFFFFFFFFFFFFFFFFFFFFFFFF AND CALLER PUSH20 0xFFFFFFFFFFFFFFFFFFFFFFFFFFFFFFFFFFFFFFFF AND EQ PUSH2 0x40A JUMPI PUSH1 0x40 MLOAD PUSH32 0x8C379A000000000000000000000000000000000000000000000000000000000 DUP2 MSTORE PUSH1 0x4 ADD PUSH2 0x401 SWAP1 PUSH2 0x1009 JUMP JUMPDEST PUSH1 0x40 MLOAD DUP1 SWAP2 SUB SWAP1 REVERT JUMPDEST PUSH0 PUSH20 0xFFFFFFFFFFFFFFFFFFFFFFFFFFFFFFFFFFFFFFFF AND PUSH1 0x3 PUSH0 DUP5 PUSH20 0xFFFFFFFFFFFFFFFFFFFFFFFFFFFFFFFFFFFFFFFF AND PUSH20 0xFFFFFFFFFFFFFFFFFFFFFFFFFFFFFFFFFFFFFFFF AND DUP2 MSTORE PUSH1 0x20 ADD SWAP1 DUP2 MSTORE PUSH1 0x20 ADD PUSH0 KECCAK256 PUSH0 ADD PUSH0 SWAP1 SLOAD SWAP1 PUSH2 0x100 EXP SWAP1 DIV PUSH20 0xFFFFFFFFFFFFFFFFFFFFFFFFFFFFFFFFFFFFFFFF AND PUSH20 0xFFFFFFFFFFFFFFFFFFFFFFFFFFFFFFFFFFFFFFFF AND EQ PUSH2 0x4D6 JUMPI PUSH1 0x40 MLOAD PUSH32 0x8C379A000000000000000000000000000000000000000000000000000000000 DUP2 MSTORE PUSH1 0x4 ADD PUSH2 0x4CD SWAP1 PUSH2 0x1071 JUMP JUMPDEST PUSH1 0x40 MLOAD DUP1 SWAP2 SUB SWAP1 REVERT JUMPDEST PUSH0 PUSH1 0x40 MLOAD DUP1 PUSH1 0x40 ADD PUSH1 0x40 MSTORE DUP1 DUP5 PUSH20 0xFFFFFFFFFFFFFFFFFFFFFFFFFFFFFFFFFFFFFFFF AND DUP2 MSTORE PUSH1 0x20 ADD DUP4 DUP2 MSTORE POP SWAP1 POP DUP1 PUSH1 0x3 PUSH0 DUP6 PUSH20 0xFFFFFFFFFFFFFFFFFFFFFFFFFFFFFFFFFFFFFFFF AND PUSH20 0xFFFFFFFFFFFFFFFFFFFFFFFFFFFFFFFFFFFFFFFF AND DUP2 MSTORE PUSH1 0x20 ADD SWAP1 DUP2 MSTORE PUSH1 0x20 ADD PUSH0 KECCAK256 PUSH0 DUP3 ADD MLOAD DUP2 PUSH0 ADD PUSH0 PUSH2 0x100 EXP DUP2 SLOAD DUP2 PUSH20 0xFFFFFFFFFFFFFFFFFFFFFFFFFFFFFFFFFFFFFFFF MUL NOT AND SWAP1 DUP4 PUSH20 0xFFFFFFFFFFFFFFFFFFFFFFFFFFFFFFFFFFFFFFFF AND MUL OR SWAP1 SSTORE POP PUSH1 0x20 DUP3 ADD MLOAD DUP2 PUSH1 0x1 ADD SWAP1 DUP2 PUSH2 0x59B SWAP2 SWAP1 PUSH2 0x1226 JUMP JUMPDEST POP SWAP1 POP POP POP POP POP JUMP JUMPDEST PUSH1 0x1 PUSH0 SWAP1 SLOAD SWAP1 PUSH2 0x100 EXP SWAP1 DIV PUSH20 0xFFFFFFFFFFFFFFFFFFFFFFFFFFFFFFFFFFFFFFFF AND PUSH20 0xFFFFFFFFFFFFFFFFFFFFFFFFFFFFFFFFFFFFFFFF AND PUSH4 0x9DC29FAC CALLER DUP4 PUSH1 0x40 MLOAD DUP4 PUSH4 0xFFFFFFFF AND PUSH1 0xE0 SHL DUP2 MSTORE PUSH1 0x4 ADD PUSH2 0x600 SWAP3 SWAP2 SWAP1 PUSH2 0x12F5 JUMP JUMPDEST PUSH0 PUSH1 0x40 MLOAD DUP1 DUP4 SUB DUP2 PUSH0 DUP8 DUP1 EXTCODESIZE ISZERO DUP1 ISZERO PUSH2 0x617 JUMPI PUSH0 PUSH0 REVERT JUMPDEST POP GAS CALL ISZERO DUP1 ISZERO PUSH2 0x629 JUMPI RETURNDATASIZE PUSH0 PUSH0 RETURNDATACOPY RETURNDATASIZE PUSH0 REVERT JUMPDEST POP POP POP POP POP JUMP JUMPDEST PUSH1 0x2 PUSH0 SWAP1 SLOAD SWAP1 PUSH2 0x100 EXP SWAP1 DIV PUSH20 0xFFFFFFFFFFFFFFFFFFFFFFFFFFFFFFFFFFFFFFFF AND PUSH20 0xFFFFFFFFFFFFFFFFFFFFFFFFFFFFFFFFFFFFFFFF AND CALLER PUSH20 0xFFFFFFFFFFFFFFFFFFFFFFFFFFFFFFFFFFFFFFFF AND EQ PUSH2 0x6BF JUMPI PUSH1 0x40 MLOAD PUSH32 0x8C379A000000000000000000000000000000000000000000000000000000000 DUP2 MSTORE PUSH1 0x4 ADD PUSH2 0x6B6 SWAP1 PUSH2 0x1009 JUMP JUMPDEST PUSH1 0x40 MLOAD DUP1 SWAP2 SUB SWAP1 REVERT JUMPDEST PUSH1 0x1 PUSH0 SWAP1 SLOAD SWAP1 PUSH2 0x100 EXP SWAP1 DIV PUSH20 0xFFFFFFFFFFFFFFFFFFFFFFFFFFFFFFFFFFFFFFFF AND PUSH20 0xFFFFFFFFFFFFFFFFFFFFFFFFFFFFFFFFFFFFFFFF AND PUSH4 0x40C10F19 DUP4 DUP4 PUSH1 0x40 MLOAD DUP4 PUSH4 0xFFFFFFFF AND PUSH1 0xE0 SHL DUP2 MSTORE PUSH1 0x4 ADD PUSH2 0x71B SWAP3 SWAP2 SWAP1 PUSH2 0x12F5 JUMP JUMPDEST PUSH0 PUSH1 0x40 MLOAD DUP1 DUP4 SUB DUP2 PUSH0 DUP8 DUP1 EXTCODESIZE ISZERO DUP1 ISZERO PUSH2 0x732 JUMPI PUSH0 PUSH0 REVERT JUMPDEST POP GAS CALL ISZERO DUP1 ISZERO PUSH2 0x744 JUMPI RETURNDATASIZE PUSH0 PUSH0 RETURNDATACOPY RETURNDATASIZE PUSH0 REVERT JUMPDEST POP POP POP POP POP POP JUMP JUMPDEST PUSH0 PUSH1 0xFA SWAP1 POP PUSH1 0x1 DUP3 LT ISZERO PUSH2 0x795 JUMPI PUSH1 0x40 MLOAD PUSH32 0x8C379A000000000000000000000000000000000000000000000000000000000 DUP2 MSTORE PUSH1 0x4 ADD PUSH2 0x78C SWAP1 PUSH2 0x1366 JUMP JUMPDEST PUSH1 0x40 MLOAD DUP1 SWAP2 SUB SWAP1 REVERT JUMPDEST PUSH0 DUP2 DUP4 PUSH2 0x7A2 SWAP2 SWAP1 PUSH2 0x13B1 JUMP JUMPDEST SWAP1 POP PUSH2 0x7AD DUP2 PUSH2 0x5A4 JUMP JUMPDEST CALLER PUSH20 0xFFFFFFFFFFFFFFFFFFFFFFFFFFFFFFFFFFFFFFFF AND PUSH32 0xD72F490C1449B88F0E0200C443D362EEF0D62BF07D92319CFC46BDEA7B8323FC DUP5 PUSH1 0x40 MLOAD PUSH2 0x7F3 SWAP2 SWAP1 PUSH2 0xB8C JUMP JUMPDEST PUSH1 0x40 MLOAD DUP1 SWAP2 SUB SWAP1 LOG2 POP POP POP JUMP JUMPDEST PUSH1 0x2 PUSH0 SWAP1 SLOAD SWAP1 PUSH2 0x100 EXP SWAP1 DIV PUSH20 0xFFFFFFFFFFFFFFFFFFFFFFFFFFFFFFFFFFFFFFFF AND DUP2 JUMP JUMPDEST PUSH0 PUSH1 0x1 PUSH0 SWAP1 SLOAD SWAP1 PUSH2 0x100 EXP SWAP1 DIV PUSH20 0xFFFFFFFFFFFFFFFFFFFFFFFFFFFFFFFFFFFFFFFF AND PUSH20 0xFFFFFFFFFFFFFFFFFFFFFFFFFFFFFFFFFFFFFFFF AND PUSH4 0x70A08231 CALLER PUSH1 0x40 MLOAD DUP3 PUSH4 0xFFFFFFFF AND PUSH1 0xE0 SHL DUP2 MSTORE PUSH1 0x4 ADD PUSH2 0x880 SWAP2 SWAP1 PUSH2 0xF0A JUMP JUMPDEST PUSH1 0x20 PUSH1 0x40 MLOAD DUP1 DUP4 SUB DUP2 DUP7 GAS STATICCALL ISZERO DUP1 ISZERO PUSH2 0x89B JUMPI RETURNDATASIZE PUSH0 PUSH0 RETURNDATACOPY RETURNDATASIZE PUSH0 REVERT JUMPDEST POP POP POP POP PUSH1 0x40 MLOAD RETURNDATASIZE PUSH1 0x1F NOT PUSH1 0x1F DUP3 ADD AND DUP3 ADD DUP1 PUSH1 0x40 MSTORE POP DUP2 ADD SWAP1 PUSH2 0x8BF SWAP2 SWAP1 PUSH2 0xF37 JUMP JUMPDEST SWAP1 POP SWAP1 JUMP JUMPDEST PUSH0 PUSH2 0x1F4 SWAP1 POP PUSH2 0x8D3 DUP2 PUSH2 0x5A4 JUMP JUMPDEST CALLER PUSH20 0xFFFFFFFFFFFFFFFFFFFFFFFFFFFFFFFFFFFFFFFF AND PUSH32 0xEB93ECEE6F0FCBE7754F4FB0C84BA91B043BA19FE913E5C83B1857128EF97251 PUSH1 0x40 MLOAD PUSH1 0x40 MLOAD DUP1 SWAP2 SUB SWAP1 LOG2 POP JUMP JUMPDEST PUSH1 0x2 PUSH0 SWAP1 SLOAD SWAP1 PUSH2 0x100 EXP SWAP1 DIV PUSH20 0xFFFFFFFFFFFFFFFFFFFFFFFFFFFFFFFFFFFFFFFF AND PUSH20 0xFFFFFFFFFFFFFFFFFFFFFFFFFFFFFFFFFFFFFFFF AND CALLER PUSH20 0xFFFFFFFFFFFFFFFFFFFFFFFFFFFFFFFFFFFFFFFF AND EQ PUSH2 0x9A8 JUMPI PUSH1 0x40 MLOAD PUSH32 0x8C379A000000000000000000000000000000000000000000000000000000000 DUP2 MSTORE PUSH1 0x4 ADD PUSH2 0x99F SWAP1 PUSH2 0x1009 JUMP JUMPDEST PUSH1 0x40 MLOAD DUP1 SWAP2 SUB SWAP1 REVERT JUMPDEST PUSH1 0x1 PUSH0 SWAP1 SLOAD SWAP1 PUSH2 0x100 EXP SWAP1 DIV PUSH20 0xFFFFFFFFFFFFFFFFFFFFFFFFFFFFFFFFFFFFFFFF AND PUSH20 0xFFFFFFFFFFFFFFFFFFFFFFFFFFFFFFFFFFFFFFFF AND PUSH4 0x9DC29FAC DUP4 DUP4 PUSH1 0x40 MLOAD DUP4 PUSH4 0xFFFFFFFF AND PUSH1 0xE0 SHL DUP2 MSTORE PUSH1 0x4 ADD PUSH2 0xA04 SWAP3 SWAP2 SWAP1 PUSH2 0x12F5 JUMP JUMPDEST PUSH0 PUSH1 0x40 MLOAD DUP1 DUP4 SUB DUP2 PUSH0 DUP8 DUP1 EXTCODESIZE ISZERO DUP1 ISZERO PUSH2 0xA1B JUMPI PUSH0 PUSH0 REVERT JUMPDEST POP GAS CALL ISZERO DUP1 ISZERO PUSH2 0xA2D JUMPI RETURNDATASIZE PUSH0 PUSH0 RETURNDATACOPY RETURNDATASIZE PUSH0 REVERT JUMPDEST POP POP POP POP POP POP JUMP JUMPDEST PUSH0 PUSH1 0xFA SWAP1 POP PUSH2 0xA43 DUP2 PUSH2 0x5A4 JUMP JUMPDEST CALLER PUSH20 0xFFFFFFFFFFFFFFFFFFFFFFFFFFFFFFFFFFFFFFFF AND PUSH32 0xE0D90D47609FB99B5824A89ADDAA6A218DDFD2C9BB3384D96F51DDE2B6740129 PUSH1 0x40 MLOAD PUSH1 0x40 MLOAD DUP1 SWAP2 SUB SWAP1 LOG2 POP JUMP JUMPDEST PUSH0 PUSH2 0x1F4 SWAP1 POP PUSH2 0xA98 DUP2 PUSH2 0x5A4 JUMP JUMPDEST CALLER PUSH20 0xFFFFFFFFFFFFFFFFFFFFFFFFFFFFFFFFFFFFFFFF AND PUSH32 0xD736583D01C1CBD92A96FCB7456EB2682F1BEC6E8268149B27BAC50F450C9FEE PUSH1 0x40 MLOAD PUSH1 0x40 MLOAD DUP1 SWAP2 SUB SWAP1 LOG2 POP JUMP JUMPDEST PUSH0 PUSH1 0x40 MLOAD SWAP1 POP SWAP1 JUMP JUMPDEST PUSH0 PUSH0 REVERT JUMPDEST PUSH0 PUSH0 REVERT JUMPDEST PUSH0 PUSH20 0xFFFFFFFFFFFFFFFFFFFFFFFFFFFFFFFFFFFFFFFF DUP3 AND SWAP1 POP SWAP2 SWAP1 POP JUMP JUMPDEST PUSH0 PUSH2 0xB18 DUP3 PUSH2 0xAEF JUMP JUMPDEST SWAP1 POP SWAP2 SWAP1 POP JUMP JUMPDEST PUSH2 0xB28 DUP2 PUSH2 0xB0E JUMP JUMPDEST DUP2 EQ PUSH2 0xB32 JUMPI PUSH0 PUSH0 REVERT JUMPDEST POP JUMP JUMPDEST PUSH0 DUP2 CALLDATALOAD SWAP1 POP PUSH2 0xB43 DUP2 PUSH2 0xB1F JUMP JUMPDEST SWAP3 SWAP2 POP POP JUMP JUMPDEST PUSH0 PUSH1 0x20 DUP3 DUP5 SUB SLT ISZERO PUSH2 0xB5E JUMPI PUSH2 0xB5D PUSH2 0xAE7 JUMP JUMPDEST JUMPDEST PUSH0 PUSH2 0xB6B DUP5 DUP3 DUP6 ADD PUSH2 0xB35 JUMP JUMPDEST SWAP2 POP POP SWAP3 SWAP2 POP POP JUMP JUMPDEST PUSH0 DUP2 SWAP1 POP SWAP2 SWAP1 POP JUMP JUMPDEST PUSH2 0xB86 DUP2 PUSH2 0xB74 JUMP JUMPDEST DUP3 MSTORE POP POP JUMP JUMPDEST PUSH0 PUSH1 0x20 DUP3 ADD SWAP1 POP PUSH2 0xB9F PUSH0 DUP4 ADD DUP5 PUSH2 0xB7D JUMP JUMPDEST SWAP3 SWAP2 POP POP JUMP JUMPDEST PUSH0 DUP2 MLOAD SWAP1 POP SWAP2 SWAP1 POP JUMP JUMPDEST PUSH0 DUP3 DUP3 MSTORE PUSH1 0x20 DUP3 ADD SWAP1 POP SWAP3 SWAP2 POP POP JUMP JUMPDEST DUP3 DUP2 DUP4 MCOPY PUSH0 DUP4 DUP4 ADD MSTORE POP POP POP JUMP JUMPDEST PUSH0 PUSH1 0x1F NOT PUSH1 0x1F DUP4 ADD AND SWAP1 POP SWAP2 SWAP1 POP JUMP JUMPDEST PUSH0 PUSH2 0xBE7 DUP3 PUSH2 0xBA5 JUMP JUMPDEST PUSH2 0xBF1 DUP2 DUP6 PUSH2 0xBAF JUMP JUMPDEST SWAP4 POP PUSH2 0xC01 DUP2 DUP6 PUSH1 0x20 DUP7 ADD PUSH2 0xBBF JUMP JUMPDEST PUSH2 0xC0A DUP2 PUSH2 0xBCD JUMP JUMPDEST DUP5 ADD SWAP2 POP POP SWAP3 SWAP2 POP POP JUMP JUMPDEST PUSH0 PUSH1 0x20 DUP3 ADD SWAP1 POP DUP2 DUP2 SUB PUSH0 DUP4 ADD MSTORE PUSH2 0xC2D DUP2 DUP5 PUSH2 0xBDD JUMP JUMPDEST SWAP1 POP SWAP3 SWAP2 POP POP JUMP JUMPDEST PUSH0 DUP2 SWAP1 POP SWAP2 SWAP1 POP JUMP JUMPDEST PUSH0 PUSH2 0xC58 PUSH2 0xC53 PUSH2 0xC4E DUP5 PUSH2 0xAEF JUMP JUMPDEST PUSH2 0xC35 JUMP JUMPDEST PUSH2 0xAEF JUMP JUMPDEST SWAP1 POP SWAP2 SWAP1 POP JUMP JUMPDEST PUSH0 PUSH2 0xC69 DUP3 PUSH2 0xC3E JUMP JUMPDEST SWAP1 POP SWAP2 SWAP1 POP JUMP JUMPDEST PUSH0 PUSH2 0xC7A DUP3 PUSH2 0xC5F JUMP JUMPDEST SWAP1 POP SWAP2 SWAP1 POP JUMP JUMPDEST PUSH2 0xC8A DUP2 PUSH2 0xC70 JUMP JUMPDEST DUP3 MSTORE POP POP JUMP JUMPDEST PUSH0 PUSH1 0x20 DUP3 ADD SWAP1 POP PUSH2 0xCA3 PUSH0 DUP4 ADD DUP5 PUSH2 0xC81 JUMP JUMPDEST SWAP3 SWAP2 POP POP JUMP JUMPDEST PUSH0 PUSH0 REVERT JUMPDEST PUSH0 PUSH0 REVERT JUMPDEST PUSH32 0x4E487B7100000000000000000000000000000000000000000000000000000000 PUSH0 MSTORE PUSH1 0x41 PUSH1 0x4 MSTORE PUSH1 0x24 PUSH0 REVERT JUMPDEST PUSH2 0xCE7 DUP3 PUSH2 0xBCD JUMP JUMPDEST DUP2 ADD DUP2 DUP2 LT PUSH8 0xFFFFFFFFFFFFFFFF DUP3 GT OR ISZERO PUSH2 0xD06 JUMPI PUSH2 0xD05 PUSH2 0xCB1 JUMP JUMPDEST JUMPDEST DUP1 PUSH1 0x40 MSTORE POP POP POP JUMP JUMPDEST PUSH0 PUSH2 0xD18 PUSH2 0xADE JUMP JUMPDEST SWAP1 POP PUSH2 0xD24 DUP3 DUP3 PUSH2 0xCDE JUMP JUMPDEST SWAP2 SWAP1 POP JUMP JUMPDEST PUSH0 PUSH8 0xFFFFFFFFFFFFFFFF DUP3 GT ISZERO PUSH2 0xD43 JUMPI PUSH2 0xD42 PUSH2 0xCB1 JUMP JUMPDEST JUMPDEST PUSH2 0xD4C DUP3 PUSH2 0xBCD JUMP JUMPDEST SWAP1 POP PUSH1 0x20 DUP2 ADD SWAP1 POP SWAP2 SWAP1 POP JUMP JUMPDEST DUP3 DUP2 DUP4 CALLDATACOPY PUSH0 DUP4 DUP4 ADD MSTORE POP POP POP JUMP JUMPDEST PUSH0 PUSH2 0xD79 PUSH2 0xD74 DUP5 PUSH2 0xD29 JUMP JUMPDEST PUSH2 0xD0F JUMP JUMPDEST SWAP1 POP DUP3 DUP2 MSTORE PUSH1 0x20 DUP2 ADD DUP5 DUP5 DUP5 ADD GT ISZERO PUSH2 0xD95 JUMPI PUSH2 0xD94 PUSH2 0xCAD JUMP JUMPDEST JUMPDEST PUSH2 0xDA0 DUP5 DUP3 DUP6 PUSH2 0xD59 JUMP JUMPDEST POP SWAP4 SWAP3 POP POP POP JUMP JUMPDEST PUSH0 DUP3 PUSH1 0x1F DUP4 ADD SLT PUSH2 0xDBC JUMPI PUSH2 0xDBB PUSH2 0xCA9 JUMP JUMPDEST JUMPDEST DUP2 CALLDATALOAD PUSH2 0xDCC DUP5 DUP3 PUSH1 0x20 DUP7 ADD PUSH2 0xD67 JUMP JUMPDEST SWAP2 POP POP SWAP3 SWAP2 POP POP JUMP JUMPDEST PUSH0 PUSH0 PUSH1 0x40 DUP4 DUP6 SUB SLT ISZERO PUSH2 0xDEB JUMPI PUSH2 0xDEA PUSH2 0xAE7 JUMP JUMPDEST JUMPDEST PUSH0 PUSH2 0xDF8 DUP6 DUP3 DUP7 ADD PUSH2 0xB35 JUMP JUMPDEST SWAP3 POP POP PUSH1 0x20 DUP4 ADD CALLDATALOAD PUSH8 0xFFFFFFFFFFFFFFFF DUP2 GT ISZERO PUSH2 0xE19 JUMPI PUSH2 0xE18 PUSH2 0xAEB JUMP JUMPDEST JUMPDEST PUSH2 0xE25 DUP6 DUP3 DUP7 ADD PUSH2 0xDA8 JUMP JUMPDEST SWAP2 POP POP SWAP3 POP SWAP3 SWAP1 POP JUMP JUMPDEST PUSH2 0xE38 DUP2 PUSH2 0xB74 JUMP JUMPDEST DUP2 EQ PUSH2 0xE42 JUMPI PUSH0 PUSH0 REVERT JUMPDEST POP JUMP JUMPDEST PUSH0 DUP2 CALLDATALOAD SWAP1 POP PUSH2 0xE53 DUP2 PUSH2 0xE2F JUMP JUMPDEST SWAP3 SWAP2 POP POP JUMP JUMPDEST PUSH0 PUSH1 0x20 DUP3 DUP5 SUB SLT ISZERO PUSH2 0xE6E JUMPI PUSH2 0xE6D PUSH2 0xAE7 JUMP JUMPDEST JUMPDEST PUSH0 PUSH2 0xE7B DUP5 DUP3 DUP6 ADD PUSH2 0xE45 JUMP JUMPDEST SWAP2 POP POP SWAP3 SWAP2 POP POP JUMP JUMPDEST PUSH0 PUSH0 PUSH1 0x40 DUP4 DUP6 SUB SLT ISZERO PUSH2 0xE9A JUMPI PUSH2 0xE99 PUSH2 0xAE7 JUMP JUMPDEST JUMPDEST PUSH0 PUSH2 0xEA7 DUP6 DUP3 DUP7 ADD PUSH2 0xB35 JUMP JUMPDEST SWAP3 POP POP PUSH1 0x20 PUSH2 0xEB8 DUP6 DUP3 DUP7 ADD PUSH2 0xE45 JUMP JUMPDEST SWAP2 POP POP SWAP3 POP SWAP3 SWAP1 POP JUMP JUMPDEST PUSH0 PUSH2 0xECC DUP3 PUSH2 0xAEF JUMP JUMPDEST SWAP1 POP SWAP2 SWAP1 POP JUMP JUMPDEST PUSH2 0xEDC DUP2 PUSH2 0xEC2 JUMP JUMPDEST DUP3 MSTORE POP POP JUMP JUMPDEST PUSH0 PUSH1 0x20 DUP3 ADD SWAP1 POP PUSH2 0xEF5 PUSH0 DUP4 ADD DUP5 PUSH2 0xED3 JUMP JUMPDEST SWAP3 SWAP2 POP POP JUMP JUMPDEST PUSH2 0xF04 DUP2 PUSH2 0xB0E JUMP JUMPDEST DUP3 MSTORE POP POP JUMP JUMPDEST PUSH0 PUSH1 0x20 DUP3 ADD SWAP1 POP PUSH2 0xF1D PUSH0 DUP4 ADD DUP5 PUSH2 0xEFB JUMP JUMPDEST SWAP3 SWAP2 POP POP JUMP JUMPDEST PUSH0 DUP2 MLOAD SWAP1 POP PUSH2 0xF31 DUP2 PUSH2 0xE2F JUMP JUMPDEST SWAP3 SWAP2 POP POP JUMP JUMPDEST PUSH0 PUSH1 0x20 DUP3 DUP5 SUB SLT ISZERO PUSH2 0xF4C JUMPI PUSH2 0xF4B PUSH2 0xAE7 JUMP JUMPDEST JUMPDEST PUSH0 PUSH2 0xF59 DUP5 DUP3 DUP6 ADD PUSH2 0xF23 JUMP JUMPDEST SWAP2 POP POP SWAP3 SWAP2 POP POP JUMP JUMPDEST PUSH32 0x4E487B7100000000000000000000000000000000000000000000000000000000 PUSH0 MSTORE PUSH1 0x22 PUSH1 0x4 MSTORE PUSH1 0x24 PUSH0 REVERT JUMPDEST PUSH0 PUSH1 0x2 DUP3 DIV SWAP1 POP PUSH1 0x1 DUP3 AND DUP1 PUSH2 0xFA6 JUMPI PUSH1 0x7F DUP3 AND SWAP2 POP JUMPDEST PUSH1 0x20 DUP3 LT DUP2 SUB PUSH2 0xFB9 JUMPI PUSH2 0xFB8 PUSH2 0xF62 JUMP JUMPDEST JUMPDEST POP SWAP2 SWAP1 POP JUMP JUMPDEST PUSH32 0x596F7520617265206E6F7420746865206F776E65720000000000000000000000 PUSH0 DUP3 ADD MSTORE POP JUMP JUMPDEST PUSH0 PUSH2 0xFF3 PUSH1 0x15 DUP4 PUSH2 0xBAF JUMP JUMPDEST SWAP2 POP PUSH2 0xFFE DUP3 PUSH2 0xFBF JUMP JUMPDEST PUSH1 0x20 DUP3 ADD SWAP1 POP SWAP2 SWAP1 POP JUMP JUMPDEST PUSH0 PUSH1 0x20 DUP3 ADD SWAP1 POP DUP2 DUP2 SUB PUSH0 DUP4 ADD MSTORE PUSH2 0x1020 DUP2 PUSH2 0xFE7 JUMP JUMPDEST SWAP1 POP SWAP2 SWAP1 POP JUMP JUMPDEST PUSH32 0x50617373656E67657220697320616C7265616479207265676973746572656400 PUSH0 DUP3 ADD MSTORE POP JUMP JUMPDEST PUSH0 PUSH2 0x105B PUSH1 0x1F DUP4 PUSH2 0xBAF JUMP JUMPDEST SWAP2 POP PUSH2 0x1066 DUP3 PUSH2 0x1027 JUMP JUMPDEST PUSH1 0x20 DUP3 ADD SWAP1 POP SWAP2 SWAP1 POP JUMP JUMPDEST PUSH0 PUSH1 0x20 DUP3 ADD SWAP1 POP DUP2 DUP2 SUB PUSH0 DUP4 ADD MSTORE PUSH2 0x1088 DUP2 PUSH2 0x104F JUMP JUMPDEST SWAP1 POP SWAP2 SWAP1 POP JUMP JUMPDEST PUSH0 DUP2 SWAP1 POP DUP2 PUSH0 MSTORE PUSH1 0x20 PUSH0 KECCAK256 SWAP1 POP SWAP2 SWAP1 POP JUMP JUMPDEST PUSH0 PUSH1 0x20 PUSH1 0x1F DUP4 ADD DIV SWAP1 POP SWAP2 SWAP1 POP JUMP JUMPDEST PUSH0 DUP3 DUP3 SHL SWAP1 POP SWAP3 SWAP2 POP POP JUMP JUMPDEST PUSH0 PUSH1 0x8 DUP4 MUL PUSH2 0x10EB PUSH32 0xFFFFFFFFFFFFFFFFFFFFFFFFFFFFFFFFFFFFFFFFFFFFFFFFFFFFFFFFFFFFFFFF DUP3 PUSH2 0x10B0 JUMP JUMPDEST PUSH2 0x10F5 DUP7 DUP4 PUSH2 0x10B0 JUMP JUMPDEST SWAP6 POP DUP1 NOT DUP5 AND SWAP4 POP DUP1 DUP7 AND DUP5 OR SWAP3 POP POP POP SWAP4 SWAP3 POP POP POP JUMP JUMPDEST PUSH0 PUSH2 0x1127 PUSH2 0x1122 PUSH2 0x111D DUP5 PUSH2 0xB74 JUMP JUMPDEST PUSH2 0xC35 JUMP JUMPDEST PUSH2 0xB74 JUMP JUMPDEST SWAP1 POP SWAP2 SWAP1 POP JUMP JUMPDEST PUSH0 DUP2 SWAP1 POP SWAP2 SWAP1 POP JUMP JUMPDEST PUSH2 0x1140 DUP4 PUSH2 0x110D JUMP JUMPDEST PUSH2 0x1154 PUSH2 0x114C DUP3 PUSH2 0x112E JUMP JUMPDEST DUP5 DUP5 SLOAD PUSH2 0x10BC JUMP JUMPDEST DUP3 SSTORE POP POP POP POP JUMP JUMPDEST PUSH0 PUSH0 SWAP1 POP SWAP1 JUMP JUMPDEST PUSH2 0x116B PUSH2 0x115C JUMP JUMPDEST PUSH2 0x1176 DUP2 DUP5 DUP5 PUSH2 0x1137 JUMP JUMPDEST POP POP POP JUMP JUMPDEST JUMPDEST DUP2 DUP2 LT ISZERO PUSH2 0x1199 JUMPI PUSH2 0x118E PUSH0 DUP3 PUSH2 0x1163 JUMP JUMPDEST PUSH1 0x1 DUP2 ADD SWAP1 POP PUSH2 0x117C JUMP JUMPDEST POP POP JUMP JUMPDEST PUSH1 0x1F DUP3 GT ISZERO PUSH2 0x11DE JUMPI PUSH2 0x11AF DUP2 PUSH2 0x108F JUMP JUMPDEST PUSH2 0x11B8 DUP5 PUSH2 0x10A1 JUMP JUMPDEST DUP2 ADD PUSH1 0x20 DUP6 LT ISZERO PUSH2 0x11C7 JUMPI DUP2 SWAP1 POP JUMPDEST PUSH2 0x11DB PUSH2 0x11D3 DUP6 PUSH2 0x10A1 JUMP JUMPDEST DUP4 ADD DUP3 PUSH2 0x117B JUMP JUMPDEST POP POP JUMPDEST POP POP POP JUMP JUMPDEST PUSH0 DUP3 DUP3 SHR SWAP1 POP SWAP3 SWAP2 POP POP JUMP JUMPDEST PUSH0 PUSH2 0x11FE PUSH0 NOT DUP5 PUSH1 0x8 MUL PUSH2 0x11E3 JUMP JUMPDEST NOT DUP1 DUP4 AND SWAP2 POP POP SWAP3 SWAP2 POP POP JUMP JUMPDEST PUSH0 PUSH2 0x1216 DUP4 DUP4 PUSH2 0x11EF JUMP JUMPDEST SWAP2 POP DUP3 PUSH1 0x2 MUL DUP3 OR SWAP1 POP SWAP3 SWAP2 POP POP JUMP JUMPDEST PUSH2 0x122F DUP3 PUSH2 0xBA5 JUMP JUMPDEST PUSH8 0xFFFFFFFFFFFFFFFF DUP2 GT ISZERO PUSH2 0x1248 JUMPI PUSH2 0x1247 PUSH2 0xCB1 JUMP JUMPDEST JUMPDEST PUSH2 0x1252 DUP3 SLOAD PUSH2 0xF8F JUMP JUMPDEST PUSH2 0x125D DUP3 DUP3 DUP6 PUSH2 0x119D JUMP JUMPDEST PUSH0 PUSH1 0x20 SWAP1 POP PUSH1 0x1F DUP4 GT PUSH1 0x1 DUP2 EQ PUSH2 0x128E JUMPI PUSH0 DUP5 ISZERO PUSH2 0x127C JUMPI DUP3 DUP8 ADD MLOAD SWAP1 POP JUMPDEST PUSH2 0x1286 DUP6 DUP3 PUSH2 0x120B JUMP JUMPDEST DUP7 SSTORE POP PUSH2 0x12ED JUMP JUMPDEST PUSH1 0x1F NOT DUP5 AND PUSH2 0x129C DUP7 PUSH2 0x108F JUMP JUMPDEST PUSH0 JUMPDEST DUP3 DUP2 LT ISZERO PUSH2 0x12C3 JUMPI DUP5 DUP10 ADD MLOAD DUP3 SSTORE PUSH1 0x1 DUP3 ADD SWAP2 POP PUSH1 0x20 DUP6 ADD SWAP5 POP PUSH1 0x20 DUP2 ADD SWAP1 POP PUSH2 0x129E JUMP JUMPDEST DUP7 DUP4 LT ISZERO PUSH2 0x12E0 JUMPI DUP5 DUP10 ADD MLOAD PUSH2 0x12DC PUSH1 0x1F DUP10 AND DUP3 PUSH2 0x11EF JUMP JUMPDEST DUP4 SSTORE POP JUMPDEST PUSH1 0x1 PUSH1 0x2 DUP9 MUL ADD DUP9 SSTORE POP POP POP JUMPDEST POP POP POP POP POP POP JUMP JUMPDEST PUSH0 PUSH1 0x40 DUP3 ADD SWAP1 POP PUSH2 0x1308 PUSH0 DUP4 ADD DUP6 PUSH2 0xEFB JUMP JUMPDEST PUSH2 0x1315 PUSH1 0x20 DUP4 ADD DUP5 PUSH2 0xB7D JUMP JUMPDEST SWAP4 SWAP3 POP POP POP JUMP JUMPDEST PUSH32 0x496E76616C696420616D6F756E74000000000000000000000000000000000000 PUSH0 DUP3 ADD MSTORE POP JUMP JUMPDEST PUSH0 PUSH2 0x1350 PUSH1 0xE DUP4 PUSH2 0xBAF JUMP JUMPDEST SWAP2 POP PUSH2 0x135B DUP3 PUSH2 0x131C JUMP JUMPDEST PUSH1 0x20 DUP3 ADD SWAP1 POP SWAP2 SWAP1 POP JUMP JUMPDEST PUSH0 PUSH1 0x20 DUP3 ADD SWAP1 POP DUP2 DUP2 SUB PUSH0 DUP4 ADD MSTORE PUSH2 0x137D DUP2 PUSH2 0x1344 JUMP JUMPDEST SWAP1 POP SWAP2 SWAP1 POP JUMP JUMPDEST PUSH32 0x4E487B7100000000000000000000000000000000000000000000000000000000 PUSH0 MSTORE PUSH1 0x11 PUSH1 0x4 MSTORE PUSH1 0x24 PUSH0 REVERT JUMPDEST PUSH0 PUSH2 0x13BB DUP3 PUSH2 0xB74 JUMP JUMPDEST SWAP2 POP PUSH2 0x13C6 DUP4 PUSH2 0xB74 JUMP JUMPDEST SWAP3 POP DUP3 DUP3 MUL PUSH2 0x13D4 DUP2 PUSH2 0xB74 JUMP JUMPDEST SWAP2 POP DUP3 DUP3 DIV DUP5 EQ DUP4 ISZERO OR PUSH2 0x13EB JUMPI PUSH2 0x13EA PUSH2 0x1384 JUMP JUMPDEST JUMPDEST POP SWAP3 SWAP2 POP POP JUMP INVALID LOG2 PUSH5 0x6970667358 0x22 SLT KECCAK256 0xC4 SWAP7 DUP4 LT PUSH11 0xA09490731500ADD5FE4E3D 0xB4 EXP 0xA6 0xF6 NUMBER 0xC 0x2E PUSH23 0x8C20D0139684A97664736F6C634300081F003360806040 MSTORE CALLVALUE DUP1 ISZERO PUSH2 0xF JUMPI PUSH0 PUSH0 REVERT JUMPDEST POP PUSH1 0x40 MLOAD PUSH2 0x1D27 CODESIZE SUB DUP1 PUSH2 0x1D27 DUP4 CODECOPY DUP2 DUP2 ADD PUSH1 0x40 MSTORE DUP2 ADD SWAP1 PUSH2 0x31 SWAP2 SWAP1 PUSH2 0x37B JUMP JUMPDEST DUP4 PUSH0 SWAP1 DUP2 PUSH2 0x3F SWAP2 SWAP1 PUSH2 0x61E JUMP JUMPDEST POP DUP3 PUSH1 0x1 SWAP1 DUP2 PUSH2 0x4F SWAP2 SWAP1 PUSH2 0x61E JUMP JUMPDEST POP DUP2 PUSH1 0x2 PUSH0 PUSH2 0x100 EXP DUP2 SLOAD DUP2 PUSH1 0xFF MUL NOT AND SWAP1 DUP4 PUSH1 0xFF AND MUL OR SWAP1 SSTORE POP PUSH2 0x7A CALLER DUP3 PUSH2 0x83 PUSH1 0x20 SHL PUSH1 0x20 SHR JUMP JUMPDEST POP POP POP POP PUSH2 0x7ED JUMP JUMPDEST PUSH0 PUSH20 0xFFFFFFFFFFFFFFFFFFFFFFFFFFFFFFFFFFFFFFFF AND DUP3 PUSH20 0xFFFFFFFFFFFFFFFFFFFFFFFFFFFFFFFFFFFFFFFF AND SUB PUSH2 0xF1 JUMPI PUSH1 0x40 MLOAD PUSH32 0x8C379A000000000000000000000000000000000000000000000000000000000 DUP2 MSTORE PUSH1 0x4 ADD PUSH2 0xE8 SWAP1 PUSH2 0x747 JUMP JUMPDEST PUSH1 0x40 MLOAD DUP1 SWAP2 SUB SWAP1 REVERT JUMPDEST DUP1 PUSH1 0x3 PUSH0 DUP3 DUP3 SLOAD PUSH2 0x102 SWAP2 SWAP1 PUSH2 0x792 JUMP JUMPDEST SWAP3 POP POP DUP2 SWAP1 SSTORE POP DUP1 PUSH1 0x4 PUSH0 DUP5 PUSH20 0xFFFFFFFFFFFFFFFFFFFFFFFFFFFFFFFFFFFFFFFF AND PUSH20 0xFFFFFFFFFFFFFFFFFFFFFFFFFFFFFFFFFFFFFFFF AND DUP2 MSTORE PUSH1 0x20 ADD SWAP1 DUP2 MSTORE PUSH1 0x20 ADD PUSH0 KECCAK256 PUSH0 DUP3 DUP3 SLOAD PUSH2 0x155 SWAP2 SWAP1 PUSH2 0x792 JUMP JUMPDEST SWAP3 POP POP DUP2 SWAP1 SSTORE POP DUP2 PUSH20 0xFFFFFFFFFFFFFFFFFFFFFFFFFFFFFFFFFFFFFFFF AND PUSH0 PUSH20 0xFFFFFFFFFFFFFFFFFFFFFFFFFFFFFFFFFFFFFFFF AND PUSH32 0xDDF252AD1BE2C89B69C2B068FC378DAA952BA7F163C4A11628F55A4DF523B3EF DUP4 PUSH1 0x40 MLOAD PUSH2 0x1B9 SWAP2 SWAP1 PUSH2 0x7D4 JUMP JUMPDEST PUSH1 0x40 MLOAD DUP1 SWAP2 SUB SWAP1 LOG3 POP POP JUMP JUMPDEST PUSH0 PUSH1 0x40 MLOAD SWAP1 POP SWAP1 JUMP JUMPDEST PUSH0 PUSH0 REVERT JUMPDEST PUSH0 PUSH0 REVERT JUMPDEST PUSH0 PUSH0 REVERT JUMPDEST PUSH0 PUSH0 REVERT JUMPDEST PUSH0 PUSH1 0x1F NOT PUSH1 0x1F DUP4 ADD AND SWAP1 POP SWAP2 SWAP1 POP JUMP JUMPDEST PUSH32 0x4E487B7100000000000000000000000000000000000000000000000000000000 PUSH0 MSTORE PUSH1 0x41 PUSH1 0x4 MSTORE PUSH1 0x24 PUSH0 REVERT JUMPDEST PUSH2 0x224 DUP3 PUSH2 0x1DE JUMP JUMPDEST DUP2 ADD DUP2 DUP2 LT PUSH8 0xFFFFFFFFFFFFFFFF DUP3 GT OR ISZERO PUSH2 0x243 JUMPI PUSH2 0x242 PUSH2 0x1EE JUMP JUMPDEST JUMPDEST DUP1 PUSH1 0x40 MSTORE POP POP POP JUMP JUMPDEST PUSH0 PUSH2 0x255 PUSH2 0x1C5 JUMP JUMPDEST SWAP1 POP PUSH2 0x261 DUP3 DUP3 PUSH2 0x21B JUMP JUMPDEST SWAP2 SWAP1 POP JUMP JUMPDEST PUSH0 PUSH8 0xFFFFFFFFFFFFFFFF DUP3 GT ISZERO PUSH2 0x280 JUMPI PUSH2 0x27F PUSH2 0x1EE JUMP JUMPDEST JUMPDEST PUSH2 0x289 DUP3 PUSH2 0x1DE JUMP JUMPDEST SWAP1 POP PUSH1 0x20 DUP2 ADD SWAP1 POP SWAP2 SWAP1 POP JUMP JUMPDEST DUP3 DUP2 DUP4 MCOPY PUSH0 DUP4 DUP4 ADD MSTORE POP POP POP JUMP JUMPDEST PUSH0 PUSH2 0x2B6 PUSH2 0x2B1 DUP5 PUSH2 0x266 JUMP JUMPDEST PUSH2 0x24C JUMP JUMPDEST SWAP1 POP DUP3 DUP2 MSTORE PUSH1 0x20 DUP2 ADD DUP5 DUP5 DUP5 ADD GT ISZERO PUSH2 0x2D2 JUMPI PUSH2 0x2D1 PUSH2 0x1DA JUMP JUMPDEST JUMPDEST PUSH2 0x2DD DUP5 DUP3 DUP6 PUSH2 0x296 JUMP JUMPDEST POP SWAP4 SWAP3 POP POP POP JUMP JUMPDEST PUSH0 DUP3 PUSH1 0x1F DUP4 ADD SLT PUSH2 0x2F9 JUMPI PUSH2 0x2F8 PUSH2 0x1D6 JUMP JUMPDEST JUMPDEST DUP2 MLOAD PUSH2 0x309 DUP5 DUP3 PUSH1 0x20 DUP7 ADD PUSH2 0x2A4 JUMP JUMPDEST SWAP2 POP POP SWAP3 SWAP2 POP POP JUMP JUMPDEST PUSH0 PUSH1 0xFF DUP3 AND SWAP1 POP SWAP2 SWAP1 POP JUMP JUMPDEST PUSH2 0x327 DUP2 PUSH2 0x312 JUMP JUMPDEST DUP2 EQ PUSH2 0x331 JUMPI PUSH0 PUSH0 REVERT JUMPDEST POP JUMP JUMPDEST PUSH0 DUP2 MLOAD SWAP1 POP PUSH2 0x342 DUP2 PUSH2 0x31E JUMP JUMPDEST SWAP3 SWAP2 POP POP JUMP JUMPDEST PUSH0 DUP2 SWAP1 POP SWAP2 SWAP1 POP JUMP JUMPDEST PUSH2 0x35A DUP2 PUSH2 0x348 JUMP JUMPDEST DUP2 EQ PUSH2 0x364 JUMPI PUSH0 PUSH0 REVERT JUMPDEST POP JUMP JUMPDEST PUSH0 DUP2 MLOAD SWAP1 POP PUSH2 0x375 DUP2 PUSH2 0x351 JUMP JUMPDEST SWAP3 SWAP2 POP POP JUMP JUMPDEST PUSH0 PUSH0 PUSH0 PUSH0 PUSH1 0x80 DUP6 DUP8 SUB SLT ISZERO PUSH2 0x393 JUMPI PUSH2 0x392 PUSH2 0x1CE JUMP JUMPDEST JUMPDEST PUSH0 DUP6 ADD MLOAD PUSH8 0xFFFFFFFFFFFFFFFF DUP2 GT ISZERO PUSH2 0x3B0 JUMPI PUSH2 0x3AF PUSH2 0x1D2 JUMP JUMPDEST JUMPDEST PUSH2 0x3BC DUP8 DUP3 DUP9 ADD PUSH2 0x2E5 JUMP JUMPDEST SWAP5 POP POP PUSH1 0x20 DUP6 ADD MLOAD PUSH8 0xFFFFFFFFFFFFFFFF DUP2 GT ISZERO PUSH2 0x3DD JUMPI PUSH2 0x3DC PUSH2 0x1D2 JUMP JUMPDEST JUMPDEST PUSH2 0x3E9 DUP8 DUP3 DUP9 ADD PUSH2 0x2E5 JUMP JUMPDEST SWAP4 POP POP PUSH1 0x40 PUSH2 0x3FA DUP8 DUP3 DUP9 ADD PUSH2 0x334 JUMP JUMPDEST SWAP3 POP POP PUSH1 0x60 PUSH2 0x40B DUP8 DUP3 DUP9 ADD PUSH2 0x367 JUMP JUMPDEST SWAP2 POP POP SWAP3 SWAP6 SWAP2 SWAP5 POP SWAP3 POP JUMP JUMPDEST PUSH0 DUP2 MLOAD SWAP1 POP SWAP2 SWAP1 POP JUMP JUMPDEST PUSH32 0x4E487B7100000000000000000000000000000000000000000000000000000000 PUSH0 MSTORE PUSH1 0x22 PUSH1 0x4 MSTORE PUSH1 0x24 PUSH0 REVERT JUMPDEST PUSH0 PUSH1 0x2 DUP3 DIV SWAP1 POP PUSH1 0x1 DUP3 AND DUP1 PUSH2 0x465 JUMPI PUSH1 0x7F DUP3 AND SWAP2 POP JUMPDEST PUSH1 0x20 DUP3 LT DUP2 SUB PUSH2 0x478 JUMPI PUSH2 0x477 PUSH2 0x421 JUMP JUMPDEST JUMPDEST POP SWAP2 SWAP1 POP JUMP JUMPDEST PUSH0 DUP2 SWAP1 POP DUP2 PUSH0 MSTORE PUSH1 0x20 PUSH0 KECCAK256 SWAP1 POP SWAP2 SWAP1 POP JUMP JUMPDEST PUSH0 PUSH1 0x20 PUSH1 0x1F DUP4 ADD DIV SWAP1 POP SWAP2 SWAP1 POP JUMP JUMPDEST PUSH0 DUP3 DUP3 SHL SWAP1 POP SWAP3 SWAP2 POP POP JUMP JUMPDEST PUSH0 PUSH1 0x8 DUP4 MUL PUSH2 0x4DA PUSH32 0xFFFFFFFFFFFFFFFFFFFFFFFFFFFFFFFFFFFFFFFFFFFFFFFFFFFFFFFFFFFFFFFF DUP3 PUSH2 0x49F JUMP JUMPDEST PUSH2 0x4E4 DUP7 DUP4 PUSH2 0x49F JUMP JUMPDEST SWAP6 POP DUP1 NOT DUP5 AND SWAP4 POP DUP1 DUP7 AND DUP5 OR SWAP3 POP POP POP SWAP4 SWAP3 POP POP POP JUMP JUMPDEST PUSH0 DUP2 SWAP1 POP SWAP2 SWAP1 POP JUMP JUMPDEST PUSH0 PUSH2 0x51F PUSH2 0x51A PUSH2 0x515 DUP5 PUSH2 0x348 JUMP JUMPDEST PUSH2 0x4FC JUMP JUMPDEST PUSH2 0x348 JUMP JUMPDEST SWAP1 POP SWAP2 SWAP1 POP JUMP JUMPDEST PUSH0 DUP2 SWAP1 POP SWAP2 SWAP1 POP JUMP JUMPDEST PUSH2 0x538 DUP4 PUSH2 0x505 JUMP JUMPDEST PUSH2 0x54C PUSH2 0x544 DUP3 PUSH2 0x526 JUMP JUMPDEST DUP5 DUP5 SLOAD PUSH2 0x4AB JUMP JUMPDEST DUP3 SSTORE POP POP POP POP JUMP JUMPDEST PUSH0 PUSH0 SWAP1 POP SWAP1 JUMP JUMPDEST PUSH2 0x563 PUSH2 0x554 JUMP JUMPDEST PUSH2 0x56E DUP2 DUP5 DUP5 PUSH2 0x52F JUMP JUMPDEST POP POP POP JUMP JUMPDEST JUMPDEST DUP2 DUP2 LT ISZERO PUSH2 0x591 JUMPI PUSH2 0x586 PUSH0 DUP3 PUSH2 0x55B JUMP JUMPDEST PUSH1 0x1 DUP2 ADD SWAP1 POP PUSH2 0x574 JUMP JUMPDEST POP POP JUMP JUMPDEST PUSH1 0x1F DUP3 GT ISZERO PUSH2 0x5D6 JUMPI PUSH2 0x5A7 DUP2 PUSH2 0x47E JUMP JUMPDEST PUSH2 0x5B0 DUP5 PUSH2 0x490 JUMP JUMPDEST DUP2 ADD PUSH1 0x20 DUP6 LT ISZERO PUSH2 0x5BF JUMPI DUP2 SWAP1 POP JUMPDEST PUSH2 0x5D3 PUSH2 0x5CB DUP6 PUSH2 0x490 JUMP JUMPDEST DUP4 ADD DUP3 PUSH2 0x573 JUMP JUMPDEST POP POP JUMPDEST POP POP POP JUMP JUMPDEST PUSH0 DUP3 DUP3 SHR SWAP1 POP SWAP3 SWAP2 POP POP JUMP JUMPDEST PUSH0 PUSH2 0x5F6 PUSH0 NOT DUP5 PUSH1 0x8 MUL PUSH2 0x5DB JUMP JUMPDEST NOT DUP1 DUP4 AND SWAP2 POP POP SWAP3 SWAP2 POP POP JUMP JUMPDEST PUSH0 PUSH2 0x60E DUP4 DUP4 PUSH2 0x5E7 JUMP JUMPDEST SWAP2 POP DUP3 PUSH1 0x2 MUL DUP3 OR SWAP1 POP SWAP3 SWAP2 POP POP JUMP JUMPDEST PUSH2 0x627 DUP3 PUSH2 0x417 JUMP JUMPDEST PUSH8 0xFFFFFFFFFFFFFFFF DUP2 GT ISZERO PUSH2 0x640 JUMPI PUSH2 0x63F PUSH2 0x1EE JUMP JUMPDEST JUMPDEST PUSH2 0x64A DUP3 SLOAD PUSH2 0x44E JUMP JUMPDEST PUSH2 0x655 DUP3 DUP3 DUP6 PUSH2 0x595 JUMP JUMPDEST PUSH0 PUSH1 0x20 SWAP1 POP PUSH1 0x1F DUP4 GT PUSH1 0x1 DUP2 EQ PUSH2 0x686 JUMPI PUSH0 DUP5 ISZERO PUSH2 0x674 JUMPI DUP3 DUP8 ADD MLOAD SWAP1 POP JUMPDEST PUSH2 0x67E DUP6 DUP3 PUSH2 0x603 JUMP JUMPDEST DUP7 SSTORE POP PUSH2 0x6E5 JUMP JUMPDEST PUSH1 0x1F NOT DUP5 AND PUSH2 0x694 DUP7 PUSH2 0x47E JUMP JUMPDEST PUSH0 JUMPDEST DUP3 DUP2 LT ISZERO PUSH2 0x6BB JUMPI DUP5 DUP10 ADD MLOAD DUP3 SSTORE PUSH1 0x1 DUP3 ADD SWAP2 POP PUSH1 0x20 DUP6 ADD SWAP5 POP PUSH1 0x20 DUP2 ADD SWAP1 POP PUSH2 0x696 JUMP JUMPDEST DUP7 DUP4 LT ISZERO PUSH2 0x6D8 JUMPI DUP5 DUP10 ADD MLOAD PUSH2 0x6D4 PUSH1 0x1F DUP10 AND DUP3 PUSH2 0x5E7 JUMP JUMPDEST DUP4 SSTORE POP JUMPDEST PUSH1 0x1 PUSH1 0x2 DUP9 MUL ADD DUP9 SSTORE POP POP POP JUMPDEST POP POP POP POP POP POP JUMP JUMPDEST PUSH0 DUP3 DUP3 MSTORE PUSH1 0x20 DUP3 ADD SWAP1 POP SWAP3 SWAP2 POP POP JUMP JUMPDEST PUSH32 0x45524332303A206D696E7420746F20746865207A65726F206164647265737300 PUSH0 DUP3 ADD MSTORE POP JUMP JUMPDEST PUSH0 PUSH2 0x731 PUSH1 0x1F DUP4 PUSH2 0x6ED JUMP JUMPDEST SWAP2 POP PUSH2 0x73C DUP3 PUSH2 0x6FD JUMP JUMPDEST PUSH1 0x20 DUP3 ADD SWAP1 POP SWAP2 SWAP1 POP JUMP JUMPDEST PUSH0 PUSH1 0x20 DUP3 ADD SWAP1 POP DUP2 DUP2 SUB PUSH0 DUP4 ADD MSTORE PUSH2 0x75E DUP2 PUSH2 0x725 JUMP JUMPDEST SWAP1 POP SWAP2 SWAP1 POP JUMP JUMPDEST PUSH32 0x4E487B7100000000000000000000000000000000000000000000000000000000 PUSH0 MSTORE PUSH1 0x11 PUSH1 0x4 MSTORE PUSH1 0x24 PUSH0 REVERT JUMPDEST PUSH0 PUSH2 0x79C DUP3 PUSH2 0x348 JUMP JUMPDEST SWAP2 POP PUSH2 0x7A7 DUP4 PUSH2 0x348 JUMP JUMPDEST SWAP3 POP DUP3 DUP3 ADD SWAP1 POP DUP1 DUP3 GT ISZERO PUSH2 0x7BF JUMPI PUSH2 0x7BE PUSH2 0x765 JUMP JUMPDEST JUMPDEST SWAP3 SWAP2 POP POP JUMP JUMPDEST PUSH2 0x7CE DUP2 PUSH2 0x348 JUMP JUMPDEST DUP3 MSTORE POP POP JUMP JUMPDEST PUSH0 PUSH1 0x20 DUP3 ADD SWAP1 POP PUSH2 0x7E7 PUSH0 DUP4 ADD DUP5 PUSH2 0x7C5 JUMP JUMPDEST SWAP3 SWAP2 POP POP JUMP JUMPDEST PUSH2 0x152D DUP1 PUSH2 0x7FA PUSH0 CODECOPY PUSH0 RETURN INVALID PUSH1 0x80 PUSH1 0x40 MSTORE CALLVALUE DUP1 ISZERO PUSH2 0xF JUMPI PUSH0 PUSH0 REVERT JUMPDEST POP PUSH1 0x4 CALLDATASIZE LT PUSH2 0xA7 JUMPI PUSH0 CALLDATALOAD PUSH1 0xE0 SHR DUP1 PUSH4 0x40C10F19 GT PUSH2 0x6F JUMPI DUP1 PUSH4 0x40C10F19 EQ PUSH2 0x165 JUMPI DUP1 PUSH4 0x70A08231 EQ PUSH2 0x181 JUMPI DUP1 PUSH4 0x95D89B41 EQ PUSH2 0x1B1 JUMPI DUP1 PUSH4 0x9DC29FAC EQ PUSH2 0x1CF JUMPI DUP1 PUSH4 0xA9059CBB EQ PUSH2 0x1EB JUMPI DUP1 PUSH4 0xDD62ED3E EQ PUSH2 0x21B JUMPI PUSH2 0xA7 JUMP JUMPDEST DUP1 PUSH4 0x6FDDE03 EQ PUSH2 0xAB JUMPI DUP1 PUSH4 0x95EA7B3 EQ PUSH2 0xC9 JUMPI DUP1 PUSH4 0x18160DDD EQ PUSH2 0xF9 JUMPI DUP1 PUSH4 0x23B872DD EQ PUSH2 0x117 JUMPI DUP1 PUSH4 0x313CE567 EQ PUSH2 0x147 JUMPI JUMPDEST PUSH0 PUSH0 REVERT JUMPDEST PUSH2 0xB3 PUSH2 0x24B JUMP JUMPDEST PUSH1 0x40 MLOAD PUSH2 0xC0 SWAP2 SWAP1 PUSH2 0xDF8 JUMP JUMPDEST PUSH1 0x40 MLOAD DUP1 SWAP2 SUB SWAP1 RETURN JUMPDEST PUSH2 0xE3 PUSH1 0x4 DUP1 CALLDATASIZE SUB DUP2 ADD SWAP1 PUSH2 0xDE SWAP2 SWAP1 PUSH2 0xEA9 JUMP JUMPDEST PUSH2 0x2DA JUMP JUMPDEST PUSH1 0x40 MLOAD PUSH2 0xF0 SWAP2 SWAP1 PUSH2 0xF01 JUMP JUMPDEST PUSH1 0x40 MLOAD DUP1 SWAP2 SUB SWAP1 RETURN JUMPDEST PUSH2 0x101 PUSH2 0x435 JUMP JUMPDEST PUSH1 0x40 MLOAD PUSH2 0x10E SWAP2 SWAP1 PUSH2 0xF29 JUMP JUMPDEST PUSH1 0x40 MLOAD DUP1 SWAP2 SUB SWAP1 RETURN JUMPDEST PUSH2 0x131 PUSH1 0x4 DUP1 CALLDATASIZE SUB DUP2 ADD SWAP1 PUSH2 0x12C SWAP2 SWAP1 PUSH2 0xF42 JUMP JUMPDEST PUSH2 0x43E JUMP JUMPDEST PUSH1 0x40 MLOAD PUSH2 0x13E SWAP2 SWAP1 PUSH2 0xF01 JUMP JUMPDEST PUSH1 0x40 MLOAD DUP1 SWAP2 SUB SWAP1 RETURN JUMPDEST PUSH2 0x14F PUSH2 0x67A JUMP JUMPDEST PUSH1 0x40 MLOAD PUSH2 0x15C SWAP2 SWAP1 PUSH2 0xFAD JUMP JUMPDEST PUSH1 0x40 MLOAD DUP1 SWAP2 SUB SWAP1 RETURN JUMPDEST PUSH2 0x17F PUSH1 0x4 DUP1 CALLDATASIZE SUB DUP2 ADD SWAP1 PUSH2 0x17A SWAP2 SWAP1 PUSH2 0xEA9 JUMP JUMPDEST PUSH2 0x68F JUMP JUMPDEST STOP JUMPDEST PUSH2 0x19B PUSH1 0x4 DUP1 CALLDATASIZE SUB DUP2 ADD SWAP1 PUSH2 0x196 SWAP2 SWAP1 PUSH2 0xFC6 JUMP JUMPDEST PUSH2 0x69D JUMP JUMPDEST PUSH1 0x40 MLOAD PUSH2 0x1A8 SWAP2 SWAP1 PUSH2 0xF29 JUMP JUMPDEST PUSH1 0x40 MLOAD DUP1 SWAP2 SUB SWAP1 RETURN JUMPDEST PUSH2 0x1B9 PUSH2 0x6E3 JUMP JUMPDEST PUSH1 0x40 MLOAD PUSH2 0x1C6 SWAP2 SWAP1 PUSH2 0xDF8 JUMP JUMPDEST PUSH1 0x40 MLOAD DUP1 SWAP2 SUB SWAP1 RETURN JUMPDEST PUSH2 0x1E9 PUSH1 0x4 DUP1 CALLDATASIZE SUB DUP2 ADD SWAP1 PUSH2 0x1E4 SWAP2 SWAP1 PUSH2 0xEA9 JUMP JUMPDEST PUSH2 0x773 JUMP JUMPDEST STOP JUMPDEST PUSH2 0x205 PUSH1 0x4 DUP1 CALLDATASIZE SUB DUP2 ADD SWAP1 PUSH2 0x200 SWAP2 SWAP1 PUSH2 0xEA9 JUMP JUMPDEST PUSH2 0x781 JUMP JUMPDEST PUSH1 0x40 MLOAD PUSH2 0x212 SWAP2 SWAP1 PUSH2 0xF01 JUMP JUMPDEST PUSH1 0x40 MLOAD DUP1 SWAP2 SUB SWAP1 RETURN JUMPDEST PUSH2 0x235 PUSH1 0x4 DUP1 CALLDATASIZE SUB DUP2 ADD SWAP1 PUSH2 0x230 SWAP2 SWAP1 PUSH2 0xFF1 JUMP JUMPDEST PUSH2 0x797 JUMP JUMPDEST PUSH1 0x40 MLOAD PUSH2 0x242 SWAP2 SWAP1 PUSH2 0xF29 JUMP JUMPDEST PUSH1 0x40 MLOAD DUP1 SWAP2 SUB SWAP1 RETURN JUMPDEST PUSH1 0x60 PUSH0 DUP1 SLOAD PUSH2 0x259 SWAP1 PUSH2 0x105C JUMP JUMPDEST DUP1 PUSH1 0x1F ADD PUSH1 0x20 DUP1 SWAP2 DIV MUL PUSH1 0x20 ADD PUSH1 0x40 MLOAD SWAP1 DUP2 ADD PUSH1 0x40 MSTORE DUP1 SWAP3 SWAP2 SWAP1 DUP2 DUP2 MSTORE PUSH1 0x20 ADD DUP3 DUP1 SLOAD PUSH2 0x285 SWAP1 PUSH2 0x105C JUMP JUMPDEST DUP1 ISZERO PUSH2 0x2D0 JUMPI DUP1 PUSH1 0x1F LT PUSH2 0x2A7 JUMPI PUSH2 0x100 DUP1 DUP4 SLOAD DIV MUL DUP4 MSTORE SWAP2 PUSH1 0x20 ADD SWAP2 PUSH2 0x2D0 JUMP JUMPDEST DUP3 ADD SWAP2 SWAP1 PUSH0 MSTORE PUSH1 0x20 PUSH0 KECCAK256 SWAP1 JUMPDEST DUP2 SLOAD DUP2 MSTORE SWAP1 PUSH1 0x1 ADD SWAP1 PUSH1 0x20 ADD DUP1 DUP4 GT PUSH2 0x2B3 JUMPI DUP3 SWAP1 SUB PUSH1 0x1F AND DUP3 ADD SWAP2 JUMPDEST POP POP POP POP POP SWAP1 POP SWAP1 JUMP JUMPDEST PUSH0 PUSH0 PUSH20 0xFFFFFFFFFFFFFFFFFFFFFFFFFFFFFFFFFFFFFFFF AND DUP4 PUSH20 0xFFFFFFFFFFFFFFFFFFFFFFFFFFFFFFFFFFFFFFFF AND SUB PUSH2 0x349 JUMPI PUSH1 0x40 MLOAD PUSH32 0x8C379A000000000000000000000000000000000000000000000000000000000 DUP2 MSTORE PUSH1 0x4 ADD PUSH2 0x340 SWAP1 PUSH2 0x10FC JUMP JUMPDEST PUSH1 0x40 MLOAD DUP1 SWAP2 SUB SWAP1 REVERT JUMPDEST DUP2 PUSH1 0x5 PUSH0 CALLER PUSH20 0xFFFFFFFFFFFFFFFFFFFFFFFFFFFFFFFFFFFFFFFF AND PUSH20 0xFFFFFFFFFFFFFFFFFFFFFFFFFFFFFFFFFFFFFFFF AND DUP2 MSTORE PUSH1 0x20 ADD SWAP1 DUP2 MSTORE PUSH1 0x20 ADD PUSH0 KECCAK256 PUSH0 DUP6 PUSH20 0xFFFFFFFFFFFFFFFFFFFFFFFFFFFFFFFFFFFFFFFF AND PUSH20 0xFFFFFFFFFFFFFFFFFFFFFFFFFFFFFFFFFFFFFFFF AND DUP2 MSTORE PUSH1 0x20 ADD SWAP1 DUP2 MSTORE PUSH1 0x20 ADD PUSH0 KECCAK256 DUP2 SWAP1 SSTORE POP DUP3 PUSH20 0xFFFFFFFFFFFFFFFFFFFFFFFFFFFFFFFFFFFFFFFF AND CALLER PUSH20 0xFFFFFFFFFFFFFFFFFFFFFFFFFFFFFFFFFFFFFFFF AND PUSH32 0x8C5BE1E5EBEC7D5BD14F71427D1E84F3DD0314C0F7B2291E5B200AC8C7C3B925 DUP5 PUSH1 0x40 MLOAD PUSH2 0x423 SWAP2 SWAP1 PUSH2 0xF29 JUMP JUMPDEST PUSH1 0x40 MLOAD DUP1 SWAP2 SUB SWAP1 LOG3 PUSH1 0x1 SWAP1 POP SWAP3 SWAP2 POP POP JUMP JUMPDEST PUSH0 PUSH1 0x3 SLOAD SWAP1 POP SWAP1 JUMP JUMPDEST PUSH0 PUSH0 PUSH1 0x5 PUSH0 DUP7 PUSH20 0xFFFFFFFFFFFFFFFFFFFFFFFFFFFFFFFFFFFFFFFF AND PUSH20 0xFFFFFFFFFFFFFFFFFFFFFFFFFFFFFFFFFFFFFFFF AND DUP2 MSTORE PUSH1 0x20 ADD SWAP1 DUP2 MSTORE PUSH1 0x20 ADD PUSH0 KECCAK256 PUSH0 CALLER PUSH20 0xFFFFFFFFFFFFFFFFFFFFFFFFFFFFFFFFFFFFFFFF AND PUSH20 0xFFFFFFFFFFFFFFFFFFFFFFFFFFFFFFFFFFFFFFFF AND DUP2 MSTORE PUSH1 0x20 ADD SWAP1 DUP2 MSTORE PUSH1 0x20 ADD PUSH0 KECCAK256 SLOAD SWAP1 POP DUP3 DUP2 LT ISZERO PUSH2 0x4FE JUMPI PUSH1 0x40 MLOAD PUSH32 0x8C379A000000000000000000000000000000000000000000000000000000000 DUP2 MSTORE PUSH1 0x4 ADD PUSH2 0x4F5 SWAP1 PUSH2 0x1164 JUMP JUMPDEST PUSH1 0x40 MLOAD DUP1 SWAP2 SUB SWAP1 REVERT JUMPDEST DUP3 DUP2 PUSH2 0x50A SWAP2 SWAP1 PUSH2 0x11AF JUMP JUMPDEST PUSH1 0x5 PUSH0 DUP8 PUSH20 0xFFFFFFFFFFFFFFFFFFFFFFFFFFFFFFFFFFFFFFFF AND PUSH20 0xFFFFFFFFFFFFFFFFFFFFFFFFFFFFFFFFFFFFFFFF AND DUP2 MSTORE PUSH1 0x20 ADD SWAP1 DUP2 MSTORE PUSH1 0x20 ADD PUSH0 KECCAK256 PUSH0 CALLER PUSH20 0xFFFFFFFFFFFFFFFFFFFFFFFFFFFFFFFFFFFFFFFF AND PUSH20 0xFFFFFFFFFFFFFFFFFFFFFFFFFFFFFFFFFFFFFFFF AND DUP2 MSTORE PUSH1 0x20 ADD SWAP1 DUP2 MSTORE PUSH1 0x20 ADD PUSH0 KECCAK256 DUP2 SWAP1 SSTORE POP CALLER PUSH20 0xFFFFFFFFFFFFFFFFFFFFFFFFFFFFFFFFFFFFFFFF AND DUP6 PUSH20 0xFFFFFFFFFFFFFFFFFFFFFFFFFFFFFFFFFFFFFFFF AND PUSH32 0x8C5BE1E5EBEC7D5BD14F71427D1E84F3DD0314C0F7B2291E5B200AC8C7C3B925 PUSH1 0x5 PUSH0 DUP10 PUSH20 0xFFFFFFFFFFFFFFFFFFFFFFFFFFFFFFFFFFFFFFFF AND PUSH20 0xFFFFFFFFFFFFFFFFFFFFFFFFFFFFFFFFFFFFFFFF AND DUP2 MSTORE PUSH1 0x20 ADD SWAP1 DUP2 MSTORE PUSH1 0x20 ADD PUSH0 KECCAK256 PUSH0 CALLER PUSH20 0xFFFFFFFFFFFFFFFFFFFFFFFFFFFFFFFFFFFFFFFF AND PUSH20 0xFFFFFFFFFFFFFFFFFFFFFFFFFFFFFFFFFFFFFFFF AND DUP2 MSTORE PUSH1 0x20 ADD SWAP1 DUP2 MSTORE PUSH1 0x20 ADD PUSH0 KECCAK256 SLOAD PUSH1 0x40 MLOAD PUSH2 0x65B SWAP2 SWAP1 PUSH2 0xF29 JUMP JUMPDEST PUSH1 0x40 MLOAD DUP1 SWAP2 SUB SWAP1 LOG3 PUSH2 0x66E DUP6 DUP6 DUP6 PUSH2 0x819 JUMP JUMPDEST PUSH1 0x1 SWAP2 POP POP SWAP4 SWAP3 POP POP POP JUMP JUMPDEST PUSH0 PUSH1 0x2 PUSH0 SWAP1 SLOAD SWAP1 PUSH2 0x100 EXP SWAP1 DIV PUSH1 0xFF AND SWAP1 POP SWAP1 JUMP JUMPDEST PUSH2 0x699 DUP3 DUP3 PUSH2 0xA84 JUMP JUMPDEST POP POP JUMP JUMPDEST PUSH0 PUSH1 0x4 PUSH0 DUP4 PUSH20 0xFFFFFFFFFFFFFFFFFFFFFFFFFFFFFFFFFFFFFFFF AND PUSH20 0xFFFFFFFFFFFFFFFFFFFFFFFFFFFFFFFFFFFFFFFF AND DUP2 MSTORE PUSH1 0x20 ADD SWAP1 DUP2 MSTORE PUSH1 0x20 ADD PUSH0 KECCAK256 SLOAD SWAP1 POP SWAP2 SWAP1 POP JUMP JUMPDEST PUSH1 0x60 PUSH1 0x1 DUP1 SLOAD PUSH2 0x6F2 SWAP1 PUSH2 0x105C JUMP JUMPDEST DUP1 PUSH1 0x1F ADD PUSH1 0x20 DUP1 SWAP2 DIV MUL PUSH1 0x20 ADD PUSH1 0x40 MLOAD SWAP1 DUP2 ADD PUSH1 0x40 MSTORE DUP1 SWAP3 SWAP2 SWAP1 DUP2 DUP2 MSTORE PUSH1 0x20 ADD DUP3 DUP1 SLOAD PUSH2 0x71E SWAP1 PUSH2 0x105C JUMP JUMPDEST DUP1 ISZERO PUSH2 0x769 JUMPI DUP1 PUSH1 0x1F LT PUSH2 0x740 JUMPI PUSH2 0x100 DUP1 DUP4 SLOAD DIV MUL DUP4 MSTORE SWAP2 PUSH1 0x20 ADD SWAP2 PUSH2 0x769 JUMP JUMPDEST DUP3 ADD SWAP2 SWAP1 PUSH0 MSTORE PUSH1 0x20 PUSH0 KECCAK256 SWAP1 JUMPDEST DUP2 SLOAD DUP2 MSTORE SWAP1 PUSH1 0x1 ADD SWAP1 PUSH1 0x20 ADD DUP1 DUP4 GT PUSH2 0x74C JUMPI DUP3 SWAP1 SUB PUSH1 0x1F AND DUP3 ADD SWAP2 JUMPDEST POP POP POP POP POP SWAP1 POP SWAP1 JUMP JUMPDEST PUSH2 0x77D DUP3 DUP3 PUSH2 0xBC6 JUMP JUMPDEST POP POP JUMP JUMPDEST PUSH0 PUSH2 0x78D CALLER DUP5 DUP5 PUSH2 0x819 JUMP JUMPDEST PUSH1 0x1 SWAP1 POP SWAP3 SWAP2 POP POP JUMP JUMPDEST PUSH0 PUSH1 0x5 PUSH0 DUP5 PUSH20 0xFFFFFFFFFFFFFFFFFFFFFFFFFFFFFFFFFFFFFFFF AND PUSH20 0xFFFFFFFFFFFFFFFFFFFFFFFFFFFFFFFFFFFFFFFF AND DUP2 MSTORE PUSH1 0x20 ADD SWAP1 DUP2 MSTORE PUSH1 0x20 ADD PUSH0 KECCAK256 PUSH0 DUP4 PUSH20 0xFFFFFFFFFFFFFFFFFFFFFFFFFFFFFFFFFFFFFFFF AND PUSH20 0xFFFFFFFFFFFFFFFFFFFFFFFFFFFFFFFFFFFFFFFF AND DUP2 MSTORE PUSH1 0x20 ADD SWAP1 DUP2 MSTORE PUSH1 0x20 ADD PUSH0 KECCAK256 SLOAD SWAP1 POP SWAP3 SWAP2 POP POP JUMP JUMPDEST PUSH0 PUSH20 0xFFFFFFFFFFFFFFFFFFFFFFFFFFFFFFFFFFFFFFFF AND DUP4 PUSH20 0xFFFFFFFFFFFFFFFFFFFFFFFFFFFFFFFFFFFFFFFF AND SUB PUSH2 0x887 JUMPI PUSH1 0x40 MLOAD PUSH32 0x8C379A000000000000000000000000000000000000000000000000000000000 DUP2 MSTORE PUSH1 0x4 ADD PUSH2 0x87E SWAP1 PUSH2 0x1252 JUMP JUMPDEST PUSH1 0x40 MLOAD DUP1 SWAP2 SUB SWAP1 REVERT JUMPDEST PUSH0 PUSH20 0xFFFFFFFFFFFFFFFFFFFFFFFFFFFFFFFFFFFFFFFF AND DUP3 PUSH20 0xFFFFFFFFFFFFFFFFFFFFFFFFFFFFFFFFFFFFFFFF AND SUB PUSH2 0x8F5 JUMPI PUSH1 0x40 MLOAD PUSH32 0x8C379A000000000000000000000000000000000000000000000000000000000 DUP2 MSTORE PUSH1 0x4 ADD PUSH2 0x8EC SWAP1 PUSH2 0x12E0 JUMP JUMPDEST PUSH1 0x40 MLOAD DUP1 SWAP2 SUB SWAP1 REVERT JUMPDEST PUSH0 PUSH1 0x4 PUSH0 DUP6 PUSH20 0xFFFFFFFFFFFFFFFFFFFFFFFFFFFFFFFFFFFFFFFF AND PUSH20 0xFFFFFFFFFFFFFFFFFFFFFFFFFFFFFFFFFFFFFFFF AND DUP2 MSTORE PUSH1 0x20 ADD SWAP1 DUP2 MSTORE PUSH1 0x20 ADD PUSH0 KECCAK256 SLOAD SWAP1 POP DUP2 DUP2 LT ISZERO PUSH2 0x979 JUMPI PUSH1 0x40 MLOAD PUSH32 0x8C379A000000000000000000000000000000000000000000000000000000000 DUP2 MSTORE PUSH1 0x4 ADD PUSH2 0x970 SWAP1 PUSH2 0x136E JUMP JUMPDEST PUSH1 0x40 MLOAD DUP1 SWAP2 SUB SWAP1 REVERT JUMPDEST DUP2 DUP2 PUSH2 0x985 SWAP2 SWAP1 PUSH2 0x11AF JUMP JUMPDEST PUSH1 0x4 PUSH0 DUP7 PUSH20 0xFFFFFFFFFFFFFFFFFFFFFFFFFFFFFFFFFFFFFFFF AND PUSH20 0xFFFFFFFFFFFFFFFFFFFFFFFFFFFFFFFFFFFFFFFF AND DUP2 MSTORE PUSH1 0x20 ADD SWAP1 DUP2 MSTORE PUSH1 0x20 ADD PUSH0 KECCAK256 DUP2 SWAP1 SSTORE POP DUP2 PUSH1 0x4 PUSH0 DUP6 PUSH20 0xFFFFFFFFFFFFFFFFFFFFFFFFFFFFFFFFFFFFFFFF AND PUSH20 0xFFFFFFFFFFFFFFFFFFFFFFFFFFFFFFFFFFFFFFFF AND DUP2 MSTORE PUSH1 0x20 ADD SWAP1 DUP2 MSTORE PUSH1 0x20 ADD PUSH0 KECCAK256 PUSH0 DUP3 DUP3 SLOAD PUSH2 0xA12 SWAP2 SWAP1 PUSH2 0x138C JUMP JUMPDEST SWAP3 POP POP DUP2 SWAP1 SSTORE POP DUP3 PUSH20 0xFFFFFFFFFFFFFFFFFFFFFFFFFFFFFFFFFFFFFFFF AND DUP5 PUSH20 0xFFFFFFFFFFFFFFFFFFFFFFFFFFFFFFFFFFFFFFFF AND PUSH32 0xDDF252AD1BE2C89B69C2B068FC378DAA952BA7F163C4A11628F55A4DF523B3EF DUP5 PUSH1 0x40 MLOAD PUSH2 0xA76 SWAP2 SWAP1 PUSH2 0xF29 JUMP JUMPDEST PUSH1 0x40 MLOAD DUP1 SWAP2 SUB SWAP1 LOG3 POP POP POP POP JUMP JUMPDEST PUSH0 PUSH20 0xFFFFFFFFFFFFFFFFFFFFFFFFFFFFFFFFFFFFFFFF AND DUP3 PUSH20 0xFFFFFFFFFFFFFFFFFFFFFFFFFFFFFFFFFFFFFFFF AND SUB PUSH2 0xAF2 JUMPI PUSH1 0x40 MLOAD PUSH32 0x8C379A000000000000000000000000000000000000000000000000000000000 DUP2 MSTORE PUSH1 0x4 ADD PUSH2 0xAE9 SWAP1 PUSH2 0x1409 JUMP JUMPDEST PUSH1 0x40 MLOAD DUP1 SWAP2 SUB SWAP1 REVERT JUMPDEST DUP1 PUSH1 0x3 PUSH0 DUP3 DUP3 SLOAD PUSH2 0xB03 SWAP2 SWAP1 PUSH2 0x138C JUMP JUMPDEST SWAP3 POP POP DUP2 SWAP1 SSTORE POP DUP1 PUSH1 0x4 PUSH0 DUP5 PUSH20 0xFFFFFFFFFFFFFFFFFFFFFFFFFFFFFFFFFFFFFFFF AND PUSH20 0xFFFFFFFFFFFFFFFFFFFFFFFFFFFFFFFFFFFFFFFF AND DUP2 MSTORE PUSH1 0x20 ADD SWAP1 DUP2 MSTORE PUSH1 0x20 ADD PUSH0 KECCAK256 PUSH0 DUP3 DUP3 SLOAD PUSH2 0xB56 SWAP2 SWAP1 PUSH2 0x138C JUMP JUMPDEST SWAP3 POP POP DUP2 SWAP1 SSTORE POP DUP2 PUSH20 0xFFFFFFFFFFFFFFFFFFFFFFFFFFFFFFFFFFFFFFFF AND PUSH0 PUSH20 0xFFFFFFFFFFFFFFFFFFFFFFFFFFFFFFFFFFFFFFFF AND PUSH32 0xDDF252AD1BE2C89B69C2B068FC378DAA952BA7F163C4A11628F55A4DF523B3EF DUP4 PUSH1 0x40 MLOAD PUSH2 0xBBA SWAP2 SWAP1 PUSH2 0xF29 JUMP JUMPDEST PUSH1 0x40 MLOAD DUP1 SWAP2 SUB SWAP1 LOG3 POP POP JUMP JUMPDEST PUSH0 PUSH20 0xFFFFFFFFFFFFFFFFFFFFFFFFFFFFFFFFFFFFFFFF AND DUP3 PUSH20 0xFFFFFFFFFFFFFFFFFFFFFFFFFFFFFFFFFFFFFFFF AND SUB PUSH2 0xC34 JUMPI PUSH1 0x40 MLOAD PUSH32 0x8C379A000000000000000000000000000000000000000000000000000000000 DUP2 MSTORE PUSH1 0x4 ADD PUSH2 0xC2B SWAP1 PUSH2 0x1471 JUMP JUMPDEST PUSH1 0x40 MLOAD DUP1 SWAP2 SUB SWAP1 REVERT JUMPDEST DUP1 PUSH1 0x4 PUSH0 DUP5 PUSH20 0xFFFFFFFFFFFFFFFFFFFFFFFFFFFFFFFFFFFFFFFF AND PUSH20 0xFFFFFFFFFFFFFFFFFFFFFFFFFFFFFFFFFFFFFFFF AND DUP2 MSTORE PUSH1 0x20 ADD SWAP1 DUP2 MSTORE PUSH1 0x20 ADD PUSH0 KECCAK256 SLOAD LT ISZERO PUSH2 0xCB4 JUMPI PUSH1 0x40 MLOAD PUSH32 0x8C379A000000000000000000000000000000000000000000000000000000000 DUP2 MSTORE PUSH1 0x4 ADD PUSH2 0xCAB SWAP1 PUSH2 0x14D9 JUMP JUMPDEST PUSH1 0x40 MLOAD DUP1 SWAP2 SUB SWAP1 REVERT JUMPDEST DUP1 PUSH1 0x4 PUSH0 DUP5 PUSH20 0xFFFFFFFFFFFFFFFFFFFFFFFFFFFFFFFFFFFFFFFF AND PUSH20 0xFFFFFFFFFFFFFFFFFFFFFFFFFFFFFFFFFFFFFFFF AND DUP2 MSTORE PUSH1 0x20 ADD SWAP1 DUP2 MSTORE PUSH1 0x20 ADD PUSH0 KECCAK256 PUSH0 DUP3 DUP3 SLOAD PUSH2 0xD00 SWAP2 SWAP1 PUSH2 0x11AF JUMP JUMPDEST SWAP3 POP POP DUP2 SWAP1 SSTORE POP DUP1 PUSH1 0x3 PUSH0 DUP3 DUP3 SLOAD PUSH2 0xD18 SWAP2 SWAP1 PUSH2 0x11AF JUMP JUMPDEST SWAP3 POP POP DUP2 SWAP1 SSTORE POP PUSH0 PUSH20 0xFFFFFFFFFFFFFFFFFFFFFFFFFFFFFFFFFFFFFFFF AND DUP3 PUSH20 0xFFFFFFFFFFFFFFFFFFFFFFFFFFFFFFFFFFFFFFFF AND PUSH32 0xDDF252AD1BE2C89B69C2B068FC378DAA952BA7F163C4A11628F55A4DF523B3EF DUP4 PUSH1 0x40 MLOAD PUSH2 0xD7C SWAP2 SWAP1 PUSH2 0xF29 JUMP JUMPDEST PUSH1 0x40 MLOAD DUP1 SWAP2 SUB SWAP1 LOG3 POP POP JUMP JUMPDEST PUSH0 DUP2 MLOAD SWAP1 POP SWAP2 SWAP1 POP JUMP JUMPDEST PUSH0 DUP3 DUP3 MSTORE PUSH1 0x20 DUP3 ADD SWAP1 POP SWAP3 SWAP2 POP POP JUMP JUMPDEST DUP3 DUP2 DUP4 MCOPY PUSH0 DUP4 DUP4 ADD MSTORE POP POP POP JUMP JUMPDEST PUSH0 PUSH1 0x1F NOT PUSH1 0x1F DUP4 ADD AND SWAP1 POP SWAP2 SWAP1 POP JUMP JUMPDEST PUSH0 PUSH2 0xDCA DUP3 PUSH2 0xD88 JUMP JUMPDEST PUSH2 0xDD4 DUP2 DUP6 PUSH2 0xD92 JUMP JUMPDEST SWAP4 POP PUSH2 0xDE4 DUP2 DUP6 PUSH1 0x20 DUP7 ADD PUSH2 0xDA2 JUMP JUMPDEST PUSH2 0xDED DUP2 PUSH2 0xDB0 JUMP JUMPDEST DUP5 ADD SWAP2 POP POP SWAP3 SWAP2 POP POP JUMP JUMPDEST PUSH0 PUSH1 0x20 DUP3 ADD SWAP1 POP DUP2 DUP2 SUB PUSH0 DUP4 ADD MSTORE PUSH2 0xE10 DUP2 DUP5 PUSH2 0xDC0 JUMP JUMPDEST SWAP1 POP SWAP3 SWAP2 POP POP JUMP JUMPDEST PUSH0 PUSH0 REVERT JUMPDEST PUSH0 PUSH20 0xFFFFFFFFFFFFFFFFFFFFFFFFFFFFFFFFFFFFFFFF DUP3 AND SWAP1 POP SWAP2 SWAP1 POP JUMP JUMPDEST PUSH0 PUSH2 0xE45 DUP3 PUSH2 0xE1C JUMP JUMPDEST SWAP1 POP SWAP2 SWAP1 POP JUMP JUMPDEST PUSH2 0xE55 DUP2 PUSH2 0xE3B JUMP JUMPDEST DUP2 EQ PUSH2 0xE5F JUMPI PUSH0 PUSH0 REVERT JUMPDEST POP JUMP JUMPDEST PUSH0 DUP2 CALLDATALOAD SWAP1 POP PUSH2 0xE70 DUP2 PUSH2 0xE4C JUMP JUMPDEST SWAP3 SWAP2 POP POP JUMP JUMPDEST PUSH0 DUP2 SWAP1 POP SWAP2 SWAP1 POP JUMP JUMPDEST PUSH2 0xE88 DUP2 PUSH2 0xE76 JUMP JUMPDEST DUP2 EQ PUSH2 0xE92 JUMPI PUSH0 PUSH0 REVERT JUMPDEST POP JUMP JUMPDEST PUSH0 DUP2 CALLDATALOAD SWAP1 POP PUSH2 0xEA3 DUP2 PUSH2 0xE7F JUMP JUMPDEST SWAP3 SWAP2 POP POP JUMP JUMPDEST PUSH0 PUSH0 PUSH1 0x40 DUP4 DUP6 SUB SLT ISZERO PUSH2 0xEBF JUMPI PUSH2 0xEBE PUSH2 0xE18 JUMP JUMPDEST JUMPDEST PUSH0 PUSH2 0xECC DUP6 DUP3 DUP7 ADD PUSH2 0xE62 JUMP JUMPDEST SWAP3 POP POP PUSH1 0x20 PUSH2 0xEDD DUP6 DUP3 DUP7 ADD PUSH2 0xE95 JUMP JUMPDEST SWAP2 POP POP SWAP3 POP SWAP3 SWAP1 POP JUMP JUMPDEST PUSH0 DUP2 ISZERO ISZERO SWAP1 POP SWAP2 SWAP1 POP JUMP JUMPDEST PUSH2 0xEFB DUP2 PUSH2 0xEE7 JUMP JUMPDEST DUP3 MSTORE POP POP JUMP JUMPDEST PUSH0 PUSH1 0x20 DUP3 ADD SWAP1 POP PUSH2 0xF14 PUSH0 DUP4 ADD DUP5 PUSH2 0xEF2 JUMP JUMPDEST SWAP3 SWAP2 POP POP JUMP JUMPDEST PUSH2 0xF23 DUP2 PUSH2 0xE76 JUMP JUMPDEST DUP3 MSTORE POP POP JUMP JUMPDEST PUSH0 PUSH1 0x20 DUP3 ADD SWAP1 POP PUSH2 0xF3C PUSH0 DUP4 ADD DUP5 PUSH2 0xF1A JUMP JUMPDEST SWAP3 SWAP2 POP POP JUMP JUMPDEST PUSH0 PUSH0 PUSH0 PUSH1 0x60 DUP5 DUP7 SUB SLT ISZERO PUSH2 0xF59 JUMPI PUSH2 0xF58 PUSH2 0xE18 JUMP JUMPDEST JUMPDEST PUSH0 PUSH2 0xF66 DUP7 DUP3 DUP8 ADD PUSH2 0xE62 JUMP JUMPDEST SWAP4 POP POP PUSH1 0x20 PUSH2 0xF77 DUP7 DUP3 DUP8 ADD PUSH2 0xE62 JUMP JUMPDEST SWAP3 POP POP PUSH1 0x40 PUSH2 0xF88 DUP7 DUP3 DUP8 ADD PUSH2 0xE95 JUMP JUMPDEST SWAP2 POP POP SWAP3 POP SWAP3 POP SWAP3 JUMP JUMPDEST PUSH0 PUSH1 0xFF DUP3 AND SWAP1 POP SWAP2 SWAP1 POP JUMP JUMPDEST PUSH2 0xFA7 DUP2 PUSH2 0xF92 JUMP JUMPDEST DUP3 MSTORE POP POP JUMP JUMPDEST PUSH0 PUSH1 0x20 DUP3 ADD SWAP1 POP PUSH2 0xFC0 PUSH0 DUP4 ADD DUP5 PUSH2 0xF9E JUMP JUMPDEST SWAP3 SWAP2 POP POP JUMP JUMPDEST PUSH0 PUSH1 0x20 DUP3 DUP5 SUB SLT ISZERO PUSH2 0xFDB JUMPI PUSH2 0xFDA PUSH2 0xE18 JUMP JUMPDEST JUMPDEST PUSH0 PUSH2 0xFE8 DUP5 DUP3 DUP6 ADD PUSH2 0xE62 JUMP JUMPDEST SWAP2 POP POP SWAP3 SWAP2 POP POP JUMP JUMPDEST PUSH0 PUSH0 PUSH1 0x40 DUP4 DUP6 SUB SLT ISZERO PUSH2 0x1007 JUMPI PUSH2 0x1006 PUSH2 0xE18 JUMP JUMPDEST JUMPDEST PUSH0 PUSH2 0x1014 DUP6 DUP3 DUP7 ADD PUSH2 0xE62 JUMP JUMPDEST SWAP3 POP POP PUSH1 0x20 PUSH2 0x1025 DUP6 DUP3 DUP7 ADD PUSH2 0xE62 JUMP JUMPDEST SWAP2 POP POP SWAP3 POP SWAP3 SWAP1 POP JUMP JUMPDEST PUSH32 0x4E487B7100000000000000000000000000000000000000000000000000000000 PUSH0 MSTORE PUSH1 0x22 PUSH1 0x4 MSTORE PUSH1 0x24 PUSH0 REVERT JUMPDEST PUSH0 PUSH1 0x2 DUP3 DIV SWAP1 POP PUSH1 0x1 DUP3 AND DUP1 PUSH2 0x1073 JUMPI PUSH1 0x7F DUP3 AND SWAP2 POP JUMPDEST PUSH1 0x20 DUP3 LT DUP2 SUB PUSH2 0x1086 JUMPI PUSH2 0x1085 PUSH2 0x102F JUMP JUMPDEST JUMPDEST POP SWAP2 SWAP1 POP JUMP JUMPDEST PUSH32 0x45524332303A20617070726F766520746F20746865207A65726F206164647265 PUSH0 DUP3 ADD MSTORE PUSH32 0x7373000000000000000000000000000000000000000000000000000000000000 PUSH1 0x20 DUP3 ADD MSTORE POP JUMP JUMPDEST PUSH0 PUSH2 0x10E6 PUSH1 0x22 DUP4 PUSH2 0xD92 JUMP JUMPDEST SWAP2 POP PUSH2 0x10F1 DUP3 PUSH2 0x108C JUMP JUMPDEST PUSH1 0x40 DUP3 ADD SWAP1 POP SWAP2 SWAP1 POP JUMP JUMPDEST PUSH0 PUSH1 0x20 DUP3 ADD SWAP1 POP DUP2 DUP2 SUB PUSH0 DUP4 ADD MSTORE PUSH2 0x1113 DUP2 PUSH2 0x10DA JUMP JUMPDEST SWAP1 POP SWAP2 SWAP1 POP JUMP JUMPDEST PUSH32 0x45524332303A20696E73756666696369656E7420616C6C6F77616E6365000000 PUSH0 DUP3 ADD MSTORE POP JUMP JUMPDEST PUSH0 PUSH2 0x114E PUSH1 0x1D DUP4 PUSH2 0xD92 JUMP JUMPDEST SWAP2 POP PUSH2 0x1159 DUP3 PUSH2 0x111A JUMP JUMPDEST PUSH1 0x20 DUP3 ADD SWAP1 POP SWAP2 SWAP1 POP JUMP JUMPDEST PUSH0 PUSH1 0x20 DUP3 ADD SWAP1 POP DUP2 DUP2 SUB PUSH0 DUP4 ADD MSTORE PUSH2 0x117B DUP2 PUSH2 0x1142 JUMP JUMPDEST SWAP1 POP SWAP2 SWAP1 POP JUMP JUMPDEST PUSH32 0x4E487B7100000000000000000000000000000000000000000000000000000000 PUSH0 MSTORE PUSH1 0x11 PUSH1 0x4 MSTORE PUSH1 0x24 PUSH0 REVERT JUMPDEST PUSH0 PUSH2 0x11B9 DUP3 PUSH2 0xE76 JUMP JUMPDEST SWAP2 POP PUSH2 0x11C4 DUP4 PUSH2 0xE76 JUMP JUMPDEST SWAP3 POP DUP3 DUP3 SUB SWAP1 POP DUP2 DUP2 GT ISZERO PUSH2 0x11DC JUMPI PUSH2 0x11DB PUSH2 0x1182 JUMP JUMPDEST JUMPDEST SWAP3 SWAP2 POP POP JUMP JUMPDEST PUSH32 0x45524332303A207472616E736665722066726F6D20746865207A65726F206164 PUSH0 DUP3 ADD MSTORE PUSH32 0x6472657373000000000000000000000000000000000000000000000000000000 PUSH1 0x20 DUP3 ADD MSTORE POP JUMP JUMPDEST PUSH0 PUSH2 0x123C PUSH1 0x25 DUP4 PUSH2 0xD92 JUMP JUMPDEST SWAP2 POP PUSH2 0x1247 DUP3 PUSH2 0x11E2 JUMP JUMPDEST PUSH1 0x40 DUP3 ADD SWAP1 POP SWAP2 SWAP1 POP JUMP JUMPDEST PUSH0 PUSH1 0x20 DUP3 ADD SWAP1 POP DUP2 DUP2 SUB PUSH0 DUP4 ADD MSTORE PUSH2 0x1269 DUP2 PUSH2 0x1230 JUMP JUMPDEST SWAP1 POP SWAP2 SWAP1 POP JUMP JUMPDEST PUSH32 0x45524332303A207472616E7366657220746F20746865207A65726F2061646472 PUSH0 DUP3 ADD MSTORE PUSH32 0x6573730000000000000000000000000000000000000000000000000000000000 PUSH1 0x20 DUP3 ADD MSTORE POP JUMP JUMPDEST PUSH0 PUSH2 0x12CA PUSH1 0x23 DUP4 PUSH2 0xD92 JUMP JUMPDEST SWAP2 POP PUSH2 0x12D5 DUP3 PUSH2 0x1270 JUMP JUMPDEST PUSH1 0x40 DUP3 ADD SWAP1 POP SWAP2 SWAP1 POP JUMP JUMPDEST PUSH0 PUSH1 0x20 DUP3 ADD SWAP1 POP DUP2 DUP2 SUB PUSH0 DUP4 ADD MSTORE PUSH2 0x12F7 DUP2 PUSH2 0x12BE JUMP JUMPDEST SWAP1 POP SWAP2 SWAP1 POP JUMP JUMPDEST PUSH32 0x45524332303A207472616E7366657220616D6F756E7420657863656564732062 PUSH0 DUP3 ADD MSTORE PUSH32 0x616C616E63650000000000000000000000000000000000000000000000000000 PUSH1 0x20 DUP3 ADD MSTORE POP JUMP JUMPDEST PUSH0 PUSH2 0x1358 PUSH1 0x26 DUP4 PUSH2 0xD92 JUMP JUMPDEST SWAP2 POP PUSH2 0x1363 DUP3 PUSH2 0x12FE JUMP JUMPDEST PUSH1 0x40 DUP3 ADD SWAP1 POP SWAP2 SWAP1 POP JUMP JUMPDEST PUSH0 PUSH1 0x20 DUP3 ADD SWAP1 POP DUP2 DUP2 SUB PUSH0 DUP4 ADD MSTORE PUSH2 0x1385 DUP2 PUSH2 0x134C JUMP JUMPDEST SWAP1 POP SWAP2 SWAP1 POP JUMP JUMPDEST PUSH0 PUSH2 0x1396 DUP3 PUSH2 0xE76 JUMP JUMPDEST SWAP2 POP PUSH2 0x13A1 DUP4 PUSH2 0xE76 JUMP JUMPDEST SWAP3 POP DUP3 DUP3 ADD SWAP1 POP DUP1 DUP3 GT ISZERO PUSH2 0x13B9 JUMPI PUSH2 0x13B8 PUSH2 0x1182 JUMP JUMPDEST JUMPDEST SWAP3 SWAP2 POP POP JUMP JUMPDEST PUSH32 0x45524332303A206D696E7420746F20746865207A65726F206164647265737300 PUSH0 DUP3 ADD MSTORE POP JUMP JUMPDEST PUSH0 PUSH2 0x13F3 PUSH1 0x1F DUP4 PUSH2 0xD92 JUMP JUMPDEST SWAP2 POP PUSH2 0x13FE DUP3 PUSH2 0x13BF JUMP JUMPDEST PUSH1 0x20 DUP3 ADD SWAP1 POP SWAP2 SWAP1 POP JUMP JUMPDEST PUSH0 PUSH1 0x20 DUP3 ADD SWAP1 POP DUP2 DUP2 SUB PUSH0 DUP4 ADD MSTORE PUSH2 0x1420 DUP2 PUSH2 0x13E7 JUMP JUMPDEST SWAP1 POP SWAP2 SWAP1 POP JUMP JUMPDEST PUSH32 0x4E6F206861792061646472657373000000000000000000000000000000000000 PUSH0 DUP3 ADD MSTORE POP JUMP JUMPDEST PUSH0 PUSH2 0x145B PUSH1 0xE DUP4 PUSH2 0xD92 JUMP JUMPDEST SWAP2 POP PUSH2 0x1466 DUP3 PUSH2 0x1427 JUMP JUMPDEST PUSH1 0x20 DUP3 ADD SWAP1 POP SWAP2 SWAP1 POP JUMP JUMPDEST PUSH0 PUSH1 0x20 DUP3 ADD SWAP1 POP DUP2 DUP2 SUB PUSH0 DUP4 ADD MSTORE PUSH2 0x1488 DUP2 PUSH2 0x144F JUMP JUMPDEST SWAP1 POP SWAP2 SWAP1 POP JUMP JUMPDEST PUSH32 0x4E6F2068617920737566696369656E74657320746F6B656E732E000000000000 PUSH0 DUP3 ADD MSTORE POP JUMP JUMPDEST PUSH0 PUSH2 0x14C3 PUSH1 0x1A DUP4 PUSH2 0xD92 JUMP JUMPDEST SWAP2 POP PUSH2 0x14CE DUP3 PUSH2 0x148F JUMP JUMPDEST PUSH1 0x20 DUP3 ADD SWAP1 POP SWAP2 SWAP1 POP JUMP JUMPDEST PUSH0 PUSH1 0x20 DUP3 ADD SWAP1 POP DUP2 DUP2 SUB PUSH0 DUP4 ADD MSTORE PUSH2 0x14F0 DUP2 PUSH2 0x14B7 JUMP JUMPDEST SWAP1 POP SWAP2 SWAP1 POP JUMP INVALID LOG2 PUSH5 0x6970667358 0x22 SLT KECCAK256 DUP5 EQ 0xB2 0x23 SWAP10 EQ TIMESTAMP MCOPY CALLCODE DUP12 0xAB BALANCE 0xB2 AND ADDMOD 0xC8 MOD 0xB8 LOG1 RJUMP 0xAEFC DUP11 PUSH21 0x6F6DD9F8A53F831164736F6C634300081F00330000 "
				},
				"gasEstimates": {
					"creation": {
						"codeDepositCost": "1032000",
						"executionCost": "infinite",
						"totalCost": "infinite"
					},
					"external": {
						"burn(uint256)": "infinite",
						"extraLuggage(uint256)": "infinite",
						"getBalancePassenger()": "infinite",
						"getBalancePassenger(address)": "infinite",
						"getName()": "infinite",
						"getToken()": "infinite",
						"owner()": "2553",
						"ownerBurn(address,uint256)": "infinite",
						"ownerMint(address,uint256)": "infinite",
						"register(address,string)": "infinite",
						"upgradeLounge()": "infinite",
						"upgradeSeat()": "infinite",
						"upgradeUser()": "infinite"
					}
				},
				"methodIdentifiers": {
					"burn(uint256)": "42966c68",
					"extraLuggage(uint256)": "8a0b4879",
					"getBalancePassenger()": "a7269aab",
					"getBalancePassenger(address)": "09c20c3f",
					"getName()": "17d7de7c",
					"getToken()": "21df0da7",
					"owner()": "8da5cb5b",
					"ownerBurn(address,uint256)": "c0001786",
					"ownerMint(address,uint256)": "484b973c",
					"register(address,string)": "32434a2e",
					"upgradeLounge()": "f48a311b",
					"upgradeSeat()": "c863a972",
					"upgradeUser()": "b31fae70"
				}
			},
			"storageLayout": {
				"storage": [
					{
						"astId": 4,
						"contract": "contract.sol:AirportContract",
						"label": "_name",
						"offset": 0,
						"slot": "0",
						"type": "t_string_storage"
					},
					{
						"astId": 7,
						"contract": "contract.sol:AirportContract",
						"label": "_token",
						"offset": 0,
						"slot": "1",
						"type": "t_contract(ERC20Simple)714"
					},
					{
						"astId": 9,
						"contract": "contract.sol:AirportContract",
						"label": "owner",
						"offset": 0,
						"slot": "2",
						"type": "t_address_payable"
					},
					{
						"astId": 19,
						"contract": "contract.sol:AirportContract",
						"label": "listPassengers",
						"offset": 0,
						"slot": "3",
						"type": "t_mapping(t_address,t_struct(Passenger)14_storage)"
					}
				],
				"types": {
					"t_address": {
						"encoding": "inplace",
						"label": "address",
						"numberOfBytes": "20"
					},
					"t_address_payable": {
						"encoding": "inplace",
						"label": "address payable",
						"numberOfBytes": "20"
					},
					"t_contract(ERC20Simple)714": {
						"encoding": "inplace",
						"label": "contract ERC20Simple",
						"numberOfBytes": "20"
					},
					"t_mapping(t_address,t_struct(Passenger)14_storage)": {
						"encoding": "mapping",
						"key": "t_address",
						"label": "mapping(address => struct AirportContract.Passenger)",
						"numberOfBytes": "32",
						"value": "t_struct(Passenger)14_storage"
					},
					"t_string_storage": {
						"encoding": "bytes",
						"label": "string",
						"numberOfBytes": "32"
					},
					"t_struct(Passenger)14_storage": {
						"encoding": "inplace",
						"label": "struct AirportContract.Passenger",
						"members": [
							{
								"astId": 11,
								"contract": "contract.sol:AirportContract",
								"label": "id",
								"offset": 0,
								"slot": "0",
								"type": "t_address"
							},
							{
								"astId": 13,
								"contract": "contract.sol:AirportContract",
								"label": "name",
								"offset": 0,
								"slot": "1",
								"type": "t_string_storage"
							}
						],
						"numberOfBytes": "64"
					}
				}
			},
			"userdoc": {
				"kind": "user",
				"methods": {},
				"version": 1
			}
		}
	}
}