{
	"contract.sol": {
		"AirportContract": {
			"abi": [
				{
					"inputs": [
						{
							"internalType": "string",
							"name": "name_",
							"type": "string"
						},
						{
							"internalType": "string",
							"name": "symbol_",
							"type": "string"
						},
						{
							"internalType": "uint8",
							"name": "decimals_",
							"type": "uint8"
						},
						{
							"internalType": "uint256",
							"name": "initialSupply_",
							"type": "uint256"
						}
					],
					"stateMutability": "nonpayable",
					"type": "constructor"
				},
				{
					"anonymous": false,
					"inputs": [
						{
							"indexed": true,
							"internalType": "address",
							"name": "owner",
							"type": "address"
						},
						{
							"indexed": true,
							"internalType": "address",
							"name": "spender",
							"type": "address"
						},
						{
							"indexed": false,
							"internalType": "uint256",
							"name": "value",
							"type": "uint256"
						}
					],
					"name": "Approval",
					"type": "event"
				},
				{
					"anonymous": false,
					"inputs": [
						{
							"indexed": true,
							"internalType": "address",
							"name": "from",
							"type": "address"
						},
						{
							"indexed": true,
							"internalType": "address",
							"name": "to",
							"type": "address"
						},
						{
							"indexed": false,
							"internalType": "uint256",
							"name": "value",
							"type": "uint256"
						}
					],
					"name": "Transfer",
					"type": "event"
				},
				{
					"inputs": [
						{
							"internalType": "address",
							"name": "owner",
							"type": "address"
						},
						{
							"internalType": "address",
							"name": "spender",
							"type": "address"
						}
					],
					"name": "allowance",
					"outputs": [
						{
							"internalType": "uint256",
							"name": "",
							"type": "uint256"
						}
					],
					"stateMutability": "view",
					"type": "function"
				},
				{
					"inputs": [
						{
							"internalType": "address",
							"name": "spender",
							"type": "address"
						},
						{
							"internalType": "uint256",
							"name": "amount",
							"type": "uint256"
						}
					],
					"name": "approve",
					"outputs": [
						{
							"internalType": "bool",
							"name": "",
							"type": "bool"
						}
					],
					"stateMutability": "nonpayable",
					"type": "function"
				},
				{
					"inputs": [
						{
							"internalType": "address",
							"name": "id",
							"type": "address"
						},
						{
							"internalType": "uint256",
							"name": "miles",
							"type": "uint256"
						}
					],
					"name": "assignToken",
					"outputs": [],
					"stateMutability": "nonpayable",
					"type": "function"
				},
				{
					"inputs": [
						{
							"internalType": "address",
							"name": "owner",
							"type": "address"
						}
					],
					"name": "balanceOf",
					"outputs": [
						{
							"internalType": "uint256",
							"name": "",
							"type": "uint256"
						}
					],
					"stateMutability": "view",
					"type": "function"
				},
				{
					"inputs": [
						{
							"internalType": "address",
							"name": "from",
							"type": "address"
						},
						{
							"internalType": "uint256",
							"name": "amount",
							"type": "uint256"
						}
					],
					"name": "burn",
					"outputs": [],
					"stateMutability": "nonpayable",
					"type": "function"
				},
				{
					"inputs": [
						{
							"internalType": "address",
							"name": "id",
							"type": "address"
						},
						{
							"internalType": "uint256",
							"name": "miles",
							"type": "uint256"
						}
					],
					"name": "burnToken",
					"outputs": [],
					"stateMutability": "nonpayable",
					"type": "function"
				},
				{
					"inputs": [],
					"name": "decimals",
					"outputs": [
						{
							"internalType": "uint8",
							"name": "",
							"type": "uint8"
						}
					],
					"stateMutability": "view",
					"type": "function"
				},
				{
					"inputs": [],
					"name": "getToken",
					"outputs": [
						{
							"internalType": "contract ERC20Simple",
							"name": "",
							"type": "address"
						}
					],
					"stateMutability": "view",
					"type": "function"
				},
				{
					"inputs": [
						{
							"internalType": "address",
							"name": "to",
							"type": "address"
						},
						{
							"internalType": "uint256",
							"name": "amount",
							"type": "uint256"
						}
					],
					"name": "mint",
					"outputs": [],
					"stateMutability": "nonpayable",
					"type": "function"
				},
				{
					"inputs": [],
					"name": "name",
					"outputs": [
						{
							"internalType": "string",
							"name": "",
							"type": "string"
						}
					],
					"stateMutability": "view",
					"type": "function"
				},
				{
					"inputs": [],
					"name": "owner",
					"outputs": [
						{
							"internalType": "address payable",
							"name": "",
							"type": "address"
						}
					],
					"stateMutability": "view",
					"type": "function"
				},
				{
					"inputs": [
						{
							"internalType": "address",
							"name": "id_",
							"type": "address"
						},
						{
							"internalType": "string",
							"name": "name_",
							"type": "string"
						}
					],
					"name": "register",
					"outputs": [],
					"stateMutability": "nonpayable",
					"type": "function"
				},
				{
					"inputs": [],
					"name": "symbol",
					"outputs": [
						{
							"internalType": "string",
							"name": "",
							"type": "string"
						}
					],
					"stateMutability": "view",
					"type": "function"
				},
				{
					"inputs": [],
					"name": "totalSupply",
					"outputs": [
						{
							"internalType": "uint256",
							"name": "",
							"type": "uint256"
						}
					],
					"stateMutability": "view",
					"type": "function"
				},
				{
					"inputs": [
						{
							"internalType": "address",
							"name": "to",
							"type": "address"
						},
						{
							"internalType": "uint256",
							"name": "amount",
							"type": "uint256"
						}
					],
					"name": "transfer",
					"outputs": [
						{
							"internalType": "bool",
							"name": "",
							"type": "bool"
						}
					],
					"stateMutability": "nonpayable",
					"type": "function"
				},
				{
					"inputs": [
						{
							"internalType": "address",
							"name": "from",
							"type": "address"
						},
						{
							"internalType": "address",
							"name": "to",
							"type": "address"
						},
						{
							"internalType": "uint256",
							"name": "amount",
							"type": "uint256"
						}
					],
					"name": "transferFrom",
					"outputs": [
						{
							"internalType": "bool",
							"name": "",
							"type": "bool"
						}
					],
					"stateMutability": "nonpayable",
					"type": "function"
				}
			],
			"devdoc": {
				"kind": "dev",
				"methods": {},
				"version": 1
			},
			"evm": {
				"assembly": "    /* \"contract.sol\":86:1639  contract AirportContract is ERC20Simple {... */\n  mstore(0x40, 0x80)\n    /* \"contract.sol\":428:670  constructor(... */\n  callvalue\n  dup1\n  iszero\n  tag_1\n  jumpi\n  revert(0x00, 0x00)\ntag_1:\n  pop\n  mload(0x40)\n  sub(codesize, bytecodeSize)\n  dup1\n  bytecodeSize\n  dup4\n  codecopy\n  dup2\n  dup2\n  add\n  0x40\n  mstore\n  dup2\n  add\n  swap1\n  tag_2\n  swap2\n  swap1\n  tag_3\n  jump\t// in\ntag_2:\n    /* \"contract.sol\":580:585  name_ */\n  dup4\n    /* \"contract.sol\":587:594  symbol_ */\n  dup4\n    /* \"contract.sol\":596:605  decimals_ */\n  dup4\n    /* \"contract.sol\":607:621  initialSupply_ */\n  dup4\n    /* \"erc20.sol\":838:843  name_ */\n  dup4\n    /* \"erc20.sol\":830:835  _name */\n  0x00\n    /* \"erc20.sol\":830:843  _name = name_ */\n  swap1\n  dup2\n  tag_7\n  swap2\n  swap1\n  tag_8\n  jump\t// in\ntag_7:\n  pop\n    /* \"erc20.sol\":864:871  symbol_ */\n  dup3\n    /* \"erc20.sol\":854:861  _symbol */\n  0x01\n    /* \"erc20.sol\":854:871  _symbol = symbol_ */\n  swap1\n  dup2\n  tag_9\n  swap2\n  swap1\n  tag_8\n  jump\t// in\ntag_9:\n  pop\n    /* \"erc20.sol\":894:903  decimals_ */\n  dup2\n    /* \"erc20.sol\":882:891  _decimals */\n  0x02\n  0x00\n    /* \"erc20.sol\":882:903  _decimals = decimals_ */\n  0x0100\n  exp\n  dup2\n  sload\n  dup2\n  0xff\n  mul\n  not\n  and\n  swap1\n  dup4\n  0xff\n  and\n  mul\n  or\n  swap1\n  sstore\n  pop\n    /* \"erc20.sol\":916:949  _mint(msg.sender, initialSupply_) */\n  tag_10\n    /* \"erc20.sol\":922:932  msg.sender */\n  caller\n    /* \"erc20.sol\":934:948  initialSupply_ */\n  dup3\n    /* \"erc20.sol\":916:921  _mint */\n  shl(0x20, tag_11)\n    /* \"erc20.sol\":916:949  _mint(msg.sender, initialSupply_) */\n  0x20\n  shr\n  jump\t// in\ntag_10:\n    /* \"erc20.sol\":679:957  constructor(... */\n  pop\n  pop\n  pop\n  pop\n    /* \"contract.sol\":651:661  msg.sender */\n  caller\n    /* \"contract.sol\":634:639  owner */\n  0x09\n  0x00\n    /* \"contract.sol\":634:662  owner = payable (msg.sender) */\n  0x0100\n  exp\n  dup2\n  sload\n  dup2\n  0xffffffffffffffffffffffffffffffffffffffff\n  mul\n  not\n  and\n  swap1\n  dup4\n  0xffffffffffffffffffffffffffffffffffffffff\n  and\n  mul\n  or\n  swap1\n  sstore\n  pop\n    /* \"contract.sol\":428:670  constructor(... */\n  pop\n  pop\n  pop\n  pop\n    /* \"contract.sol\":86:1639  contract AirportContract is ERC20Simple {... */\n  jump(tag_13)\n    /* \"erc20.sol\":3172:3484  function _mint(address to, uint256 amount) internal {... */\ntag_11:\n    /* \"erc20.sol\":3257:3258  0 */\n  0x00\n    /* \"erc20.sol\":3243:3259  to != address(0) */\n  0xffffffffffffffffffffffffffffffffffffffff\n  and\n    /* \"erc20.sol\":3243:3245  to */\n  dup3\n    /* \"erc20.sol\":3243:3259  to != address(0) */\n  0xffffffffffffffffffffffffffffffffffffffff\n  and\n  sub\n    /* \"erc20.sol\":3235:3295  require(to != address(0), \"ERC20: mint to the zero address\") */\n  tag_15\n  jumpi\n  mload(0x40)\n  0x08c379a000000000000000000000000000000000000000000000000000000000\n  dup2\n  mstore\n  0x04\n  add\n  tag_16\n  swap1\n  tag_17\n  jump\t// in\ntag_16:\n  mload(0x40)\n  dup1\n  swap2\n  sub\n  swap1\n  revert\ntag_15:\n    /* \"erc20.sol\":3324:3330  amount */\n  dup1\n    /* \"erc20.sol\":3308:3320  _totalSupply */\n  0x03\n  0x00\n    /* \"erc20.sol\":3308:3330  _totalSupply += amount */\n  dup3\n  dup3\n  sload\n  tag_18\n  swap2\n  swap1\n  tag_19\n  jump\t// in\ntag_18:\n  swap3\n  pop\n  pop\n  dup2\n  swap1\n  sstore\n  pop\n    /* \"erc20.sol\":3358:3364  amount */\n  dup1\n    /* \"erc20.sol\":3341:3350  _balances */\n  0x04\n    /* \"erc20.sol\":3341:3354  _balances[to] */\n  0x00\n    /* \"erc20.sol\":3351:3353  to */\n  dup5\n    /* \"erc20.sol\":3341:3354  _balances[to] */\n  0xffffffffffffffffffffffffffffffffffffffff\n  and\n  0xffffffffffffffffffffffffffffffffffffffff\n  and\n  dup2\n  mstore\n  0x20\n  add\n  swap1\n  dup2\n  mstore\n  0x20\n  add\n  0x00\n  keccak256\n  0x00\n    /* \"erc20.sol\":3341:3364  _balances[to] += amount */\n  dup3\n  dup3\n  sload\n  tag_20\n  swap2\n  swap1\n  tag_19\n  jump\t// in\ntag_20:\n  swap3\n  pop\n  pop\n  dup2\n  swap1\n  sstore\n  pop\n    /* \"erc20.sol\":3465:3467  to */\n  dup2\n    /* \"erc20.sol\":3444:3476  Transfer(address(0), to, amount) */\n  0xffffffffffffffffffffffffffffffffffffffff\n  and\n    /* \"erc20.sol\":3461:3462  0 */\n  0x00\n    /* \"erc20.sol\":3444:3476  Transfer(address(0), to, amount) */\n  0xffffffffffffffffffffffffffffffffffffffff\n  and\n  0xddf252ad1be2c89b69c2b068fc378daa952ba7f163c4a11628f55a4df523b3ef\n    /* \"erc20.sol\":3469:3475  amount */\n  dup4\n    /* \"erc20.sol\":3444:3476  Transfer(address(0), to, amount) */\n  mload(0x40)\n  tag_21\n  swap2\n  swap1\n  tag_22\n  jump\t// in\ntag_21:\n  mload(0x40)\n  dup1\n  swap2\n  sub\n  swap1\n  log3\n    /* \"erc20.sol\":3172:3484  function _mint(address to, uint256 amount) internal {... */\n  pop\n  pop\n  jump\t// out\n    /* \"#utility.yul\":7:82   */\ntag_23:\n    /* \"#utility.yul\":40:46   */\n  0x00\n    /* \"#utility.yul\":73:75   */\n  0x40\n    /* \"#utility.yul\":67:76   */\n  mload\n    /* \"#utility.yul\":57:76   */\n  swap1\n  pop\n    /* \"#utility.yul\":7:82   */\n  swap1\n  jump\t// out\n    /* \"#utility.yul\":88:205   */\ntag_24:\n    /* \"#utility.yul\":197:198   */\n  0x00\n    /* \"#utility.yul\":194:195   */\n  0x00\n    /* \"#utility.yul\":187:199   */\n  revert\n    /* \"#utility.yul\":211:328   */\ntag_25:\n    /* \"#utility.yul\":320:321   */\n  0x00\n    /* \"#utility.yul\":317:318   */\n  0x00\n    /* \"#utility.yul\":310:322   */\n  revert\n    /* \"#utility.yul\":334:451   */\ntag_26:\n    /* \"#utility.yul\":443:444   */\n  0x00\n    /* \"#utility.yul\":440:441   */\n  0x00\n    /* \"#utility.yul\":433:445   */\n  revert\n    /* \"#utility.yul\":457:574   */\ntag_27:\n    /* \"#utility.yul\":566:567   */\n  0x00\n    /* \"#utility.yul\":563:564   */\n  0x00\n    /* \"#utility.yul\":556:568   */\n  revert\n    /* \"#utility.yul\":580:682   */\ntag_28:\n    /* \"#utility.yul\":621:627   */\n  0x00\n    /* \"#utility.yul\":672:674   */\n  0x1f\n    /* \"#utility.yul\":668:675   */\n  not\n    /* \"#utility.yul\":663:665   */\n  0x1f\n    /* \"#utility.yul\":656:661   */\n  dup4\n    /* \"#utility.yul\":652:666   */\n  add\n    /* \"#utility.yul\":648:676   */\n  and\n    /* \"#utility.yul\":638:676   */\n  swap1\n  pop\n    /* \"#utility.yul\":580:682   */\n  swap2\n  swap1\n  pop\n  jump\t// out\n    /* \"#utility.yul\":688:868   */\ntag_29:\n    /* \"#utility.yul\":736:813   */\n  0x4e487b7100000000000000000000000000000000000000000000000000000000\n    /* \"#utility.yul\":733:734   */\n  0x00\n    /* \"#utility.yul\":726:814   */\n  mstore\n    /* \"#utility.yul\":833:837   */\n  0x41\n    /* \"#utility.yul\":830:831   */\n  0x04\n    /* \"#utility.yul\":823:838   */\n  mstore\n    /* \"#utility.yul\":857:861   */\n  0x24\n    /* \"#utility.yul\":854:855   */\n  0x00\n    /* \"#utility.yul\":847:862   */\n  revert\n    /* \"#utility.yul\":874:1155   */\ntag_30:\n    /* \"#utility.yul\":957:984   */\n  tag_74\n    /* \"#utility.yul\":979:983   */\n  dup3\n    /* \"#utility.yul\":957:984   */\n  tag_28\n  jump\t// in\ntag_74:\n    /* \"#utility.yul\":949:955   */\n  dup2\n    /* \"#utility.yul\":945:985   */\n  add\n    /* \"#utility.yul\":1087:1093   */\n  dup2\n    /* \"#utility.yul\":1075:1085   */\n  dup2\n    /* \"#utility.yul\":1072:1094   */\n  lt\n    /* \"#utility.yul\":1051:1069   */\n  0xffffffffffffffff\n    /* \"#utility.yul\":1039:1049   */\n  dup3\n    /* \"#utility.yul\":1036:1070   */\n  gt\n    /* \"#utility.yul\":1033:1095   */\n  or\n    /* \"#utility.yul\":1030:1118   */\n  iszero\n  tag_75\n  jumpi\n    /* \"#utility.yul\":1098:1116   */\n  tag_76\n  tag_29\n  jump\t// in\ntag_76:\n    /* \"#utility.yul\":1030:1118   */\ntag_75:\n    /* \"#utility.yul\":1138:1148   */\n  dup1\n    /* \"#utility.yul\":1134:1136   */\n  0x40\n    /* \"#utility.yul\":1127:1149   */\n  mstore\n    /* \"#utility.yul\":917:1155   */\n  pop\n    /* \"#utility.yul\":874:1155   */\n  pop\n  pop\n  jump\t// out\n    /* \"#utility.yul\":1161:1290   */\ntag_31:\n    /* \"#utility.yul\":1195:1201   */\n  0x00\n    /* \"#utility.yul\":1222:1242   */\n  tag_78\n  tag_23\n  jump\t// in\ntag_78:\n    /* \"#utility.yul\":1212:1242   */\n  swap1\n  pop\n    /* \"#utility.yul\":1251:1284   */\n  tag_79\n    /* \"#utility.yul\":1279:1283   */\n  dup3\n    /* \"#utility.yul\":1271:1277   */\n  dup3\n    /* \"#utility.yul\":1251:1284   */\n  tag_30\n  jump\t// in\ntag_79:\n    /* \"#utility.yul\":1161:1290   */\n  swap2\n  swap1\n  pop\n  jump\t// out\n    /* \"#utility.yul\":1296:1604   */\ntag_32:\n    /* \"#utility.yul\":1358:1362   */\n  0x00\n    /* \"#utility.yul\":1448:1466   */\n  0xffffffffffffffff\n    /* \"#utility.yul\":1440:1446   */\n  dup3\n    /* \"#utility.yul\":1437:1467   */\n  gt\n    /* \"#utility.yul\":1434:1490   */\n  iszero\n  tag_81\n  jumpi\n    /* \"#utility.yul\":1470:1488   */\n  tag_82\n  tag_29\n  jump\t// in\ntag_82:\n    /* \"#utility.yul\":1434:1490   */\ntag_81:\n    /* \"#utility.yul\":1508:1537   */\n  tag_83\n    /* \"#utility.yul\":1530:1536   */\n  dup3\n    /* \"#utility.yul\":1508:1537   */\n  tag_28\n  jump\t// in\ntag_83:\n    /* \"#utility.yul\":1500:1537   */\n  swap1\n  pop\n    /* \"#utility.yul\":1592:1596   */\n  0x20\n    /* \"#utility.yul\":1586:1590   */\n  dup2\n    /* \"#utility.yul\":1582:1597   */\n  add\n    /* \"#utility.yul\":1574:1597   */\n  swap1\n  pop\n    /* \"#utility.yul\":1296:1604   */\n  swap2\n  swap1\n  pop\n  jump\t// out\n    /* \"#utility.yul\":1610:1749   */\ntag_33:\n    /* \"#utility.yul\":1699:1705   */\n  dup3\n    /* \"#utility.yul\":1694:1697   */\n  dup2\n    /* \"#utility.yul\":1689:1692   */\n  dup4\n    /* \"#utility.yul\":1683:1706   */\n  mcopy\n    /* \"#utility.yul\":1740:1741   */\n  0x00\n    /* \"#utility.yul\":1731:1737   */\n  dup4\n    /* \"#utility.yul\":1726:1729   */\n  dup4\n    /* \"#utility.yul\":1722:1738   */\n  add\n    /* \"#utility.yul\":1715:1742   */\n  mstore\n    /* \"#utility.yul\":1610:1749   */\n  pop\n  pop\n  pop\n  jump\t// out\n    /* \"#utility.yul\":1755:2189   */\ntag_34:\n    /* \"#utility.yul\":1844:1849   */\n  0x00\n    /* \"#utility.yul\":1869:1935   */\n  tag_86\n    /* \"#utility.yul\":1885:1934   */\n  tag_87\n    /* \"#utility.yul\":1927:1933   */\n  dup5\n    /* \"#utility.yul\":1885:1934   */\n  tag_32\n  jump\t// in\ntag_87:\n    /* \"#utility.yul\":1869:1935   */\n  tag_31\n  jump\t// in\ntag_86:\n    /* \"#utility.yul\":1860:1935   */\n  swap1\n  pop\n    /* \"#utility.yul\":1958:1964   */\n  dup3\n    /* \"#utility.yul\":1951:1956   */\n  dup2\n    /* \"#utility.yul\":1944:1965   */\n  mstore\n    /* \"#utility.yul\":1996:2000   */\n  0x20\n    /* \"#utility.yul\":1989:1994   */\n  dup2\n    /* \"#utility.yul\":1985:2001   */\n  add\n    /* \"#utility.yul\":2034:2037   */\n  dup5\n    /* \"#utility.yul\":2025:2031   */\n  dup5\n    /* \"#utility.yul\":2020:2023   */\n  dup5\n    /* \"#utility.yul\":2016:2032   */\n  add\n    /* \"#utility.yul\":2013:2038   */\n  gt\n    /* \"#utility.yul\":2010:2122   */\n  iszero\n  tag_88\n  jumpi\n    /* \"#utility.yul\":2041:2120   */\n  tag_89\n  tag_27\n  jump\t// in\ntag_89:\n    /* \"#utility.yul\":2010:2122   */\ntag_88:\n    /* \"#utility.yul\":2131:2183   */\n  tag_90\n    /* \"#utility.yul\":2176:2182   */\n  dup5\n    /* \"#utility.yul\":2171:2174   */\n  dup3\n    /* \"#utility.yul\":2166:2169   */\n  dup6\n    /* \"#utility.yul\":2131:2183   */\n  tag_33\n  jump\t// in\ntag_90:\n    /* \"#utility.yul\":1850:2189   */\n  pop\n    /* \"#utility.yul\":1755:2189   */\n  swap4\n  swap3\n  pop\n  pop\n  pop\n  jump\t// out\n    /* \"#utility.yul\":2209:2564   */\ntag_35:\n    /* \"#utility.yul\":2276:2281   */\n  0x00\n    /* \"#utility.yul\":2325:2328   */\n  dup3\n    /* \"#utility.yul\":2318:2322   */\n  0x1f\n    /* \"#utility.yul\":2310:2316   */\n  dup4\n    /* \"#utility.yul\":2306:2323   */\n  add\n    /* \"#utility.yul\":2302:2329   */\n  slt\n    /* \"#utility.yul\":2292:2414   */\n  tag_92\n  jumpi\n    /* \"#utility.yul\":2333:2412   */\n  tag_93\n  tag_26\n  jump\t// in\ntag_93:\n    /* \"#utility.yul\":2292:2414   */\ntag_92:\n    /* \"#utility.yul\":2443:2449   */\n  dup2\n    /* \"#utility.yul\":2437:2450   */\n  mload\n    /* \"#utility.yul\":2468:2558   */\n  tag_94\n    /* \"#utility.yul\":2554:2557   */\n  dup5\n    /* \"#utility.yul\":2546:2552   */\n  dup3\n    /* \"#utility.yul\":2539:2543   */\n  0x20\n    /* \"#utility.yul\":2531:2537   */\n  dup7\n    /* \"#utility.yul\":2527:2544   */\n  add\n    /* \"#utility.yul\":2468:2558   */\n  tag_34\n  jump\t// in\ntag_94:\n    /* \"#utility.yul\":2459:2558   */\n  swap2\n  pop\n    /* \"#utility.yul\":2282:2564   */\n  pop\n    /* \"#utility.yul\":2209:2564   */\n  swap3\n  swap2\n  pop\n  pop\n  jump\t// out\n    /* \"#utility.yul\":2570:2656   */\ntag_36:\n    /* \"#utility.yul\":2605:2612   */\n  0x00\n    /* \"#utility.yul\":2645:2649   */\n  0xff\n    /* \"#utility.yul\":2638:2643   */\n  dup3\n    /* \"#utility.yul\":2634:2650   */\n  and\n    /* \"#utility.yul\":2623:2650   */\n  swap1\n  pop\n    /* \"#utility.yul\":2570:2656   */\n  swap2\n  swap1\n  pop\n  jump\t// out\n    /* \"#utility.yul\":2662:2780   */\ntag_37:\n    /* \"#utility.yul\":2733:2755   */\n  tag_97\n    /* \"#utility.yul\":2749:2754   */\n  dup2\n    /* \"#utility.yul\":2733:2755   */\n  tag_36\n  jump\t// in\ntag_97:\n    /* \"#utility.yul\":2726:2731   */\n  dup2\n    /* \"#utility.yul\":2723:2756   */\n  eq\n    /* \"#utility.yul\":2713:2774   */\n  tag_98\n  jumpi\n    /* \"#utility.yul\":2770:2771   */\n  0x00\n    /* \"#utility.yul\":2767:2768   */\n  0x00\n    /* \"#utility.yul\":2760:2772   */\n  revert\n    /* \"#utility.yul\":2713:2774   */\ntag_98:\n    /* \"#utility.yul\":2662:2780   */\n  pop\n  jump\t// out\n    /* \"#utility.yul\":2786:2925   */\ntag_38:\n    /* \"#utility.yul\":2841:2846   */\n  0x00\n    /* \"#utility.yul\":2872:2878   */\n  dup2\n    /* \"#utility.yul\":2866:2879   */\n  mload\n    /* \"#utility.yul\":2857:2879   */\n  swap1\n  pop\n    /* \"#utility.yul\":2888:2919   */\n  tag_100\n    /* \"#utility.yul\":2913:2918   */\n  dup2\n    /* \"#utility.yul\":2888:2919   */\n  tag_37\n  jump\t// in\ntag_100:\n    /* \"#utility.yul\":2786:2925   */\n  swap3\n  swap2\n  pop\n  pop\n  jump\t// out\n    /* \"#utility.yul\":2931:3008   */\ntag_39:\n    /* \"#utility.yul\":2968:2975   */\n  0x00\n    /* \"#utility.yul\":2997:3002   */\n  dup2\n    /* \"#utility.yul\":2986:3002   */\n  swap1\n  pop\n    /* \"#utility.yul\":2931:3008   */\n  swap2\n  swap1\n  pop\n  jump\t// out\n    /* \"#utility.yul\":3014:3136   */\ntag_40:\n    /* \"#utility.yul\":3087:3111   */\n  tag_103\n    /* \"#utility.yul\":3105:3110   */\n  dup2\n    /* \"#utility.yul\":3087:3111   */\n  tag_39\n  jump\t// in\ntag_103:\n    /* \"#utility.yul\":3080:3085   */\n  dup2\n    /* \"#utility.yul\":3077:3112   */\n  eq\n    /* \"#utility.yul\":3067:3130   */\n  tag_104\n  jumpi\n    /* \"#utility.yul\":3126:3127   */\n  0x00\n    /* \"#utility.yul\":3123:3124   */\n  0x00\n    /* \"#utility.yul\":3116:3128   */\n  revert\n    /* \"#utility.yul\":3067:3130   */\ntag_104:\n    /* \"#utility.yul\":3014:3136   */\n  pop\n  jump\t// out\n    /* \"#utility.yul\":3142:3285   */\ntag_41:\n    /* \"#utility.yul\":3199:3204   */\n  0x00\n    /* \"#utility.yul\":3230:3236   */\n  dup2\n    /* \"#utility.yul\":3224:3237   */\n  mload\n    /* \"#utility.yul\":3215:3237   */\n  swap1\n  pop\n    /* \"#utility.yul\":3246:3279   */\n  tag_106\n    /* \"#utility.yul\":3273:3278   */\n  dup2\n    /* \"#utility.yul\":3246:3279   */\n  tag_40\n  jump\t// in\ntag_106:\n    /* \"#utility.yul\":3142:3285   */\n  swap3\n  swap2\n  pop\n  pop\n  jump\t// out\n    /* \"#utility.yul\":3291:4453   */\ntag_3:\n    /* \"#utility.yul\":3406:3412   */\n  0x00\n    /* \"#utility.yul\":3414:3420   */\n  0x00\n    /* \"#utility.yul\":3422:3428   */\n  0x00\n    /* \"#utility.yul\":3430:3436   */\n  0x00\n    /* \"#utility.yul\":3479:3482   */\n  0x80\n    /* \"#utility.yul\":3467:3476   */\n  dup6\n    /* \"#utility.yul\":3458:3465   */\n  dup8\n    /* \"#utility.yul\":3454:3477   */\n  sub\n    /* \"#utility.yul\":3450:3483   */\n  slt\n    /* \"#utility.yul\":3447:3567   */\n  iszero\n  tag_108\n  jumpi\n    /* \"#utility.yul\":3486:3565   */\n  tag_109\n  tag_24\n  jump\t// in\ntag_109:\n    /* \"#utility.yul\":3447:3567   */\ntag_108:\n    /* \"#utility.yul\":3627:3628   */\n  0x00\n    /* \"#utility.yul\":3616:3625   */\n  dup6\n    /* \"#utility.yul\":3612:3629   */\n  add\n    /* \"#utility.yul\":3606:3630   */\n  mload\n    /* \"#utility.yul\":3657:3675   */\n  0xffffffffffffffff\n    /* \"#utility.yul\":3649:3655   */\n  dup2\n    /* \"#utility.yul\":3646:3676   */\n  gt\n    /* \"#utility.yul\":3643:3760   */\n  iszero\n  tag_110\n  jumpi\n    /* \"#utility.yul\":3679:3758   */\n  tag_111\n  tag_25\n  jump\t// in\ntag_111:\n    /* \"#utility.yul\":3643:3760   */\ntag_110:\n    /* \"#utility.yul\":3784:3858   */\n  tag_112\n    /* \"#utility.yul\":3850:3857   */\n  dup8\n    /* \"#utility.yul\":3841:3847   */\n  dup3\n    /* \"#utility.yul\":3830:3839   */\n  dup9\n    /* \"#utility.yul\":3826:3848   */\n  add\n    /* \"#utility.yul\":3784:3858   */\n  tag_35\n  jump\t// in\ntag_112:\n    /* \"#utility.yul\":3774:3858   */\n  swap5\n  pop\n    /* \"#utility.yul\":3577:3868   */\n  pop\n    /* \"#utility.yul\":3928:3930   */\n  0x20\n    /* \"#utility.yul\":3917:3926   */\n  dup6\n    /* \"#utility.yul\":3913:3931   */\n  add\n    /* \"#utility.yul\":3907:3932   */\n  mload\n    /* \"#utility.yul\":3959:3977   */\n  0xffffffffffffffff\n    /* \"#utility.yul\":3951:3957   */\n  dup2\n    /* \"#utility.yul\":3948:3978   */\n  gt\n    /* \"#utility.yul\":3945:4062   */\n  iszero\n  tag_113\n  jumpi\n    /* \"#utility.yul\":3981:4060   */\n  tag_114\n  tag_25\n  jump\t// in\ntag_114:\n    /* \"#utility.yul\":3945:4062   */\ntag_113:\n    /* \"#utility.yul\":4086:4160   */\n  tag_115\n    /* \"#utility.yul\":4152:4159   */\n  dup8\n    /* \"#utility.yul\":4143:4149   */\n  dup3\n    /* \"#utility.yul\":4132:4141   */\n  dup9\n    /* \"#utility.yul\":4128:4150   */\n  add\n    /* \"#utility.yul\":4086:4160   */\n  tag_35\n  jump\t// in\ntag_115:\n    /* \"#utility.yul\":4076:4160   */\n  swap4\n  pop\n    /* \"#utility.yul\":3878:4170   */\n  pop\n    /* \"#utility.yul\":4209:4211   */\n  0x40\n    /* \"#utility.yul\":4235:4297   */\n  tag_116\n    /* \"#utility.yul\":4289:4296   */\n  dup8\n    /* \"#utility.yul\":4280:4286   */\n  dup3\n    /* \"#utility.yul\":4269:4278   */\n  dup9\n    /* \"#utility.yul\":4265:4287   */\n  add\n    /* \"#utility.yul\":4235:4297   */\n  tag_38\n  jump\t// in\ntag_116:\n    /* \"#utility.yul\":4225:4297   */\n  swap3\n  pop\n    /* \"#utility.yul\":4180:4307   */\n  pop\n    /* \"#utility.yul\":4346:4348   */\n  0x60\n    /* \"#utility.yul\":4372:4436   */\n  tag_117\n    /* \"#utility.yul\":4428:4435   */\n  dup8\n    /* \"#utility.yul\":4419:4425   */\n  dup3\n    /* \"#utility.yul\":4408:4417   */\n  dup9\n    /* \"#utility.yul\":4404:4426   */\n  add\n    /* \"#utility.yul\":4372:4436   */\n  tag_41\n  jump\t// in\ntag_117:\n    /* \"#utility.yul\":4362:4436   */\n  swap2\n  pop\n    /* \"#utility.yul\":4317:4446   */\n  pop\n    /* \"#utility.yul\":3291:4453   */\n  swap3\n  swap6\n  swap2\n  swap5\n  pop\n  swap3\n  pop\n  jump\t// out\n    /* \"#utility.yul\":4459:4558   */\ntag_42:\n    /* \"#utility.yul\":4511:4517   */\n  0x00\n    /* \"#utility.yul\":4545:4550   */\n  dup2\n    /* \"#utility.yul\":4539:4551   */\n  mload\n    /* \"#utility.yul\":4529:4551   */\n  swap1\n  pop\n    /* \"#utility.yul\":4459:4558   */\n  swap2\n  swap1\n  pop\n  jump\t// out\n    /* \"#utility.yul\":4564:4744   */\ntag_43:\n    /* \"#utility.yul\":4612:4689   */\n  0x4e487b7100000000000000000000000000000000000000000000000000000000\n    /* \"#utility.yul\":4609:4610   */\n  0x00\n    /* \"#utility.yul\":4602:4690   */\n  mstore\n    /* \"#utility.yul\":4709:4713   */\n  0x22\n    /* \"#utility.yul\":4706:4707   */\n  0x04\n    /* \"#utility.yul\":4699:4714   */\n  mstore\n    /* \"#utility.yul\":4733:4737   */\n  0x24\n    /* \"#utility.yul\":4730:4731   */\n  0x00\n    /* \"#utility.yul\":4723:4738   */\n  revert\n    /* \"#utility.yul\":4750:5070   */\ntag_44:\n    /* \"#utility.yul\":4794:4800   */\n  0x00\n    /* \"#utility.yul\":4831:4832   */\n  0x02\n    /* \"#utility.yul\":4825:4829   */\n  dup3\n    /* \"#utility.yul\":4821:4833   */\n  div\n    /* \"#utility.yul\":4811:4833   */\n  swap1\n  pop\n    /* \"#utility.yul\":4878:4879   */\n  0x01\n    /* \"#utility.yul\":4872:4876   */\n  dup3\n    /* \"#utility.yul\":4868:4880   */\n  and\n    /* \"#utility.yul\":4899:4917   */\n  dup1\n    /* \"#utility.yul\":4889:4970   */\n  tag_121\n  jumpi\n    /* \"#utility.yul\":4955:4959   */\n  0x7f\n    /* \"#utility.yul\":4947:4953   */\n  dup3\n    /* \"#utility.yul\":4943:4960   */\n  and\n    /* \"#utility.yul\":4933:4960   */\n  swap2\n  pop\n    /* \"#utility.yul\":4889:4970   */\ntag_121:\n    /* \"#utility.yul\":5017:5019   */\n  0x20\n    /* \"#utility.yul\":5009:5015   */\n  dup3\n    /* \"#utility.yul\":5006:5020   */\n  lt\n    /* \"#utility.yul\":4986:5004   */\n  dup2\n    /* \"#utility.yul\":4983:5021   */\n  sub\n    /* \"#utility.yul\":4980:5064   */\n  tag_122\n  jumpi\n    /* \"#utility.yul\":5036:5054   */\n  tag_123\n  tag_43\n  jump\t// in\ntag_123:\n    /* \"#utility.yul\":4980:5064   */\ntag_122:\n    /* \"#utility.yul\":4801:5070   */\n  pop\n    /* \"#utility.yul\":4750:5070   */\n  swap2\n  swap1\n  pop\n  jump\t// out\n    /* \"#utility.yul\":5076:5217   */\ntag_45:\n    /* \"#utility.yul\":5125:5129   */\n  0x00\n    /* \"#utility.yul\":5148:5151   */\n  dup2\n    /* \"#utility.yul\":5140:5151   */\n  swap1\n  pop\n    /* \"#utility.yul\":5171:5174   */\n  dup2\n    /* \"#utility.yul\":5168:5169   */\n  0x00\n    /* \"#utility.yul\":5161:5175   */\n  mstore\n    /* \"#utility.yul\":5205:5209   */\n  0x20\n    /* \"#utility.yul\":5202:5203   */\n  0x00\n    /* \"#utility.yul\":5192:5210   */\n  keccak256\n    /* \"#utility.yul\":5184:5210   */\n  swap1\n  pop\n    /* \"#utility.yul\":5076:5217   */\n  swap2\n  swap1\n  pop\n  jump\t// out\n    /* \"#utility.yul\":5223:5316   */\ntag_46:\n    /* \"#utility.yul\":5260:5266   */\n  0x00\n    /* \"#utility.yul\":5307:5309   */\n  0x20\n    /* \"#utility.yul\":5302:5304   */\n  0x1f\n    /* \"#utility.yul\":5295:5300   */\n  dup4\n    /* \"#utility.yul\":5291:5305   */\n  add\n    /* \"#utility.yul\":5287:5310   */\n  div\n    /* \"#utility.yul\":5277:5310   */\n  swap1\n  pop\n    /* \"#utility.yul\":5223:5316   */\n  swap2\n  swap1\n  pop\n  jump\t// out\n    /* \"#utility.yul\":5322:5429   */\ntag_47:\n    /* \"#utility.yul\":5366:5374   */\n  0x00\n    /* \"#utility.yul\":5416:5421   */\n  dup3\n    /* \"#utility.yul\":5410:5414   */\n  dup3\n    /* \"#utility.yul\":5406:5422   */\n  shl\n    /* \"#utility.yul\":5385:5422   */\n  swap1\n  pop\n    /* \"#utility.yul\":5322:5429   */\n  swap3\n  swap2\n  pop\n  pop\n  jump\t// out\n    /* \"#utility.yul\":5435:5828   */\ntag_48:\n    /* \"#utility.yul\":5504:5510   */\n  0x00\n    /* \"#utility.yul\":5554:5555   */\n  0x08\n    /* \"#utility.yul\":5542:5552   */\n  dup4\n    /* \"#utility.yul\":5538:5556   */\n  mul\n    /* \"#utility.yul\":5577:5674   */\n  tag_128\n    /* \"#utility.yul\":5607:5673   */\n  0xffffffffffffffffffffffffffffffffffffffffffffffffffffffffffffffff\n    /* \"#utility.yul\":5596:5605   */\n  dup3\n    /* \"#utility.yul\":5577:5674   */\n  tag_47\n  jump\t// in\ntag_128:\n    /* \"#utility.yul\":5695:5734   */\n  tag_129\n    /* \"#utility.yul\":5725:5733   */\n  dup7\n    /* \"#utility.yul\":5714:5723   */\n  dup4\n    /* \"#utility.yul\":5695:5734   */\n  tag_47\n  jump\t// in\ntag_129:\n    /* \"#utility.yul\":5683:5734   */\n  swap6\n  pop\n    /* \"#utility.yul\":5767:5771   */\n  dup1\n    /* \"#utility.yul\":5763:5772   */\n  not\n    /* \"#utility.yul\":5756:5761   */\n  dup5\n    /* \"#utility.yul\":5752:5773   */\n  and\n    /* \"#utility.yul\":5743:5773   */\n  swap4\n  pop\n    /* \"#utility.yul\":5816:5820   */\n  dup1\n    /* \"#utility.yul\":5806:5814   */\n  dup7\n    /* \"#utility.yul\":5802:5821   */\n  and\n    /* \"#utility.yul\":5795:5800   */\n  dup5\n    /* \"#utility.yul\":5792:5822   */\n  or\n    /* \"#utility.yul\":5782:5822   */\n  swap3\n  pop\n    /* \"#utility.yul\":5511:5828   */\n  pop\n  pop\n    /* \"#utility.yul\":5435:5828   */\n  swap4\n  swap3\n  pop\n  pop\n  pop\n  jump\t// out\n    /* \"#utility.yul\":5834:5894   */\ntag_49:\n    /* \"#utility.yul\":5862:5865   */\n  0x00\n    /* \"#utility.yul\":5883:5888   */\n  dup2\n    /* \"#utility.yul\":5876:5888   */\n  swap1\n  pop\n    /* \"#utility.yul\":5834:5894   */\n  swap2\n  swap1\n  pop\n  jump\t// out\n    /* \"#utility.yul\":5900:6042   */\ntag_50:\n    /* \"#utility.yul\":5950:5959   */\n  0x00\n    /* \"#utility.yul\":5983:6036   */\n  tag_132\n    /* \"#utility.yul\":6001:6035   */\n  tag_133\n    /* \"#utility.yul\":6010:6034   */\n  tag_134\n    /* \"#utility.yul\":6028:6033   */\n  dup5\n    /* \"#utility.yul\":6010:6034   */\n  tag_39\n  jump\t// in\ntag_134:\n    /* \"#utility.yul\":6001:6035   */\n  tag_49\n  jump\t// in\ntag_133:\n    /* \"#utility.yul\":5983:6036   */\n  tag_39\n  jump\t// in\ntag_132:\n    /* \"#utility.yul\":5970:6036   */\n  swap1\n  pop\n    /* \"#utility.yul\":5900:6042   */\n  swap2\n  swap1\n  pop\n  jump\t// out\n    /* \"#utility.yul\":6048:6123   */\ntag_51:\n    /* \"#utility.yul\":6091:6094   */\n  0x00\n    /* \"#utility.yul\":6112:6117   */\n  dup2\n    /* \"#utility.yul\":6105:6117   */\n  swap1\n  pop\n    /* \"#utility.yul\":6048:6123   */\n  swap2\n  swap1\n  pop\n  jump\t// out\n    /* \"#utility.yul\":6129:6398   */\ntag_52:\n    /* \"#utility.yul\":6239:6278   */\n  tag_137\n    /* \"#utility.yul\":6270:6277   */\n  dup4\n    /* \"#utility.yul\":6239:6278   */\n  tag_50\n  jump\t// in\ntag_137:\n    /* \"#utility.yul\":6300:6391   */\n  tag_138\n    /* \"#utility.yul\":6349:6390   */\n  tag_139\n    /* \"#utility.yul\":6373:6389   */\n  dup3\n    /* \"#utility.yul\":6349:6390   */\n  tag_51\n  jump\t// in\ntag_139:\n    /* \"#utility.yul\":6341:6347   */\n  dup5\n    /* \"#utility.yul\":6334:6338   */\n  dup5\n    /* \"#utility.yul\":6328:6339   */\n  sload\n    /* \"#utility.yul\":6300:6391   */\n  tag_48\n  jump\t// in\ntag_138:\n    /* \"#utility.yul\":6294:6298   */\n  dup3\n    /* \"#utility.yul\":6287:6392   */\n  sstore\n    /* \"#utility.yul\":6205:6398   */\n  pop\n    /* \"#utility.yul\":6129:6398   */\n  pop\n  pop\n  pop\n  jump\t// out\n    /* \"#utility.yul\":6404:6477   */\ntag_53:\n    /* \"#utility.yul\":6449:6452   */\n  0x00\n    /* \"#utility.yul\":6470:6471   */\n  0x00\n    /* \"#utility.yul\":6463:6471   */\n  swap1\n  pop\n    /* \"#utility.yul\":6404:6477   */\n  swap1\n  jump\t// out\n    /* \"#utility.yul\":6483:6672   */\ntag_54:\n    /* \"#utility.yul\":6560:6592   */\n  tag_142\n  tag_53\n  jump\t// in\ntag_142:\n    /* \"#utility.yul\":6601:6666   */\n  tag_143\n    /* \"#utility.yul\":6659:6665   */\n  dup2\n    /* \"#utility.yul\":6651:6657   */\n  dup5\n    /* \"#utility.yul\":6645:6649   */\n  dup5\n    /* \"#utility.yul\":6601:6666   */\n  tag_52\n  jump\t// in\ntag_143:\n    /* \"#utility.yul\":6536:6672   */\n  pop\n    /* \"#utility.yul\":6483:6672   */\n  pop\n  pop\n  jump\t// out\n    /* \"#utility.yul\":6678:6864   */\ntag_55:\n    /* \"#utility.yul\":6738:6858   */\ntag_145:\n    /* \"#utility.yul\":6755:6758   */\n  dup2\n    /* \"#utility.yul\":6748:6753   */\n  dup2\n    /* \"#utility.yul\":6745:6759   */\n  lt\n    /* \"#utility.yul\":6738:6858   */\n  iszero\n  tag_147\n  jumpi\n    /* \"#utility.yul\":6809:6848   */\n  tag_148\n    /* \"#utility.yul\":6846:6847   */\n  0x00\n    /* \"#utility.yul\":6839:6844   */\n  dup3\n    /* \"#utility.yul\":6809:6848   */\n  tag_54\n  jump\t// in\ntag_148:\n    /* \"#utility.yul\":6782:6783   */\n  0x01\n    /* \"#utility.yul\":6775:6780   */\n  dup2\n    /* \"#utility.yul\":6771:6784   */\n  add\n    /* \"#utility.yul\":6762:6784   */\n  swap1\n  pop\n    /* \"#utility.yul\":6738:6858   */\n  jump(tag_145)\ntag_147:\n    /* \"#utility.yul\":6678:6864   */\n  pop\n  pop\n  jump\t// out\n    /* \"#utility.yul\":6870:7413   */\ntag_56:\n    /* \"#utility.yul\":6971:6973   */\n  0x1f\n    /* \"#utility.yul\":6966:6969   */\n  dup3\n    /* \"#utility.yul\":6963:6974   */\n  gt\n    /* \"#utility.yul\":6960:7406   */\n  iszero\n  tag_150\n  jumpi\n    /* \"#utility.yul\":7005:7043   */\n  tag_151\n    /* \"#utility.yul\":7037:7042   */\n  dup2\n    /* \"#utility.yul\":7005:7043   */\n  tag_45\n  jump\t// in\ntag_151:\n    /* \"#utility.yul\":7089:7118   */\n  tag_152\n    /* \"#utility.yul\":7107:7117   */\n  dup5\n    /* \"#utility.yul\":7089:7118   */\n  tag_46\n  jump\t// in\ntag_152:\n    /* \"#utility.yul\":7079:7087   */\n  dup2\n    /* \"#utility.yul\":7075:7119   */\n  add\n    /* \"#utility.yul\":7272:7274   */\n  0x20\n    /* \"#utility.yul\":7260:7270   */\n  dup6\n    /* \"#utility.yul\":7257:7275   */\n  lt\n    /* \"#utility.yul\":7254:7303   */\n  iszero\n  tag_153\n  jumpi\n    /* \"#utility.yul\":7293:7301   */\n  dup2\n    /* \"#utility.yul\":7278:7301   */\n  swap1\n  pop\n    /* \"#utility.yul\":7254:7303   */\ntag_153:\n    /* \"#utility.yul\":7316:7396   */\n  tag_154\n    /* \"#utility.yul\":7372:7394   */\n  tag_155\n    /* \"#utility.yul\":7390:7393   */\n  dup6\n    /* \"#utility.yul\":7372:7394   */\n  tag_46\n  jump\t// in\ntag_155:\n    /* \"#utility.yul\":7362:7370   */\n  dup4\n    /* \"#utility.yul\":7358:7395   */\n  add\n    /* \"#utility.yul\":7345:7356   */\n  dup3\n    /* \"#utility.yul\":7316:7396   */\n  tag_55\n  jump\t// in\ntag_154:\n    /* \"#utility.yul\":6975:7406   */\n  pop\n  pop\n    /* \"#utility.yul\":6960:7406   */\ntag_150:\n    /* \"#utility.yul\":6870:7413   */\n  pop\n  pop\n  pop\n  jump\t// out\n    /* \"#utility.yul\":7419:7536   */\ntag_57:\n    /* \"#utility.yul\":7473:7481   */\n  0x00\n    /* \"#utility.yul\":7523:7528   */\n  dup3\n    /* \"#utility.yul\":7517:7521   */\n  dup3\n    /* \"#utility.yul\":7513:7529   */\n  shr\n    /* \"#utility.yul\":7492:7529   */\n  swap1\n  pop\n    /* \"#utility.yul\":7419:7536   */\n  swap3\n  swap2\n  pop\n  pop\n  jump\t// out\n    /* \"#utility.yul\":7542:7711   */\ntag_58:\n    /* \"#utility.yul\":7586:7592   */\n  0x00\n    /* \"#utility.yul\":7619:7670   */\n  tag_158\n    /* \"#utility.yul\":7667:7668   */\n  0x00\n    /* \"#utility.yul\":7663:7669   */\n  not\n    /* \"#utility.yul\":7655:7660   */\n  dup5\n    /* \"#utility.yul\":7652:7653   */\n  0x08\n    /* \"#utility.yul\":7648:7661   */\n  mul\n    /* \"#utility.yul\":7619:7670   */\n  tag_57\n  jump\t// in\ntag_158:\n    /* \"#utility.yul\":7615:7671   */\n  not\n    /* \"#utility.yul\":7700:7704   */\n  dup1\n    /* \"#utility.yul\":7694:7698   */\n  dup4\n    /* \"#utility.yul\":7690:7705   */\n  and\n    /* \"#utility.yul\":7680:7705   */\n  swap2\n  pop\n    /* \"#utility.yul\":7593:7711   */\n  pop\n    /* \"#utility.yul\":7542:7711   */\n  swap3\n  swap2\n  pop\n  pop\n  jump\t// out\n    /* \"#utility.yul\":7716:8011   */\ntag_59:\n    /* \"#utility.yul\":7792:7796   */\n  0x00\n    /* \"#utility.yul\":7938:7967   */\n  tag_160\n    /* \"#utility.yul\":7963:7966   */\n  dup4\n    /* \"#utility.yul\":7957:7961   */\n  dup4\n    /* \"#utility.yul\":7938:7967   */\n  tag_58\n  jump\t// in\ntag_160:\n    /* \"#utility.yul\":7930:7967   */\n  swap2\n  pop\n    /* \"#utility.yul\":8000:8003   */\n  dup3\n    /* \"#utility.yul\":7997:7998   */\n  0x02\n    /* \"#utility.yul\":7993:8004   */\n  mul\n    /* \"#utility.yul\":7987:7991   */\n  dup3\n    /* \"#utility.yul\":7984:8005   */\n  or\n    /* \"#utility.yul\":7976:8005   */\n  swap1\n  pop\n    /* \"#utility.yul\":7716:8011   */\n  swap3\n  swap2\n  pop\n  pop\n  jump\t// out\n    /* \"#utility.yul\":8016:9411   */\ntag_8:\n    /* \"#utility.yul\":8133:8170   */\n  tag_162\n    /* \"#utility.yul\":8166:8169   */\n  dup3\n    /* \"#utility.yul\":8133:8170   */\n  tag_42\n  jump\t// in\ntag_162:\n    /* \"#utility.yul\":8235:8253   */\n  0xffffffffffffffff\n    /* \"#utility.yul\":8227:8233   */\n  dup2\n    /* \"#utility.yul\":8224:8254   */\n  gt\n    /* \"#utility.yul\":8221:8277   */\n  iszero\n  tag_163\n  jumpi\n    /* \"#utility.yul\":8257:8275   */\n  tag_164\n  tag_29\n  jump\t// in\ntag_164:\n    /* \"#utility.yul\":8221:8277   */\ntag_163:\n    /* \"#utility.yul\":8301:8339   */\n  tag_165\n    /* \"#utility.yul\":8333:8337   */\n  dup3\n    /* \"#utility.yul\":8327:8338   */\n  sload\n    /* \"#utility.yul\":8301:8339   */\n  tag_44\n  jump\t// in\ntag_165:\n    /* \"#utility.yul\":8386:8453   */\n  tag_166\n    /* \"#utility.yul\":8446:8452   */\n  dup3\n    /* \"#utility.yul\":8438:8444   */\n  dup3\n    /* \"#utility.yul\":8432:8436   */\n  dup6\n    /* \"#utility.yul\":8386:8453   */\n  tag_56\n  jump\t// in\ntag_166:\n    /* \"#utility.yul\":8480:8481   */\n  0x00\n    /* \"#utility.yul\":8504:8508   */\n  0x20\n    /* \"#utility.yul\":8491:8508   */\n  swap1\n  pop\n    /* \"#utility.yul\":8536:8538   */\n  0x1f\n    /* \"#utility.yul\":8528:8534   */\n  dup4\n    /* \"#utility.yul\":8525:8539   */\n  gt\n    /* \"#utility.yul\":8553:8554   */\n  0x01\n    /* \"#utility.yul\":8548:9166   */\n  dup2\n  eq\n  tag_168\n  jumpi\n    /* \"#utility.yul\":9210:9211   */\n  0x00\n    /* \"#utility.yul\":9227:9233   */\n  dup5\n    /* \"#utility.yul\":9224:9301   */\n  iszero\n  tag_169\n  jumpi\n    /* \"#utility.yul\":9276:9285   */\n  dup3\n    /* \"#utility.yul\":9271:9274   */\n  dup8\n    /* \"#utility.yul\":9267:9286   */\n  add\n    /* \"#utility.yul\":9261:9287   */\n  mload\n    /* \"#utility.yul\":9252:9287   */\n  swap1\n  pop\n    /* \"#utility.yul\":9224:9301   */\ntag_169:\n    /* \"#utility.yul\":9327:9394   */\n  tag_170\n    /* \"#utility.yul\":9387:9393   */\n  dup6\n    /* \"#utility.yul\":9380:9385   */\n  dup3\n    /* \"#utility.yul\":9327:9394   */\n  tag_59\n  jump\t// in\ntag_170:\n    /* \"#utility.yul\":9321:9325   */\n  dup7\n    /* \"#utility.yul\":9314:9395   */\n  sstore\n    /* \"#utility.yul\":9183:9405   */\n  pop\n    /* \"#utility.yul\":8518:9405   */\n  jump(tag_167)\n    /* \"#utility.yul\":8548:9166   */\ntag_168:\n    /* \"#utility.yul\":8600:8604   */\n  0x1f\n    /* \"#utility.yul\":8596:8605   */\n  not\n    /* \"#utility.yul\":8588:8594   */\n  dup5\n    /* \"#utility.yul\":8584:8606   */\n  and\n    /* \"#utility.yul\":8634:8671   */\n  tag_171\n    /* \"#utility.yul\":8666:8670   */\n  dup7\n    /* \"#utility.yul\":8634:8671   */\n  tag_45\n  jump\t// in\ntag_171:\n    /* \"#utility.yul\":8693:8694   */\n  0x00\n    /* \"#utility.yul\":8707:8915   */\ntag_172:\n    /* \"#utility.yul\":8721:8728   */\n  dup3\n    /* \"#utility.yul\":8718:8719   */\n  dup2\n    /* \"#utility.yul\":8715:8729   */\n  lt\n    /* \"#utility.yul\":8707:8915   */\n  iszero\n  tag_174\n  jumpi\n    /* \"#utility.yul\":8800:8809   */\n  dup5\n    /* \"#utility.yul\":8795:8798   */\n  dup10\n    /* \"#utility.yul\":8791:8810   */\n  add\n    /* \"#utility.yul\":8785:8811   */\n  mload\n    /* \"#utility.yul\":8777:8783   */\n  dup3\n    /* \"#utility.yul\":8770:8812   */\n  sstore\n    /* \"#utility.yul\":8851:8852   */\n  0x01\n    /* \"#utility.yul\":8843:8849   */\n  dup3\n    /* \"#utility.yul\":8839:8853   */\n  add\n    /* \"#utility.yul\":8829:8853   */\n  swap2\n  pop\n    /* \"#utility.yul\":8898:8900   */\n  0x20\n    /* \"#utility.yul\":8887:8896   */\n  dup6\n    /* \"#utility.yul\":8883:8901   */\n  add\n    /* \"#utility.yul\":8870:8901   */\n  swap5\n  pop\n    /* \"#utility.yul\":8744:8748   */\n  0x20\n    /* \"#utility.yul\":8741:8742   */\n  dup2\n    /* \"#utility.yul\":8737:8749   */\n  add\n    /* \"#utility.yul\":8732:8749   */\n  swap1\n  pop\n    /* \"#utility.yul\":8707:8915   */\n  jump(tag_172)\ntag_174:\n    /* \"#utility.yul\":8943:8949   */\n  dup7\n    /* \"#utility.yul\":8934:8941   */\n  dup4\n    /* \"#utility.yul\":8931:8950   */\n  lt\n    /* \"#utility.yul\":8928:9107   */\n  iszero\n  tag_175\n  jumpi\n    /* \"#utility.yul\":9001:9010   */\n  dup5\n    /* \"#utility.yul\":8996:8999   */\n  dup10\n    /* \"#utility.yul\":8992:9011   */\n  add\n    /* \"#utility.yul\":8986:9012   */\n  mload\n    /* \"#utility.yul\":9044:9092   */\n  tag_176\n    /* \"#utility.yul\":9086:9090   */\n  0x1f\n    /* \"#utility.yul\":9078:9084   */\n  dup10\n    /* \"#utility.yul\":9074:9091   */\n  and\n    /* \"#utility.yul\":9063:9072   */\n  dup3\n    /* \"#utility.yul\":9044:9092   */\n  tag_58\n  jump\t// in\ntag_176:\n    /* \"#utility.yul\":9036:9042   */\n  dup4\n    /* \"#utility.yul\":9029:9093   */\n  sstore\n    /* \"#utility.yul\":8951:9107   */\n  pop\n    /* \"#utility.yul\":8928:9107   */\ntag_175:\n    /* \"#utility.yul\":9153:9154   */\n  0x01\n    /* \"#utility.yul\":9149:9150   */\n  0x02\n    /* \"#utility.yul\":9141:9147   */\n  dup9\n    /* \"#utility.yul\":9137:9151   */\n  mul\n    /* \"#utility.yul\":9133:9155   */\n  add\n    /* \"#utility.yul\":9127:9131   */\n  dup9\n    /* \"#utility.yul\":9120:9156   */\n  sstore\n    /* \"#utility.yul\":8555:9166   */\n  pop\n  pop\n  pop\n    /* \"#utility.yul\":8518:9405   */\ntag_167:\n  pop\n    /* \"#utility.yul\":8108:9411   */\n  pop\n  pop\n  pop\n    /* \"#utility.yul\":8016:9411   */\n  pop\n  pop\n  jump\t// out\n    /* \"#utility.yul\":9417:9586   */\ntag_60:\n    /* \"#utility.yul\":9501:9512   */\n  0x00\n    /* \"#utility.yul\":9535:9541   */\n  dup3\n    /* \"#utility.yul\":9530:9533   */\n  dup3\n    /* \"#utility.yul\":9523:9542   */\n  mstore\n    /* \"#utility.yul\":9575:9579   */\n  0x20\n    /* \"#utility.yul\":9570:9573   */\n  dup3\n    /* \"#utility.yul\":9566:9580   */\n  add\n    /* \"#utility.yul\":9551:9580   */\n  swap1\n  pop\n    /* \"#utility.yul\":9417:9586   */\n  swap3\n  swap2\n  pop\n  pop\n  jump\t// out\n    /* \"#utility.yul\":9592:9773   */\ntag_61:\n    /* \"#utility.yul\":9732:9765   */\n  0x45524332303a206d696e7420746f20746865207a65726f206164647265737300\n    /* \"#utility.yul\":9728:9729   */\n  0x00\n    /* \"#utility.yul\":9720:9726   */\n  dup3\n    /* \"#utility.yul\":9716:9730   */\n  add\n    /* \"#utility.yul\":9709:9766   */\n  mstore\n    /* \"#utility.yul\":9592:9773   */\n  pop\n  jump\t// out\n    /* \"#utility.yul\":9779:10145   */\ntag_62:\n    /* \"#utility.yul\":9921:9924   */\n  0x00\n    /* \"#utility.yul\":9942:10009   */\n  tag_180\n    /* \"#utility.yul\":10006:10008   */\n  0x1f\n    /* \"#utility.yul\":10001:10004   */\n  dup4\n    /* \"#utility.yul\":9942:10009   */\n  tag_60\n  jump\t// in\ntag_180:\n    /* \"#utility.yul\":9935:10009   */\n  swap2\n  pop\n    /* \"#utility.yul\":10018:10111   */\n  tag_181\n    /* \"#utility.yul\":10107:10110   */\n  dup3\n    /* \"#utility.yul\":10018:10111   */\n  tag_61\n  jump\t// in\ntag_181:\n    /* \"#utility.yul\":10136:10138   */\n  0x20\n    /* \"#utility.yul\":10131:10134   */\n  dup3\n    /* \"#utility.yul\":10127:10139   */\n  add\n    /* \"#utility.yul\":10120:10139   */\n  swap1\n  pop\n    /* \"#utility.yul\":9779:10145   */\n  swap2\n  swap1\n  pop\n  jump\t// out\n    /* \"#utility.yul\":10151:10570   */\ntag_17:\n    /* \"#utility.yul\":10317:10321   */\n  0x00\n    /* \"#utility.yul\":10355:10357   */\n  0x20\n    /* \"#utility.yul\":10344:10353   */\n  dup3\n    /* \"#utility.yul\":10340:10358   */\n  add\n    /* \"#utility.yul\":10332:10358   */\n  swap1\n  pop\n    /* \"#utility.yul\":10404:10413   */\n  dup2\n    /* \"#utility.yul\":10398:10402   */\n  dup2\n    /* \"#utility.yul\":10394:10414   */\n  sub\n    /* \"#utility.yul\":10390:10391   */\n  0x00\n    /* \"#utility.yul\":10379:10388   */\n  dup4\n    /* \"#utility.yul\":10375:10392   */\n  add\n    /* \"#utility.yul\":10368:10415   */\n  mstore\n    /* \"#utility.yul\":10432:10563   */\n  tag_183\n    /* \"#utility.yul\":10558:10562   */\n  dup2\n    /* \"#utility.yul\":10432:10563   */\n  tag_62\n  jump\t// in\ntag_183:\n    /* \"#utility.yul\":10424:10563   */\n  swap1\n  pop\n    /* \"#utility.yul\":10151:10570   */\n  swap2\n  swap1\n  pop\n  jump\t// out\n    /* \"#utility.yul\":10576:10756   */\ntag_63:\n    /* \"#utility.yul\":10624:10701   */\n  0x4e487b7100000000000000000000000000000000000000000000000000000000\n    /* \"#utility.yul\":10621:10622   */\n  0x00\n    /* \"#utility.yul\":10614:10702   */\n  mstore\n    /* \"#utility.yul\":10721:10725   */\n  0x11\n    /* \"#utility.yul\":10718:10719   */\n  0x04\n    /* \"#utility.yul\":10711:10726   */\n  mstore\n    /* \"#utility.yul\":10745:10749   */\n  0x24\n    /* \"#utility.yul\":10742:10743   */\n  0x00\n    /* \"#utility.yul\":10735:10750   */\n  revert\n    /* \"#utility.yul\":10762:10953   */\ntag_19:\n    /* \"#utility.yul\":10802:10805   */\n  0x00\n    /* \"#utility.yul\":10821:10841   */\n  tag_186\n    /* \"#utility.yul\":10839:10840   */\n  dup3\n    /* \"#utility.yul\":10821:10841   */\n  tag_39\n  jump\t// in\ntag_186:\n    /* \"#utility.yul\":10816:10841   */\n  swap2\n  pop\n    /* \"#utility.yul\":10855:10875   */\n  tag_187\n    /* \"#utility.yul\":10873:10874   */\n  dup4\n    /* \"#utility.yul\":10855:10875   */\n  tag_39\n  jump\t// in\ntag_187:\n    /* \"#utility.yul\":10850:10875   */\n  swap3\n  pop\n    /* \"#utility.yul\":10898:10899   */\n  dup3\n    /* \"#utility.yul\":10895:10896   */\n  dup3\n    /* \"#utility.yul\":10891:10900   */\n  add\n    /* \"#utility.yul\":10884:10900   */\n  swap1\n  pop\n    /* \"#utility.yul\":10919:10922   */\n  dup1\n    /* \"#utility.yul\":10916:10917   */\n  dup3\n    /* \"#utility.yul\":10913:10923   */\n  gt\n    /* \"#utility.yul\":10910:10946   */\n  iszero\n  tag_188\n  jumpi\n    /* \"#utility.yul\":10926:10944   */\n  tag_189\n  tag_63\n  jump\t// in\ntag_189:\n    /* \"#utility.yul\":10910:10946   */\ntag_188:\n    /* \"#utility.yul\":10762:10953   */\n  swap3\n  swap2\n  pop\n  pop\n  jump\t// out\n    /* \"#utility.yul\":10959:11077   */\ntag_64:\n    /* \"#utility.yul\":11046:11070   */\n  tag_191\n    /* \"#utility.yul\":11064:11069   */\n  dup2\n    /* \"#utility.yul\":11046:11070   */\n  tag_39\n  jump\t// in\ntag_191:\n    /* \"#utility.yul\":11041:11044   */\n  dup3\n    /* \"#utility.yul\":11034:11071   */\n  mstore\n    /* \"#utility.yul\":10959:11077   */\n  pop\n  pop\n  jump\t// out\n    /* \"#utility.yul\":11083:11305   */\ntag_22:\n    /* \"#utility.yul\":11176:11180   */\n  0x00\n    /* \"#utility.yul\":11214:11216   */\n  0x20\n    /* \"#utility.yul\":11203:11212   */\n  dup3\n    /* \"#utility.yul\":11199:11217   */\n  add\n    /* \"#utility.yul\":11191:11217   */\n  swap1\n  pop\n    /* \"#utility.yul\":11227:11298   */\n  tag_193\n    /* \"#utility.yul\":11295:11296   */\n  0x00\n    /* \"#utility.yul\":11284:11293   */\n  dup4\n    /* \"#utility.yul\":11280:11297   */\n  add\n    /* \"#utility.yul\":11271:11277   */\n  dup5\n    /* \"#utility.yul\":11227:11298   */\n  tag_64\n  jump\t// in\ntag_193:\n    /* \"#utility.yul\":11083:11305   */\n  swap3\n  swap2\n  pop\n  pop\n  jump\t// out\n    /* \"contract.sol\":86:1639  contract AirportContract is ERC20Simple {... */\ntag_13:\n  dataSize(sub_0)\n  dup1\n  dataOffset(sub_0)\n  0x00\n  codecopy\n  0x00\n  return\nstop\n\nsub_0: assembly {\n        /* \"contract.sol\":86:1639  contract AirportContract is ERC20Simple {... */\n      mstore(0x40, 0x80)\n      callvalue\n      dup1\n      iszero\n      tag_1\n      jumpi\n      revert(0x00, 0x00)\n    tag_1:\n      pop\n      jumpi(tag_2, lt(calldatasize, 0x04))\n      shr(0xe0, calldataload(0x00))\n      dup1\n      0x70a08231\n      gt\n      tag_19\n      jumpi\n      dup1\n      0xa401d24d\n      gt\n      tag_20\n      jumpi\n      dup1\n      0xa401d24d\n      eq\n      tag_15\n      jumpi\n      dup1\n      0xa9059cbb\n      eq\n      tag_16\n      jumpi\n      dup1\n      0xd1df306c\n      eq\n      tag_17\n      jumpi\n      dup1\n      0xdd62ed3e\n      eq\n      tag_18\n      jumpi\n      jump(tag_2)\n    tag_20:\n      dup1\n      0x70a08231\n      eq\n      tag_11\n      jumpi\n      dup1\n      0x8da5cb5b\n      eq\n      tag_12\n      jumpi\n      dup1\n      0x95d89b41\n      eq\n      tag_13\n      jumpi\n      dup1\n      0x9dc29fac\n      eq\n      tag_14\n      jumpi\n      jump(tag_2)\n    tag_19:\n      dup1\n      0x23b872dd\n      gt\n      tag_21\n      jumpi\n      dup1\n      0x23b872dd\n      eq\n      tag_7\n      jumpi\n      dup1\n      0x313ce567\n      eq\n      tag_8\n      jumpi\n      dup1\n      0x32434a2e\n      eq\n      tag_9\n      jumpi\n      dup1\n      0x40c10f19\n      eq\n      tag_10\n      jumpi\n      jump(tag_2)\n    tag_21:\n      dup1\n      0x06fdde03\n      eq\n      tag_3\n      jumpi\n      dup1\n      0x095ea7b3\n      eq\n      tag_4\n      jumpi\n      dup1\n      0x18160ddd\n      eq\n      tag_5\n      jumpi\n      dup1\n      0x21df0da7\n      eq\n      tag_6\n      jumpi\n    tag_2:\n      revert(0x00, 0x00)\n        /* \"erc20.sol\":1008:1093  function name() external view returns (string memory) {... */\n    tag_3:\n      tag_22\n      tag_23\n      jump\t// in\n    tag_22:\n      mload(0x40)\n      tag_24\n      swap2\n      swap1\n      tag_25\n      jump\t// in\n    tag_24:\n      mload(0x40)\n      dup1\n      swap2\n      sub\n      swap1\n      return\n        /* \"erc20.sol\":1845:2135  function approve(address spender, uint256 amount) external returns (bool) {... */\n    tag_4:\n      tag_26\n      0x04\n      dup1\n      calldatasize\n      sub\n      dup2\n      add\n      swap1\n      tag_27\n      swap2\n      swap1\n      tag_28\n      jump\t// in\n    tag_27:\n      tag_29\n      jump\t// in\n    tag_26:\n      mload(0x40)\n      tag_30\n      swap2\n      swap1\n      tag_31\n      jump\t// in\n    tag_30:\n      mload(0x40)\n      dup1\n      swap2\n      sub\n      swap1\n      return\n        /* \"erc20.sol\":1332:1425  function totalSupply() external view returns (uint256) {... */\n    tag_5:\n      tag_32\n      tag_33\n      jump\t// in\n    tag_32:\n      mload(0x40)\n      tag_34\n      swap2\n      swap1\n      tag_35\n      jump\t// in\n    tag_34:\n      mload(0x40)\n      dup1\n      swap2\n      sub\n      swap1\n      return\n        /* \"contract.sol\":678:766  function getToken() external view returns (ERC20Simple) {... */\n    tag_6:\n      tag_36\n      tag_37\n      jump\t// in\n    tag_36:\n      mload(0x40)\n      tag_38\n      swap2\n      swap1\n      tag_39\n      jump\t// in\n    tag_38:\n      mload(0x40)\n      dup1\n      swap2\n      sub\n      swap1\n      return\n        /* \"erc20.sol\":2143:2621  function transferFrom(address from, address to, uint256 amount) external returns (bool) {... */\n    tag_7:\n      tag_40\n      0x04\n      dup1\n      calldatasize\n      sub\n      dup2\n      add\n      swap1\n      tag_41\n      swap2\n      swap1\n      tag_42\n      jump\t// in\n    tag_41:\n      tag_43\n      jump\t// in\n    tag_40:\n      mload(0x40)\n      tag_44\n      swap2\n      swap1\n      tag_31\n      jump\t// in\n    tag_44:\n      mload(0x40)\n      dup1\n      swap2\n      sub\n      swap1\n      return\n        /* \"erc20.sol\":1198:1283  function decimals() external view returns (uint8) {... */\n    tag_8:\n      tag_45\n      tag_46\n      jump\t// in\n    tag_45:\n      mload(0x40)\n      tag_47\n      swap2\n      swap1\n      tag_48\n      jump\t// in\n    tag_47:\n      mload(0x40)\n      dup1\n      swap2\n      sub\n      swap1\n      return\n        /* \"contract.sol\":885:1237  function register(address id_, string memory name_) external onlyOwner  {... */\n    tag_9:\n      tag_49\n      0x04\n      dup1\n      calldatasize\n      sub\n      dup2\n      add\n      swap1\n      tag_50\n      swap2\n      swap1\n      tag_51\n      jump\t// in\n    tag_50:\n      tag_52\n      jump\t// in\n    tag_49:\n      stop\n        /* \"erc20.sol\":3845:3932  function mint(address to, uint256 amount) external {... */\n    tag_10:\n      tag_53\n      0x04\n      dup1\n      calldatasize\n      sub\n      dup2\n      add\n      swap1\n      tag_54\n      swap2\n      swap1\n      tag_28\n      jump\t// in\n    tag_54:\n      tag_55\n      jump\t// in\n    tag_53:\n      stop\n        /* \"erc20.sol\":1433:1541  function balanceOf(address owner) external view returns (uint256) {... */\n    tag_11:\n      tag_56\n      0x04\n      dup1\n      calldatasize\n      sub\n      dup2\n      add\n      swap1\n      tag_57\n      swap2\n      swap1\n      tag_58\n      jump\t// in\n    tag_57:\n      tag_59\n      jump\t// in\n    tag_56:\n      mload(0x40)\n      tag_60\n      swap2\n      swap1\n      tag_35\n      jump\t// in\n    tag_60:\n      mload(0x40)\n      dup1\n      swap2\n      sub\n      swap1\n      return\n        /* \"contract.sol\":228:256  address payable public owner */\n    tag_12:\n      tag_61\n      tag_62\n      jump\t// in\n    tag_61:\n      mload(0x40)\n      tag_63\n      swap2\n      swap1\n      tag_64\n      jump\t// in\n    tag_63:\n      mload(0x40)\n      dup1\n      swap2\n      sub\n      swap1\n      return\n        /* \"erc20.sol\":1101:1190  function symbol() external view returns (string memory) {... */\n    tag_13:\n      tag_65\n      tag_66\n      jump\t// in\n    tag_65:\n      mload(0x40)\n      tag_67\n      swap2\n      swap1\n      tag_25\n      jump\t// in\n    tag_67:\n      mload(0x40)\n      dup1\n      swap2\n      sub\n      swap1\n      return\n        /* \"erc20.sol\":3940:4031  function burn(address from, uint256 amount) external {... */\n    tag_14:\n      tag_68\n      0x04\n      dup1\n      calldatasize\n      sub\n      dup2\n      add\n      swap1\n      tag_69\n      swap2\n      swap1\n      tag_28\n      jump\t// in\n    tag_69:\n      tag_70\n      jump\t// in\n    tag_68:\n      stop\n        /* \"contract.sol\":1245:1399  function assignToken(address id, uint256 miles) external onlyOwner {... */\n    tag_15:\n      tag_71\n      0x04\n      dup1\n      calldatasize\n      sub\n      dup2\n      add\n      swap1\n      tag_72\n      swap2\n      swap1\n      tag_28\n      jump\t// in\n    tag_72:\n      tag_73\n      jump\t// in\n    tag_71:\n      stop\n        /* \"erc20.sol\":1693:1837  function transfer(address to, uint256 amount) external returns (bool) {... */\n    tag_16:\n      tag_74\n      0x04\n      dup1\n      calldatasize\n      sub\n      dup2\n      add\n      swap1\n      tag_75\n      swap2\n      swap1\n      tag_28\n      jump\t// in\n    tag_75:\n      tag_76\n      jump\t// in\n    tag_74:\n      mload(0x40)\n      tag_77\n      swap2\n      swap1\n      tag_31\n      jump\t// in\n    tag_77:\n      mload(0x40)\n      dup1\n      swap2\n      sub\n      swap1\n      return\n        /* \"contract.sol\":1408:1635  function burnToken(address id, uint256 miles) external onlyOwner {... */\n    tag_17:\n      tag_78\n      0x04\n      dup1\n      calldatasize\n      sub\n      dup2\n      add\n      swap1\n      tag_79\n      swap2\n      swap1\n      tag_28\n      jump\t// in\n    tag_79:\n      tag_80\n      jump\t// in\n    tag_78:\n      stop\n        /* \"erc20.sol\":1549:1685  function allowance(address owner, address spender) external view returns (uint256) {... */\n    tag_18:\n      tag_81\n      0x04\n      dup1\n      calldatasize\n      sub\n      dup2\n      add\n      swap1\n      tag_82\n      swap2\n      swap1\n      tag_83\n      jump\t// in\n    tag_82:\n      tag_84\n      jump\t// in\n    tag_81:\n      mload(0x40)\n      tag_85\n      swap2\n      swap1\n      tag_35\n      jump\t// in\n    tag_85:\n      mload(0x40)\n      dup1\n      swap2\n      sub\n      swap1\n      return\n        /* \"erc20.sol\":1008:1093  function name() external view returns (string memory) {... */\n    tag_23:\n        /* \"erc20.sol\":1047:1060  string memory */\n      0x60\n        /* \"erc20.sol\":1080:1085  _name */\n      0x00\n        /* \"erc20.sol\":1073:1085  return _name */\n      dup1\n      sload\n      tag_87\n      swap1\n      tag_88\n      jump\t// in\n    tag_87:\n      dup1\n      0x1f\n      add\n      0x20\n      dup1\n      swap2\n      div\n      mul\n      0x20\n      add\n      mload(0x40)\n      swap1\n      dup2\n      add\n      0x40\n      mstore\n      dup1\n      swap3\n      swap2\n      swap1\n      dup2\n      dup2\n      mstore\n      0x20\n      add\n      dup3\n      dup1\n      sload\n      tag_89\n      swap1\n      tag_88\n      jump\t// in\n    tag_89:\n      dup1\n      iszero\n      tag_90\n      jumpi\n      dup1\n      0x1f\n      lt\n      tag_91\n      jumpi\n      0x0100\n      dup1\n      dup4\n      sload\n      div\n      mul\n      dup4\n      mstore\n      swap2\n      0x20\n      add\n      swap2\n      jump(tag_90)\n    tag_91:\n      dup3\n      add\n      swap2\n      swap1\n      0x00\n      mstore\n      keccak256(0x00, 0x20)\n      swap1\n    tag_92:\n      dup2\n      sload\n      dup2\n      mstore\n      swap1\n      0x01\n      add\n      swap1\n      0x20\n      add\n      dup1\n      dup4\n      gt\n      tag_92\n      jumpi\n      dup3\n      swap1\n      sub\n      0x1f\n      and\n      dup3\n      add\n      swap2\n    tag_90:\n      pop\n      pop\n      pop\n      pop\n      pop\n      swap1\n      pop\n        /* \"erc20.sol\":1008:1093  function name() external view returns (string memory) {... */\n      swap1\n      jump\t// out\n        /* \"erc20.sol\":1845:2135  function approve(address spender, uint256 amount) external returns (bool) {... */\n    tag_29:\n        /* \"erc20.sol\":1913:1917  bool */\n      0x00\n        /* \"erc20.sol\":1957:1958  0 */\n      0x00\n        /* \"erc20.sol\":1938:1959  spender != address(0) */\n      0xffffffffffffffffffffffffffffffffffffffff\n      and\n        /* \"erc20.sol\":1938:1945  spender */\n      dup4\n        /* \"erc20.sol\":1938:1959  spender != address(0) */\n      0xffffffffffffffffffffffffffffffffffffffff\n      and\n      sub\n        /* \"erc20.sol\":1930:1998  require(spender != address(0), \"ERC20: approve to the zero address\") */\n      tag_94\n      jumpi\n      mload(0x40)\n      0x08c379a000000000000000000000000000000000000000000000000000000000\n      dup2\n      mstore\n      0x04\n      add\n      tag_95\n      swap1\n      tag_96\n      jump\t// in\n    tag_95:\n      mload(0x40)\n      dup1\n      swap2\n      sub\n      swap1\n      revert\n    tag_94:\n        /* \"erc20.sol\":2046:2052  amount */\n      dup2\n        /* \"erc20.sol\":2011:2022  _allowances */\n      0x05\n        /* \"erc20.sol\":2011:2034  _allowances[msg.sender] */\n      0x00\n        /* \"erc20.sol\":2023:2033  msg.sender */\n      caller\n        /* \"erc20.sol\":2011:2034  _allowances[msg.sender] */\n      0xffffffffffffffffffffffffffffffffffffffff\n      and\n      0xffffffffffffffffffffffffffffffffffffffff\n      and\n      dup2\n      mstore\n      0x20\n      add\n      swap1\n      dup2\n      mstore\n      0x20\n      add\n      0x00\n      keccak256\n        /* \"erc20.sol\":2011:2043  _allowances[msg.sender][spender] */\n      0x00\n        /* \"erc20.sol\":2035:2042  spender */\n      dup6\n        /* \"erc20.sol\":2011:2043  _allowances[msg.sender][spender] */\n      0xffffffffffffffffffffffffffffffffffffffff\n      and\n      0xffffffffffffffffffffffffffffffffffffffff\n      and\n      dup2\n      mstore\n      0x20\n      add\n      swap1\n      dup2\n      mstore\n      0x20\n      add\n      0x00\n      keccak256\n        /* \"erc20.sol\":2011:2052  _allowances[msg.sender][spender] = amount */\n      dup2\n      swap1\n      sstore\n      pop\n        /* \"erc20.sol\":2089:2096  spender */\n      dup3\n        /* \"erc20.sol\":2068:2105  Approval(msg.sender, spender, amount) */\n      0xffffffffffffffffffffffffffffffffffffffff\n      and\n        /* \"erc20.sol\":2077:2087  msg.sender */\n      caller\n        /* \"erc20.sol\":2068:2105  Approval(msg.sender, spender, amount) */\n      0xffffffffffffffffffffffffffffffffffffffff\n      and\n      0x8c5be1e5ebec7d5bd14f71427d1e84f3dd0314c0f7b2291e5b200ac8c7c3b925\n        /* \"erc20.sol\":2098:2104  amount */\n      dup5\n        /* \"erc20.sol\":2068:2105  Approval(msg.sender, spender, amount) */\n      mload(0x40)\n      tag_97\n      swap2\n      swap1\n      tag_35\n      jump\t// in\n    tag_97:\n      mload(0x40)\n      dup1\n      swap2\n      sub\n      swap1\n      log3\n        /* \"erc20.sol\":2123:2127  true */\n      0x01\n        /* \"erc20.sol\":2116:2127  return true */\n      swap1\n      pop\n        /* \"erc20.sol\":1845:2135  function approve(address spender, uint256 amount) external returns (bool) {... */\n      swap3\n      swap2\n      pop\n      pop\n      jump\t// out\n        /* \"erc20.sol\":1332:1425  function totalSupply() external view returns (uint256) {... */\n    tag_33:\n        /* \"erc20.sol\":1378:1385  uint256 */\n      0x00\n        /* \"erc20.sol\":1405:1417  _totalSupply */\n      sload(0x03)\n        /* \"erc20.sol\":1398:1417  return _totalSupply */\n      swap1\n      pop\n        /* \"erc20.sol\":1332:1425  function totalSupply() external view returns (uint256) {... */\n      swap1\n      jump\t// out\n        /* \"contract.sol\":678:766  function getToken() external view returns (ERC20Simple) {... */\n    tag_37:\n        /* \"contract.sol\":721:732  ERC20Simple */\n      0x00\n        /* \"contract.sol\":752:758  _token */\n      0x07\n      0x00\n      swap1\n      sload\n      swap1\n      0x0100\n      exp\n      swap1\n      div\n      0xffffffffffffffffffffffffffffffffffffffff\n      and\n        /* \"contract.sol\":745:758  return _token */\n      swap1\n      pop\n        /* \"contract.sol\":678:766  function getToken() external view returns (ERC20Simple) {... */\n      swap1\n      jump\t// out\n        /* \"erc20.sol\":2143:2621  function transferFrom(address from, address to, uint256 amount) external returns (bool) {... */\n    tag_43:\n        /* \"erc20.sol\":2225:2229  bool */\n      0x00\n        /* \"erc20.sol\":2242:2266  uint256 currentAllowance */\n      0x00\n        /* \"erc20.sol\":2269:2280  _allowances */\n      0x05\n        /* \"erc20.sol\":2269:2286  _allowances[from] */\n      0x00\n        /* \"erc20.sol\":2281:2285  from */\n      dup7\n        /* \"erc20.sol\":2269:2286  _allowances[from] */\n      0xffffffffffffffffffffffffffffffffffffffff\n      and\n      0xffffffffffffffffffffffffffffffffffffffff\n      and\n      dup2\n      mstore\n      0x20\n      add\n      swap1\n      dup2\n      mstore\n      0x20\n      add\n      0x00\n      keccak256\n        /* \"erc20.sol\":2269:2298  _allowances[from][msg.sender] */\n      0x00\n        /* \"erc20.sol\":2287:2297  msg.sender */\n      caller\n        /* \"erc20.sol\":2269:2298  _allowances[from][msg.sender] */\n      0xffffffffffffffffffffffffffffffffffffffff\n      and\n      0xffffffffffffffffffffffffffffffffffffffff\n      and\n      dup2\n      mstore\n      0x20\n      add\n      swap1\n      dup2\n      mstore\n      0x20\n      add\n      0x00\n      keccak256\n      sload\n        /* \"erc20.sol\":2242:2298  uint256 currentAllowance = _allowances[from][msg.sender] */\n      swap1\n      pop\n        /* \"erc20.sol\":2337:2343  amount */\n      dup3\n        /* \"erc20.sol\":2317:2333  currentAllowance */\n      dup2\n        /* \"erc20.sol\":2317:2343  currentAllowance >= amount */\n      lt\n      iszero\n        /* \"erc20.sol\":2309:2377  require(currentAllowance >= amount, \"ERC20: insufficient allowance\") */\n      tag_101\n      jumpi\n      mload(0x40)\n      0x08c379a000000000000000000000000000000000000000000000000000000000\n      dup2\n      mstore\n      0x04\n      add\n      tag_102\n      swap1\n      tag_103\n      jump\t// in\n    tag_102:\n      mload(0x40)\n      dup1\n      swap2\n      sub\n      swap1\n      revert\n    tag_101:\n        /* \"erc20.sol\":2472:2478  amount */\n      dup3\n        /* \"erc20.sol\":2453:2469  currentAllowance */\n      dup2\n        /* \"erc20.sol\":2453:2478  currentAllowance - amount */\n      tag_104\n      swap2\n      swap1\n      tag_105\n      jump\t// in\n    tag_104:\n        /* \"erc20.sol\":2421:2432  _allowances */\n      0x05\n        /* \"erc20.sol\":2421:2438  _allowances[from] */\n      0x00\n        /* \"erc20.sol\":2433:2437  from */\n      dup8\n        /* \"erc20.sol\":2421:2438  _allowances[from] */\n      0xffffffffffffffffffffffffffffffffffffffff\n      and\n      0xffffffffffffffffffffffffffffffffffffffff\n      and\n      dup2\n      mstore\n      0x20\n      add\n      swap1\n      dup2\n      mstore\n      0x20\n      add\n      0x00\n      keccak256\n        /* \"erc20.sol\":2421:2450  _allowances[from][msg.sender] */\n      0x00\n        /* \"erc20.sol\":2439:2449  msg.sender */\n      caller\n        /* \"erc20.sol\":2421:2450  _allowances[from][msg.sender] */\n      0xffffffffffffffffffffffffffffffffffffffff\n      and\n      0xffffffffffffffffffffffffffffffffffffffff\n      and\n      dup2\n      mstore\n      0x20\n      add\n      swap1\n      dup2\n      mstore\n      0x20\n      add\n      0x00\n      keccak256\n        /* \"erc20.sol\":2421:2478  _allowances[from][msg.sender] = currentAllowance - amount */\n      dup2\n      swap1\n      sstore\n      pop\n        /* \"erc20.sol\":2509:2519  msg.sender */\n      caller\n        /* \"erc20.sol\":2494:2551  Approval(from, msg.sender, _allowances[from][msg.sender]) */\n      0xffffffffffffffffffffffffffffffffffffffff\n      and\n        /* \"erc20.sol\":2503:2507  from */\n      dup6\n        /* \"erc20.sol\":2494:2551  Approval(from, msg.sender, _allowances[from][msg.sender]) */\n      0xffffffffffffffffffffffffffffffffffffffff\n      and\n      0x8c5be1e5ebec7d5bd14f71427d1e84f3dd0314c0f7b2291e5b200ac8c7c3b925\n        /* \"erc20.sol\":2521:2532  _allowances */\n      0x05\n        /* \"erc20.sol\":2521:2538  _allowances[from] */\n      0x00\n        /* \"erc20.sol\":2533:2537  from */\n      dup10\n        /* \"erc20.sol\":2521:2538  _allowances[from] */\n      0xffffffffffffffffffffffffffffffffffffffff\n      and\n      0xffffffffffffffffffffffffffffffffffffffff\n      and\n      dup2\n      mstore\n      0x20\n      add\n      swap1\n      dup2\n      mstore\n      0x20\n      add\n      0x00\n      keccak256\n        /* \"erc20.sol\":2521:2550  _allowances[from][msg.sender] */\n      0x00\n        /* \"erc20.sol\":2539:2549  msg.sender */\n      caller\n        /* \"erc20.sol\":2521:2550  _allowances[from][msg.sender] */\n      0xffffffffffffffffffffffffffffffffffffffff\n      and\n      0xffffffffffffffffffffffffffffffffffffffff\n      and\n      dup2\n      mstore\n      0x20\n      add\n      swap1\n      dup2\n      mstore\n      0x20\n      add\n      0x00\n      keccak256\n      sload\n        /* \"erc20.sol\":2494:2551  Approval(from, msg.sender, _allowances[from][msg.sender]) */\n      mload(0x40)\n      tag_106\n      swap2\n      swap1\n      tag_35\n      jump\t// in\n    tag_106:\n      mload(0x40)\n      dup1\n      swap2\n      sub\n      swap1\n      log3\n        /* \"erc20.sol\":2564:2591  _transfer(from, to, amount) */\n      tag_107\n        /* \"erc20.sol\":2574:2578  from */\n      dup6\n        /* \"erc20.sol\":2580:2582  to */\n      dup6\n        /* \"erc20.sol\":2584:2590  amount */\n      dup6\n        /* \"erc20.sol\":2564:2573  _transfer */\n      tag_108\n        /* \"erc20.sol\":2564:2591  _transfer(from, to, amount) */\n      jump\t// in\n    tag_107:\n        /* \"erc20.sol\":2609:2613  true */\n      0x01\n        /* \"erc20.sol\":2602:2613  return true */\n      swap2\n      pop\n      pop\n        /* \"erc20.sol\":2143:2621  function transferFrom(address from, address to, uint256 amount) external returns (bool) {... */\n      swap4\n      swap3\n      pop\n      pop\n      pop\n      jump\t// out\n        /* \"erc20.sol\":1198:1283  function decimals() external view returns (uint8) {... */\n    tag_46:\n        /* \"erc20.sol\":1241:1246  uint8 */\n      0x00\n        /* \"erc20.sol\":1266:1275  _decimals */\n      0x02\n      0x00\n      swap1\n      sload\n      swap1\n      0x0100\n      exp\n      swap1\n      div\n      0xff\n      and\n        /* \"erc20.sol\":1259:1275  return _decimals */\n      swap1\n      pop\n        /* \"erc20.sol\":1198:1283  function decimals() external view returns (uint8) {... */\n      swap1\n      jump\t// out\n        /* \"contract.sol\":885:1237  function register(address id_, string memory name_) external onlyOwner  {... */\n    tag_52:\n        /* \"contract.sol\":826:831  owner */\n      0x09\n      0x00\n      swap1\n      sload\n      swap1\n      0x0100\n      exp\n      swap1\n      div\n      0xffffffffffffffffffffffffffffffffffffffff\n      and\n        /* \"contract.sol\":812:831  msg.sender == owner */\n      0xffffffffffffffffffffffffffffffffffffffff\n      and\n        /* \"contract.sol\":812:822  msg.sender */\n      caller\n        /* \"contract.sol\":812:831  msg.sender == owner */\n      0xffffffffffffffffffffffffffffffffffffffff\n      and\n      eq\n        /* \"contract.sol\":804:857  require(msg.sender == owner, \"You are not the owner\") */\n      tag_111\n      jumpi\n      mload(0x40)\n      0x08c379a000000000000000000000000000000000000000000000000000000000\n      dup2\n      mstore\n      0x04\n      add\n      tag_112\n      swap1\n      tag_113\n      jump\t// in\n    tag_112:\n      mload(0x40)\n      dup1\n      swap2\n      sub\n      swap1\n      revert\n    tag_111:\n        /* \"contract.sol\":1010:1011  0 */\n      0x00\n        /* \"contract.sol\":976:1012  listPassengers[id_].id == address(0) */\n      0xffffffffffffffffffffffffffffffffffffffff\n      and\n        /* \"contract.sol\":976:990  listPassengers */\n      0x0a\n        /* \"contract.sol\":976:995  listPassengers[id_] */\n      0x00\n        /* \"contract.sol\":991:994  id_ */\n      dup5\n        /* \"contract.sol\":976:995  listPassengers[id_] */\n      0xffffffffffffffffffffffffffffffffffffffff\n      and\n      0xffffffffffffffffffffffffffffffffffffffff\n      and\n      dup2\n      mstore\n      0x20\n      add\n      swap1\n      dup2\n      mstore\n      0x20\n      add\n      0x00\n      keccak256\n        /* \"contract.sol\":976:998  listPassengers[id_].id */\n      0x00\n      add\n      0x00\n      swap1\n      sload\n      swap1\n      0x0100\n      exp\n      swap1\n      div\n      0xffffffffffffffffffffffffffffffffffffffff\n      and\n        /* \"contract.sol\":976:1012  listPassengers[id_].id == address(0) */\n      0xffffffffffffffffffffffffffffffffffffffff\n      and\n      eq\n        /* \"contract.sol\":968:1048  require(listPassengers[id_].id == address(0), \"Passenger is already registered\") */\n      tag_115\n      jumpi\n      mload(0x40)\n      0x08c379a000000000000000000000000000000000000000000000000000000000\n      dup2\n      mstore\n      0x04\n      add\n      tag_116\n      swap1\n      tag_117\n      jump\t// in\n    tag_116:\n      mload(0x40)\n      dup1\n      swap2\n      sub\n      swap1\n      revert\n    tag_115:\n        /* \"contract.sol\":1061:1087  Passenger memory passenger */\n      0x00\n        /* \"contract.sol\":1090:1185  Passenger({... */\n      mload(0x40)\n      dup1\n      0x60\n      add\n      0x40\n      mstore\n      dup1\n        /* \"contract.sol\":1119:1122  id_ */\n      dup5\n        /* \"contract.sol\":1090:1185  Passenger({... */\n      0xffffffffffffffffffffffffffffffffffffffff\n      and\n      dup2\n      mstore\n      0x20\n      add\n        /* \"contract.sol\":1146:1147  0 */\n      0x00\n        /* \"contract.sol\":1090:1185  Passenger({... */\n      dup2\n      mstore\n      0x20\n      add\n        /* \"contract.sol\":1168:1173  name_ */\n      dup4\n        /* \"contract.sol\":1090:1185  Passenger({... */\n      dup2\n      mstore\n      pop\n        /* \"contract.sol\":1061:1185  Passenger memory passenger = Passenger({... */\n      swap1\n      pop\n        /* \"contract.sol\":1220:1229  passenger */\n      dup1\n        /* \"contract.sol\":1198:1212  listPassengers */\n      0x0a\n        /* \"contract.sol\":1198:1217  listPassengers[id_] */\n      0x00\n        /* \"contract.sol\":1213:1216  id_ */\n      dup6\n        /* \"contract.sol\":1198:1217  listPassengers[id_] */\n      0xffffffffffffffffffffffffffffffffffffffff\n      and\n      0xffffffffffffffffffffffffffffffffffffffff\n      and\n      dup2\n      mstore\n      0x20\n      add\n      swap1\n      dup2\n      mstore\n      0x20\n      add\n      0x00\n      keccak256\n        /* \"contract.sol\":1198:1229  listPassengers[id_] = passenger */\n      0x00\n      dup3\n      add\n      mload\n      dup2\n      0x00\n      add\n      exp(0x0100, 0x00)\n      dup2\n      sload\n      dup2\n      0xffffffffffffffffffffffffffffffffffffffff\n      mul\n      not\n      and\n      swap1\n      dup4\n      0xffffffffffffffffffffffffffffffffffffffff\n      and\n      mul\n      or\n      swap1\n      sstore\n      pop\n      0x20\n      dup3\n      add\n      mload\n      dup2\n      0x01\n      add\n      sstore\n      0x40\n      dup3\n      add\n      mload\n      dup2\n      0x02\n      add\n      swap1\n      dup2\n      tag_118\n      swap2\n      swap1\n      tag_119\n      jump\t// in\n    tag_118:\n      pop\n      swap1\n      pop\n      pop\n        /* \"contract.sol\":957:1237  {... */\n      pop\n        /* \"contract.sol\":885:1237  function register(address id_, string memory name_) external onlyOwner  {... */\n      pop\n      pop\n      jump\t// out\n        /* \"erc20.sol\":3845:3932  function mint(address to, uint256 amount) external {... */\n    tag_55:\n        /* \"erc20.sol\":3907:3924  _mint(to, amount) */\n      tag_121\n        /* \"erc20.sol\":3913:3915  to */\n      dup3\n        /* \"erc20.sol\":3917:3923  amount */\n      dup3\n        /* \"erc20.sol\":3907:3912  _mint */\n      tag_122\n        /* \"erc20.sol\":3907:3924  _mint(to, amount) */\n      jump\t// in\n    tag_121:\n        /* \"erc20.sol\":3845:3932  function mint(address to, uint256 amount) external {... */\n      pop\n      pop\n      jump\t// out\n        /* \"erc20.sol\":1433:1541  function balanceOf(address owner) external view returns (uint256) {... */\n    tag_59:\n        /* \"erc20.sol\":1490:1497  uint256 */\n      0x00\n        /* \"erc20.sol\":1517:1526  _balances */\n      0x04\n        /* \"erc20.sol\":1517:1533  _balances[owner] */\n      0x00\n        /* \"erc20.sol\":1527:1532  owner */\n      dup4\n        /* \"erc20.sol\":1517:1533  _balances[owner] */\n      0xffffffffffffffffffffffffffffffffffffffff\n      and\n      0xffffffffffffffffffffffffffffffffffffffff\n      and\n      dup2\n      mstore\n      0x20\n      add\n      swap1\n      dup2\n      mstore\n      0x20\n      add\n      0x00\n      keccak256\n      sload\n        /* \"erc20.sol\":1510:1533  return _balances[owner] */\n      swap1\n      pop\n        /* \"erc20.sol\":1433:1541  function balanceOf(address owner) external view returns (uint256) {... */\n      swap2\n      swap1\n      pop\n      jump\t// out\n        /* \"contract.sol\":228:256  address payable public owner */\n    tag_62:\n      0x09\n      0x00\n      swap1\n      sload\n      swap1\n      0x0100\n      exp\n      swap1\n      div\n      0xffffffffffffffffffffffffffffffffffffffff\n      and\n      dup2\n      jump\t// out\n        /* \"erc20.sol\":1101:1190  function symbol() external view returns (string memory) {... */\n    tag_66:\n        /* \"erc20.sol\":1142:1155  string memory */\n      0x60\n        /* \"erc20.sol\":1175:1182  _symbol */\n      0x01\n        /* \"erc20.sol\":1168:1182  return _symbol */\n      dup1\n      sload\n      tag_125\n      swap1\n      tag_88\n      jump\t// in\n    tag_125:\n      dup1\n      0x1f\n      add\n      0x20\n      dup1\n      swap2\n      div\n      mul\n      0x20\n      add\n      mload(0x40)\n      swap1\n      dup2\n      add\n      0x40\n      mstore\n      dup1\n      swap3\n      swap2\n      swap1\n      dup2\n      dup2\n      mstore\n      0x20\n      add\n      dup3\n      dup1\n      sload\n      tag_126\n      swap1\n      tag_88\n      jump\t// in\n    tag_126:\n      dup1\n      iszero\n      tag_127\n      jumpi\n      dup1\n      0x1f\n      lt\n      tag_128\n      jumpi\n      0x0100\n      dup1\n      dup4\n      sload\n      div\n      mul\n      dup4\n      mstore\n      swap2\n      0x20\n      add\n      swap2\n      jump(tag_127)\n    tag_128:\n      dup3\n      add\n      swap2\n      swap1\n      0x00\n      mstore\n      keccak256(0x00, 0x20)\n      swap1\n    tag_129:\n      dup2\n      sload\n      dup2\n      mstore\n      swap1\n      0x01\n      add\n      swap1\n      0x20\n      add\n      dup1\n      dup4\n      gt\n      tag_129\n      jumpi\n      dup3\n      swap1\n      sub\n      0x1f\n      and\n      dup3\n      add\n      swap2\n    tag_127:\n      pop\n      pop\n      pop\n      pop\n      pop\n      swap1\n      pop\n        /* \"erc20.sol\":1101:1190  function symbol() external view returns (string memory) {... */\n      swap1\n      jump\t// out\n        /* \"erc20.sol\":3940:4031  function burn(address from, uint256 amount) external {... */\n    tag_70:\n        /* \"erc20.sol\":4004:4023  _burn(from, amount) */\n      tag_131\n        /* \"erc20.sol\":4010:4014  from */\n      dup3\n        /* \"erc20.sol\":4016:4022  amount */\n      dup3\n        /* \"erc20.sol\":4004:4009  _burn */\n      tag_132\n        /* \"erc20.sol\":4004:4023  _burn(from, amount) */\n      jump\t// in\n    tag_131:\n        /* \"erc20.sol\":3940:4031  function burn(address from, uint256 amount) external {... */\n      pop\n      pop\n      jump\t// out\n        /* \"contract.sol\":1245:1399  function assignToken(address id, uint256 miles) external onlyOwner {... */\n    tag_73:\n        /* \"contract.sol\":826:831  owner */\n      0x09\n      0x00\n      swap1\n      sload\n      swap1\n      0x0100\n      exp\n      swap1\n      div\n      0xffffffffffffffffffffffffffffffffffffffff\n      and\n        /* \"contract.sol\":812:831  msg.sender == owner */\n      0xffffffffffffffffffffffffffffffffffffffff\n      and\n        /* \"contract.sol\":812:822  msg.sender */\n      caller\n        /* \"contract.sol\":812:831  msg.sender == owner */\n      0xffffffffffffffffffffffffffffffffffffffff\n      and\n      eq\n        /* \"contract.sol\":804:857  require(msg.sender == owner, \"You are not the owner\") */\n      tag_134\n      jumpi\n      mload(0x40)\n      0x08c379a000000000000000000000000000000000000000000000000000000000\n      dup2\n      mstore\n      0x04\n      add\n      tag_135\n      swap1\n      tag_113\n      jump\t// in\n    tag_135:\n      mload(0x40)\n      dup1\n      swap2\n      sub\n      swap1\n      revert\n    tag_134:\n        /* \"contract.sol\":1323:1329  _token */\n      0x07\n      0x00\n      swap1\n      sload\n      swap1\n      0x0100\n      exp\n      swap1\n      div\n      0xffffffffffffffffffffffffffffffffffffffff\n      and\n        /* \"contract.sol\":1323:1334  _token.mint */\n      0xffffffffffffffffffffffffffffffffffffffff\n      and\n      0x40c10f19\n        /* \"contract.sol\":1335:1337  id */\n      dup4\n        /* \"contract.sol\":1339:1344  miles */\n      dup4\n        /* \"contract.sol\":1323:1345  _token.mint(id, miles) */\n      mload(0x40)\n      dup4\n      0xffffffff\n      and\n      0xe0\n      shl\n      dup2\n      mstore\n      0x04\n      add\n      tag_137\n      swap3\n      swap2\n      swap1\n      tag_138\n      jump\t// in\n    tag_137:\n      0x00\n      mload(0x40)\n      dup1\n      dup4\n      sub\n      dup2\n      0x00\n      dup8\n      dup1\n      extcodesize\n      iszero\n      dup1\n      iszero\n      tag_139\n      jumpi\n      revert(0x00, 0x00)\n    tag_139:\n      pop\n      gas\n      call\n      iszero\n      dup1\n      iszero\n      tag_141\n      jumpi\n      returndatacopy(0x00, 0x00, returndatasize)\n      revert(0x00, returndatasize)\n    tag_141:\n      pop\n      pop\n      pop\n      pop\n        /* \"contract.sol\":1386:1391  miles */\n      dup1\n        /* \"contract.sol\":1356:1370  listPassengers */\n      0x0a\n        /* \"contract.sol\":1356:1374  listPassengers[id] */\n      0x00\n        /* \"contract.sol\":1371:1373  id */\n      dup5\n        /* \"contract.sol\":1356:1374  listPassengers[id] */\n      0xffffffffffffffffffffffffffffffffffffffff\n      and\n      0xffffffffffffffffffffffffffffffffffffffff\n      and\n      dup2\n      mstore\n      0x20\n      add\n      swap1\n      dup2\n      mstore\n      0x20\n      add\n      0x00\n      keccak256\n        /* \"contract.sol\":1356:1382  listPassengers[id].balance */\n      0x01\n      add\n      0x00\n        /* \"contract.sol\":1356:1391  listPassengers[id].balance += miles */\n      dup3\n      dup3\n      sload\n      tag_142\n      swap2\n      swap1\n      tag_143\n      jump\t// in\n    tag_142:\n      swap3\n      pop\n      pop\n      dup2\n      swap1\n      sstore\n      pop\n        /* \"contract.sol\":1245:1399  function assignToken(address id, uint256 miles) external onlyOwner {... */\n      pop\n      pop\n      jump\t// out\n        /* \"erc20.sol\":1693:1837  function transfer(address to, uint256 amount) external returns (bool) {... */\n    tag_76:\n        /* \"erc20.sol\":1757:1761  bool */\n      0x00\n        /* \"erc20.sol\":1774:1807  _transfer(msg.sender, to, amount) */\n      tag_145\n        /* \"erc20.sol\":1784:1794  msg.sender */\n      caller\n        /* \"erc20.sol\":1796:1798  to */\n      dup5\n        /* \"erc20.sol\":1800:1806  amount */\n      dup5\n        /* \"erc20.sol\":1774:1783  _transfer */\n      tag_108\n        /* \"erc20.sol\":1774:1807  _transfer(msg.sender, to, amount) */\n      jump\t// in\n    tag_145:\n        /* \"erc20.sol\":1825:1829  true */\n      0x01\n        /* \"erc20.sol\":1818:1829  return true */\n      swap1\n      pop\n        /* \"erc20.sol\":1693:1837  function transfer(address to, uint256 amount) external returns (bool) {... */\n      swap3\n      swap2\n      pop\n      pop\n      jump\t// out\n        /* \"contract.sol\":1408:1635  function burnToken(address id, uint256 miles) external onlyOwner {... */\n    tag_80:\n        /* \"contract.sol\":826:831  owner */\n      0x09\n      0x00\n      swap1\n      sload\n      swap1\n      0x0100\n      exp\n      swap1\n      div\n      0xffffffffffffffffffffffffffffffffffffffff\n      and\n        /* \"contract.sol\":812:831  msg.sender == owner */\n      0xffffffffffffffffffffffffffffffffffffffff\n      and\n        /* \"contract.sol\":812:822  msg.sender */\n      caller\n        /* \"contract.sol\":812:831  msg.sender == owner */\n      0xffffffffffffffffffffffffffffffffffffffff\n      and\n      eq\n        /* \"contract.sol\":804:857  require(msg.sender == owner, \"You are not the owner\") */\n      tag_147\n      jumpi\n      mload(0x40)\n      0x08c379a000000000000000000000000000000000000000000000000000000000\n      dup2\n      mstore\n      0x04\n      add\n      tag_148\n      swap1\n      tag_113\n      jump\t// in\n    tag_148:\n      mload(0x40)\n      dup1\n      swap2\n      sub\n      swap1\n      revert\n    tag_147:\n        /* \"contract.sol\":1522:1527  miles */\n      dup1\n        /* \"contract.sol\":1492:1506  listPassengers */\n      0x0a\n        /* \"contract.sol\":1492:1510  listPassengers[id] */\n      0x00\n        /* \"contract.sol\":1507:1509  id */\n      dup5\n        /* \"contract.sol\":1492:1510  listPassengers[id] */\n      0xffffffffffffffffffffffffffffffffffffffff\n      and\n      0xffffffffffffffffffffffffffffffffffffffff\n      and\n      dup2\n      mstore\n      0x20\n      add\n      swap1\n      dup2\n      mstore\n      0x20\n      add\n      0x00\n      keccak256\n        /* \"contract.sol\":1492:1518  listPassengers[id].balance */\n      0x01\n      add\n      sload\n        /* \"contract.sol\":1492:1527  listPassengers[id].balance >= miles */\n      lt\n      iszero\n        /* \"contract.sol\":1484:1548  require(listPassengers[id].balance >= miles, \"Not enough miles\") */\n      tag_150\n      jumpi\n      mload(0x40)\n      0x08c379a000000000000000000000000000000000000000000000000000000000\n      dup2\n      mstore\n      0x04\n      add\n      tag_151\n      swap1\n      tag_152\n      jump\t// in\n    tag_151:\n      mload(0x40)\n      dup1\n      swap2\n      sub\n      swap1\n      revert\n    tag_150:\n        /* \"contract.sol\":1559:1565  _token */\n      0x07\n      0x00\n      swap1\n      sload\n      swap1\n      0x0100\n      exp\n      swap1\n      div\n      0xffffffffffffffffffffffffffffffffffffffff\n      and\n        /* \"contract.sol\":1559:1570  _token.burn */\n      0xffffffffffffffffffffffffffffffffffffffff\n      and\n      0x9dc29fac\n        /* \"contract.sol\":1571:1573  id */\n      dup4\n        /* \"contract.sol\":1575:1580  miles */\n      dup4\n        /* \"contract.sol\":1559:1581  _token.burn(id, miles) */\n      mload(0x40)\n      dup4\n      0xffffffff\n      and\n      0xe0\n      shl\n      dup2\n      mstore\n      0x04\n      add\n      tag_153\n      swap3\n      swap2\n      swap1\n      tag_138\n      jump\t// in\n    tag_153:\n      0x00\n      mload(0x40)\n      dup1\n      dup4\n      sub\n      dup2\n      0x00\n      dup8\n      dup1\n      extcodesize\n      iszero\n      dup1\n      iszero\n      tag_154\n      jumpi\n      revert(0x00, 0x00)\n    tag_154:\n      pop\n      gas\n      call\n      iszero\n      dup1\n      iszero\n      tag_156\n      jumpi\n      returndatacopy(0x00, 0x00, returndatasize)\n      revert(0x00, returndatasize)\n    tag_156:\n      pop\n      pop\n      pop\n      pop\n        /* \"contract.sol\":1622:1627  miles */\n      dup1\n        /* \"contract.sol\":1592:1606  listPassengers */\n      0x0a\n        /* \"contract.sol\":1592:1610  listPassengers[id] */\n      0x00\n        /* \"contract.sol\":1607:1609  id */\n      dup5\n        /* \"contract.sol\":1592:1610  listPassengers[id] */\n      0xffffffffffffffffffffffffffffffffffffffff\n      and\n      0xffffffffffffffffffffffffffffffffffffffff\n      and\n      dup2\n      mstore\n      0x20\n      add\n      swap1\n      dup2\n      mstore\n      0x20\n      add\n      0x00\n      keccak256\n        /* \"contract.sol\":1592:1618  listPassengers[id].balance */\n      0x01\n      add\n      0x00\n        /* \"contract.sol\":1592:1627  listPassengers[id].balance -= miles */\n      dup3\n      dup3\n      sload\n      tag_157\n      swap2\n      swap1\n      tag_105\n      jump\t// in\n    tag_157:\n      swap3\n      pop\n      pop\n      dup2\n      swap1\n      sstore\n      pop\n        /* \"contract.sol\":1408:1635  function burnToken(address id, uint256 miles) external onlyOwner {... */\n      pop\n      pop\n      jump\t// out\n        /* \"erc20.sol\":1549:1685  function allowance(address owner, address spender) external view returns (uint256) {... */\n    tag_84:\n        /* \"erc20.sol\":1623:1630  uint256 */\n      0x00\n        /* \"erc20.sol\":1650:1661  _allowances */\n      0x05\n        /* \"erc20.sol\":1650:1668  _allowances[owner] */\n      0x00\n        /* \"erc20.sol\":1662:1667  owner */\n      dup5\n        /* \"erc20.sol\":1650:1668  _allowances[owner] */\n      0xffffffffffffffffffffffffffffffffffffffff\n      and\n      0xffffffffffffffffffffffffffffffffffffffff\n      and\n      dup2\n      mstore\n      0x20\n      add\n      swap1\n      dup2\n      mstore\n      0x20\n      add\n      0x00\n      keccak256\n        /* \"erc20.sol\":1650:1677  _allowances[owner][spender] */\n      0x00\n        /* \"erc20.sol\":1669:1676  spender */\n      dup4\n        /* \"erc20.sol\":1650:1677  _allowances[owner][spender] */\n      0xffffffffffffffffffffffffffffffffffffffff\n      and\n      0xffffffffffffffffffffffffffffffffffffffff\n      and\n      dup2\n      mstore\n      0x20\n      add\n      swap1\n      dup2\n      mstore\n      0x20\n      add\n      0x00\n      keccak256\n      sload\n        /* \"erc20.sol\":1643:1677  return _allowances[owner][spender] */\n      swap1\n      pop\n        /* \"erc20.sol\":1549:1685  function allowance(address owner, address spender) external view returns (uint256) {... */\n      swap3\n      swap2\n      pop\n      pop\n      jump\t// out\n        /* \"erc20.sol\":2670:3164  function _transfer(address from, address to, uint256 amount) internal {... */\n    tag_108:\n        /* \"erc20.sol\":2775:2776  0 */\n      0x00\n        /* \"erc20.sol\":2759:2777  from != address(0) */\n      0xffffffffffffffffffffffffffffffffffffffff\n      and\n        /* \"erc20.sol\":2759:2763  from */\n      dup4\n        /* \"erc20.sol\":2759:2777  from != address(0) */\n      0xffffffffffffffffffffffffffffffffffffffff\n      and\n      sub\n        /* \"erc20.sol\":2751:2819  require(from != address(0), \"ERC20: transfer from the zero address\") */\n      tag_160\n      jumpi\n      mload(0x40)\n      0x08c379a000000000000000000000000000000000000000000000000000000000\n      dup2\n      mstore\n      0x04\n      add\n      tag_161\n      swap1\n      tag_162\n      jump\t// in\n    tag_161:\n      mload(0x40)\n      dup1\n      swap2\n      sub\n      swap1\n      revert\n    tag_160:\n        /* \"erc20.sol\":2852:2853  0 */\n      0x00\n        /* \"erc20.sol\":2838:2854  to != address(0) */\n      0xffffffffffffffffffffffffffffffffffffffff\n      and\n        /* \"erc20.sol\":2838:2840  to */\n      dup3\n        /* \"erc20.sol\":2838:2854  to != address(0) */\n      0xffffffffffffffffffffffffffffffffffffffff\n      and\n      sub\n        /* \"erc20.sol\":2830:2894  require(to != address(0), \"ERC20: transfer to the zero address\") */\n      tag_163\n      jumpi\n      mload(0x40)\n      0x08c379a000000000000000000000000000000000000000000000000000000000\n      dup2\n      mstore\n      0x04\n      add\n      tag_164\n      swap1\n      tag_165\n      jump\t// in\n    tag_164:\n      mload(0x40)\n      dup1\n      swap2\n      sub\n      swap1\n      revert\n    tag_163:\n        /* \"erc20.sol\":2907:2926  uint256 fromBalance */\n      0x00\n        /* \"erc20.sol\":2929:2938  _balances */\n      0x04\n        /* \"erc20.sol\":2929:2944  _balances[from] */\n      0x00\n        /* \"erc20.sol\":2939:2943  from */\n      dup6\n        /* \"erc20.sol\":2929:2944  _balances[from] */\n      0xffffffffffffffffffffffffffffffffffffffff\n      and\n      0xffffffffffffffffffffffffffffffffffffffff\n      and\n      dup2\n      mstore\n      0x20\n      add\n      swap1\n      dup2\n      mstore\n      0x20\n      add\n      0x00\n      keccak256\n      sload\n        /* \"erc20.sol\":2907:2944  uint256 fromBalance = _balances[from] */\n      swap1\n      pop\n        /* \"erc20.sol\":2978:2984  amount */\n      dup2\n        /* \"erc20.sol\":2963:2974  fromBalance */\n      dup2\n        /* \"erc20.sol\":2963:2984  fromBalance >= amount */\n      lt\n      iszero\n        /* \"erc20.sol\":2955:3027  require(fromBalance >= amount, \"ERC20: transfer amount exceeds balance\") */\n      tag_166\n      jumpi\n      mload(0x40)\n      0x08c379a000000000000000000000000000000000000000000000000000000000\n      dup2\n      mstore\n      0x04\n      add\n      tag_167\n      swap1\n      tag_168\n      jump\t// in\n    tag_167:\n      mload(0x40)\n      dup1\n      swap2\n      sub\n      swap1\n      revert\n    tag_166:\n        /* \"erc20.sol\":3072:3078  amount */\n      dup2\n        /* \"erc20.sol\":3058:3069  fromBalance */\n      dup2\n        /* \"erc20.sol\":3058:3078  fromBalance - amount */\n      tag_169\n      swap2\n      swap1\n      tag_105\n      jump\t// in\n    tag_169:\n        /* \"erc20.sol\":3040:3049  _balances */\n      0x04\n        /* \"erc20.sol\":3040:3055  _balances[from] */\n      0x00\n        /* \"erc20.sol\":3050:3054  from */\n      dup7\n        /* \"erc20.sol\":3040:3055  _balances[from] */\n      0xffffffffffffffffffffffffffffffffffffffff\n      and\n      0xffffffffffffffffffffffffffffffffffffffff\n      and\n      dup2\n      mstore\n      0x20\n      add\n      swap1\n      dup2\n      mstore\n      0x20\n      add\n      0x00\n      keccak256\n        /* \"erc20.sol\":3040:3078  _balances[from] = fromBalance - amount */\n      dup2\n      swap1\n      sstore\n      pop\n        /* \"erc20.sol\":3106:3112  amount */\n      dup2\n        /* \"erc20.sol\":3089:3098  _balances */\n      0x04\n        /* \"erc20.sol\":3089:3102  _balances[to] */\n      0x00\n        /* \"erc20.sol\":3099:3101  to */\n      dup6\n        /* \"erc20.sol\":3089:3102  _balances[to] */\n      0xffffffffffffffffffffffffffffffffffffffff\n      and\n      0xffffffffffffffffffffffffffffffffffffffff\n      and\n      dup2\n      mstore\n      0x20\n      add\n      swap1\n      dup2\n      mstore\n      0x20\n      add\n      0x00\n      keccak256\n      0x00\n        /* \"erc20.sol\":3089:3112  _balances[to] += amount */\n      dup3\n      dup3\n      sload\n      tag_170\n      swap2\n      swap1\n      tag_143\n      jump\t// in\n    tag_170:\n      swap3\n      pop\n      pop\n      dup2\n      swap1\n      sstore\n      pop\n        /* \"erc20.sol\":3145:3147  to */\n      dup3\n        /* \"erc20.sol\":3130:3156  Transfer(from, to, amount) */\n      0xffffffffffffffffffffffffffffffffffffffff\n      and\n        /* \"erc20.sol\":3139:3143  from */\n      dup5\n        /* \"erc20.sol\":3130:3156  Transfer(from, to, amount) */\n      0xffffffffffffffffffffffffffffffffffffffff\n      and\n      0xddf252ad1be2c89b69c2b068fc378daa952ba7f163c4a11628f55a4df523b3ef\n        /* \"erc20.sol\":3149:3155  amount */\n      dup5\n        /* \"erc20.sol\":3130:3156  Transfer(from, to, amount) */\n      mload(0x40)\n      tag_171\n      swap2\n      swap1\n      tag_35\n      jump\t// in\n    tag_171:\n      mload(0x40)\n      dup1\n      swap2\n      sub\n      swap1\n      log3\n        /* \"erc20.sol\":2740:3164  {... */\n      pop\n        /* \"erc20.sol\":2670:3164  function _transfer(address from, address to, uint256 amount) internal {... */\n      pop\n      pop\n      pop\n      jump\t// out\n        /* \"erc20.sol\":3172:3484  function _mint(address to, uint256 amount) internal {... */\n    tag_122:\n        /* \"erc20.sol\":3257:3258  0 */\n      0x00\n        /* \"erc20.sol\":3243:3259  to != address(0) */\n      0xffffffffffffffffffffffffffffffffffffffff\n      and\n        /* \"erc20.sol\":3243:3245  to */\n      dup3\n        /* \"erc20.sol\":3243:3259  to != address(0) */\n      0xffffffffffffffffffffffffffffffffffffffff\n      and\n      sub\n        /* \"erc20.sol\":3235:3295  require(to != address(0), \"ERC20: mint to the zero address\") */\n      tag_173\n      jumpi\n      mload(0x40)\n      0x08c379a000000000000000000000000000000000000000000000000000000000\n      dup2\n      mstore\n      0x04\n      add\n      tag_174\n      swap1\n      tag_175\n      jump\t// in\n    tag_174:\n      mload(0x40)\n      dup1\n      swap2\n      sub\n      swap1\n      revert\n    tag_173:\n        /* \"erc20.sol\":3324:3330  amount */\n      dup1\n        /* \"erc20.sol\":3308:3320  _totalSupply */\n      0x03\n      0x00\n        /* \"erc20.sol\":3308:3330  _totalSupply += amount */\n      dup3\n      dup3\n      sload\n      tag_176\n      swap2\n      swap1\n      tag_143\n      jump\t// in\n    tag_176:\n      swap3\n      pop\n      pop\n      dup2\n      swap1\n      sstore\n      pop\n        /* \"erc20.sol\":3358:3364  amount */\n      dup1\n        /* \"erc20.sol\":3341:3350  _balances */\n      0x04\n        /* \"erc20.sol\":3341:3354  _balances[to] */\n      0x00\n        /* \"erc20.sol\":3351:3353  to */\n      dup5\n        /* \"erc20.sol\":3341:3354  _balances[to] */\n      0xffffffffffffffffffffffffffffffffffffffff\n      and\n      0xffffffffffffffffffffffffffffffffffffffff\n      and\n      dup2\n      mstore\n      0x20\n      add\n      swap1\n      dup2\n      mstore\n      0x20\n      add\n      0x00\n      keccak256\n      0x00\n        /* \"erc20.sol\":3341:3364  _balances[to] += amount */\n      dup3\n      dup3\n      sload\n      tag_177\n      swap2\n      swap1\n      tag_143\n      jump\t// in\n    tag_177:\n      swap3\n      pop\n      pop\n      dup2\n      swap1\n      sstore\n      pop\n        /* \"erc20.sol\":3465:3467  to */\n      dup2\n        /* \"erc20.sol\":3444:3476  Transfer(address(0), to, amount) */\n      0xffffffffffffffffffffffffffffffffffffffff\n      and\n        /* \"erc20.sol\":3461:3462  0 */\n      0x00\n        /* \"erc20.sol\":3444:3476  Transfer(address(0), to, amount) */\n      0xffffffffffffffffffffffffffffffffffffffff\n      and\n      0xddf252ad1be2c89b69c2b068fc378daa952ba7f163c4a11628f55a4df523b3ef\n        /* \"erc20.sol\":3469:3475  amount */\n      dup4\n        /* \"erc20.sol\":3444:3476  Transfer(address(0), to, amount) */\n      mload(0x40)\n      tag_178\n      swap2\n      swap1\n      tag_35\n      jump\t// in\n    tag_178:\n      mload(0x40)\n      dup1\n      swap2\n      sub\n      swap1\n      log3\n        /* \"erc20.sol\":3172:3484  function _mint(address to, uint256 amount) internal {... */\n      pop\n      pop\n      jump\t// out\n        /* \"erc20.sol\":3492:3807  function _burn(address from, uint256 amount) internal {... */\n    tag_132:\n        /* \"erc20.sol\":3581:3582  0 */\n      0x00\n        /* \"erc20.sol\":3565:3583  from != address(0) */\n      0xffffffffffffffffffffffffffffffffffffffff\n      and\n        /* \"erc20.sol\":3565:3569  from */\n      dup3\n        /* \"erc20.sol\":3565:3583  from != address(0) */\n      0xffffffffffffffffffffffffffffffffffffffff\n      and\n      sub\n        /* \"erc20.sol\":3557:3602  require(from != address(0), \"No hay address\") */\n      tag_180\n      jumpi\n      mload(0x40)\n      0x08c379a000000000000000000000000000000000000000000000000000000000\n      dup2\n      mstore\n      0x04\n      add\n      tag_181\n      swap1\n      tag_182\n      jump\t// in\n    tag_181:\n      mload(0x40)\n      dup1\n      swap2\n      sub\n      swap1\n      revert\n    tag_180:\n        /* \"erc20.sol\":3640:3646  amount */\n      dup1\n        /* \"erc20.sol\":3621:3630  _balances */\n      0x04\n        /* \"erc20.sol\":3621:3636  _balances[from] */\n      0x00\n        /* \"erc20.sol\":3631:3635  from */\n      dup5\n        /* \"erc20.sol\":3621:3636  _balances[from] */\n      0xffffffffffffffffffffffffffffffffffffffff\n      and\n      0xffffffffffffffffffffffffffffffffffffffff\n      and\n      dup2\n      mstore\n      0x20\n      add\n      swap1\n      dup2\n      mstore\n      0x20\n      add\n      0x00\n      keccak256\n      sload\n        /* \"erc20.sol\":3621:3646  _balances[from] >= amount */\n      lt\n      iszero\n        /* \"erc20.sol\":3613:3677  require(_balances[from] >= amount, \"No hay suficientes tokens.\") */\n      tag_183\n      jumpi\n      mload(0x40)\n      0x08c379a000000000000000000000000000000000000000000000000000000000\n      dup2\n      mstore\n      0x04\n      add\n      tag_184\n      swap1\n      tag_185\n      jump\t// in\n    tag_184:\n      mload(0x40)\n      dup1\n      swap2\n      sub\n      swap1\n      revert\n    tag_183:\n        /* \"erc20.sol\":3709:3715  amount */\n      dup1\n        /* \"erc20.sol\":3690:3699  _balances */\n      0x04\n        /* \"erc20.sol\":3690:3705  _balances[from] */\n      0x00\n        /* \"erc20.sol\":3700:3704  from */\n      dup5\n        /* \"erc20.sol\":3690:3705  _balances[from] */\n      0xffffffffffffffffffffffffffffffffffffffff\n      and\n      0xffffffffffffffffffffffffffffffffffffffff\n      and\n      dup2\n      mstore\n      0x20\n      add\n      swap1\n      dup2\n      mstore\n      0x20\n      add\n      0x00\n      keccak256\n      0x00\n        /* \"erc20.sol\":3690:3715  _balances[from] -= amount */\n      dup3\n      dup3\n      sload\n      tag_186\n      swap2\n      swap1\n      tag_105\n      jump\t// in\n    tag_186:\n      swap3\n      pop\n      pop\n      dup2\n      swap1\n      sstore\n      pop\n        /* \"erc20.sol\":3741:3747  amount */\n      dup1\n        /* \"erc20.sol\":3726:3738  _totalSupply */\n      0x03\n      0x00\n        /* \"erc20.sol\":3726:3747  _totalSupply -=amount */\n      dup3\n      dup3\n      sload\n      tag_187\n      swap2\n      swap1\n      tag_105\n      jump\t// in\n    tag_187:\n      swap3\n      pop\n      pop\n      dup2\n      swap1\n      sstore\n      pop\n        /* \"erc20.sol\":3788:3789  0 */\n      0x00\n        /* \"erc20.sol\":3765:3799  Transfer(from, address(0), amount) */\n      0xffffffffffffffffffffffffffffffffffffffff\n      and\n        /* \"erc20.sol\":3774:3778  from */\n      dup3\n        /* \"erc20.sol\":3765:3799  Transfer(from, address(0), amount) */\n      0xffffffffffffffffffffffffffffffffffffffff\n      and\n      0xddf252ad1be2c89b69c2b068fc378daa952ba7f163c4a11628f55a4df523b3ef\n        /* \"erc20.sol\":3792:3798  amount */\n      dup4\n        /* \"erc20.sol\":3765:3799  Transfer(from, address(0), amount) */\n      mload(0x40)\n      tag_188\n      swap2\n      swap1\n      tag_35\n      jump\t// in\n    tag_188:\n      mload(0x40)\n      dup1\n      swap2\n      sub\n      swap1\n      log3\n        /* \"erc20.sol\":3492:3807  function _burn(address from, uint256 amount) internal {... */\n      pop\n      pop\n      jump\t// out\n        /* \"#utility.yul\":7:106   */\n    tag_189:\n        /* \"#utility.yul\":59:65   */\n      0x00\n        /* \"#utility.yul\":93:98   */\n      dup2\n        /* \"#utility.yul\":87:99   */\n      mload\n        /* \"#utility.yul\":77:99   */\n      swap1\n      pop\n        /* \"#utility.yul\":7:106   */\n      swap2\n      swap1\n      pop\n      jump\t// out\n        /* \"#utility.yul\":112:281   */\n    tag_190:\n        /* \"#utility.yul\":196:207   */\n      0x00\n        /* \"#utility.yul\":230:236   */\n      dup3\n        /* \"#utility.yul\":225:228   */\n      dup3\n        /* \"#utility.yul\":218:237   */\n      mstore\n        /* \"#utility.yul\":270:274   */\n      0x20\n        /* \"#utility.yul\":265:268   */\n      dup3\n        /* \"#utility.yul\":261:275   */\n      add\n        /* \"#utility.yul\":246:275   */\n      swap1\n      pop\n        /* \"#utility.yul\":112:281   */\n      swap3\n      swap2\n      pop\n      pop\n      jump\t// out\n        /* \"#utility.yul\":287:426   */\n    tag_191:\n        /* \"#utility.yul\":376:382   */\n      dup3\n        /* \"#utility.yul\":371:374   */\n      dup2\n        /* \"#utility.yul\":366:369   */\n      dup4\n        /* \"#utility.yul\":360:383   */\n      mcopy\n        /* \"#utility.yul\":417:418   */\n      0x00\n        /* \"#utility.yul\":408:414   */\n      dup4\n        /* \"#utility.yul\":403:406   */\n      dup4\n        /* \"#utility.yul\":399:415   */\n      add\n        /* \"#utility.yul\":392:419   */\n      mstore\n        /* \"#utility.yul\":287:426   */\n      pop\n      pop\n      pop\n      jump\t// out\n        /* \"#utility.yul\":432:534   */\n    tag_192:\n        /* \"#utility.yul\":473:479   */\n      0x00\n        /* \"#utility.yul\":524:526   */\n      0x1f\n        /* \"#utility.yul\":520:527   */\n      not\n        /* \"#utility.yul\":515:517   */\n      0x1f\n        /* \"#utility.yul\":508:513   */\n      dup4\n        /* \"#utility.yul\":504:518   */\n      add\n        /* \"#utility.yul\":500:528   */\n      and\n        /* \"#utility.yul\":490:528   */\n      swap1\n      pop\n        /* \"#utility.yul\":432:534   */\n      swap2\n      swap1\n      pop\n      jump\t// out\n        /* \"#utility.yul\":540:917   */\n    tag_193:\n        /* \"#utility.yul\":628:631   */\n      0x00\n        /* \"#utility.yul\":656:695   */\n      tag_270\n        /* \"#utility.yul\":689:694   */\n      dup3\n        /* \"#utility.yul\":656:695   */\n      tag_189\n      jump\t// in\n    tag_270:\n        /* \"#utility.yul\":711:782   */\n      tag_271\n        /* \"#utility.yul\":775:781   */\n      dup2\n        /* \"#utility.yul\":770:773   */\n      dup6\n        /* \"#utility.yul\":711:782   */\n      tag_190\n      jump\t// in\n    tag_271:\n        /* \"#utility.yul\":704:782   */\n      swap4\n      pop\n        /* \"#utility.yul\":791:856   */\n      tag_272\n        /* \"#utility.yul\":849:855   */\n      dup2\n        /* \"#utility.yul\":844:847   */\n      dup6\n        /* \"#utility.yul\":837:841   */\n      0x20\n        /* \"#utility.yul\":830:835   */\n      dup7\n        /* \"#utility.yul\":826:842   */\n      add\n        /* \"#utility.yul\":791:856   */\n      tag_191\n      jump\t// in\n    tag_272:\n        /* \"#utility.yul\":881:910   */\n      tag_273\n        /* \"#utility.yul\":903:909   */\n      dup2\n        /* \"#utility.yul\":881:910   */\n      tag_192\n      jump\t// in\n    tag_273:\n        /* \"#utility.yul\":876:879   */\n      dup5\n        /* \"#utility.yul\":872:911   */\n      add\n        /* \"#utility.yul\":865:911   */\n      swap2\n      pop\n        /* \"#utility.yul\":632:917   */\n      pop\n        /* \"#utility.yul\":540:917   */\n      swap3\n      swap2\n      pop\n      pop\n      jump\t// out\n        /* \"#utility.yul\":923:1236   */\n    tag_25:\n        /* \"#utility.yul\":1036:1040   */\n      0x00\n        /* \"#utility.yul\":1074:1076   */\n      0x20\n        /* \"#utility.yul\":1063:1072   */\n      dup3\n        /* \"#utility.yul\":1059:1077   */\n      add\n        /* \"#utility.yul\":1051:1077   */\n      swap1\n      pop\n        /* \"#utility.yul\":1123:1132   */\n      dup2\n        /* \"#utility.yul\":1117:1121   */\n      dup2\n        /* \"#utility.yul\":1113:1133   */\n      sub\n        /* \"#utility.yul\":1109:1110   */\n      0x00\n        /* \"#utility.yul\":1098:1107   */\n      dup4\n        /* \"#utility.yul\":1094:1111   */\n      add\n        /* \"#utility.yul\":1087:1134   */\n      mstore\n        /* \"#utility.yul\":1151:1229   */\n      tag_275\n        /* \"#utility.yul\":1224:1228   */\n      dup2\n        /* \"#utility.yul\":1215:1221   */\n      dup5\n        /* \"#utility.yul\":1151:1229   */\n      tag_193\n      jump\t// in\n    tag_275:\n        /* \"#utility.yul\":1143:1229   */\n      swap1\n      pop\n        /* \"#utility.yul\":923:1236   */\n      swap3\n      swap2\n      pop\n      pop\n      jump\t// out\n        /* \"#utility.yul\":1242:1317   */\n    tag_194:\n        /* \"#utility.yul\":1275:1281   */\n      0x00\n        /* \"#utility.yul\":1308:1310   */\n      0x40\n        /* \"#utility.yul\":1302:1311   */\n      mload\n        /* \"#utility.yul\":1292:1311   */\n      swap1\n      pop\n        /* \"#utility.yul\":1242:1317   */\n      swap1\n      jump\t// out\n        /* \"#utility.yul\":1323:1440   */\n    tag_195:\n        /* \"#utility.yul\":1432:1433   */\n      0x00\n        /* \"#utility.yul\":1429:1430   */\n      0x00\n        /* \"#utility.yul\":1422:1434   */\n      revert\n        /* \"#utility.yul\":1446:1563   */\n    tag_196:\n        /* \"#utility.yul\":1555:1556   */\n      0x00\n        /* \"#utility.yul\":1552:1553   */\n      0x00\n        /* \"#utility.yul\":1545:1557   */\n      revert\n        /* \"#utility.yul\":1569:1695   */\n    tag_197:\n        /* \"#utility.yul\":1606:1613   */\n      0x00\n        /* \"#utility.yul\":1646:1688   */\n      0xffffffffffffffffffffffffffffffffffffffff\n        /* \"#utility.yul\":1639:1644   */\n      dup3\n        /* \"#utility.yul\":1635:1689   */\n      and\n        /* \"#utility.yul\":1624:1689   */\n      swap1\n      pop\n        /* \"#utility.yul\":1569:1695   */\n      swap2\n      swap1\n      pop\n      jump\t// out\n        /* \"#utility.yul\":1701:1797   */\n    tag_198:\n        /* \"#utility.yul\":1738:1745   */\n      0x00\n        /* \"#utility.yul\":1767:1791   */\n      tag_281\n        /* \"#utility.yul\":1785:1790   */\n      dup3\n        /* \"#utility.yul\":1767:1791   */\n      tag_197\n      jump\t// in\n    tag_281:\n        /* \"#utility.yul\":1756:1791   */\n      swap1\n      pop\n        /* \"#utility.yul\":1701:1797   */\n      swap2\n      swap1\n      pop\n      jump\t// out\n        /* \"#utility.yul\":1803:1925   */\n    tag_199:\n        /* \"#utility.yul\":1876:1900   */\n      tag_283\n        /* \"#utility.yul\":1894:1899   */\n      dup2\n        /* \"#utility.yul\":1876:1900   */\n      tag_198\n      jump\t// in\n    tag_283:\n        /* \"#utility.yul\":1869:1874   */\n      dup2\n        /* \"#utility.yul\":1866:1901   */\n      eq\n        /* \"#utility.yul\":1856:1919   */\n      tag_284\n      jumpi\n        /* \"#utility.yul\":1915:1916   */\n      0x00\n        /* \"#utility.yul\":1912:1913   */\n      0x00\n        /* \"#utility.yul\":1905:1917   */\n      revert\n        /* \"#utility.yul\":1856:1919   */\n    tag_284:\n        /* \"#utility.yul\":1803:1925   */\n      pop\n      jump\t// out\n        /* \"#utility.yul\":1931:2070   */\n    tag_200:\n        /* \"#utility.yul\":1977:1982   */\n      0x00\n        /* \"#utility.yul\":2015:2021   */\n      dup2\n        /* \"#utility.yul\":2002:2022   */\n      calldataload\n        /* \"#utility.yul\":1993:2022   */\n      swap1\n      pop\n        /* \"#utility.yul\":2031:2064   */\n      tag_286\n        /* \"#utility.yul\":2058:2063   */\n      dup2\n        /* \"#utility.yul\":2031:2064   */\n      tag_199\n      jump\t// in\n    tag_286:\n        /* \"#utility.yul\":1931:2070   */\n      swap3\n      swap2\n      pop\n      pop\n      jump\t// out\n        /* \"#utility.yul\":2076:2153   */\n    tag_201:\n        /* \"#utility.yul\":2113:2120   */\n      0x00\n        /* \"#utility.yul\":2142:2147   */\n      dup2\n        /* \"#utility.yul\":2131:2147   */\n      swap1\n      pop\n        /* \"#utility.yul\":2076:2153   */\n      swap2\n      swap1\n      pop\n      jump\t// out\n        /* \"#utility.yul\":2159:2281   */\n    tag_202:\n        /* \"#utility.yul\":2232:2256   */\n      tag_289\n        /* \"#utility.yul\":2250:2255   */\n      dup2\n        /* \"#utility.yul\":2232:2256   */\n      tag_201\n      jump\t// in\n    tag_289:\n        /* \"#utility.yul\":2225:2230   */\n      dup2\n        /* \"#utility.yul\":2222:2257   */\n      eq\n        /* \"#utility.yul\":2212:2275   */\n      tag_290\n      jumpi\n        /* \"#utility.yul\":2271:2272   */\n      0x00\n        /* \"#utility.yul\":2268:2269   */\n      0x00\n        /* \"#utility.yul\":2261:2273   */\n      revert\n        /* \"#utility.yul\":2212:2275   */\n    tag_290:\n        /* \"#utility.yul\":2159:2281   */\n      pop\n      jump\t// out\n        /* \"#utility.yul\":2287:2426   */\n    tag_203:\n        /* \"#utility.yul\":2333:2338   */\n      0x00\n        /* \"#utility.yul\":2371:2377   */\n      dup2\n        /* \"#utility.yul\":2358:2378   */\n      calldataload\n        /* \"#utility.yul\":2349:2378   */\n      swap1\n      pop\n        /* \"#utility.yul\":2387:2420   */\n      tag_292\n        /* \"#utility.yul\":2414:2419   */\n      dup2\n        /* \"#utility.yul\":2387:2420   */\n      tag_202\n      jump\t// in\n    tag_292:\n        /* \"#utility.yul\":2287:2426   */\n      swap3\n      swap2\n      pop\n      pop\n      jump\t// out\n        /* \"#utility.yul\":2432:2906   */\n    tag_28:\n        /* \"#utility.yul\":2500:2506   */\n      0x00\n        /* \"#utility.yul\":2508:2514   */\n      0x00\n        /* \"#utility.yul\":2557:2559   */\n      0x40\n        /* \"#utility.yul\":2545:2554   */\n      dup4\n        /* \"#utility.yul\":2536:2543   */\n      dup6\n        /* \"#utility.yul\":2532:2555   */\n      sub\n        /* \"#utility.yul\":2528:2560   */\n      slt\n        /* \"#utility.yul\":2525:2644   */\n      iszero\n      tag_294\n      jumpi\n        /* \"#utility.yul\":2563:2642   */\n      tag_295\n      tag_195\n      jump\t// in\n    tag_295:\n        /* \"#utility.yul\":2525:2644   */\n    tag_294:\n        /* \"#utility.yul\":2683:2684   */\n      0x00\n        /* \"#utility.yul\":2708:2761   */\n      tag_296\n        /* \"#utility.yul\":2753:2760   */\n      dup6\n        /* \"#utility.yul\":2744:2750   */\n      dup3\n        /* \"#utility.yul\":2733:2742   */\n      dup7\n        /* \"#utility.yul\":2729:2751   */\n      add\n        /* \"#utility.yul\":2708:2761   */\n      tag_200\n      jump\t// in\n    tag_296:\n        /* \"#utility.yul\":2698:2761   */\n      swap3\n      pop\n        /* \"#utility.yul\":2654:2771   */\n      pop\n        /* \"#utility.yul\":2810:2812   */\n      0x20\n        /* \"#utility.yul\":2836:2889   */\n      tag_297\n        /* \"#utility.yul\":2881:2888   */\n      dup6\n        /* \"#utility.yul\":2872:2878   */\n      dup3\n        /* \"#utility.yul\":2861:2870   */\n      dup7\n        /* \"#utility.yul\":2857:2879   */\n      add\n        /* \"#utility.yul\":2836:2889   */\n      tag_203\n      jump\t// in\n    tag_297:\n        /* \"#utility.yul\":2826:2889   */\n      swap2\n      pop\n        /* \"#utility.yul\":2781:2899   */\n      pop\n        /* \"#utility.yul\":2432:2906   */\n      swap3\n      pop\n      swap3\n      swap1\n      pop\n      jump\t// out\n        /* \"#utility.yul\":2912:3002   */\n    tag_204:\n        /* \"#utility.yul\":2946:2953   */\n      0x00\n        /* \"#utility.yul\":2989:2994   */\n      dup2\n        /* \"#utility.yul\":2982:2995   */\n      iszero\n        /* \"#utility.yul\":2975:2996   */\n      iszero\n        /* \"#utility.yul\":2964:2996   */\n      swap1\n      pop\n        /* \"#utility.yul\":2912:3002   */\n      swap2\n      swap1\n      pop\n      jump\t// out\n        /* \"#utility.yul\":3008:3117   */\n    tag_205:\n        /* \"#utility.yul\":3089:3110   */\n      tag_300\n        /* \"#utility.yul\":3104:3109   */\n      dup2\n        /* \"#utility.yul\":3089:3110   */\n      tag_204\n      jump\t// in\n    tag_300:\n        /* \"#utility.yul\":3084:3087   */\n      dup3\n        /* \"#utility.yul\":3077:3111   */\n      mstore\n        /* \"#utility.yul\":3008:3117   */\n      pop\n      pop\n      jump\t// out\n        /* \"#utility.yul\":3123:3333   */\n    tag_31:\n        /* \"#utility.yul\":3210:3214   */\n      0x00\n        /* \"#utility.yul\":3248:3250   */\n      0x20\n        /* \"#utility.yul\":3237:3246   */\n      dup3\n        /* \"#utility.yul\":3233:3251   */\n      add\n        /* \"#utility.yul\":3225:3251   */\n      swap1\n      pop\n        /* \"#utility.yul\":3261:3326   */\n      tag_302\n        /* \"#utility.yul\":3323:3324   */\n      0x00\n        /* \"#utility.yul\":3312:3321   */\n      dup4\n        /* \"#utility.yul\":3308:3325   */\n      add\n        /* \"#utility.yul\":3299:3305   */\n      dup5\n        /* \"#utility.yul\":3261:3326   */\n      tag_205\n      jump\t// in\n    tag_302:\n        /* \"#utility.yul\":3123:3333   */\n      swap3\n      swap2\n      pop\n      pop\n      jump\t// out\n        /* \"#utility.yul\":3339:3457   */\n    tag_206:\n        /* \"#utility.yul\":3426:3450   */\n      tag_304\n        /* \"#utility.yul\":3444:3449   */\n      dup2\n        /* \"#utility.yul\":3426:3450   */\n      tag_201\n      jump\t// in\n    tag_304:\n        /* \"#utility.yul\":3421:3424   */\n      dup3\n        /* \"#utility.yul\":3414:3451   */\n      mstore\n        /* \"#utility.yul\":3339:3457   */\n      pop\n      pop\n      jump\t// out\n        /* \"#utility.yul\":3463:3685   */\n    tag_35:\n        /* \"#utility.yul\":3556:3560   */\n      0x00\n        /* \"#utility.yul\":3594:3596   */\n      0x20\n        /* \"#utility.yul\":3583:3592   */\n      dup3\n        /* \"#utility.yul\":3579:3597   */\n      add\n        /* \"#utility.yul\":3571:3597   */\n      swap1\n      pop\n        /* \"#utility.yul\":3607:3678   */\n      tag_306\n        /* \"#utility.yul\":3675:3676   */\n      0x00\n        /* \"#utility.yul\":3664:3673   */\n      dup4\n        /* \"#utility.yul\":3660:3677   */\n      add\n        /* \"#utility.yul\":3651:3657   */\n      dup5\n        /* \"#utility.yul\":3607:3678   */\n      tag_206\n      jump\t// in\n    tag_306:\n        /* \"#utility.yul\":3463:3685   */\n      swap3\n      swap2\n      pop\n      pop\n      jump\t// out\n        /* \"#utility.yul\":3691:3751   */\n    tag_207:\n        /* \"#utility.yul\":3719:3722   */\n      0x00\n        /* \"#utility.yul\":3740:3745   */\n      dup2\n        /* \"#utility.yul\":3733:3745   */\n      swap1\n      pop\n        /* \"#utility.yul\":3691:3751   */\n      swap2\n      swap1\n      pop\n      jump\t// out\n        /* \"#utility.yul\":3757:3899   */\n    tag_208:\n        /* \"#utility.yul\":3807:3816   */\n      0x00\n        /* \"#utility.yul\":3840:3893   */\n      tag_309\n        /* \"#utility.yul\":3858:3892   */\n      tag_310\n        /* \"#utility.yul\":3867:3891   */\n      tag_311\n        /* \"#utility.yul\":3885:3890   */\n      dup5\n        /* \"#utility.yul\":3867:3891   */\n      tag_197\n      jump\t// in\n    tag_311:\n        /* \"#utility.yul\":3858:3892   */\n      tag_207\n      jump\t// in\n    tag_310:\n        /* \"#utility.yul\":3840:3893   */\n      tag_197\n      jump\t// in\n    tag_309:\n        /* \"#utility.yul\":3827:3893   */\n      swap1\n      pop\n        /* \"#utility.yul\":3757:3899   */\n      swap2\n      swap1\n      pop\n      jump\t// out\n        /* \"#utility.yul\":3905:4031   */\n    tag_209:\n        /* \"#utility.yul\":3955:3964   */\n      0x00\n        /* \"#utility.yul\":3988:4025   */\n      tag_313\n        /* \"#utility.yul\":4019:4024   */\n      dup3\n        /* \"#utility.yul\":3988:4025   */\n      tag_208\n      jump\t// in\n    tag_313:\n        /* \"#utility.yul\":3975:4025   */\n      swap1\n      pop\n        /* \"#utility.yul\":3905:4031   */\n      swap2\n      swap1\n      pop\n      jump\t// out\n        /* \"#utility.yul\":4037:4182   */\n    tag_210:\n        /* \"#utility.yul\":4106:4115   */\n      0x00\n        /* \"#utility.yul\":4139:4176   */\n      tag_315\n        /* \"#utility.yul\":4170:4175   */\n      dup3\n        /* \"#utility.yul\":4139:4176   */\n      tag_209\n      jump\t// in\n    tag_315:\n        /* \"#utility.yul\":4126:4176   */\n      swap1\n      pop\n        /* \"#utility.yul\":4037:4182   */\n      swap2\n      swap1\n      pop\n      jump\t// out\n        /* \"#utility.yul\":4188:4357   */\n    tag_211:\n        /* \"#utility.yul\":4294:4350   */\n      tag_317\n        /* \"#utility.yul\":4344:4349   */\n      dup2\n        /* \"#utility.yul\":4294:4350   */\n      tag_210\n      jump\t// in\n    tag_317:\n        /* \"#utility.yul\":4289:4292   */\n      dup3\n        /* \"#utility.yul\":4282:4351   */\n      mstore\n        /* \"#utility.yul\":4188:4357   */\n      pop\n      pop\n      jump\t// out\n        /* \"#utility.yul\":4363:4623   */\n    tag_39:\n        /* \"#utility.yul\":4475:4479   */\n      0x00\n        /* \"#utility.yul\":4513:4515   */\n      0x20\n        /* \"#utility.yul\":4502:4511   */\n      dup3\n        /* \"#utility.yul\":4498:4516   */\n      add\n        /* \"#utility.yul\":4490:4516   */\n      swap1\n      pop\n        /* \"#utility.yul\":4526:4616   */\n      tag_319\n        /* \"#utility.yul\":4613:4614   */\n      0x00\n        /* \"#utility.yul\":4602:4611   */\n      dup4\n        /* \"#utility.yul\":4598:4615   */\n      add\n        /* \"#utility.yul\":4589:4595   */\n      dup5\n        /* \"#utility.yul\":4526:4616   */\n      tag_211\n      jump\t// in\n    tag_319:\n        /* \"#utility.yul\":4363:4623   */\n      swap3\n      swap2\n      pop\n      pop\n      jump\t// out\n        /* \"#utility.yul\":4629:5248   */\n    tag_42:\n        /* \"#utility.yul\":4706:4712   */\n      0x00\n        /* \"#utility.yul\":4714:4720   */\n      0x00\n        /* \"#utility.yul\":4722:4728   */\n      0x00\n        /* \"#utility.yul\":4771:4773   */\n      0x60\n        /* \"#utility.yul\":4759:4768   */\n      dup5\n        /* \"#utility.yul\":4750:4757   */\n      dup7\n        /* \"#utility.yul\":4746:4769   */\n      sub\n        /* \"#utility.yul\":4742:4774   */\n      slt\n        /* \"#utility.yul\":4739:4858   */\n      iszero\n      tag_321\n      jumpi\n        /* \"#utility.yul\":4777:4856   */\n      tag_322\n      tag_195\n      jump\t// in\n    tag_322:\n        /* \"#utility.yul\":4739:4858   */\n    tag_321:\n        /* \"#utility.yul\":4897:4898   */\n      0x00\n        /* \"#utility.yul\":4922:4975   */\n      tag_323\n        /* \"#utility.yul\":4967:4974   */\n      dup7\n        /* \"#utility.yul\":4958:4964   */\n      dup3\n        /* \"#utility.yul\":4947:4956   */\n      dup8\n        /* \"#utility.yul\":4943:4965   */\n      add\n        /* \"#utility.yul\":4922:4975   */\n      tag_200\n      jump\t// in\n    tag_323:\n        /* \"#utility.yul\":4912:4975   */\n      swap4\n      pop\n        /* \"#utility.yul\":4868:4985   */\n      pop\n        /* \"#utility.yul\":5024:5026   */\n      0x20\n        /* \"#utility.yul\":5050:5103   */\n      tag_324\n        /* \"#utility.yul\":5095:5102   */\n      dup7\n        /* \"#utility.yul\":5086:5092   */\n      dup3\n        /* \"#utility.yul\":5075:5084   */\n      dup8\n        /* \"#utility.yul\":5071:5093   */\n      add\n        /* \"#utility.yul\":5050:5103   */\n      tag_200\n      jump\t// in\n    tag_324:\n        /* \"#utility.yul\":5040:5103   */\n      swap3\n      pop\n        /* \"#utility.yul\":4995:5113   */\n      pop\n        /* \"#utility.yul\":5152:5154   */\n      0x40\n        /* \"#utility.yul\":5178:5231   */\n      tag_325\n        /* \"#utility.yul\":5223:5230   */\n      dup7\n        /* \"#utility.yul\":5214:5220   */\n      dup3\n        /* \"#utility.yul\":5203:5212   */\n      dup8\n        /* \"#utility.yul\":5199:5221   */\n      add\n        /* \"#utility.yul\":5178:5231   */\n      tag_203\n      jump\t// in\n    tag_325:\n        /* \"#utility.yul\":5168:5231   */\n      swap2\n      pop\n        /* \"#utility.yul\":5123:5241   */\n      pop\n        /* \"#utility.yul\":4629:5248   */\n      swap3\n      pop\n      swap3\n      pop\n      swap3\n      jump\t// out\n        /* \"#utility.yul\":5254:5340   */\n    tag_212:\n        /* \"#utility.yul\":5289:5296   */\n      0x00\n        /* \"#utility.yul\":5329:5333   */\n      0xff\n        /* \"#utility.yul\":5322:5327   */\n      dup3\n        /* \"#utility.yul\":5318:5334   */\n      and\n        /* \"#utility.yul\":5307:5334   */\n      swap1\n      pop\n        /* \"#utility.yul\":5254:5340   */\n      swap2\n      swap1\n      pop\n      jump\t// out\n        /* \"#utility.yul\":5346:5458   */\n    tag_213:\n        /* \"#utility.yul\":5429:5451   */\n      tag_328\n        /* \"#utility.yul\":5445:5450   */\n      dup2\n        /* \"#utility.yul\":5429:5451   */\n      tag_212\n      jump\t// in\n    tag_328:\n        /* \"#utility.yul\":5424:5427   */\n      dup3\n        /* \"#utility.yul\":5417:5452   */\n      mstore\n        /* \"#utility.yul\":5346:5458   */\n      pop\n      pop\n      jump\t// out\n        /* \"#utility.yul\":5464:5678   */\n    tag_48:\n        /* \"#utility.yul\":5553:5557   */\n      0x00\n        /* \"#utility.yul\":5591:5593   */\n      0x20\n        /* \"#utility.yul\":5580:5589   */\n      dup3\n        /* \"#utility.yul\":5576:5594   */\n      add\n        /* \"#utility.yul\":5568:5594   */\n      swap1\n      pop\n        /* \"#utility.yul\":5604:5671   */\n      tag_330\n        /* \"#utility.yul\":5668:5669   */\n      0x00\n        /* \"#utility.yul\":5657:5666   */\n      dup4\n        /* \"#utility.yul\":5653:5670   */\n      add\n        /* \"#utility.yul\":5644:5650   */\n      dup5\n        /* \"#utility.yul\":5604:5671   */\n      tag_213\n      jump\t// in\n    tag_330:\n        /* \"#utility.yul\":5464:5678   */\n      swap3\n      swap2\n      pop\n      pop\n      jump\t// out\n        /* \"#utility.yul\":5684:5801   */\n    tag_214:\n        /* \"#utility.yul\":5793:5794   */\n      0x00\n        /* \"#utility.yul\":5790:5791   */\n      0x00\n        /* \"#utility.yul\":5783:5795   */\n      revert\n        /* \"#utility.yul\":5807:5924   */\n    tag_215:\n        /* \"#utility.yul\":5916:5917   */\n      0x00\n        /* \"#utility.yul\":5913:5914   */\n      0x00\n        /* \"#utility.yul\":5906:5918   */\n      revert\n        /* \"#utility.yul\":5930:6110   */\n    tag_216:\n        /* \"#utility.yul\":5978:6055   */\n      0x4e487b7100000000000000000000000000000000000000000000000000000000\n        /* \"#utility.yul\":5975:5976   */\n      0x00\n        /* \"#utility.yul\":5968:6056   */\n      mstore\n        /* \"#utility.yul\":6075:6079   */\n      0x41\n        /* \"#utility.yul\":6072:6073   */\n      0x04\n        /* \"#utility.yul\":6065:6080   */\n      mstore\n        /* \"#utility.yul\":6099:6103   */\n      0x24\n        /* \"#utility.yul\":6096:6097   */\n      0x00\n        /* \"#utility.yul\":6089:6104   */\n      revert\n        /* \"#utility.yul\":6116:6397   */\n    tag_217:\n        /* \"#utility.yul\":6199:6226   */\n      tag_335\n        /* \"#utility.yul\":6221:6225   */\n      dup3\n        /* \"#utility.yul\":6199:6226   */\n      tag_192\n      jump\t// in\n    tag_335:\n        /* \"#utility.yul\":6191:6197   */\n      dup2\n        /* \"#utility.yul\":6187:6227   */\n      add\n        /* \"#utility.yul\":6329:6335   */\n      dup2\n        /* \"#utility.yul\":6317:6327   */\n      dup2\n        /* \"#utility.yul\":6314:6336   */\n      lt\n        /* \"#utility.yul\":6293:6311   */\n      0xffffffffffffffff\n        /* \"#utility.yul\":6281:6291   */\n      dup3\n        /* \"#utility.yul\":6278:6312   */\n      gt\n        /* \"#utility.yul\":6275:6337   */\n      or\n        /* \"#utility.yul\":6272:6360   */\n      iszero\n      tag_336\n      jumpi\n        /* \"#utility.yul\":6340:6358   */\n      tag_337\n      tag_216\n      jump\t// in\n    tag_337:\n        /* \"#utility.yul\":6272:6360   */\n    tag_336:\n        /* \"#utility.yul\":6380:6390   */\n      dup1\n        /* \"#utility.yul\":6376:6378   */\n      0x40\n        /* \"#utility.yul\":6369:6391   */\n      mstore\n        /* \"#utility.yul\":6159:6397   */\n      pop\n        /* \"#utility.yul\":6116:6397   */\n      pop\n      pop\n      jump\t// out\n        /* \"#utility.yul\":6403:6532   */\n    tag_218:\n        /* \"#utility.yul\":6437:6443   */\n      0x00\n        /* \"#utility.yul\":6464:6484   */\n      tag_339\n      tag_194\n      jump\t// in\n    tag_339:\n        /* \"#utility.yul\":6454:6484   */\n      swap1\n      pop\n        /* \"#utility.yul\":6493:6526   */\n      tag_340\n        /* \"#utility.yul\":6521:6525   */\n      dup3\n        /* \"#utility.yul\":6513:6519   */\n      dup3\n        /* \"#utility.yul\":6493:6526   */\n      tag_217\n      jump\t// in\n    tag_340:\n        /* \"#utility.yul\":6403:6532   */\n      swap2\n      swap1\n      pop\n      jump\t// out\n        /* \"#utility.yul\":6538:6846   */\n    tag_219:\n        /* \"#utility.yul\":6600:6604   */\n      0x00\n        /* \"#utility.yul\":6690:6708   */\n      0xffffffffffffffff\n        /* \"#utility.yul\":6682:6688   */\n      dup3\n        /* \"#utility.yul\":6679:6709   */\n      gt\n        /* \"#utility.yul\":6676:6732   */\n      iszero\n      tag_342\n      jumpi\n        /* \"#utility.yul\":6712:6730   */\n      tag_343\n      tag_216\n      jump\t// in\n    tag_343:\n        /* \"#utility.yul\":6676:6732   */\n    tag_342:\n        /* \"#utility.yul\":6750:6779   */\n      tag_344\n        /* \"#utility.yul\":6772:6778   */\n      dup3\n        /* \"#utility.yul\":6750:6779   */\n      tag_192\n      jump\t// in\n    tag_344:\n        /* \"#utility.yul\":6742:6779   */\n      swap1\n      pop\n        /* \"#utility.yul\":6834:6838   */\n      0x20\n        /* \"#utility.yul\":6828:6832   */\n      dup2\n        /* \"#utility.yul\":6824:6839   */\n      add\n        /* \"#utility.yul\":6816:6839   */\n      swap1\n      pop\n        /* \"#utility.yul\":6538:6846   */\n      swap2\n      swap1\n      pop\n      jump\t// out\n        /* \"#utility.yul\":6852:7000   */\n    tag_220:\n        /* \"#utility.yul\":6950:6956   */\n      dup3\n        /* \"#utility.yul\":6945:6948   */\n      dup2\n        /* \"#utility.yul\":6940:6943   */\n      dup4\n        /* \"#utility.yul\":6927:6957   */\n      calldatacopy\n        /* \"#utility.yul\":6991:6992   */\n      0x00\n        /* \"#utility.yul\":6982:6988   */\n      dup4\n        /* \"#utility.yul\":6977:6980   */\n      dup4\n        /* \"#utility.yul\":6973:6989   */\n      add\n        /* \"#utility.yul\":6966:6993   */\n      mstore\n        /* \"#utility.yul\":6852:7000   */\n      pop\n      pop\n      pop\n      jump\t// out\n        /* \"#utility.yul\":7006:7431   */\n    tag_221:\n        /* \"#utility.yul\":7084:7089   */\n      0x00\n        /* \"#utility.yul\":7109:7175   */\n      tag_347\n        /* \"#utility.yul\":7125:7174   */\n      tag_348\n        /* \"#utility.yul\":7167:7173   */\n      dup5\n        /* \"#utility.yul\":7125:7174   */\n      tag_219\n      jump\t// in\n    tag_348:\n        /* \"#utility.yul\":7109:7175   */\n      tag_218\n      jump\t// in\n    tag_347:\n        /* \"#utility.yul\":7100:7175   */\n      swap1\n      pop\n        /* \"#utility.yul\":7198:7204   */\n      dup3\n        /* \"#utility.yul\":7191:7196   */\n      dup2\n        /* \"#utility.yul\":7184:7205   */\n      mstore\n        /* \"#utility.yul\":7236:7240   */\n      0x20\n        /* \"#utility.yul\":7229:7234   */\n      dup2\n        /* \"#utility.yul\":7225:7241   */\n      add\n        /* \"#utility.yul\":7274:7277   */\n      dup5\n        /* \"#utility.yul\":7265:7271   */\n      dup5\n        /* \"#utility.yul\":7260:7263   */\n      dup5\n        /* \"#utility.yul\":7256:7272   */\n      add\n        /* \"#utility.yul\":7253:7278   */\n      gt\n        /* \"#utility.yul\":7250:7362   */\n      iszero\n      tag_349\n      jumpi\n        /* \"#utility.yul\":7281:7360   */\n      tag_350\n      tag_215\n      jump\t// in\n    tag_350:\n        /* \"#utility.yul\":7250:7362   */\n    tag_349:\n        /* \"#utility.yul\":7371:7425   */\n      tag_351\n        /* \"#utility.yul\":7418:7424   */\n      dup5\n        /* \"#utility.yul\":7413:7416   */\n      dup3\n        /* \"#utility.yul\":7408:7411   */\n      dup6\n        /* \"#utility.yul\":7371:7425   */\n      tag_220\n      jump\t// in\n    tag_351:\n        /* \"#utility.yul\":7090:7431   */\n      pop\n        /* \"#utility.yul\":7006:7431   */\n      swap4\n      swap3\n      pop\n      pop\n      pop\n      jump\t// out\n        /* \"#utility.yul\":7451:7791   */\n    tag_222:\n        /* \"#utility.yul\":7507:7512   */\n      0x00\n        /* \"#utility.yul\":7556:7559   */\n      dup3\n        /* \"#utility.yul\":7549:7553   */\n      0x1f\n        /* \"#utility.yul\":7541:7547   */\n      dup4\n        /* \"#utility.yul\":7537:7554   */\n      add\n        /* \"#utility.yul\":7533:7560   */\n      slt\n        /* \"#utility.yul\":7523:7645   */\n      tag_353\n      jumpi\n        /* \"#utility.yul\":7564:7643   */\n      tag_354\n      tag_214\n      jump\t// in\n    tag_354:\n        /* \"#utility.yul\":7523:7645   */\n    tag_353:\n        /* \"#utility.yul\":7681:7687   */\n      dup2\n        /* \"#utility.yul\":7668:7688   */\n      calldataload\n        /* \"#utility.yul\":7706:7785   */\n      tag_355\n        /* \"#utility.yul\":7781:7784   */\n      dup5\n        /* \"#utility.yul\":7773:7779   */\n      dup3\n        /* \"#utility.yul\":7766:7770   */\n      0x20\n        /* \"#utility.yul\":7758:7764   */\n      dup7\n        /* \"#utility.yul\":7754:7771   */\n      add\n        /* \"#utility.yul\":7706:7785   */\n      tag_221\n      jump\t// in\n    tag_355:\n        /* \"#utility.yul\":7697:7785   */\n      swap2\n      pop\n        /* \"#utility.yul\":7513:7791   */\n      pop\n        /* \"#utility.yul\":7451:7791   */\n      swap3\n      swap2\n      pop\n      pop\n      jump\t// out\n        /* \"#utility.yul\":7797:8451   */\n    tag_51:\n        /* \"#utility.yul\":7875:7881   */\n      0x00\n        /* \"#utility.yul\":7883:7889   */\n      0x00\n        /* \"#utility.yul\":7932:7934   */\n      0x40\n        /* \"#utility.yul\":7920:7929   */\n      dup4\n        /* \"#utility.yul\":7911:7918   */\n      dup6\n        /* \"#utility.yul\":7907:7930   */\n      sub\n        /* \"#utility.yul\":7903:7935   */\n      slt\n        /* \"#utility.yul\":7900:8019   */\n      iszero\n      tag_357\n      jumpi\n        /* \"#utility.yul\":7938:8017   */\n      tag_358\n      tag_195\n      jump\t// in\n    tag_358:\n        /* \"#utility.yul\":7900:8019   */\n    tag_357:\n        /* \"#utility.yul\":8058:8059   */\n      0x00\n        /* \"#utility.yul\":8083:8136   */\n      tag_359\n        /* \"#utility.yul\":8128:8135   */\n      dup6\n        /* \"#utility.yul\":8119:8125   */\n      dup3\n        /* \"#utility.yul\":8108:8117   */\n      dup7\n        /* \"#utility.yul\":8104:8126   */\n      add\n        /* \"#utility.yul\":8083:8136   */\n      tag_200\n      jump\t// in\n    tag_359:\n        /* \"#utility.yul\":8073:8136   */\n      swap3\n      pop\n        /* \"#utility.yul\":8029:8146   */\n      pop\n        /* \"#utility.yul\":8213:8215   */\n      0x20\n        /* \"#utility.yul\":8202:8211   */\n      dup4\n        /* \"#utility.yul\":8198:8216   */\n      add\n        /* \"#utility.yul\":8185:8217   */\n      calldataload\n        /* \"#utility.yul\":8244:8262   */\n      0xffffffffffffffff\n        /* \"#utility.yul\":8236:8242   */\n      dup2\n        /* \"#utility.yul\":8233:8263   */\n      gt\n        /* \"#utility.yul\":8230:8347   */\n      iszero\n      tag_360\n      jumpi\n        /* \"#utility.yul\":8266:8345   */\n      tag_361\n      tag_196\n      jump\t// in\n    tag_361:\n        /* \"#utility.yul\":8230:8347   */\n    tag_360:\n        /* \"#utility.yul\":8371:8434   */\n      tag_362\n        /* \"#utility.yul\":8426:8433   */\n      dup6\n        /* \"#utility.yul\":8417:8423   */\n      dup3\n        /* \"#utility.yul\":8406:8415   */\n      dup7\n        /* \"#utility.yul\":8402:8424   */\n      add\n        /* \"#utility.yul\":8371:8434   */\n      tag_222\n      jump\t// in\n    tag_362:\n        /* \"#utility.yul\":8361:8434   */\n      swap2\n      pop\n        /* \"#utility.yul\":8156:8444   */\n      pop\n        /* \"#utility.yul\":7797:8451   */\n      swap3\n      pop\n      swap3\n      swap1\n      pop\n      jump\t// out\n        /* \"#utility.yul\":8457:8786   */\n    tag_58:\n        /* \"#utility.yul\":8516:8522   */\n      0x00\n        /* \"#utility.yul\":8565:8567   */\n      0x20\n        /* \"#utility.yul\":8553:8562   */\n      dup3\n        /* \"#utility.yul\":8544:8551   */\n      dup5\n        /* \"#utility.yul\":8540:8563   */\n      sub\n        /* \"#utility.yul\":8536:8568   */\n      slt\n        /* \"#utility.yul\":8533:8652   */\n      iszero\n      tag_364\n      jumpi\n        /* \"#utility.yul\":8571:8650   */\n      tag_365\n      tag_195\n      jump\t// in\n    tag_365:\n        /* \"#utility.yul\":8533:8652   */\n    tag_364:\n        /* \"#utility.yul\":8691:8692   */\n      0x00\n        /* \"#utility.yul\":8716:8769   */\n      tag_366\n        /* \"#utility.yul\":8761:8768   */\n      dup5\n        /* \"#utility.yul\":8752:8758   */\n      dup3\n        /* \"#utility.yul\":8741:8750   */\n      dup6\n        /* \"#utility.yul\":8737:8759   */\n      add\n        /* \"#utility.yul\":8716:8769   */\n      tag_200\n      jump\t// in\n    tag_366:\n        /* \"#utility.yul\":8706:8769   */\n      swap2\n      pop\n        /* \"#utility.yul\":8662:8779   */\n      pop\n        /* \"#utility.yul\":8457:8786   */\n      swap3\n      swap2\n      pop\n      pop\n      jump\t// out\n        /* \"#utility.yul\":8792:8896   */\n    tag_223:\n        /* \"#utility.yul\":8837:8844   */\n      0x00\n        /* \"#utility.yul\":8866:8890   */\n      tag_368\n        /* \"#utility.yul\":8884:8889   */\n      dup3\n        /* \"#utility.yul\":8866:8890   */\n      tag_197\n      jump\t// in\n    tag_368:\n        /* \"#utility.yul\":8855:8890   */\n      swap1\n      pop\n        /* \"#utility.yul\":8792:8896   */\n      swap2\n      swap1\n      pop\n      jump\t// out\n        /* \"#utility.yul\":8902:9044   */\n    tag_224:\n        /* \"#utility.yul\":9005:9037   */\n      tag_370\n        /* \"#utility.yul\":9031:9036   */\n      dup2\n        /* \"#utility.yul\":9005:9037   */\n      tag_223\n      jump\t// in\n    tag_370:\n        /* \"#utility.yul\":9000:9003   */\n      dup3\n        /* \"#utility.yul\":8993:9038   */\n      mstore\n        /* \"#utility.yul\":8902:9044   */\n      pop\n      pop\n      jump\t// out\n        /* \"#utility.yul\":9050:9304   */\n    tag_64:\n        /* \"#utility.yul\":9159:9163   */\n      0x00\n        /* \"#utility.yul\":9197:9199   */\n      0x20\n        /* \"#utility.yul\":9186:9195   */\n      dup3\n        /* \"#utility.yul\":9182:9200   */\n      add\n        /* \"#utility.yul\":9174:9200   */\n      swap1\n      pop\n        /* \"#utility.yul\":9210:9297   */\n      tag_372\n        /* \"#utility.yul\":9294:9295   */\n      0x00\n        /* \"#utility.yul\":9283:9292   */\n      dup4\n        /* \"#utility.yul\":9279:9296   */\n      add\n        /* \"#utility.yul\":9270:9276   */\n      dup5\n        /* \"#utility.yul\":9210:9297   */\n      tag_224\n      jump\t// in\n    tag_372:\n        /* \"#utility.yul\":9050:9304   */\n      swap3\n      swap2\n      pop\n      pop\n      jump\t// out\n        /* \"#utility.yul\":9310:9784   */\n    tag_83:\n        /* \"#utility.yul\":9378:9384   */\n      0x00\n        /* \"#utility.yul\":9386:9392   */\n      0x00\n        /* \"#utility.yul\":9435:9437   */\n      0x40\n        /* \"#utility.yul\":9423:9432   */\n      dup4\n        /* \"#utility.yul\":9414:9421   */\n      dup6\n        /* \"#utility.yul\":9410:9433   */\n      sub\n        /* \"#utility.yul\":9406:9438   */\n      slt\n        /* \"#utility.yul\":9403:9522   */\n      iszero\n      tag_374\n      jumpi\n        /* \"#utility.yul\":9441:9520   */\n      tag_375\n      tag_195\n      jump\t// in\n    tag_375:\n        /* \"#utility.yul\":9403:9522   */\n    tag_374:\n        /* \"#utility.yul\":9561:9562   */\n      0x00\n        /* \"#utility.yul\":9586:9639   */\n      tag_376\n        /* \"#utility.yul\":9631:9638   */\n      dup6\n        /* \"#utility.yul\":9622:9628   */\n      dup3\n        /* \"#utility.yul\":9611:9620   */\n      dup7\n        /* \"#utility.yul\":9607:9629   */\n      add\n        /* \"#utility.yul\":9586:9639   */\n      tag_200\n      jump\t// in\n    tag_376:\n        /* \"#utility.yul\":9576:9639   */\n      swap3\n      pop\n        /* \"#utility.yul\":9532:9649   */\n      pop\n        /* \"#utility.yul\":9688:9690   */\n      0x20\n        /* \"#utility.yul\":9714:9767   */\n      tag_377\n        /* \"#utility.yul\":9759:9766   */\n      dup6\n        /* \"#utility.yul\":9750:9756   */\n      dup3\n        /* \"#utility.yul\":9739:9748   */\n      dup7\n        /* \"#utility.yul\":9735:9757   */\n      add\n        /* \"#utility.yul\":9714:9767   */\n      tag_200\n      jump\t// in\n    tag_377:\n        /* \"#utility.yul\":9704:9767   */\n      swap2\n      pop\n        /* \"#utility.yul\":9659:9777   */\n      pop\n        /* \"#utility.yul\":9310:9784   */\n      swap3\n      pop\n      swap3\n      swap1\n      pop\n      jump\t// out\n        /* \"#utility.yul\":9790:9970   */\n    tag_225:\n        /* \"#utility.yul\":9838:9915   */\n      0x4e487b7100000000000000000000000000000000000000000000000000000000\n        /* \"#utility.yul\":9835:9836   */\n      0x00\n        /* \"#utility.yul\":9828:9916   */\n      mstore\n        /* \"#utility.yul\":9935:9939   */\n      0x22\n        /* \"#utility.yul\":9932:9933   */\n      0x04\n        /* \"#utility.yul\":9925:9940   */\n      mstore\n        /* \"#utility.yul\":9959:9963   */\n      0x24\n        /* \"#utility.yul\":9956:9957   */\n      0x00\n        /* \"#utility.yul\":9949:9964   */\n      revert\n        /* \"#utility.yul\":9976:10296   */\n    tag_88:\n        /* \"#utility.yul\":10020:10026   */\n      0x00\n        /* \"#utility.yul\":10057:10058   */\n      0x02\n        /* \"#utility.yul\":10051:10055   */\n      dup3\n        /* \"#utility.yul\":10047:10059   */\n      div\n        /* \"#utility.yul\":10037:10059   */\n      swap1\n      pop\n        /* \"#utility.yul\":10104:10105   */\n      0x01\n        /* \"#utility.yul\":10098:10102   */\n      dup3\n        /* \"#utility.yul\":10094:10106   */\n      and\n        /* \"#utility.yul\":10125:10143   */\n      dup1\n        /* \"#utility.yul\":10115:10196   */\n      tag_380\n      jumpi\n        /* \"#utility.yul\":10181:10185   */\n      0x7f\n        /* \"#utility.yul\":10173:10179   */\n      dup3\n        /* \"#utility.yul\":10169:10186   */\n      and\n        /* \"#utility.yul\":10159:10186   */\n      swap2\n      pop\n        /* \"#utility.yul\":10115:10196   */\n    tag_380:\n        /* \"#utility.yul\":10243:10245   */\n      0x20\n        /* \"#utility.yul\":10235:10241   */\n      dup3\n        /* \"#utility.yul\":10232:10246   */\n      lt\n        /* \"#utility.yul\":10212:10230   */\n      dup2\n        /* \"#utility.yul\":10209:10247   */\n      sub\n        /* \"#utility.yul\":10206:10290   */\n      tag_381\n      jumpi\n        /* \"#utility.yul\":10262:10280   */\n      tag_382\n      tag_225\n      jump\t// in\n    tag_382:\n        /* \"#utility.yul\":10206:10290   */\n    tag_381:\n        /* \"#utility.yul\":10027:10296   */\n      pop\n        /* \"#utility.yul\":9976:10296   */\n      swap2\n      swap1\n      pop\n      jump\t// out\n        /* \"#utility.yul\":10302:10523   */\n    tag_226:\n        /* \"#utility.yul\":10442:10476   */\n      0x45524332303a20617070726f766520746f20746865207a65726f206164647265\n        /* \"#utility.yul\":10438:10439   */\n      0x00\n        /* \"#utility.yul\":10430:10436   */\n      dup3\n        /* \"#utility.yul\":10426:10440   */\n      add\n        /* \"#utility.yul\":10419:10477   */\n      mstore\n        /* \"#utility.yul\":10511:10515   */\n      0x7373000000000000000000000000000000000000000000000000000000000000\n        /* \"#utility.yul\":10506:10508   */\n      0x20\n        /* \"#utility.yul\":10498:10504   */\n      dup3\n        /* \"#utility.yul\":10494:10509   */\n      add\n        /* \"#utility.yul\":10487:10516   */\n      mstore\n        /* \"#utility.yul\":10302:10523   */\n      pop\n      jump\t// out\n        /* \"#utility.yul\":10529:10895   */\n    tag_227:\n        /* \"#utility.yul\":10671:10674   */\n      0x00\n        /* \"#utility.yul\":10692:10759   */\n      tag_385\n        /* \"#utility.yul\":10756:10758   */\n      0x22\n        /* \"#utility.yul\":10751:10754   */\n      dup4\n        /* \"#utility.yul\":10692:10759   */\n      tag_190\n      jump\t// in\n    tag_385:\n        /* \"#utility.yul\":10685:10759   */\n      swap2\n      pop\n        /* \"#utility.yul\":10768:10861   */\n      tag_386\n        /* \"#utility.yul\":10857:10860   */\n      dup3\n        /* \"#utility.yul\":10768:10861   */\n      tag_226\n      jump\t// in\n    tag_386:\n        /* \"#utility.yul\":10886:10888   */\n      0x40\n        /* \"#utility.yul\":10881:10884   */\n      dup3\n        /* \"#utility.yul\":10877:10889   */\n      add\n        /* \"#utility.yul\":10870:10889   */\n      swap1\n      pop\n        /* \"#utility.yul\":10529:10895   */\n      swap2\n      swap1\n      pop\n      jump\t// out\n        /* \"#utility.yul\":10901:11320   */\n    tag_96:\n        /* \"#utility.yul\":11067:11071   */\n      0x00\n        /* \"#utility.yul\":11105:11107   */\n      0x20\n        /* \"#utility.yul\":11094:11103   */\n      dup3\n        /* \"#utility.yul\":11090:11108   */\n      add\n        /* \"#utility.yul\":11082:11108   */\n      swap1\n      pop\n        /* \"#utility.yul\":11154:11163   */\n      dup2\n        /* \"#utility.yul\":11148:11152   */\n      dup2\n        /* \"#utility.yul\":11144:11164   */\n      sub\n        /* \"#utility.yul\":11140:11141   */\n      0x00\n        /* \"#utility.yul\":11129:11138   */\n      dup4\n        /* \"#utility.yul\":11125:11142   */\n      add\n        /* \"#utility.yul\":11118:11165   */\n      mstore\n        /* \"#utility.yul\":11182:11313   */\n      tag_388\n        /* \"#utility.yul\":11308:11312   */\n      dup2\n        /* \"#utility.yul\":11182:11313   */\n      tag_227\n      jump\t// in\n    tag_388:\n        /* \"#utility.yul\":11174:11313   */\n      swap1\n      pop\n        /* \"#utility.yul\":10901:11320   */\n      swap2\n      swap1\n      pop\n      jump\t// out\n        /* \"#utility.yul\":11326:11505   */\n    tag_228:\n        /* \"#utility.yul\":11466:11497   */\n      0x45524332303a20696e73756666696369656e7420616c6c6f77616e6365000000\n        /* \"#utility.yul\":11462:11463   */\n      0x00\n        /* \"#utility.yul\":11454:11460   */\n      dup3\n        /* \"#utility.yul\":11450:11464   */\n      add\n        /* \"#utility.yul\":11443:11498   */\n      mstore\n        /* \"#utility.yul\":11326:11505   */\n      pop\n      jump\t// out\n        /* \"#utility.yul\":11511:11877   */\n    tag_229:\n        /* \"#utility.yul\":11653:11656   */\n      0x00\n        /* \"#utility.yul\":11674:11741   */\n      tag_391\n        /* \"#utility.yul\":11738:11740   */\n      0x1d\n        /* \"#utility.yul\":11733:11736   */\n      dup4\n        /* \"#utility.yul\":11674:11741   */\n      tag_190\n      jump\t// in\n    tag_391:\n        /* \"#utility.yul\":11667:11741   */\n      swap2\n      pop\n        /* \"#utility.yul\":11750:11843   */\n      tag_392\n        /* \"#utility.yul\":11839:11842   */\n      dup3\n        /* \"#utility.yul\":11750:11843   */\n      tag_228\n      jump\t// in\n    tag_392:\n        /* \"#utility.yul\":11868:11870   */\n      0x20\n        /* \"#utility.yul\":11863:11866   */\n      dup3\n        /* \"#utility.yul\":11859:11871   */\n      add\n        /* \"#utility.yul\":11852:11871   */\n      swap1\n      pop\n        /* \"#utility.yul\":11511:11877   */\n      swap2\n      swap1\n      pop\n      jump\t// out\n        /* \"#utility.yul\":11883:12302   */\n    tag_103:\n        /* \"#utility.yul\":12049:12053   */\n      0x00\n        /* \"#utility.yul\":12087:12089   */\n      0x20\n        /* \"#utility.yul\":12076:12085   */\n      dup3\n        /* \"#utility.yul\":12072:12090   */\n      add\n        /* \"#utility.yul\":12064:12090   */\n      swap1\n      pop\n        /* \"#utility.yul\":12136:12145   */\n      dup2\n        /* \"#utility.yul\":12130:12134   */\n      dup2\n        /* \"#utility.yul\":12126:12146   */\n      sub\n        /* \"#utility.yul\":12122:12123   */\n      0x00\n        /* \"#utility.yul\":12111:12120   */\n      dup4\n        /* \"#utility.yul\":12107:12124   */\n      add\n        /* \"#utility.yul\":12100:12147   */\n      mstore\n        /* \"#utility.yul\":12164:12295   */\n      tag_394\n        /* \"#utility.yul\":12290:12294   */\n      dup2\n        /* \"#utility.yul\":12164:12295   */\n      tag_229\n      jump\t// in\n    tag_394:\n        /* \"#utility.yul\":12156:12295   */\n      swap1\n      pop\n        /* \"#utility.yul\":11883:12302   */\n      swap2\n      swap1\n      pop\n      jump\t// out\n        /* \"#utility.yul\":12308:12488   */\n    tag_230:\n        /* \"#utility.yul\":12356:12433   */\n      0x4e487b7100000000000000000000000000000000000000000000000000000000\n        /* \"#utility.yul\":12353:12354   */\n      0x00\n        /* \"#utility.yul\":12346:12434   */\n      mstore\n        /* \"#utility.yul\":12453:12457   */\n      0x11\n        /* \"#utility.yul\":12450:12451   */\n      0x04\n        /* \"#utility.yul\":12443:12458   */\n      mstore\n        /* \"#utility.yul\":12477:12481   */\n      0x24\n        /* \"#utility.yul\":12474:12475   */\n      0x00\n        /* \"#utility.yul\":12467:12482   */\n      revert\n        /* \"#utility.yul\":12494:12688   */\n    tag_105:\n        /* \"#utility.yul\":12534:12538   */\n      0x00\n        /* \"#utility.yul\":12554:12574   */\n      tag_397\n        /* \"#utility.yul\":12572:12573   */\n      dup3\n        /* \"#utility.yul\":12554:12574   */\n      tag_201\n      jump\t// in\n    tag_397:\n        /* \"#utility.yul\":12549:12574   */\n      swap2\n      pop\n        /* \"#utility.yul\":12588:12608   */\n      tag_398\n        /* \"#utility.yul\":12606:12607   */\n      dup4\n        /* \"#utility.yul\":12588:12608   */\n      tag_201\n      jump\t// in\n    tag_398:\n        /* \"#utility.yul\":12583:12608   */\n      swap3\n      pop\n        /* \"#utility.yul\":12632:12633   */\n      dup3\n        /* \"#utility.yul\":12629:12630   */\n      dup3\n        /* \"#utility.yul\":12625:12634   */\n      sub\n        /* \"#utility.yul\":12617:12634   */\n      swap1\n      pop\n        /* \"#utility.yul\":12656:12657   */\n      dup2\n        /* \"#utility.yul\":12650:12654   */\n      dup2\n        /* \"#utility.yul\":12647:12658   */\n      gt\n        /* \"#utility.yul\":12644:12681   */\n      iszero\n      tag_399\n      jumpi\n        /* \"#utility.yul\":12661:12679   */\n      tag_400\n      tag_230\n      jump\t// in\n    tag_400:\n        /* \"#utility.yul\":12644:12681   */\n    tag_399:\n        /* \"#utility.yul\":12494:12688   */\n      swap3\n      swap2\n      pop\n      pop\n      jump\t// out\n        /* \"#utility.yul\":12694:12865   */\n    tag_231:\n        /* \"#utility.yul\":12834:12857   */\n      0x596f7520617265206e6f7420746865206f776e65720000000000000000000000\n        /* \"#utility.yul\":12830:12831   */\n      0x00\n        /* \"#utility.yul\":12822:12828   */\n      dup3\n        /* \"#utility.yul\":12818:12832   */\n      add\n        /* \"#utility.yul\":12811:12858   */\n      mstore\n        /* \"#utility.yul\":12694:12865   */\n      pop\n      jump\t// out\n        /* \"#utility.yul\":12871:13237   */\n    tag_232:\n        /* \"#utility.yul\":13013:13016   */\n      0x00\n        /* \"#utility.yul\":13034:13101   */\n      tag_403\n        /* \"#utility.yul\":13098:13100   */\n      0x15\n        /* \"#utility.yul\":13093:13096   */\n      dup4\n        /* \"#utility.yul\":13034:13101   */\n      tag_190\n      jump\t// in\n    tag_403:\n        /* \"#utility.yul\":13027:13101   */\n      swap2\n      pop\n        /* \"#utility.yul\":13110:13203   */\n      tag_404\n        /* \"#utility.yul\":13199:13202   */\n      dup3\n        /* \"#utility.yul\":13110:13203   */\n      tag_231\n      jump\t// in\n    tag_404:\n        /* \"#utility.yul\":13228:13230   */\n      0x20\n        /* \"#utility.yul\":13223:13226   */\n      dup3\n        /* \"#utility.yul\":13219:13231   */\n      add\n        /* \"#utility.yul\":13212:13231   */\n      swap1\n      pop\n        /* \"#utility.yul\":12871:13237   */\n      swap2\n      swap1\n      pop\n      jump\t// out\n        /* \"#utility.yul\":13243:13662   */\n    tag_113:\n        /* \"#utility.yul\":13409:13413   */\n      0x00\n        /* \"#utility.yul\":13447:13449   */\n      0x20\n        /* \"#utility.yul\":13436:13445   */\n      dup3\n        /* \"#utility.yul\":13432:13450   */\n      add\n        /* \"#utility.yul\":13424:13450   */\n      swap1\n      pop\n        /* \"#utility.yul\":13496:13505   */\n      dup2\n        /* \"#utility.yul\":13490:13494   */\n      dup2\n        /* \"#utility.yul\":13486:13506   */\n      sub\n        /* \"#utility.yul\":13482:13483   */\n      0x00\n        /* \"#utility.yul\":13471:13480   */\n      dup4\n        /* \"#utility.yul\":13467:13484   */\n      add\n        /* \"#utility.yul\":13460:13507   */\n      mstore\n        /* \"#utility.yul\":13524:13655   */\n      tag_406\n        /* \"#utility.yul\":13650:13654   */\n      dup2\n        /* \"#utility.yul\":13524:13655   */\n      tag_232\n      jump\t// in\n    tag_406:\n        /* \"#utility.yul\":13516:13655   */\n      swap1\n      pop\n        /* \"#utility.yul\":13243:13662   */\n      swap2\n      swap1\n      pop\n      jump\t// out\n        /* \"#utility.yul\":13668:13849   */\n    tag_233:\n        /* \"#utility.yul\":13808:13841   */\n      0x50617373656e67657220697320616c7265616479207265676973746572656400\n        /* \"#utility.yul\":13804:13805   */\n      0x00\n        /* \"#utility.yul\":13796:13802   */\n      dup3\n        /* \"#utility.yul\":13792:13806   */\n      add\n        /* \"#utility.yul\":13785:13842   */\n      mstore\n        /* \"#utility.yul\":13668:13849   */\n      pop\n      jump\t// out\n        /* \"#utility.yul\":13855:14221   */\n    tag_234:\n        /* \"#utility.yul\":13997:14000   */\n      0x00\n        /* \"#utility.yul\":14018:14085   */\n      tag_409\n        /* \"#utility.yul\":14082:14084   */\n      0x1f\n        /* \"#utility.yul\":14077:14080   */\n      dup4\n        /* \"#utility.yul\":14018:14085   */\n      tag_190\n      jump\t// in\n    tag_409:\n        /* \"#utility.yul\":14011:14085   */\n      swap2\n      pop\n        /* \"#utility.yul\":14094:14187   */\n      tag_410\n        /* \"#utility.yul\":14183:14186   */\n      dup3\n        /* \"#utility.yul\":14094:14187   */\n      tag_233\n      jump\t// in\n    tag_410:\n        /* \"#utility.yul\":14212:14214   */\n      0x20\n        /* \"#utility.yul\":14207:14210   */\n      dup3\n        /* \"#utility.yul\":14203:14215   */\n      add\n        /* \"#utility.yul\":14196:14215   */\n      swap1\n      pop\n        /* \"#utility.yul\":13855:14221   */\n      swap2\n      swap1\n      pop\n      jump\t// out\n        /* \"#utility.yul\":14227:14646   */\n    tag_117:\n        /* \"#utility.yul\":14393:14397   */\n      0x00\n        /* \"#utility.yul\":14431:14433   */\n      0x20\n        /* \"#utility.yul\":14420:14429   */\n      dup3\n        /* \"#utility.yul\":14416:14434   */\n      add\n        /* \"#utility.yul\":14408:14434   */\n      swap1\n      pop\n        /* \"#utility.yul\":14480:14489   */\n      dup2\n        /* \"#utility.yul\":14474:14478   */\n      dup2\n        /* \"#utility.yul\":14470:14490   */\n      sub\n        /* \"#utility.yul\":14466:14467   */\n      0x00\n        /* \"#utility.yul\":14455:14464   */\n      dup4\n        /* \"#utility.yul\":14451:14468   */\n      add\n        /* \"#utility.yul\":14444:14491   */\n      mstore\n        /* \"#utility.yul\":14508:14639   */\n      tag_412\n        /* \"#utility.yul\":14634:14638   */\n      dup2\n        /* \"#utility.yul\":14508:14639   */\n      tag_234\n      jump\t// in\n    tag_412:\n        /* \"#utility.yul\":14500:14639   */\n      swap1\n      pop\n        /* \"#utility.yul\":14227:14646   */\n      swap2\n      swap1\n      pop\n      jump\t// out\n        /* \"#utility.yul\":14652:14793   */\n    tag_235:\n        /* \"#utility.yul\":14701:14705   */\n      0x00\n        /* \"#utility.yul\":14724:14727   */\n      dup2\n        /* \"#utility.yul\":14716:14727   */\n      swap1\n      pop\n        /* \"#utility.yul\":14747:14750   */\n      dup2\n        /* \"#utility.yul\":14744:14745   */\n      0x00\n        /* \"#utility.yul\":14737:14751   */\n      mstore\n        /* \"#utility.yul\":14781:14785   */\n      0x20\n        /* \"#utility.yul\":14778:14779   */\n      0x00\n        /* \"#utility.yul\":14768:14786   */\n      keccak256\n        /* \"#utility.yul\":14760:14786   */\n      swap1\n      pop\n        /* \"#utility.yul\":14652:14793   */\n      swap2\n      swap1\n      pop\n      jump\t// out\n        /* \"#utility.yul\":14799:14892   */\n    tag_236:\n        /* \"#utility.yul\":14836:14842   */\n      0x00\n        /* \"#utility.yul\":14883:14885   */\n      0x20\n        /* \"#utility.yul\":14878:14880   */\n      0x1f\n        /* \"#utility.yul\":14871:14876   */\n      dup4\n        /* \"#utility.yul\":14867:14881   */\n      add\n        /* \"#utility.yul\":14863:14886   */\n      div\n        /* \"#utility.yul\":14853:14886   */\n      swap1\n      pop\n        /* \"#utility.yul\":14799:14892   */\n      swap2\n      swap1\n      pop\n      jump\t// out\n        /* \"#utility.yul\":14898:15005   */\n    tag_237:\n        /* \"#utility.yul\":14942:14950   */\n      0x00\n        /* \"#utility.yul\":14992:14997   */\n      dup3\n        /* \"#utility.yul\":14986:14990   */\n      dup3\n        /* \"#utility.yul\":14982:14998   */\n      shl\n        /* \"#utility.yul\":14961:14998   */\n      swap1\n      pop\n        /* \"#utility.yul\":14898:15005   */\n      swap3\n      swap2\n      pop\n      pop\n      jump\t// out\n        /* \"#utility.yul\":15011:15404   */\n    tag_238:\n        /* \"#utility.yul\":15080:15086   */\n      0x00\n        /* \"#utility.yul\":15130:15131   */\n      0x08\n        /* \"#utility.yul\":15118:15128   */\n      dup4\n        /* \"#utility.yul\":15114:15132   */\n      mul\n        /* \"#utility.yul\":15153:15250   */\n      tag_417\n        /* \"#utility.yul\":15183:15249   */\n      0xffffffffffffffffffffffffffffffffffffffffffffffffffffffffffffffff\n        /* \"#utility.yul\":15172:15181   */\n      dup3\n        /* \"#utility.yul\":15153:15250   */\n      tag_237\n      jump\t// in\n    tag_417:\n        /* \"#utility.yul\":15271:15310   */\n      tag_418\n        /* \"#utility.yul\":15301:15309   */\n      dup7\n        /* \"#utility.yul\":15290:15299   */\n      dup4\n        /* \"#utility.yul\":15271:15310   */\n      tag_237\n      jump\t// in\n    tag_418:\n        /* \"#utility.yul\":15259:15310   */\n      swap6\n      pop\n        /* \"#utility.yul\":15343:15347   */\n      dup1\n        /* \"#utility.yul\":15339:15348   */\n      not\n        /* \"#utility.yul\":15332:15337   */\n      dup5\n        /* \"#utility.yul\":15328:15349   */\n      and\n        /* \"#utility.yul\":15319:15349   */\n      swap4\n      pop\n        /* \"#utility.yul\":15392:15396   */\n      dup1\n        /* \"#utility.yul\":15382:15390   */\n      dup7\n        /* \"#utility.yul\":15378:15397   */\n      and\n        /* \"#utility.yul\":15371:15376   */\n      dup5\n        /* \"#utility.yul\":15368:15398   */\n      or\n        /* \"#utility.yul\":15358:15398   */\n      swap3\n      pop\n        /* \"#utility.yul\":15087:15404   */\n      pop\n      pop\n        /* \"#utility.yul\":15011:15404   */\n      swap4\n      swap3\n      pop\n      pop\n      pop\n      jump\t// out\n        /* \"#utility.yul\":15410:15552   */\n    tag_239:\n        /* \"#utility.yul\":15460:15469   */\n      0x00\n        /* \"#utility.yul\":15493:15546   */\n      tag_420\n        /* \"#utility.yul\":15511:15545   */\n      tag_421\n        /* \"#utility.yul\":15520:15544   */\n      tag_422\n        /* \"#utility.yul\":15538:15543   */\n      dup5\n        /* \"#utility.yul\":15520:15544   */\n      tag_201\n      jump\t// in\n    tag_422:\n        /* \"#utility.yul\":15511:15545   */\n      tag_207\n      jump\t// in\n    tag_421:\n        /* \"#utility.yul\":15493:15546   */\n      tag_201\n      jump\t// in\n    tag_420:\n        /* \"#utility.yul\":15480:15546   */\n      swap1\n      pop\n        /* \"#utility.yul\":15410:15552   */\n      swap2\n      swap1\n      pop\n      jump\t// out\n        /* \"#utility.yul\":15558:15633   */\n    tag_240:\n        /* \"#utility.yul\":15601:15604   */\n      0x00\n        /* \"#utility.yul\":15622:15627   */\n      dup2\n        /* \"#utility.yul\":15615:15627   */\n      swap1\n      pop\n        /* \"#utility.yul\":15558:15633   */\n      swap2\n      swap1\n      pop\n      jump\t// out\n        /* \"#utility.yul\":15639:15908   */\n    tag_241:\n        /* \"#utility.yul\":15749:15788   */\n      tag_425\n        /* \"#utility.yul\":15780:15787   */\n      dup4\n        /* \"#utility.yul\":15749:15788   */\n      tag_239\n      jump\t// in\n    tag_425:\n        /* \"#utility.yul\":15810:15901   */\n      tag_426\n        /* \"#utility.yul\":15859:15900   */\n      tag_427\n        /* \"#utility.yul\":15883:15899   */\n      dup3\n        /* \"#utility.yul\":15859:15900   */\n      tag_240\n      jump\t// in\n    tag_427:\n        /* \"#utility.yul\":15851:15857   */\n      dup5\n        /* \"#utility.yul\":15844:15848   */\n      dup5\n        /* \"#utility.yul\":15838:15849   */\n      sload\n        /* \"#utility.yul\":15810:15901   */\n      tag_238\n      jump\t// in\n    tag_426:\n        /* \"#utility.yul\":15804:15808   */\n      dup3\n        /* \"#utility.yul\":15797:15902   */\n      sstore\n        /* \"#utility.yul\":15715:15908   */\n      pop\n        /* \"#utility.yul\":15639:15908   */\n      pop\n      pop\n      pop\n      jump\t// out\n        /* \"#utility.yul\":15914:15987   */\n    tag_242:\n        /* \"#utility.yul\":15959:15962   */\n      0x00\n        /* \"#utility.yul\":15980:15981   */\n      0x00\n        /* \"#utility.yul\":15973:15981   */\n      swap1\n      pop\n        /* \"#utility.yul\":15914:15987   */\n      swap1\n      jump\t// out\n        /* \"#utility.yul\":15993:16182   */\n    tag_243:\n        /* \"#utility.yul\":16070:16102   */\n      tag_430\n      tag_242\n      jump\t// in\n    tag_430:\n        /* \"#utility.yul\":16111:16176   */\n      tag_431\n        /* \"#utility.yul\":16169:16175   */\n      dup2\n        /* \"#utility.yul\":16161:16167   */\n      dup5\n        /* \"#utility.yul\":16155:16159   */\n      dup5\n        /* \"#utility.yul\":16111:16176   */\n      tag_241\n      jump\t// in\n    tag_431:\n        /* \"#utility.yul\":16046:16182   */\n      pop\n        /* \"#utility.yul\":15993:16182   */\n      pop\n      pop\n      jump\t// out\n        /* \"#utility.yul\":16188:16374   */\n    tag_244:\n        /* \"#utility.yul\":16248:16368   */\n    tag_433:\n        /* \"#utility.yul\":16265:16268   */\n      dup2\n        /* \"#utility.yul\":16258:16263   */\n      dup2\n        /* \"#utility.yul\":16255:16269   */\n      lt\n        /* \"#utility.yul\":16248:16368   */\n      iszero\n      tag_435\n      jumpi\n        /* \"#utility.yul\":16319:16358   */\n      tag_436\n        /* \"#utility.yul\":16356:16357   */\n      0x00\n        /* \"#utility.yul\":16349:16354   */\n      dup3\n        /* \"#utility.yul\":16319:16358   */\n      tag_243\n      jump\t// in\n    tag_436:\n        /* \"#utility.yul\":16292:16293   */\n      0x01\n        /* \"#utility.yul\":16285:16290   */\n      dup2\n        /* \"#utility.yul\":16281:16294   */\n      add\n        /* \"#utility.yul\":16272:16294   */\n      swap1\n      pop\n        /* \"#utility.yul\":16248:16368   */\n      jump(tag_433)\n    tag_435:\n        /* \"#utility.yul\":16188:16374   */\n      pop\n      pop\n      jump\t// out\n        /* \"#utility.yul\":16380:16923   */\n    tag_245:\n        /* \"#utility.yul\":16481:16483   */\n      0x1f\n        /* \"#utility.yul\":16476:16479   */\n      dup3\n        /* \"#utility.yul\":16473:16484   */\n      gt\n        /* \"#utility.yul\":16470:16916   */\n      iszero\n      tag_438\n      jumpi\n        /* \"#utility.yul\":16515:16553   */\n      tag_439\n        /* \"#utility.yul\":16547:16552   */\n      dup2\n        /* \"#utility.yul\":16515:16553   */\n      tag_235\n      jump\t// in\n    tag_439:\n        /* \"#utility.yul\":16599:16628   */\n      tag_440\n        /* \"#utility.yul\":16617:16627   */\n      dup5\n        /* \"#utility.yul\":16599:16628   */\n      tag_236\n      jump\t// in\n    tag_440:\n        /* \"#utility.yul\":16589:16597   */\n      dup2\n        /* \"#utility.yul\":16585:16629   */\n      add\n        /* \"#utility.yul\":16782:16784   */\n      0x20\n        /* \"#utility.yul\":16770:16780   */\n      dup6\n        /* \"#utility.yul\":16767:16785   */\n      lt\n        /* \"#utility.yul\":16764:16813   */\n      iszero\n      tag_441\n      jumpi\n        /* \"#utility.yul\":16803:16811   */\n      dup2\n        /* \"#utility.yul\":16788:16811   */\n      swap1\n      pop\n        /* \"#utility.yul\":16764:16813   */\n    tag_441:\n        /* \"#utility.yul\":16826:16906   */\n      tag_442\n        /* \"#utility.yul\":16882:16904   */\n      tag_443\n        /* \"#utility.yul\":16900:16903   */\n      dup6\n        /* \"#utility.yul\":16882:16904   */\n      tag_236\n      jump\t// in\n    tag_443:\n        /* \"#utility.yul\":16872:16880   */\n      dup4\n        /* \"#utility.yul\":16868:16905   */\n      add\n        /* \"#utility.yul\":16855:16866   */\n      dup3\n        /* \"#utility.yul\":16826:16906   */\n      tag_244\n      jump\t// in\n    tag_442:\n        /* \"#utility.yul\":16485:16916   */\n      pop\n      pop\n        /* \"#utility.yul\":16470:16916   */\n    tag_438:\n        /* \"#utility.yul\":16380:16923   */\n      pop\n      pop\n      pop\n      jump\t// out\n        /* \"#utility.yul\":16929:17046   */\n    tag_246:\n        /* \"#utility.yul\":16983:16991   */\n      0x00\n        /* \"#utility.yul\":17033:17038   */\n      dup3\n        /* \"#utility.yul\":17027:17031   */\n      dup3\n        /* \"#utility.yul\":17023:17039   */\n      shr\n        /* \"#utility.yul\":17002:17039   */\n      swap1\n      pop\n        /* \"#utility.yul\":16929:17046   */\n      swap3\n      swap2\n      pop\n      pop\n      jump\t// out\n        /* \"#utility.yul\":17052:17221   */\n    tag_247:\n        /* \"#utility.yul\":17096:17102   */\n      0x00\n        /* \"#utility.yul\":17129:17180   */\n      tag_446\n        /* \"#utility.yul\":17177:17178   */\n      0x00\n        /* \"#utility.yul\":17173:17179   */\n      not\n        /* \"#utility.yul\":17165:17170   */\n      dup5\n        /* \"#utility.yul\":17162:17163   */\n      0x08\n        /* \"#utility.yul\":17158:17171   */\n      mul\n        /* \"#utility.yul\":17129:17180   */\n      tag_246\n      jump\t// in\n    tag_446:\n        /* \"#utility.yul\":17125:17181   */\n      not\n        /* \"#utility.yul\":17210:17214   */\n      dup1\n        /* \"#utility.yul\":17204:17208   */\n      dup4\n        /* \"#utility.yul\":17200:17215   */\n      and\n        /* \"#utility.yul\":17190:17215   */\n      swap2\n      pop\n        /* \"#utility.yul\":17103:17221   */\n      pop\n        /* \"#utility.yul\":17052:17221   */\n      swap3\n      swap2\n      pop\n      pop\n      jump\t// out\n        /* \"#utility.yul\":17226:17521   */\n    tag_248:\n        /* \"#utility.yul\":17302:17306   */\n      0x00\n        /* \"#utility.yul\":17448:17477   */\n      tag_448\n        /* \"#utility.yul\":17473:17476   */\n      dup4\n        /* \"#utility.yul\":17467:17471   */\n      dup4\n        /* \"#utility.yul\":17448:17477   */\n      tag_247\n      jump\t// in\n    tag_448:\n        /* \"#utility.yul\":17440:17477   */\n      swap2\n      pop\n        /* \"#utility.yul\":17510:17513   */\n      dup3\n        /* \"#utility.yul\":17507:17508   */\n      0x02\n        /* \"#utility.yul\":17503:17514   */\n      mul\n        /* \"#utility.yul\":17497:17501   */\n      dup3\n        /* \"#utility.yul\":17494:17515   */\n      or\n        /* \"#utility.yul\":17486:17515   */\n      swap1\n      pop\n        /* \"#utility.yul\":17226:17521   */\n      swap3\n      swap2\n      pop\n      pop\n      jump\t// out\n        /* \"#utility.yul\":17526:18921   */\n    tag_119:\n        /* \"#utility.yul\":17643:17680   */\n      tag_450\n        /* \"#utility.yul\":17676:17679   */\n      dup3\n        /* \"#utility.yul\":17643:17680   */\n      tag_189\n      jump\t// in\n    tag_450:\n        /* \"#utility.yul\":17745:17763   */\n      0xffffffffffffffff\n        /* \"#utility.yul\":17737:17743   */\n      dup2\n        /* \"#utility.yul\":17734:17764   */\n      gt\n        /* \"#utility.yul\":17731:17787   */\n      iszero\n      tag_451\n      jumpi\n        /* \"#utility.yul\":17767:17785   */\n      tag_452\n      tag_216\n      jump\t// in\n    tag_452:\n        /* \"#utility.yul\":17731:17787   */\n    tag_451:\n        /* \"#utility.yul\":17811:17849   */\n      tag_453\n        /* \"#utility.yul\":17843:17847   */\n      dup3\n        /* \"#utility.yul\":17837:17848   */\n      sload\n        /* \"#utility.yul\":17811:17849   */\n      tag_88\n      jump\t// in\n    tag_453:\n        /* \"#utility.yul\":17896:17963   */\n      tag_454\n        /* \"#utility.yul\":17956:17962   */\n      dup3\n        /* \"#utility.yul\":17948:17954   */\n      dup3\n        /* \"#utility.yul\":17942:17946   */\n      dup6\n        /* \"#utility.yul\":17896:17963   */\n      tag_245\n      jump\t// in\n    tag_454:\n        /* \"#utility.yul\":17990:17991   */\n      0x00\n        /* \"#utility.yul\":18014:18018   */\n      0x20\n        /* \"#utility.yul\":18001:18018   */\n      swap1\n      pop\n        /* \"#utility.yul\":18046:18048   */\n      0x1f\n        /* \"#utility.yul\":18038:18044   */\n      dup4\n        /* \"#utility.yul\":18035:18049   */\n      gt\n        /* \"#utility.yul\":18063:18064   */\n      0x01\n        /* \"#utility.yul\":18058:18676   */\n      dup2\n      eq\n      tag_456\n      jumpi\n        /* \"#utility.yul\":18720:18721   */\n      0x00\n        /* \"#utility.yul\":18737:18743   */\n      dup5\n        /* \"#utility.yul\":18734:18811   */\n      iszero\n      tag_457\n      jumpi\n        /* \"#utility.yul\":18786:18795   */\n      dup3\n        /* \"#utility.yul\":18781:18784   */\n      dup8\n        /* \"#utility.yul\":18777:18796   */\n      add\n        /* \"#utility.yul\":18771:18797   */\n      mload\n        /* \"#utility.yul\":18762:18797   */\n      swap1\n      pop\n        /* \"#utility.yul\":18734:18811   */\n    tag_457:\n        /* \"#utility.yul\":18837:18904   */\n      tag_458\n        /* \"#utility.yul\":18897:18903   */\n      dup6\n        /* \"#utility.yul\":18890:18895   */\n      dup3\n        /* \"#utility.yul\":18837:18904   */\n      tag_248\n      jump\t// in\n    tag_458:\n        /* \"#utility.yul\":18831:18835   */\n      dup7\n        /* \"#utility.yul\":18824:18905   */\n      sstore\n        /* \"#utility.yul\":18693:18915   */\n      pop\n        /* \"#utility.yul\":18028:18915   */\n      jump(tag_455)\n        /* \"#utility.yul\":18058:18676   */\n    tag_456:\n        /* \"#utility.yul\":18110:18114   */\n      0x1f\n        /* \"#utility.yul\":18106:18115   */\n      not\n        /* \"#utility.yul\":18098:18104   */\n      dup5\n        /* \"#utility.yul\":18094:18116   */\n      and\n        /* \"#utility.yul\":18144:18181   */\n      tag_459\n        /* \"#utility.yul\":18176:18180   */\n      dup7\n        /* \"#utility.yul\":18144:18181   */\n      tag_235\n      jump\t// in\n    tag_459:\n        /* \"#utility.yul\":18203:18204   */\n      0x00\n        /* \"#utility.yul\":18217:18425   */\n    tag_460:\n        /* \"#utility.yul\":18231:18238   */\n      dup3\n        /* \"#utility.yul\":18228:18229   */\n      dup2\n        /* \"#utility.yul\":18225:18239   */\n      lt\n        /* \"#utility.yul\":18217:18425   */\n      iszero\n      tag_462\n      jumpi\n        /* \"#utility.yul\":18310:18319   */\n      dup5\n        /* \"#utility.yul\":18305:18308   */\n      dup10\n        /* \"#utility.yul\":18301:18320   */\n      add\n        /* \"#utility.yul\":18295:18321   */\n      mload\n        /* \"#utility.yul\":18287:18293   */\n      dup3\n        /* \"#utility.yul\":18280:18322   */\n      sstore\n        /* \"#utility.yul\":18361:18362   */\n      0x01\n        /* \"#utility.yul\":18353:18359   */\n      dup3\n        /* \"#utility.yul\":18349:18363   */\n      add\n        /* \"#utility.yul\":18339:18363   */\n      swap2\n      pop\n        /* \"#utility.yul\":18408:18410   */\n      0x20\n        /* \"#utility.yul\":18397:18406   */\n      dup6\n        /* \"#utility.yul\":18393:18411   */\n      add\n        /* \"#utility.yul\":18380:18411   */\n      swap5\n      pop\n        /* \"#utility.yul\":18254:18258   */\n      0x20\n        /* \"#utility.yul\":18251:18252   */\n      dup2\n        /* \"#utility.yul\":18247:18259   */\n      add\n        /* \"#utility.yul\":18242:18259   */\n      swap1\n      pop\n        /* \"#utility.yul\":18217:18425   */\n      jump(tag_460)\n    tag_462:\n        /* \"#utility.yul\":18453:18459   */\n      dup7\n        /* \"#utility.yul\":18444:18451   */\n      dup4\n        /* \"#utility.yul\":18441:18460   */\n      lt\n        /* \"#utility.yul\":18438:18617   */\n      iszero\n      tag_463\n      jumpi\n        /* \"#utility.yul\":18511:18520   */\n      dup5\n        /* \"#utility.yul\":18506:18509   */\n      dup10\n        /* \"#utility.yul\":18502:18521   */\n      add\n        /* \"#utility.yul\":18496:18522   */\n      mload\n        /* \"#utility.yul\":18554:18602   */\n      tag_464\n        /* \"#utility.yul\":18596:18600   */\n      0x1f\n        /* \"#utility.yul\":18588:18594   */\n      dup10\n        /* \"#utility.yul\":18584:18601   */\n      and\n        /* \"#utility.yul\":18573:18582   */\n      dup3\n        /* \"#utility.yul\":18554:18602   */\n      tag_247\n      jump\t// in\n    tag_464:\n        /* \"#utility.yul\":18546:18552   */\n      dup4\n        /* \"#utility.yul\":18539:18603   */\n      sstore\n        /* \"#utility.yul\":18461:18617   */\n      pop\n        /* \"#utility.yul\":18438:18617   */\n    tag_463:\n        /* \"#utility.yul\":18663:18664   */\n      0x01\n        /* \"#utility.yul\":18659:18660   */\n      0x02\n        /* \"#utility.yul\":18651:18657   */\n      dup9\n        /* \"#utility.yul\":18647:18661   */\n      mul\n        /* \"#utility.yul\":18643:18665   */\n      add\n        /* \"#utility.yul\":18637:18641   */\n      dup9\n        /* \"#utility.yul\":18630:18666   */\n      sstore\n        /* \"#utility.yul\":18065:18676   */\n      pop\n      pop\n      pop\n        /* \"#utility.yul\":18028:18915   */\n    tag_455:\n      pop\n        /* \"#utility.yul\":17618:18921   */\n      pop\n      pop\n      pop\n        /* \"#utility.yul\":17526:18921   */\n      pop\n      pop\n      jump\t// out\n        /* \"#utility.yul\":18927:19045   */\n    tag_249:\n        /* \"#utility.yul\":19014:19038   */\n      tag_466\n        /* \"#utility.yul\":19032:19037   */\n      dup2\n        /* \"#utility.yul\":19014:19038   */\n      tag_198\n      jump\t// in\n    tag_466:\n        /* \"#utility.yul\":19009:19012   */\n      dup3\n        /* \"#utility.yul\":19002:19039   */\n      mstore\n        /* \"#utility.yul\":18927:19045   */\n      pop\n      pop\n      jump\t// out\n        /* \"#utility.yul\":19051:19383   */\n    tag_138:\n        /* \"#utility.yul\":19172:19176   */\n      0x00\n        /* \"#utility.yul\":19210:19212   */\n      0x40\n        /* \"#utility.yul\":19199:19208   */\n      dup3\n        /* \"#utility.yul\":19195:19213   */\n      add\n        /* \"#utility.yul\":19187:19213   */\n      swap1\n      pop\n        /* \"#utility.yul\":19223:19294   */\n      tag_468\n        /* \"#utility.yul\":19291:19292   */\n      0x00\n        /* \"#utility.yul\":19280:19289   */\n      dup4\n        /* \"#utility.yul\":19276:19293   */\n      add\n        /* \"#utility.yul\":19267:19273   */\n      dup6\n        /* \"#utility.yul\":19223:19294   */\n      tag_249\n      jump\t// in\n    tag_468:\n        /* \"#utility.yul\":19304:19376   */\n      tag_469\n        /* \"#utility.yul\":19372:19374   */\n      0x20\n        /* \"#utility.yul\":19361:19370   */\n      dup4\n        /* \"#utility.yul\":19357:19375   */\n      add\n        /* \"#utility.yul\":19348:19354   */\n      dup5\n        /* \"#utility.yul\":19304:19376   */\n      tag_206\n      jump\t// in\n    tag_469:\n        /* \"#utility.yul\":19051:19383   */\n      swap4\n      swap3\n      pop\n      pop\n      pop\n      jump\t// out\n        /* \"#utility.yul\":19389:19580   */\n    tag_143:\n        /* \"#utility.yul\":19429:19432   */\n      0x00\n        /* \"#utility.yul\":19448:19468   */\n      tag_471\n        /* \"#utility.yul\":19466:19467   */\n      dup3\n        /* \"#utility.yul\":19448:19468   */\n      tag_201\n      jump\t// in\n    tag_471:\n        /* \"#utility.yul\":19443:19468   */\n      swap2\n      pop\n        /* \"#utility.yul\":19482:19502   */\n      tag_472\n        /* \"#utility.yul\":19500:19501   */\n      dup4\n        /* \"#utility.yul\":19482:19502   */\n      tag_201\n      jump\t// in\n    tag_472:\n        /* \"#utility.yul\":19477:19502   */\n      swap3\n      pop\n        /* \"#utility.yul\":19525:19526   */\n      dup3\n        /* \"#utility.yul\":19522:19523   */\n      dup3\n        /* \"#utility.yul\":19518:19527   */\n      add\n        /* \"#utility.yul\":19511:19527   */\n      swap1\n      pop\n        /* \"#utility.yul\":19546:19549   */\n      dup1\n        /* \"#utility.yul\":19543:19544   */\n      dup3\n        /* \"#utility.yul\":19540:19550   */\n      gt\n        /* \"#utility.yul\":19537:19573   */\n      iszero\n      tag_473\n      jumpi\n        /* \"#utility.yul\":19553:19571   */\n      tag_474\n      tag_230\n      jump\t// in\n    tag_474:\n        /* \"#utility.yul\":19537:19573   */\n    tag_473:\n        /* \"#utility.yul\":19389:19580   */\n      swap3\n      swap2\n      pop\n      pop\n      jump\t// out\n        /* \"#utility.yul\":19586:19752   */\n    tag_250:\n        /* \"#utility.yul\":19726:19744   */\n      0x4e6f7420656e6f756768206d696c657300000000000000000000000000000000\n        /* \"#utility.yul\":19722:19723   */\n      0x00\n        /* \"#utility.yul\":19714:19720   */\n      dup3\n        /* \"#utility.yul\":19710:19724   */\n      add\n        /* \"#utility.yul\":19703:19745   */\n      mstore\n        /* \"#utility.yul\":19586:19752   */\n      pop\n      jump\t// out\n        /* \"#utility.yul\":19758:20124   */\n    tag_251:\n        /* \"#utility.yul\":19900:19903   */\n      0x00\n        /* \"#utility.yul\":19921:19988   */\n      tag_477\n        /* \"#utility.yul\":19985:19987   */\n      0x10\n        /* \"#utility.yul\":19980:19983   */\n      dup4\n        /* \"#utility.yul\":19921:19988   */\n      tag_190\n      jump\t// in\n    tag_477:\n        /* \"#utility.yul\":19914:19988   */\n      swap2\n      pop\n        /* \"#utility.yul\":19997:20090   */\n      tag_478\n        /* \"#utility.yul\":20086:20089   */\n      dup3\n        /* \"#utility.yul\":19997:20090   */\n      tag_250\n      jump\t// in\n    tag_478:\n        /* \"#utility.yul\":20115:20117   */\n      0x20\n        /* \"#utility.yul\":20110:20113   */\n      dup3\n        /* \"#utility.yul\":20106:20118   */\n      add\n        /* \"#utility.yul\":20099:20118   */\n      swap1\n      pop\n        /* \"#utility.yul\":19758:20124   */\n      swap2\n      swap1\n      pop\n      jump\t// out\n        /* \"#utility.yul\":20130:20549   */\n    tag_152:\n        /* \"#utility.yul\":20296:20300   */\n      0x00\n        /* \"#utility.yul\":20334:20336   */\n      0x20\n        /* \"#utility.yul\":20323:20332   */\n      dup3\n        /* \"#utility.yul\":20319:20337   */\n      add\n        /* \"#utility.yul\":20311:20337   */\n      swap1\n      pop\n        /* \"#utility.yul\":20383:20392   */\n      dup2\n        /* \"#utility.yul\":20377:20381   */\n      dup2\n        /* \"#utility.yul\":20373:20393   */\n      sub\n        /* \"#utility.yul\":20369:20370   */\n      0x00\n        /* \"#utility.yul\":20358:20367   */\n      dup4\n        /* \"#utility.yul\":20354:20371   */\n      add\n        /* \"#utility.yul\":20347:20394   */\n      mstore\n        /* \"#utility.yul\":20411:20542   */\n      tag_480\n        /* \"#utility.yul\":20537:20541   */\n      dup2\n        /* \"#utility.yul\":20411:20542   */\n      tag_251\n      jump\t// in\n    tag_480:\n        /* \"#utility.yul\":20403:20542   */\n      swap1\n      pop\n        /* \"#utility.yul\":20130:20549   */\n      swap2\n      swap1\n      pop\n      jump\t// out\n        /* \"#utility.yul\":20555:20779   */\n    tag_252:\n        /* \"#utility.yul\":20695:20729   */\n      0x45524332303a207472616e736665722066726f6d20746865207a65726f206164\n        /* \"#utility.yul\":20691:20692   */\n      0x00\n        /* \"#utility.yul\":20683:20689   */\n      dup3\n        /* \"#utility.yul\":20679:20693   */\n      add\n        /* \"#utility.yul\":20672:20730   */\n      mstore\n        /* \"#utility.yul\":20764:20771   */\n      0x6472657373000000000000000000000000000000000000000000000000000000\n        /* \"#utility.yul\":20759:20761   */\n      0x20\n        /* \"#utility.yul\":20751:20757   */\n      dup3\n        /* \"#utility.yul\":20747:20762   */\n      add\n        /* \"#utility.yul\":20740:20772   */\n      mstore\n        /* \"#utility.yul\":20555:20779   */\n      pop\n      jump\t// out\n        /* \"#utility.yul\":20785:21151   */\n    tag_253:\n        /* \"#utility.yul\":20927:20930   */\n      0x00\n        /* \"#utility.yul\":20948:21015   */\n      tag_483\n        /* \"#utility.yul\":21012:21014   */\n      0x25\n        /* \"#utility.yul\":21007:21010   */\n      dup4\n        /* \"#utility.yul\":20948:21015   */\n      tag_190\n      jump\t// in\n    tag_483:\n        /* \"#utility.yul\":20941:21015   */\n      swap2\n      pop\n        /* \"#utility.yul\":21024:21117   */\n      tag_484\n        /* \"#utility.yul\":21113:21116   */\n      dup3\n        /* \"#utility.yul\":21024:21117   */\n      tag_252\n      jump\t// in\n    tag_484:\n        /* \"#utility.yul\":21142:21144   */\n      0x40\n        /* \"#utility.yul\":21137:21140   */\n      dup3\n        /* \"#utility.yul\":21133:21145   */\n      add\n        /* \"#utility.yul\":21126:21145   */\n      swap1\n      pop\n        /* \"#utility.yul\":20785:21151   */\n      swap2\n      swap1\n      pop\n      jump\t// out\n        /* \"#utility.yul\":21157:21576   */\n    tag_162:\n        /* \"#utility.yul\":21323:21327   */\n      0x00\n        /* \"#utility.yul\":21361:21363   */\n      0x20\n        /* \"#utility.yul\":21350:21359   */\n      dup3\n        /* \"#utility.yul\":21346:21364   */\n      add\n        /* \"#utility.yul\":21338:21364   */\n      swap1\n      pop\n        /* \"#utility.yul\":21410:21419   */\n      dup2\n        /* \"#utility.yul\":21404:21408   */\n      dup2\n        /* \"#utility.yul\":21400:21420   */\n      sub\n        /* \"#utility.yul\":21396:21397   */\n      0x00\n        /* \"#utility.yul\":21385:21394   */\n      dup4\n        /* \"#utility.yul\":21381:21398   */\n      add\n        /* \"#utility.yul\":21374:21421   */\n      mstore\n        /* \"#utility.yul\":21438:21569   */\n      tag_486\n        /* \"#utility.yul\":21564:21568   */\n      dup2\n        /* \"#utility.yul\":21438:21569   */\n      tag_253\n      jump\t// in\n    tag_486:\n        /* \"#utility.yul\":21430:21569   */\n      swap1\n      pop\n        /* \"#utility.yul\":21157:21576   */\n      swap2\n      swap1\n      pop\n      jump\t// out\n        /* \"#utility.yul\":21582:21804   */\n    tag_254:\n        /* \"#utility.yul\":21722:21756   */\n      0x45524332303a207472616e7366657220746f20746865207a65726f2061646472\n        /* \"#utility.yul\":21718:21719   */\n      0x00\n        /* \"#utility.yul\":21710:21716   */\n      dup3\n        /* \"#utility.yul\":21706:21720   */\n      add\n        /* \"#utility.yul\":21699:21757   */\n      mstore\n        /* \"#utility.yul\":21791:21796   */\n      0x6573730000000000000000000000000000000000000000000000000000000000\n        /* \"#utility.yul\":21786:21788   */\n      0x20\n        /* \"#utility.yul\":21778:21784   */\n      dup3\n        /* \"#utility.yul\":21774:21789   */\n      add\n        /* \"#utility.yul\":21767:21797   */\n      mstore\n        /* \"#utility.yul\":21582:21804   */\n      pop\n      jump\t// out\n        /* \"#utility.yul\":21810:22176   */\n    tag_255:\n        /* \"#utility.yul\":21952:21955   */\n      0x00\n        /* \"#utility.yul\":21973:22040   */\n      tag_489\n        /* \"#utility.yul\":22037:22039   */\n      0x23\n        /* \"#utility.yul\":22032:22035   */\n      dup4\n        /* \"#utility.yul\":21973:22040   */\n      tag_190\n      jump\t// in\n    tag_489:\n        /* \"#utility.yul\":21966:22040   */\n      swap2\n      pop\n        /* \"#utility.yul\":22049:22142   */\n      tag_490\n        /* \"#utility.yul\":22138:22141   */\n      dup3\n        /* \"#utility.yul\":22049:22142   */\n      tag_254\n      jump\t// in\n    tag_490:\n        /* \"#utility.yul\":22167:22169   */\n      0x40\n        /* \"#utility.yul\":22162:22165   */\n      dup3\n        /* \"#utility.yul\":22158:22170   */\n      add\n        /* \"#utility.yul\":22151:22170   */\n      swap1\n      pop\n        /* \"#utility.yul\":21810:22176   */\n      swap2\n      swap1\n      pop\n      jump\t// out\n        /* \"#utility.yul\":22182:22601   */\n    tag_165:\n        /* \"#utility.yul\":22348:22352   */\n      0x00\n        /* \"#utility.yul\":22386:22388   */\n      0x20\n        /* \"#utility.yul\":22375:22384   */\n      dup3\n        /* \"#utility.yul\":22371:22389   */\n      add\n        /* \"#utility.yul\":22363:22389   */\n      swap1\n      pop\n        /* \"#utility.yul\":22435:22444   */\n      dup2\n        /* \"#utility.yul\":22429:22433   */\n      dup2\n        /* \"#utility.yul\":22425:22445   */\n      sub\n        /* \"#utility.yul\":22421:22422   */\n      0x00\n        /* \"#utility.yul\":22410:22419   */\n      dup4\n        /* \"#utility.yul\":22406:22423   */\n      add\n        /* \"#utility.yul\":22399:22446   */\n      mstore\n        /* \"#utility.yul\":22463:22594   */\n      tag_492\n        /* \"#utility.yul\":22589:22593   */\n      dup2\n        /* \"#utility.yul\":22463:22594   */\n      tag_255\n      jump\t// in\n    tag_492:\n        /* \"#utility.yul\":22455:22594   */\n      swap1\n      pop\n        /* \"#utility.yul\":22182:22601   */\n      swap2\n      swap1\n      pop\n      jump\t// out\n        /* \"#utility.yul\":22607:22832   */\n    tag_256:\n        /* \"#utility.yul\":22747:22781   */\n      0x45524332303a207472616e7366657220616d6f756e7420657863656564732062\n        /* \"#utility.yul\":22743:22744   */\n      0x00\n        /* \"#utility.yul\":22735:22741   */\n      dup3\n        /* \"#utility.yul\":22731:22745   */\n      add\n        /* \"#utility.yul\":22724:22782   */\n      mstore\n        /* \"#utility.yul\":22816:22824   */\n      0x616c616e63650000000000000000000000000000000000000000000000000000\n        /* \"#utility.yul\":22811:22813   */\n      0x20\n        /* \"#utility.yul\":22803:22809   */\n      dup3\n        /* \"#utility.yul\":22799:22814   */\n      add\n        /* \"#utility.yul\":22792:22825   */\n      mstore\n        /* \"#utility.yul\":22607:22832   */\n      pop\n      jump\t// out\n        /* \"#utility.yul\":22838:23204   */\n    tag_257:\n        /* \"#utility.yul\":22980:22983   */\n      0x00\n        /* \"#utility.yul\":23001:23068   */\n      tag_495\n        /* \"#utility.yul\":23065:23067   */\n      0x26\n        /* \"#utility.yul\":23060:23063   */\n      dup4\n        /* \"#utility.yul\":23001:23068   */\n      tag_190\n      jump\t// in\n    tag_495:\n        /* \"#utility.yul\":22994:23068   */\n      swap2\n      pop\n        /* \"#utility.yul\":23077:23170   */\n      tag_496\n        /* \"#utility.yul\":23166:23169   */\n      dup3\n        /* \"#utility.yul\":23077:23170   */\n      tag_256\n      jump\t// in\n    tag_496:\n        /* \"#utility.yul\":23195:23197   */\n      0x40\n        /* \"#utility.yul\":23190:23193   */\n      dup3\n        /* \"#utility.yul\":23186:23198   */\n      add\n        /* \"#utility.yul\":23179:23198   */\n      swap1\n      pop\n        /* \"#utility.yul\":22838:23204   */\n      swap2\n      swap1\n      pop\n      jump\t// out\n        /* \"#utility.yul\":23210:23629   */\n    tag_168:\n        /* \"#utility.yul\":23376:23380   */\n      0x00\n        /* \"#utility.yul\":23414:23416   */\n      0x20\n        /* \"#utility.yul\":23403:23412   */\n      dup3\n        /* \"#utility.yul\":23399:23417   */\n      add\n        /* \"#utility.yul\":23391:23417   */\n      swap1\n      pop\n        /* \"#utility.yul\":23463:23472   */\n      dup2\n        /* \"#utility.yul\":23457:23461   */\n      dup2\n        /* \"#utility.yul\":23453:23473   */\n      sub\n        /* \"#utility.yul\":23449:23450   */\n      0x00\n        /* \"#utility.yul\":23438:23447   */\n      dup4\n        /* \"#utility.yul\":23434:23451   */\n      add\n        /* \"#utility.yul\":23427:23474   */\n      mstore\n        /* \"#utility.yul\":23491:23622   */\n      tag_498\n        /* \"#utility.yul\":23617:23621   */\n      dup2\n        /* \"#utility.yul\":23491:23622   */\n      tag_257\n      jump\t// in\n    tag_498:\n        /* \"#utility.yul\":23483:23622   */\n      swap1\n      pop\n        /* \"#utility.yul\":23210:23629   */\n      swap2\n      swap1\n      pop\n      jump\t// out\n        /* \"#utility.yul\":23635:23816   */\n    tag_258:\n        /* \"#utility.yul\":23775:23808   */\n      0x45524332303a206d696e7420746f20746865207a65726f206164647265737300\n        /* \"#utility.yul\":23771:23772   */\n      0x00\n        /* \"#utility.yul\":23763:23769   */\n      dup3\n        /* \"#utility.yul\":23759:23773   */\n      add\n        /* \"#utility.yul\":23752:23809   */\n      mstore\n        /* \"#utility.yul\":23635:23816   */\n      pop\n      jump\t// out\n        /* \"#utility.yul\":23822:24188   */\n    tag_259:\n        /* \"#utility.yul\":23964:23967   */\n      0x00\n        /* \"#utility.yul\":23985:24052   */\n      tag_501\n        /* \"#utility.yul\":24049:24051   */\n      0x1f\n        /* \"#utility.yul\":24044:24047   */\n      dup4\n        /* \"#utility.yul\":23985:24052   */\n      tag_190\n      jump\t// in\n    tag_501:\n        /* \"#utility.yul\":23978:24052   */\n      swap2\n      pop\n        /* \"#utility.yul\":24061:24154   */\n      tag_502\n        /* \"#utility.yul\":24150:24153   */\n      dup3\n        /* \"#utility.yul\":24061:24154   */\n      tag_258\n      jump\t// in\n    tag_502:\n        /* \"#utility.yul\":24179:24181   */\n      0x20\n        /* \"#utility.yul\":24174:24177   */\n      dup3\n        /* \"#utility.yul\":24170:24182   */\n      add\n        /* \"#utility.yul\":24163:24182   */\n      swap1\n      pop\n        /* \"#utility.yul\":23822:24188   */\n      swap2\n      swap1\n      pop\n      jump\t// out\n        /* \"#utility.yul\":24194:24613   */\n    tag_175:\n        /* \"#utility.yul\":24360:24364   */\n      0x00\n        /* \"#utility.yul\":24398:24400   */\n      0x20\n        /* \"#utility.yul\":24387:24396   */\n      dup3\n        /* \"#utility.yul\":24383:24401   */\n      add\n        /* \"#utility.yul\":24375:24401   */\n      swap1\n      pop\n        /* \"#utility.yul\":24447:24456   */\n      dup2\n        /* \"#utility.yul\":24441:24445   */\n      dup2\n        /* \"#utility.yul\":24437:24457   */\n      sub\n        /* \"#utility.yul\":24433:24434   */\n      0x00\n        /* \"#utility.yul\":24422:24431   */\n      dup4\n        /* \"#utility.yul\":24418:24435   */\n      add\n        /* \"#utility.yul\":24411:24458   */\n      mstore\n        /* \"#utility.yul\":24475:24606   */\n      tag_504\n        /* \"#utility.yul\":24601:24605   */\n      dup2\n        /* \"#utility.yul\":24475:24606   */\n      tag_259\n      jump\t// in\n    tag_504:\n        /* \"#utility.yul\":24467:24606   */\n      swap1\n      pop\n        /* \"#utility.yul\":24194:24613   */\n      swap2\n      swap1\n      pop\n      jump\t// out\n        /* \"#utility.yul\":24619:24783   */\n    tag_260:\n        /* \"#utility.yul\":24759:24775   */\n      0x4e6f206861792061646472657373000000000000000000000000000000000000\n        /* \"#utility.yul\":24755:24756   */\n      0x00\n        /* \"#utility.yul\":24747:24753   */\n      dup3\n        /* \"#utility.yul\":24743:24757   */\n      add\n        /* \"#utility.yul\":24736:24776   */\n      mstore\n        /* \"#utility.yul\":24619:24783   */\n      pop\n      jump\t// out\n        /* \"#utility.yul\":24789:25155   */\n    tag_261:\n        /* \"#utility.yul\":24931:24934   */\n      0x00\n        /* \"#utility.yul\":24952:25019   */\n      tag_507\n        /* \"#utility.yul\":25016:25018   */\n      0x0e\n        /* \"#utility.yul\":25011:25014   */\n      dup4\n        /* \"#utility.yul\":24952:25019   */\n      tag_190\n      jump\t// in\n    tag_507:\n        /* \"#utility.yul\":24945:25019   */\n      swap2\n      pop\n        /* \"#utility.yul\":25028:25121   */\n      tag_508\n        /* \"#utility.yul\":25117:25120   */\n      dup3\n        /* \"#utility.yul\":25028:25121   */\n      tag_260\n      jump\t// in\n    tag_508:\n        /* \"#utility.yul\":25146:25148   */\n      0x20\n        /* \"#utility.yul\":25141:25144   */\n      dup3\n        /* \"#utility.yul\":25137:25149   */\n      add\n        /* \"#utility.yul\":25130:25149   */\n      swap1\n      pop\n        /* \"#utility.yul\":24789:25155   */\n      swap2\n      swap1\n      pop\n      jump\t// out\n        /* \"#utility.yul\":25161:25580   */\n    tag_182:\n        /* \"#utility.yul\":25327:25331   */\n      0x00\n        /* \"#utility.yul\":25365:25367   */\n      0x20\n        /* \"#utility.yul\":25354:25363   */\n      dup3\n        /* \"#utility.yul\":25350:25368   */\n      add\n        /* \"#utility.yul\":25342:25368   */\n      swap1\n      pop\n        /* \"#utility.yul\":25414:25423   */\n      dup2\n        /* \"#utility.yul\":25408:25412   */\n      dup2\n        /* \"#utility.yul\":25404:25424   */\n      sub\n        /* \"#utility.yul\":25400:25401   */\n      0x00\n        /* \"#utility.yul\":25389:25398   */\n      dup4\n        /* \"#utility.yul\":25385:25402   */\n      add\n        /* \"#utility.yul\":25378:25425   */\n      mstore\n        /* \"#utility.yul\":25442:25573   */\n      tag_510\n        /* \"#utility.yul\":25568:25572   */\n      dup2\n        /* \"#utility.yul\":25442:25573   */\n      tag_261\n      jump\t// in\n    tag_510:\n        /* \"#utility.yul\":25434:25573   */\n      swap1\n      pop\n        /* \"#utility.yul\":25161:25580   */\n      swap2\n      swap1\n      pop\n      jump\t// out\n        /* \"#utility.yul\":25586:25762   */\n    tag_262:\n        /* \"#utility.yul\":25726:25754   */\n      0x4e6f2068617920737566696369656e74657320746f6b656e732e000000000000\n        /* \"#utility.yul\":25722:25723   */\n      0x00\n        /* \"#utility.yul\":25714:25720   */\n      dup3\n        /* \"#utility.yul\":25710:25724   */\n      add\n        /* \"#utility.yul\":25703:25755   */\n      mstore\n        /* \"#utility.yul\":25586:25762   */\n      pop\n      jump\t// out\n        /* \"#utility.yul\":25768:26134   */\n    tag_263:\n        /* \"#utility.yul\":25910:25913   */\n      0x00\n        /* \"#utility.yul\":25931:25998   */\n      tag_513\n        /* \"#utility.yul\":25995:25997   */\n      0x1a\n        /* \"#utility.yul\":25990:25993   */\n      dup4\n        /* \"#utility.yul\":25931:25998   */\n      tag_190\n      jump\t// in\n    tag_513:\n        /* \"#utility.yul\":25924:25998   */\n      swap2\n      pop\n        /* \"#utility.yul\":26007:26100   */\n      tag_514\n        /* \"#utility.yul\":26096:26099   */\n      dup3\n        /* \"#utility.yul\":26007:26100   */\n      tag_262\n      jump\t// in\n    tag_514:\n        /* \"#utility.yul\":26125:26127   */\n      0x20\n        /* \"#utility.yul\":26120:26123   */\n      dup3\n        /* \"#utility.yul\":26116:26128   */\n      add\n        /* \"#utility.yul\":26109:26128   */\n      swap1\n      pop\n        /* \"#utility.yul\":25768:26134   */\n      swap2\n      swap1\n      pop\n      jump\t// out\n        /* \"#utility.yul\":26140:26559   */\n    tag_185:\n        /* \"#utility.yul\":26306:26310   */\n      0x00\n        /* \"#utility.yul\":26344:26346   */\n      0x20\n        /* \"#utility.yul\":26333:26342   */\n      dup3\n        /* \"#utility.yul\":26329:26347   */\n      add\n        /* \"#utility.yul\":26321:26347   */\n      swap1\n      pop\n        /* \"#utility.yul\":26393:26402   */\n      dup2\n        /* \"#utility.yul\":26387:26391   */\n      dup2\n        /* \"#utility.yul\":26383:26403   */\n      sub\n        /* \"#utility.yul\":26379:26380   */\n      0x00\n        /* \"#utility.yul\":26368:26377   */\n      dup4\n        /* \"#utility.yul\":26364:26381   */\n      add\n        /* \"#utility.yul\":26357:26404   */\n      mstore\n        /* \"#utility.yul\":26421:26552   */\n      tag_516\n        /* \"#utility.yul\":26547:26551   */\n      dup2\n        /* \"#utility.yul\":26421:26552   */\n      tag_263\n      jump\t// in\n    tag_516:\n        /* \"#utility.yul\":26413:26552   */\n      swap1\n      pop\n        /* \"#utility.yul\":26140:26559   */\n      swap2\n      swap1\n      pop\n      jump\t// out\n\n    auxdata: 0xa264697066735822122097d88f202502a8eb40cc5e657c9faf65b69a731d92946a1c0e27a17a3633fb8964736f6c634300081f0033\n}\n",
				"bytecode": {
					"linkReferences": {},
					"object": "608060405234801561000f575f5ffd5b50604051612a57380380612a57833981810160405281019061003191906103c3565b83838383835f90816100439190610666565b5082600190816100539190610666565b508160025f6101000a81548160ff021916908360ff16021790555061007e33826100cb60201b60201c565b505050503360095f6101000a81548173ffffffffffffffffffffffffffffffffffffffff021916908373ffffffffffffffffffffffffffffffffffffffff16021790555050505050610835565b5f73ffffffffffffffffffffffffffffffffffffffff168273ffffffffffffffffffffffffffffffffffffffff1603610139576040517f08c379a00000000000000000000000000000000000000000000000000000000081526004016101309061078f565b60405180910390fd5b8060035f82825461014a91906107da565b925050819055508060045f8473ffffffffffffffffffffffffffffffffffffffff1673ffffffffffffffffffffffffffffffffffffffff1681526020019081526020015f205f82825461019d91906107da565b925050819055508173ffffffffffffffffffffffffffffffffffffffff165f73ffffffffffffffffffffffffffffffffffffffff167fddf252ad1be2c89b69c2b068fc378daa952ba7f163c4a11628f55a4df523b3ef83604051610201919061081c565b60405180910390a35050565b5f604051905090565b5f5ffd5b5f5ffd5b5f5ffd5b5f5ffd5b5f601f19601f8301169050919050565b7f4e487b71000000000000000000000000000000000000000000000000000000005f52604160045260245ffd5b61026c82610226565b810181811067ffffffffffffffff8211171561028b5761028a610236565b5b80604052505050565b5f61029d61020d565b90506102a98282610263565b919050565b5f67ffffffffffffffff8211156102c8576102c7610236565b5b6102d182610226565b9050602081019050919050565b8281835e5f83830152505050565b5f6102fe6102f9846102ae565b610294565b90508281526020810184848401111561031a57610319610222565b5b6103258482856102de565b509392505050565b5f82601f8301126103415761034061021e565b5b81516103518482602086016102ec565b91505092915050565b5f60ff82169050919050565b61036f8161035a565b8114610379575f5ffd5b50565b5f8151905061038a81610366565b92915050565b5f819050919050565b6103a281610390565b81146103ac575f5ffd5b50565b5f815190506103bd81610399565b92915050565b5f5f5f5f608085870312156103db576103da610216565b5b5f85015167ffffffffffffffff8111156103f8576103f761021a565b5b6104048782880161032d565b945050602085015167ffffffffffffffff8111156104255761042461021a565b5b6104318782880161032d565b93505060406104428782880161037c565b9250506060610453878288016103af565b91505092959194509250565b5f81519050919050565b7f4e487b71000000000000000000000000000000000000000000000000000000005f52602260045260245ffd5b5f60028204905060018216806104ad57607f821691505b6020821081036104c0576104bf610469565b5b50919050565b5f819050815f5260205f209050919050565b5f6020601f8301049050919050565b5f82821b905092915050565b5f600883026105227fffffffffffffffffffffffffffffffffffffffffffffffffffffffffffffffff826104e7565b61052c86836104e7565b95508019841693508086168417925050509392505050565b5f819050919050565b5f61056761056261055d84610390565b610544565b610390565b9050919050565b5f819050919050565b6105808361054d565b61059461058c8261056e565b8484546104f3565b825550505050565b5f5f905090565b6105ab61059c565b6105b6818484610577565b505050565b5b818110156105d9576105ce5f826105a3565b6001810190506105bc565b5050565b601f82111561061e576105ef816104c6565b6105f8846104d8565b81016020851015610607578190505b61061b610613856104d8565b8301826105bb565b50505b505050565b5f82821c905092915050565b5f61063e5f1984600802610623565b1980831691505092915050565b5f610656838361062f565b9150826002028217905092915050565b61066f8261045f565b67ffffffffffffffff81111561068857610687610236565b5b6106928254610496565b61069d8282856105dd565b5f60209050601f8311600181146106ce575f84156106bc578287015190505b6106c6858261064b565b86555061072d565b601f1984166106dc866104c6565b5f5b82811015610703578489015182556001820191506020850194506020810190506106de565b86831015610720578489015161071c601f89168261062f565b8355505b6001600288020188555050505b505050505050565b5f82825260208201905092915050565b7f45524332303a206d696e7420746f20746865207a65726f2061646472657373005f82015250565b5f610779601f83610735565b915061078482610745565b602082019050919050565b5f6020820190508181035f8301526107a68161076d565b9050919050565b7f4e487b71000000000000000000000000000000000000000000000000000000005f52601160045260245ffd5b5f6107e482610390565b91506107ef83610390565b9250828201905080821115610807576108066107ad565b5b92915050565b61081681610390565b82525050565b5f60208201905061082f5f83018461080d565b92915050565b612215806108425f395ff3fe608060405234801561000f575f5ffd5b50600436106100fe575f3560e01c806370a0823111610095578063a401d24d11610064578063a401d24d1461029a578063a9059cbb146102b6578063d1df306c146102e6578063dd62ed3e14610302576100fe565b806370a08231146102125780638da5cb5b1461024257806395d89b41146102605780639dc29fac1461027e576100fe565b806323b872dd116100d157806323b872dd1461018c578063313ce567146101bc57806332434a2e146101da57806340c10f19146101f6576100fe565b806306fdde0314610102578063095ea7b31461012057806318160ddd1461015057806321df0da71461016e575b5f5ffd5b61010a610332565b60405161011791906114cc565b60405180910390f35b61013a6004803603810190610135919061158a565b6103c1565b60405161014791906115e2565b60405180910390f35b61015861051c565b604051610165919061160a565b60405180910390f35b610176610525565b604051610183919061167e565b60405180910390f35b6101a660048036038101906101a19190611697565b61054d565b6040516101b391906115e2565b60405180910390f35b6101c4610789565b6040516101d19190611702565b60405180910390f35b6101f460048036038101906101ef9190611847565b61079e565b005b610210600480360381019061020b919061158a565b6109d7565b005b61022c600480360381019061022791906118a1565b6109e5565b604051610239919061160a565b60405180910390f35b61024a610a2b565b60405161025791906118ec565b60405180910390f35b610268610a50565b60405161027591906114cc565b60405180910390f35b6102986004803603810190610293919061158a565b610ae0565b005b6102b460048036038101906102af919061158a565b610aee565b005b6102d060048036038101906102cb919061158a565b610c60565b6040516102dd91906115e2565b60405180910390f35b61030060048036038101906102fb919061158a565b610c76565b005b61031c60048036038101906103179190611905565b610e6b565b604051610329919061160a565b60405180910390f35b60605f805461034090611970565b80601f016020809104026020016040519081016040528092919081815260200182805461036c90611970565b80156103b75780601f1061038e576101008083540402835291602001916103b7565b820191905f5260205f20905b81548152906001019060200180831161039a57829003601f168201915b5050505050905090565b5f5f73ffffffffffffffffffffffffffffffffffffffff168373ffffffffffffffffffffffffffffffffffffffff1603610430576040517f08c379a000000000000000000000000000000000000000000000000000000000815260040161042790611a10565b60405180910390fd5b8160055f3373ffffffffffffffffffffffffffffffffffffffff1673ffffffffffffffffffffffffffffffffffffffff1681526020019081526020015f205f8573ffffffffffffffffffffffffffffffffffffffff1673ffffffffffffffffffffffffffffffffffffffff1681526020019081526020015f20819055508273ffffffffffffffffffffffffffffffffffffffff163373ffffffffffffffffffffffffffffffffffffffff167f8c5be1e5ebec7d5bd14f71427d1e84f3dd0314c0f7b2291e5b200ac8c7c3b9258460405161050a919061160a565b60405180910390a36001905092915050565b5f600354905090565b5f60075f9054906101000a900473ffffffffffffffffffffffffffffffffffffffff16905090565b5f5f60055f8673ffffffffffffffffffffffffffffffffffffffff1673ffffffffffffffffffffffffffffffffffffffff1681526020019081526020015f205f3373ffffffffffffffffffffffffffffffffffffffff1673ffffffffffffffffffffffffffffffffffffffff1681526020019081526020015f205490508281101561060d576040517f08c379a000000000000000000000000000000000000000000000000000000000815260040161060490611a78565b60405180910390fd5b82816106199190611ac3565b60055f8773ffffffffffffffffffffffffffffffffffffffff1673ffffffffffffffffffffffffffffffffffffffff1681526020019081526020015f205f3373ffffffffffffffffffffffffffffffffffffffff1673ffffffffffffffffffffffffffffffffffffffff1681526020019081526020015f20819055503373ffffffffffffffffffffffffffffffffffffffff168573ffffffffffffffffffffffffffffffffffffffff167f8c5be1e5ebec7d5bd14f71427d1e84f3dd0314c0f7b2291e5b200ac8c7c3b92560055f8973ffffffffffffffffffffffffffffffffffffffff1673ffffffffffffffffffffffffffffffffffffffff1681526020019081526020015f205f3373ffffffffffffffffffffffffffffffffffffffff1673ffffffffffffffffffffffffffffffffffffffff1681526020019081526020015f205460405161076a919061160a565b60405180910390a361077d858585610eed565b60019150509392505050565b5f60025f9054906101000a900460ff16905090565b60095f9054906101000a900473ffffffffffffffffffffffffffffffffffffffff1673ffffffffffffffffffffffffffffffffffffffff163373ffffffffffffffffffffffffffffffffffffffff161461082d576040517f08c379a000000000000000000000000000000000000000000000000000000000815260040161082490611b40565b60405180910390fd5b5f73ffffffffffffffffffffffffffffffffffffffff16600a5f8473ffffffffffffffffffffffffffffffffffffffff1673ffffffffffffffffffffffffffffffffffffffff1681526020019081526020015f205f015f9054906101000a900473ffffffffffffffffffffffffffffffffffffffff1673ffffffffffffffffffffffffffffffffffffffff16146108f9576040517f08c379a00000000000000000000000000000000000000000000000000000000081526004016108f090611ba8565b60405180910390fd5b5f60405180606001604052808473ffffffffffffffffffffffffffffffffffffffff1681526020015f815260200183815250905080600a5f8573ffffffffffffffffffffffffffffffffffffffff1673ffffffffffffffffffffffffffffffffffffffff1681526020019081526020015f205f820151815f015f6101000a81548173ffffffffffffffffffffffffffffffffffffffff021916908373ffffffffffffffffffffffffffffffffffffffff1602179055506020820151816001015560408201518160020190816109ce9190611d5d565b50905050505050565b6109e18282611158565b5050565b5f60045f8373ffffffffffffffffffffffffffffffffffffffff1673ffffffffffffffffffffffffffffffffffffffff1681526020019081526020015f20549050919050565b60095f9054906101000a900473ffffffffffffffffffffffffffffffffffffffff1681565b606060018054610a5f90611970565b80601f0160208091040260200160405190810160405280929190818152602001828054610a8b90611970565b8015610ad65780601f10610aad57610100808354040283529160200191610ad6565b820191905f5260205f20905b815481529060010190602001808311610ab957829003601f168201915b5050505050905090565b610aea828261129a565b5050565b60095f9054906101000a900473ffffffffffffffffffffffffffffffffffffffff1673ffffffffffffffffffffffffffffffffffffffff163373ffffffffffffffffffffffffffffffffffffffff1614610b7d576040517f08c379a0000000000000000000000000000000000000000000000000000000008152600401610b7490611b40565b60405180910390fd5b60075f9054906101000a900473ffffffffffffffffffffffffffffffffffffffff1673ffffffffffffffffffffffffffffffffffffffff166340c10f1983836040518363ffffffff1660e01b8152600401610bd9929190611e3b565b5f604051808303815f87803b158015610bf0575f5ffd5b505af1158015610c02573d5f5f3e3d5ffd5b5050505080600a5f8473ffffffffffffffffffffffffffffffffffffffff1673ffffffffffffffffffffffffffffffffffffffff1681526020019081526020015f206001015f828254610c559190611e62565b925050819055505050565b5f610c6c338484610eed565b6001905092915050565b60095f9054906101000a900473ffffffffffffffffffffffffffffffffffffffff1673ffffffffffffffffffffffffffffffffffffffff163373ffffffffffffffffffffffffffffffffffffffff1614610d05576040517f08c379a0000000000000000000000000000000000000000000000000000000008152600401610cfc90611b40565b60405180910390fd5b80600a5f8473ffffffffffffffffffffffffffffffffffffffff1673ffffffffffffffffffffffffffffffffffffffff1681526020019081526020015f20600101541015610d88576040517f08c379a0000000000000000000000000000000000000000000000000000000008152600401610d7f90611edf565b60405180910390fd5b60075f9054906101000a900473ffffffffffffffffffffffffffffffffffffffff1673ffffffffffffffffffffffffffffffffffffffff16639dc29fac83836040518363ffffffff1660e01b8152600401610de4929190611e3b565b5f604051808303815f87803b158015610dfb575f5ffd5b505af1158015610e0d573d5f5f3e3d5ffd5b5050505080600a5f8473ffffffffffffffffffffffffffffffffffffffff1673ffffffffffffffffffffffffffffffffffffffff1681526020019081526020015f206001015f828254610e609190611ac3565b925050819055505050565b5f60055f8473ffffffffffffffffffffffffffffffffffffffff1673ffffffffffffffffffffffffffffffffffffffff1681526020019081526020015f205f8373ffffffffffffffffffffffffffffffffffffffff1673ffffffffffffffffffffffffffffffffffffffff1681526020019081526020015f2054905092915050565b5f73ffffffffffffffffffffffffffffffffffffffff168373ffffffffffffffffffffffffffffffffffffffff1603610f5b576040517f08c379a0000000000000000000000000000000000000000000000000000000008152600401610f5290611f6d565b60405180910390fd5b5f73ffffffffffffffffffffffffffffffffffffffff168273ffffffffffffffffffffffffffffffffffffffff1603610fc9576040517f08c379a0000000000000000000000000000000000000000000000000000000008152600401610fc090611ffb565b60405180910390fd5b5f60045f8573ffffffffffffffffffffffffffffffffffffffff1673ffffffffffffffffffffffffffffffffffffffff1681526020019081526020015f205490508181101561104d576040517f08c379a000000000000000000000000000000000000000000000000000000000815260040161104490612089565b60405180910390fd5b81816110599190611ac3565b60045f8673ffffffffffffffffffffffffffffffffffffffff1673ffffffffffffffffffffffffffffffffffffffff1681526020019081526020015f20819055508160045f8573ffffffffffffffffffffffffffffffffffffffff1673ffffffffffffffffffffffffffffffffffffffff1681526020019081526020015f205f8282546110e69190611e62565b925050819055508273ffffffffffffffffffffffffffffffffffffffff168473ffffffffffffffffffffffffffffffffffffffff167fddf252ad1be2c89b69c2b068fc378daa952ba7f163c4a11628f55a4df523b3ef8460405161114a919061160a565b60405180910390a350505050565b5f73ffffffffffffffffffffffffffffffffffffffff168273ffffffffffffffffffffffffffffffffffffffff16036111c6576040517f08c379a00000000000000000000000000000000000000000000000000000000081526004016111bd906120f1565b60405180910390fd5b8060035f8282546111d79190611e62565b925050819055508060045f8473ffffffffffffffffffffffffffffffffffffffff1673ffffffffffffffffffffffffffffffffffffffff1681526020019081526020015f205f82825461122a9190611e62565b925050819055508173ffffffffffffffffffffffffffffffffffffffff165f73ffffffffffffffffffffffffffffffffffffffff167fddf252ad1be2c89b69c2b068fc378daa952ba7f163c4a11628f55a4df523b3ef8360405161128e919061160a565b60405180910390a35050565b5f73ffffffffffffffffffffffffffffffffffffffff168273ffffffffffffffffffffffffffffffffffffffff1603611308576040517f08c379a00000000000000000000000000000000000000000000000000000000081526004016112ff90612159565b60405180910390fd5b8060045f8473ffffffffffffffffffffffffffffffffffffffff1673ffffffffffffffffffffffffffffffffffffffff1681526020019081526020015f20541015611388576040517f08c379a000000000000000000000000000000000000000000000000000000000815260040161137f906121c1565b60405180910390fd5b8060045f8473ffffffffffffffffffffffffffffffffffffffff1673ffffffffffffffffffffffffffffffffffffffff1681526020019081526020015f205f8282546113d49190611ac3565b925050819055508060035f8282546113ec9190611ac3565b925050819055505f73ffffffffffffffffffffffffffffffffffffffff168273ffffffffffffffffffffffffffffffffffffffff167fddf252ad1be2c89b69c2b068fc378daa952ba7f163c4a11628f55a4df523b3ef83604051611450919061160a565b60405180910390a35050565b5f81519050919050565b5f82825260208201905092915050565b8281835e5f83830152505050565b5f601f19601f8301169050919050565b5f61149e8261145c565b6114a88185611466565b93506114b8818560208601611476565b6114c181611484565b840191505092915050565b5f6020820190508181035f8301526114e48184611494565b905092915050565b5f604051905090565b5f5ffd5b5f5ffd5b5f73ffffffffffffffffffffffffffffffffffffffff82169050919050565b5f611526826114fd565b9050919050565b6115368161151c565b8114611540575f5ffd5b50565b5f813590506115518161152d565b92915050565b5f819050919050565b61156981611557565b8114611573575f5ffd5b50565b5f8135905061158481611560565b92915050565b5f5f604083850312156115a05761159f6114f5565b5b5f6115ad85828601611543565b92505060206115be85828601611576565b9150509250929050565b5f8115159050919050565b6115dc816115c8565b82525050565b5f6020820190506115f55f8301846115d3565b92915050565b61160481611557565b82525050565b5f60208201905061161d5f8301846115fb565b92915050565b5f819050919050565b5f61164661164161163c846114fd565b611623565b6114fd565b9050919050565b5f6116578261162c565b9050919050565b5f6116688261164d565b9050919050565b6116788161165e565b82525050565b5f6020820190506116915f83018461166f565b92915050565b5f5f5f606084860312156116ae576116ad6114f5565b5b5f6116bb86828701611543565b93505060206116cc86828701611543565b92505060406116dd86828701611576565b9150509250925092565b5f60ff82169050919050565b6116fc816116e7565b82525050565b5f6020820190506117155f8301846116f3565b92915050565b5f5ffd5b5f5ffd5b7f4e487b71000000000000000000000000000000000000000000000000000000005f52604160045260245ffd5b61175982611484565b810181811067ffffffffffffffff8211171561177857611777611723565b5b80604052505050565b5f61178a6114ec565b90506117968282611750565b919050565b5f67ffffffffffffffff8211156117b5576117b4611723565b5b6117be82611484565b9050602081019050919050565b828183375f83830152505050565b5f6117eb6117e68461179b565b611781565b9050828152602081018484840111156118075761180661171f565b5b6118128482856117cb565b509392505050565b5f82601f83011261182e5761182d61171b565b5b813561183e8482602086016117d9565b91505092915050565b5f5f6040838503121561185d5761185c6114f5565b5b5f61186a85828601611543565b925050602083013567ffffffffffffffff81111561188b5761188a6114f9565b5b6118978582860161181a565b9150509250929050565b5f602082840312156118b6576118b56114f5565b5b5f6118c384828501611543565b91505092915050565b5f6118d6826114fd565b9050919050565b6118e6816118cc565b82525050565b5f6020820190506118ff5f8301846118dd565b92915050565b5f5f6040838503121561191b5761191a6114f5565b5b5f61192885828601611543565b925050602061193985828601611543565b9150509250929050565b7f4e487b71000000000000000000000000000000000000000000000000000000005f52602260045260245ffd5b5f600282049050600182168061198757607f821691505b60208210810361199a57611999611943565b5b50919050565b7f45524332303a20617070726f766520746f20746865207a65726f2061646472655f8201527f7373000000000000000000000000000000000000000000000000000000000000602082015250565b5f6119fa602283611466565b9150611a05826119a0565b604082019050919050565b5f6020820190508181035f830152611a27816119ee565b9050919050565b7f45524332303a20696e73756666696369656e7420616c6c6f77616e63650000005f82015250565b5f611a62601d83611466565b9150611a6d82611a2e565b602082019050919050565b5f6020820190508181035f830152611a8f81611a56565b9050919050565b7f4e487b71000000000000000000000000000000000000000000000000000000005f52601160045260245ffd5b5f611acd82611557565b9150611ad883611557565b9250828203905081811115611af057611aef611a96565b5b92915050565b7f596f7520617265206e6f7420746865206f776e657200000000000000000000005f82015250565b5f611b2a601583611466565b9150611b3582611af6565b602082019050919050565b5f6020820190508181035f830152611b5781611b1e565b9050919050565b7f50617373656e67657220697320616c72656164792072656769737465726564005f82015250565b5f611b92601f83611466565b9150611b9d82611b5e565b602082019050919050565b5f6020820190508181035f830152611bbf81611b86565b9050919050565b5f819050815f5260205f209050919050565b5f6020601f8301049050919050565b5f82821b905092915050565b5f60088302611c227fffffffffffffffffffffffffffffffffffffffffffffffffffffffffffffffff82611be7565b611c2c8683611be7565b95508019841693508086168417925050509392505050565b5f611c5e611c59611c5484611557565b611623565b611557565b9050919050565b5f819050919050565b611c7783611c44565b611c8b611c8382611c65565b848454611bf3565b825550505050565b5f5f905090565b611ca2611c93565b611cad818484611c6e565b505050565b5b81811015611cd057611cc55f82611c9a565b600181019050611cb3565b5050565b601f821115611d1557611ce681611bc6565b611cef84611bd8565b81016020851015611cfe578190505b611d12611d0a85611bd8565b830182611cb2565b50505b505050565b5f82821c905092915050565b5f611d355f1984600802611d1a565b1980831691505092915050565b5f611d4d8383611d26565b9150826002028217905092915050565b611d668261145c565b67ffffffffffffffff811115611d7f57611d7e611723565b5b611d898254611970565b611d94828285611cd4565b5f60209050601f831160018114611dc5575f8415611db3578287015190505b611dbd8582611d42565b865550611e24565b601f198416611dd386611bc6565b5f5b82811015611dfa57848901518255600182019150602085019450602081019050611dd5565b86831015611e175784890151611e13601f891682611d26565b8355505b6001600288020188555050505b505050505050565b611e358161151c565b82525050565b5f604082019050611e4e5f830185611e2c565b611e5b60208301846115fb565b9392505050565b5f611e6c82611557565b9150611e7783611557565b9250828201905080821115611e8f57611e8e611a96565b5b92915050565b7f4e6f7420656e6f756768206d696c6573000000000000000000000000000000005f82015250565b5f611ec9601083611466565b9150611ed482611e95565b602082019050919050565b5f6020820190508181035f830152611ef681611ebd565b9050919050565b7f45524332303a207472616e736665722066726f6d20746865207a65726f2061645f8201527f6472657373000000000000000000000000000000000000000000000000000000602082015250565b5f611f57602583611466565b9150611f6282611efd565b604082019050919050565b5f6020820190508181035f830152611f8481611f4b565b9050919050565b7f45524332303a207472616e7366657220746f20746865207a65726f20616464725f8201527f6573730000000000000000000000000000000000000000000000000000000000602082015250565b5f611fe5602383611466565b9150611ff082611f8b565b604082019050919050565b5f6020820190508181035f83015261201281611fd9565b9050919050565b7f45524332303a207472616e7366657220616d6f756e74206578636565647320625f8201527f616c616e63650000000000000000000000000000000000000000000000000000602082015250565b5f612073602683611466565b915061207e82612019565b604082019050919050565b5f6020820190508181035f8301526120a081612067565b9050919050565b7f45524332303a206d696e7420746f20746865207a65726f2061646472657373005f82015250565b5f6120db601f83611466565b91506120e6826120a7565b602082019050919050565b5f6020820190508181035f830152612108816120cf565b9050919050565b7f4e6f2068617920616464726573730000000000000000000000000000000000005f82015250565b5f612143600e83611466565b915061214e8261210f565b602082019050919050565b5f6020820190508181035f83015261217081612137565b9050919050565b7f4e6f2068617920737566696369656e74657320746f6b656e732e0000000000005f82015250565b5f6121ab601a83611466565b91506121b682612177565b602082019050919050565b5f6020820190508181035f8301526121d88161219f565b905091905056fea264697066735822122097d88f202502a8eb40cc5e657c9faf65b69a731d92946a1c0e27a17a3633fb8964736f6c634300081f0033",
					"opcodes": "PUSH1 0x80 PUSH1 0x40 MSTORE CALLVALUE DUP1 ISZERO PUSH2 0xF JUMPI PUSH0 PUSH0 REVERT JUMPDEST POP PUSH1 0x40 MLOAD PUSH2 0x2A57 CODESIZE SUB DUP1 PUSH2 0x2A57 DUP4 CODECOPY DUP2 DUP2 ADD PUSH1 0x40 MSTORE DUP2 ADD SWAP1 PUSH2 0x31 SWAP2 SWAP1 PUSH2 0x3C3 JUMP JUMPDEST DUP4 DUP4 DUP4 DUP4 DUP4 PUSH0 SWAP1 DUP2 PUSH2 0x43 SWAP2 SWAP1 PUSH2 0x666 JUMP JUMPDEST POP DUP3 PUSH1 0x1 SWAP1 DUP2 PUSH2 0x53 SWAP2 SWAP1 PUSH2 0x666 JUMP JUMPDEST POP DUP2 PUSH1 0x2 PUSH0 PUSH2 0x100 EXP DUP2 SLOAD DUP2 PUSH1 0xFF MUL NOT AND SWAP1 DUP4 PUSH1 0xFF AND MUL OR SWAP1 SSTORE POP PUSH2 0x7E CALLER DUP3 PUSH2 0xCB PUSH1 0x20 SHL PUSH1 0x20 SHR JUMP JUMPDEST POP POP POP POP CALLER PUSH1 0x9 PUSH0 PUSH2 0x100 EXP DUP2 SLOAD DUP2 PUSH20 0xFFFFFFFFFFFFFFFFFFFFFFFFFFFFFFFFFFFFFFFF MUL NOT AND SWAP1 DUP4 PUSH20 0xFFFFFFFFFFFFFFFFFFFFFFFFFFFFFFFFFFFFFFFF AND MUL OR SWAP1 SSTORE POP POP POP POP POP PUSH2 0x835 JUMP JUMPDEST PUSH0 PUSH20 0xFFFFFFFFFFFFFFFFFFFFFFFFFFFFFFFFFFFFFFFF AND DUP3 PUSH20 0xFFFFFFFFFFFFFFFFFFFFFFFFFFFFFFFFFFFFFFFF AND SUB PUSH2 0x139 JUMPI PUSH1 0x40 MLOAD PUSH32 0x8C379A000000000000000000000000000000000000000000000000000000000 DUP2 MSTORE PUSH1 0x4 ADD PUSH2 0x130 SWAP1 PUSH2 0x78F JUMP JUMPDEST PUSH1 0x40 MLOAD DUP1 SWAP2 SUB SWAP1 REVERT JUMPDEST DUP1 PUSH1 0x3 PUSH0 DUP3 DUP3 SLOAD PUSH2 0x14A SWAP2 SWAP1 PUSH2 0x7DA JUMP JUMPDEST SWAP3 POP POP DUP2 SWAP1 SSTORE POP DUP1 PUSH1 0x4 PUSH0 DUP5 PUSH20 0xFFFFFFFFFFFFFFFFFFFFFFFFFFFFFFFFFFFFFFFF AND PUSH20 0xFFFFFFFFFFFFFFFFFFFFFFFFFFFFFFFFFFFFFFFF AND DUP2 MSTORE PUSH1 0x20 ADD SWAP1 DUP2 MSTORE PUSH1 0x20 ADD PUSH0 KECCAK256 PUSH0 DUP3 DUP3 SLOAD PUSH2 0x19D SWAP2 SWAP1 PUSH2 0x7DA JUMP JUMPDEST SWAP3 POP POP DUP2 SWAP1 SSTORE POP DUP2 PUSH20 0xFFFFFFFFFFFFFFFFFFFFFFFFFFFFFFFFFFFFFFFF AND PUSH0 PUSH20 0xFFFFFFFFFFFFFFFFFFFFFFFFFFFFFFFFFFFFFFFF AND PUSH32 0xDDF252AD1BE2C89B69C2B068FC378DAA952BA7F163C4A11628F55A4DF523B3EF DUP4 PUSH1 0x40 MLOAD PUSH2 0x201 SWAP2 SWAP1 PUSH2 0x81C JUMP JUMPDEST PUSH1 0x40 MLOAD DUP1 SWAP2 SUB SWAP1 LOG3 POP POP JUMP JUMPDEST PUSH0 PUSH1 0x40 MLOAD SWAP1 POP SWAP1 JUMP JUMPDEST PUSH0 PUSH0 REVERT JUMPDEST PUSH0 PUSH0 REVERT JUMPDEST PUSH0 PUSH0 REVERT JUMPDEST PUSH0 PUSH0 REVERT JUMPDEST PUSH0 PUSH1 0x1F NOT PUSH1 0x1F DUP4 ADD AND SWAP1 POP SWAP2 SWAP1 POP JUMP JUMPDEST PUSH32 0x4E487B7100000000000000000000000000000000000000000000000000000000 PUSH0 MSTORE PUSH1 0x41 PUSH1 0x4 MSTORE PUSH1 0x24 PUSH0 REVERT JUMPDEST PUSH2 0x26C DUP3 PUSH2 0x226 JUMP JUMPDEST DUP2 ADD DUP2 DUP2 LT PUSH8 0xFFFFFFFFFFFFFFFF DUP3 GT OR ISZERO PUSH2 0x28B JUMPI PUSH2 0x28A PUSH2 0x236 JUMP JUMPDEST JUMPDEST DUP1 PUSH1 0x40 MSTORE POP POP POP JUMP JUMPDEST PUSH0 PUSH2 0x29D PUSH2 0x20D JUMP JUMPDEST SWAP1 POP PUSH2 0x2A9 DUP3 DUP3 PUSH2 0x263 JUMP JUMPDEST SWAP2 SWAP1 POP JUMP JUMPDEST PUSH0 PUSH8 0xFFFFFFFFFFFFFFFF DUP3 GT ISZERO PUSH2 0x2C8 JUMPI PUSH2 0x2C7 PUSH2 0x236 JUMP JUMPDEST JUMPDEST PUSH2 0x2D1 DUP3 PUSH2 0x226 JUMP JUMPDEST SWAP1 POP PUSH1 0x20 DUP2 ADD SWAP1 POP SWAP2 SWAP1 POP JUMP JUMPDEST DUP3 DUP2 DUP4 MCOPY PUSH0 DUP4 DUP4 ADD MSTORE POP POP POP JUMP JUMPDEST PUSH0 PUSH2 0x2FE PUSH2 0x2F9 DUP5 PUSH2 0x2AE JUMP JUMPDEST PUSH2 0x294 JUMP JUMPDEST SWAP1 POP DUP3 DUP2 MSTORE PUSH1 0x20 DUP2 ADD DUP5 DUP5 DUP5 ADD GT ISZERO PUSH2 0x31A JUMPI PUSH2 0x319 PUSH2 0x222 JUMP JUMPDEST JUMPDEST PUSH2 0x325 DUP5 DUP3 DUP6 PUSH2 0x2DE JUMP JUMPDEST POP SWAP4 SWAP3 POP POP POP JUMP JUMPDEST PUSH0 DUP3 PUSH1 0x1F DUP4 ADD SLT PUSH2 0x341 JUMPI PUSH2 0x340 PUSH2 0x21E JUMP JUMPDEST JUMPDEST DUP2 MLOAD PUSH2 0x351 DUP5 DUP3 PUSH1 0x20 DUP7 ADD PUSH2 0x2EC JUMP JUMPDEST SWAP2 POP POP SWAP3 SWAP2 POP POP JUMP JUMPDEST PUSH0 PUSH1 0xFF DUP3 AND SWAP1 POP SWAP2 SWAP1 POP JUMP JUMPDEST PUSH2 0x36F DUP2 PUSH2 0x35A JUMP JUMPDEST DUP2 EQ PUSH2 0x379 JUMPI PUSH0 PUSH0 REVERT JUMPDEST POP JUMP JUMPDEST PUSH0 DUP2 MLOAD SWAP1 POP PUSH2 0x38A DUP2 PUSH2 0x366 JUMP JUMPDEST SWAP3 SWAP2 POP POP JUMP JUMPDEST PUSH0 DUP2 SWAP1 POP SWAP2 SWAP1 POP JUMP JUMPDEST PUSH2 0x3A2 DUP2 PUSH2 0x390 JUMP JUMPDEST DUP2 EQ PUSH2 0x3AC JUMPI PUSH0 PUSH0 REVERT JUMPDEST POP JUMP JUMPDEST PUSH0 DUP2 MLOAD SWAP1 POP PUSH2 0x3BD DUP2 PUSH2 0x399 JUMP JUMPDEST SWAP3 SWAP2 POP POP JUMP JUMPDEST PUSH0 PUSH0 PUSH0 PUSH0 PUSH1 0x80 DUP6 DUP8 SUB SLT ISZERO PUSH2 0x3DB JUMPI PUSH2 0x3DA PUSH2 0x216 JUMP JUMPDEST JUMPDEST PUSH0 DUP6 ADD MLOAD PUSH8 0xFFFFFFFFFFFFFFFF DUP2 GT ISZERO PUSH2 0x3F8 JUMPI PUSH2 0x3F7 PUSH2 0x21A JUMP JUMPDEST JUMPDEST PUSH2 0x404 DUP8 DUP3 DUP9 ADD PUSH2 0x32D JUMP JUMPDEST SWAP5 POP POP PUSH1 0x20 DUP6 ADD MLOAD PUSH8 0xFFFFFFFFFFFFFFFF DUP2 GT ISZERO PUSH2 0x425 JUMPI PUSH2 0x424 PUSH2 0x21A JUMP JUMPDEST JUMPDEST PUSH2 0x431 DUP8 DUP3 DUP9 ADD PUSH2 0x32D JUMP JUMPDEST SWAP4 POP POP PUSH1 0x40 PUSH2 0x442 DUP8 DUP3 DUP9 ADD PUSH2 0x37C JUMP JUMPDEST SWAP3 POP POP PUSH1 0x60 PUSH2 0x453 DUP8 DUP3 DUP9 ADD PUSH2 0x3AF JUMP JUMPDEST SWAP2 POP POP SWAP3 SWAP6 SWAP2 SWAP5 POP SWAP3 POP JUMP JUMPDEST PUSH0 DUP2 MLOAD SWAP1 POP SWAP2 SWAP1 POP JUMP JUMPDEST PUSH32 0x4E487B7100000000000000000000000000000000000000000000000000000000 PUSH0 MSTORE PUSH1 0x22 PUSH1 0x4 MSTORE PUSH1 0x24 PUSH0 REVERT JUMPDEST PUSH0 PUSH1 0x2 DUP3 DIV SWAP1 POP PUSH1 0x1 DUP3 AND DUP1 PUSH2 0x4AD JUMPI PUSH1 0x7F DUP3 AND SWAP2 POP JUMPDEST PUSH1 0x20 DUP3 LT DUP2 SUB PUSH2 0x4C0 JUMPI PUSH2 0x4BF PUSH2 0x469 JUMP JUMPDEST JUMPDEST POP SWAP2 SWAP1 POP JUMP JUMPDEST PUSH0 DUP2 SWAP1 POP DUP2 PUSH0 MSTORE PUSH1 0x20 PUSH0 KECCAK256 SWAP1 POP SWAP2 SWAP1 POP JUMP JUMPDEST PUSH0 PUSH1 0x20 PUSH1 0x1F DUP4 ADD DIV SWAP1 POP SWAP2 SWAP1 POP JUMP JUMPDEST PUSH0 DUP3 DUP3 SHL SWAP1 POP SWAP3 SWAP2 POP POP JUMP JUMPDEST PUSH0 PUSH1 0x8 DUP4 MUL PUSH2 0x522 PUSH32 0xFFFFFFFFFFFFFFFFFFFFFFFFFFFFFFFFFFFFFFFFFFFFFFFFFFFFFFFFFFFFFFFF DUP3 PUSH2 0x4E7 JUMP JUMPDEST PUSH2 0x52C DUP7 DUP4 PUSH2 0x4E7 JUMP JUMPDEST SWAP6 POP DUP1 NOT DUP5 AND SWAP4 POP DUP1 DUP7 AND DUP5 OR SWAP3 POP POP POP SWAP4 SWAP3 POP POP POP JUMP JUMPDEST PUSH0 DUP2 SWAP1 POP SWAP2 SWAP1 POP JUMP JUMPDEST PUSH0 PUSH2 0x567 PUSH2 0x562 PUSH2 0x55D DUP5 PUSH2 0x390 JUMP JUMPDEST PUSH2 0x544 JUMP JUMPDEST PUSH2 0x390 JUMP JUMPDEST SWAP1 POP SWAP2 SWAP1 POP JUMP JUMPDEST PUSH0 DUP2 SWAP1 POP SWAP2 SWAP1 POP JUMP JUMPDEST PUSH2 0x580 DUP4 PUSH2 0x54D JUMP JUMPDEST PUSH2 0x594 PUSH2 0x58C DUP3 PUSH2 0x56E JUMP JUMPDEST DUP5 DUP5 SLOAD PUSH2 0x4F3 JUMP JUMPDEST DUP3 SSTORE POP POP POP POP JUMP JUMPDEST PUSH0 PUSH0 SWAP1 POP SWAP1 JUMP JUMPDEST PUSH2 0x5AB PUSH2 0x59C JUMP JUMPDEST PUSH2 0x5B6 DUP2 DUP5 DUP5 PUSH2 0x577 JUMP JUMPDEST POP POP POP JUMP JUMPDEST JUMPDEST DUP2 DUP2 LT ISZERO PUSH2 0x5D9 JUMPI PUSH2 0x5CE PUSH0 DUP3 PUSH2 0x5A3 JUMP JUMPDEST PUSH1 0x1 DUP2 ADD SWAP1 POP PUSH2 0x5BC JUMP JUMPDEST POP POP JUMP JUMPDEST PUSH1 0x1F DUP3 GT ISZERO PUSH2 0x61E JUMPI PUSH2 0x5EF DUP2 PUSH2 0x4C6 JUMP JUMPDEST PUSH2 0x5F8 DUP5 PUSH2 0x4D8 JUMP JUMPDEST DUP2 ADD PUSH1 0x20 DUP6 LT ISZERO PUSH2 0x607 JUMPI DUP2 SWAP1 POP JUMPDEST PUSH2 0x61B PUSH2 0x613 DUP6 PUSH2 0x4D8 JUMP JUMPDEST DUP4 ADD DUP3 PUSH2 0x5BB JUMP JUMPDEST POP POP JUMPDEST POP POP POP JUMP JUMPDEST PUSH0 DUP3 DUP3 SHR SWAP1 POP SWAP3 SWAP2 POP POP JUMP JUMPDEST PUSH0 PUSH2 0x63E PUSH0 NOT DUP5 PUSH1 0x8 MUL PUSH2 0x623 JUMP JUMPDEST NOT DUP1 DUP4 AND SWAP2 POP POP SWAP3 SWAP2 POP POP JUMP JUMPDEST PUSH0 PUSH2 0x656 DUP4 DUP4 PUSH2 0x62F JUMP JUMPDEST SWAP2 POP DUP3 PUSH1 0x2 MUL DUP3 OR SWAP1 POP SWAP3 SWAP2 POP POP JUMP JUMPDEST PUSH2 0x66F DUP3 PUSH2 0x45F JUMP JUMPDEST PUSH8 0xFFFFFFFFFFFFFFFF DUP2 GT ISZERO PUSH2 0x688 JUMPI PUSH2 0x687 PUSH2 0x236 JUMP JUMPDEST JUMPDEST PUSH2 0x692 DUP3 SLOAD PUSH2 0x496 JUMP JUMPDEST PUSH2 0x69D DUP3 DUP3 DUP6 PUSH2 0x5DD JUMP JUMPDEST PUSH0 PUSH1 0x20 SWAP1 POP PUSH1 0x1F DUP4 GT PUSH1 0x1 DUP2 EQ PUSH2 0x6CE JUMPI PUSH0 DUP5 ISZERO PUSH2 0x6BC JUMPI DUP3 DUP8 ADD MLOAD SWAP1 POP JUMPDEST PUSH2 0x6C6 DUP6 DUP3 PUSH2 0x64B JUMP JUMPDEST DUP7 SSTORE POP PUSH2 0x72D JUMP JUMPDEST PUSH1 0x1F NOT DUP5 AND PUSH2 0x6DC DUP7 PUSH2 0x4C6 JUMP JUMPDEST PUSH0 JUMPDEST DUP3 DUP2 LT ISZERO PUSH2 0x703 JUMPI DUP5 DUP10 ADD MLOAD DUP3 SSTORE PUSH1 0x1 DUP3 ADD SWAP2 POP PUSH1 0x20 DUP6 ADD SWAP5 POP PUSH1 0x20 DUP2 ADD SWAP1 POP PUSH2 0x6DE JUMP JUMPDEST DUP7 DUP4 LT ISZERO PUSH2 0x720 JUMPI DUP5 DUP10 ADD MLOAD PUSH2 0x71C PUSH1 0x1F DUP10 AND DUP3 PUSH2 0x62F JUMP JUMPDEST DUP4 SSTORE POP JUMPDEST PUSH1 0x1 PUSH1 0x2 DUP9 MUL ADD DUP9 SSTORE POP POP POP JUMPDEST POP POP POP POP POP POP JUMP JUMPDEST PUSH0 DUP3 DUP3 MSTORE PUSH1 0x20 DUP3 ADD SWAP1 POP SWAP3 SWAP2 POP POP JUMP JUMPDEST PUSH32 0x45524332303A206D696E7420746F20746865207A65726F206164647265737300 PUSH0 DUP3 ADD MSTORE POP JUMP JUMPDEST PUSH0 PUSH2 0x779 PUSH1 0x1F DUP4 PUSH2 0x735 JUMP JUMPDEST SWAP2 POP PUSH2 0x784 DUP3 PUSH2 0x745 JUMP JUMPDEST PUSH1 0x20 DUP3 ADD SWAP1 POP SWAP2 SWAP1 POP JUMP JUMPDEST PUSH0 PUSH1 0x20 DUP3 ADD SWAP1 POP DUP2 DUP2 SUB PUSH0 DUP4 ADD MSTORE PUSH2 0x7A6 DUP2 PUSH2 0x76D JUMP JUMPDEST SWAP1 POP SWAP2 SWAP1 POP JUMP JUMPDEST PUSH32 0x4E487B7100000000000000000000000000000000000000000000000000000000 PUSH0 MSTORE PUSH1 0x11 PUSH1 0x4 MSTORE PUSH1 0x24 PUSH0 REVERT JUMPDEST PUSH0 PUSH2 0x7E4 DUP3 PUSH2 0x390 JUMP JUMPDEST SWAP2 POP PUSH2 0x7EF DUP4 PUSH2 0x390 JUMP JUMPDEST SWAP3 POP DUP3 DUP3 ADD SWAP1 POP DUP1 DUP3 GT ISZERO PUSH2 0x807 JUMPI PUSH2 0x806 PUSH2 0x7AD JUMP JUMPDEST JUMPDEST SWAP3 SWAP2 POP POP JUMP JUMPDEST PUSH2 0x816 DUP2 PUSH2 0x390 JUMP JUMPDEST DUP3 MSTORE POP POP JUMP JUMPDEST PUSH0 PUSH1 0x20 DUP3 ADD SWAP1 POP PUSH2 0x82F PUSH0 DUP4 ADD DUP5 PUSH2 0x80D JUMP JUMPDEST SWAP3 SWAP2 POP POP JUMP JUMPDEST PUSH2 0x2215 DUP1 PUSH2 0x842 PUSH0 CODECOPY PUSH0 RETURN INVALID PUSH1 0x80 PUSH1 0x40 MSTORE CALLVALUE DUP1 ISZERO PUSH2 0xF JUMPI PUSH0 PUSH0 REVERT JUMPDEST POP PUSH1 0x4 CALLDATASIZE LT PUSH2 0xFE JUMPI PUSH0 CALLDATALOAD PUSH1 0xE0 SHR DUP1 PUSH4 0x70A08231 GT PUSH2 0x95 JUMPI DUP1 PUSH4 0xA401D24D GT PUSH2 0x64 JUMPI DUP1 PUSH4 0xA401D24D EQ PUSH2 0x29A JUMPI DUP1 PUSH4 0xA9059CBB EQ PUSH2 0x2B6 JUMPI DUP1 PUSH4 0xD1DF306C EQ PUSH2 0x2E6 JUMPI DUP1 PUSH4 0xDD62ED3E EQ PUSH2 0x302 JUMPI PUSH2 0xFE JUMP JUMPDEST DUP1 PUSH4 0x70A08231 EQ PUSH2 0x212 JUMPI DUP1 PUSH4 0x8DA5CB5B EQ PUSH2 0x242 JUMPI DUP1 PUSH4 0x95D89B41 EQ PUSH2 0x260 JUMPI DUP1 PUSH4 0x9DC29FAC EQ PUSH2 0x27E JUMPI PUSH2 0xFE JUMP JUMPDEST DUP1 PUSH4 0x23B872DD GT PUSH2 0xD1 JUMPI DUP1 PUSH4 0x23B872DD EQ PUSH2 0x18C JUMPI DUP1 PUSH4 0x313CE567 EQ PUSH2 0x1BC JUMPI DUP1 PUSH4 0x32434A2E EQ PUSH2 0x1DA JUMPI DUP1 PUSH4 0x40C10F19 EQ PUSH2 0x1F6 JUMPI PUSH2 0xFE JUMP JUMPDEST DUP1 PUSH4 0x6FDDE03 EQ PUSH2 0x102 JUMPI DUP1 PUSH4 0x95EA7B3 EQ PUSH2 0x120 JUMPI DUP1 PUSH4 0x18160DDD EQ PUSH2 0x150 JUMPI DUP1 PUSH4 0x21DF0DA7 EQ PUSH2 0x16E JUMPI JUMPDEST PUSH0 PUSH0 REVERT JUMPDEST PUSH2 0x10A PUSH2 0x332 JUMP JUMPDEST PUSH1 0x40 MLOAD PUSH2 0x117 SWAP2 SWAP1 PUSH2 0x14CC JUMP JUMPDEST PUSH1 0x40 MLOAD DUP1 SWAP2 SUB SWAP1 RETURN JUMPDEST PUSH2 0x13A PUSH1 0x4 DUP1 CALLDATASIZE SUB DUP2 ADD SWAP1 PUSH2 0x135 SWAP2 SWAP1 PUSH2 0x158A JUMP JUMPDEST PUSH2 0x3C1 JUMP JUMPDEST PUSH1 0x40 MLOAD PUSH2 0x147 SWAP2 SWAP1 PUSH2 0x15E2 JUMP JUMPDEST PUSH1 0x40 MLOAD DUP1 SWAP2 SUB SWAP1 RETURN JUMPDEST PUSH2 0x158 PUSH2 0x51C JUMP JUMPDEST PUSH1 0x40 MLOAD PUSH2 0x165 SWAP2 SWAP1 PUSH2 0x160A JUMP JUMPDEST PUSH1 0x40 MLOAD DUP1 SWAP2 SUB SWAP1 RETURN JUMPDEST PUSH2 0x176 PUSH2 0x525 JUMP JUMPDEST PUSH1 0x40 MLOAD PUSH2 0x183 SWAP2 SWAP1 PUSH2 0x167E JUMP JUMPDEST PUSH1 0x40 MLOAD DUP1 SWAP2 SUB SWAP1 RETURN JUMPDEST PUSH2 0x1A6 PUSH1 0x4 DUP1 CALLDATASIZE SUB DUP2 ADD SWAP1 PUSH2 0x1A1 SWAP2 SWAP1 PUSH2 0x1697 JUMP JUMPDEST PUSH2 0x54D JUMP JUMPDEST PUSH1 0x40 MLOAD PUSH2 0x1B3 SWAP2 SWAP1 PUSH2 0x15E2 JUMP JUMPDEST PUSH1 0x40 MLOAD DUP1 SWAP2 SUB SWAP1 RETURN JUMPDEST PUSH2 0x1C4 PUSH2 0x789 JUMP JUMPDEST PUSH1 0x40 MLOAD PUSH2 0x1D1 SWAP2 SWAP1 PUSH2 0x1702 JUMP JUMPDEST PUSH1 0x40 MLOAD DUP1 SWAP2 SUB SWAP1 RETURN JUMPDEST PUSH2 0x1F4 PUSH1 0x4 DUP1 CALLDATASIZE SUB DUP2 ADD SWAP1 PUSH2 0x1EF SWAP2 SWAP1 PUSH2 0x1847 JUMP JUMPDEST PUSH2 0x79E JUMP JUMPDEST STOP JUMPDEST PUSH2 0x210 PUSH1 0x4 DUP1 CALLDATASIZE SUB DUP2 ADD SWAP1 PUSH2 0x20B SWAP2 SWAP1 PUSH2 0x158A JUMP JUMPDEST PUSH2 0x9D7 JUMP JUMPDEST STOP JUMPDEST PUSH2 0x22C PUSH1 0x4 DUP1 CALLDATASIZE SUB DUP2 ADD SWAP1 PUSH2 0x227 SWAP2 SWAP1 PUSH2 0x18A1 JUMP JUMPDEST PUSH2 0x9E5 JUMP JUMPDEST PUSH1 0x40 MLOAD PUSH2 0x239 SWAP2 SWAP1 PUSH2 0x160A JUMP JUMPDEST PUSH1 0x40 MLOAD DUP1 SWAP2 SUB SWAP1 RETURN JUMPDEST PUSH2 0x24A PUSH2 0xA2B JUMP JUMPDEST PUSH1 0x40 MLOAD PUSH2 0x257 SWAP2 SWAP1 PUSH2 0x18EC JUMP JUMPDEST PUSH1 0x40 MLOAD DUP1 SWAP2 SUB SWAP1 RETURN JUMPDEST PUSH2 0x268 PUSH2 0xA50 JUMP JUMPDEST PUSH1 0x40 MLOAD PUSH2 0x275 SWAP2 SWAP1 PUSH2 0x14CC JUMP JUMPDEST PUSH1 0x40 MLOAD DUP1 SWAP2 SUB SWAP1 RETURN JUMPDEST PUSH2 0x298 PUSH1 0x4 DUP1 CALLDATASIZE SUB DUP2 ADD SWAP1 PUSH2 0x293 SWAP2 SWAP1 PUSH2 0x158A JUMP JUMPDEST PUSH2 0xAE0 JUMP JUMPDEST STOP JUMPDEST PUSH2 0x2B4 PUSH1 0x4 DUP1 CALLDATASIZE SUB DUP2 ADD SWAP1 PUSH2 0x2AF SWAP2 SWAP1 PUSH2 0x158A JUMP JUMPDEST PUSH2 0xAEE JUMP JUMPDEST STOP JUMPDEST PUSH2 0x2D0 PUSH1 0x4 DUP1 CALLDATASIZE SUB DUP2 ADD SWAP1 PUSH2 0x2CB SWAP2 SWAP1 PUSH2 0x158A JUMP JUMPDEST PUSH2 0xC60 JUMP JUMPDEST PUSH1 0x40 MLOAD PUSH2 0x2DD SWAP2 SWAP1 PUSH2 0x15E2 JUMP JUMPDEST PUSH1 0x40 MLOAD DUP1 SWAP2 SUB SWAP1 RETURN JUMPDEST PUSH2 0x300 PUSH1 0x4 DUP1 CALLDATASIZE SUB DUP2 ADD SWAP1 PUSH2 0x2FB SWAP2 SWAP1 PUSH2 0x158A JUMP JUMPDEST PUSH2 0xC76 JUMP JUMPDEST STOP JUMPDEST PUSH2 0x31C PUSH1 0x4 DUP1 CALLDATASIZE SUB DUP2 ADD SWAP1 PUSH2 0x317 SWAP2 SWAP1 PUSH2 0x1905 JUMP JUMPDEST PUSH2 0xE6B JUMP JUMPDEST PUSH1 0x40 MLOAD PUSH2 0x329 SWAP2 SWAP1 PUSH2 0x160A JUMP JUMPDEST PUSH1 0x40 MLOAD DUP1 SWAP2 SUB SWAP1 RETURN JUMPDEST PUSH1 0x60 PUSH0 DUP1 SLOAD PUSH2 0x340 SWAP1 PUSH2 0x1970 JUMP JUMPDEST DUP1 PUSH1 0x1F ADD PUSH1 0x20 DUP1 SWAP2 DIV MUL PUSH1 0x20 ADD PUSH1 0x40 MLOAD SWAP1 DUP2 ADD PUSH1 0x40 MSTORE DUP1 SWAP3 SWAP2 SWAP1 DUP2 DUP2 MSTORE PUSH1 0x20 ADD DUP3 DUP1 SLOAD PUSH2 0x36C SWAP1 PUSH2 0x1970 JUMP JUMPDEST DUP1 ISZERO PUSH2 0x3B7 JUMPI DUP1 PUSH1 0x1F LT PUSH2 0x38E JUMPI PUSH2 0x100 DUP1 DUP4 SLOAD DIV MUL DUP4 MSTORE SWAP2 PUSH1 0x20 ADD SWAP2 PUSH2 0x3B7 JUMP JUMPDEST DUP3 ADD SWAP2 SWAP1 PUSH0 MSTORE PUSH1 0x20 PUSH0 KECCAK256 SWAP1 JUMPDEST DUP2 SLOAD DUP2 MSTORE SWAP1 PUSH1 0x1 ADD SWAP1 PUSH1 0x20 ADD DUP1 DUP4 GT PUSH2 0x39A JUMPI DUP3 SWAP1 SUB PUSH1 0x1F AND DUP3 ADD SWAP2 JUMPDEST POP POP POP POP POP SWAP1 POP SWAP1 JUMP JUMPDEST PUSH0 PUSH0 PUSH20 0xFFFFFFFFFFFFFFFFFFFFFFFFFFFFFFFFFFFFFFFF AND DUP4 PUSH20 0xFFFFFFFFFFFFFFFFFFFFFFFFFFFFFFFFFFFFFFFF AND SUB PUSH2 0x430 JUMPI PUSH1 0x40 MLOAD PUSH32 0x8C379A000000000000000000000000000000000000000000000000000000000 DUP2 MSTORE PUSH1 0x4 ADD PUSH2 0x427 SWAP1 PUSH2 0x1A10 JUMP JUMPDEST PUSH1 0x40 MLOAD DUP1 SWAP2 SUB SWAP1 REVERT JUMPDEST DUP2 PUSH1 0x5 PUSH0 CALLER PUSH20 0xFFFFFFFFFFFFFFFFFFFFFFFFFFFFFFFFFFFFFFFF AND PUSH20 0xFFFFFFFFFFFFFFFFFFFFFFFFFFFFFFFFFFFFFFFF AND DUP2 MSTORE PUSH1 0x20 ADD SWAP1 DUP2 MSTORE PUSH1 0x20 ADD PUSH0 KECCAK256 PUSH0 DUP6 PUSH20 0xFFFFFFFFFFFFFFFFFFFFFFFFFFFFFFFFFFFFFFFF AND PUSH20 0xFFFFFFFFFFFFFFFFFFFFFFFFFFFFFFFFFFFFFFFF AND DUP2 MSTORE PUSH1 0x20 ADD SWAP1 DUP2 MSTORE PUSH1 0x20 ADD PUSH0 KECCAK256 DUP2 SWAP1 SSTORE POP DUP3 PUSH20 0xFFFFFFFFFFFFFFFFFFFFFFFFFFFFFFFFFFFFFFFF AND CALLER PUSH20 0xFFFFFFFFFFFFFFFFFFFFFFFFFFFFFFFFFFFFFFFF AND PUSH32 0x8C5BE1E5EBEC7D5BD14F71427D1E84F3DD0314C0F7B2291E5B200AC8C7C3B925 DUP5 PUSH1 0x40 MLOAD PUSH2 0x50A SWAP2 SWAP1 PUSH2 0x160A JUMP JUMPDEST PUSH1 0x40 MLOAD DUP1 SWAP2 SUB SWAP1 LOG3 PUSH1 0x1 SWAP1 POP SWAP3 SWAP2 POP POP JUMP JUMPDEST PUSH0 PUSH1 0x3 SLOAD SWAP1 POP SWAP1 JUMP JUMPDEST PUSH0 PUSH1 0x7 PUSH0 SWAP1 SLOAD SWAP1 PUSH2 0x100 EXP SWAP1 DIV PUSH20 0xFFFFFFFFFFFFFFFFFFFFFFFFFFFFFFFFFFFFFFFF AND SWAP1 POP SWAP1 JUMP JUMPDEST PUSH0 PUSH0 PUSH1 0x5 PUSH0 DUP7 PUSH20 0xFFFFFFFFFFFFFFFFFFFFFFFFFFFFFFFFFFFFFFFF AND PUSH20 0xFFFFFFFFFFFFFFFFFFFFFFFFFFFFFFFFFFFFFFFF AND DUP2 MSTORE PUSH1 0x20 ADD SWAP1 DUP2 MSTORE PUSH1 0x20 ADD PUSH0 KECCAK256 PUSH0 CALLER PUSH20 0xFFFFFFFFFFFFFFFFFFFFFFFFFFFFFFFFFFFFFFFF AND PUSH20 0xFFFFFFFFFFFFFFFFFFFFFFFFFFFFFFFFFFFFFFFF AND DUP2 MSTORE PUSH1 0x20 ADD SWAP1 DUP2 MSTORE PUSH1 0x20 ADD PUSH0 KECCAK256 SLOAD SWAP1 POP DUP3 DUP2 LT ISZERO PUSH2 0x60D JUMPI PUSH1 0x40 MLOAD PUSH32 0x8C379A000000000000000000000000000000000000000000000000000000000 DUP2 MSTORE PUSH1 0x4 ADD PUSH2 0x604 SWAP1 PUSH2 0x1A78 JUMP JUMPDEST PUSH1 0x40 MLOAD DUP1 SWAP2 SUB SWAP1 REVERT JUMPDEST DUP3 DUP2 PUSH2 0x619 SWAP2 SWAP1 PUSH2 0x1AC3 JUMP JUMPDEST PUSH1 0x5 PUSH0 DUP8 PUSH20 0xFFFFFFFFFFFFFFFFFFFFFFFFFFFFFFFFFFFFFFFF AND PUSH20 0xFFFFFFFFFFFFFFFFFFFFFFFFFFFFFFFFFFFFFFFF AND DUP2 MSTORE PUSH1 0x20 ADD SWAP1 DUP2 MSTORE PUSH1 0x20 ADD PUSH0 KECCAK256 PUSH0 CALLER PUSH20 0xFFFFFFFFFFFFFFFFFFFFFFFFFFFFFFFFFFFFFFFF AND PUSH20 0xFFFFFFFFFFFFFFFFFFFFFFFFFFFFFFFFFFFFFFFF AND DUP2 MSTORE PUSH1 0x20 ADD SWAP1 DUP2 MSTORE PUSH1 0x20 ADD PUSH0 KECCAK256 DUP2 SWAP1 SSTORE POP CALLER PUSH20 0xFFFFFFFFFFFFFFFFFFFFFFFFFFFFFFFFFFFFFFFF AND DUP6 PUSH20 0xFFFFFFFFFFFFFFFFFFFFFFFFFFFFFFFFFFFFFFFF AND PUSH32 0x8C5BE1E5EBEC7D5BD14F71427D1E84F3DD0314C0F7B2291E5B200AC8C7C3B925 PUSH1 0x5 PUSH0 DUP10 PUSH20 0xFFFFFFFFFFFFFFFFFFFFFFFFFFFFFFFFFFFFFFFF AND PUSH20 0xFFFFFFFFFFFFFFFFFFFFFFFFFFFFFFFFFFFFFFFF AND DUP2 MSTORE PUSH1 0x20 ADD SWAP1 DUP2 MSTORE PUSH1 0x20 ADD PUSH0 KECCAK256 PUSH0 CALLER PUSH20 0xFFFFFFFFFFFFFFFFFFFFFFFFFFFFFFFFFFFFFFFF AND PUSH20 0xFFFFFFFFFFFFFFFFFFFFFFFFFFFFFFFFFFFFFFFF AND DUP2 MSTORE PUSH1 0x20 ADD SWAP1 DUP2 MSTORE PUSH1 0x20 ADD PUSH0 KECCAK256 SLOAD PUSH1 0x40 MLOAD PUSH2 0x76A SWAP2 SWAP1 PUSH2 0x160A JUMP JUMPDEST PUSH1 0x40 MLOAD DUP1 SWAP2 SUB SWAP1 LOG3 PUSH2 0x77D DUP6 DUP6 DUP6 PUSH2 0xEED JUMP JUMPDEST PUSH1 0x1 SWAP2 POP POP SWAP4 SWAP3 POP POP POP JUMP JUMPDEST PUSH0 PUSH1 0x2 PUSH0 SWAP1 SLOAD SWAP1 PUSH2 0x100 EXP SWAP1 DIV PUSH1 0xFF AND SWAP1 POP SWAP1 JUMP JUMPDEST PUSH1 0x9 PUSH0 SWAP1 SLOAD SWAP1 PUSH2 0x100 EXP SWAP1 DIV PUSH20 0xFFFFFFFFFFFFFFFFFFFFFFFFFFFFFFFFFFFFFFFF AND PUSH20 0xFFFFFFFFFFFFFFFFFFFFFFFFFFFFFFFFFFFFFFFF AND CALLER PUSH20 0xFFFFFFFFFFFFFFFFFFFFFFFFFFFFFFFFFFFFFFFF AND EQ PUSH2 0x82D JUMPI PUSH1 0x40 MLOAD PUSH32 0x8C379A000000000000000000000000000000000000000000000000000000000 DUP2 MSTORE PUSH1 0x4 ADD PUSH2 0x824 SWAP1 PUSH2 0x1B40 JUMP JUMPDEST PUSH1 0x40 MLOAD DUP1 SWAP2 SUB SWAP1 REVERT JUMPDEST PUSH0 PUSH20 0xFFFFFFFFFFFFFFFFFFFFFFFFFFFFFFFFFFFFFFFF AND PUSH1 0xA PUSH0 DUP5 PUSH20 0xFFFFFFFFFFFFFFFFFFFFFFFFFFFFFFFFFFFFFFFF AND PUSH20 0xFFFFFFFFFFFFFFFFFFFFFFFFFFFFFFFFFFFFFFFF AND DUP2 MSTORE PUSH1 0x20 ADD SWAP1 DUP2 MSTORE PUSH1 0x20 ADD PUSH0 KECCAK256 PUSH0 ADD PUSH0 SWAP1 SLOAD SWAP1 PUSH2 0x100 EXP SWAP1 DIV PUSH20 0xFFFFFFFFFFFFFFFFFFFFFFFFFFFFFFFFFFFFFFFF AND PUSH20 0xFFFFFFFFFFFFFFFFFFFFFFFFFFFFFFFFFFFFFFFF AND EQ PUSH2 0x8F9 JUMPI PUSH1 0x40 MLOAD PUSH32 0x8C379A000000000000000000000000000000000000000000000000000000000 DUP2 MSTORE PUSH1 0x4 ADD PUSH2 0x8F0 SWAP1 PUSH2 0x1BA8 JUMP JUMPDEST PUSH1 0x40 MLOAD DUP1 SWAP2 SUB SWAP1 REVERT JUMPDEST PUSH0 PUSH1 0x40 MLOAD DUP1 PUSH1 0x60 ADD PUSH1 0x40 MSTORE DUP1 DUP5 PUSH20 0xFFFFFFFFFFFFFFFFFFFFFFFFFFFFFFFFFFFFFFFF AND DUP2 MSTORE PUSH1 0x20 ADD PUSH0 DUP2 MSTORE PUSH1 0x20 ADD DUP4 DUP2 MSTORE POP SWAP1 POP DUP1 PUSH1 0xA PUSH0 DUP6 PUSH20 0xFFFFFFFFFFFFFFFFFFFFFFFFFFFFFFFFFFFFFFFF AND PUSH20 0xFFFFFFFFFFFFFFFFFFFFFFFFFFFFFFFFFFFFFFFF AND DUP2 MSTORE PUSH1 0x20 ADD SWAP1 DUP2 MSTORE PUSH1 0x20 ADD PUSH0 KECCAK256 PUSH0 DUP3 ADD MLOAD DUP2 PUSH0 ADD PUSH0 PUSH2 0x100 EXP DUP2 SLOAD DUP2 PUSH20 0xFFFFFFFFFFFFFFFFFFFFFFFFFFFFFFFFFFFFFFFF MUL NOT AND SWAP1 DUP4 PUSH20 0xFFFFFFFFFFFFFFFFFFFFFFFFFFFFFFFFFFFFFFFF AND MUL OR SWAP1 SSTORE POP PUSH1 0x20 DUP3 ADD MLOAD DUP2 PUSH1 0x1 ADD SSTORE PUSH1 0x40 DUP3 ADD MLOAD DUP2 PUSH1 0x2 ADD SWAP1 DUP2 PUSH2 0x9CE SWAP2 SWAP1 PUSH2 0x1D5D JUMP JUMPDEST POP SWAP1 POP POP POP POP POP JUMP JUMPDEST PUSH2 0x9E1 DUP3 DUP3 PUSH2 0x1158 JUMP JUMPDEST POP POP JUMP JUMPDEST PUSH0 PUSH1 0x4 PUSH0 DUP4 PUSH20 0xFFFFFFFFFFFFFFFFFFFFFFFFFFFFFFFFFFFFFFFF AND PUSH20 0xFFFFFFFFFFFFFFFFFFFFFFFFFFFFFFFFFFFFFFFF AND DUP2 MSTORE PUSH1 0x20 ADD SWAP1 DUP2 MSTORE PUSH1 0x20 ADD PUSH0 KECCAK256 SLOAD SWAP1 POP SWAP2 SWAP1 POP JUMP JUMPDEST PUSH1 0x9 PUSH0 SWAP1 SLOAD SWAP1 PUSH2 0x100 EXP SWAP1 DIV PUSH20 0xFFFFFFFFFFFFFFFFFFFFFFFFFFFFFFFFFFFFFFFF AND DUP2 JUMP JUMPDEST PUSH1 0x60 PUSH1 0x1 DUP1 SLOAD PUSH2 0xA5F SWAP1 PUSH2 0x1970 JUMP JUMPDEST DUP1 PUSH1 0x1F ADD PUSH1 0x20 DUP1 SWAP2 DIV MUL PUSH1 0x20 ADD PUSH1 0x40 MLOAD SWAP1 DUP2 ADD PUSH1 0x40 MSTORE DUP1 SWAP3 SWAP2 SWAP1 DUP2 DUP2 MSTORE PUSH1 0x20 ADD DUP3 DUP1 SLOAD PUSH2 0xA8B SWAP1 PUSH2 0x1970 JUMP JUMPDEST DUP1 ISZERO PUSH2 0xAD6 JUMPI DUP1 PUSH1 0x1F LT PUSH2 0xAAD JUMPI PUSH2 0x100 DUP1 DUP4 SLOAD DIV MUL DUP4 MSTORE SWAP2 PUSH1 0x20 ADD SWAP2 PUSH2 0xAD6 JUMP JUMPDEST DUP3 ADD SWAP2 SWAP1 PUSH0 MSTORE PUSH1 0x20 PUSH0 KECCAK256 SWAP1 JUMPDEST DUP2 SLOAD DUP2 MSTORE SWAP1 PUSH1 0x1 ADD SWAP1 PUSH1 0x20 ADD DUP1 DUP4 GT PUSH2 0xAB9 JUMPI DUP3 SWAP1 SUB PUSH1 0x1F AND DUP3 ADD SWAP2 JUMPDEST POP POP POP POP POP SWAP1 POP SWAP1 JUMP JUMPDEST PUSH2 0xAEA DUP3 DUP3 PUSH2 0x129A JUMP JUMPDEST POP POP JUMP JUMPDEST PUSH1 0x9 PUSH0 SWAP1 SLOAD SWAP1 PUSH2 0x100 EXP SWAP1 DIV PUSH20 0xFFFFFFFFFFFFFFFFFFFFFFFFFFFFFFFFFFFFFFFF AND PUSH20 0xFFFFFFFFFFFFFFFFFFFFFFFFFFFFFFFFFFFFFFFF AND CALLER PUSH20 0xFFFFFFFFFFFFFFFFFFFFFFFFFFFFFFFFFFFFFFFF AND EQ PUSH2 0xB7D JUMPI PUSH1 0x40 MLOAD PUSH32 0x8C379A000000000000000000000000000000000000000000000000000000000 DUP2 MSTORE PUSH1 0x4 ADD PUSH2 0xB74 SWAP1 PUSH2 0x1B40 JUMP JUMPDEST PUSH1 0x40 MLOAD DUP1 SWAP2 SUB SWAP1 REVERT JUMPDEST PUSH1 0x7 PUSH0 SWAP1 SLOAD SWAP1 PUSH2 0x100 EXP SWAP1 DIV PUSH20 0xFFFFFFFFFFFFFFFFFFFFFFFFFFFFFFFFFFFFFFFF AND PUSH20 0xFFFFFFFFFFFFFFFFFFFFFFFFFFFFFFFFFFFFFFFF AND PUSH4 0x40C10F19 DUP4 DUP4 PUSH1 0x40 MLOAD DUP4 PUSH4 0xFFFFFFFF AND PUSH1 0xE0 SHL DUP2 MSTORE PUSH1 0x4 ADD PUSH2 0xBD9 SWAP3 SWAP2 SWAP1 PUSH2 0x1E3B JUMP JUMPDEST PUSH0 PUSH1 0x40 MLOAD DUP1 DUP4 SUB DUP2 PUSH0 DUP8 DUP1 EXTCODESIZE ISZERO DUP1 ISZERO PUSH2 0xBF0 JUMPI PUSH0 PUSH0 REVERT JUMPDEST POP GAS CALL ISZERO DUP1 ISZERO PUSH2 0xC02 JUMPI RETURNDATASIZE PUSH0 PUSH0 RETURNDATACOPY RETURNDATASIZE PUSH0 REVERT JUMPDEST POP POP POP POP DUP1 PUSH1 0xA PUSH0 DUP5 PUSH20 0xFFFFFFFFFFFFFFFFFFFFFFFFFFFFFFFFFFFFFFFF AND PUSH20 0xFFFFFFFFFFFFFFFFFFFFFFFFFFFFFFFFFFFFFFFF AND DUP2 MSTORE PUSH1 0x20 ADD SWAP1 DUP2 MSTORE PUSH1 0x20 ADD PUSH0 KECCAK256 PUSH1 0x1 ADD PUSH0 DUP3 DUP3 SLOAD PUSH2 0xC55 SWAP2 SWAP1 PUSH2 0x1E62 JUMP JUMPDEST SWAP3 POP POP DUP2 SWAP1 SSTORE POP POP POP JUMP JUMPDEST PUSH0 PUSH2 0xC6C CALLER DUP5 DUP5 PUSH2 0xEED JUMP JUMPDEST PUSH1 0x1 SWAP1 POP SWAP3 SWAP2 POP POP JUMP JUMPDEST PUSH1 0x9 PUSH0 SWAP1 SLOAD SWAP1 PUSH2 0x100 EXP SWAP1 DIV PUSH20 0xFFFFFFFFFFFFFFFFFFFFFFFFFFFFFFFFFFFFFFFF AND PUSH20 0xFFFFFFFFFFFFFFFFFFFFFFFFFFFFFFFFFFFFFFFF AND CALLER PUSH20 0xFFFFFFFFFFFFFFFFFFFFFFFFFFFFFFFFFFFFFFFF AND EQ PUSH2 0xD05 JUMPI PUSH1 0x40 MLOAD PUSH32 0x8C379A000000000000000000000000000000000000000000000000000000000 DUP2 MSTORE PUSH1 0x4 ADD PUSH2 0xCFC SWAP1 PUSH2 0x1B40 JUMP JUMPDEST PUSH1 0x40 MLOAD DUP1 SWAP2 SUB SWAP1 REVERT JUMPDEST DUP1 PUSH1 0xA PUSH0 DUP5 PUSH20 0xFFFFFFFFFFFFFFFFFFFFFFFFFFFFFFFFFFFFFFFF AND PUSH20 0xFFFFFFFFFFFFFFFFFFFFFFFFFFFFFFFFFFFFFFFF AND DUP2 MSTORE PUSH1 0x20 ADD SWAP1 DUP2 MSTORE PUSH1 0x20 ADD PUSH0 KECCAK256 PUSH1 0x1 ADD SLOAD LT ISZERO PUSH2 0xD88 JUMPI PUSH1 0x40 MLOAD PUSH32 0x8C379A000000000000000000000000000000000000000000000000000000000 DUP2 MSTORE PUSH1 0x4 ADD PUSH2 0xD7F SWAP1 PUSH2 0x1EDF JUMP JUMPDEST PUSH1 0x40 MLOAD DUP1 SWAP2 SUB SWAP1 REVERT JUMPDEST PUSH1 0x7 PUSH0 SWAP1 SLOAD SWAP1 PUSH2 0x100 EXP SWAP1 DIV PUSH20 0xFFFFFFFFFFFFFFFFFFFFFFFFFFFFFFFFFFFFFFFF AND PUSH20 0xFFFFFFFFFFFFFFFFFFFFFFFFFFFFFFFFFFFFFFFF AND PUSH4 0x9DC29FAC DUP4 DUP4 PUSH1 0x40 MLOAD DUP4 PUSH4 0xFFFFFFFF AND PUSH1 0xE0 SHL DUP2 MSTORE PUSH1 0x4 ADD PUSH2 0xDE4 SWAP3 SWAP2 SWAP1 PUSH2 0x1E3B JUMP JUMPDEST PUSH0 PUSH1 0x40 MLOAD DUP1 DUP4 SUB DUP2 PUSH0 DUP8 DUP1 EXTCODESIZE ISZERO DUP1 ISZERO PUSH2 0xDFB JUMPI PUSH0 PUSH0 REVERT JUMPDEST POP GAS CALL ISZERO DUP1 ISZERO PUSH2 0xE0D JUMPI RETURNDATASIZE PUSH0 PUSH0 RETURNDATACOPY RETURNDATASIZE PUSH0 REVERT JUMPDEST POP POP POP POP DUP1 PUSH1 0xA PUSH0 DUP5 PUSH20 0xFFFFFFFFFFFFFFFFFFFFFFFFFFFFFFFFFFFFFFFF AND PUSH20 0xFFFFFFFFFFFFFFFFFFFFFFFFFFFFFFFFFFFFFFFF AND DUP2 MSTORE PUSH1 0x20 ADD SWAP1 DUP2 MSTORE PUSH1 0x20 ADD PUSH0 KECCAK256 PUSH1 0x1 ADD PUSH0 DUP3 DUP3 SLOAD PUSH2 0xE60 SWAP2 SWAP1 PUSH2 0x1AC3 JUMP JUMPDEST SWAP3 POP POP DUP2 SWAP1 SSTORE POP POP POP JUMP JUMPDEST PUSH0 PUSH1 0x5 PUSH0 DUP5 PUSH20 0xFFFFFFFFFFFFFFFFFFFFFFFFFFFFFFFFFFFFFFFF AND PUSH20 0xFFFFFFFFFFFFFFFFFFFFFFFFFFFFFFFFFFFFFFFF AND DUP2 MSTORE PUSH1 0x20 ADD SWAP1 DUP2 MSTORE PUSH1 0x20 ADD PUSH0 KECCAK256 PUSH0 DUP4 PUSH20 0xFFFFFFFFFFFFFFFFFFFFFFFFFFFFFFFFFFFFFFFF AND PUSH20 0xFFFFFFFFFFFFFFFFFFFFFFFFFFFFFFFFFFFFFFFF AND DUP2 MSTORE PUSH1 0x20 ADD SWAP1 DUP2 MSTORE PUSH1 0x20 ADD PUSH0 KECCAK256 SLOAD SWAP1 POP SWAP3 SWAP2 POP POP JUMP JUMPDEST PUSH0 PUSH20 0xFFFFFFFFFFFFFFFFFFFFFFFFFFFFFFFFFFFFFFFF AND DUP4 PUSH20 0xFFFFFFFFFFFFFFFFFFFFFFFFFFFFFFFFFFFFFFFF AND SUB PUSH2 0xF5B JUMPI PUSH1 0x40 MLOAD PUSH32 0x8C379A000000000000000000000000000000000000000000000000000000000 DUP2 MSTORE PUSH1 0x4 ADD PUSH2 0xF52 SWAP1 PUSH2 0x1F6D JUMP JUMPDEST PUSH1 0x40 MLOAD DUP1 SWAP2 SUB SWAP1 REVERT JUMPDEST PUSH0 PUSH20 0xFFFFFFFFFFFFFFFFFFFFFFFFFFFFFFFFFFFFFFFF AND DUP3 PUSH20 0xFFFFFFFFFFFFFFFFFFFFFFFFFFFFFFFFFFFFFFFF AND SUB PUSH2 0xFC9 JUMPI PUSH1 0x40 MLOAD PUSH32 0x8C379A000000000000000000000000000000000000000000000000000000000 DUP2 MSTORE PUSH1 0x4 ADD PUSH2 0xFC0 SWAP1 PUSH2 0x1FFB JUMP JUMPDEST PUSH1 0x40 MLOAD DUP1 SWAP2 SUB SWAP1 REVERT JUMPDEST PUSH0 PUSH1 0x4 PUSH0 DUP6 PUSH20 0xFFFFFFFFFFFFFFFFFFFFFFFFFFFFFFFFFFFFFFFF AND PUSH20 0xFFFFFFFFFFFFFFFFFFFFFFFFFFFFFFFFFFFFFFFF AND DUP2 MSTORE PUSH1 0x20 ADD SWAP1 DUP2 MSTORE PUSH1 0x20 ADD PUSH0 KECCAK256 SLOAD SWAP1 POP DUP2 DUP2 LT ISZERO PUSH2 0x104D JUMPI PUSH1 0x40 MLOAD PUSH32 0x8C379A000000000000000000000000000000000000000000000000000000000 DUP2 MSTORE PUSH1 0x4 ADD PUSH2 0x1044 SWAP1 PUSH2 0x2089 JUMP JUMPDEST PUSH1 0x40 MLOAD DUP1 SWAP2 SUB SWAP1 REVERT JUMPDEST DUP2 DUP2 PUSH2 0x1059 SWAP2 SWAP1 PUSH2 0x1AC3 JUMP JUMPDEST PUSH1 0x4 PUSH0 DUP7 PUSH20 0xFFFFFFFFFFFFFFFFFFFFFFFFFFFFFFFFFFFFFFFF AND PUSH20 0xFFFFFFFFFFFFFFFFFFFFFFFFFFFFFFFFFFFFFFFF AND DUP2 MSTORE PUSH1 0x20 ADD SWAP1 DUP2 MSTORE PUSH1 0x20 ADD PUSH0 KECCAK256 DUP2 SWAP1 SSTORE POP DUP2 PUSH1 0x4 PUSH0 DUP6 PUSH20 0xFFFFFFFFFFFFFFFFFFFFFFFFFFFFFFFFFFFFFFFF AND PUSH20 0xFFFFFFFFFFFFFFFFFFFFFFFFFFFFFFFFFFFFFFFF AND DUP2 MSTORE PUSH1 0x20 ADD SWAP1 DUP2 MSTORE PUSH1 0x20 ADD PUSH0 KECCAK256 PUSH0 DUP3 DUP3 SLOAD PUSH2 0x10E6 SWAP2 SWAP1 PUSH2 0x1E62 JUMP JUMPDEST SWAP3 POP POP DUP2 SWAP1 SSTORE POP DUP3 PUSH20 0xFFFFFFFFFFFFFFFFFFFFFFFFFFFFFFFFFFFFFFFF AND DUP5 PUSH20 0xFFFFFFFFFFFFFFFFFFFFFFFFFFFFFFFFFFFFFFFF AND PUSH32 0xDDF252AD1BE2C89B69C2B068FC378DAA952BA7F163C4A11628F55A4DF523B3EF DUP5 PUSH1 0x40 MLOAD PUSH2 0x114A SWAP2 SWAP1 PUSH2 0x160A JUMP JUMPDEST PUSH1 0x40 MLOAD DUP1 SWAP2 SUB SWAP1 LOG3 POP POP POP POP JUMP JUMPDEST PUSH0 PUSH20 0xFFFFFFFFFFFFFFFFFFFFFFFFFFFFFFFFFFFFFFFF AND DUP3 PUSH20 0xFFFFFFFFFFFFFFFFFFFFFFFFFFFFFFFFFFFFFFFF AND SUB PUSH2 0x11C6 JUMPI PUSH1 0x40 MLOAD PUSH32 0x8C379A000000000000000000000000000000000000000000000000000000000 DUP2 MSTORE PUSH1 0x4 ADD PUSH2 0x11BD SWAP1 PUSH2 0x20F1 JUMP JUMPDEST PUSH1 0x40 MLOAD DUP1 SWAP2 SUB SWAP1 REVERT JUMPDEST DUP1 PUSH1 0x3 PUSH0 DUP3 DUP3 SLOAD PUSH2 0x11D7 SWAP2 SWAP1 PUSH2 0x1E62 JUMP JUMPDEST SWAP3 POP POP DUP2 SWAP1 SSTORE POP DUP1 PUSH1 0x4 PUSH0 DUP5 PUSH20 0xFFFFFFFFFFFFFFFFFFFFFFFFFFFFFFFFFFFFFFFF AND PUSH20 0xFFFFFFFFFFFFFFFFFFFFFFFFFFFFFFFFFFFFFFFF AND DUP2 MSTORE PUSH1 0x20 ADD SWAP1 DUP2 MSTORE PUSH1 0x20 ADD PUSH0 KECCAK256 PUSH0 DUP3 DUP3 SLOAD PUSH2 0x122A SWAP2 SWAP1 PUSH2 0x1E62 JUMP JUMPDEST SWAP3 POP POP DUP2 SWAP1 SSTORE POP DUP2 PUSH20 0xFFFFFFFFFFFFFFFFFFFFFFFFFFFFFFFFFFFFFFFF AND PUSH0 PUSH20 0xFFFFFFFFFFFFFFFFFFFFFFFFFFFFFFFFFFFFFFFF AND PUSH32 0xDDF252AD1BE2C89B69C2B068FC378DAA952BA7F163C4A11628F55A4DF523B3EF DUP4 PUSH1 0x40 MLOAD PUSH2 0x128E SWAP2 SWAP1 PUSH2 0x160A JUMP JUMPDEST PUSH1 0x40 MLOAD DUP1 SWAP2 SUB SWAP1 LOG3 POP POP JUMP JUMPDEST PUSH0 PUSH20 0xFFFFFFFFFFFFFFFFFFFFFFFFFFFFFFFFFFFFFFFF AND DUP3 PUSH20 0xFFFFFFFFFFFFFFFFFFFFFFFFFFFFFFFFFFFFFFFF AND SUB PUSH2 0x1308 JUMPI PUSH1 0x40 MLOAD PUSH32 0x8C379A000000000000000000000000000000000000000000000000000000000 DUP2 MSTORE PUSH1 0x4 ADD PUSH2 0x12FF SWAP1 PUSH2 0x2159 JUMP JUMPDEST PUSH1 0x40 MLOAD DUP1 SWAP2 SUB SWAP1 REVERT JUMPDEST DUP1 PUSH1 0x4 PUSH0 DUP5 PUSH20 0xFFFFFFFFFFFFFFFFFFFFFFFFFFFFFFFFFFFFFFFF AND PUSH20 0xFFFFFFFFFFFFFFFFFFFFFFFFFFFFFFFFFFFFFFFF AND DUP2 MSTORE PUSH1 0x20 ADD SWAP1 DUP2 MSTORE PUSH1 0x20 ADD PUSH0 KECCAK256 SLOAD LT ISZERO PUSH2 0x1388 JUMPI PUSH1 0x40 MLOAD PUSH32 0x8C379A000000000000000000000000000000000000000000000000000000000 DUP2 MSTORE PUSH1 0x4 ADD PUSH2 0x137F SWAP1 PUSH2 0x21C1 JUMP JUMPDEST PUSH1 0x40 MLOAD DUP1 SWAP2 SUB SWAP1 REVERT JUMPDEST DUP1 PUSH1 0x4 PUSH0 DUP5 PUSH20 0xFFFFFFFFFFFFFFFFFFFFFFFFFFFFFFFFFFFFFFFF AND PUSH20 0xFFFFFFFFFFFFFFFFFFFFFFFFFFFFFFFFFFFFFFFF AND DUP2 MSTORE PUSH1 0x20 ADD SWAP1 DUP2 MSTORE PUSH1 0x20 ADD PUSH0 KECCAK256 PUSH0 DUP3 DUP3 SLOAD PUSH2 0x13D4 SWAP2 SWAP1 PUSH2 0x1AC3 JUMP JUMPDEST SWAP3 POP POP DUP2 SWAP1 SSTORE POP DUP1 PUSH1 0x3 PUSH0 DUP3 DUP3 SLOAD PUSH2 0x13EC SWAP2 SWAP1 PUSH2 0x1AC3 JUMP JUMPDEST SWAP3 POP POP DUP2 SWAP1 SSTORE POP PUSH0 PUSH20 0xFFFFFFFFFFFFFFFFFFFFFFFFFFFFFFFFFFFFFFFF AND DUP3 PUSH20 0xFFFFFFFFFFFFFFFFFFFFFFFFFFFFFFFFFFFFFFFF AND PUSH32 0xDDF252AD1BE2C89B69C2B068FC378DAA952BA7F163C4A11628F55A4DF523B3EF DUP4 PUSH1 0x40 MLOAD PUSH2 0x1450 SWAP2 SWAP1 PUSH2 0x160A JUMP JUMPDEST PUSH1 0x40 MLOAD DUP1 SWAP2 SUB SWAP1 LOG3 POP POP JUMP JUMPDEST PUSH0 DUP2 MLOAD SWAP1 POP SWAP2 SWAP1 POP JUMP JUMPDEST PUSH0 DUP3 DUP3 MSTORE PUSH1 0x20 DUP3 ADD SWAP1 POP SWAP3 SWAP2 POP POP JUMP JUMPDEST DUP3 DUP2 DUP4 MCOPY PUSH0 DUP4 DUP4 ADD MSTORE POP POP POP JUMP JUMPDEST PUSH0 PUSH1 0x1F NOT PUSH1 0x1F DUP4 ADD AND SWAP1 POP SWAP2 SWAP1 POP JUMP JUMPDEST PUSH0 PUSH2 0x149E DUP3 PUSH2 0x145C JUMP JUMPDEST PUSH2 0x14A8 DUP2 DUP6 PUSH2 0x1466 JUMP JUMPDEST SWAP4 POP PUSH2 0x14B8 DUP2 DUP6 PUSH1 0x20 DUP7 ADD PUSH2 0x1476 JUMP JUMPDEST PUSH2 0x14C1 DUP2 PUSH2 0x1484 JUMP JUMPDEST DUP5 ADD SWAP2 POP POP SWAP3 SWAP2 POP POP JUMP JUMPDEST PUSH0 PUSH1 0x20 DUP3 ADD SWAP1 POP DUP2 DUP2 SUB PUSH0 DUP4 ADD MSTORE PUSH2 0x14E4 DUP2 DUP5 PUSH2 0x1494 JUMP JUMPDEST SWAP1 POP SWAP3 SWAP2 POP POP JUMP JUMPDEST PUSH0 PUSH1 0x40 MLOAD SWAP1 POP SWAP1 JUMP JUMPDEST PUSH0 PUSH0 REVERT JUMPDEST PUSH0 PUSH0 REVERT JUMPDEST PUSH0 PUSH20 0xFFFFFFFFFFFFFFFFFFFFFFFFFFFFFFFFFFFFFFFF DUP3 AND SWAP1 POP SWAP2 SWAP1 POP JUMP JUMPDEST PUSH0 PUSH2 0x1526 DUP3 PUSH2 0x14FD JUMP JUMPDEST SWAP1 POP SWAP2 SWAP1 POP JUMP JUMPDEST PUSH2 0x1536 DUP2 PUSH2 0x151C JUMP JUMPDEST DUP2 EQ PUSH2 0x1540 JUMPI PUSH0 PUSH0 REVERT JUMPDEST POP JUMP JUMPDEST PUSH0 DUP2 CALLDATALOAD SWAP1 POP PUSH2 0x1551 DUP2 PUSH2 0x152D JUMP JUMPDEST SWAP3 SWAP2 POP POP JUMP JUMPDEST PUSH0 DUP2 SWAP1 POP SWAP2 SWAP1 POP JUMP JUMPDEST PUSH2 0x1569 DUP2 PUSH2 0x1557 JUMP JUMPDEST DUP2 EQ PUSH2 0x1573 JUMPI PUSH0 PUSH0 REVERT JUMPDEST POP JUMP JUMPDEST PUSH0 DUP2 CALLDATALOAD SWAP1 POP PUSH2 0x1584 DUP2 PUSH2 0x1560 JUMP JUMPDEST SWAP3 SWAP2 POP POP JUMP JUMPDEST PUSH0 PUSH0 PUSH1 0x40 DUP4 DUP6 SUB SLT ISZERO PUSH2 0x15A0 JUMPI PUSH2 0x159F PUSH2 0x14F5 JUMP JUMPDEST JUMPDEST PUSH0 PUSH2 0x15AD DUP6 DUP3 DUP7 ADD PUSH2 0x1543 JUMP JUMPDEST SWAP3 POP POP PUSH1 0x20 PUSH2 0x15BE DUP6 DUP3 DUP7 ADD PUSH2 0x1576 JUMP JUMPDEST SWAP2 POP POP SWAP3 POP SWAP3 SWAP1 POP JUMP JUMPDEST PUSH0 DUP2 ISZERO ISZERO SWAP1 POP SWAP2 SWAP1 POP JUMP JUMPDEST PUSH2 0x15DC DUP2 PUSH2 0x15C8 JUMP JUMPDEST DUP3 MSTORE POP POP JUMP JUMPDEST PUSH0 PUSH1 0x20 DUP3 ADD SWAP1 POP PUSH2 0x15F5 PUSH0 DUP4 ADD DUP5 PUSH2 0x15D3 JUMP JUMPDEST SWAP3 SWAP2 POP POP JUMP JUMPDEST PUSH2 0x1604 DUP2 PUSH2 0x1557 JUMP JUMPDEST DUP3 MSTORE POP POP JUMP JUMPDEST PUSH0 PUSH1 0x20 DUP3 ADD SWAP1 POP PUSH2 0x161D PUSH0 DUP4 ADD DUP5 PUSH2 0x15FB JUMP JUMPDEST SWAP3 SWAP2 POP POP JUMP JUMPDEST PUSH0 DUP2 SWAP1 POP SWAP2 SWAP1 POP JUMP JUMPDEST PUSH0 PUSH2 0x1646 PUSH2 0x1641 PUSH2 0x163C DUP5 PUSH2 0x14FD JUMP JUMPDEST PUSH2 0x1623 JUMP JUMPDEST PUSH2 0x14FD JUMP JUMPDEST SWAP1 POP SWAP2 SWAP1 POP JUMP JUMPDEST PUSH0 PUSH2 0x1657 DUP3 PUSH2 0x162C JUMP JUMPDEST SWAP1 POP SWAP2 SWAP1 POP JUMP JUMPDEST PUSH0 PUSH2 0x1668 DUP3 PUSH2 0x164D JUMP JUMPDEST SWAP1 POP SWAP2 SWAP1 POP JUMP JUMPDEST PUSH2 0x1678 DUP2 PUSH2 0x165E JUMP JUMPDEST DUP3 MSTORE POP POP JUMP JUMPDEST PUSH0 PUSH1 0x20 DUP3 ADD SWAP1 POP PUSH2 0x1691 PUSH0 DUP4 ADD DUP5 PUSH2 0x166F JUMP JUMPDEST SWAP3 SWAP2 POP POP JUMP JUMPDEST PUSH0 PUSH0 PUSH0 PUSH1 0x60 DUP5 DUP7 SUB SLT ISZERO PUSH2 0x16AE JUMPI PUSH2 0x16AD PUSH2 0x14F5 JUMP JUMPDEST JUMPDEST PUSH0 PUSH2 0x16BB DUP7 DUP3 DUP8 ADD PUSH2 0x1543 JUMP JUMPDEST SWAP4 POP POP PUSH1 0x20 PUSH2 0x16CC DUP7 DUP3 DUP8 ADD PUSH2 0x1543 JUMP JUMPDEST SWAP3 POP POP PUSH1 0x40 PUSH2 0x16DD DUP7 DUP3 DUP8 ADD PUSH2 0x1576 JUMP JUMPDEST SWAP2 POP POP SWAP3 POP SWAP3 POP SWAP3 JUMP JUMPDEST PUSH0 PUSH1 0xFF DUP3 AND SWAP1 POP SWAP2 SWAP1 POP JUMP JUMPDEST PUSH2 0x16FC DUP2 PUSH2 0x16E7 JUMP JUMPDEST DUP3 MSTORE POP POP JUMP JUMPDEST PUSH0 PUSH1 0x20 DUP3 ADD SWAP1 POP PUSH2 0x1715 PUSH0 DUP4 ADD DUP5 PUSH2 0x16F3 JUMP JUMPDEST SWAP3 SWAP2 POP POP JUMP JUMPDEST PUSH0 PUSH0 REVERT JUMPDEST PUSH0 PUSH0 REVERT JUMPDEST PUSH32 0x4E487B7100000000000000000000000000000000000000000000000000000000 PUSH0 MSTORE PUSH1 0x41 PUSH1 0x4 MSTORE PUSH1 0x24 PUSH0 REVERT JUMPDEST PUSH2 0x1759 DUP3 PUSH2 0x1484 JUMP JUMPDEST DUP2 ADD DUP2 DUP2 LT PUSH8 0xFFFFFFFFFFFFFFFF DUP3 GT OR ISZERO PUSH2 0x1778 JUMPI PUSH2 0x1777 PUSH2 0x1723 JUMP JUMPDEST JUMPDEST DUP1 PUSH1 0x40 MSTORE POP POP POP JUMP JUMPDEST PUSH0 PUSH2 0x178A PUSH2 0x14EC JUMP JUMPDEST SWAP1 POP PUSH2 0x1796 DUP3 DUP3 PUSH2 0x1750 JUMP JUMPDEST SWAP2 SWAP1 POP JUMP JUMPDEST PUSH0 PUSH8 0xFFFFFFFFFFFFFFFF DUP3 GT ISZERO PUSH2 0x17B5 JUMPI PUSH2 0x17B4 PUSH2 0x1723 JUMP JUMPDEST JUMPDEST PUSH2 0x17BE DUP3 PUSH2 0x1484 JUMP JUMPDEST SWAP1 POP PUSH1 0x20 DUP2 ADD SWAP1 POP SWAP2 SWAP1 POP JUMP JUMPDEST DUP3 DUP2 DUP4 CALLDATACOPY PUSH0 DUP4 DUP4 ADD MSTORE POP POP POP JUMP JUMPDEST PUSH0 PUSH2 0x17EB PUSH2 0x17E6 DUP5 PUSH2 0x179B JUMP JUMPDEST PUSH2 0x1781 JUMP JUMPDEST SWAP1 POP DUP3 DUP2 MSTORE PUSH1 0x20 DUP2 ADD DUP5 DUP5 DUP5 ADD GT ISZERO PUSH2 0x1807 JUMPI PUSH2 0x1806 PUSH2 0x171F JUMP JUMPDEST JUMPDEST PUSH2 0x1812 DUP5 DUP3 DUP6 PUSH2 0x17CB JUMP JUMPDEST POP SWAP4 SWAP3 POP POP POP JUMP JUMPDEST PUSH0 DUP3 PUSH1 0x1F DUP4 ADD SLT PUSH2 0x182E JUMPI PUSH2 0x182D PUSH2 0x171B JUMP JUMPDEST JUMPDEST DUP2 CALLDATALOAD PUSH2 0x183E DUP5 DUP3 PUSH1 0x20 DUP7 ADD PUSH2 0x17D9 JUMP JUMPDEST SWAP2 POP POP SWAP3 SWAP2 POP POP JUMP JUMPDEST PUSH0 PUSH0 PUSH1 0x40 DUP4 DUP6 SUB SLT ISZERO PUSH2 0x185D JUMPI PUSH2 0x185C PUSH2 0x14F5 JUMP JUMPDEST JUMPDEST PUSH0 PUSH2 0x186A DUP6 DUP3 DUP7 ADD PUSH2 0x1543 JUMP JUMPDEST SWAP3 POP POP PUSH1 0x20 DUP4 ADD CALLDATALOAD PUSH8 0xFFFFFFFFFFFFFFFF DUP2 GT ISZERO PUSH2 0x188B JUMPI PUSH2 0x188A PUSH2 0x14F9 JUMP JUMPDEST JUMPDEST PUSH2 0x1897 DUP6 DUP3 DUP7 ADD PUSH2 0x181A JUMP JUMPDEST SWAP2 POP POP SWAP3 POP SWAP3 SWAP1 POP JUMP JUMPDEST PUSH0 PUSH1 0x20 DUP3 DUP5 SUB SLT ISZERO PUSH2 0x18B6 JUMPI PUSH2 0x18B5 PUSH2 0x14F5 JUMP JUMPDEST JUMPDEST PUSH0 PUSH2 0x18C3 DUP5 DUP3 DUP6 ADD PUSH2 0x1543 JUMP JUMPDEST SWAP2 POP POP SWAP3 SWAP2 POP POP JUMP JUMPDEST PUSH0 PUSH2 0x18D6 DUP3 PUSH2 0x14FD JUMP JUMPDEST SWAP1 POP SWAP2 SWAP1 POP JUMP JUMPDEST PUSH2 0x18E6 DUP2 PUSH2 0x18CC JUMP JUMPDEST DUP3 MSTORE POP POP JUMP JUMPDEST PUSH0 PUSH1 0x20 DUP3 ADD SWAP1 POP PUSH2 0x18FF PUSH0 DUP4 ADD DUP5 PUSH2 0x18DD JUMP JUMPDEST SWAP3 SWAP2 POP POP JUMP JUMPDEST PUSH0 PUSH0 PUSH1 0x40 DUP4 DUP6 SUB SLT ISZERO PUSH2 0x191B JUMPI PUSH2 0x191A PUSH2 0x14F5 JUMP JUMPDEST JUMPDEST PUSH0 PUSH2 0x1928 DUP6 DUP3 DUP7 ADD PUSH2 0x1543 JUMP JUMPDEST SWAP3 POP POP PUSH1 0x20 PUSH2 0x1939 DUP6 DUP3 DUP7 ADD PUSH2 0x1543 JUMP JUMPDEST SWAP2 POP POP SWAP3 POP SWAP3 SWAP1 POP JUMP JUMPDEST PUSH32 0x4E487B7100000000000000000000000000000000000000000000000000000000 PUSH0 MSTORE PUSH1 0x22 PUSH1 0x4 MSTORE PUSH1 0x24 PUSH0 REVERT JUMPDEST PUSH0 PUSH1 0x2 DUP3 DIV SWAP1 POP PUSH1 0x1 DUP3 AND DUP1 PUSH2 0x1987 JUMPI PUSH1 0x7F DUP3 AND SWAP2 POP JUMPDEST PUSH1 0x20 DUP3 LT DUP2 SUB PUSH2 0x199A JUMPI PUSH2 0x1999 PUSH2 0x1943 JUMP JUMPDEST JUMPDEST POP SWAP2 SWAP1 POP JUMP JUMPDEST PUSH32 0x45524332303A20617070726F766520746F20746865207A65726F206164647265 PUSH0 DUP3 ADD MSTORE PUSH32 0x7373000000000000000000000000000000000000000000000000000000000000 PUSH1 0x20 DUP3 ADD MSTORE POP JUMP JUMPDEST PUSH0 PUSH2 0x19FA PUSH1 0x22 DUP4 PUSH2 0x1466 JUMP JUMPDEST SWAP2 POP PUSH2 0x1A05 DUP3 PUSH2 0x19A0 JUMP JUMPDEST PUSH1 0x40 DUP3 ADD SWAP1 POP SWAP2 SWAP1 POP JUMP JUMPDEST PUSH0 PUSH1 0x20 DUP3 ADD SWAP1 POP DUP2 DUP2 SUB PUSH0 DUP4 ADD MSTORE PUSH2 0x1A27 DUP2 PUSH2 0x19EE JUMP JUMPDEST SWAP1 POP SWAP2 SWAP1 POP JUMP JUMPDEST PUSH32 0x45524332303A20696E73756666696369656E7420616C6C6F77616E6365000000 PUSH0 DUP3 ADD MSTORE POP JUMP JUMPDEST PUSH0 PUSH2 0x1A62 PUSH1 0x1D DUP4 PUSH2 0x1466 JUMP JUMPDEST SWAP2 POP PUSH2 0x1A6D DUP3 PUSH2 0x1A2E JUMP JUMPDEST PUSH1 0x20 DUP3 ADD SWAP1 POP SWAP2 SWAP1 POP JUMP JUMPDEST PUSH0 PUSH1 0x20 DUP3 ADD SWAP1 POP DUP2 DUP2 SUB PUSH0 DUP4 ADD MSTORE PUSH2 0x1A8F DUP2 PUSH2 0x1A56 JUMP JUMPDEST SWAP1 POP SWAP2 SWAP1 POP JUMP JUMPDEST PUSH32 0x4E487B7100000000000000000000000000000000000000000000000000000000 PUSH0 MSTORE PUSH1 0x11 PUSH1 0x4 MSTORE PUSH1 0x24 PUSH0 REVERT JUMPDEST PUSH0 PUSH2 0x1ACD DUP3 PUSH2 0x1557 JUMP JUMPDEST SWAP2 POP PUSH2 0x1AD8 DUP4 PUSH2 0x1557 JUMP JUMPDEST SWAP3 POP DUP3 DUP3 SUB SWAP1 POP DUP2 DUP2 GT ISZERO PUSH2 0x1AF0 JUMPI PUSH2 0x1AEF PUSH2 0x1A96 JUMP JUMPDEST JUMPDEST SWAP3 SWAP2 POP POP JUMP JUMPDEST PUSH32 0x596F7520617265206E6F7420746865206F776E65720000000000000000000000 PUSH0 DUP3 ADD MSTORE POP JUMP JUMPDEST PUSH0 PUSH2 0x1B2A PUSH1 0x15 DUP4 PUSH2 0x1466 JUMP JUMPDEST SWAP2 POP PUSH2 0x1B35 DUP3 PUSH2 0x1AF6 JUMP JUMPDEST PUSH1 0x20 DUP3 ADD SWAP1 POP SWAP2 SWAP1 POP JUMP JUMPDEST PUSH0 PUSH1 0x20 DUP3 ADD SWAP1 POP DUP2 DUP2 SUB PUSH0 DUP4 ADD MSTORE PUSH2 0x1B57 DUP2 PUSH2 0x1B1E JUMP JUMPDEST SWAP1 POP SWAP2 SWAP1 POP JUMP JUMPDEST PUSH32 0x50617373656E67657220697320616C7265616479207265676973746572656400 PUSH0 DUP3 ADD MSTORE POP JUMP JUMPDEST PUSH0 PUSH2 0x1B92 PUSH1 0x1F DUP4 PUSH2 0x1466 JUMP JUMPDEST SWAP2 POP PUSH2 0x1B9D DUP3 PUSH2 0x1B5E JUMP JUMPDEST PUSH1 0x20 DUP3 ADD SWAP1 POP SWAP2 SWAP1 POP JUMP JUMPDEST PUSH0 PUSH1 0x20 DUP3 ADD SWAP1 POP DUP2 DUP2 SUB PUSH0 DUP4 ADD MSTORE PUSH2 0x1BBF DUP2 PUSH2 0x1B86 JUMP JUMPDEST SWAP1 POP SWAP2 SWAP1 POP JUMP JUMPDEST PUSH0 DUP2 SWAP1 POP DUP2 PUSH0 MSTORE PUSH1 0x20 PUSH0 KECCAK256 SWAP1 POP SWAP2 SWAP1 POP JUMP JUMPDEST PUSH0 PUSH1 0x20 PUSH1 0x1F DUP4 ADD DIV SWAP1 POP SWAP2 SWAP1 POP JUMP JUMPDEST PUSH0 DUP3 DUP3 SHL SWAP1 POP SWAP3 SWAP2 POP POP JUMP JUMPDEST PUSH0 PUSH1 0x8 DUP4 MUL PUSH2 0x1C22 PUSH32 0xFFFFFFFFFFFFFFFFFFFFFFFFFFFFFFFFFFFFFFFFFFFFFFFFFFFFFFFFFFFFFFFF DUP3 PUSH2 0x1BE7 JUMP JUMPDEST PUSH2 0x1C2C DUP7 DUP4 PUSH2 0x1BE7 JUMP JUMPDEST SWAP6 POP DUP1 NOT DUP5 AND SWAP4 POP DUP1 DUP7 AND DUP5 OR SWAP3 POP POP POP SWAP4 SWAP3 POP POP POP JUMP JUMPDEST PUSH0 PUSH2 0x1C5E PUSH2 0x1C59 PUSH2 0x1C54 DUP5 PUSH2 0x1557 JUMP JUMPDEST PUSH2 0x1623 JUMP JUMPDEST PUSH2 0x1557 JUMP JUMPDEST SWAP1 POP SWAP2 SWAP1 POP JUMP JUMPDEST PUSH0 DUP2 SWAP1 POP SWAP2 SWAP1 POP JUMP JUMPDEST PUSH2 0x1C77 DUP4 PUSH2 0x1C44 JUMP JUMPDEST PUSH2 0x1C8B PUSH2 0x1C83 DUP3 PUSH2 0x1C65 JUMP JUMPDEST DUP5 DUP5 SLOAD PUSH2 0x1BF3 JUMP JUMPDEST DUP3 SSTORE POP POP POP POP JUMP JUMPDEST PUSH0 PUSH0 SWAP1 POP SWAP1 JUMP JUMPDEST PUSH2 0x1CA2 PUSH2 0x1C93 JUMP JUMPDEST PUSH2 0x1CAD DUP2 DUP5 DUP5 PUSH2 0x1C6E JUMP JUMPDEST POP POP POP JUMP JUMPDEST JUMPDEST DUP2 DUP2 LT ISZERO PUSH2 0x1CD0 JUMPI PUSH2 0x1CC5 PUSH0 DUP3 PUSH2 0x1C9A JUMP JUMPDEST PUSH1 0x1 DUP2 ADD SWAP1 POP PUSH2 0x1CB3 JUMP JUMPDEST POP POP JUMP JUMPDEST PUSH1 0x1F DUP3 GT ISZERO PUSH2 0x1D15 JUMPI PUSH2 0x1CE6 DUP2 PUSH2 0x1BC6 JUMP JUMPDEST PUSH2 0x1CEF DUP5 PUSH2 0x1BD8 JUMP JUMPDEST DUP2 ADD PUSH1 0x20 DUP6 LT ISZERO PUSH2 0x1CFE JUMPI DUP2 SWAP1 POP JUMPDEST PUSH2 0x1D12 PUSH2 0x1D0A DUP6 PUSH2 0x1BD8 JUMP JUMPDEST DUP4 ADD DUP3 PUSH2 0x1CB2 JUMP JUMPDEST POP POP JUMPDEST POP POP POP JUMP JUMPDEST PUSH0 DUP3 DUP3 SHR SWAP1 POP SWAP3 SWAP2 POP POP JUMP JUMPDEST PUSH0 PUSH2 0x1D35 PUSH0 NOT DUP5 PUSH1 0x8 MUL PUSH2 0x1D1A JUMP JUMPDEST NOT DUP1 DUP4 AND SWAP2 POP POP SWAP3 SWAP2 POP POP JUMP JUMPDEST PUSH0 PUSH2 0x1D4D DUP4 DUP4 PUSH2 0x1D26 JUMP JUMPDEST SWAP2 POP DUP3 PUSH1 0x2 MUL DUP3 OR SWAP1 POP SWAP3 SWAP2 POP POP JUMP JUMPDEST PUSH2 0x1D66 DUP3 PUSH2 0x145C JUMP JUMPDEST PUSH8 0xFFFFFFFFFFFFFFFF DUP2 GT ISZERO PUSH2 0x1D7F JUMPI PUSH2 0x1D7E PUSH2 0x1723 JUMP JUMPDEST JUMPDEST PUSH2 0x1D89 DUP3 SLOAD PUSH2 0x1970 JUMP JUMPDEST PUSH2 0x1D94 DUP3 DUP3 DUP6 PUSH2 0x1CD4 JUMP JUMPDEST PUSH0 PUSH1 0x20 SWAP1 POP PUSH1 0x1F DUP4 GT PUSH1 0x1 DUP2 EQ PUSH2 0x1DC5 JUMPI PUSH0 DUP5 ISZERO PUSH2 0x1DB3 JUMPI DUP3 DUP8 ADD MLOAD SWAP1 POP JUMPDEST PUSH2 0x1DBD DUP6 DUP3 PUSH2 0x1D42 JUMP JUMPDEST DUP7 SSTORE POP PUSH2 0x1E24 JUMP JUMPDEST PUSH1 0x1F NOT DUP5 AND PUSH2 0x1DD3 DUP7 PUSH2 0x1BC6 JUMP JUMPDEST PUSH0 JUMPDEST DUP3 DUP2 LT ISZERO PUSH2 0x1DFA JUMPI DUP5 DUP10 ADD MLOAD DUP3 SSTORE PUSH1 0x1 DUP3 ADD SWAP2 POP PUSH1 0x20 DUP6 ADD SWAP5 POP PUSH1 0x20 DUP2 ADD SWAP1 POP PUSH2 0x1DD5 JUMP JUMPDEST DUP7 DUP4 LT ISZERO PUSH2 0x1E17 JUMPI DUP5 DUP10 ADD MLOAD PUSH2 0x1E13 PUSH1 0x1F DUP10 AND DUP3 PUSH2 0x1D26 JUMP JUMPDEST DUP4 SSTORE POP JUMPDEST PUSH1 0x1 PUSH1 0x2 DUP9 MUL ADD DUP9 SSTORE POP POP POP JUMPDEST POP POP POP POP POP POP JUMP JUMPDEST PUSH2 0x1E35 DUP2 PUSH2 0x151C JUMP JUMPDEST DUP3 MSTORE POP POP JUMP JUMPDEST PUSH0 PUSH1 0x40 DUP3 ADD SWAP1 POP PUSH2 0x1E4E PUSH0 DUP4 ADD DUP6 PUSH2 0x1E2C JUMP JUMPDEST PUSH2 0x1E5B PUSH1 0x20 DUP4 ADD DUP5 PUSH2 0x15FB JUMP JUMPDEST SWAP4 SWAP3 POP POP POP JUMP JUMPDEST PUSH0 PUSH2 0x1E6C DUP3 PUSH2 0x1557 JUMP JUMPDEST SWAP2 POP PUSH2 0x1E77 DUP4 PUSH2 0x1557 JUMP JUMPDEST SWAP3 POP DUP3 DUP3 ADD SWAP1 POP DUP1 DUP3 GT ISZERO PUSH2 0x1E8F JUMPI PUSH2 0x1E8E PUSH2 0x1A96 JUMP JUMPDEST JUMPDEST SWAP3 SWAP2 POP POP JUMP JUMPDEST PUSH32 0x4E6F7420656E6F756768206D696C657300000000000000000000000000000000 PUSH0 DUP3 ADD MSTORE POP JUMP JUMPDEST PUSH0 PUSH2 0x1EC9 PUSH1 0x10 DUP4 PUSH2 0x1466 JUMP JUMPDEST SWAP2 POP PUSH2 0x1ED4 DUP3 PUSH2 0x1E95 JUMP JUMPDEST PUSH1 0x20 DUP3 ADD SWAP1 POP SWAP2 SWAP1 POP JUMP JUMPDEST PUSH0 PUSH1 0x20 DUP3 ADD SWAP1 POP DUP2 DUP2 SUB PUSH0 DUP4 ADD MSTORE PUSH2 0x1EF6 DUP2 PUSH2 0x1EBD JUMP JUMPDEST SWAP1 POP SWAP2 SWAP1 POP JUMP JUMPDEST PUSH32 0x45524332303A207472616E736665722066726F6D20746865207A65726F206164 PUSH0 DUP3 ADD MSTORE PUSH32 0x6472657373000000000000000000000000000000000000000000000000000000 PUSH1 0x20 DUP3 ADD MSTORE POP JUMP JUMPDEST PUSH0 PUSH2 0x1F57 PUSH1 0x25 DUP4 PUSH2 0x1466 JUMP JUMPDEST SWAP2 POP PUSH2 0x1F62 DUP3 PUSH2 0x1EFD JUMP JUMPDEST PUSH1 0x40 DUP3 ADD SWAP1 POP SWAP2 SWAP1 POP JUMP JUMPDEST PUSH0 PUSH1 0x20 DUP3 ADD SWAP1 POP DUP2 DUP2 SUB PUSH0 DUP4 ADD MSTORE PUSH2 0x1F84 DUP2 PUSH2 0x1F4B JUMP JUMPDEST SWAP1 POP SWAP2 SWAP1 POP JUMP JUMPDEST PUSH32 0x45524332303A207472616E7366657220746F20746865207A65726F2061646472 PUSH0 DUP3 ADD MSTORE PUSH32 0x6573730000000000000000000000000000000000000000000000000000000000 PUSH1 0x20 DUP3 ADD MSTORE POP JUMP JUMPDEST PUSH0 PUSH2 0x1FE5 PUSH1 0x23 DUP4 PUSH2 0x1466 JUMP JUMPDEST SWAP2 POP PUSH2 0x1FF0 DUP3 PUSH2 0x1F8B JUMP JUMPDEST PUSH1 0x40 DUP3 ADD SWAP1 POP SWAP2 SWAP1 POP JUMP JUMPDEST PUSH0 PUSH1 0x20 DUP3 ADD SWAP1 POP DUP2 DUP2 SUB PUSH0 DUP4 ADD MSTORE PUSH2 0x2012 DUP2 PUSH2 0x1FD9 JUMP JUMPDEST SWAP1 POP SWAP2 SWAP1 POP JUMP JUMPDEST PUSH32 0x45524332303A207472616E7366657220616D6F756E7420657863656564732062 PUSH0 DUP3 ADD MSTORE PUSH32 0x616C616E63650000000000000000000000000000000000000000000000000000 PUSH1 0x20 DUP3 ADD MSTORE POP JUMP JUMPDEST PUSH0 PUSH2 0x2073 PUSH1 0x26 DUP4 PUSH2 0x1466 JUMP JUMPDEST SWAP2 POP PUSH2 0x207E DUP3 PUSH2 0x2019 JUMP JUMPDEST PUSH1 0x40 DUP3 ADD SWAP1 POP SWAP2 SWAP1 POP JUMP JUMPDEST PUSH0 PUSH1 0x20 DUP3 ADD SWAP1 POP DUP2 DUP2 SUB PUSH0 DUP4 ADD MSTORE PUSH2 0x20A0 DUP2 PUSH2 0x2067 JUMP JUMPDEST SWAP1 POP SWAP2 SWAP1 POP JUMP JUMPDEST PUSH32 0x45524332303A206D696E7420746F20746865207A65726F206164647265737300 PUSH0 DUP3 ADD MSTORE POP JUMP JUMPDEST PUSH0 PUSH2 0x20DB PUSH1 0x1F DUP4 PUSH2 0x1466 JUMP JUMPDEST SWAP2 POP PUSH2 0x20E6 DUP3 PUSH2 0x20A7 JUMP JUMPDEST PUSH1 0x20 DUP3 ADD SWAP1 POP SWAP2 SWAP1 POP JUMP JUMPDEST PUSH0 PUSH1 0x20 DUP3 ADD SWAP1 POP DUP2 DUP2 SUB PUSH0 DUP4 ADD MSTORE PUSH2 0x2108 DUP2 PUSH2 0x20CF JUMP JUMPDEST SWAP1 POP SWAP2 SWAP1 POP JUMP JUMPDEST PUSH32 0x4E6F206861792061646472657373000000000000000000000000000000000000 PUSH0 DUP3 ADD MSTORE POP JUMP JUMPDEST PUSH0 PUSH2 0x2143 PUSH1 0xE DUP4 PUSH2 0x1466 JUMP JUMPDEST SWAP2 POP PUSH2 0x214E DUP3 PUSH2 0x210F JUMP JUMPDEST PUSH1 0x20 DUP3 ADD SWAP1 POP SWAP2 SWAP1 POP JUMP JUMPDEST PUSH0 PUSH1 0x20 DUP3 ADD SWAP1 POP DUP2 DUP2 SUB PUSH0 DUP4 ADD MSTORE PUSH2 0x2170 DUP2 PUSH2 0x2137 JUMP JUMPDEST SWAP1 POP SWAP2 SWAP1 POP JUMP JUMPDEST PUSH32 0x4E6F2068617920737566696369656E74657320746F6B656E732E000000000000 PUSH0 DUP3 ADD MSTORE POP JUMP JUMPDEST PUSH0 PUSH2 0x21AB PUSH1 0x1A DUP4 PUSH2 0x1466 JUMP JUMPDEST SWAP2 POP PUSH2 0x21B6 DUP3 PUSH2 0x2177 JUMP JUMPDEST PUSH1 0x20 DUP3 ADD SWAP1 POP SWAP2 SWAP1 POP JUMP JUMPDEST PUSH0 PUSH1 0x20 DUP3 ADD SWAP1 POP DUP2 DUP2 SUB PUSH0 DUP4 ADD MSTORE PUSH2 0x21D8 DUP2 PUSH2 0x219F JUMP JUMPDEST SWAP1 POP SWAP2 SWAP1 POP JUMP INVALID LOG2 PUSH5 0x6970667358 0x22 SLT KECCAK256 SWAP8 0xD8 DUP16 KECCAK256 0x25 MUL 0xA8 0xEB BLOCKHASH 0xCC MCOPY PUSH6 0x7C9FAF65B69A PUSH20 0x1D92946A1C0E27A17A3633FB8964736F6C634300 ADDMOD 0x1F STOP CALLER "
				},
				"gasEstimates": {
					"creation": {
						"codeDepositCost": "1745000",
						"executionCost": "infinite",
						"totalCost": "infinite"
					},
					"external": {
						"allowance(address,address)": "infinite",
						"approve(address,uint256)": "infinite",
						"assignToken(address,uint256)": "infinite",
						"balanceOf(address)": "2852",
						"burn(address,uint256)": "infinite",
						"burnToken(address,uint256)": "infinite",
						"decimals()": "2518",
						"getToken()": "infinite",
						"mint(address,uint256)": "infinite",
						"name()": "infinite",
						"owner()": "2553",
						"register(address,string)": "infinite",
						"symbol()": "infinite",
						"totalSupply()": "2500",
						"transfer(address,uint256)": "infinite",
						"transferFrom(address,address,uint256)": "infinite"
					}
				},
				"methodIdentifiers": {
					"allowance(address,address)": "dd62ed3e",
					"approve(address,uint256)": "095ea7b3",
					"assignToken(address,uint256)": "a401d24d",
					"balanceOf(address)": "70a08231",
					"burn(address,uint256)": "9dc29fac",
					"burnToken(address,uint256)": "d1df306c",
					"decimals()": "313ce567",
					"getToken()": "21df0da7",
					"mint(address,uint256)": "40c10f19",
					"name()": "06fdde03",
					"owner()": "8da5cb5b",
					"register(address,string)": "32434a2e",
					"symbol()": "95d89b41",
					"totalSupply()": "18160ddd",
					"transfer(address,uint256)": "a9059cbb",
					"transferFrom(address,address,uint256)": "23b872dd"
				}
			},
			"storageLayout": {
				"storage": [
					{
						"astId": 174,
						"contract": "contract.sol:AirportContract",
						"label": "_name",
						"offset": 0,
						"slot": "0",
						"type": "t_string_storage"
					},
					{
						"astId": 176,
						"contract": "contract.sol:AirportContract",
						"label": "_symbol",
						"offset": 0,
						"slot": "1",
						"type": "t_string_storage"
					},
					{
						"astId": 178,
						"contract": "contract.sol:AirportContract",
						"label": "_decimals",
						"offset": 0,
						"slot": "2",
						"type": "t_uint8"
					},
					{
						"astId": 180,
						"contract": "contract.sol:AirportContract",
						"label": "_totalSupply",
						"offset": 0,
						"slot": "3",
						"type": "t_uint256"
					},
					{
						"astId": 184,
						"contract": "contract.sol:AirportContract",
						"label": "_balances",
						"offset": 0,
						"slot": "4",
						"type": "t_mapping(t_address,t_uint256)"
					},
					{
						"astId": 190,
						"contract": "contract.sol:AirportContract",
						"label": "_allowances",
						"offset": 0,
						"slot": "5",
						"type": "t_mapping(t_address,t_mapping(t_address,t_uint256))"
					},
					{
						"astId": 6,
						"contract": "contract.sol:AirportContract",
						"label": "_name",
						"offset": 0,
						"slot": "6",
						"type": "t_string_storage"
					},
					{
						"astId": 9,
						"contract": "contract.sol:AirportContract",
						"label": "_token",
						"offset": 0,
						"slot": "7",
						"type": "t_contract(ERC20Simple)585"
					},
					{
						"astId": 11,
						"contract": "contract.sol:AirportContract",
						"label": "_totalSupply",
						"offset": 0,
						"slot": "8",
						"type": "t_uint256"
					},
					{
						"astId": 13,
						"contract": "contract.sol:AirportContract",
						"label": "owner",
						"offset": 0,
						"slot": "9",
						"type": "t_address_payable"
					},
					{
						"astId": 25,
						"contract": "contract.sol:AirportContract",
						"label": "listPassengers",
						"offset": 0,
						"slot": "10",
						"type": "t_mapping(t_address,t_struct(Passenger)20_storage)"
					}
				],
				"types": {
					"t_address": {
						"encoding": "inplace",
						"label": "address",
						"numberOfBytes": "20"
					},
					"t_address_payable": {
						"encoding": "inplace",
						"label": "address payable",
						"numberOfBytes": "20"
					},
					"t_contract(ERC20Simple)585": {
						"encoding": "inplace",
						"label": "contract ERC20Simple",
						"numberOfBytes": "20"
					},
					"t_mapping(t_address,t_mapping(t_address,t_uint256))": {
						"encoding": "mapping",
						"key": "t_address",
						"label": "mapping(address => mapping(address => uint256))",
						"numberOfBytes": "32",
						"value": "t_mapping(t_address,t_uint256)"
					},
					"t_mapping(t_address,t_struct(Passenger)20_storage)": {
						"encoding": "mapping",
						"key": "t_address",
						"label": "mapping(address => struct AirportContract.Passenger)",
						"numberOfBytes": "32",
						"value": "t_struct(Passenger)20_storage"
					},
					"t_mapping(t_address,t_uint256)": {
						"encoding": "mapping",
						"key": "t_address",
						"label": "mapping(address => uint256)",
						"numberOfBytes": "32",
						"value": "t_uint256"
					},
					"t_string_storage": {
						"encoding": "bytes",
						"label": "string",
						"numberOfBytes": "32"
					},
					"t_struct(Passenger)20_storage": {
						"encoding": "inplace",
						"label": "struct AirportContract.Passenger",
						"members": [
							{
								"astId": 15,
								"contract": "contract.sol:AirportContract",
								"label": "id",
								"offset": 0,
								"slot": "0",
								"type": "t_address"
							},
							{
								"astId": 17,
								"contract": "contract.sol:AirportContract",
								"label": "balance",
								"offset": 0,
								"slot": "1",
								"type": "t_uint256"
							},
							{
								"astId": 19,
								"contract": "contract.sol:AirportContract",
								"label": "name",
								"offset": 0,
								"slot": "2",
								"type": "t_string_storage"
							}
						],
						"numberOfBytes": "96"
					},
					"t_uint256": {
						"encoding": "inplace",
						"label": "uint256",
						"numberOfBytes": "32"
					},
					"t_uint8": {
						"encoding": "inplace",
						"label": "uint8",
						"numberOfBytes": "1"
					}
				}
			},
			"userdoc": {
				"kind": "user",
				"methods": {},
				"version": 1
			}
		}
	}
}