{
	"contract.sol": {
		"AirportContract": {
			"abi": [
				{
					"inputs": [],
					"stateMutability": "nonpayable",
					"type": "constructor"
				},
				{
					"inputs": [
						{
							"internalType": "address",
							"name": "id",
							"type": "address"
						},
						{
							"internalType": "uint256",
							"name": "miles",
							"type": "uint256"
						}
					],
					"name": "assignToken",
					"outputs": [],
					"stateMutability": "nonpayable",
					"type": "function"
				},
				{
					"inputs": [
						{
							"internalType": "address",
							"name": "id",
							"type": "address"
						},
						{
							"internalType": "uint256",
							"name": "miles",
							"type": "uint256"
						}
					],
					"name": "burnToken",
					"outputs": [],
					"stateMutability": "nonpayable",
					"type": "function"
				},
				{
					"inputs": [],
					"name": "getToken",
					"outputs": [
						{
							"internalType": "contract ERC20Simple",
							"name": "",
							"type": "address"
						}
					],
					"stateMutability": "view",
					"type": "function"
				},
				{
					"inputs": [],
					"name": "owner",
					"outputs": [
						{
							"internalType": "address payable",
							"name": "",
							"type": "address"
						}
					],
					"stateMutability": "view",
					"type": "function"
				},
				{
					"inputs": [
						{
							"internalType": "address",
							"name": "id_",
							"type": "address"
						},
						{
							"internalType": "string",
							"name": "name_",
							"type": "string"
						}
					],
					"name": "register",
					"outputs": [],
					"stateMutability": "nonpayable",
					"type": "function"
				}
			],
			"devdoc": {
				"kind": "dev",
				"methods": {},
				"version": 1
			},
			"evm": {
				"assembly": "    /* \"contract.sol\":86:1530  contract AirportContract {... */\n  mstore(0x40, 0x80)\n    /* \"contract.sol\":413:561  constructor() {... */\n  callvalue\n  dup1\n  iszero\n  tag_1\n  jumpi\n  revert(0x00, 0x00)\ntag_1:\n  pop\n    /* \"contract.sol\":438:455  _name = \"Airport\" */\n  mload(0x40)\n  dup1\n  0x40\n  add\n  0x40\n  mstore\n  dup1\n  0x07\n  dup2\n  mstore\n  0x20\n  add\n  0x416972706f727400000000000000000000000000000000000000000000000000\n  dup2\n  mstore\n  pop\n    /* \"contract.sol\":438:443  _name */\n  0x00\n    /* \"contract.sol\":438:455  _name = \"Airport\" */\n  swap1\n  dup2\n  tag_4\n  swap2\n  swap1\n  tag_5\n  jump\t// in\ntag_4:\n  pop\n    /* \"contract.sol\":482:492  msg.sender */\n  caller\n    /* \"contract.sol\":466:471  owner */\n  0x03\n  0x00\n    /* \"contract.sol\":466:493  owner = payable(msg.sender) */\n  0x0100\n  exp\n  dup2\n  sload\n  dup2\n  0xffffffffffffffffffffffffffffffffffffffff\n  mul\n  not\n  and\n  swap1\n  dup4\n  0xffffffffffffffffffffffffffffffffffffffff\n  and\n  mul\n  or\n  swap1\n  sstore\n  pop\n    /* \"contract.sol\":548:549  5 */\n  0x05\n    /* \"contract.sol\":551:552  0 */\n  0x00\n    /* \"contract.sol\":513:553  new ERC20Simple(\"Vuelitos\", \"Vlt\", 5, 0) */\n  mload(0x40)\n  tag_6\n  swap1\n  tag_7\n  jump\t// in\ntag_6:\n  tag_8\n  swap3\n  swap2\n  swap1\n  tag_9\n  jump\t// in\ntag_8:\n  mload(0x40)\n  dup1\n  swap2\n  sub\n  swap1\n  0x00\n  create\n  dup1\n  iszero\n  dup1\n  iszero\n  tag_10\n  jumpi\n  returndatacopy(0x00, 0x00, returndatasize)\n  revert(0x00, returndatasize)\ntag_10:\n  pop\n    /* \"contract.sol\":504:510  _token */\n  0x01\n  0x00\n    /* \"contract.sol\":504:553  _token = new ERC20Simple(\"Vuelitos\", \"Vlt\", 5, 0) */\n  0x0100\n  exp\n  dup2\n  sload\n  dup2\n  0xffffffffffffffffffffffffffffffffffffffff\n  mul\n  not\n  and\n  swap1\n  dup4\n  0xffffffffffffffffffffffffffffffffffffffff\n  and\n  mul\n  or\n  swap1\n  sstore\n  pop\n    /* \"contract.sol\":86:1530  contract AirportContract {... */\n  jump(tag_11)\ntag_7:\n  dataSize(sub_1)\n  dup1\n  dataOffset(sub_1)\n  dup4\n  codecopy\n  add\n  swap1\n  jump\t// out\n    /* \"#utility.yul\":7:106   */\ntag_12:\n    /* \"#utility.yul\":59:65   */\n  0x00\n    /* \"#utility.yul\":93:98   */\n  dup2\n    /* \"#utility.yul\":87:99   */\n  mload\n    /* \"#utility.yul\":77:99   */\n  swap1\n  pop\n    /* \"#utility.yul\":7:106   */\n  swap2\n  swap1\n  pop\n  jump\t// out\n    /* \"#utility.yul\":112:292   */\ntag_13:\n    /* \"#utility.yul\":160:237   */\n  0x4e487b7100000000000000000000000000000000000000000000000000000000\n    /* \"#utility.yul\":157:158   */\n  0x00\n    /* \"#utility.yul\":150:238   */\n  mstore\n    /* \"#utility.yul\":257:261   */\n  0x41\n    /* \"#utility.yul\":254:255   */\n  0x04\n    /* \"#utility.yul\":247:262   */\n  mstore\n    /* \"#utility.yul\":281:285   */\n  0x24\n    /* \"#utility.yul\":278:279   */\n  0x00\n    /* \"#utility.yul\":271:286   */\n  revert\n    /* \"#utility.yul\":298:478   */\ntag_14:\n    /* \"#utility.yul\":346:423   */\n  0x4e487b7100000000000000000000000000000000000000000000000000000000\n    /* \"#utility.yul\":343:344   */\n  0x00\n    /* \"#utility.yul\":336:424   */\n  mstore\n    /* \"#utility.yul\":443:447   */\n  0x22\n    /* \"#utility.yul\":440:441   */\n  0x04\n    /* \"#utility.yul\":433:448   */\n  mstore\n    /* \"#utility.yul\":467:471   */\n  0x24\n    /* \"#utility.yul\":464:465   */\n  0x00\n    /* \"#utility.yul\":457:472   */\n  revert\n    /* \"#utility.yul\":484:804   */\ntag_15:\n    /* \"#utility.yul\":528:534   */\n  0x00\n    /* \"#utility.yul\":565:566   */\n  0x02\n    /* \"#utility.yul\":559:563   */\n  dup3\n    /* \"#utility.yul\":555:567   */\n  div\n    /* \"#utility.yul\":545:567   */\n  swap1\n  pop\n    /* \"#utility.yul\":612:613   */\n  0x01\n    /* \"#utility.yul\":606:610   */\n  dup3\n    /* \"#utility.yul\":602:614   */\n  and\n    /* \"#utility.yul\":633:651   */\n  dup1\n    /* \"#utility.yul\":623:704   */\n  tag_49\n  jumpi\n    /* \"#utility.yul\":689:693   */\n  0x7f\n    /* \"#utility.yul\":681:687   */\n  dup3\n    /* \"#utility.yul\":677:694   */\n  and\n    /* \"#utility.yul\":667:694   */\n  swap2\n  pop\n    /* \"#utility.yul\":623:704   */\ntag_49:\n    /* \"#utility.yul\":751:753   */\n  0x20\n    /* \"#utility.yul\":743:749   */\n  dup3\n    /* \"#utility.yul\":740:754   */\n  lt\n    /* \"#utility.yul\":720:738   */\n  dup2\n    /* \"#utility.yul\":717:755   */\n  sub\n    /* \"#utility.yul\":714:798   */\n  tag_50\n  jumpi\n    /* \"#utility.yul\":770:788   */\n  tag_51\n  tag_14\n  jump\t// in\ntag_51:\n    /* \"#utility.yul\":714:798   */\ntag_50:\n    /* \"#utility.yul\":535:804   */\n  pop\n    /* \"#utility.yul\":484:804   */\n  swap2\n  swap1\n  pop\n  jump\t// out\n    /* \"#utility.yul\":810:951   */\ntag_16:\n    /* \"#utility.yul\":859:863   */\n  0x00\n    /* \"#utility.yul\":882:885   */\n  dup2\n    /* \"#utility.yul\":874:885   */\n  swap1\n  pop\n    /* \"#utility.yul\":905:908   */\n  dup2\n    /* \"#utility.yul\":902:903   */\n  0x00\n    /* \"#utility.yul\":895:909   */\n  mstore\n    /* \"#utility.yul\":939:943   */\n  0x20\n    /* \"#utility.yul\":936:937   */\n  0x00\n    /* \"#utility.yul\":926:944   */\n  keccak256\n    /* \"#utility.yul\":918:944   */\n  swap1\n  pop\n    /* \"#utility.yul\":810:951   */\n  swap2\n  swap1\n  pop\n  jump\t// out\n    /* \"#utility.yul\":957:1050   */\ntag_17:\n    /* \"#utility.yul\":994:1000   */\n  0x00\n    /* \"#utility.yul\":1041:1043   */\n  0x20\n    /* \"#utility.yul\":1036:1038   */\n  0x1f\n    /* \"#utility.yul\":1029:1034   */\n  dup4\n    /* \"#utility.yul\":1025:1039   */\n  add\n    /* \"#utility.yul\":1021:1044   */\n  div\n    /* \"#utility.yul\":1011:1044   */\n  swap1\n  pop\n    /* \"#utility.yul\":957:1050   */\n  swap2\n  swap1\n  pop\n  jump\t// out\n    /* \"#utility.yul\":1056:1163   */\ntag_18:\n    /* \"#utility.yul\":1100:1108   */\n  0x00\n    /* \"#utility.yul\":1150:1155   */\n  dup3\n    /* \"#utility.yul\":1144:1148   */\n  dup3\n    /* \"#utility.yul\":1140:1156   */\n  shl\n    /* \"#utility.yul\":1119:1156   */\n  swap1\n  pop\n    /* \"#utility.yul\":1056:1163   */\n  swap3\n  swap2\n  pop\n  pop\n  jump\t// out\n    /* \"#utility.yul\":1169:1562   */\ntag_19:\n    /* \"#utility.yul\":1238:1244   */\n  0x00\n    /* \"#utility.yul\":1288:1289   */\n  0x08\n    /* \"#utility.yul\":1276:1286   */\n  dup4\n    /* \"#utility.yul\":1272:1290   */\n  mul\n    /* \"#utility.yul\":1311:1408   */\n  tag_56\n    /* \"#utility.yul\":1341:1407   */\n  0xffffffffffffffffffffffffffffffffffffffffffffffffffffffffffffffff\n    /* \"#utility.yul\":1330:1339   */\n  dup3\n    /* \"#utility.yul\":1311:1408   */\n  tag_18\n  jump\t// in\ntag_56:\n    /* \"#utility.yul\":1429:1468   */\n  tag_57\n    /* \"#utility.yul\":1459:1467   */\n  dup7\n    /* \"#utility.yul\":1448:1457   */\n  dup4\n    /* \"#utility.yul\":1429:1468   */\n  tag_18\n  jump\t// in\ntag_57:\n    /* \"#utility.yul\":1417:1468   */\n  swap6\n  pop\n    /* \"#utility.yul\":1501:1505   */\n  dup1\n    /* \"#utility.yul\":1497:1506   */\n  not\n    /* \"#utility.yul\":1490:1495   */\n  dup5\n    /* \"#utility.yul\":1486:1507   */\n  and\n    /* \"#utility.yul\":1477:1507   */\n  swap4\n  pop\n    /* \"#utility.yul\":1550:1554   */\n  dup1\n    /* \"#utility.yul\":1540:1548   */\n  dup7\n    /* \"#utility.yul\":1536:1555   */\n  and\n    /* \"#utility.yul\":1529:1534   */\n  dup5\n    /* \"#utility.yul\":1526:1556   */\n  or\n    /* \"#utility.yul\":1516:1556   */\n  swap3\n  pop\n    /* \"#utility.yul\":1245:1562   */\n  pop\n  pop\n    /* \"#utility.yul\":1169:1562   */\n  swap4\n  swap3\n  pop\n  pop\n  pop\n  jump\t// out\n    /* \"#utility.yul\":1568:1645   */\ntag_20:\n    /* \"#utility.yul\":1605:1612   */\n  0x00\n    /* \"#utility.yul\":1634:1639   */\n  dup2\n    /* \"#utility.yul\":1623:1639   */\n  swap1\n  pop\n    /* \"#utility.yul\":1568:1645   */\n  swap2\n  swap1\n  pop\n  jump\t// out\n    /* \"#utility.yul\":1651:1711   */\ntag_21:\n    /* \"#utility.yul\":1679:1682   */\n  0x00\n    /* \"#utility.yul\":1700:1705   */\n  dup2\n    /* \"#utility.yul\":1693:1705   */\n  swap1\n  pop\n    /* \"#utility.yul\":1651:1711   */\n  swap2\n  swap1\n  pop\n  jump\t// out\n    /* \"#utility.yul\":1717:1859   */\ntag_22:\n    /* \"#utility.yul\":1767:1776   */\n  0x00\n    /* \"#utility.yul\":1800:1853   */\n  tag_61\n    /* \"#utility.yul\":1818:1852   */\n  tag_62\n    /* \"#utility.yul\":1827:1851   */\n  tag_63\n    /* \"#utility.yul\":1845:1850   */\n  dup5\n    /* \"#utility.yul\":1827:1851   */\n  tag_20\n  jump\t// in\ntag_63:\n    /* \"#utility.yul\":1818:1852   */\n  tag_21\n  jump\t// in\ntag_62:\n    /* \"#utility.yul\":1800:1853   */\n  tag_20\n  jump\t// in\ntag_61:\n    /* \"#utility.yul\":1787:1853   */\n  swap1\n  pop\n    /* \"#utility.yul\":1717:1859   */\n  swap2\n  swap1\n  pop\n  jump\t// out\n    /* \"#utility.yul\":1865:1940   */\ntag_23:\n    /* \"#utility.yul\":1908:1911   */\n  0x00\n    /* \"#utility.yul\":1929:1934   */\n  dup2\n    /* \"#utility.yul\":1922:1934   */\n  swap1\n  pop\n    /* \"#utility.yul\":1865:1940   */\n  swap2\n  swap1\n  pop\n  jump\t// out\n    /* \"#utility.yul\":1946:2215   */\ntag_24:\n    /* \"#utility.yul\":2056:2095   */\n  tag_66\n    /* \"#utility.yul\":2087:2094   */\n  dup4\n    /* \"#utility.yul\":2056:2095   */\n  tag_22\n  jump\t// in\ntag_66:\n    /* \"#utility.yul\":2117:2208   */\n  tag_67\n    /* \"#utility.yul\":2166:2207   */\n  tag_68\n    /* \"#utility.yul\":2190:2206   */\n  dup3\n    /* \"#utility.yul\":2166:2207   */\n  tag_23\n  jump\t// in\ntag_68:\n    /* \"#utility.yul\":2158:2164   */\n  dup5\n    /* \"#utility.yul\":2151:2155   */\n  dup5\n    /* \"#utility.yul\":2145:2156   */\n  sload\n    /* \"#utility.yul\":2117:2208   */\n  tag_19\n  jump\t// in\ntag_67:\n    /* \"#utility.yul\":2111:2115   */\n  dup3\n    /* \"#utility.yul\":2104:2209   */\n  sstore\n    /* \"#utility.yul\":2022:2215   */\n  pop\n    /* \"#utility.yul\":1946:2215   */\n  pop\n  pop\n  pop\n  jump\t// out\n    /* \"#utility.yul\":2221:2294   */\ntag_25:\n    /* \"#utility.yul\":2266:2269   */\n  0x00\n    /* \"#utility.yul\":2287:2288   */\n  0x00\n    /* \"#utility.yul\":2280:2288   */\n  swap1\n  pop\n    /* \"#utility.yul\":2221:2294   */\n  swap1\n  jump\t// out\n    /* \"#utility.yul\":2300:2489   */\ntag_26:\n    /* \"#utility.yul\":2377:2409   */\n  tag_71\n  tag_25\n  jump\t// in\ntag_71:\n    /* \"#utility.yul\":2418:2483   */\n  tag_72\n    /* \"#utility.yul\":2476:2482   */\n  dup2\n    /* \"#utility.yul\":2468:2474   */\n  dup5\n    /* \"#utility.yul\":2462:2466   */\n  dup5\n    /* \"#utility.yul\":2418:2483   */\n  tag_24\n  jump\t// in\ntag_72:\n    /* \"#utility.yul\":2353:2489   */\n  pop\n    /* \"#utility.yul\":2300:2489   */\n  pop\n  pop\n  jump\t// out\n    /* \"#utility.yul\":2495:2681   */\ntag_27:\n    /* \"#utility.yul\":2555:2675   */\ntag_74:\n    /* \"#utility.yul\":2572:2575   */\n  dup2\n    /* \"#utility.yul\":2565:2570   */\n  dup2\n    /* \"#utility.yul\":2562:2576   */\n  lt\n    /* \"#utility.yul\":2555:2675   */\n  iszero\n  tag_76\n  jumpi\n    /* \"#utility.yul\":2626:2665   */\n  tag_77\n    /* \"#utility.yul\":2663:2664   */\n  0x00\n    /* \"#utility.yul\":2656:2661   */\n  dup3\n    /* \"#utility.yul\":2626:2665   */\n  tag_26\n  jump\t// in\ntag_77:\n    /* \"#utility.yul\":2599:2600   */\n  0x01\n    /* \"#utility.yul\":2592:2597   */\n  dup2\n    /* \"#utility.yul\":2588:2601   */\n  add\n    /* \"#utility.yul\":2579:2601   */\n  swap1\n  pop\n    /* \"#utility.yul\":2555:2675   */\n  jump(tag_74)\ntag_76:\n    /* \"#utility.yul\":2495:2681   */\n  pop\n  pop\n  jump\t// out\n    /* \"#utility.yul\":2687:3230   */\ntag_28:\n    /* \"#utility.yul\":2788:2790   */\n  0x1f\n    /* \"#utility.yul\":2783:2786   */\n  dup3\n    /* \"#utility.yul\":2780:2791   */\n  gt\n    /* \"#utility.yul\":2777:3223   */\n  iszero\n  tag_79\n  jumpi\n    /* \"#utility.yul\":2822:2860   */\n  tag_80\n    /* \"#utility.yul\":2854:2859   */\n  dup2\n    /* \"#utility.yul\":2822:2860   */\n  tag_16\n  jump\t// in\ntag_80:\n    /* \"#utility.yul\":2906:2935   */\n  tag_81\n    /* \"#utility.yul\":2924:2934   */\n  dup5\n    /* \"#utility.yul\":2906:2935   */\n  tag_17\n  jump\t// in\ntag_81:\n    /* \"#utility.yul\":2896:2904   */\n  dup2\n    /* \"#utility.yul\":2892:2936   */\n  add\n    /* \"#utility.yul\":3089:3091   */\n  0x20\n    /* \"#utility.yul\":3077:3087   */\n  dup6\n    /* \"#utility.yul\":3074:3092   */\n  lt\n    /* \"#utility.yul\":3071:3120   */\n  iszero\n  tag_82\n  jumpi\n    /* \"#utility.yul\":3110:3118   */\n  dup2\n    /* \"#utility.yul\":3095:3118   */\n  swap1\n  pop\n    /* \"#utility.yul\":3071:3120   */\ntag_82:\n    /* \"#utility.yul\":3133:3213   */\n  tag_83\n    /* \"#utility.yul\":3189:3211   */\n  tag_84\n    /* \"#utility.yul\":3207:3210   */\n  dup6\n    /* \"#utility.yul\":3189:3211   */\n  tag_17\n  jump\t// in\ntag_84:\n    /* \"#utility.yul\":3179:3187   */\n  dup4\n    /* \"#utility.yul\":3175:3212   */\n  add\n    /* \"#utility.yul\":3162:3173   */\n  dup3\n    /* \"#utility.yul\":3133:3213   */\n  tag_27\n  jump\t// in\ntag_83:\n    /* \"#utility.yul\":2792:3223   */\n  pop\n  pop\n    /* \"#utility.yul\":2777:3223   */\ntag_79:\n    /* \"#utility.yul\":2687:3230   */\n  pop\n  pop\n  pop\n  jump\t// out\n    /* \"#utility.yul\":3236:3353   */\ntag_29:\n    /* \"#utility.yul\":3290:3298   */\n  0x00\n    /* \"#utility.yul\":3340:3345   */\n  dup3\n    /* \"#utility.yul\":3334:3338   */\n  dup3\n    /* \"#utility.yul\":3330:3346   */\n  shr\n    /* \"#utility.yul\":3309:3346   */\n  swap1\n  pop\n    /* \"#utility.yul\":3236:3353   */\n  swap3\n  swap2\n  pop\n  pop\n  jump\t// out\n    /* \"#utility.yul\":3359:3528   */\ntag_30:\n    /* \"#utility.yul\":3403:3409   */\n  0x00\n    /* \"#utility.yul\":3436:3487   */\n  tag_87\n    /* \"#utility.yul\":3484:3485   */\n  0x00\n    /* \"#utility.yul\":3480:3486   */\n  not\n    /* \"#utility.yul\":3472:3477   */\n  dup5\n    /* \"#utility.yul\":3469:3470   */\n  0x08\n    /* \"#utility.yul\":3465:3478   */\n  mul\n    /* \"#utility.yul\":3436:3487   */\n  tag_29\n  jump\t// in\ntag_87:\n    /* \"#utility.yul\":3432:3488   */\n  not\n    /* \"#utility.yul\":3517:3521   */\n  dup1\n    /* \"#utility.yul\":3511:3515   */\n  dup4\n    /* \"#utility.yul\":3507:3522   */\n  and\n    /* \"#utility.yul\":3497:3522   */\n  swap2\n  pop\n    /* \"#utility.yul\":3410:3528   */\n  pop\n    /* \"#utility.yul\":3359:3528   */\n  swap3\n  swap2\n  pop\n  pop\n  jump\t// out\n    /* \"#utility.yul\":3533:3828   */\ntag_31:\n    /* \"#utility.yul\":3609:3613   */\n  0x00\n    /* \"#utility.yul\":3755:3784   */\n  tag_89\n    /* \"#utility.yul\":3780:3783   */\n  dup4\n    /* \"#utility.yul\":3774:3778   */\n  dup4\n    /* \"#utility.yul\":3755:3784   */\n  tag_30\n  jump\t// in\ntag_89:\n    /* \"#utility.yul\":3747:3784   */\n  swap2\n  pop\n    /* \"#utility.yul\":3817:3820   */\n  dup3\n    /* \"#utility.yul\":3814:3815   */\n  0x02\n    /* \"#utility.yul\":3810:3821   */\n  mul\n    /* \"#utility.yul\":3804:3808   */\n  dup3\n    /* \"#utility.yul\":3801:3822   */\n  or\n    /* \"#utility.yul\":3793:3822   */\n  swap1\n  pop\n    /* \"#utility.yul\":3533:3828   */\n  swap3\n  swap2\n  pop\n  pop\n  jump\t// out\n    /* \"#utility.yul\":3833:5228   */\ntag_5:\n    /* \"#utility.yul\":3950:3987   */\n  tag_91\n    /* \"#utility.yul\":3983:3986   */\n  dup3\n    /* \"#utility.yul\":3950:3987   */\n  tag_12\n  jump\t// in\ntag_91:\n    /* \"#utility.yul\":4052:4070   */\n  0xffffffffffffffff\n    /* \"#utility.yul\":4044:4050   */\n  dup2\n    /* \"#utility.yul\":4041:4071   */\n  gt\n    /* \"#utility.yul\":4038:4094   */\n  iszero\n  tag_92\n  jumpi\n    /* \"#utility.yul\":4074:4092   */\n  tag_93\n  tag_13\n  jump\t// in\ntag_93:\n    /* \"#utility.yul\":4038:4094   */\ntag_92:\n    /* \"#utility.yul\":4118:4156   */\n  tag_94\n    /* \"#utility.yul\":4150:4154   */\n  dup3\n    /* \"#utility.yul\":4144:4155   */\n  sload\n    /* \"#utility.yul\":4118:4156   */\n  tag_15\n  jump\t// in\ntag_94:\n    /* \"#utility.yul\":4203:4270   */\n  tag_95\n    /* \"#utility.yul\":4263:4269   */\n  dup3\n    /* \"#utility.yul\":4255:4261   */\n  dup3\n    /* \"#utility.yul\":4249:4253   */\n  dup6\n    /* \"#utility.yul\":4203:4270   */\n  tag_28\n  jump\t// in\ntag_95:\n    /* \"#utility.yul\":4297:4298   */\n  0x00\n    /* \"#utility.yul\":4321:4325   */\n  0x20\n    /* \"#utility.yul\":4308:4325   */\n  swap1\n  pop\n    /* \"#utility.yul\":4353:4355   */\n  0x1f\n    /* \"#utility.yul\":4345:4351   */\n  dup4\n    /* \"#utility.yul\":4342:4356   */\n  gt\n    /* \"#utility.yul\":4370:4371   */\n  0x01\n    /* \"#utility.yul\":4365:4983   */\n  dup2\n  eq\n  tag_97\n  jumpi\n    /* \"#utility.yul\":5027:5028   */\n  0x00\n    /* \"#utility.yul\":5044:5050   */\n  dup5\n    /* \"#utility.yul\":5041:5118   */\n  iszero\n  tag_98\n  jumpi\n    /* \"#utility.yul\":5093:5102   */\n  dup3\n    /* \"#utility.yul\":5088:5091   */\n  dup8\n    /* \"#utility.yul\":5084:5103   */\n  add\n    /* \"#utility.yul\":5078:5104   */\n  mload\n    /* \"#utility.yul\":5069:5104   */\n  swap1\n  pop\n    /* \"#utility.yul\":5041:5118   */\ntag_98:\n    /* \"#utility.yul\":5144:5211   */\n  tag_99\n    /* \"#utility.yul\":5204:5210   */\n  dup6\n    /* \"#utility.yul\":5197:5202   */\n  dup3\n    /* \"#utility.yul\":5144:5211   */\n  tag_31\n  jump\t// in\ntag_99:\n    /* \"#utility.yul\":5138:5142   */\n  dup7\n    /* \"#utility.yul\":5131:5212   */\n  sstore\n    /* \"#utility.yul\":5000:5222   */\n  pop\n    /* \"#utility.yul\":4335:5222   */\n  jump(tag_96)\n    /* \"#utility.yul\":4365:4983   */\ntag_97:\n    /* \"#utility.yul\":4417:4421   */\n  0x1f\n    /* \"#utility.yul\":4413:4422   */\n  not\n    /* \"#utility.yul\":4405:4411   */\n  dup5\n    /* \"#utility.yul\":4401:4423   */\n  and\n    /* \"#utility.yul\":4451:4488   */\n  tag_100\n    /* \"#utility.yul\":4483:4487   */\n  dup7\n    /* \"#utility.yul\":4451:4488   */\n  tag_16\n  jump\t// in\ntag_100:\n    /* \"#utility.yul\":4510:4511   */\n  0x00\n    /* \"#utility.yul\":4524:4732   */\ntag_101:\n    /* \"#utility.yul\":4538:4545   */\n  dup3\n    /* \"#utility.yul\":4535:4536   */\n  dup2\n    /* \"#utility.yul\":4532:4546   */\n  lt\n    /* \"#utility.yul\":4524:4732   */\n  iszero\n  tag_103\n  jumpi\n    /* \"#utility.yul\":4617:4626   */\n  dup5\n    /* \"#utility.yul\":4612:4615   */\n  dup10\n    /* \"#utility.yul\":4608:4627   */\n  add\n    /* \"#utility.yul\":4602:4628   */\n  mload\n    /* \"#utility.yul\":4594:4600   */\n  dup3\n    /* \"#utility.yul\":4587:4629   */\n  sstore\n    /* \"#utility.yul\":4668:4669   */\n  0x01\n    /* \"#utility.yul\":4660:4666   */\n  dup3\n    /* \"#utility.yul\":4656:4670   */\n  add\n    /* \"#utility.yul\":4646:4670   */\n  swap2\n  pop\n    /* \"#utility.yul\":4715:4717   */\n  0x20\n    /* \"#utility.yul\":4704:4713   */\n  dup6\n    /* \"#utility.yul\":4700:4718   */\n  add\n    /* \"#utility.yul\":4687:4718   */\n  swap5\n  pop\n    /* \"#utility.yul\":4561:4565   */\n  0x20\n    /* \"#utility.yul\":4558:4559   */\n  dup2\n    /* \"#utility.yul\":4554:4566   */\n  add\n    /* \"#utility.yul\":4549:4566   */\n  swap1\n  pop\n    /* \"#utility.yul\":4524:4732   */\n  jump(tag_101)\ntag_103:\n    /* \"#utility.yul\":4760:4766   */\n  dup7\n    /* \"#utility.yul\":4751:4758   */\n  dup4\n    /* \"#utility.yul\":4748:4767   */\n  lt\n    /* \"#utility.yul\":4745:4924   */\n  iszero\n  tag_104\n  jumpi\n    /* \"#utility.yul\":4818:4827   */\n  dup5\n    /* \"#utility.yul\":4813:4816   */\n  dup10\n    /* \"#utility.yul\":4809:4828   */\n  add\n    /* \"#utility.yul\":4803:4829   */\n  mload\n    /* \"#utility.yul\":4861:4909   */\n  tag_105\n    /* \"#utility.yul\":4903:4907   */\n  0x1f\n    /* \"#utility.yul\":4895:4901   */\n  dup10\n    /* \"#utility.yul\":4891:4908   */\n  and\n    /* \"#utility.yul\":4880:4889   */\n  dup3\n    /* \"#utility.yul\":4861:4909   */\n  tag_30\n  jump\t// in\ntag_105:\n    /* \"#utility.yul\":4853:4859   */\n  dup4\n    /* \"#utility.yul\":4846:4910   */\n  sstore\n    /* \"#utility.yul\":4768:4924   */\n  pop\n    /* \"#utility.yul\":4745:4924   */\ntag_104:\n    /* \"#utility.yul\":4970:4971   */\n  0x01\n    /* \"#utility.yul\":4966:4967   */\n  0x02\n    /* \"#utility.yul\":4958:4964   */\n  dup9\n    /* \"#utility.yul\":4954:4968   */\n  mul\n    /* \"#utility.yul\":4950:4972   */\n  add\n    /* \"#utility.yul\":4944:4948   */\n  dup9\n    /* \"#utility.yul\":4937:4973   */\n  sstore\n    /* \"#utility.yul\":4372:4983   */\n  pop\n  pop\n  pop\n    /* \"#utility.yul\":4335:5222   */\ntag_96:\n  pop\n    /* \"#utility.yul\":3925:5228   */\n  pop\n  pop\n  pop\n    /* \"#utility.yul\":3833:5228   */\n  pop\n  pop\n  jump\t// out\n    /* \"#utility.yul\":5234:5403   */\ntag_32:\n    /* \"#utility.yul\":5318:5329   */\n  0x00\n    /* \"#utility.yul\":5352:5358   */\n  dup3\n    /* \"#utility.yul\":5347:5350   */\n  dup3\n    /* \"#utility.yul\":5340:5359   */\n  mstore\n    /* \"#utility.yul\":5392:5396   */\n  0x20\n    /* \"#utility.yul\":5387:5390   */\n  dup3\n    /* \"#utility.yul\":5383:5397   */\n  add\n    /* \"#utility.yul\":5368:5397   */\n  swap1\n  pop\n    /* \"#utility.yul\":5234:5403   */\n  swap3\n  swap2\n  pop\n  pop\n  jump\t// out\n    /* \"#utility.yul\":5409:5567   */\ntag_33:\n    /* \"#utility.yul\":5549:5559   */\n  0x5675656c69746f73000000000000000000000000000000000000000000000000\n    /* \"#utility.yul\":5545:5546   */\n  0x00\n    /* \"#utility.yul\":5537:5543   */\n  dup3\n    /* \"#utility.yul\":5533:5547   */\n  add\n    /* \"#utility.yul\":5526:5560   */\n  mstore\n    /* \"#utility.yul\":5409:5567   */\n  pop\n  jump\t// out\n    /* \"#utility.yul\":5573:5938   */\ntag_34:\n    /* \"#utility.yul\":5715:5718   */\n  0x00\n    /* \"#utility.yul\":5736:5802   */\n  tag_109\n    /* \"#utility.yul\":5800:5801   */\n  0x08\n    /* \"#utility.yul\":5795:5798   */\n  dup4\n    /* \"#utility.yul\":5736:5802   */\n  tag_32\n  jump\t// in\ntag_109:\n    /* \"#utility.yul\":5729:5802   */\n  swap2\n  pop\n    /* \"#utility.yul\":5811:5904   */\n  tag_110\n    /* \"#utility.yul\":5900:5903   */\n  dup3\n    /* \"#utility.yul\":5811:5904   */\n  tag_33\n  jump\t// in\ntag_110:\n    /* \"#utility.yul\":5929:5931   */\n  0x20\n    /* \"#utility.yul\":5924:5927   */\n  dup3\n    /* \"#utility.yul\":5920:5932   */\n  add\n    /* \"#utility.yul\":5913:5932   */\n  swap1\n  pop\n    /* \"#utility.yul\":5573:5938   */\n  swap2\n  swap1\n  pop\n  jump\t// out\n    /* \"#utility.yul\":5944:6097   */\ntag_35:\n    /* \"#utility.yul\":6084:6089   */\n  0x566c740000000000000000000000000000000000000000000000000000000000\n    /* \"#utility.yul\":6080:6081   */\n  0x00\n    /* \"#utility.yul\":6072:6078   */\n  dup3\n    /* \"#utility.yul\":6068:6082   */\n  add\n    /* \"#utility.yul\":6061:6090   */\n  mstore\n    /* \"#utility.yul\":5944:6097   */\n  pop\n  jump\t// out\n    /* \"#utility.yul\":6103:6468   */\ntag_36:\n    /* \"#utility.yul\":6245:6248   */\n  0x00\n    /* \"#utility.yul\":6266:6332   */\n  tag_113\n    /* \"#utility.yul\":6330:6331   */\n  0x03\n    /* \"#utility.yul\":6325:6328   */\n  dup4\n    /* \"#utility.yul\":6266:6332   */\n  tag_32\n  jump\t// in\ntag_113:\n    /* \"#utility.yul\":6259:6332   */\n  swap2\n  pop\n    /* \"#utility.yul\":6341:6434   */\n  tag_114\n    /* \"#utility.yul\":6430:6433   */\n  dup3\n    /* \"#utility.yul\":6341:6434   */\n  tag_35\n  jump\t// in\ntag_114:\n    /* \"#utility.yul\":6459:6461   */\n  0x20\n    /* \"#utility.yul\":6454:6457   */\n  dup3\n    /* \"#utility.yul\":6450:6462   */\n  add\n    /* \"#utility.yul\":6443:6462   */\n  swap1\n  pop\n    /* \"#utility.yul\":6103:6468   */\n  swap2\n  swap1\n  pop\n  jump\t// out\n    /* \"#utility.yul\":6474:6559   */\ntag_37:\n    /* \"#utility.yul\":6519:6526   */\n  0x00\n    /* \"#utility.yul\":6548:6553   */\n  dup2\n    /* \"#utility.yul\":6537:6553   */\n  swap1\n  pop\n    /* \"#utility.yul\":6474:6559   */\n  swap2\n  swap1\n  pop\n  jump\t// out\n    /* \"#utility.yul\":6565:6651   */\ntag_38:\n    /* \"#utility.yul\":6600:6607   */\n  0x00\n    /* \"#utility.yul\":6640:6644   */\n  0xff\n    /* \"#utility.yul\":6633:6638   */\n  dup3\n    /* \"#utility.yul\":6629:6645   */\n  and\n    /* \"#utility.yul\":6618:6645   */\n  swap1\n  pop\n    /* \"#utility.yul\":6565:6651   */\n  swap2\n  swap1\n  pop\n  jump\t// out\n    /* \"#utility.yul\":6657:6811   */\ntag_39:\n    /* \"#utility.yul\":6713:6722   */\n  0x00\n    /* \"#utility.yul\":6746:6805   */\n  tag_118\n    /* \"#utility.yul\":6762:6804   */\n  tag_119\n    /* \"#utility.yul\":6771:6803   */\n  tag_120\n    /* \"#utility.yul\":6797:6802   */\n  dup5\n    /* \"#utility.yul\":6771:6803   */\n  tag_37\n  jump\t// in\ntag_120:\n    /* \"#utility.yul\":6762:6804   */\n  tag_21\n  jump\t// in\ntag_119:\n    /* \"#utility.yul\":6746:6805   */\n  tag_38\n  jump\t// in\ntag_118:\n    /* \"#utility.yul\":6733:6805   */\n  swap1\n  pop\n    /* \"#utility.yul\":6657:6811   */\n  swap2\n  swap1\n  pop\n  jump\t// out\n    /* \"#utility.yul\":6817:6960   */\ntag_40:\n    /* \"#utility.yul\":6910:6953   */\n  tag_122\n    /* \"#utility.yul\":6947:6952   */\n  dup2\n    /* \"#utility.yul\":6910:6953   */\n  tag_39\n  jump\t// in\ntag_122:\n    /* \"#utility.yul\":6905:6908   */\n  dup3\n    /* \"#utility.yul\":6898:6954   */\n  mstore\n    /* \"#utility.yul\":6817:6960   */\n  pop\n  pop\n  jump\t// out\n    /* \"#utility.yul\":6966:7051   */\ntag_41:\n    /* \"#utility.yul\":7011:7018   */\n  0x00\n    /* \"#utility.yul\":7040:7045   */\n  dup2\n    /* \"#utility.yul\":7029:7045   */\n  swap1\n  pop\n    /* \"#utility.yul\":6966:7051   */\n  swap2\n  swap1\n  pop\n  jump\t// out\n    /* \"#utility.yul\":7057:7215   */\ntag_42:\n    /* \"#utility.yul\":7115:7124   */\n  0x00\n    /* \"#utility.yul\":7148:7209   */\n  tag_125\n    /* \"#utility.yul\":7166:7208   */\n  tag_126\n    /* \"#utility.yul\":7175:7207   */\n  tag_127\n    /* \"#utility.yul\":7201:7206   */\n  dup5\n    /* \"#utility.yul\":7175:7207   */\n  tag_41\n  jump\t// in\ntag_127:\n    /* \"#utility.yul\":7166:7208   */\n  tag_21\n  jump\t// in\ntag_126:\n    /* \"#utility.yul\":7148:7209   */\n  tag_20\n  jump\t// in\ntag_125:\n    /* \"#utility.yul\":7135:7209   */\n  swap1\n  pop\n    /* \"#utility.yul\":7057:7215   */\n  swap2\n  swap1\n  pop\n  jump\t// out\n    /* \"#utility.yul\":7221:7368   */\ntag_43:\n    /* \"#utility.yul\":7316:7361   */\n  tag_129\n    /* \"#utility.yul\":7355:7360   */\n  dup2\n    /* \"#utility.yul\":7316:7361   */\n  tag_42\n  jump\t// in\ntag_129:\n    /* \"#utility.yul\":7311:7314   */\n  dup3\n    /* \"#utility.yul\":7304:7362   */\n  mstore\n    /* \"#utility.yul\":7221:7368   */\n  pop\n  pop\n  jump\t// out\n    /* \"#utility.yul\":7374:8349   */\ntag_9:\n    /* \"#utility.yul\":7711:7715   */\n  0x00\n    /* \"#utility.yul\":7749:7752   */\n  0x80\n    /* \"#utility.yul\":7738:7747   */\n  dup3\n    /* \"#utility.yul\":7734:7753   */\n  add\n    /* \"#utility.yul\":7726:7753   */\n  swap1\n  pop\n    /* \"#utility.yul\":7799:7808   */\n  dup2\n    /* \"#utility.yul\":7793:7797   */\n  dup2\n    /* \"#utility.yul\":7789:7809   */\n  sub\n    /* \"#utility.yul\":7785:7786   */\n  0x00\n    /* \"#utility.yul\":7774:7783   */\n  dup4\n    /* \"#utility.yul\":7770:7787   */\n  add\n    /* \"#utility.yul\":7763:7810   */\n  mstore\n    /* \"#utility.yul\":7827:7958   */\n  tag_131\n    /* \"#utility.yul\":7953:7957   */\n  dup2\n    /* \"#utility.yul\":7827:7958   */\n  tag_34\n  jump\t// in\ntag_131:\n    /* \"#utility.yul\":7819:7958   */\n  swap1\n  pop\n    /* \"#utility.yul\":8005:8014   */\n  dup2\n    /* \"#utility.yul\":7999:8003   */\n  dup2\n    /* \"#utility.yul\":7995:8015   */\n  sub\n    /* \"#utility.yul\":7990:7992   */\n  0x20\n    /* \"#utility.yul\":7979:7988   */\n  dup4\n    /* \"#utility.yul\":7975:7993   */\n  add\n    /* \"#utility.yul\":7968:8016   */\n  mstore\n    /* \"#utility.yul\":8033:8164   */\n  tag_132\n    /* \"#utility.yul\":8159:8163   */\n  dup2\n    /* \"#utility.yul\":8033:8164   */\n  tag_36\n  jump\t// in\ntag_132:\n    /* \"#utility.yul\":8025:8164   */\n  swap1\n  pop\n    /* \"#utility.yul\":8174:8252   */\n  tag_133\n    /* \"#utility.yul\":8248:8250   */\n  0x40\n    /* \"#utility.yul\":8237:8246   */\n  dup4\n    /* \"#utility.yul\":8233:8251   */\n  add\n    /* \"#utility.yul\":8224:8230   */\n  dup6\n    /* \"#utility.yul\":8174:8252   */\n  tag_40\n  jump\t// in\ntag_133:\n    /* \"#utility.yul\":8262:8342   */\n  tag_134\n    /* \"#utility.yul\":8338:8340   */\n  0x60\n    /* \"#utility.yul\":8327:8336   */\n  dup4\n    /* \"#utility.yul\":8323:8341   */\n  add\n    /* \"#utility.yul\":8314:8320   */\n  dup5\n    /* \"#utility.yul\":8262:8342   */\n  tag_43\n  jump\t// in\ntag_134:\n    /* \"#utility.yul\":7374:8349   */\n  swap4\n  swap3\n  pop\n  pop\n  pop\n  jump\t// out\n    /* \"contract.sol\":86:1530  contract AirportContract {... */\ntag_11:\n  dataSize(sub_0)\n  dup1\n  dataOffset(sub_0)\n  0x00\n  codecopy\n  0x00\n  return\nstop\n\nsub_0: assembly {\n        /* \"contract.sol\":86:1530  contract AirportContract {... */\n      mstore(0x40, 0x80)\n      callvalue\n      dup1\n      iszero\n      tag_1\n      jumpi\n      revert(0x00, 0x00)\n    tag_1:\n      pop\n      jumpi(tag_2, lt(calldatasize, 0x04))\n      shr(0xe0, calldataload(0x00))\n      dup1\n      0x21df0da7\n      eq\n      tag_3\n      jumpi\n      dup1\n      0x32434a2e\n      eq\n      tag_4\n      jumpi\n      dup1\n      0x8da5cb5b\n      eq\n      tag_5\n      jumpi\n      dup1\n      0xa401d24d\n      eq\n      tag_6\n      jumpi\n      dup1\n      0xd1df306c\n      eq\n      tag_7\n      jumpi\n    tag_2:\n      revert(0x00, 0x00)\n        /* \"contract.sol\":569:657  function getToken() external view returns (ERC20Simple) {... */\n    tag_3:\n      tag_8\n      tag_9\n      jump\t// in\n    tag_8:\n      mload(0x40)\n      tag_10\n      swap2\n      swap1\n      tag_11\n      jump\t// in\n    tag_10:\n      mload(0x40)\n      dup1\n      swap2\n      sub\n      swap1\n      return\n        /* \"contract.sol\":776:1128  function register(address id_, string memory name_) external onlyOwner  {... */\n    tag_4:\n      tag_12\n      0x04\n      dup1\n      calldatasize\n      sub\n      dup2\n      add\n      swap1\n      tag_13\n      swap2\n      swap1\n      tag_14\n      jump\t// in\n    tag_13:\n      tag_15\n      jump\t// in\n    tag_12:\n      stop\n        /* \"contract.sol\":213:241  address payable public owner */\n    tag_5:\n      tag_16\n      tag_17\n      jump\t// in\n    tag_16:\n      mload(0x40)\n      tag_18\n      swap2\n      swap1\n      tag_19\n      jump\t// in\n    tag_18:\n      mload(0x40)\n      dup1\n      swap2\n      sub\n      swap1\n      return\n        /* \"contract.sol\":1136:1290  function assignToken(address id, uint256 miles) external onlyOwner {... */\n    tag_6:\n      tag_20\n      0x04\n      dup1\n      calldatasize\n      sub\n      dup2\n      add\n      swap1\n      tag_21\n      swap2\n      swap1\n      tag_22\n      jump\t// in\n    tag_21:\n      tag_23\n      jump\t// in\n    tag_20:\n      stop\n        /* \"contract.sol\":1299:1526  function burnToken(address id, uint256 miles) external onlyOwner {... */\n    tag_7:\n      tag_24\n      0x04\n      dup1\n      calldatasize\n      sub\n      dup2\n      add\n      swap1\n      tag_25\n      swap2\n      swap1\n      tag_22\n      jump\t// in\n    tag_25:\n      tag_26\n      jump\t// in\n    tag_24:\n      stop\n        /* \"contract.sol\":569:657  function getToken() external view returns (ERC20Simple) {... */\n    tag_9:\n        /* \"contract.sol\":612:623  ERC20Simple */\n      0x00\n        /* \"contract.sol\":643:649  _token */\n      0x01\n      0x00\n      swap1\n      sload\n      swap1\n      0x0100\n      exp\n      swap1\n      div\n      0xffffffffffffffffffffffffffffffffffffffff\n      and\n        /* \"contract.sol\":636:649  return _token */\n      swap1\n      pop\n        /* \"contract.sol\":569:657  function getToken() external view returns (ERC20Simple) {... */\n      swap1\n      jump\t// out\n        /* \"contract.sol\":776:1128  function register(address id_, string memory name_) external onlyOwner  {... */\n    tag_15:\n        /* \"contract.sol\":717:722  owner */\n      0x03\n      0x00\n      swap1\n      sload\n      swap1\n      0x0100\n      exp\n      swap1\n      div\n      0xffffffffffffffffffffffffffffffffffffffff\n      and\n        /* \"contract.sol\":703:722  msg.sender == owner */\n      0xffffffffffffffffffffffffffffffffffffffff\n      and\n        /* \"contract.sol\":703:713  msg.sender */\n      caller\n        /* \"contract.sol\":703:722  msg.sender == owner */\n      0xffffffffffffffffffffffffffffffffffffffff\n      and\n      eq\n        /* \"contract.sol\":695:748  require(msg.sender == owner, \"You are not the owner\") */\n      tag_29\n      jumpi\n      mload(0x40)\n      0x08c379a000000000000000000000000000000000000000000000000000000000\n      dup2\n      mstore\n      0x04\n      add\n      tag_30\n      swap1\n      tag_31\n      jump\t// in\n    tag_30:\n      mload(0x40)\n      dup1\n      swap2\n      sub\n      swap1\n      revert\n    tag_29:\n        /* \"contract.sol\":901:902  0 */\n      0x00\n        /* \"contract.sol\":867:903  listPassengers[id_].id == address(0) */\n      0xffffffffffffffffffffffffffffffffffffffff\n      and\n        /* \"contract.sol\":867:881  listPassengers */\n      0x04\n        /* \"contract.sol\":867:886  listPassengers[id_] */\n      0x00\n        /* \"contract.sol\":882:885  id_ */\n      dup5\n        /* \"contract.sol\":867:886  listPassengers[id_] */\n      0xffffffffffffffffffffffffffffffffffffffff\n      and\n      0xffffffffffffffffffffffffffffffffffffffff\n      and\n      dup2\n      mstore\n      0x20\n      add\n      swap1\n      dup2\n      mstore\n      0x20\n      add\n      0x00\n      keccak256\n        /* \"contract.sol\":867:889  listPassengers[id_].id */\n      0x00\n      add\n      0x00\n      swap1\n      sload\n      swap1\n      0x0100\n      exp\n      swap1\n      div\n      0xffffffffffffffffffffffffffffffffffffffff\n      and\n        /* \"contract.sol\":867:903  listPassengers[id_].id == address(0) */\n      0xffffffffffffffffffffffffffffffffffffffff\n      and\n      eq\n        /* \"contract.sol\":859:939  require(listPassengers[id_].id == address(0), \"Passenger is already registered\") */\n      tag_33\n      jumpi\n      mload(0x40)\n      0x08c379a000000000000000000000000000000000000000000000000000000000\n      dup2\n      mstore\n      0x04\n      add\n      tag_34\n      swap1\n      tag_35\n      jump\t// in\n    tag_34:\n      mload(0x40)\n      dup1\n      swap2\n      sub\n      swap1\n      revert\n    tag_33:\n        /* \"contract.sol\":952:978  Passenger memory passenger */\n      0x00\n        /* \"contract.sol\":981:1076  Passenger({... */\n      mload(0x40)\n      dup1\n      0x60\n      add\n      0x40\n      mstore\n      dup1\n        /* \"contract.sol\":1010:1013  id_ */\n      dup5\n        /* \"contract.sol\":981:1076  Passenger({... */\n      0xffffffffffffffffffffffffffffffffffffffff\n      and\n      dup2\n      mstore\n      0x20\n      add\n        /* \"contract.sol\":1037:1038  0 */\n      0x00\n        /* \"contract.sol\":981:1076  Passenger({... */\n      dup2\n      mstore\n      0x20\n      add\n        /* \"contract.sol\":1059:1064  name_ */\n      dup4\n        /* \"contract.sol\":981:1076  Passenger({... */\n      dup2\n      mstore\n      pop\n        /* \"contract.sol\":952:1076  Passenger memory passenger = Passenger({... */\n      swap1\n      pop\n        /* \"contract.sol\":1111:1120  passenger */\n      dup1\n        /* \"contract.sol\":1089:1103  listPassengers */\n      0x04\n        /* \"contract.sol\":1089:1108  listPassengers[id_] */\n      0x00\n        /* \"contract.sol\":1104:1107  id_ */\n      dup6\n        /* \"contract.sol\":1089:1108  listPassengers[id_] */\n      0xffffffffffffffffffffffffffffffffffffffff\n      and\n      0xffffffffffffffffffffffffffffffffffffffff\n      and\n      dup2\n      mstore\n      0x20\n      add\n      swap1\n      dup2\n      mstore\n      0x20\n      add\n      0x00\n      keccak256\n        /* \"contract.sol\":1089:1120  listPassengers[id_] = passenger */\n      0x00\n      dup3\n      add\n      mload\n      dup2\n      0x00\n      add\n      exp(0x0100, 0x00)\n      dup2\n      sload\n      dup2\n      0xffffffffffffffffffffffffffffffffffffffff\n      mul\n      not\n      and\n      swap1\n      dup4\n      0xffffffffffffffffffffffffffffffffffffffff\n      and\n      mul\n      or\n      swap1\n      sstore\n      pop\n      0x20\n      dup3\n      add\n      mload\n      dup2\n      0x01\n      add\n      sstore\n      0x40\n      dup3\n      add\n      mload\n      dup2\n      0x02\n      add\n      swap1\n      dup2\n      tag_36\n      swap2\n      swap1\n      tag_37\n      jump\t// in\n    tag_36:\n      pop\n      swap1\n      pop\n      pop\n        /* \"contract.sol\":848:1128  {... */\n      pop\n        /* \"contract.sol\":776:1128  function register(address id_, string memory name_) external onlyOwner  {... */\n      pop\n      pop\n      jump\t// out\n        /* \"contract.sol\":213:241  address payable public owner */\n    tag_17:\n      0x03\n      0x00\n      swap1\n      sload\n      swap1\n      0x0100\n      exp\n      swap1\n      div\n      0xffffffffffffffffffffffffffffffffffffffff\n      and\n      dup2\n      jump\t// out\n        /* \"contract.sol\":1136:1290  function assignToken(address id, uint256 miles) external onlyOwner {... */\n    tag_23:\n        /* \"contract.sol\":717:722  owner */\n      0x03\n      0x00\n      swap1\n      sload\n      swap1\n      0x0100\n      exp\n      swap1\n      div\n      0xffffffffffffffffffffffffffffffffffffffff\n      and\n        /* \"contract.sol\":703:722  msg.sender == owner */\n      0xffffffffffffffffffffffffffffffffffffffff\n      and\n        /* \"contract.sol\":703:713  msg.sender */\n      caller\n        /* \"contract.sol\":703:722  msg.sender == owner */\n      0xffffffffffffffffffffffffffffffffffffffff\n      and\n      eq\n        /* \"contract.sol\":695:748  require(msg.sender == owner, \"You are not the owner\") */\n      tag_39\n      jumpi\n      mload(0x40)\n      0x08c379a000000000000000000000000000000000000000000000000000000000\n      dup2\n      mstore\n      0x04\n      add\n      tag_40\n      swap1\n      tag_31\n      jump\t// in\n    tag_40:\n      mload(0x40)\n      dup1\n      swap2\n      sub\n      swap1\n      revert\n    tag_39:\n        /* \"contract.sol\":1214:1220  _token */\n      0x01\n      0x00\n      swap1\n      sload\n      swap1\n      0x0100\n      exp\n      swap1\n      div\n      0xffffffffffffffffffffffffffffffffffffffff\n      and\n        /* \"contract.sol\":1214:1225  _token.mint */\n      0xffffffffffffffffffffffffffffffffffffffff\n      and\n      0x40c10f19\n        /* \"contract.sol\":1226:1228  id */\n      dup4\n        /* \"contract.sol\":1230:1235  miles */\n      dup4\n        /* \"contract.sol\":1214:1236  _token.mint(id, miles) */\n      mload(0x40)\n      dup4\n      0xffffffff\n      and\n      0xe0\n      shl\n      dup2\n      mstore\n      0x04\n      add\n      tag_42\n      swap3\n      swap2\n      swap1\n      tag_43\n      jump\t// in\n    tag_42:\n      0x00\n      mload(0x40)\n      dup1\n      dup4\n      sub\n      dup2\n      0x00\n      dup8\n      dup1\n      extcodesize\n      iszero\n      dup1\n      iszero\n      tag_44\n      jumpi\n      revert(0x00, 0x00)\n    tag_44:\n      pop\n      gas\n      call\n      iszero\n      dup1\n      iszero\n      tag_46\n      jumpi\n      returndatacopy(0x00, 0x00, returndatasize)\n      revert(0x00, returndatasize)\n    tag_46:\n      pop\n      pop\n      pop\n      pop\n        /* \"contract.sol\":1277:1282  miles */\n      dup1\n        /* \"contract.sol\":1247:1261  listPassengers */\n      0x04\n        /* \"contract.sol\":1247:1265  listPassengers[id] */\n      0x00\n        /* \"contract.sol\":1262:1264  id */\n      dup5\n        /* \"contract.sol\":1247:1265  listPassengers[id] */\n      0xffffffffffffffffffffffffffffffffffffffff\n      and\n      0xffffffffffffffffffffffffffffffffffffffff\n      and\n      dup2\n      mstore\n      0x20\n      add\n      swap1\n      dup2\n      mstore\n      0x20\n      add\n      0x00\n      keccak256\n        /* \"contract.sol\":1247:1273  listPassengers[id].balance */\n      0x01\n      add\n      0x00\n        /* \"contract.sol\":1247:1282  listPassengers[id].balance += miles */\n      dup3\n      dup3\n      sload\n      tag_47\n      swap2\n      swap1\n      tag_48\n      jump\t// in\n    tag_47:\n      swap3\n      pop\n      pop\n      dup2\n      swap1\n      sstore\n      pop\n        /* \"contract.sol\":1136:1290  function assignToken(address id, uint256 miles) external onlyOwner {... */\n      pop\n      pop\n      jump\t// out\n        /* \"contract.sol\":1299:1526  function burnToken(address id, uint256 miles) external onlyOwner {... */\n    tag_26:\n        /* \"contract.sol\":717:722  owner */\n      0x03\n      0x00\n      swap1\n      sload\n      swap1\n      0x0100\n      exp\n      swap1\n      div\n      0xffffffffffffffffffffffffffffffffffffffff\n      and\n        /* \"contract.sol\":703:722  msg.sender == owner */\n      0xffffffffffffffffffffffffffffffffffffffff\n      and\n        /* \"contract.sol\":703:713  msg.sender */\n      caller\n        /* \"contract.sol\":703:722  msg.sender == owner */\n      0xffffffffffffffffffffffffffffffffffffffff\n      and\n      eq\n        /* \"contract.sol\":695:748  require(msg.sender == owner, \"You are not the owner\") */\n      tag_50\n      jumpi\n      mload(0x40)\n      0x08c379a000000000000000000000000000000000000000000000000000000000\n      dup2\n      mstore\n      0x04\n      add\n      tag_51\n      swap1\n      tag_31\n      jump\t// in\n    tag_51:\n      mload(0x40)\n      dup1\n      swap2\n      sub\n      swap1\n      revert\n    tag_50:\n        /* \"contract.sol\":1413:1418  miles */\n      dup1\n        /* \"contract.sol\":1383:1397  listPassengers */\n      0x04\n        /* \"contract.sol\":1383:1401  listPassengers[id] */\n      0x00\n        /* \"contract.sol\":1398:1400  id */\n      dup5\n        /* \"contract.sol\":1383:1401  listPassengers[id] */\n      0xffffffffffffffffffffffffffffffffffffffff\n      and\n      0xffffffffffffffffffffffffffffffffffffffff\n      and\n      dup2\n      mstore\n      0x20\n      add\n      swap1\n      dup2\n      mstore\n      0x20\n      add\n      0x00\n      keccak256\n        /* \"contract.sol\":1383:1409  listPassengers[id].balance */\n      0x01\n      add\n      sload\n        /* \"contract.sol\":1383:1418  listPassengers[id].balance >= miles */\n      lt\n      iszero\n        /* \"contract.sol\":1375:1439  require(listPassengers[id].balance >= miles, \"Not enough miles\") */\n      tag_53\n      jumpi\n      mload(0x40)\n      0x08c379a000000000000000000000000000000000000000000000000000000000\n      dup2\n      mstore\n      0x04\n      add\n      tag_54\n      swap1\n      tag_55\n      jump\t// in\n    tag_54:\n      mload(0x40)\n      dup1\n      swap2\n      sub\n      swap1\n      revert\n    tag_53:\n        /* \"contract.sol\":1450:1456  _token */\n      0x01\n      0x00\n      swap1\n      sload\n      swap1\n      0x0100\n      exp\n      swap1\n      div\n      0xffffffffffffffffffffffffffffffffffffffff\n      and\n        /* \"contract.sol\":1450:1461  _token.burn */\n      0xffffffffffffffffffffffffffffffffffffffff\n      and\n      0x9dc29fac\n        /* \"contract.sol\":1462:1464  id */\n      dup4\n        /* \"contract.sol\":1466:1471  miles */\n      dup4\n        /* \"contract.sol\":1450:1472  _token.burn(id, miles) */\n      mload(0x40)\n      dup4\n      0xffffffff\n      and\n      0xe0\n      shl\n      dup2\n      mstore\n      0x04\n      add\n      tag_56\n      swap3\n      swap2\n      swap1\n      tag_43\n      jump\t// in\n    tag_56:\n      0x00\n      mload(0x40)\n      dup1\n      dup4\n      sub\n      dup2\n      0x00\n      dup8\n      dup1\n      extcodesize\n      iszero\n      dup1\n      iszero\n      tag_57\n      jumpi\n      revert(0x00, 0x00)\n    tag_57:\n      pop\n      gas\n      call\n      iszero\n      dup1\n      iszero\n      tag_59\n      jumpi\n      returndatacopy(0x00, 0x00, returndatasize)\n      revert(0x00, returndatasize)\n    tag_59:\n      pop\n      pop\n      pop\n      pop\n        /* \"contract.sol\":1513:1518  miles */\n      dup1\n        /* \"contract.sol\":1483:1497  listPassengers */\n      0x04\n        /* \"contract.sol\":1483:1501  listPassengers[id] */\n      0x00\n        /* \"contract.sol\":1498:1500  id */\n      dup5\n        /* \"contract.sol\":1483:1501  listPassengers[id] */\n      0xffffffffffffffffffffffffffffffffffffffff\n      and\n      0xffffffffffffffffffffffffffffffffffffffff\n      and\n      dup2\n      mstore\n      0x20\n      add\n      swap1\n      dup2\n      mstore\n      0x20\n      add\n      0x00\n      keccak256\n        /* \"contract.sol\":1483:1509  listPassengers[id].balance */\n      0x01\n      add\n      0x00\n        /* \"contract.sol\":1483:1518  listPassengers[id].balance -= miles */\n      dup3\n      dup3\n      sload\n      tag_60\n      swap2\n      swap1\n      tag_61\n      jump\t// in\n    tag_60:\n      swap3\n      pop\n      pop\n      dup2\n      swap1\n      sstore\n      pop\n        /* \"contract.sol\":1299:1526  function burnToken(address id, uint256 miles) external onlyOwner {... */\n      pop\n      pop\n      jump\t// out\n        /* \"#utility.yul\":7:133   */\n    tag_62:\n        /* \"#utility.yul\":44:51   */\n      0x00\n        /* \"#utility.yul\":84:126   */\n      0xffffffffffffffffffffffffffffffffffffffff\n        /* \"#utility.yul\":77:82   */\n      dup3\n        /* \"#utility.yul\":73:127   */\n      and\n        /* \"#utility.yul\":62:127   */\n      swap1\n      pop\n        /* \"#utility.yul\":7:133   */\n      swap2\n      swap1\n      pop\n      jump\t// out\n        /* \"#utility.yul\":139:199   */\n    tag_63:\n        /* \"#utility.yul\":167:170   */\n      0x00\n        /* \"#utility.yul\":188:193   */\n      dup2\n        /* \"#utility.yul\":181:193   */\n      swap1\n      pop\n        /* \"#utility.yul\":139:199   */\n      swap2\n      swap1\n      pop\n      jump\t// out\n        /* \"#utility.yul\":205:347   */\n    tag_64:\n        /* \"#utility.yul\":255:264   */\n      0x00\n        /* \"#utility.yul\":288:341   */\n      tag_120\n        /* \"#utility.yul\":306:340   */\n      tag_121\n        /* \"#utility.yul\":315:339   */\n      tag_122\n        /* \"#utility.yul\":333:338   */\n      dup5\n        /* \"#utility.yul\":315:339   */\n      tag_62\n      jump\t// in\n    tag_122:\n        /* \"#utility.yul\":306:340   */\n      tag_63\n      jump\t// in\n    tag_121:\n        /* \"#utility.yul\":288:341   */\n      tag_62\n      jump\t// in\n    tag_120:\n        /* \"#utility.yul\":275:341   */\n      swap1\n      pop\n        /* \"#utility.yul\":205:347   */\n      swap2\n      swap1\n      pop\n      jump\t// out\n        /* \"#utility.yul\":353:479   */\n    tag_65:\n        /* \"#utility.yul\":403:412   */\n      0x00\n        /* \"#utility.yul\":436:473   */\n      tag_124\n        /* \"#utility.yul\":467:472   */\n      dup3\n        /* \"#utility.yul\":436:473   */\n      tag_64\n      jump\t// in\n    tag_124:\n        /* \"#utility.yul\":423:473   */\n      swap1\n      pop\n        /* \"#utility.yul\":353:479   */\n      swap2\n      swap1\n      pop\n      jump\t// out\n        /* \"#utility.yul\":485:630   */\n    tag_66:\n        /* \"#utility.yul\":554:563   */\n      0x00\n        /* \"#utility.yul\":587:624   */\n      tag_126\n        /* \"#utility.yul\":618:623   */\n      dup3\n        /* \"#utility.yul\":587:624   */\n      tag_65\n      jump\t// in\n    tag_126:\n        /* \"#utility.yul\":574:624   */\n      swap1\n      pop\n        /* \"#utility.yul\":485:630   */\n      swap2\n      swap1\n      pop\n      jump\t// out\n        /* \"#utility.yul\":636:805   */\n    tag_67:\n        /* \"#utility.yul\":742:798   */\n      tag_128\n        /* \"#utility.yul\":792:797   */\n      dup2\n        /* \"#utility.yul\":742:798   */\n      tag_66\n      jump\t// in\n    tag_128:\n        /* \"#utility.yul\":737:740   */\n      dup3\n        /* \"#utility.yul\":730:799   */\n      mstore\n        /* \"#utility.yul\":636:805   */\n      pop\n      pop\n      jump\t// out\n        /* \"#utility.yul\":811:1071   */\n    tag_11:\n        /* \"#utility.yul\":923:927   */\n      0x00\n        /* \"#utility.yul\":961:963   */\n      0x20\n        /* \"#utility.yul\":950:959   */\n      dup3\n        /* \"#utility.yul\":946:964   */\n      add\n        /* \"#utility.yul\":938:964   */\n      swap1\n      pop\n        /* \"#utility.yul\":974:1064   */\n      tag_130\n        /* \"#utility.yul\":1061:1062   */\n      0x00\n        /* \"#utility.yul\":1050:1059   */\n      dup4\n        /* \"#utility.yul\":1046:1063   */\n      add\n        /* \"#utility.yul\":1037:1043   */\n      dup5\n        /* \"#utility.yul\":974:1064   */\n      tag_67\n      jump\t// in\n    tag_130:\n        /* \"#utility.yul\":811:1071   */\n      swap3\n      swap2\n      pop\n      pop\n      jump\t// out\n        /* \"#utility.yul\":1077:1152   */\n    tag_68:\n        /* \"#utility.yul\":1110:1116   */\n      0x00\n        /* \"#utility.yul\":1143:1145   */\n      0x40\n        /* \"#utility.yul\":1137:1146   */\n      mload\n        /* \"#utility.yul\":1127:1146   */\n      swap1\n      pop\n        /* \"#utility.yul\":1077:1152   */\n      swap1\n      jump\t// out\n        /* \"#utility.yul\":1158:1275   */\n    tag_69:\n        /* \"#utility.yul\":1267:1268   */\n      0x00\n        /* \"#utility.yul\":1264:1265   */\n      0x00\n        /* \"#utility.yul\":1257:1269   */\n      revert\n        /* \"#utility.yul\":1281:1398   */\n    tag_70:\n        /* \"#utility.yul\":1390:1391   */\n      0x00\n        /* \"#utility.yul\":1387:1388   */\n      0x00\n        /* \"#utility.yul\":1380:1392   */\n      revert\n        /* \"#utility.yul\":1404:1500   */\n    tag_71:\n        /* \"#utility.yul\":1441:1448   */\n      0x00\n        /* \"#utility.yul\":1470:1494   */\n      tag_135\n        /* \"#utility.yul\":1488:1493   */\n      dup3\n        /* \"#utility.yul\":1470:1494   */\n      tag_62\n      jump\t// in\n    tag_135:\n        /* \"#utility.yul\":1459:1494   */\n      swap1\n      pop\n        /* \"#utility.yul\":1404:1500   */\n      swap2\n      swap1\n      pop\n      jump\t// out\n        /* \"#utility.yul\":1506:1628   */\n    tag_72:\n        /* \"#utility.yul\":1579:1603   */\n      tag_137\n        /* \"#utility.yul\":1597:1602   */\n      dup2\n        /* \"#utility.yul\":1579:1603   */\n      tag_71\n      jump\t// in\n    tag_137:\n        /* \"#utility.yul\":1572:1577   */\n      dup2\n        /* \"#utility.yul\":1569:1604   */\n      eq\n        /* \"#utility.yul\":1559:1622   */\n      tag_138\n      jumpi\n        /* \"#utility.yul\":1618:1619   */\n      0x00\n        /* \"#utility.yul\":1615:1616   */\n      0x00\n        /* \"#utility.yul\":1608:1620   */\n      revert\n        /* \"#utility.yul\":1559:1622   */\n    tag_138:\n        /* \"#utility.yul\":1506:1628   */\n      pop\n      jump\t// out\n        /* \"#utility.yul\":1634:1773   */\n    tag_73:\n        /* \"#utility.yul\":1680:1685   */\n      0x00\n        /* \"#utility.yul\":1718:1724   */\n      dup2\n        /* \"#utility.yul\":1705:1725   */\n      calldataload\n        /* \"#utility.yul\":1696:1725   */\n      swap1\n      pop\n        /* \"#utility.yul\":1734:1767   */\n      tag_140\n        /* \"#utility.yul\":1761:1766   */\n      dup2\n        /* \"#utility.yul\":1734:1767   */\n      tag_72\n      jump\t// in\n    tag_140:\n        /* \"#utility.yul\":1634:1773   */\n      swap3\n      swap2\n      pop\n      pop\n      jump\t// out\n        /* \"#utility.yul\":1779:1896   */\n    tag_74:\n        /* \"#utility.yul\":1888:1889   */\n      0x00\n        /* \"#utility.yul\":1885:1886   */\n      0x00\n        /* \"#utility.yul\":1878:1890   */\n      revert\n        /* \"#utility.yul\":1902:2019   */\n    tag_75:\n        /* \"#utility.yul\":2011:2012   */\n      0x00\n        /* \"#utility.yul\":2008:2009   */\n      0x00\n        /* \"#utility.yul\":2001:2013   */\n      revert\n        /* \"#utility.yul\":2025:2127   */\n    tag_76:\n        /* \"#utility.yul\":2066:2072   */\n      0x00\n        /* \"#utility.yul\":2117:2119   */\n      0x1f\n        /* \"#utility.yul\":2113:2120   */\n      not\n        /* \"#utility.yul\":2108:2110   */\n      0x1f\n        /* \"#utility.yul\":2101:2106   */\n      dup4\n        /* \"#utility.yul\":2097:2111   */\n      add\n        /* \"#utility.yul\":2093:2121   */\n      and\n        /* \"#utility.yul\":2083:2121   */\n      swap1\n      pop\n        /* \"#utility.yul\":2025:2127   */\n      swap2\n      swap1\n      pop\n      jump\t// out\n        /* \"#utility.yul\":2133:2313   */\n    tag_77:\n        /* \"#utility.yul\":2181:2258   */\n      0x4e487b7100000000000000000000000000000000000000000000000000000000\n        /* \"#utility.yul\":2178:2179   */\n      0x00\n        /* \"#utility.yul\":2171:2259   */\n      mstore\n        /* \"#utility.yul\":2278:2282   */\n      0x41\n        /* \"#utility.yul\":2275:2276   */\n      0x04\n        /* \"#utility.yul\":2268:2283   */\n      mstore\n        /* \"#utility.yul\":2302:2306   */\n      0x24\n        /* \"#utility.yul\":2299:2300   */\n      0x00\n        /* \"#utility.yul\":2292:2307   */\n      revert\n        /* \"#utility.yul\":2319:2600   */\n    tag_78:\n        /* \"#utility.yul\":2402:2429   */\n      tag_146\n        /* \"#utility.yul\":2424:2428   */\n      dup3\n        /* \"#utility.yul\":2402:2429   */\n      tag_76\n      jump\t// in\n    tag_146:\n        /* \"#utility.yul\":2394:2400   */\n      dup2\n        /* \"#utility.yul\":2390:2430   */\n      add\n        /* \"#utility.yul\":2532:2538   */\n      dup2\n        /* \"#utility.yul\":2520:2530   */\n      dup2\n        /* \"#utility.yul\":2517:2539   */\n      lt\n        /* \"#utility.yul\":2496:2514   */\n      0xffffffffffffffff\n        /* \"#utility.yul\":2484:2494   */\n      dup3\n        /* \"#utility.yul\":2481:2515   */\n      gt\n        /* \"#utility.yul\":2478:2540   */\n      or\n        /* \"#utility.yul\":2475:2563   */\n      iszero\n      tag_147\n      jumpi\n        /* \"#utility.yul\":2543:2561   */\n      tag_148\n      tag_77\n      jump\t// in\n    tag_148:\n        /* \"#utility.yul\":2475:2563   */\n    tag_147:\n        /* \"#utility.yul\":2583:2593   */\n      dup1\n        /* \"#utility.yul\":2579:2581   */\n      0x40\n        /* \"#utility.yul\":2572:2594   */\n      mstore\n        /* \"#utility.yul\":2362:2600   */\n      pop\n        /* \"#utility.yul\":2319:2600   */\n      pop\n      pop\n      jump\t// out\n        /* \"#utility.yul\":2606:2735   */\n    tag_79:\n        /* \"#utility.yul\":2640:2646   */\n      0x00\n        /* \"#utility.yul\":2667:2687   */\n      tag_150\n      tag_68\n      jump\t// in\n    tag_150:\n        /* \"#utility.yul\":2657:2687   */\n      swap1\n      pop\n        /* \"#utility.yul\":2696:2729   */\n      tag_151\n        /* \"#utility.yul\":2724:2728   */\n      dup3\n        /* \"#utility.yul\":2716:2722   */\n      dup3\n        /* \"#utility.yul\":2696:2729   */\n      tag_78\n      jump\t// in\n    tag_151:\n        /* \"#utility.yul\":2606:2735   */\n      swap2\n      swap1\n      pop\n      jump\t// out\n        /* \"#utility.yul\":2741:3049   */\n    tag_80:\n        /* \"#utility.yul\":2803:2807   */\n      0x00\n        /* \"#utility.yul\":2893:2911   */\n      0xffffffffffffffff\n        /* \"#utility.yul\":2885:2891   */\n      dup3\n        /* \"#utility.yul\":2882:2912   */\n      gt\n        /* \"#utility.yul\":2879:2935   */\n      iszero\n      tag_153\n      jumpi\n        /* \"#utility.yul\":2915:2933   */\n      tag_154\n      tag_77\n      jump\t// in\n    tag_154:\n        /* \"#utility.yul\":2879:2935   */\n    tag_153:\n        /* \"#utility.yul\":2953:2982   */\n      tag_155\n        /* \"#utility.yul\":2975:2981   */\n      dup3\n        /* \"#utility.yul\":2953:2982   */\n      tag_76\n      jump\t// in\n    tag_155:\n        /* \"#utility.yul\":2945:2982   */\n      swap1\n      pop\n        /* \"#utility.yul\":3037:3041   */\n      0x20\n        /* \"#utility.yul\":3031:3035   */\n      dup2\n        /* \"#utility.yul\":3027:3042   */\n      add\n        /* \"#utility.yul\":3019:3042   */\n      swap1\n      pop\n        /* \"#utility.yul\":2741:3049   */\n      swap2\n      swap1\n      pop\n      jump\t// out\n        /* \"#utility.yul\":3055:3203   */\n    tag_81:\n        /* \"#utility.yul\":3153:3159   */\n      dup3\n        /* \"#utility.yul\":3148:3151   */\n      dup2\n        /* \"#utility.yul\":3143:3146   */\n      dup4\n        /* \"#utility.yul\":3130:3160   */\n      calldatacopy\n        /* \"#utility.yul\":3194:3195   */\n      0x00\n        /* \"#utility.yul\":3185:3191   */\n      dup4\n        /* \"#utility.yul\":3180:3183   */\n      dup4\n        /* \"#utility.yul\":3176:3192   */\n      add\n        /* \"#utility.yul\":3169:3196   */\n      mstore\n        /* \"#utility.yul\":3055:3203   */\n      pop\n      pop\n      pop\n      jump\t// out\n        /* \"#utility.yul\":3209:3634   */\n    tag_82:\n        /* \"#utility.yul\":3287:3292   */\n      0x00\n        /* \"#utility.yul\":3312:3378   */\n      tag_158\n        /* \"#utility.yul\":3328:3377   */\n      tag_159\n        /* \"#utility.yul\":3370:3376   */\n      dup5\n        /* \"#utility.yul\":3328:3377   */\n      tag_80\n      jump\t// in\n    tag_159:\n        /* \"#utility.yul\":3312:3378   */\n      tag_79\n      jump\t// in\n    tag_158:\n        /* \"#utility.yul\":3303:3378   */\n      swap1\n      pop\n        /* \"#utility.yul\":3401:3407   */\n      dup3\n        /* \"#utility.yul\":3394:3399   */\n      dup2\n        /* \"#utility.yul\":3387:3408   */\n      mstore\n        /* \"#utility.yul\":3439:3443   */\n      0x20\n        /* \"#utility.yul\":3432:3437   */\n      dup2\n        /* \"#utility.yul\":3428:3444   */\n      add\n        /* \"#utility.yul\":3477:3480   */\n      dup5\n        /* \"#utility.yul\":3468:3474   */\n      dup5\n        /* \"#utility.yul\":3463:3466   */\n      dup5\n        /* \"#utility.yul\":3459:3475   */\n      add\n        /* \"#utility.yul\":3456:3481   */\n      gt\n        /* \"#utility.yul\":3453:3565   */\n      iszero\n      tag_160\n      jumpi\n        /* \"#utility.yul\":3484:3563   */\n      tag_161\n      tag_75\n      jump\t// in\n    tag_161:\n        /* \"#utility.yul\":3453:3565   */\n    tag_160:\n        /* \"#utility.yul\":3574:3628   */\n      tag_162\n        /* \"#utility.yul\":3621:3627   */\n      dup5\n        /* \"#utility.yul\":3616:3619   */\n      dup3\n        /* \"#utility.yul\":3611:3614   */\n      dup6\n        /* \"#utility.yul\":3574:3628   */\n      tag_81\n      jump\t// in\n    tag_162:\n        /* \"#utility.yul\":3293:3634   */\n      pop\n        /* \"#utility.yul\":3209:3634   */\n      swap4\n      swap3\n      pop\n      pop\n      pop\n      jump\t// out\n        /* \"#utility.yul\":3654:3994   */\n    tag_83:\n        /* \"#utility.yul\":3710:3715   */\n      0x00\n        /* \"#utility.yul\":3759:3762   */\n      dup3\n        /* \"#utility.yul\":3752:3756   */\n      0x1f\n        /* \"#utility.yul\":3744:3750   */\n      dup4\n        /* \"#utility.yul\":3740:3757   */\n      add\n        /* \"#utility.yul\":3736:3763   */\n      slt\n        /* \"#utility.yul\":3726:3848   */\n      tag_164\n      jumpi\n        /* \"#utility.yul\":3767:3846   */\n      tag_165\n      tag_74\n      jump\t// in\n    tag_165:\n        /* \"#utility.yul\":3726:3848   */\n    tag_164:\n        /* \"#utility.yul\":3884:3890   */\n      dup2\n        /* \"#utility.yul\":3871:3891   */\n      calldataload\n        /* \"#utility.yul\":3909:3988   */\n      tag_166\n        /* \"#utility.yul\":3984:3987   */\n      dup5\n        /* \"#utility.yul\":3976:3982   */\n      dup3\n        /* \"#utility.yul\":3969:3973   */\n      0x20\n        /* \"#utility.yul\":3961:3967   */\n      dup7\n        /* \"#utility.yul\":3957:3974   */\n      add\n        /* \"#utility.yul\":3909:3988   */\n      tag_82\n      jump\t// in\n    tag_166:\n        /* \"#utility.yul\":3900:3988   */\n      swap2\n      pop\n        /* \"#utility.yul\":3716:3994   */\n      pop\n        /* \"#utility.yul\":3654:3994   */\n      swap3\n      swap2\n      pop\n      pop\n      jump\t// out\n        /* \"#utility.yul\":4000:4654   */\n    tag_14:\n        /* \"#utility.yul\":4078:4084   */\n      0x00\n        /* \"#utility.yul\":4086:4092   */\n      0x00\n        /* \"#utility.yul\":4135:4137   */\n      0x40\n        /* \"#utility.yul\":4123:4132   */\n      dup4\n        /* \"#utility.yul\":4114:4121   */\n      dup6\n        /* \"#utility.yul\":4110:4133   */\n      sub\n        /* \"#utility.yul\":4106:4138   */\n      slt\n        /* \"#utility.yul\":4103:4222   */\n      iszero\n      tag_168\n      jumpi\n        /* \"#utility.yul\":4141:4220   */\n      tag_169\n      tag_69\n      jump\t// in\n    tag_169:\n        /* \"#utility.yul\":4103:4222   */\n    tag_168:\n        /* \"#utility.yul\":4261:4262   */\n      0x00\n        /* \"#utility.yul\":4286:4339   */\n      tag_170\n        /* \"#utility.yul\":4331:4338   */\n      dup6\n        /* \"#utility.yul\":4322:4328   */\n      dup3\n        /* \"#utility.yul\":4311:4320   */\n      dup7\n        /* \"#utility.yul\":4307:4329   */\n      add\n        /* \"#utility.yul\":4286:4339   */\n      tag_73\n      jump\t// in\n    tag_170:\n        /* \"#utility.yul\":4276:4339   */\n      swap3\n      pop\n        /* \"#utility.yul\":4232:4349   */\n      pop\n        /* \"#utility.yul\":4416:4418   */\n      0x20\n        /* \"#utility.yul\":4405:4414   */\n      dup4\n        /* \"#utility.yul\":4401:4419   */\n      add\n        /* \"#utility.yul\":4388:4420   */\n      calldataload\n        /* \"#utility.yul\":4447:4465   */\n      0xffffffffffffffff\n        /* \"#utility.yul\":4439:4445   */\n      dup2\n        /* \"#utility.yul\":4436:4466   */\n      gt\n        /* \"#utility.yul\":4433:4550   */\n      iszero\n      tag_171\n      jumpi\n        /* \"#utility.yul\":4469:4548   */\n      tag_172\n      tag_70\n      jump\t// in\n    tag_172:\n        /* \"#utility.yul\":4433:4550   */\n    tag_171:\n        /* \"#utility.yul\":4574:4637   */\n      tag_173\n        /* \"#utility.yul\":4629:4636   */\n      dup6\n        /* \"#utility.yul\":4620:4626   */\n      dup3\n        /* \"#utility.yul\":4609:4618   */\n      dup7\n        /* \"#utility.yul\":4605:4627   */\n      add\n        /* \"#utility.yul\":4574:4637   */\n      tag_83\n      jump\t// in\n    tag_173:\n        /* \"#utility.yul\":4564:4637   */\n      swap2\n      pop\n        /* \"#utility.yul\":4359:4647   */\n      pop\n        /* \"#utility.yul\":4000:4654   */\n      swap3\n      pop\n      swap3\n      swap1\n      pop\n      jump\t// out\n        /* \"#utility.yul\":4660:4764   */\n    tag_84:\n        /* \"#utility.yul\":4705:4712   */\n      0x00\n        /* \"#utility.yul\":4734:4758   */\n      tag_175\n        /* \"#utility.yul\":4752:4757   */\n      dup3\n        /* \"#utility.yul\":4734:4758   */\n      tag_62\n      jump\t// in\n    tag_175:\n        /* \"#utility.yul\":4723:4758   */\n      swap1\n      pop\n        /* \"#utility.yul\":4660:4764   */\n      swap2\n      swap1\n      pop\n      jump\t// out\n        /* \"#utility.yul\":4770:4912   */\n    tag_85:\n        /* \"#utility.yul\":4873:4905   */\n      tag_177\n        /* \"#utility.yul\":4899:4904   */\n      dup2\n        /* \"#utility.yul\":4873:4905   */\n      tag_84\n      jump\t// in\n    tag_177:\n        /* \"#utility.yul\":4868:4871   */\n      dup3\n        /* \"#utility.yul\":4861:4906   */\n      mstore\n        /* \"#utility.yul\":4770:4912   */\n      pop\n      pop\n      jump\t// out\n        /* \"#utility.yul\":4918:5172   */\n    tag_19:\n        /* \"#utility.yul\":5027:5031   */\n      0x00\n        /* \"#utility.yul\":5065:5067   */\n      0x20\n        /* \"#utility.yul\":5054:5063   */\n      dup3\n        /* \"#utility.yul\":5050:5068   */\n      add\n        /* \"#utility.yul\":5042:5068   */\n      swap1\n      pop\n        /* \"#utility.yul\":5078:5165   */\n      tag_179\n        /* \"#utility.yul\":5162:5163   */\n      0x00\n        /* \"#utility.yul\":5151:5160   */\n      dup4\n        /* \"#utility.yul\":5147:5164   */\n      add\n        /* \"#utility.yul\":5138:5144   */\n      dup5\n        /* \"#utility.yul\":5078:5165   */\n      tag_85\n      jump\t// in\n    tag_179:\n        /* \"#utility.yul\":4918:5172   */\n      swap3\n      swap2\n      pop\n      pop\n      jump\t// out\n        /* \"#utility.yul\":5178:5255   */\n    tag_86:\n        /* \"#utility.yul\":5215:5222   */\n      0x00\n        /* \"#utility.yul\":5244:5249   */\n      dup2\n        /* \"#utility.yul\":5233:5249   */\n      swap1\n      pop\n        /* \"#utility.yul\":5178:5255   */\n      swap2\n      swap1\n      pop\n      jump\t// out\n        /* \"#utility.yul\":5261:5383   */\n    tag_87:\n        /* \"#utility.yul\":5334:5358   */\n      tag_182\n        /* \"#utility.yul\":5352:5357   */\n      dup2\n        /* \"#utility.yul\":5334:5358   */\n      tag_86\n      jump\t// in\n    tag_182:\n        /* \"#utility.yul\":5327:5332   */\n      dup2\n        /* \"#utility.yul\":5324:5359   */\n      eq\n        /* \"#utility.yul\":5314:5377   */\n      tag_183\n      jumpi\n        /* \"#utility.yul\":5373:5374   */\n      0x00\n        /* \"#utility.yul\":5370:5371   */\n      0x00\n        /* \"#utility.yul\":5363:5375   */\n      revert\n        /* \"#utility.yul\":5314:5377   */\n    tag_183:\n        /* \"#utility.yul\":5261:5383   */\n      pop\n      jump\t// out\n        /* \"#utility.yul\":5389:5528   */\n    tag_88:\n        /* \"#utility.yul\":5435:5440   */\n      0x00\n        /* \"#utility.yul\":5473:5479   */\n      dup2\n        /* \"#utility.yul\":5460:5480   */\n      calldataload\n        /* \"#utility.yul\":5451:5480   */\n      swap1\n      pop\n        /* \"#utility.yul\":5489:5522   */\n      tag_185\n        /* \"#utility.yul\":5516:5521   */\n      dup2\n        /* \"#utility.yul\":5489:5522   */\n      tag_87\n      jump\t// in\n    tag_185:\n        /* \"#utility.yul\":5389:5528   */\n      swap3\n      swap2\n      pop\n      pop\n      jump\t// out\n        /* \"#utility.yul\":5534:6008   */\n    tag_22:\n        /* \"#utility.yul\":5602:5608   */\n      0x00\n        /* \"#utility.yul\":5610:5616   */\n      0x00\n        /* \"#utility.yul\":5659:5661   */\n      0x40\n        /* \"#utility.yul\":5647:5656   */\n      dup4\n        /* \"#utility.yul\":5638:5645   */\n      dup6\n        /* \"#utility.yul\":5634:5657   */\n      sub\n        /* \"#utility.yul\":5630:5662   */\n      slt\n        /* \"#utility.yul\":5627:5746   */\n      iszero\n      tag_187\n      jumpi\n        /* \"#utility.yul\":5665:5744   */\n      tag_188\n      tag_69\n      jump\t// in\n    tag_188:\n        /* \"#utility.yul\":5627:5746   */\n    tag_187:\n        /* \"#utility.yul\":5785:5786   */\n      0x00\n        /* \"#utility.yul\":5810:5863   */\n      tag_189\n        /* \"#utility.yul\":5855:5862   */\n      dup6\n        /* \"#utility.yul\":5846:5852   */\n      dup3\n        /* \"#utility.yul\":5835:5844   */\n      dup7\n        /* \"#utility.yul\":5831:5853   */\n      add\n        /* \"#utility.yul\":5810:5863   */\n      tag_73\n      jump\t// in\n    tag_189:\n        /* \"#utility.yul\":5800:5863   */\n      swap3\n      pop\n        /* \"#utility.yul\":5756:5873   */\n      pop\n        /* \"#utility.yul\":5912:5914   */\n      0x20\n        /* \"#utility.yul\":5938:5991   */\n      tag_190\n        /* \"#utility.yul\":5983:5990   */\n      dup6\n        /* \"#utility.yul\":5974:5980   */\n      dup3\n        /* \"#utility.yul\":5963:5972   */\n      dup7\n        /* \"#utility.yul\":5959:5981   */\n      add\n        /* \"#utility.yul\":5938:5991   */\n      tag_88\n      jump\t// in\n    tag_190:\n        /* \"#utility.yul\":5928:5991   */\n      swap2\n      pop\n        /* \"#utility.yul\":5883:6001   */\n      pop\n        /* \"#utility.yul\":5534:6008   */\n      swap3\n      pop\n      swap3\n      swap1\n      pop\n      jump\t// out\n        /* \"#utility.yul\":6014:6183   */\n    tag_89:\n        /* \"#utility.yul\":6098:6109   */\n      0x00\n        /* \"#utility.yul\":6132:6138   */\n      dup3\n        /* \"#utility.yul\":6127:6130   */\n      dup3\n        /* \"#utility.yul\":6120:6139   */\n      mstore\n        /* \"#utility.yul\":6172:6176   */\n      0x20\n        /* \"#utility.yul\":6167:6170   */\n      dup3\n        /* \"#utility.yul\":6163:6177   */\n      add\n        /* \"#utility.yul\":6148:6177   */\n      swap1\n      pop\n        /* \"#utility.yul\":6014:6183   */\n      swap3\n      swap2\n      pop\n      pop\n      jump\t// out\n        /* \"#utility.yul\":6189:6360   */\n    tag_90:\n        /* \"#utility.yul\":6329:6352   */\n      0x596f7520617265206e6f7420746865206f776e65720000000000000000000000\n        /* \"#utility.yul\":6325:6326   */\n      0x00\n        /* \"#utility.yul\":6317:6323   */\n      dup3\n        /* \"#utility.yul\":6313:6327   */\n      add\n        /* \"#utility.yul\":6306:6353   */\n      mstore\n        /* \"#utility.yul\":6189:6360   */\n      pop\n      jump\t// out\n        /* \"#utility.yul\":6366:6732   */\n    tag_91:\n        /* \"#utility.yul\":6508:6511   */\n      0x00\n        /* \"#utility.yul\":6529:6596   */\n      tag_194\n        /* \"#utility.yul\":6593:6595   */\n      0x15\n        /* \"#utility.yul\":6588:6591   */\n      dup4\n        /* \"#utility.yul\":6529:6596   */\n      tag_89\n      jump\t// in\n    tag_194:\n        /* \"#utility.yul\":6522:6596   */\n      swap2\n      pop\n        /* \"#utility.yul\":6605:6698   */\n      tag_195\n        /* \"#utility.yul\":6694:6697   */\n      dup3\n        /* \"#utility.yul\":6605:6698   */\n      tag_90\n      jump\t// in\n    tag_195:\n        /* \"#utility.yul\":6723:6725   */\n      0x20\n        /* \"#utility.yul\":6718:6721   */\n      dup3\n        /* \"#utility.yul\":6714:6726   */\n      add\n        /* \"#utility.yul\":6707:6726   */\n      swap1\n      pop\n        /* \"#utility.yul\":6366:6732   */\n      swap2\n      swap1\n      pop\n      jump\t// out\n        /* \"#utility.yul\":6738:7157   */\n    tag_31:\n        /* \"#utility.yul\":6904:6908   */\n      0x00\n        /* \"#utility.yul\":6942:6944   */\n      0x20\n        /* \"#utility.yul\":6931:6940   */\n      dup3\n        /* \"#utility.yul\":6927:6945   */\n      add\n        /* \"#utility.yul\":6919:6945   */\n      swap1\n      pop\n        /* \"#utility.yul\":6991:7000   */\n      dup2\n        /* \"#utility.yul\":6985:6989   */\n      dup2\n        /* \"#utility.yul\":6981:7001   */\n      sub\n        /* \"#utility.yul\":6977:6978   */\n      0x00\n        /* \"#utility.yul\":6966:6975   */\n      dup4\n        /* \"#utility.yul\":6962:6979   */\n      add\n        /* \"#utility.yul\":6955:7002   */\n      mstore\n        /* \"#utility.yul\":7019:7150   */\n      tag_197\n        /* \"#utility.yul\":7145:7149   */\n      dup2\n        /* \"#utility.yul\":7019:7150   */\n      tag_91\n      jump\t// in\n    tag_197:\n        /* \"#utility.yul\":7011:7150   */\n      swap1\n      pop\n        /* \"#utility.yul\":6738:7157   */\n      swap2\n      swap1\n      pop\n      jump\t// out\n        /* \"#utility.yul\":7163:7344   */\n    tag_92:\n        /* \"#utility.yul\":7303:7336   */\n      0x50617373656e67657220697320616c7265616479207265676973746572656400\n        /* \"#utility.yul\":7299:7300   */\n      0x00\n        /* \"#utility.yul\":7291:7297   */\n      dup3\n        /* \"#utility.yul\":7287:7301   */\n      add\n        /* \"#utility.yul\":7280:7337   */\n      mstore\n        /* \"#utility.yul\":7163:7344   */\n      pop\n      jump\t// out\n        /* \"#utility.yul\":7350:7716   */\n    tag_93:\n        /* \"#utility.yul\":7492:7495   */\n      0x00\n        /* \"#utility.yul\":7513:7580   */\n      tag_200\n        /* \"#utility.yul\":7577:7579   */\n      0x1f\n        /* \"#utility.yul\":7572:7575   */\n      dup4\n        /* \"#utility.yul\":7513:7580   */\n      tag_89\n      jump\t// in\n    tag_200:\n        /* \"#utility.yul\":7506:7580   */\n      swap2\n      pop\n        /* \"#utility.yul\":7589:7682   */\n      tag_201\n        /* \"#utility.yul\":7678:7681   */\n      dup3\n        /* \"#utility.yul\":7589:7682   */\n      tag_92\n      jump\t// in\n    tag_201:\n        /* \"#utility.yul\":7707:7709   */\n      0x20\n        /* \"#utility.yul\":7702:7705   */\n      dup3\n        /* \"#utility.yul\":7698:7710   */\n      add\n        /* \"#utility.yul\":7691:7710   */\n      swap1\n      pop\n        /* \"#utility.yul\":7350:7716   */\n      swap2\n      swap1\n      pop\n      jump\t// out\n        /* \"#utility.yul\":7722:8141   */\n    tag_35:\n        /* \"#utility.yul\":7888:7892   */\n      0x00\n        /* \"#utility.yul\":7926:7928   */\n      0x20\n        /* \"#utility.yul\":7915:7924   */\n      dup3\n        /* \"#utility.yul\":7911:7929   */\n      add\n        /* \"#utility.yul\":7903:7929   */\n      swap1\n      pop\n        /* \"#utility.yul\":7975:7984   */\n      dup2\n        /* \"#utility.yul\":7969:7973   */\n      dup2\n        /* \"#utility.yul\":7965:7985   */\n      sub\n        /* \"#utility.yul\":7961:7962   */\n      0x00\n        /* \"#utility.yul\":7950:7959   */\n      dup4\n        /* \"#utility.yul\":7946:7963   */\n      add\n        /* \"#utility.yul\":7939:7986   */\n      mstore\n        /* \"#utility.yul\":8003:8134   */\n      tag_203\n        /* \"#utility.yul\":8129:8133   */\n      dup2\n        /* \"#utility.yul\":8003:8134   */\n      tag_93\n      jump\t// in\n    tag_203:\n        /* \"#utility.yul\":7995:8134   */\n      swap1\n      pop\n        /* \"#utility.yul\":7722:8141   */\n      swap2\n      swap1\n      pop\n      jump\t// out\n        /* \"#utility.yul\":8147:8246   */\n    tag_94:\n        /* \"#utility.yul\":8199:8205   */\n      0x00\n        /* \"#utility.yul\":8233:8238   */\n      dup2\n        /* \"#utility.yul\":8227:8239   */\n      mload\n        /* \"#utility.yul\":8217:8239   */\n      swap1\n      pop\n        /* \"#utility.yul\":8147:8246   */\n      swap2\n      swap1\n      pop\n      jump\t// out\n        /* \"#utility.yul\":8252:8432   */\n    tag_95:\n        /* \"#utility.yul\":8300:8377   */\n      0x4e487b7100000000000000000000000000000000000000000000000000000000\n        /* \"#utility.yul\":8297:8298   */\n      0x00\n        /* \"#utility.yul\":8290:8378   */\n      mstore\n        /* \"#utility.yul\":8397:8401   */\n      0x22\n        /* \"#utility.yul\":8394:8395   */\n      0x04\n        /* \"#utility.yul\":8387:8402   */\n      mstore\n        /* \"#utility.yul\":8421:8425   */\n      0x24\n        /* \"#utility.yul\":8418:8419   */\n      0x00\n        /* \"#utility.yul\":8411:8426   */\n      revert\n        /* \"#utility.yul\":8438:8758   */\n    tag_96:\n        /* \"#utility.yul\":8482:8488   */\n      0x00\n        /* \"#utility.yul\":8519:8520   */\n      0x02\n        /* \"#utility.yul\":8513:8517   */\n      dup3\n        /* \"#utility.yul\":8509:8521   */\n      div\n        /* \"#utility.yul\":8499:8521   */\n      swap1\n      pop\n        /* \"#utility.yul\":8566:8567   */\n      0x01\n        /* \"#utility.yul\":8560:8564   */\n      dup3\n        /* \"#utility.yul\":8556:8568   */\n      and\n        /* \"#utility.yul\":8587:8605   */\n      dup1\n        /* \"#utility.yul\":8577:8658   */\n      tag_207\n      jumpi\n        /* \"#utility.yul\":8643:8647   */\n      0x7f\n        /* \"#utility.yul\":8635:8641   */\n      dup3\n        /* \"#utility.yul\":8631:8648   */\n      and\n        /* \"#utility.yul\":8621:8648   */\n      swap2\n      pop\n        /* \"#utility.yul\":8577:8658   */\n    tag_207:\n        /* \"#utility.yul\":8705:8707   */\n      0x20\n        /* \"#utility.yul\":8697:8703   */\n      dup3\n        /* \"#utility.yul\":8694:8708   */\n      lt\n        /* \"#utility.yul\":8674:8692   */\n      dup2\n        /* \"#utility.yul\":8671:8709   */\n      sub\n        /* \"#utility.yul\":8668:8752   */\n      tag_208\n      jumpi\n        /* \"#utility.yul\":8724:8742   */\n      tag_209\n      tag_95\n      jump\t// in\n    tag_209:\n        /* \"#utility.yul\":8668:8752   */\n    tag_208:\n        /* \"#utility.yul\":8489:8758   */\n      pop\n        /* \"#utility.yul\":8438:8758   */\n      swap2\n      swap1\n      pop\n      jump\t// out\n        /* \"#utility.yul\":8764:8905   */\n    tag_97:\n        /* \"#utility.yul\":8813:8817   */\n      0x00\n        /* \"#utility.yul\":8836:8839   */\n      dup2\n        /* \"#utility.yul\":8828:8839   */\n      swap1\n      pop\n        /* \"#utility.yul\":8859:8862   */\n      dup2\n        /* \"#utility.yul\":8856:8857   */\n      0x00\n        /* \"#utility.yul\":8849:8863   */\n      mstore\n        /* \"#utility.yul\":8893:8897   */\n      0x20\n        /* \"#utility.yul\":8890:8891   */\n      0x00\n        /* \"#utility.yul\":8880:8898   */\n      keccak256\n        /* \"#utility.yul\":8872:8898   */\n      swap1\n      pop\n        /* \"#utility.yul\":8764:8905   */\n      swap2\n      swap1\n      pop\n      jump\t// out\n        /* \"#utility.yul\":8911:9004   */\n    tag_98:\n        /* \"#utility.yul\":8948:8954   */\n      0x00\n        /* \"#utility.yul\":8995:8997   */\n      0x20\n        /* \"#utility.yul\":8990:8992   */\n      0x1f\n        /* \"#utility.yul\":8983:8988   */\n      dup4\n        /* \"#utility.yul\":8979:8993   */\n      add\n        /* \"#utility.yul\":8975:8998   */\n      div\n        /* \"#utility.yul\":8965:8998   */\n      swap1\n      pop\n        /* \"#utility.yul\":8911:9004   */\n      swap2\n      swap1\n      pop\n      jump\t// out\n        /* \"#utility.yul\":9010:9117   */\n    tag_99:\n        /* \"#utility.yul\":9054:9062   */\n      0x00\n        /* \"#utility.yul\":9104:9109   */\n      dup3\n        /* \"#utility.yul\":9098:9102   */\n      dup3\n        /* \"#utility.yul\":9094:9110   */\n      shl\n        /* \"#utility.yul\":9073:9110   */\n      swap1\n      pop\n        /* \"#utility.yul\":9010:9117   */\n      swap3\n      swap2\n      pop\n      pop\n      jump\t// out\n        /* \"#utility.yul\":9123:9516   */\n    tag_100:\n        /* \"#utility.yul\":9192:9198   */\n      0x00\n        /* \"#utility.yul\":9242:9243   */\n      0x08\n        /* \"#utility.yul\":9230:9240   */\n      dup4\n        /* \"#utility.yul\":9226:9244   */\n      mul\n        /* \"#utility.yul\":9265:9362   */\n      tag_214\n        /* \"#utility.yul\":9295:9361   */\n      0xffffffffffffffffffffffffffffffffffffffffffffffffffffffffffffffff\n        /* \"#utility.yul\":9284:9293   */\n      dup3\n        /* \"#utility.yul\":9265:9362   */\n      tag_99\n      jump\t// in\n    tag_214:\n        /* \"#utility.yul\":9383:9422   */\n      tag_215\n        /* \"#utility.yul\":9413:9421   */\n      dup7\n        /* \"#utility.yul\":9402:9411   */\n      dup4\n        /* \"#utility.yul\":9383:9422   */\n      tag_99\n      jump\t// in\n    tag_215:\n        /* \"#utility.yul\":9371:9422   */\n      swap6\n      pop\n        /* \"#utility.yul\":9455:9459   */\n      dup1\n        /* \"#utility.yul\":9451:9460   */\n      not\n        /* \"#utility.yul\":9444:9449   */\n      dup5\n        /* \"#utility.yul\":9440:9461   */\n      and\n        /* \"#utility.yul\":9431:9461   */\n      swap4\n      pop\n        /* \"#utility.yul\":9504:9508   */\n      dup1\n        /* \"#utility.yul\":9494:9502   */\n      dup7\n        /* \"#utility.yul\":9490:9509   */\n      and\n        /* \"#utility.yul\":9483:9488   */\n      dup5\n        /* \"#utility.yul\":9480:9510   */\n      or\n        /* \"#utility.yul\":9470:9510   */\n      swap3\n      pop\n        /* \"#utility.yul\":9199:9516   */\n      pop\n      pop\n        /* \"#utility.yul\":9123:9516   */\n      swap4\n      swap3\n      pop\n      pop\n      pop\n      jump\t// out\n        /* \"#utility.yul\":9522:9664   */\n    tag_101:\n        /* \"#utility.yul\":9572:9581   */\n      0x00\n        /* \"#utility.yul\":9605:9658   */\n      tag_217\n        /* \"#utility.yul\":9623:9657   */\n      tag_218\n        /* \"#utility.yul\":9632:9656   */\n      tag_219\n        /* \"#utility.yul\":9650:9655   */\n      dup5\n        /* \"#utility.yul\":9632:9656   */\n      tag_86\n      jump\t// in\n    tag_219:\n        /* \"#utility.yul\":9623:9657   */\n      tag_63\n      jump\t// in\n    tag_218:\n        /* \"#utility.yul\":9605:9658   */\n      tag_86\n      jump\t// in\n    tag_217:\n        /* \"#utility.yul\":9592:9658   */\n      swap1\n      pop\n        /* \"#utility.yul\":9522:9664   */\n      swap2\n      swap1\n      pop\n      jump\t// out\n        /* \"#utility.yul\":9670:9745   */\n    tag_102:\n        /* \"#utility.yul\":9713:9716   */\n      0x00\n        /* \"#utility.yul\":9734:9739   */\n      dup2\n        /* \"#utility.yul\":9727:9739   */\n      swap1\n      pop\n        /* \"#utility.yul\":9670:9745   */\n      swap2\n      swap1\n      pop\n      jump\t// out\n        /* \"#utility.yul\":9751:10020   */\n    tag_103:\n        /* \"#utility.yul\":9861:9900   */\n      tag_222\n        /* \"#utility.yul\":9892:9899   */\n      dup4\n        /* \"#utility.yul\":9861:9900   */\n      tag_101\n      jump\t// in\n    tag_222:\n        /* \"#utility.yul\":9922:10013   */\n      tag_223\n        /* \"#utility.yul\":9971:10012   */\n      tag_224\n        /* \"#utility.yul\":9995:10011   */\n      dup3\n        /* \"#utility.yul\":9971:10012   */\n      tag_102\n      jump\t// in\n    tag_224:\n        /* \"#utility.yul\":9963:9969   */\n      dup5\n        /* \"#utility.yul\":9956:9960   */\n      dup5\n        /* \"#utility.yul\":9950:9961   */\n      sload\n        /* \"#utility.yul\":9922:10013   */\n      tag_100\n      jump\t// in\n    tag_223:\n        /* \"#utility.yul\":9916:9920   */\n      dup3\n        /* \"#utility.yul\":9909:10014   */\n      sstore\n        /* \"#utility.yul\":9827:10020   */\n      pop\n        /* \"#utility.yul\":9751:10020   */\n      pop\n      pop\n      pop\n      jump\t// out\n        /* \"#utility.yul\":10026:10099   */\n    tag_104:\n        /* \"#utility.yul\":10071:10074   */\n      0x00\n        /* \"#utility.yul\":10092:10093   */\n      0x00\n        /* \"#utility.yul\":10085:10093   */\n      swap1\n      pop\n        /* \"#utility.yul\":10026:10099   */\n      swap1\n      jump\t// out\n        /* \"#utility.yul\":10105:10294   */\n    tag_105:\n        /* \"#utility.yul\":10182:10214   */\n      tag_227\n      tag_104\n      jump\t// in\n    tag_227:\n        /* \"#utility.yul\":10223:10288   */\n      tag_228\n        /* \"#utility.yul\":10281:10287   */\n      dup2\n        /* \"#utility.yul\":10273:10279   */\n      dup5\n        /* \"#utility.yul\":10267:10271   */\n      dup5\n        /* \"#utility.yul\":10223:10288   */\n      tag_103\n      jump\t// in\n    tag_228:\n        /* \"#utility.yul\":10158:10294   */\n      pop\n        /* \"#utility.yul\":10105:10294   */\n      pop\n      pop\n      jump\t// out\n        /* \"#utility.yul\":10300:10486   */\n    tag_106:\n        /* \"#utility.yul\":10360:10480   */\n    tag_230:\n        /* \"#utility.yul\":10377:10380   */\n      dup2\n        /* \"#utility.yul\":10370:10375   */\n      dup2\n        /* \"#utility.yul\":10367:10381   */\n      lt\n        /* \"#utility.yul\":10360:10480   */\n      iszero\n      tag_232\n      jumpi\n        /* \"#utility.yul\":10431:10470   */\n      tag_233\n        /* \"#utility.yul\":10468:10469   */\n      0x00\n        /* \"#utility.yul\":10461:10466   */\n      dup3\n        /* \"#utility.yul\":10431:10470   */\n      tag_105\n      jump\t// in\n    tag_233:\n        /* \"#utility.yul\":10404:10405   */\n      0x01\n        /* \"#utility.yul\":10397:10402   */\n      dup2\n        /* \"#utility.yul\":10393:10406   */\n      add\n        /* \"#utility.yul\":10384:10406   */\n      swap1\n      pop\n        /* \"#utility.yul\":10360:10480   */\n      jump(tag_230)\n    tag_232:\n        /* \"#utility.yul\":10300:10486   */\n      pop\n      pop\n      jump\t// out\n        /* \"#utility.yul\":10492:11035   */\n    tag_107:\n        /* \"#utility.yul\":10593:10595   */\n      0x1f\n        /* \"#utility.yul\":10588:10591   */\n      dup3\n        /* \"#utility.yul\":10585:10596   */\n      gt\n        /* \"#utility.yul\":10582:11028   */\n      iszero\n      tag_235\n      jumpi\n        /* \"#utility.yul\":10627:10665   */\n      tag_236\n        /* \"#utility.yul\":10659:10664   */\n      dup2\n        /* \"#utility.yul\":10627:10665   */\n      tag_97\n      jump\t// in\n    tag_236:\n        /* \"#utility.yul\":10711:10740   */\n      tag_237\n        /* \"#utility.yul\":10729:10739   */\n      dup5\n        /* \"#utility.yul\":10711:10740   */\n      tag_98\n      jump\t// in\n    tag_237:\n        /* \"#utility.yul\":10701:10709   */\n      dup2\n        /* \"#utility.yul\":10697:10741   */\n      add\n        /* \"#utility.yul\":10894:10896   */\n      0x20\n        /* \"#utility.yul\":10882:10892   */\n      dup6\n        /* \"#utility.yul\":10879:10897   */\n      lt\n        /* \"#utility.yul\":10876:10925   */\n      iszero\n      tag_238\n      jumpi\n        /* \"#utility.yul\":10915:10923   */\n      dup2\n        /* \"#utility.yul\":10900:10923   */\n      swap1\n      pop\n        /* \"#utility.yul\":10876:10925   */\n    tag_238:\n        /* \"#utility.yul\":10938:11018   */\n      tag_239\n        /* \"#utility.yul\":10994:11016   */\n      tag_240\n        /* \"#utility.yul\":11012:11015   */\n      dup6\n        /* \"#utility.yul\":10994:11016   */\n      tag_98\n      jump\t// in\n    tag_240:\n        /* \"#utility.yul\":10984:10992   */\n      dup4\n        /* \"#utility.yul\":10980:11017   */\n      add\n        /* \"#utility.yul\":10967:10978   */\n      dup3\n        /* \"#utility.yul\":10938:11018   */\n      tag_106\n      jump\t// in\n    tag_239:\n        /* \"#utility.yul\":10597:11028   */\n      pop\n      pop\n        /* \"#utility.yul\":10582:11028   */\n    tag_235:\n        /* \"#utility.yul\":10492:11035   */\n      pop\n      pop\n      pop\n      jump\t// out\n        /* \"#utility.yul\":11041:11158   */\n    tag_108:\n        /* \"#utility.yul\":11095:11103   */\n      0x00\n        /* \"#utility.yul\":11145:11150   */\n      dup3\n        /* \"#utility.yul\":11139:11143   */\n      dup3\n        /* \"#utility.yul\":11135:11151   */\n      shr\n        /* \"#utility.yul\":11114:11151   */\n      swap1\n      pop\n        /* \"#utility.yul\":11041:11158   */\n      swap3\n      swap2\n      pop\n      pop\n      jump\t// out\n        /* \"#utility.yul\":11164:11333   */\n    tag_109:\n        /* \"#utility.yul\":11208:11214   */\n      0x00\n        /* \"#utility.yul\":11241:11292   */\n      tag_243\n        /* \"#utility.yul\":11289:11290   */\n      0x00\n        /* \"#utility.yul\":11285:11291   */\n      not\n        /* \"#utility.yul\":11277:11282   */\n      dup5\n        /* \"#utility.yul\":11274:11275   */\n      0x08\n        /* \"#utility.yul\":11270:11283   */\n      mul\n        /* \"#utility.yul\":11241:11292   */\n      tag_108\n      jump\t// in\n    tag_243:\n        /* \"#utility.yul\":11237:11293   */\n      not\n        /* \"#utility.yul\":11322:11326   */\n      dup1\n        /* \"#utility.yul\":11316:11320   */\n      dup4\n        /* \"#utility.yul\":11312:11327   */\n      and\n        /* \"#utility.yul\":11302:11327   */\n      swap2\n      pop\n        /* \"#utility.yul\":11215:11333   */\n      pop\n        /* \"#utility.yul\":11164:11333   */\n      swap3\n      swap2\n      pop\n      pop\n      jump\t// out\n        /* \"#utility.yul\":11338:11633   */\n    tag_110:\n        /* \"#utility.yul\":11414:11418   */\n      0x00\n        /* \"#utility.yul\":11560:11589   */\n      tag_245\n        /* \"#utility.yul\":11585:11588   */\n      dup4\n        /* \"#utility.yul\":11579:11583   */\n      dup4\n        /* \"#utility.yul\":11560:11589   */\n      tag_109\n      jump\t// in\n    tag_245:\n        /* \"#utility.yul\":11552:11589   */\n      swap2\n      pop\n        /* \"#utility.yul\":11622:11625   */\n      dup3\n        /* \"#utility.yul\":11619:11620   */\n      0x02\n        /* \"#utility.yul\":11615:11626   */\n      mul\n        /* \"#utility.yul\":11609:11613   */\n      dup3\n        /* \"#utility.yul\":11606:11627   */\n      or\n        /* \"#utility.yul\":11598:11627   */\n      swap1\n      pop\n        /* \"#utility.yul\":11338:11633   */\n      swap3\n      swap2\n      pop\n      pop\n      jump\t// out\n        /* \"#utility.yul\":11638:13033   */\n    tag_37:\n        /* \"#utility.yul\":11755:11792   */\n      tag_247\n        /* \"#utility.yul\":11788:11791   */\n      dup3\n        /* \"#utility.yul\":11755:11792   */\n      tag_94\n      jump\t// in\n    tag_247:\n        /* \"#utility.yul\":11857:11875   */\n      0xffffffffffffffff\n        /* \"#utility.yul\":11849:11855   */\n      dup2\n        /* \"#utility.yul\":11846:11876   */\n      gt\n        /* \"#utility.yul\":11843:11899   */\n      iszero\n      tag_248\n      jumpi\n        /* \"#utility.yul\":11879:11897   */\n      tag_249\n      tag_77\n      jump\t// in\n    tag_249:\n        /* \"#utility.yul\":11843:11899   */\n    tag_248:\n        /* \"#utility.yul\":11923:11961   */\n      tag_250\n        /* \"#utility.yul\":11955:11959   */\n      dup3\n        /* \"#utility.yul\":11949:11960   */\n      sload\n        /* \"#utility.yul\":11923:11961   */\n      tag_96\n      jump\t// in\n    tag_250:\n        /* \"#utility.yul\":12008:12075   */\n      tag_251\n        /* \"#utility.yul\":12068:12074   */\n      dup3\n        /* \"#utility.yul\":12060:12066   */\n      dup3\n        /* \"#utility.yul\":12054:12058   */\n      dup6\n        /* \"#utility.yul\":12008:12075   */\n      tag_107\n      jump\t// in\n    tag_251:\n        /* \"#utility.yul\":12102:12103   */\n      0x00\n        /* \"#utility.yul\":12126:12130   */\n      0x20\n        /* \"#utility.yul\":12113:12130   */\n      swap1\n      pop\n        /* \"#utility.yul\":12158:12160   */\n      0x1f\n        /* \"#utility.yul\":12150:12156   */\n      dup4\n        /* \"#utility.yul\":12147:12161   */\n      gt\n        /* \"#utility.yul\":12175:12176   */\n      0x01\n        /* \"#utility.yul\":12170:12788   */\n      dup2\n      eq\n      tag_253\n      jumpi\n        /* \"#utility.yul\":12832:12833   */\n      0x00\n        /* \"#utility.yul\":12849:12855   */\n      dup5\n        /* \"#utility.yul\":12846:12923   */\n      iszero\n      tag_254\n      jumpi\n        /* \"#utility.yul\":12898:12907   */\n      dup3\n        /* \"#utility.yul\":12893:12896   */\n      dup8\n        /* \"#utility.yul\":12889:12908   */\n      add\n        /* \"#utility.yul\":12883:12909   */\n      mload\n        /* \"#utility.yul\":12874:12909   */\n      swap1\n      pop\n        /* \"#utility.yul\":12846:12923   */\n    tag_254:\n        /* \"#utility.yul\":12949:13016   */\n      tag_255\n        /* \"#utility.yul\":13009:13015   */\n      dup6\n        /* \"#utility.yul\":13002:13007   */\n      dup3\n        /* \"#utility.yul\":12949:13016   */\n      tag_110\n      jump\t// in\n    tag_255:\n        /* \"#utility.yul\":12943:12947   */\n      dup7\n        /* \"#utility.yul\":12936:13017   */\n      sstore\n        /* \"#utility.yul\":12805:13027   */\n      pop\n        /* \"#utility.yul\":12140:13027   */\n      jump(tag_252)\n        /* \"#utility.yul\":12170:12788   */\n    tag_253:\n        /* \"#utility.yul\":12222:12226   */\n      0x1f\n        /* \"#utility.yul\":12218:12227   */\n      not\n        /* \"#utility.yul\":12210:12216   */\n      dup5\n        /* \"#utility.yul\":12206:12228   */\n      and\n        /* \"#utility.yul\":12256:12293   */\n      tag_256\n        /* \"#utility.yul\":12288:12292   */\n      dup7\n        /* \"#utility.yul\":12256:12293   */\n      tag_97\n      jump\t// in\n    tag_256:\n        /* \"#utility.yul\":12315:12316   */\n      0x00\n        /* \"#utility.yul\":12329:12537   */\n    tag_257:\n        /* \"#utility.yul\":12343:12350   */\n      dup3\n        /* \"#utility.yul\":12340:12341   */\n      dup2\n        /* \"#utility.yul\":12337:12351   */\n      lt\n        /* \"#utility.yul\":12329:12537   */\n      iszero\n      tag_259\n      jumpi\n        /* \"#utility.yul\":12422:12431   */\n      dup5\n        /* \"#utility.yul\":12417:12420   */\n      dup10\n        /* \"#utility.yul\":12413:12432   */\n      add\n        /* \"#utility.yul\":12407:12433   */\n      mload\n        /* \"#utility.yul\":12399:12405   */\n      dup3\n        /* \"#utility.yul\":12392:12434   */\n      sstore\n        /* \"#utility.yul\":12473:12474   */\n      0x01\n        /* \"#utility.yul\":12465:12471   */\n      dup3\n        /* \"#utility.yul\":12461:12475   */\n      add\n        /* \"#utility.yul\":12451:12475   */\n      swap2\n      pop\n        /* \"#utility.yul\":12520:12522   */\n      0x20\n        /* \"#utility.yul\":12509:12518   */\n      dup6\n        /* \"#utility.yul\":12505:12523   */\n      add\n        /* \"#utility.yul\":12492:12523   */\n      swap5\n      pop\n        /* \"#utility.yul\":12366:12370   */\n      0x20\n        /* \"#utility.yul\":12363:12364   */\n      dup2\n        /* \"#utility.yul\":12359:12371   */\n      add\n        /* \"#utility.yul\":12354:12371   */\n      swap1\n      pop\n        /* \"#utility.yul\":12329:12537   */\n      jump(tag_257)\n    tag_259:\n        /* \"#utility.yul\":12565:12571   */\n      dup7\n        /* \"#utility.yul\":12556:12563   */\n      dup4\n        /* \"#utility.yul\":12553:12572   */\n      lt\n        /* \"#utility.yul\":12550:12729   */\n      iszero\n      tag_260\n      jumpi\n        /* \"#utility.yul\":12623:12632   */\n      dup5\n        /* \"#utility.yul\":12618:12621   */\n      dup10\n        /* \"#utility.yul\":12614:12633   */\n      add\n        /* \"#utility.yul\":12608:12634   */\n      mload\n        /* \"#utility.yul\":12666:12714   */\n      tag_261\n        /* \"#utility.yul\":12708:12712   */\n      0x1f\n        /* \"#utility.yul\":12700:12706   */\n      dup10\n        /* \"#utility.yul\":12696:12713   */\n      and\n        /* \"#utility.yul\":12685:12694   */\n      dup3\n        /* \"#utility.yul\":12666:12714   */\n      tag_109\n      jump\t// in\n    tag_261:\n        /* \"#utility.yul\":12658:12664   */\n      dup4\n        /* \"#utility.yul\":12651:12715   */\n      sstore\n        /* \"#utility.yul\":12573:12729   */\n      pop\n        /* \"#utility.yul\":12550:12729   */\n    tag_260:\n        /* \"#utility.yul\":12775:12776   */\n      0x01\n        /* \"#utility.yul\":12771:12772   */\n      0x02\n        /* \"#utility.yul\":12763:12769   */\n      dup9\n        /* \"#utility.yul\":12759:12773   */\n      mul\n        /* \"#utility.yul\":12755:12777   */\n      add\n        /* \"#utility.yul\":12749:12753   */\n      dup9\n        /* \"#utility.yul\":12742:12778   */\n      sstore\n        /* \"#utility.yul\":12177:12788   */\n      pop\n      pop\n      pop\n        /* \"#utility.yul\":12140:13027   */\n    tag_252:\n      pop\n        /* \"#utility.yul\":11730:13033   */\n      pop\n      pop\n      pop\n        /* \"#utility.yul\":11638:13033   */\n      pop\n      pop\n      jump\t// out\n        /* \"#utility.yul\":13039:13157   */\n    tag_111:\n        /* \"#utility.yul\":13126:13150   */\n      tag_263\n        /* \"#utility.yul\":13144:13149   */\n      dup2\n        /* \"#utility.yul\":13126:13150   */\n      tag_71\n      jump\t// in\n    tag_263:\n        /* \"#utility.yul\":13121:13124   */\n      dup3\n        /* \"#utility.yul\":13114:13151   */\n      mstore\n        /* \"#utility.yul\":13039:13157   */\n      pop\n      pop\n      jump\t// out\n        /* \"#utility.yul\":13163:13281   */\n    tag_112:\n        /* \"#utility.yul\":13250:13274   */\n      tag_265\n        /* \"#utility.yul\":13268:13273   */\n      dup2\n        /* \"#utility.yul\":13250:13274   */\n      tag_86\n      jump\t// in\n    tag_265:\n        /* \"#utility.yul\":13245:13248   */\n      dup3\n        /* \"#utility.yul\":13238:13275   */\n      mstore\n        /* \"#utility.yul\":13163:13281   */\n      pop\n      pop\n      jump\t// out\n        /* \"#utility.yul\":13287:13619   */\n    tag_43:\n        /* \"#utility.yul\":13408:13412   */\n      0x00\n        /* \"#utility.yul\":13446:13448   */\n      0x40\n        /* \"#utility.yul\":13435:13444   */\n      dup3\n        /* \"#utility.yul\":13431:13449   */\n      add\n        /* \"#utility.yul\":13423:13449   */\n      swap1\n      pop\n        /* \"#utility.yul\":13459:13530   */\n      tag_267\n        /* \"#utility.yul\":13527:13528   */\n      0x00\n        /* \"#utility.yul\":13516:13525   */\n      dup4\n        /* \"#utility.yul\":13512:13529   */\n      add\n        /* \"#utility.yul\":13503:13509   */\n      dup6\n        /* \"#utility.yul\":13459:13530   */\n      tag_111\n      jump\t// in\n    tag_267:\n        /* \"#utility.yul\":13540:13612   */\n      tag_268\n        /* \"#utility.yul\":13608:13610   */\n      0x20\n        /* \"#utility.yul\":13597:13606   */\n      dup4\n        /* \"#utility.yul\":13593:13611   */\n      add\n        /* \"#utility.yul\":13584:13590   */\n      dup5\n        /* \"#utility.yul\":13540:13612   */\n      tag_112\n      jump\t// in\n    tag_268:\n        /* \"#utility.yul\":13287:13619   */\n      swap4\n      swap3\n      pop\n      pop\n      pop\n      jump\t// out\n        /* \"#utility.yul\":13625:13805   */\n    tag_113:\n        /* \"#utility.yul\":13673:13750   */\n      0x4e487b7100000000000000000000000000000000000000000000000000000000\n        /* \"#utility.yul\":13670:13671   */\n      0x00\n        /* \"#utility.yul\":13663:13751   */\n      mstore\n        /* \"#utility.yul\":13770:13774   */\n      0x11\n        /* \"#utility.yul\":13767:13768   */\n      0x04\n        /* \"#utility.yul\":13760:13775   */\n      mstore\n        /* \"#utility.yul\":13794:13798   */\n      0x24\n        /* \"#utility.yul\":13791:13792   */\n      0x00\n        /* \"#utility.yul\":13784:13799   */\n      revert\n        /* \"#utility.yul\":13811:14002   */\n    tag_48:\n        /* \"#utility.yul\":13851:13854   */\n      0x00\n        /* \"#utility.yul\":13870:13890   */\n      tag_271\n        /* \"#utility.yul\":13888:13889   */\n      dup3\n        /* \"#utility.yul\":13870:13890   */\n      tag_86\n      jump\t// in\n    tag_271:\n        /* \"#utility.yul\":13865:13890   */\n      swap2\n      pop\n        /* \"#utility.yul\":13904:13924   */\n      tag_272\n        /* \"#utility.yul\":13922:13923   */\n      dup4\n        /* \"#utility.yul\":13904:13924   */\n      tag_86\n      jump\t// in\n    tag_272:\n        /* \"#utility.yul\":13899:13924   */\n      swap3\n      pop\n        /* \"#utility.yul\":13947:13948   */\n      dup3\n        /* \"#utility.yul\":13944:13945   */\n      dup3\n        /* \"#utility.yul\":13940:13949   */\n      add\n        /* \"#utility.yul\":13933:13949   */\n      swap1\n      pop\n        /* \"#utility.yul\":13968:13971   */\n      dup1\n        /* \"#utility.yul\":13965:13966   */\n      dup3\n        /* \"#utility.yul\":13962:13972   */\n      gt\n        /* \"#utility.yul\":13959:13995   */\n      iszero\n      tag_273\n      jumpi\n        /* \"#utility.yul\":13975:13993   */\n      tag_274\n      tag_113\n      jump\t// in\n    tag_274:\n        /* \"#utility.yul\":13959:13995   */\n    tag_273:\n        /* \"#utility.yul\":13811:14002   */\n      swap3\n      swap2\n      pop\n      pop\n      jump\t// out\n        /* \"#utility.yul\":14008:14174   */\n    tag_114:\n        /* \"#utility.yul\":14148:14166   */\n      0x4e6f7420656e6f756768206d696c657300000000000000000000000000000000\n        /* \"#utility.yul\":14144:14145   */\n      0x00\n        /* \"#utility.yul\":14136:14142   */\n      dup3\n        /* \"#utility.yul\":14132:14146   */\n      add\n        /* \"#utility.yul\":14125:14167   */\n      mstore\n        /* \"#utility.yul\":14008:14174   */\n      pop\n      jump\t// out\n        /* \"#utility.yul\":14180:14546   */\n    tag_115:\n        /* \"#utility.yul\":14322:14325   */\n      0x00\n        /* \"#utility.yul\":14343:14410   */\n      tag_277\n        /* \"#utility.yul\":14407:14409   */\n      0x10\n        /* \"#utility.yul\":14402:14405   */\n      dup4\n        /* \"#utility.yul\":14343:14410   */\n      tag_89\n      jump\t// in\n    tag_277:\n        /* \"#utility.yul\":14336:14410   */\n      swap2\n      pop\n        /* \"#utility.yul\":14419:14512   */\n      tag_278\n        /* \"#utility.yul\":14508:14511   */\n      dup3\n        /* \"#utility.yul\":14419:14512   */\n      tag_114\n      jump\t// in\n    tag_278:\n        /* \"#utility.yul\":14537:14539   */\n      0x20\n        /* \"#utility.yul\":14532:14535   */\n      dup3\n        /* \"#utility.yul\":14528:14540   */\n      add\n        /* \"#utility.yul\":14521:14540   */\n      swap1\n      pop\n        /* \"#utility.yul\":14180:14546   */\n      swap2\n      swap1\n      pop\n      jump\t// out\n        /* \"#utility.yul\":14552:14971   */\n    tag_55:\n        /* \"#utility.yul\":14718:14722   */\n      0x00\n        /* \"#utility.yul\":14756:14758   */\n      0x20\n        /* \"#utility.yul\":14745:14754   */\n      dup3\n        /* \"#utility.yul\":14741:14759   */\n      add\n        /* \"#utility.yul\":14733:14759   */\n      swap1\n      pop\n        /* \"#utility.yul\":14805:14814   */\n      dup2\n        /* \"#utility.yul\":14799:14803   */\n      dup2\n        /* \"#utility.yul\":14795:14815   */\n      sub\n        /* \"#utility.yul\":14791:14792   */\n      0x00\n        /* \"#utility.yul\":14780:14789   */\n      dup4\n        /* \"#utility.yul\":14776:14793   */\n      add\n        /* \"#utility.yul\":14769:14816   */\n      mstore\n        /* \"#utility.yul\":14833:14964   */\n      tag_280\n        /* \"#utility.yul\":14959:14963   */\n      dup2\n        /* \"#utility.yul\":14833:14964   */\n      tag_115\n      jump\t// in\n    tag_280:\n        /* \"#utility.yul\":14825:14964   */\n      swap1\n      pop\n        /* \"#utility.yul\":14552:14971   */\n      swap2\n      swap1\n      pop\n      jump\t// out\n        /* \"#utility.yul\":14977:15171   */\n    tag_61:\n        /* \"#utility.yul\":15017:15021   */\n      0x00\n        /* \"#utility.yul\":15037:15057   */\n      tag_282\n        /* \"#utility.yul\":15055:15056   */\n      dup3\n        /* \"#utility.yul\":15037:15057   */\n      tag_86\n      jump\t// in\n    tag_282:\n        /* \"#utility.yul\":15032:15057   */\n      swap2\n      pop\n        /* \"#utility.yul\":15071:15091   */\n      tag_283\n        /* \"#utility.yul\":15089:15090   */\n      dup4\n        /* \"#utility.yul\":15071:15091   */\n      tag_86\n      jump\t// in\n    tag_283:\n        /* \"#utility.yul\":15066:15091   */\n      swap3\n      pop\n        /* \"#utility.yul\":15115:15116   */\n      dup3\n        /* \"#utility.yul\":15112:15113   */\n      dup3\n        /* \"#utility.yul\":15108:15117   */\n      sub\n        /* \"#utility.yul\":15100:15117   */\n      swap1\n      pop\n        /* \"#utility.yul\":15139:15140   */\n      dup2\n        /* \"#utility.yul\":15133:15137   */\n      dup2\n        /* \"#utility.yul\":15130:15141   */\n      gt\n        /* \"#utility.yul\":15127:15164   */\n      iszero\n      tag_284\n      jumpi\n        /* \"#utility.yul\":15144:15162   */\n      tag_285\n      tag_113\n      jump\t// in\n    tag_285:\n        /* \"#utility.yul\":15127:15164   */\n    tag_284:\n        /* \"#utility.yul\":14977:15171   */\n      swap3\n      swap2\n      pop\n      pop\n      jump\t// out\n\n    auxdata: 0xa264697066735822122081a371acf391f55f5ea68c1286626eeffe7f03718072f7703a1009eca66ccc2164736f6c634300081f0033\n}\n\nsub_1: assembly {\n        /* \"erc20.sol\":120:4034  contract ERC20Simple {... */\n      mstore(0x40, 0x80)\n        /* \"erc20.sol\":679:957  constructor(... */\n      callvalue\n      dup1\n      iszero\n      tag_1\n      jumpi\n      revert(0x00, 0x00)\n    tag_1:\n      pop\n      mload(0x40)\n      sub(codesize, bytecodeSize)\n      dup1\n      bytecodeSize\n      dup4\n      codecopy\n      dup2\n      dup2\n      add\n      0x40\n      mstore\n      dup2\n      add\n      swap1\n      tag_2\n      swap2\n      swap1\n      tag_3\n      jump\t// in\n    tag_2:\n        /* \"erc20.sol\":838:843  name_ */\n      dup4\n        /* \"erc20.sol\":830:835  _name */\n      0x00\n        /* \"erc20.sol\":830:843  _name = name_ */\n      swap1\n      dup2\n      tag_6\n      swap2\n      swap1\n      tag_7\n      jump\t// in\n    tag_6:\n      pop\n        /* \"erc20.sol\":864:871  symbol_ */\n      dup3\n        /* \"erc20.sol\":854:861  _symbol */\n      0x01\n        /* \"erc20.sol\":854:871  _symbol = symbol_ */\n      swap1\n      dup2\n      tag_8\n      swap2\n      swap1\n      tag_7\n      jump\t// in\n    tag_8:\n      pop\n        /* \"erc20.sol\":894:903  decimals_ */\n      dup2\n        /* \"erc20.sol\":882:891  _decimals */\n      0x02\n      0x00\n        /* \"erc20.sol\":882:903  _decimals = decimals_ */\n      0x0100\n      exp\n      dup2\n      sload\n      dup2\n      0xff\n      mul\n      not\n      and\n      swap1\n      dup4\n      0xff\n      and\n      mul\n      or\n      swap1\n      sstore\n      pop\n        /* \"erc20.sol\":916:949  _mint(msg.sender, initialSupply_) */\n      tag_9\n        /* \"erc20.sol\":922:932  msg.sender */\n      caller\n        /* \"erc20.sol\":934:948  initialSupply_ */\n      dup3\n        /* \"erc20.sol\":916:921  _mint */\n      shl(0x20, tag_10)\n        /* \"erc20.sol\":916:949  _mint(msg.sender, initialSupply_) */\n      0x20\n      shr\n      jump\t// in\n    tag_9:\n        /* \"erc20.sol\":679:957  constructor(... */\n      pop\n      pop\n      pop\n      pop\n        /* \"erc20.sol\":120:4034  contract ERC20Simple {... */\n      jump(tag_11)\n        /* \"erc20.sol\":3172:3484  function _mint(address to, uint256 amount) internal {... */\n    tag_10:\n        /* \"erc20.sol\":3257:3258  0 */\n      0x00\n        /* \"erc20.sol\":3243:3259  to != address(0) */\n      0xffffffffffffffffffffffffffffffffffffffff\n      and\n        /* \"erc20.sol\":3243:3245  to */\n      dup3\n        /* \"erc20.sol\":3243:3259  to != address(0) */\n      0xffffffffffffffffffffffffffffffffffffffff\n      and\n      sub\n        /* \"erc20.sol\":3235:3295  require(to != address(0), \"ERC20: mint to the zero address\") */\n      tag_13\n      jumpi\n      mload(0x40)\n      0x08c379a000000000000000000000000000000000000000000000000000000000\n      dup2\n      mstore\n      0x04\n      add\n      tag_14\n      swap1\n      tag_15\n      jump\t// in\n    tag_14:\n      mload(0x40)\n      dup1\n      swap2\n      sub\n      swap1\n      revert\n    tag_13:\n        /* \"erc20.sol\":3324:3330  amount */\n      dup1\n        /* \"erc20.sol\":3308:3320  _totalSupply */\n      0x03\n      0x00\n        /* \"erc20.sol\":3308:3330  _totalSupply += amount */\n      dup3\n      dup3\n      sload\n      tag_16\n      swap2\n      swap1\n      tag_17\n      jump\t// in\n    tag_16:\n      swap3\n      pop\n      pop\n      dup2\n      swap1\n      sstore\n      pop\n        /* \"erc20.sol\":3358:3364  amount */\n      dup1\n        /* \"erc20.sol\":3341:3350  _balances */\n      0x04\n        /* \"erc20.sol\":3341:3354  _balances[to] */\n      0x00\n        /* \"erc20.sol\":3351:3353  to */\n      dup5\n        /* \"erc20.sol\":3341:3354  _balances[to] */\n      0xffffffffffffffffffffffffffffffffffffffff\n      and\n      0xffffffffffffffffffffffffffffffffffffffff\n      and\n      dup2\n      mstore\n      0x20\n      add\n      swap1\n      dup2\n      mstore\n      0x20\n      add\n      0x00\n      keccak256\n      0x00\n        /* \"erc20.sol\":3341:3364  _balances[to] += amount */\n      dup3\n      dup3\n      sload\n      tag_18\n      swap2\n      swap1\n      tag_17\n      jump\t// in\n    tag_18:\n      swap3\n      pop\n      pop\n      dup2\n      swap1\n      sstore\n      pop\n        /* \"erc20.sol\":3465:3467  to */\n      dup2\n        /* \"erc20.sol\":3444:3476  Transfer(address(0), to, amount) */\n      0xffffffffffffffffffffffffffffffffffffffff\n      and\n        /* \"erc20.sol\":3461:3462  0 */\n      0x00\n        /* \"erc20.sol\":3444:3476  Transfer(address(0), to, amount) */\n      0xffffffffffffffffffffffffffffffffffffffff\n      and\n      0xddf252ad1be2c89b69c2b068fc378daa952ba7f163c4a11628f55a4df523b3ef\n        /* \"erc20.sol\":3469:3475  amount */\n      dup4\n        /* \"erc20.sol\":3444:3476  Transfer(address(0), to, amount) */\n      mload(0x40)\n      tag_19\n      swap2\n      swap1\n      tag_20\n      jump\t// in\n    tag_19:\n      mload(0x40)\n      dup1\n      swap2\n      sub\n      swap1\n      log3\n        /* \"erc20.sol\":3172:3484  function _mint(address to, uint256 amount) internal {... */\n      pop\n      pop\n      jump\t// out\n        /* \"#utility.yul\":7:82   */\n    tag_21:\n        /* \"#utility.yul\":40:46   */\n      0x00\n        /* \"#utility.yul\":73:75   */\n      0x40\n        /* \"#utility.yul\":67:76   */\n      mload\n        /* \"#utility.yul\":57:76   */\n      swap1\n      pop\n        /* \"#utility.yul\":7:82   */\n      swap1\n      jump\t// out\n        /* \"#utility.yul\":88:205   */\n    tag_22:\n        /* \"#utility.yul\":197:198   */\n      0x00\n        /* \"#utility.yul\":194:195   */\n      0x00\n        /* \"#utility.yul\":187:199   */\n      revert\n        /* \"#utility.yul\":211:328   */\n    tag_23:\n        /* \"#utility.yul\":320:321   */\n      0x00\n        /* \"#utility.yul\":317:318   */\n      0x00\n        /* \"#utility.yul\":310:322   */\n      revert\n        /* \"#utility.yul\":334:451   */\n    tag_24:\n        /* \"#utility.yul\":443:444   */\n      0x00\n        /* \"#utility.yul\":440:441   */\n      0x00\n        /* \"#utility.yul\":433:445   */\n      revert\n        /* \"#utility.yul\":457:574   */\n    tag_25:\n        /* \"#utility.yul\":566:567   */\n      0x00\n        /* \"#utility.yul\":563:564   */\n      0x00\n        /* \"#utility.yul\":556:568   */\n      revert\n        /* \"#utility.yul\":580:682   */\n    tag_26:\n        /* \"#utility.yul\":621:627   */\n      0x00\n        /* \"#utility.yul\":672:674   */\n      0x1f\n        /* \"#utility.yul\":668:675   */\n      not\n        /* \"#utility.yul\":663:665   */\n      0x1f\n        /* \"#utility.yul\":656:661   */\n      dup4\n        /* \"#utility.yul\":652:666   */\n      add\n        /* \"#utility.yul\":648:676   */\n      and\n        /* \"#utility.yul\":638:676   */\n      swap1\n      pop\n        /* \"#utility.yul\":580:682   */\n      swap2\n      swap1\n      pop\n      jump\t// out\n        /* \"#utility.yul\":688:868   */\n    tag_27:\n        /* \"#utility.yul\":736:813   */\n      0x4e487b7100000000000000000000000000000000000000000000000000000000\n        /* \"#utility.yul\":733:734   */\n      0x00\n        /* \"#utility.yul\":726:814   */\n      mstore\n        /* \"#utility.yul\":833:837   */\n      0x41\n        /* \"#utility.yul\":830:831   */\n      0x04\n        /* \"#utility.yul\":823:838   */\n      mstore\n        /* \"#utility.yul\":857:861   */\n      0x24\n        /* \"#utility.yul\":854:855   */\n      0x00\n        /* \"#utility.yul\":847:862   */\n      revert\n        /* \"#utility.yul\":874:1155   */\n    tag_28:\n        /* \"#utility.yul\":957:984   */\n      tag_72\n        /* \"#utility.yul\":979:983   */\n      dup3\n        /* \"#utility.yul\":957:984   */\n      tag_26\n      jump\t// in\n    tag_72:\n        /* \"#utility.yul\":949:955   */\n      dup2\n        /* \"#utility.yul\":945:985   */\n      add\n        /* \"#utility.yul\":1087:1093   */\n      dup2\n        /* \"#utility.yul\":1075:1085   */\n      dup2\n        /* \"#utility.yul\":1072:1094   */\n      lt\n        /* \"#utility.yul\":1051:1069   */\n      0xffffffffffffffff\n        /* \"#utility.yul\":1039:1049   */\n      dup3\n        /* \"#utility.yul\":1036:1070   */\n      gt\n        /* \"#utility.yul\":1033:1095   */\n      or\n        /* \"#utility.yul\":1030:1118   */\n      iszero\n      tag_73\n      jumpi\n        /* \"#utility.yul\":1098:1116   */\n      tag_74\n      tag_27\n      jump\t// in\n    tag_74:\n        /* \"#utility.yul\":1030:1118   */\n    tag_73:\n        /* \"#utility.yul\":1138:1148   */\n      dup1\n        /* \"#utility.yul\":1134:1136   */\n      0x40\n        /* \"#utility.yul\":1127:1149   */\n      mstore\n        /* \"#utility.yul\":917:1155   */\n      pop\n        /* \"#utility.yul\":874:1155   */\n      pop\n      pop\n      jump\t// out\n        /* \"#utility.yul\":1161:1290   */\n    tag_29:\n        /* \"#utility.yul\":1195:1201   */\n      0x00\n        /* \"#utility.yul\":1222:1242   */\n      tag_76\n      tag_21\n      jump\t// in\n    tag_76:\n        /* \"#utility.yul\":1212:1242   */\n      swap1\n      pop\n        /* \"#utility.yul\":1251:1284   */\n      tag_77\n        /* \"#utility.yul\":1279:1283   */\n      dup3\n        /* \"#utility.yul\":1271:1277   */\n      dup3\n        /* \"#utility.yul\":1251:1284   */\n      tag_28\n      jump\t// in\n    tag_77:\n        /* \"#utility.yul\":1161:1290   */\n      swap2\n      swap1\n      pop\n      jump\t// out\n        /* \"#utility.yul\":1296:1604   */\n    tag_30:\n        /* \"#utility.yul\":1358:1362   */\n      0x00\n        /* \"#utility.yul\":1448:1466   */\n      0xffffffffffffffff\n        /* \"#utility.yul\":1440:1446   */\n      dup3\n        /* \"#utility.yul\":1437:1467   */\n      gt\n        /* \"#utility.yul\":1434:1490   */\n      iszero\n      tag_79\n      jumpi\n        /* \"#utility.yul\":1470:1488   */\n      tag_80\n      tag_27\n      jump\t// in\n    tag_80:\n        /* \"#utility.yul\":1434:1490   */\n    tag_79:\n        /* \"#utility.yul\":1508:1537   */\n      tag_81\n        /* \"#utility.yul\":1530:1536   */\n      dup3\n        /* \"#utility.yul\":1508:1537   */\n      tag_26\n      jump\t// in\n    tag_81:\n        /* \"#utility.yul\":1500:1537   */\n      swap1\n      pop\n        /* \"#utility.yul\":1592:1596   */\n      0x20\n        /* \"#utility.yul\":1586:1590   */\n      dup2\n        /* \"#utility.yul\":1582:1597   */\n      add\n        /* \"#utility.yul\":1574:1597   */\n      swap1\n      pop\n        /* \"#utility.yul\":1296:1604   */\n      swap2\n      swap1\n      pop\n      jump\t// out\n        /* \"#utility.yul\":1610:1749   */\n    tag_31:\n        /* \"#utility.yul\":1699:1705   */\n      dup3\n        /* \"#utility.yul\":1694:1697   */\n      dup2\n        /* \"#utility.yul\":1689:1692   */\n      dup4\n        /* \"#utility.yul\":1683:1706   */\n      mcopy\n        /* \"#utility.yul\":1740:1741   */\n      0x00\n        /* \"#utility.yul\":1731:1737   */\n      dup4\n        /* \"#utility.yul\":1726:1729   */\n      dup4\n        /* \"#utility.yul\":1722:1738   */\n      add\n        /* \"#utility.yul\":1715:1742   */\n      mstore\n        /* \"#utility.yul\":1610:1749   */\n      pop\n      pop\n      pop\n      jump\t// out\n        /* \"#utility.yul\":1755:2189   */\n    tag_32:\n        /* \"#utility.yul\":1844:1849   */\n      0x00\n        /* \"#utility.yul\":1869:1935   */\n      tag_84\n        /* \"#utility.yul\":1885:1934   */\n      tag_85\n        /* \"#utility.yul\":1927:1933   */\n      dup5\n        /* \"#utility.yul\":1885:1934   */\n      tag_30\n      jump\t// in\n    tag_85:\n        /* \"#utility.yul\":1869:1935   */\n      tag_29\n      jump\t// in\n    tag_84:\n        /* \"#utility.yul\":1860:1935   */\n      swap1\n      pop\n        /* \"#utility.yul\":1958:1964   */\n      dup3\n        /* \"#utility.yul\":1951:1956   */\n      dup2\n        /* \"#utility.yul\":1944:1965   */\n      mstore\n        /* \"#utility.yul\":1996:2000   */\n      0x20\n        /* \"#utility.yul\":1989:1994   */\n      dup2\n        /* \"#utility.yul\":1985:2001   */\n      add\n        /* \"#utility.yul\":2034:2037   */\n      dup5\n        /* \"#utility.yul\":2025:2031   */\n      dup5\n        /* \"#utility.yul\":2020:2023   */\n      dup5\n        /* \"#utility.yul\":2016:2032   */\n      add\n        /* \"#utility.yul\":2013:2038   */\n      gt\n        /* \"#utility.yul\":2010:2122   */\n      iszero\n      tag_86\n      jumpi\n        /* \"#utility.yul\":2041:2120   */\n      tag_87\n      tag_25\n      jump\t// in\n    tag_87:\n        /* \"#utility.yul\":2010:2122   */\n    tag_86:\n        /* \"#utility.yul\":2131:2183   */\n      tag_88\n        /* \"#utility.yul\":2176:2182   */\n      dup5\n        /* \"#utility.yul\":2171:2174   */\n      dup3\n        /* \"#utility.yul\":2166:2169   */\n      dup6\n        /* \"#utility.yul\":2131:2183   */\n      tag_31\n      jump\t// in\n    tag_88:\n        /* \"#utility.yul\":1850:2189   */\n      pop\n        /* \"#utility.yul\":1755:2189   */\n      swap4\n      swap3\n      pop\n      pop\n      pop\n      jump\t// out\n        /* \"#utility.yul\":2209:2564   */\n    tag_33:\n        /* \"#utility.yul\":2276:2281   */\n      0x00\n        /* \"#utility.yul\":2325:2328   */\n      dup3\n        /* \"#utility.yul\":2318:2322   */\n      0x1f\n        /* \"#utility.yul\":2310:2316   */\n      dup4\n        /* \"#utility.yul\":2306:2323   */\n      add\n        /* \"#utility.yul\":2302:2329   */\n      slt\n        /* \"#utility.yul\":2292:2414   */\n      tag_90\n      jumpi\n        /* \"#utility.yul\":2333:2412   */\n      tag_91\n      tag_24\n      jump\t// in\n    tag_91:\n        /* \"#utility.yul\":2292:2414   */\n    tag_90:\n        /* \"#utility.yul\":2443:2449   */\n      dup2\n        /* \"#utility.yul\":2437:2450   */\n      mload\n        /* \"#utility.yul\":2468:2558   */\n      tag_92\n        /* \"#utility.yul\":2554:2557   */\n      dup5\n        /* \"#utility.yul\":2546:2552   */\n      dup3\n        /* \"#utility.yul\":2539:2543   */\n      0x20\n        /* \"#utility.yul\":2531:2537   */\n      dup7\n        /* \"#utility.yul\":2527:2544   */\n      add\n        /* \"#utility.yul\":2468:2558   */\n      tag_32\n      jump\t// in\n    tag_92:\n        /* \"#utility.yul\":2459:2558   */\n      swap2\n      pop\n        /* \"#utility.yul\":2282:2564   */\n      pop\n        /* \"#utility.yul\":2209:2564   */\n      swap3\n      swap2\n      pop\n      pop\n      jump\t// out\n        /* \"#utility.yul\":2570:2656   */\n    tag_34:\n        /* \"#utility.yul\":2605:2612   */\n      0x00\n        /* \"#utility.yul\":2645:2649   */\n      0xff\n        /* \"#utility.yul\":2638:2643   */\n      dup3\n        /* \"#utility.yul\":2634:2650   */\n      and\n        /* \"#utility.yul\":2623:2650   */\n      swap1\n      pop\n        /* \"#utility.yul\":2570:2656   */\n      swap2\n      swap1\n      pop\n      jump\t// out\n        /* \"#utility.yul\":2662:2780   */\n    tag_35:\n        /* \"#utility.yul\":2733:2755   */\n      tag_95\n        /* \"#utility.yul\":2749:2754   */\n      dup2\n        /* \"#utility.yul\":2733:2755   */\n      tag_34\n      jump\t// in\n    tag_95:\n        /* \"#utility.yul\":2726:2731   */\n      dup2\n        /* \"#utility.yul\":2723:2756   */\n      eq\n        /* \"#utility.yul\":2713:2774   */\n      tag_96\n      jumpi\n        /* \"#utility.yul\":2770:2771   */\n      0x00\n        /* \"#utility.yul\":2767:2768   */\n      0x00\n        /* \"#utility.yul\":2760:2772   */\n      revert\n        /* \"#utility.yul\":2713:2774   */\n    tag_96:\n        /* \"#utility.yul\":2662:2780   */\n      pop\n      jump\t// out\n        /* \"#utility.yul\":2786:2925   */\n    tag_36:\n        /* \"#utility.yul\":2841:2846   */\n      0x00\n        /* \"#utility.yul\":2872:2878   */\n      dup2\n        /* \"#utility.yul\":2866:2879   */\n      mload\n        /* \"#utility.yul\":2857:2879   */\n      swap1\n      pop\n        /* \"#utility.yul\":2888:2919   */\n      tag_98\n        /* \"#utility.yul\":2913:2918   */\n      dup2\n        /* \"#utility.yul\":2888:2919   */\n      tag_35\n      jump\t// in\n    tag_98:\n        /* \"#utility.yul\":2786:2925   */\n      swap3\n      swap2\n      pop\n      pop\n      jump\t// out\n        /* \"#utility.yul\":2931:3008   */\n    tag_37:\n        /* \"#utility.yul\":2968:2975   */\n      0x00\n        /* \"#utility.yul\":2997:3002   */\n      dup2\n        /* \"#utility.yul\":2986:3002   */\n      swap1\n      pop\n        /* \"#utility.yul\":2931:3008   */\n      swap2\n      swap1\n      pop\n      jump\t// out\n        /* \"#utility.yul\":3014:3136   */\n    tag_38:\n        /* \"#utility.yul\":3087:3111   */\n      tag_101\n        /* \"#utility.yul\":3105:3110   */\n      dup2\n        /* \"#utility.yul\":3087:3111   */\n      tag_37\n      jump\t// in\n    tag_101:\n        /* \"#utility.yul\":3080:3085   */\n      dup2\n        /* \"#utility.yul\":3077:3112   */\n      eq\n        /* \"#utility.yul\":3067:3130   */\n      tag_102\n      jumpi\n        /* \"#utility.yul\":3126:3127   */\n      0x00\n        /* \"#utility.yul\":3123:3124   */\n      0x00\n        /* \"#utility.yul\":3116:3128   */\n      revert\n        /* \"#utility.yul\":3067:3130   */\n    tag_102:\n        /* \"#utility.yul\":3014:3136   */\n      pop\n      jump\t// out\n        /* \"#utility.yul\":3142:3285   */\n    tag_39:\n        /* \"#utility.yul\":3199:3204   */\n      0x00\n        /* \"#utility.yul\":3230:3236   */\n      dup2\n        /* \"#utility.yul\":3224:3237   */\n      mload\n        /* \"#utility.yul\":3215:3237   */\n      swap1\n      pop\n        /* \"#utility.yul\":3246:3279   */\n      tag_104\n        /* \"#utility.yul\":3273:3278   */\n      dup2\n        /* \"#utility.yul\":3246:3279   */\n      tag_38\n      jump\t// in\n    tag_104:\n        /* \"#utility.yul\":3142:3285   */\n      swap3\n      swap2\n      pop\n      pop\n      jump\t// out\n        /* \"#utility.yul\":3291:4453   */\n    tag_3:\n        /* \"#utility.yul\":3406:3412   */\n      0x00\n        /* \"#utility.yul\":3414:3420   */\n      0x00\n        /* \"#utility.yul\":3422:3428   */\n      0x00\n        /* \"#utility.yul\":3430:3436   */\n      0x00\n        /* \"#utility.yul\":3479:3482   */\n      0x80\n        /* \"#utility.yul\":3467:3476   */\n      dup6\n        /* \"#utility.yul\":3458:3465   */\n      dup8\n        /* \"#utility.yul\":3454:3477   */\n      sub\n        /* \"#utility.yul\":3450:3483   */\n      slt\n        /* \"#utility.yul\":3447:3567   */\n      iszero\n      tag_106\n      jumpi\n        /* \"#utility.yul\":3486:3565   */\n      tag_107\n      tag_22\n      jump\t// in\n    tag_107:\n        /* \"#utility.yul\":3447:3567   */\n    tag_106:\n        /* \"#utility.yul\":3627:3628   */\n      0x00\n        /* \"#utility.yul\":3616:3625   */\n      dup6\n        /* \"#utility.yul\":3612:3629   */\n      add\n        /* \"#utility.yul\":3606:3630   */\n      mload\n        /* \"#utility.yul\":3657:3675   */\n      0xffffffffffffffff\n        /* \"#utility.yul\":3649:3655   */\n      dup2\n        /* \"#utility.yul\":3646:3676   */\n      gt\n        /* \"#utility.yul\":3643:3760   */\n      iszero\n      tag_108\n      jumpi\n        /* \"#utility.yul\":3679:3758   */\n      tag_109\n      tag_23\n      jump\t// in\n    tag_109:\n        /* \"#utility.yul\":3643:3760   */\n    tag_108:\n        /* \"#utility.yul\":3784:3858   */\n      tag_110\n        /* \"#utility.yul\":3850:3857   */\n      dup8\n        /* \"#utility.yul\":3841:3847   */\n      dup3\n        /* \"#utility.yul\":3830:3839   */\n      dup9\n        /* \"#utility.yul\":3826:3848   */\n      add\n        /* \"#utility.yul\":3784:3858   */\n      tag_33\n      jump\t// in\n    tag_110:\n        /* \"#utility.yul\":3774:3858   */\n      swap5\n      pop\n        /* \"#utility.yul\":3577:3868   */\n      pop\n        /* \"#utility.yul\":3928:3930   */\n      0x20\n        /* \"#utility.yul\":3917:3926   */\n      dup6\n        /* \"#utility.yul\":3913:3931   */\n      add\n        /* \"#utility.yul\":3907:3932   */\n      mload\n        /* \"#utility.yul\":3959:3977   */\n      0xffffffffffffffff\n        /* \"#utility.yul\":3951:3957   */\n      dup2\n        /* \"#utility.yul\":3948:3978   */\n      gt\n        /* \"#utility.yul\":3945:4062   */\n      iszero\n      tag_111\n      jumpi\n        /* \"#utility.yul\":3981:4060   */\n      tag_112\n      tag_23\n      jump\t// in\n    tag_112:\n        /* \"#utility.yul\":3945:4062   */\n    tag_111:\n        /* \"#utility.yul\":4086:4160   */\n      tag_113\n        /* \"#utility.yul\":4152:4159   */\n      dup8\n        /* \"#utility.yul\":4143:4149   */\n      dup3\n        /* \"#utility.yul\":4132:4141   */\n      dup9\n        /* \"#utility.yul\":4128:4150   */\n      add\n        /* \"#utility.yul\":4086:4160   */\n      tag_33\n      jump\t// in\n    tag_113:\n        /* \"#utility.yul\":4076:4160   */\n      swap4\n      pop\n        /* \"#utility.yul\":3878:4170   */\n      pop\n        /* \"#utility.yul\":4209:4211   */\n      0x40\n        /* \"#utility.yul\":4235:4297   */\n      tag_114\n        /* \"#utility.yul\":4289:4296   */\n      dup8\n        /* \"#utility.yul\":4280:4286   */\n      dup3\n        /* \"#utility.yul\":4269:4278   */\n      dup9\n        /* \"#utility.yul\":4265:4287   */\n      add\n        /* \"#utility.yul\":4235:4297   */\n      tag_36\n      jump\t// in\n    tag_114:\n        /* \"#utility.yul\":4225:4297   */\n      swap3\n      pop\n        /* \"#utility.yul\":4180:4307   */\n      pop\n        /* \"#utility.yul\":4346:4348   */\n      0x60\n        /* \"#utility.yul\":4372:4436   */\n      tag_115\n        /* \"#utility.yul\":4428:4435   */\n      dup8\n        /* \"#utility.yul\":4419:4425   */\n      dup3\n        /* \"#utility.yul\":4408:4417   */\n      dup9\n        /* \"#utility.yul\":4404:4426   */\n      add\n        /* \"#utility.yul\":4372:4436   */\n      tag_39\n      jump\t// in\n    tag_115:\n        /* \"#utility.yul\":4362:4436   */\n      swap2\n      pop\n        /* \"#utility.yul\":4317:4446   */\n      pop\n        /* \"#utility.yul\":3291:4453   */\n      swap3\n      swap6\n      swap2\n      swap5\n      pop\n      swap3\n      pop\n      jump\t// out\n        /* \"#utility.yul\":4459:4558   */\n    tag_40:\n        /* \"#utility.yul\":4511:4517   */\n      0x00\n        /* \"#utility.yul\":4545:4550   */\n      dup2\n        /* \"#utility.yul\":4539:4551   */\n      mload\n        /* \"#utility.yul\":4529:4551   */\n      swap1\n      pop\n        /* \"#utility.yul\":4459:4558   */\n      swap2\n      swap1\n      pop\n      jump\t// out\n        /* \"#utility.yul\":4564:4744   */\n    tag_41:\n        /* \"#utility.yul\":4612:4689   */\n      0x4e487b7100000000000000000000000000000000000000000000000000000000\n        /* \"#utility.yul\":4609:4610   */\n      0x00\n        /* \"#utility.yul\":4602:4690   */\n      mstore\n        /* \"#utility.yul\":4709:4713   */\n      0x22\n        /* \"#utility.yul\":4706:4707   */\n      0x04\n        /* \"#utility.yul\":4699:4714   */\n      mstore\n        /* \"#utility.yul\":4733:4737   */\n      0x24\n        /* \"#utility.yul\":4730:4731   */\n      0x00\n        /* \"#utility.yul\":4723:4738   */\n      revert\n        /* \"#utility.yul\":4750:5070   */\n    tag_42:\n        /* \"#utility.yul\":4794:4800   */\n      0x00\n        /* \"#utility.yul\":4831:4832   */\n      0x02\n        /* \"#utility.yul\":4825:4829   */\n      dup3\n        /* \"#utility.yul\":4821:4833   */\n      div\n        /* \"#utility.yul\":4811:4833   */\n      swap1\n      pop\n        /* \"#utility.yul\":4878:4879   */\n      0x01\n        /* \"#utility.yul\":4872:4876   */\n      dup3\n        /* \"#utility.yul\":4868:4880   */\n      and\n        /* \"#utility.yul\":4899:4917   */\n      dup1\n        /* \"#utility.yul\":4889:4970   */\n      tag_119\n      jumpi\n        /* \"#utility.yul\":4955:4959   */\n      0x7f\n        /* \"#utility.yul\":4947:4953   */\n      dup3\n        /* \"#utility.yul\":4943:4960   */\n      and\n        /* \"#utility.yul\":4933:4960   */\n      swap2\n      pop\n        /* \"#utility.yul\":4889:4970   */\n    tag_119:\n        /* \"#utility.yul\":5017:5019   */\n      0x20\n        /* \"#utility.yul\":5009:5015   */\n      dup3\n        /* \"#utility.yul\":5006:5020   */\n      lt\n        /* \"#utility.yul\":4986:5004   */\n      dup2\n        /* \"#utility.yul\":4983:5021   */\n      sub\n        /* \"#utility.yul\":4980:5064   */\n      tag_120\n      jumpi\n        /* \"#utility.yul\":5036:5054   */\n      tag_121\n      tag_41\n      jump\t// in\n    tag_121:\n        /* \"#utility.yul\":4980:5064   */\n    tag_120:\n        /* \"#utility.yul\":4801:5070   */\n      pop\n        /* \"#utility.yul\":4750:5070   */\n      swap2\n      swap1\n      pop\n      jump\t// out\n        /* \"#utility.yul\":5076:5217   */\n    tag_43:\n        /* \"#utility.yul\":5125:5129   */\n      0x00\n        /* \"#utility.yul\":5148:5151   */\n      dup2\n        /* \"#utility.yul\":5140:5151   */\n      swap1\n      pop\n        /* \"#utility.yul\":5171:5174   */\n      dup2\n        /* \"#utility.yul\":5168:5169   */\n      0x00\n        /* \"#utility.yul\":5161:5175   */\n      mstore\n        /* \"#utility.yul\":5205:5209   */\n      0x20\n        /* \"#utility.yul\":5202:5203   */\n      0x00\n        /* \"#utility.yul\":5192:5210   */\n      keccak256\n        /* \"#utility.yul\":5184:5210   */\n      swap1\n      pop\n        /* \"#utility.yul\":5076:5217   */\n      swap2\n      swap1\n      pop\n      jump\t// out\n        /* \"#utility.yul\":5223:5316   */\n    tag_44:\n        /* \"#utility.yul\":5260:5266   */\n      0x00\n        /* \"#utility.yul\":5307:5309   */\n      0x20\n        /* \"#utility.yul\":5302:5304   */\n      0x1f\n        /* \"#utility.yul\":5295:5300   */\n      dup4\n        /* \"#utility.yul\":5291:5305   */\n      add\n        /* \"#utility.yul\":5287:5310   */\n      div\n        /* \"#utility.yul\":5277:5310   */\n      swap1\n      pop\n        /* \"#utility.yul\":5223:5316   */\n      swap2\n      swap1\n      pop\n      jump\t// out\n        /* \"#utility.yul\":5322:5429   */\n    tag_45:\n        /* \"#utility.yul\":5366:5374   */\n      0x00\n        /* \"#utility.yul\":5416:5421   */\n      dup3\n        /* \"#utility.yul\":5410:5414   */\n      dup3\n        /* \"#utility.yul\":5406:5422   */\n      shl\n        /* \"#utility.yul\":5385:5422   */\n      swap1\n      pop\n        /* \"#utility.yul\":5322:5429   */\n      swap3\n      swap2\n      pop\n      pop\n      jump\t// out\n        /* \"#utility.yul\":5435:5828   */\n    tag_46:\n        /* \"#utility.yul\":5504:5510   */\n      0x00\n        /* \"#utility.yul\":5554:5555   */\n      0x08\n        /* \"#utility.yul\":5542:5552   */\n      dup4\n        /* \"#utility.yul\":5538:5556   */\n      mul\n        /* \"#utility.yul\":5577:5674   */\n      tag_126\n        /* \"#utility.yul\":5607:5673   */\n      0xffffffffffffffffffffffffffffffffffffffffffffffffffffffffffffffff\n        /* \"#utility.yul\":5596:5605   */\n      dup3\n        /* \"#utility.yul\":5577:5674   */\n      tag_45\n      jump\t// in\n    tag_126:\n        /* \"#utility.yul\":5695:5734   */\n      tag_127\n        /* \"#utility.yul\":5725:5733   */\n      dup7\n        /* \"#utility.yul\":5714:5723   */\n      dup4\n        /* \"#utility.yul\":5695:5734   */\n      tag_45\n      jump\t// in\n    tag_127:\n        /* \"#utility.yul\":5683:5734   */\n      swap6\n      pop\n        /* \"#utility.yul\":5767:5771   */\n      dup1\n        /* \"#utility.yul\":5763:5772   */\n      not\n        /* \"#utility.yul\":5756:5761   */\n      dup5\n        /* \"#utility.yul\":5752:5773   */\n      and\n        /* \"#utility.yul\":5743:5773   */\n      swap4\n      pop\n        /* \"#utility.yul\":5816:5820   */\n      dup1\n        /* \"#utility.yul\":5806:5814   */\n      dup7\n        /* \"#utility.yul\":5802:5821   */\n      and\n        /* \"#utility.yul\":5795:5800   */\n      dup5\n        /* \"#utility.yul\":5792:5822   */\n      or\n        /* \"#utility.yul\":5782:5822   */\n      swap3\n      pop\n        /* \"#utility.yul\":5511:5828   */\n      pop\n      pop\n        /* \"#utility.yul\":5435:5828   */\n      swap4\n      swap3\n      pop\n      pop\n      pop\n      jump\t// out\n        /* \"#utility.yul\":5834:5894   */\n    tag_47:\n        /* \"#utility.yul\":5862:5865   */\n      0x00\n        /* \"#utility.yul\":5883:5888   */\n      dup2\n        /* \"#utility.yul\":5876:5888   */\n      swap1\n      pop\n        /* \"#utility.yul\":5834:5894   */\n      swap2\n      swap1\n      pop\n      jump\t// out\n        /* \"#utility.yul\":5900:6042   */\n    tag_48:\n        /* \"#utility.yul\":5950:5959   */\n      0x00\n        /* \"#utility.yul\":5983:6036   */\n      tag_130\n        /* \"#utility.yul\":6001:6035   */\n      tag_131\n        /* \"#utility.yul\":6010:6034   */\n      tag_132\n        /* \"#utility.yul\":6028:6033   */\n      dup5\n        /* \"#utility.yul\":6010:6034   */\n      tag_37\n      jump\t// in\n    tag_132:\n        /* \"#utility.yul\":6001:6035   */\n      tag_47\n      jump\t// in\n    tag_131:\n        /* \"#utility.yul\":5983:6036   */\n      tag_37\n      jump\t// in\n    tag_130:\n        /* \"#utility.yul\":5970:6036   */\n      swap1\n      pop\n        /* \"#utility.yul\":5900:6042   */\n      swap2\n      swap1\n      pop\n      jump\t// out\n        /* \"#utility.yul\":6048:6123   */\n    tag_49:\n        /* \"#utility.yul\":6091:6094   */\n      0x00\n        /* \"#utility.yul\":6112:6117   */\n      dup2\n        /* \"#utility.yul\":6105:6117   */\n      swap1\n      pop\n        /* \"#utility.yul\":6048:6123   */\n      swap2\n      swap1\n      pop\n      jump\t// out\n        /* \"#utility.yul\":6129:6398   */\n    tag_50:\n        /* \"#utility.yul\":6239:6278   */\n      tag_135\n        /* \"#utility.yul\":6270:6277   */\n      dup4\n        /* \"#utility.yul\":6239:6278   */\n      tag_48\n      jump\t// in\n    tag_135:\n        /* \"#utility.yul\":6300:6391   */\n      tag_136\n        /* \"#utility.yul\":6349:6390   */\n      tag_137\n        /* \"#utility.yul\":6373:6389   */\n      dup3\n        /* \"#utility.yul\":6349:6390   */\n      tag_49\n      jump\t// in\n    tag_137:\n        /* \"#utility.yul\":6341:6347   */\n      dup5\n        /* \"#utility.yul\":6334:6338   */\n      dup5\n        /* \"#utility.yul\":6328:6339   */\n      sload\n        /* \"#utility.yul\":6300:6391   */\n      tag_46\n      jump\t// in\n    tag_136:\n        /* \"#utility.yul\":6294:6298   */\n      dup3\n        /* \"#utility.yul\":6287:6392   */\n      sstore\n        /* \"#utility.yul\":6205:6398   */\n      pop\n        /* \"#utility.yul\":6129:6398   */\n      pop\n      pop\n      pop\n      jump\t// out\n        /* \"#utility.yul\":6404:6477   */\n    tag_51:\n        /* \"#utility.yul\":6449:6452   */\n      0x00\n        /* \"#utility.yul\":6470:6471   */\n      0x00\n        /* \"#utility.yul\":6463:6471   */\n      swap1\n      pop\n        /* \"#utility.yul\":6404:6477   */\n      swap1\n      jump\t// out\n        /* \"#utility.yul\":6483:6672   */\n    tag_52:\n        /* \"#utility.yul\":6560:6592   */\n      tag_140\n      tag_51\n      jump\t// in\n    tag_140:\n        /* \"#utility.yul\":6601:6666   */\n      tag_141\n        /* \"#utility.yul\":6659:6665   */\n      dup2\n        /* \"#utility.yul\":6651:6657   */\n      dup5\n        /* \"#utility.yul\":6645:6649   */\n      dup5\n        /* \"#utility.yul\":6601:6666   */\n      tag_50\n      jump\t// in\n    tag_141:\n        /* \"#utility.yul\":6536:6672   */\n      pop\n        /* \"#utility.yul\":6483:6672   */\n      pop\n      pop\n      jump\t// out\n        /* \"#utility.yul\":6678:6864   */\n    tag_53:\n        /* \"#utility.yul\":6738:6858   */\n    tag_143:\n        /* \"#utility.yul\":6755:6758   */\n      dup2\n        /* \"#utility.yul\":6748:6753   */\n      dup2\n        /* \"#utility.yul\":6745:6759   */\n      lt\n        /* \"#utility.yul\":6738:6858   */\n      iszero\n      tag_145\n      jumpi\n        /* \"#utility.yul\":6809:6848   */\n      tag_146\n        /* \"#utility.yul\":6846:6847   */\n      0x00\n        /* \"#utility.yul\":6839:6844   */\n      dup3\n        /* \"#utility.yul\":6809:6848   */\n      tag_52\n      jump\t// in\n    tag_146:\n        /* \"#utility.yul\":6782:6783   */\n      0x01\n        /* \"#utility.yul\":6775:6780   */\n      dup2\n        /* \"#utility.yul\":6771:6784   */\n      add\n        /* \"#utility.yul\":6762:6784   */\n      swap1\n      pop\n        /* \"#utility.yul\":6738:6858   */\n      jump(tag_143)\n    tag_145:\n        /* \"#utility.yul\":6678:6864   */\n      pop\n      pop\n      jump\t// out\n        /* \"#utility.yul\":6870:7413   */\n    tag_54:\n        /* \"#utility.yul\":6971:6973   */\n      0x1f\n        /* \"#utility.yul\":6966:6969   */\n      dup3\n        /* \"#utility.yul\":6963:6974   */\n      gt\n        /* \"#utility.yul\":6960:7406   */\n      iszero\n      tag_148\n      jumpi\n        /* \"#utility.yul\":7005:7043   */\n      tag_149\n        /* \"#utility.yul\":7037:7042   */\n      dup2\n        /* \"#utility.yul\":7005:7043   */\n      tag_43\n      jump\t// in\n    tag_149:\n        /* \"#utility.yul\":7089:7118   */\n      tag_150\n        /* \"#utility.yul\":7107:7117   */\n      dup5\n        /* \"#utility.yul\":7089:7118   */\n      tag_44\n      jump\t// in\n    tag_150:\n        /* \"#utility.yul\":7079:7087   */\n      dup2\n        /* \"#utility.yul\":7075:7119   */\n      add\n        /* \"#utility.yul\":7272:7274   */\n      0x20\n        /* \"#utility.yul\":7260:7270   */\n      dup6\n        /* \"#utility.yul\":7257:7275   */\n      lt\n        /* \"#utility.yul\":7254:7303   */\n      iszero\n      tag_151\n      jumpi\n        /* \"#utility.yul\":7293:7301   */\n      dup2\n        /* \"#utility.yul\":7278:7301   */\n      swap1\n      pop\n        /* \"#utility.yul\":7254:7303   */\n    tag_151:\n        /* \"#utility.yul\":7316:7396   */\n      tag_152\n        /* \"#utility.yul\":7372:7394   */\n      tag_153\n        /* \"#utility.yul\":7390:7393   */\n      dup6\n        /* \"#utility.yul\":7372:7394   */\n      tag_44\n      jump\t// in\n    tag_153:\n        /* \"#utility.yul\":7362:7370   */\n      dup4\n        /* \"#utility.yul\":7358:7395   */\n      add\n        /* \"#utility.yul\":7345:7356   */\n      dup3\n        /* \"#utility.yul\":7316:7396   */\n      tag_53\n      jump\t// in\n    tag_152:\n        /* \"#utility.yul\":6975:7406   */\n      pop\n      pop\n        /* \"#utility.yul\":6960:7406   */\n    tag_148:\n        /* \"#utility.yul\":6870:7413   */\n      pop\n      pop\n      pop\n      jump\t// out\n        /* \"#utility.yul\":7419:7536   */\n    tag_55:\n        /* \"#utility.yul\":7473:7481   */\n      0x00\n        /* \"#utility.yul\":7523:7528   */\n      dup3\n        /* \"#utility.yul\":7517:7521   */\n      dup3\n        /* \"#utility.yul\":7513:7529   */\n      shr\n        /* \"#utility.yul\":7492:7529   */\n      swap1\n      pop\n        /* \"#utility.yul\":7419:7536   */\n      swap3\n      swap2\n      pop\n      pop\n      jump\t// out\n        /* \"#utility.yul\":7542:7711   */\n    tag_56:\n        /* \"#utility.yul\":7586:7592   */\n      0x00\n        /* \"#utility.yul\":7619:7670   */\n      tag_156\n        /* \"#utility.yul\":7667:7668   */\n      0x00\n        /* \"#utility.yul\":7663:7669   */\n      not\n        /* \"#utility.yul\":7655:7660   */\n      dup5\n        /* \"#utility.yul\":7652:7653   */\n      0x08\n        /* \"#utility.yul\":7648:7661   */\n      mul\n        /* \"#utility.yul\":7619:7670   */\n      tag_55\n      jump\t// in\n    tag_156:\n        /* \"#utility.yul\":7615:7671   */\n      not\n        /* \"#utility.yul\":7700:7704   */\n      dup1\n        /* \"#utility.yul\":7694:7698   */\n      dup4\n        /* \"#utility.yul\":7690:7705   */\n      and\n        /* \"#utility.yul\":7680:7705   */\n      swap2\n      pop\n        /* \"#utility.yul\":7593:7711   */\n      pop\n        /* \"#utility.yul\":7542:7711   */\n      swap3\n      swap2\n      pop\n      pop\n      jump\t// out\n        /* \"#utility.yul\":7716:8011   */\n    tag_57:\n        /* \"#utility.yul\":7792:7796   */\n      0x00\n        /* \"#utility.yul\":7938:7967   */\n      tag_158\n        /* \"#utility.yul\":7963:7966   */\n      dup4\n        /* \"#utility.yul\":7957:7961   */\n      dup4\n        /* \"#utility.yul\":7938:7967   */\n      tag_56\n      jump\t// in\n    tag_158:\n        /* \"#utility.yul\":7930:7967   */\n      swap2\n      pop\n        /* \"#utility.yul\":8000:8003   */\n      dup3\n        /* \"#utility.yul\":7997:7998   */\n      0x02\n        /* \"#utility.yul\":7993:8004   */\n      mul\n        /* \"#utility.yul\":7987:7991   */\n      dup3\n        /* \"#utility.yul\":7984:8005   */\n      or\n        /* \"#utility.yul\":7976:8005   */\n      swap1\n      pop\n        /* \"#utility.yul\":7716:8011   */\n      swap3\n      swap2\n      pop\n      pop\n      jump\t// out\n        /* \"#utility.yul\":8016:9411   */\n    tag_7:\n        /* \"#utility.yul\":8133:8170   */\n      tag_160\n        /* \"#utility.yul\":8166:8169   */\n      dup3\n        /* \"#utility.yul\":8133:8170   */\n      tag_40\n      jump\t// in\n    tag_160:\n        /* \"#utility.yul\":8235:8253   */\n      0xffffffffffffffff\n        /* \"#utility.yul\":8227:8233   */\n      dup2\n        /* \"#utility.yul\":8224:8254   */\n      gt\n        /* \"#utility.yul\":8221:8277   */\n      iszero\n      tag_161\n      jumpi\n        /* \"#utility.yul\":8257:8275   */\n      tag_162\n      tag_27\n      jump\t// in\n    tag_162:\n        /* \"#utility.yul\":8221:8277   */\n    tag_161:\n        /* \"#utility.yul\":8301:8339   */\n      tag_163\n        /* \"#utility.yul\":8333:8337   */\n      dup3\n        /* \"#utility.yul\":8327:8338   */\n      sload\n        /* \"#utility.yul\":8301:8339   */\n      tag_42\n      jump\t// in\n    tag_163:\n        /* \"#utility.yul\":8386:8453   */\n      tag_164\n        /* \"#utility.yul\":8446:8452   */\n      dup3\n        /* \"#utility.yul\":8438:8444   */\n      dup3\n        /* \"#utility.yul\":8432:8436   */\n      dup6\n        /* \"#utility.yul\":8386:8453   */\n      tag_54\n      jump\t// in\n    tag_164:\n        /* \"#utility.yul\":8480:8481   */\n      0x00\n        /* \"#utility.yul\":8504:8508   */\n      0x20\n        /* \"#utility.yul\":8491:8508   */\n      swap1\n      pop\n        /* \"#utility.yul\":8536:8538   */\n      0x1f\n        /* \"#utility.yul\":8528:8534   */\n      dup4\n        /* \"#utility.yul\":8525:8539   */\n      gt\n        /* \"#utility.yul\":8553:8554   */\n      0x01\n        /* \"#utility.yul\":8548:9166   */\n      dup2\n      eq\n      tag_166\n      jumpi\n        /* \"#utility.yul\":9210:9211   */\n      0x00\n        /* \"#utility.yul\":9227:9233   */\n      dup5\n        /* \"#utility.yul\":9224:9301   */\n      iszero\n      tag_167\n      jumpi\n        /* \"#utility.yul\":9276:9285   */\n      dup3\n        /* \"#utility.yul\":9271:9274   */\n      dup8\n        /* \"#utility.yul\":9267:9286   */\n      add\n        /* \"#utility.yul\":9261:9287   */\n      mload\n        /* \"#utility.yul\":9252:9287   */\n      swap1\n      pop\n        /* \"#utility.yul\":9224:9301   */\n    tag_167:\n        /* \"#utility.yul\":9327:9394   */\n      tag_168\n        /* \"#utility.yul\":9387:9393   */\n      dup6\n        /* \"#utility.yul\":9380:9385   */\n      dup3\n        /* \"#utility.yul\":9327:9394   */\n      tag_57\n      jump\t// in\n    tag_168:\n        /* \"#utility.yul\":9321:9325   */\n      dup7\n        /* \"#utility.yul\":9314:9395   */\n      sstore\n        /* \"#utility.yul\":9183:9405   */\n      pop\n        /* \"#utility.yul\":8518:9405   */\n      jump(tag_165)\n        /* \"#utility.yul\":8548:9166   */\n    tag_166:\n        /* \"#utility.yul\":8600:8604   */\n      0x1f\n        /* \"#utility.yul\":8596:8605   */\n      not\n        /* \"#utility.yul\":8588:8594   */\n      dup5\n        /* \"#utility.yul\":8584:8606   */\n      and\n        /* \"#utility.yul\":8634:8671   */\n      tag_169\n        /* \"#utility.yul\":8666:8670   */\n      dup7\n        /* \"#utility.yul\":8634:8671   */\n      tag_43\n      jump\t// in\n    tag_169:\n        /* \"#utility.yul\":8693:8694   */\n      0x00\n        /* \"#utility.yul\":8707:8915   */\n    tag_170:\n        /* \"#utility.yul\":8721:8728   */\n      dup3\n        /* \"#utility.yul\":8718:8719   */\n      dup2\n        /* \"#utility.yul\":8715:8729   */\n      lt\n        /* \"#utility.yul\":8707:8915   */\n      iszero\n      tag_172\n      jumpi\n        /* \"#utility.yul\":8800:8809   */\n      dup5\n        /* \"#utility.yul\":8795:8798   */\n      dup10\n        /* \"#utility.yul\":8791:8810   */\n      add\n        /* \"#utility.yul\":8785:8811   */\n      mload\n        /* \"#utility.yul\":8777:8783   */\n      dup3\n        /* \"#utility.yul\":8770:8812   */\n      sstore\n        /* \"#utility.yul\":8851:8852   */\n      0x01\n        /* \"#utility.yul\":8843:8849   */\n      dup3\n        /* \"#utility.yul\":8839:8853   */\n      add\n        /* \"#utility.yul\":8829:8853   */\n      swap2\n      pop\n        /* \"#utility.yul\":8898:8900   */\n      0x20\n        /* \"#utility.yul\":8887:8896   */\n      dup6\n        /* \"#utility.yul\":8883:8901   */\n      add\n        /* \"#utility.yul\":8870:8901   */\n      swap5\n      pop\n        /* \"#utility.yul\":8744:8748   */\n      0x20\n        /* \"#utility.yul\":8741:8742   */\n      dup2\n        /* \"#utility.yul\":8737:8749   */\n      add\n        /* \"#utility.yul\":8732:8749   */\n      swap1\n      pop\n        /* \"#utility.yul\":8707:8915   */\n      jump(tag_170)\n    tag_172:\n        /* \"#utility.yul\":8943:8949   */\n      dup7\n        /* \"#utility.yul\":8934:8941   */\n      dup4\n        /* \"#utility.yul\":8931:8950   */\n      lt\n        /* \"#utility.yul\":8928:9107   */\n      iszero\n      tag_173\n      jumpi\n        /* \"#utility.yul\":9001:9010   */\n      dup5\n        /* \"#utility.yul\":8996:8999   */\n      dup10\n        /* \"#utility.yul\":8992:9011   */\n      add\n        /* \"#utility.yul\":8986:9012   */\n      mload\n        /* \"#utility.yul\":9044:9092   */\n      tag_174\n        /* \"#utility.yul\":9086:9090   */\n      0x1f\n        /* \"#utility.yul\":9078:9084   */\n      dup10\n        /* \"#utility.yul\":9074:9091   */\n      and\n        /* \"#utility.yul\":9063:9072   */\n      dup3\n        /* \"#utility.yul\":9044:9092   */\n      tag_56\n      jump\t// in\n    tag_174:\n        /* \"#utility.yul\":9036:9042   */\n      dup4\n        /* \"#utility.yul\":9029:9093   */\n      sstore\n        /* \"#utility.yul\":8951:9107   */\n      pop\n        /* \"#utility.yul\":8928:9107   */\n    tag_173:\n        /* \"#utility.yul\":9153:9154   */\n      0x01\n        /* \"#utility.yul\":9149:9150   */\n      0x02\n        /* \"#utility.yul\":9141:9147   */\n      dup9\n        /* \"#utility.yul\":9137:9151   */\n      mul\n        /* \"#utility.yul\":9133:9155   */\n      add\n        /* \"#utility.yul\":9127:9131   */\n      dup9\n        /* \"#utility.yul\":9120:9156   */\n      sstore\n        /* \"#utility.yul\":8555:9166   */\n      pop\n      pop\n      pop\n        /* \"#utility.yul\":8518:9405   */\n    tag_165:\n      pop\n        /* \"#utility.yul\":8108:9411   */\n      pop\n      pop\n      pop\n        /* \"#utility.yul\":8016:9411   */\n      pop\n      pop\n      jump\t// out\n        /* \"#utility.yul\":9417:9586   */\n    tag_58:\n        /* \"#utility.yul\":9501:9512   */\n      0x00\n        /* \"#utility.yul\":9535:9541   */\n      dup3\n        /* \"#utility.yul\":9530:9533   */\n      dup3\n        /* \"#utility.yul\":9523:9542   */\n      mstore\n        /* \"#utility.yul\":9575:9579   */\n      0x20\n        /* \"#utility.yul\":9570:9573   */\n      dup3\n        /* \"#utility.yul\":9566:9580   */\n      add\n        /* \"#utility.yul\":9551:9580   */\n      swap1\n      pop\n        /* \"#utility.yul\":9417:9586   */\n      swap3\n      swap2\n      pop\n      pop\n      jump\t// out\n        /* \"#utility.yul\":9592:9773   */\n    tag_59:\n        /* \"#utility.yul\":9732:9765   */\n      0x45524332303a206d696e7420746f20746865207a65726f206164647265737300\n        /* \"#utility.yul\":9728:9729   */\n      0x00\n        /* \"#utility.yul\":9720:9726   */\n      dup3\n        /* \"#utility.yul\":9716:9730   */\n      add\n        /* \"#utility.yul\":9709:9766   */\n      mstore\n        /* \"#utility.yul\":9592:9773   */\n      pop\n      jump\t// out\n        /* \"#utility.yul\":9779:10145   */\n    tag_60:\n        /* \"#utility.yul\":9921:9924   */\n      0x00\n        /* \"#utility.yul\":9942:10009   */\n      tag_178\n        /* \"#utility.yul\":10006:10008   */\n      0x1f\n        /* \"#utility.yul\":10001:10004   */\n      dup4\n        /* \"#utility.yul\":9942:10009   */\n      tag_58\n      jump\t// in\n    tag_178:\n        /* \"#utility.yul\":9935:10009   */\n      swap2\n      pop\n        /* \"#utility.yul\":10018:10111   */\n      tag_179\n        /* \"#utility.yul\":10107:10110   */\n      dup3\n        /* \"#utility.yul\":10018:10111   */\n      tag_59\n      jump\t// in\n    tag_179:\n        /* \"#utility.yul\":10136:10138   */\n      0x20\n        /* \"#utility.yul\":10131:10134   */\n      dup3\n        /* \"#utility.yul\":10127:10139   */\n      add\n        /* \"#utility.yul\":10120:10139   */\n      swap1\n      pop\n        /* \"#utility.yul\":9779:10145   */\n      swap2\n      swap1\n      pop\n      jump\t// out\n        /* \"#utility.yul\":10151:10570   */\n    tag_15:\n        /* \"#utility.yul\":10317:10321   */\n      0x00\n        /* \"#utility.yul\":10355:10357   */\n      0x20\n        /* \"#utility.yul\":10344:10353   */\n      dup3\n        /* \"#utility.yul\":10340:10358   */\n      add\n        /* \"#utility.yul\":10332:10358   */\n      swap1\n      pop\n        /* \"#utility.yul\":10404:10413   */\n      dup2\n        /* \"#utility.yul\":10398:10402   */\n      dup2\n        /* \"#utility.yul\":10394:10414   */\n      sub\n        /* \"#utility.yul\":10390:10391   */\n      0x00\n        /* \"#utility.yul\":10379:10388   */\n      dup4\n        /* \"#utility.yul\":10375:10392   */\n      add\n        /* \"#utility.yul\":10368:10415   */\n      mstore\n        /* \"#utility.yul\":10432:10563   */\n      tag_181\n        /* \"#utility.yul\":10558:10562   */\n      dup2\n        /* \"#utility.yul\":10432:10563   */\n      tag_60\n      jump\t// in\n    tag_181:\n        /* \"#utility.yul\":10424:10563   */\n      swap1\n      pop\n        /* \"#utility.yul\":10151:10570   */\n      swap2\n      swap1\n      pop\n      jump\t// out\n        /* \"#utility.yul\":10576:10756   */\n    tag_61:\n        /* \"#utility.yul\":10624:10701   */\n      0x4e487b7100000000000000000000000000000000000000000000000000000000\n        /* \"#utility.yul\":10621:10622   */\n      0x00\n        /* \"#utility.yul\":10614:10702   */\n      mstore\n        /* \"#utility.yul\":10721:10725   */\n      0x11\n        /* \"#utility.yul\":10718:10719   */\n      0x04\n        /* \"#utility.yul\":10711:10726   */\n      mstore\n        /* \"#utility.yul\":10745:10749   */\n      0x24\n        /* \"#utility.yul\":10742:10743   */\n      0x00\n        /* \"#utility.yul\":10735:10750   */\n      revert\n        /* \"#utility.yul\":10762:10953   */\n    tag_17:\n        /* \"#utility.yul\":10802:10805   */\n      0x00\n        /* \"#utility.yul\":10821:10841   */\n      tag_184\n        /* \"#utility.yul\":10839:10840   */\n      dup3\n        /* \"#utility.yul\":10821:10841   */\n      tag_37\n      jump\t// in\n    tag_184:\n        /* \"#utility.yul\":10816:10841   */\n      swap2\n      pop\n        /* \"#utility.yul\":10855:10875   */\n      tag_185\n        /* \"#utility.yul\":10873:10874   */\n      dup4\n        /* \"#utility.yul\":10855:10875   */\n      tag_37\n      jump\t// in\n    tag_185:\n        /* \"#utility.yul\":10850:10875   */\n      swap3\n      pop\n        /* \"#utility.yul\":10898:10899   */\n      dup3\n        /* \"#utility.yul\":10895:10896   */\n      dup3\n        /* \"#utility.yul\":10891:10900   */\n      add\n        /* \"#utility.yul\":10884:10900   */\n      swap1\n      pop\n        /* \"#utility.yul\":10919:10922   */\n      dup1\n        /* \"#utility.yul\":10916:10917   */\n      dup3\n        /* \"#utility.yul\":10913:10923   */\n      gt\n        /* \"#utility.yul\":10910:10946   */\n      iszero\n      tag_186\n      jumpi\n        /* \"#utility.yul\":10926:10944   */\n      tag_187\n      tag_61\n      jump\t// in\n    tag_187:\n        /* \"#utility.yul\":10910:10946   */\n    tag_186:\n        /* \"#utility.yul\":10762:10953   */\n      swap3\n      swap2\n      pop\n      pop\n      jump\t// out\n        /* \"#utility.yul\":10959:11077   */\n    tag_62:\n        /* \"#utility.yul\":11046:11070   */\n      tag_189\n        /* \"#utility.yul\":11064:11069   */\n      dup2\n        /* \"#utility.yul\":11046:11070   */\n      tag_37\n      jump\t// in\n    tag_189:\n        /* \"#utility.yul\":11041:11044   */\n      dup3\n        /* \"#utility.yul\":11034:11071   */\n      mstore\n        /* \"#utility.yul\":10959:11077   */\n      pop\n      pop\n      jump\t// out\n        /* \"#utility.yul\":11083:11305   */\n    tag_20:\n        /* \"#utility.yul\":11176:11180   */\n      0x00\n        /* \"#utility.yul\":11214:11216   */\n      0x20\n        /* \"#utility.yul\":11203:11212   */\n      dup3\n        /* \"#utility.yul\":11199:11217   */\n      add\n        /* \"#utility.yul\":11191:11217   */\n      swap1\n      pop\n        /* \"#utility.yul\":11227:11298   */\n      tag_191\n        /* \"#utility.yul\":11295:11296   */\n      0x00\n        /* \"#utility.yul\":11284:11293   */\n      dup4\n        /* \"#utility.yul\":11280:11297   */\n      add\n        /* \"#utility.yul\":11271:11277   */\n      dup5\n        /* \"#utility.yul\":11227:11298   */\n      tag_62\n      jump\t// in\n    tag_191:\n        /* \"#utility.yul\":11083:11305   */\n      swap3\n      swap2\n      pop\n      pop\n      jump\t// out\n        /* \"erc20.sol\":120:4034  contract ERC20Simple {... */\n    tag_11:\n      dataSize(sub_0)\n      dup1\n      dataOffset(sub_0)\n      0x00\n      codecopy\n      0x00\n      return\n    stop\n\n    sub_0: assembly {\n            /* \"erc20.sol\":120:4034  contract ERC20Simple {... */\n          mstore(0x40, 0x80)\n          callvalue\n          dup1\n          iszero\n          tag_1\n          jumpi\n          revert(0x00, 0x00)\n        tag_1:\n          pop\n          jumpi(tag_2, lt(calldatasize, 0x04))\n          shr(0xe0, calldataload(0x00))\n          dup1\n          0x40c10f19\n          gt\n          tag_14\n          jumpi\n          dup1\n          0x40c10f19\n          eq\n          tag_8\n          jumpi\n          dup1\n          0x70a08231\n          eq\n          tag_9\n          jumpi\n          dup1\n          0x95d89b41\n          eq\n          tag_10\n          jumpi\n          dup1\n          0x9dc29fac\n          eq\n          tag_11\n          jumpi\n          dup1\n          0xa9059cbb\n          eq\n          tag_12\n          jumpi\n          dup1\n          0xdd62ed3e\n          eq\n          tag_13\n          jumpi\n          jump(tag_2)\n        tag_14:\n          dup1\n          0x06fdde03\n          eq\n          tag_3\n          jumpi\n          dup1\n          0x095ea7b3\n          eq\n          tag_4\n          jumpi\n          dup1\n          0x18160ddd\n          eq\n          tag_5\n          jumpi\n          dup1\n          0x23b872dd\n          eq\n          tag_6\n          jumpi\n          dup1\n          0x313ce567\n          eq\n          tag_7\n          jumpi\n        tag_2:\n          revert(0x00, 0x00)\n            /* \"erc20.sol\":1008:1093  function name() external view returns (string memory) {... */\n        tag_3:\n          tag_15\n          tag_16\n          jump\t// in\n        tag_15:\n          mload(0x40)\n          tag_17\n          swap2\n          swap1\n          tag_18\n          jump\t// in\n        tag_17:\n          mload(0x40)\n          dup1\n          swap2\n          sub\n          swap1\n          return\n            /* \"erc20.sol\":1845:2135  function approve(address spender, uint256 amount) external returns (bool) {... */\n        tag_4:\n          tag_19\n          0x04\n          dup1\n          calldatasize\n          sub\n          dup2\n          add\n          swap1\n          tag_20\n          swap2\n          swap1\n          tag_21\n          jump\t// in\n        tag_20:\n          tag_22\n          jump\t// in\n        tag_19:\n          mload(0x40)\n          tag_23\n          swap2\n          swap1\n          tag_24\n          jump\t// in\n        tag_23:\n          mload(0x40)\n          dup1\n          swap2\n          sub\n          swap1\n          return\n            /* \"erc20.sol\":1332:1425  function totalSupply() external view returns (uint256) {... */\n        tag_5:\n          tag_25\n          tag_26\n          jump\t// in\n        tag_25:\n          mload(0x40)\n          tag_27\n          swap2\n          swap1\n          tag_28\n          jump\t// in\n        tag_27:\n          mload(0x40)\n          dup1\n          swap2\n          sub\n          swap1\n          return\n            /* \"erc20.sol\":2143:2621  function transferFrom(address from, address to, uint256 amount) external returns (bool) {... */\n        tag_6:\n          tag_29\n          0x04\n          dup1\n          calldatasize\n          sub\n          dup2\n          add\n          swap1\n          tag_30\n          swap2\n          swap1\n          tag_31\n          jump\t// in\n        tag_30:\n          tag_32\n          jump\t// in\n        tag_29:\n          mload(0x40)\n          tag_33\n          swap2\n          swap1\n          tag_24\n          jump\t// in\n        tag_33:\n          mload(0x40)\n          dup1\n          swap2\n          sub\n          swap1\n          return\n            /* \"erc20.sol\":1198:1283  function decimals() external view returns (uint8) {... */\n        tag_7:\n          tag_34\n          tag_35\n          jump\t// in\n        tag_34:\n          mload(0x40)\n          tag_36\n          swap2\n          swap1\n          tag_37\n          jump\t// in\n        tag_36:\n          mload(0x40)\n          dup1\n          swap2\n          sub\n          swap1\n          return\n            /* \"erc20.sol\":3845:3932  function mint(address to, uint256 amount) external {... */\n        tag_8:\n          tag_38\n          0x04\n          dup1\n          calldatasize\n          sub\n          dup2\n          add\n          swap1\n          tag_39\n          swap2\n          swap1\n          tag_21\n          jump\t// in\n        tag_39:\n          tag_40\n          jump\t// in\n        tag_38:\n          stop\n            /* \"erc20.sol\":1433:1541  function balanceOf(address owner) external view returns (uint256) {... */\n        tag_9:\n          tag_41\n          0x04\n          dup1\n          calldatasize\n          sub\n          dup2\n          add\n          swap1\n          tag_42\n          swap2\n          swap1\n          tag_43\n          jump\t// in\n        tag_42:\n          tag_44\n          jump\t// in\n        tag_41:\n          mload(0x40)\n          tag_45\n          swap2\n          swap1\n          tag_28\n          jump\t// in\n        tag_45:\n          mload(0x40)\n          dup1\n          swap2\n          sub\n          swap1\n          return\n            /* \"erc20.sol\":1101:1190  function symbol() external view returns (string memory) {... */\n        tag_10:\n          tag_46\n          tag_47\n          jump\t// in\n        tag_46:\n          mload(0x40)\n          tag_48\n          swap2\n          swap1\n          tag_18\n          jump\t// in\n        tag_48:\n          mload(0x40)\n          dup1\n          swap2\n          sub\n          swap1\n          return\n            /* \"erc20.sol\":3940:4031  function burn(address from, uint256 amount) external {... */\n        tag_11:\n          tag_49\n          0x04\n          dup1\n          calldatasize\n          sub\n          dup2\n          add\n          swap1\n          tag_50\n          swap2\n          swap1\n          tag_21\n          jump\t// in\n        tag_50:\n          tag_51\n          jump\t// in\n        tag_49:\n          stop\n            /* \"erc20.sol\":1693:1837  function transfer(address to, uint256 amount) external returns (bool) {... */\n        tag_12:\n          tag_52\n          0x04\n          dup1\n          calldatasize\n          sub\n          dup2\n          add\n          swap1\n          tag_53\n          swap2\n          swap1\n          tag_21\n          jump\t// in\n        tag_53:\n          tag_54\n          jump\t// in\n        tag_52:\n          mload(0x40)\n          tag_55\n          swap2\n          swap1\n          tag_24\n          jump\t// in\n        tag_55:\n          mload(0x40)\n          dup1\n          swap2\n          sub\n          swap1\n          return\n            /* \"erc20.sol\":1549:1685  function allowance(address owner, address spender) external view returns (uint256) {... */\n        tag_13:\n          tag_56\n          0x04\n          dup1\n          calldatasize\n          sub\n          dup2\n          add\n          swap1\n          tag_57\n          swap2\n          swap1\n          tag_58\n          jump\t// in\n        tag_57:\n          tag_59\n          jump\t// in\n        tag_56:\n          mload(0x40)\n          tag_60\n          swap2\n          swap1\n          tag_28\n          jump\t// in\n        tag_60:\n          mload(0x40)\n          dup1\n          swap2\n          sub\n          swap1\n          return\n            /* \"erc20.sol\":1008:1093  function name() external view returns (string memory) {... */\n        tag_16:\n            /* \"erc20.sol\":1047:1060  string memory */\n          0x60\n            /* \"erc20.sol\":1080:1085  _name */\n          0x00\n            /* \"erc20.sol\":1073:1085  return _name */\n          dup1\n          sload\n          tag_62\n          swap1\n          tag_63\n          jump\t// in\n        tag_62:\n          dup1\n          0x1f\n          add\n          0x20\n          dup1\n          swap2\n          div\n          mul\n          0x20\n          add\n          mload(0x40)\n          swap1\n          dup2\n          add\n          0x40\n          mstore\n          dup1\n          swap3\n          swap2\n          swap1\n          dup2\n          dup2\n          mstore\n          0x20\n          add\n          dup3\n          dup1\n          sload\n          tag_64\n          swap1\n          tag_63\n          jump\t// in\n        tag_64:\n          dup1\n          iszero\n          tag_65\n          jumpi\n          dup1\n          0x1f\n          lt\n          tag_66\n          jumpi\n          0x0100\n          dup1\n          dup4\n          sload\n          div\n          mul\n          dup4\n          mstore\n          swap2\n          0x20\n          add\n          swap2\n          jump(tag_65)\n        tag_66:\n          dup3\n          add\n          swap2\n          swap1\n          0x00\n          mstore\n          keccak256(0x00, 0x20)\n          swap1\n        tag_67:\n          dup2\n          sload\n          dup2\n          mstore\n          swap1\n          0x01\n          add\n          swap1\n          0x20\n          add\n          dup1\n          dup4\n          gt\n          tag_67\n          jumpi\n          dup3\n          swap1\n          sub\n          0x1f\n          and\n          dup3\n          add\n          swap2\n        tag_65:\n          pop\n          pop\n          pop\n          pop\n          pop\n          swap1\n          pop\n            /* \"erc20.sol\":1008:1093  function name() external view returns (string memory) {... */\n          swap1\n          jump\t// out\n            /* \"erc20.sol\":1845:2135  function approve(address spender, uint256 amount) external returns (bool) {... */\n        tag_22:\n            /* \"erc20.sol\":1913:1917  bool */\n          0x00\n            /* \"erc20.sol\":1957:1958  0 */\n          0x00\n            /* \"erc20.sol\":1938:1959  spender != address(0) */\n          0xffffffffffffffffffffffffffffffffffffffff\n          and\n            /* \"erc20.sol\":1938:1945  spender */\n          dup4\n            /* \"erc20.sol\":1938:1959  spender != address(0) */\n          0xffffffffffffffffffffffffffffffffffffffff\n          and\n          sub\n            /* \"erc20.sol\":1930:1998  require(spender != address(0), \"ERC20: approve to the zero address\") */\n          tag_69\n          jumpi\n          mload(0x40)\n          0x08c379a000000000000000000000000000000000000000000000000000000000\n          dup2\n          mstore\n          0x04\n          add\n          tag_70\n          swap1\n          tag_71\n          jump\t// in\n        tag_70:\n          mload(0x40)\n          dup1\n          swap2\n          sub\n          swap1\n          revert\n        tag_69:\n            /* \"erc20.sol\":2046:2052  amount */\n          dup2\n            /* \"erc20.sol\":2011:2022  _allowances */\n          0x05\n            /* \"erc20.sol\":2011:2034  _allowances[msg.sender] */\n          0x00\n            /* \"erc20.sol\":2023:2033  msg.sender */\n          caller\n            /* \"erc20.sol\":2011:2034  _allowances[msg.sender] */\n          0xffffffffffffffffffffffffffffffffffffffff\n          and\n          0xffffffffffffffffffffffffffffffffffffffff\n          and\n          dup2\n          mstore\n          0x20\n          add\n          swap1\n          dup2\n          mstore\n          0x20\n          add\n          0x00\n          keccak256\n            /* \"erc20.sol\":2011:2043  _allowances[msg.sender][spender] */\n          0x00\n            /* \"erc20.sol\":2035:2042  spender */\n          dup6\n            /* \"erc20.sol\":2011:2043  _allowances[msg.sender][spender] */\n          0xffffffffffffffffffffffffffffffffffffffff\n          and\n          0xffffffffffffffffffffffffffffffffffffffff\n          and\n          dup2\n          mstore\n          0x20\n          add\n          swap1\n          dup2\n          mstore\n          0x20\n          add\n          0x00\n          keccak256\n            /* \"erc20.sol\":2011:2052  _allowances[msg.sender][spender] = amount */\n          dup2\n          swap1\n          sstore\n          pop\n            /* \"erc20.sol\":2089:2096  spender */\n          dup3\n            /* \"erc20.sol\":2068:2105  Approval(msg.sender, spender, amount) */\n          0xffffffffffffffffffffffffffffffffffffffff\n          and\n            /* \"erc20.sol\":2077:2087  msg.sender */\n          caller\n            /* \"erc20.sol\":2068:2105  Approval(msg.sender, spender, amount) */\n          0xffffffffffffffffffffffffffffffffffffffff\n          and\n          0x8c5be1e5ebec7d5bd14f71427d1e84f3dd0314c0f7b2291e5b200ac8c7c3b925\n            /* \"erc20.sol\":2098:2104  amount */\n          dup5\n            /* \"erc20.sol\":2068:2105  Approval(msg.sender, spender, amount) */\n          mload(0x40)\n          tag_72\n          swap2\n          swap1\n          tag_28\n          jump\t// in\n        tag_72:\n          mload(0x40)\n          dup1\n          swap2\n          sub\n          swap1\n          log3\n            /* \"erc20.sol\":2123:2127  true */\n          0x01\n            /* \"erc20.sol\":2116:2127  return true */\n          swap1\n          pop\n            /* \"erc20.sol\":1845:2135  function approve(address spender, uint256 amount) external returns (bool) {... */\n          swap3\n          swap2\n          pop\n          pop\n          jump\t// out\n            /* \"erc20.sol\":1332:1425  function totalSupply() external view returns (uint256) {... */\n        tag_26:\n            /* \"erc20.sol\":1378:1385  uint256 */\n          0x00\n            /* \"erc20.sol\":1405:1417  _totalSupply */\n          sload(0x03)\n            /* \"erc20.sol\":1398:1417  return _totalSupply */\n          swap1\n          pop\n            /* \"erc20.sol\":1332:1425  function totalSupply() external view returns (uint256) {... */\n          swap1\n          jump\t// out\n            /* \"erc20.sol\":2143:2621  function transferFrom(address from, address to, uint256 amount) external returns (bool) {... */\n        tag_32:\n            /* \"erc20.sol\":2225:2229  bool */\n          0x00\n            /* \"erc20.sol\":2242:2266  uint256 currentAllowance */\n          0x00\n            /* \"erc20.sol\":2269:2280  _allowances */\n          0x05\n            /* \"erc20.sol\":2269:2286  _allowances[from] */\n          0x00\n            /* \"erc20.sol\":2281:2285  from */\n          dup7\n            /* \"erc20.sol\":2269:2286  _allowances[from] */\n          0xffffffffffffffffffffffffffffffffffffffff\n          and\n          0xffffffffffffffffffffffffffffffffffffffff\n          and\n          dup2\n          mstore\n          0x20\n          add\n          swap1\n          dup2\n          mstore\n          0x20\n          add\n          0x00\n          keccak256\n            /* \"erc20.sol\":2269:2298  _allowances[from][msg.sender] */\n          0x00\n            /* \"erc20.sol\":2287:2297  msg.sender */\n          caller\n            /* \"erc20.sol\":2269:2298  _allowances[from][msg.sender] */\n          0xffffffffffffffffffffffffffffffffffffffff\n          and\n          0xffffffffffffffffffffffffffffffffffffffff\n          and\n          dup2\n          mstore\n          0x20\n          add\n          swap1\n          dup2\n          mstore\n          0x20\n          add\n          0x00\n          keccak256\n          sload\n            /* \"erc20.sol\":2242:2298  uint256 currentAllowance = _allowances[from][msg.sender] */\n          swap1\n          pop\n            /* \"erc20.sol\":2337:2343  amount */\n          dup3\n            /* \"erc20.sol\":2317:2333  currentAllowance */\n          dup2\n            /* \"erc20.sol\":2317:2343  currentAllowance >= amount */\n          lt\n          iszero\n            /* \"erc20.sol\":2309:2377  require(currentAllowance >= amount, \"ERC20: insufficient allowance\") */\n          tag_75\n          jumpi\n          mload(0x40)\n          0x08c379a000000000000000000000000000000000000000000000000000000000\n          dup2\n          mstore\n          0x04\n          add\n          tag_76\n          swap1\n          tag_77\n          jump\t// in\n        tag_76:\n          mload(0x40)\n          dup1\n          swap2\n          sub\n          swap1\n          revert\n        tag_75:\n            /* \"erc20.sol\":2472:2478  amount */\n          dup3\n            /* \"erc20.sol\":2453:2469  currentAllowance */\n          dup2\n            /* \"erc20.sol\":2453:2478  currentAllowance - amount */\n          tag_78\n          swap2\n          swap1\n          tag_79\n          jump\t// in\n        tag_78:\n            /* \"erc20.sol\":2421:2432  _allowances */\n          0x05\n            /* \"erc20.sol\":2421:2438  _allowances[from] */\n          0x00\n            /* \"erc20.sol\":2433:2437  from */\n          dup8\n            /* \"erc20.sol\":2421:2438  _allowances[from] */\n          0xffffffffffffffffffffffffffffffffffffffff\n          and\n          0xffffffffffffffffffffffffffffffffffffffff\n          and\n          dup2\n          mstore\n          0x20\n          add\n          swap1\n          dup2\n          mstore\n          0x20\n          add\n          0x00\n          keccak256\n            /* \"erc20.sol\":2421:2450  _allowances[from][msg.sender] */\n          0x00\n            /* \"erc20.sol\":2439:2449  msg.sender */\n          caller\n            /* \"erc20.sol\":2421:2450  _allowances[from][msg.sender] */\n          0xffffffffffffffffffffffffffffffffffffffff\n          and\n          0xffffffffffffffffffffffffffffffffffffffff\n          and\n          dup2\n          mstore\n          0x20\n          add\n          swap1\n          dup2\n          mstore\n          0x20\n          add\n          0x00\n          keccak256\n            /* \"erc20.sol\":2421:2478  _allowances[from][msg.sender] = currentAllowance - amount */\n          dup2\n          swap1\n          sstore\n          pop\n            /* \"erc20.sol\":2509:2519  msg.sender */\n          caller\n            /* \"erc20.sol\":2494:2551  Approval(from, msg.sender, _allowances[from][msg.sender]) */\n          0xffffffffffffffffffffffffffffffffffffffff\n          and\n            /* \"erc20.sol\":2503:2507  from */\n          dup6\n            /* \"erc20.sol\":2494:2551  Approval(from, msg.sender, _allowances[from][msg.sender]) */\n          0xffffffffffffffffffffffffffffffffffffffff\n          and\n          0x8c5be1e5ebec7d5bd14f71427d1e84f3dd0314c0f7b2291e5b200ac8c7c3b925\n            /* \"erc20.sol\":2521:2532  _allowances */\n          0x05\n            /* \"erc20.sol\":2521:2538  _allowances[from] */\n          0x00\n            /* \"erc20.sol\":2533:2537  from */\n          dup10\n            /* \"erc20.sol\":2521:2538  _allowances[from] */\n          0xffffffffffffffffffffffffffffffffffffffff\n          and\n          0xffffffffffffffffffffffffffffffffffffffff\n          and\n          dup2\n          mstore\n          0x20\n          add\n          swap1\n          dup2\n          mstore\n          0x20\n          add\n          0x00\n          keccak256\n            /* \"erc20.sol\":2521:2550  _allowances[from][msg.sender] */\n          0x00\n            /* \"erc20.sol\":2539:2549  msg.sender */\n          caller\n            /* \"erc20.sol\":2521:2550  _allowances[from][msg.sender] */\n          0xffffffffffffffffffffffffffffffffffffffff\n          and\n          0xffffffffffffffffffffffffffffffffffffffff\n          and\n          dup2\n          mstore\n          0x20\n          add\n          swap1\n          dup2\n          mstore\n          0x20\n          add\n          0x00\n          keccak256\n          sload\n            /* \"erc20.sol\":2494:2551  Approval(from, msg.sender, _allowances[from][msg.sender]) */\n          mload(0x40)\n          tag_80\n          swap2\n          swap1\n          tag_28\n          jump\t// in\n        tag_80:\n          mload(0x40)\n          dup1\n          swap2\n          sub\n          swap1\n          log3\n            /* \"erc20.sol\":2564:2591  _transfer(from, to, amount) */\n          tag_81\n            /* \"erc20.sol\":2574:2578  from */\n          dup6\n            /* \"erc20.sol\":2580:2582  to */\n          dup6\n            /* \"erc20.sol\":2584:2590  amount */\n          dup6\n            /* \"erc20.sol\":2564:2573  _transfer */\n          tag_82\n            /* \"erc20.sol\":2564:2591  _transfer(from, to, amount) */\n          jump\t// in\n        tag_81:\n            /* \"erc20.sol\":2609:2613  true */\n          0x01\n            /* \"erc20.sol\":2602:2613  return true */\n          swap2\n          pop\n          pop\n            /* \"erc20.sol\":2143:2621  function transferFrom(address from, address to, uint256 amount) external returns (bool) {... */\n          swap4\n          swap3\n          pop\n          pop\n          pop\n          jump\t// out\n            /* \"erc20.sol\":1198:1283  function decimals() external view returns (uint8) {... */\n        tag_35:\n            /* \"erc20.sol\":1241:1246  uint8 */\n          0x00\n            /* \"erc20.sol\":1266:1275  _decimals */\n          0x02\n          0x00\n          swap1\n          sload\n          swap1\n          0x0100\n          exp\n          swap1\n          div\n          0xff\n          and\n            /* \"erc20.sol\":1259:1275  return _decimals */\n          swap1\n          pop\n            /* \"erc20.sol\":1198:1283  function decimals() external view returns (uint8) {... */\n          swap1\n          jump\t// out\n            /* \"erc20.sol\":3845:3932  function mint(address to, uint256 amount) external {... */\n        tag_40:\n            /* \"erc20.sol\":3907:3924  _mint(to, amount) */\n          tag_85\n            /* \"erc20.sol\":3913:3915  to */\n          dup3\n            /* \"erc20.sol\":3917:3923  amount */\n          dup3\n            /* \"erc20.sol\":3907:3912  _mint */\n          tag_86\n            /* \"erc20.sol\":3907:3924  _mint(to, amount) */\n          jump\t// in\n        tag_85:\n            /* \"erc20.sol\":3845:3932  function mint(address to, uint256 amount) external {... */\n          pop\n          pop\n          jump\t// out\n            /* \"erc20.sol\":1433:1541  function balanceOf(address owner) external view returns (uint256) {... */\n        tag_44:\n            /* \"erc20.sol\":1490:1497  uint256 */\n          0x00\n            /* \"erc20.sol\":1517:1526  _balances */\n          0x04\n            /* \"erc20.sol\":1517:1533  _balances[owner] */\n          0x00\n            /* \"erc20.sol\":1527:1532  owner */\n          dup4\n            /* \"erc20.sol\":1517:1533  _balances[owner] */\n          0xffffffffffffffffffffffffffffffffffffffff\n          and\n          0xffffffffffffffffffffffffffffffffffffffff\n          and\n          dup2\n          mstore\n          0x20\n          add\n          swap1\n          dup2\n          mstore\n          0x20\n          add\n          0x00\n          keccak256\n          sload\n            /* \"erc20.sol\":1510:1533  return _balances[owner] */\n          swap1\n          pop\n            /* \"erc20.sol\":1433:1541  function balanceOf(address owner) external view returns (uint256) {... */\n          swap2\n          swap1\n          pop\n          jump\t// out\n            /* \"erc20.sol\":1101:1190  function symbol() external view returns (string memory) {... */\n        tag_47:\n            /* \"erc20.sol\":1142:1155  string memory */\n          0x60\n            /* \"erc20.sol\":1175:1182  _symbol */\n          0x01\n            /* \"erc20.sol\":1168:1182  return _symbol */\n          dup1\n          sload\n          tag_89\n          swap1\n          tag_63\n          jump\t// in\n        tag_89:\n          dup1\n          0x1f\n          add\n          0x20\n          dup1\n          swap2\n          div\n          mul\n          0x20\n          add\n          mload(0x40)\n          swap1\n          dup2\n          add\n          0x40\n          mstore\n          dup1\n          swap3\n          swap2\n          swap1\n          dup2\n          dup2\n          mstore\n          0x20\n          add\n          dup3\n          dup1\n          sload\n          tag_90\n          swap1\n          tag_63\n          jump\t// in\n        tag_90:\n          dup1\n          iszero\n          tag_91\n          jumpi\n          dup1\n          0x1f\n          lt\n          tag_92\n          jumpi\n          0x0100\n          dup1\n          dup4\n          sload\n          div\n          mul\n          dup4\n          mstore\n          swap2\n          0x20\n          add\n          swap2\n          jump(tag_91)\n        tag_92:\n          dup3\n          add\n          swap2\n          swap1\n          0x00\n          mstore\n          keccak256(0x00, 0x20)\n          swap1\n        tag_93:\n          dup2\n          sload\n          dup2\n          mstore\n          swap1\n          0x01\n          add\n          swap1\n          0x20\n          add\n          dup1\n          dup4\n          gt\n          tag_93\n          jumpi\n          dup3\n          swap1\n          sub\n          0x1f\n          and\n          dup3\n          add\n          swap2\n        tag_91:\n          pop\n          pop\n          pop\n          pop\n          pop\n          swap1\n          pop\n            /* \"erc20.sol\":1101:1190  function symbol() external view returns (string memory) {... */\n          swap1\n          jump\t// out\n            /* \"erc20.sol\":3940:4031  function burn(address from, uint256 amount) external {... */\n        tag_51:\n            /* \"erc20.sol\":4004:4023  _burn(from, amount) */\n          tag_95\n            /* \"erc20.sol\":4010:4014  from */\n          dup3\n            /* \"erc20.sol\":4016:4022  amount */\n          dup3\n            /* \"erc20.sol\":4004:4009  _burn */\n          tag_96\n            /* \"erc20.sol\":4004:4023  _burn(from, amount) */\n          jump\t// in\n        tag_95:\n            /* \"erc20.sol\":3940:4031  function burn(address from, uint256 amount) external {... */\n          pop\n          pop\n          jump\t// out\n            /* \"erc20.sol\":1693:1837  function transfer(address to, uint256 amount) external returns (bool) {... */\n        tag_54:\n            /* \"erc20.sol\":1757:1761  bool */\n          0x00\n            /* \"erc20.sol\":1774:1807  _transfer(msg.sender, to, amount) */\n          tag_98\n            /* \"erc20.sol\":1784:1794  msg.sender */\n          caller\n            /* \"erc20.sol\":1796:1798  to */\n          dup5\n            /* \"erc20.sol\":1800:1806  amount */\n          dup5\n            /* \"erc20.sol\":1774:1783  _transfer */\n          tag_82\n            /* \"erc20.sol\":1774:1807  _transfer(msg.sender, to, amount) */\n          jump\t// in\n        tag_98:\n            /* \"erc20.sol\":1825:1829  true */\n          0x01\n            /* \"erc20.sol\":1818:1829  return true */\n          swap1\n          pop\n            /* \"erc20.sol\":1693:1837  function transfer(address to, uint256 amount) external returns (bool) {... */\n          swap3\n          swap2\n          pop\n          pop\n          jump\t// out\n            /* \"erc20.sol\":1549:1685  function allowance(address owner, address spender) external view returns (uint256) {... */\n        tag_59:\n            /* \"erc20.sol\":1623:1630  uint256 */\n          0x00\n            /* \"erc20.sol\":1650:1661  _allowances */\n          0x05\n            /* \"erc20.sol\":1650:1668  _allowances[owner] */\n          0x00\n            /* \"erc20.sol\":1662:1667  owner */\n          dup5\n            /* \"erc20.sol\":1650:1668  _allowances[owner] */\n          0xffffffffffffffffffffffffffffffffffffffff\n          and\n          0xffffffffffffffffffffffffffffffffffffffff\n          and\n          dup2\n          mstore\n          0x20\n          add\n          swap1\n          dup2\n          mstore\n          0x20\n          add\n          0x00\n          keccak256\n            /* \"erc20.sol\":1650:1677  _allowances[owner][spender] */\n          0x00\n            /* \"erc20.sol\":1669:1676  spender */\n          dup4\n            /* \"erc20.sol\":1650:1677  _allowances[owner][spender] */\n          0xffffffffffffffffffffffffffffffffffffffff\n          and\n          0xffffffffffffffffffffffffffffffffffffffff\n          and\n          dup2\n          mstore\n          0x20\n          add\n          swap1\n          dup2\n          mstore\n          0x20\n          add\n          0x00\n          keccak256\n          sload\n            /* \"erc20.sol\":1643:1677  return _allowances[owner][spender] */\n          swap1\n          pop\n            /* \"erc20.sol\":1549:1685  function allowance(address owner, address spender) external view returns (uint256) {... */\n          swap3\n          swap2\n          pop\n          pop\n          jump\t// out\n            /* \"erc20.sol\":2670:3164  function _transfer(address from, address to, uint256 amount) internal {... */\n        tag_82:\n            /* \"erc20.sol\":2775:2776  0 */\n          0x00\n            /* \"erc20.sol\":2759:2777  from != address(0) */\n          0xffffffffffffffffffffffffffffffffffffffff\n          and\n            /* \"erc20.sol\":2759:2763  from */\n          dup4\n            /* \"erc20.sol\":2759:2777  from != address(0) */\n          0xffffffffffffffffffffffffffffffffffffffff\n          and\n          sub\n            /* \"erc20.sol\":2751:2819  require(from != address(0), \"ERC20: transfer from the zero address\") */\n          tag_101\n          jumpi\n          mload(0x40)\n          0x08c379a000000000000000000000000000000000000000000000000000000000\n          dup2\n          mstore\n          0x04\n          add\n          tag_102\n          swap1\n          tag_103\n          jump\t// in\n        tag_102:\n          mload(0x40)\n          dup1\n          swap2\n          sub\n          swap1\n          revert\n        tag_101:\n            /* \"erc20.sol\":2852:2853  0 */\n          0x00\n            /* \"erc20.sol\":2838:2854  to != address(0) */\n          0xffffffffffffffffffffffffffffffffffffffff\n          and\n            /* \"erc20.sol\":2838:2840  to */\n          dup3\n            /* \"erc20.sol\":2838:2854  to != address(0) */\n          0xffffffffffffffffffffffffffffffffffffffff\n          and\n          sub\n            /* \"erc20.sol\":2830:2894  require(to != address(0), \"ERC20: transfer to the zero address\") */\n          tag_104\n          jumpi\n          mload(0x40)\n          0x08c379a000000000000000000000000000000000000000000000000000000000\n          dup2\n          mstore\n          0x04\n          add\n          tag_105\n          swap1\n          tag_106\n          jump\t// in\n        tag_105:\n          mload(0x40)\n          dup1\n          swap2\n          sub\n          swap1\n          revert\n        tag_104:\n            /* \"erc20.sol\":2907:2926  uint256 fromBalance */\n          0x00\n            /* \"erc20.sol\":2929:2938  _balances */\n          0x04\n            /* \"erc20.sol\":2929:2944  _balances[from] */\n          0x00\n            /* \"erc20.sol\":2939:2943  from */\n          dup6\n            /* \"erc20.sol\":2929:2944  _balances[from] */\n          0xffffffffffffffffffffffffffffffffffffffff\n          and\n          0xffffffffffffffffffffffffffffffffffffffff\n          and\n          dup2\n          mstore\n          0x20\n          add\n          swap1\n          dup2\n          mstore\n          0x20\n          add\n          0x00\n          keccak256\n          sload\n            /* \"erc20.sol\":2907:2944  uint256 fromBalance = _balances[from] */\n          swap1\n          pop\n            /* \"erc20.sol\":2978:2984  amount */\n          dup2\n            /* \"erc20.sol\":2963:2974  fromBalance */\n          dup2\n            /* \"erc20.sol\":2963:2984  fromBalance >= amount */\n          lt\n          iszero\n            /* \"erc20.sol\":2955:3027  require(fromBalance >= amount, \"ERC20: transfer amount exceeds balance\") */\n          tag_107\n          jumpi\n          mload(0x40)\n          0x08c379a000000000000000000000000000000000000000000000000000000000\n          dup2\n          mstore\n          0x04\n          add\n          tag_108\n          swap1\n          tag_109\n          jump\t// in\n        tag_108:\n          mload(0x40)\n          dup1\n          swap2\n          sub\n          swap1\n          revert\n        tag_107:\n            /* \"erc20.sol\":3072:3078  amount */\n          dup2\n            /* \"erc20.sol\":3058:3069  fromBalance */\n          dup2\n            /* \"erc20.sol\":3058:3078  fromBalance - amount */\n          tag_110\n          swap2\n          swap1\n          tag_79\n          jump\t// in\n        tag_110:\n            /* \"erc20.sol\":3040:3049  _balances */\n          0x04\n            /* \"erc20.sol\":3040:3055  _balances[from] */\n          0x00\n            /* \"erc20.sol\":3050:3054  from */\n          dup7\n            /* \"erc20.sol\":3040:3055  _balances[from] */\n          0xffffffffffffffffffffffffffffffffffffffff\n          and\n          0xffffffffffffffffffffffffffffffffffffffff\n          and\n          dup2\n          mstore\n          0x20\n          add\n          swap1\n          dup2\n          mstore\n          0x20\n          add\n          0x00\n          keccak256\n            /* \"erc20.sol\":3040:3078  _balances[from] = fromBalance - amount */\n          dup2\n          swap1\n          sstore\n          pop\n            /* \"erc20.sol\":3106:3112  amount */\n          dup2\n            /* \"erc20.sol\":3089:3098  _balances */\n          0x04\n            /* \"erc20.sol\":3089:3102  _balances[to] */\n          0x00\n            /* \"erc20.sol\":3099:3101  to */\n          dup6\n            /* \"erc20.sol\":3089:3102  _balances[to] */\n          0xffffffffffffffffffffffffffffffffffffffff\n          and\n          0xffffffffffffffffffffffffffffffffffffffff\n          and\n          dup2\n          mstore\n          0x20\n          add\n          swap1\n          dup2\n          mstore\n          0x20\n          add\n          0x00\n          keccak256\n          0x00\n            /* \"erc20.sol\":3089:3112  _balances[to] += amount */\n          dup3\n          dup3\n          sload\n          tag_111\n          swap2\n          swap1\n          tag_112\n          jump\t// in\n        tag_111:\n          swap3\n          pop\n          pop\n          dup2\n          swap1\n          sstore\n          pop\n            /* \"erc20.sol\":3145:3147  to */\n          dup3\n            /* \"erc20.sol\":3130:3156  Transfer(from, to, amount) */\n          0xffffffffffffffffffffffffffffffffffffffff\n          and\n            /* \"erc20.sol\":3139:3143  from */\n          dup5\n            /* \"erc20.sol\":3130:3156  Transfer(from, to, amount) */\n          0xffffffffffffffffffffffffffffffffffffffff\n          and\n          0xddf252ad1be2c89b69c2b068fc378daa952ba7f163c4a11628f55a4df523b3ef\n            /* \"erc20.sol\":3149:3155  amount */\n          dup5\n            /* \"erc20.sol\":3130:3156  Transfer(from, to, amount) */\n          mload(0x40)\n          tag_113\n          swap2\n          swap1\n          tag_28\n          jump\t// in\n        tag_113:\n          mload(0x40)\n          dup1\n          swap2\n          sub\n          swap1\n          log3\n            /* \"erc20.sol\":2740:3164  {... */\n          pop\n            /* \"erc20.sol\":2670:3164  function _transfer(address from, address to, uint256 amount) internal {... */\n          pop\n          pop\n          pop\n          jump\t// out\n            /* \"erc20.sol\":3172:3484  function _mint(address to, uint256 amount) internal {... */\n        tag_86:\n            /* \"erc20.sol\":3257:3258  0 */\n          0x00\n            /* \"erc20.sol\":3243:3259  to != address(0) */\n          0xffffffffffffffffffffffffffffffffffffffff\n          and\n            /* \"erc20.sol\":3243:3245  to */\n          dup3\n            /* \"erc20.sol\":3243:3259  to != address(0) */\n          0xffffffffffffffffffffffffffffffffffffffff\n          and\n          sub\n            /* \"erc20.sol\":3235:3295  require(to != address(0), \"ERC20: mint to the zero address\") */\n          tag_115\n          jumpi\n          mload(0x40)\n          0x08c379a000000000000000000000000000000000000000000000000000000000\n          dup2\n          mstore\n          0x04\n          add\n          tag_116\n          swap1\n          tag_117\n          jump\t// in\n        tag_116:\n          mload(0x40)\n          dup1\n          swap2\n          sub\n          swap1\n          revert\n        tag_115:\n            /* \"erc20.sol\":3324:3330  amount */\n          dup1\n            /* \"erc20.sol\":3308:3320  _totalSupply */\n          0x03\n          0x00\n            /* \"erc20.sol\":3308:3330  _totalSupply += amount */\n          dup3\n          dup3\n          sload\n          tag_118\n          swap2\n          swap1\n          tag_112\n          jump\t// in\n        tag_118:\n          swap3\n          pop\n          pop\n          dup2\n          swap1\n          sstore\n          pop\n            /* \"erc20.sol\":3358:3364  amount */\n          dup1\n            /* \"erc20.sol\":3341:3350  _balances */\n          0x04\n            /* \"erc20.sol\":3341:3354  _balances[to] */\n          0x00\n            /* \"erc20.sol\":3351:3353  to */\n          dup5\n            /* \"erc20.sol\":3341:3354  _balances[to] */\n          0xffffffffffffffffffffffffffffffffffffffff\n          and\n          0xffffffffffffffffffffffffffffffffffffffff\n          and\n          dup2\n          mstore\n          0x20\n          add\n          swap1\n          dup2\n          mstore\n          0x20\n          add\n          0x00\n          keccak256\n          0x00\n            /* \"erc20.sol\":3341:3364  _balances[to] += amount */\n          dup3\n          dup3\n          sload\n          tag_119\n          swap2\n          swap1\n          tag_112\n          jump\t// in\n        tag_119:\n          swap3\n          pop\n          pop\n          dup2\n          swap1\n          sstore\n          pop\n            /* \"erc20.sol\":3465:3467  to */\n          dup2\n            /* \"erc20.sol\":3444:3476  Transfer(address(0), to, amount) */\n          0xffffffffffffffffffffffffffffffffffffffff\n          and\n            /* \"erc20.sol\":3461:3462  0 */\n          0x00\n            /* \"erc20.sol\":3444:3476  Transfer(address(0), to, amount) */\n          0xffffffffffffffffffffffffffffffffffffffff\n          and\n          0xddf252ad1be2c89b69c2b068fc378daa952ba7f163c4a11628f55a4df523b3ef\n            /* \"erc20.sol\":3469:3475  amount */\n          dup4\n            /* \"erc20.sol\":3444:3476  Transfer(address(0), to, amount) */\n          mload(0x40)\n          tag_120\n          swap2\n          swap1\n          tag_28\n          jump\t// in\n        tag_120:\n          mload(0x40)\n          dup1\n          swap2\n          sub\n          swap1\n          log3\n            /* \"erc20.sol\":3172:3484  function _mint(address to, uint256 amount) internal {... */\n          pop\n          pop\n          jump\t// out\n            /* \"erc20.sol\":3492:3807  function _burn(address from, uint256 amount) internal {... */\n        tag_96:\n            /* \"erc20.sol\":3581:3582  0 */\n          0x00\n            /* \"erc20.sol\":3565:3583  from != address(0) */\n          0xffffffffffffffffffffffffffffffffffffffff\n          and\n            /* \"erc20.sol\":3565:3569  from */\n          dup3\n            /* \"erc20.sol\":3565:3583  from != address(0) */\n          0xffffffffffffffffffffffffffffffffffffffff\n          and\n          sub\n            /* \"erc20.sol\":3557:3602  require(from != address(0), \"No hay address\") */\n          tag_122\n          jumpi\n          mload(0x40)\n          0x08c379a000000000000000000000000000000000000000000000000000000000\n          dup2\n          mstore\n          0x04\n          add\n          tag_123\n          swap1\n          tag_124\n          jump\t// in\n        tag_123:\n          mload(0x40)\n          dup1\n          swap2\n          sub\n          swap1\n          revert\n        tag_122:\n            /* \"erc20.sol\":3640:3646  amount */\n          dup1\n            /* \"erc20.sol\":3621:3630  _balances */\n          0x04\n            /* \"erc20.sol\":3621:3636  _balances[from] */\n          0x00\n            /* \"erc20.sol\":3631:3635  from */\n          dup5\n            /* \"erc20.sol\":3621:3636  _balances[from] */\n          0xffffffffffffffffffffffffffffffffffffffff\n          and\n          0xffffffffffffffffffffffffffffffffffffffff\n          and\n          dup2\n          mstore\n          0x20\n          add\n          swap1\n          dup2\n          mstore\n          0x20\n          add\n          0x00\n          keccak256\n          sload\n            /* \"erc20.sol\":3621:3646  _balances[from] >= amount */\n          lt\n          iszero\n            /* \"erc20.sol\":3613:3677  require(_balances[from] >= amount, \"No hay suficientes tokens.\") */\n          tag_125\n          jumpi\n          mload(0x40)\n          0x08c379a000000000000000000000000000000000000000000000000000000000\n          dup2\n          mstore\n          0x04\n          add\n          tag_126\n          swap1\n          tag_127\n          jump\t// in\n        tag_126:\n          mload(0x40)\n          dup1\n          swap2\n          sub\n          swap1\n          revert\n        tag_125:\n            /* \"erc20.sol\":3709:3715  amount */\n          dup1\n            /* \"erc20.sol\":3690:3699  _balances */\n          0x04\n            /* \"erc20.sol\":3690:3705  _balances[from] */\n          0x00\n            /* \"erc20.sol\":3700:3704  from */\n          dup5\n            /* \"erc20.sol\":3690:3705  _balances[from] */\n          0xffffffffffffffffffffffffffffffffffffffff\n          and\n          0xffffffffffffffffffffffffffffffffffffffff\n          and\n          dup2\n          mstore\n          0x20\n          add\n          swap1\n          dup2\n          mstore\n          0x20\n          add\n          0x00\n          keccak256\n          0x00\n            /* \"erc20.sol\":3690:3715  _balances[from] -= amount */\n          dup3\n          dup3\n          sload\n          tag_128\n          swap2\n          swap1\n          tag_79\n          jump\t// in\n        tag_128:\n          swap3\n          pop\n          pop\n          dup2\n          swap1\n          sstore\n          pop\n            /* \"erc20.sol\":3741:3747  amount */\n          dup1\n            /* \"erc20.sol\":3726:3738  _totalSupply */\n          0x03\n          0x00\n            /* \"erc20.sol\":3726:3747  _totalSupply -=amount */\n          dup3\n          dup3\n          sload\n          tag_129\n          swap2\n          swap1\n          tag_79\n          jump\t// in\n        tag_129:\n          swap3\n          pop\n          pop\n          dup2\n          swap1\n          sstore\n          pop\n            /* \"erc20.sol\":3788:3789  0 */\n          0x00\n            /* \"erc20.sol\":3765:3799  Transfer(from, address(0), amount) */\n          0xffffffffffffffffffffffffffffffffffffffff\n          and\n            /* \"erc20.sol\":3774:3778  from */\n          dup3\n            /* \"erc20.sol\":3765:3799  Transfer(from, address(0), amount) */\n          0xffffffffffffffffffffffffffffffffffffffff\n          and\n          0xddf252ad1be2c89b69c2b068fc378daa952ba7f163c4a11628f55a4df523b3ef\n            /* \"erc20.sol\":3792:3798  amount */\n          dup4\n            /* \"erc20.sol\":3765:3799  Transfer(from, address(0), amount) */\n          mload(0x40)\n          tag_130\n          swap2\n          swap1\n          tag_28\n          jump\t// in\n        tag_130:\n          mload(0x40)\n          dup1\n          swap2\n          sub\n          swap1\n          log3\n            /* \"erc20.sol\":3492:3807  function _burn(address from, uint256 amount) internal {... */\n          pop\n          pop\n          jump\t// out\n            /* \"#utility.yul\":7:106   */\n        tag_131:\n            /* \"#utility.yul\":59:65   */\n          0x00\n            /* \"#utility.yul\":93:98   */\n          dup2\n            /* \"#utility.yul\":87:99   */\n          mload\n            /* \"#utility.yul\":77:99   */\n          swap1\n          pop\n            /* \"#utility.yul\":7:106   */\n          swap2\n          swap1\n          pop\n          jump\t// out\n            /* \"#utility.yul\":112:281   */\n        tag_132:\n            /* \"#utility.yul\":196:207   */\n          0x00\n            /* \"#utility.yul\":230:236   */\n          dup3\n            /* \"#utility.yul\":225:228   */\n          dup3\n            /* \"#utility.yul\":218:237   */\n          mstore\n            /* \"#utility.yul\":270:274   */\n          0x20\n            /* \"#utility.yul\":265:268   */\n          dup3\n            /* \"#utility.yul\":261:275   */\n          add\n            /* \"#utility.yul\":246:275   */\n          swap1\n          pop\n            /* \"#utility.yul\":112:281   */\n          swap3\n          swap2\n          pop\n          pop\n          jump\t// out\n            /* \"#utility.yul\":287:426   */\n        tag_133:\n            /* \"#utility.yul\":376:382   */\n          dup3\n            /* \"#utility.yul\":371:374   */\n          dup2\n            /* \"#utility.yul\":366:369   */\n          dup4\n            /* \"#utility.yul\":360:383   */\n          mcopy\n            /* \"#utility.yul\":417:418   */\n          0x00\n            /* \"#utility.yul\":408:414   */\n          dup4\n            /* \"#utility.yul\":403:406   */\n          dup4\n            /* \"#utility.yul\":399:415   */\n          add\n            /* \"#utility.yul\":392:419   */\n          mstore\n            /* \"#utility.yul\":287:426   */\n          pop\n          pop\n          pop\n          jump\t// out\n            /* \"#utility.yul\":432:534   */\n        tag_134:\n            /* \"#utility.yul\":473:479   */\n          0x00\n            /* \"#utility.yul\":524:526   */\n          0x1f\n            /* \"#utility.yul\":520:527   */\n          not\n            /* \"#utility.yul\":515:517   */\n          0x1f\n            /* \"#utility.yul\":508:513   */\n          dup4\n            /* \"#utility.yul\":504:518   */\n          add\n            /* \"#utility.yul\":500:528   */\n          and\n            /* \"#utility.yul\":490:528   */\n          swap1\n          pop\n            /* \"#utility.yul\":432:534   */\n          swap2\n          swap1\n          pop\n          jump\t// out\n            /* \"#utility.yul\":540:917   */\n        tag_135:\n            /* \"#utility.yul\":628:631   */\n          0x00\n            /* \"#utility.yul\":656:695   */\n          tag_175\n            /* \"#utility.yul\":689:694   */\n          dup3\n            /* \"#utility.yul\":656:695   */\n          tag_131\n          jump\t// in\n        tag_175:\n            /* \"#utility.yul\":711:782   */\n          tag_176\n            /* \"#utility.yul\":775:781   */\n          dup2\n            /* \"#utility.yul\":770:773   */\n          dup6\n            /* \"#utility.yul\":711:782   */\n          tag_132\n          jump\t// in\n        tag_176:\n            /* \"#utility.yul\":704:782   */\n          swap4\n          pop\n            /* \"#utility.yul\":791:856   */\n          tag_177\n            /* \"#utility.yul\":849:855   */\n          dup2\n            /* \"#utility.yul\":844:847   */\n          dup6\n            /* \"#utility.yul\":837:841   */\n          0x20\n            /* \"#utility.yul\":830:835   */\n          dup7\n            /* \"#utility.yul\":826:842   */\n          add\n            /* \"#utility.yul\":791:856   */\n          tag_133\n          jump\t// in\n        tag_177:\n            /* \"#utility.yul\":881:910   */\n          tag_178\n            /* \"#utility.yul\":903:909   */\n          dup2\n            /* \"#utility.yul\":881:910   */\n          tag_134\n          jump\t// in\n        tag_178:\n            /* \"#utility.yul\":876:879   */\n          dup5\n            /* \"#utility.yul\":872:911   */\n          add\n            /* \"#utility.yul\":865:911   */\n          swap2\n          pop\n            /* \"#utility.yul\":632:917   */\n          pop\n            /* \"#utility.yul\":540:917   */\n          swap3\n          swap2\n          pop\n          pop\n          jump\t// out\n            /* \"#utility.yul\":923:1236   */\n        tag_18:\n            /* \"#utility.yul\":1036:1040   */\n          0x00\n            /* \"#utility.yul\":1074:1076   */\n          0x20\n            /* \"#utility.yul\":1063:1072   */\n          dup3\n            /* \"#utility.yul\":1059:1077   */\n          add\n            /* \"#utility.yul\":1051:1077   */\n          swap1\n          pop\n            /* \"#utility.yul\":1123:1132   */\n          dup2\n            /* \"#utility.yul\":1117:1121   */\n          dup2\n            /* \"#utility.yul\":1113:1133   */\n          sub\n            /* \"#utility.yul\":1109:1110   */\n          0x00\n            /* \"#utility.yul\":1098:1107   */\n          dup4\n            /* \"#utility.yul\":1094:1111   */\n          add\n            /* \"#utility.yul\":1087:1134   */\n          mstore\n            /* \"#utility.yul\":1151:1229   */\n          tag_180\n            /* \"#utility.yul\":1224:1228   */\n          dup2\n            /* \"#utility.yul\":1215:1221   */\n          dup5\n            /* \"#utility.yul\":1151:1229   */\n          tag_135\n          jump\t// in\n        tag_180:\n            /* \"#utility.yul\":1143:1229   */\n          swap1\n          pop\n            /* \"#utility.yul\":923:1236   */\n          swap3\n          swap2\n          pop\n          pop\n          jump\t// out\n            /* \"#utility.yul\":1323:1440   */\n        tag_137:\n            /* \"#utility.yul\":1432:1433   */\n          0x00\n            /* \"#utility.yul\":1429:1430   */\n          0x00\n            /* \"#utility.yul\":1422:1434   */\n          revert\n            /* \"#utility.yul\":1569:1695   */\n        tag_139:\n            /* \"#utility.yul\":1606:1613   */\n          0x00\n            /* \"#utility.yul\":1646:1688   */\n          0xffffffffffffffffffffffffffffffffffffffff\n            /* \"#utility.yul\":1639:1644   */\n          dup3\n            /* \"#utility.yul\":1635:1689   */\n          and\n            /* \"#utility.yul\":1624:1689   */\n          swap1\n          pop\n            /* \"#utility.yul\":1569:1695   */\n          swap2\n          swap1\n          pop\n          jump\t// out\n            /* \"#utility.yul\":1701:1797   */\n        tag_140:\n            /* \"#utility.yul\":1738:1745   */\n          0x00\n            /* \"#utility.yul\":1767:1791   */\n          tag_186\n            /* \"#utility.yul\":1785:1790   */\n          dup3\n            /* \"#utility.yul\":1767:1791   */\n          tag_139\n          jump\t// in\n        tag_186:\n            /* \"#utility.yul\":1756:1791   */\n          swap1\n          pop\n            /* \"#utility.yul\":1701:1797   */\n          swap2\n          swap1\n          pop\n          jump\t// out\n            /* \"#utility.yul\":1803:1925   */\n        tag_141:\n            /* \"#utility.yul\":1876:1900   */\n          tag_188\n            /* \"#utility.yul\":1894:1899   */\n          dup2\n            /* \"#utility.yul\":1876:1900   */\n          tag_140\n          jump\t// in\n        tag_188:\n            /* \"#utility.yul\":1869:1874   */\n          dup2\n            /* \"#utility.yul\":1866:1901   */\n          eq\n            /* \"#utility.yul\":1856:1919   */\n          tag_189\n          jumpi\n            /* \"#utility.yul\":1915:1916   */\n          0x00\n            /* \"#utility.yul\":1912:1913   */\n          0x00\n            /* \"#utility.yul\":1905:1917   */\n          revert\n            /* \"#utility.yul\":1856:1919   */\n        tag_189:\n            /* \"#utility.yul\":1803:1925   */\n          pop\n          jump\t// out\n            /* \"#utility.yul\":1931:2070   */\n        tag_142:\n            /* \"#utility.yul\":1977:1982   */\n          0x00\n            /* \"#utility.yul\":2015:2021   */\n          dup2\n            /* \"#utility.yul\":2002:2022   */\n          calldataload\n            /* \"#utility.yul\":1993:2022   */\n          swap1\n          pop\n            /* \"#utility.yul\":2031:2064   */\n          tag_191\n            /* \"#utility.yul\":2058:2063   */\n          dup2\n            /* \"#utility.yul\":2031:2064   */\n          tag_141\n          jump\t// in\n        tag_191:\n            /* \"#utility.yul\":1931:2070   */\n          swap3\n          swap2\n          pop\n          pop\n          jump\t// out\n            /* \"#utility.yul\":2076:2153   */\n        tag_143:\n            /* \"#utility.yul\":2113:2120   */\n          0x00\n            /* \"#utility.yul\":2142:2147   */\n          dup2\n            /* \"#utility.yul\":2131:2147   */\n          swap1\n          pop\n            /* \"#utility.yul\":2076:2153   */\n          swap2\n          swap1\n          pop\n          jump\t// out\n            /* \"#utility.yul\":2159:2281   */\n        tag_144:\n            /* \"#utility.yul\":2232:2256   */\n          tag_194\n            /* \"#utility.yul\":2250:2255   */\n          dup2\n            /* \"#utility.yul\":2232:2256   */\n          tag_143\n          jump\t// in\n        tag_194:\n            /* \"#utility.yul\":2225:2230   */\n          dup2\n            /* \"#utility.yul\":2222:2257   */\n          eq\n            /* \"#utility.yul\":2212:2275   */\n          tag_195\n          jumpi\n            /* \"#utility.yul\":2271:2272   */\n          0x00\n            /* \"#utility.yul\":2268:2269   */\n          0x00\n            /* \"#utility.yul\":2261:2273   */\n          revert\n            /* \"#utility.yul\":2212:2275   */\n        tag_195:\n            /* \"#utility.yul\":2159:2281   */\n          pop\n          jump\t// out\n            /* \"#utility.yul\":2287:2426   */\n        tag_145:\n            /* \"#utility.yul\":2333:2338   */\n          0x00\n            /* \"#utility.yul\":2371:2377   */\n          dup2\n            /* \"#utility.yul\":2358:2378   */\n          calldataload\n            /* \"#utility.yul\":2349:2378   */\n          swap1\n          pop\n            /* \"#utility.yul\":2387:2420   */\n          tag_197\n            /* \"#utility.yul\":2414:2419   */\n          dup2\n            /* \"#utility.yul\":2387:2420   */\n          tag_144\n          jump\t// in\n        tag_197:\n            /* \"#utility.yul\":2287:2426   */\n          swap3\n          swap2\n          pop\n          pop\n          jump\t// out\n            /* \"#utility.yul\":2432:2906   */\n        tag_21:\n            /* \"#utility.yul\":2500:2506   */\n          0x00\n            /* \"#utility.yul\":2508:2514   */\n          0x00\n            /* \"#utility.yul\":2557:2559   */\n          0x40\n            /* \"#utility.yul\":2545:2554   */\n          dup4\n            /* \"#utility.yul\":2536:2543   */\n          dup6\n            /* \"#utility.yul\":2532:2555   */\n          sub\n            /* \"#utility.yul\":2528:2560   */\n          slt\n            /* \"#utility.yul\":2525:2644   */\n          iszero\n          tag_199\n          jumpi\n            /* \"#utility.yul\":2563:2642   */\n          tag_200\n          tag_137\n          jump\t// in\n        tag_200:\n            /* \"#utility.yul\":2525:2644   */\n        tag_199:\n            /* \"#utility.yul\":2683:2684   */\n          0x00\n            /* \"#utility.yul\":2708:2761   */\n          tag_201\n            /* \"#utility.yul\":2753:2760   */\n          dup6\n            /* \"#utility.yul\":2744:2750   */\n          dup3\n            /* \"#utility.yul\":2733:2742   */\n          dup7\n            /* \"#utility.yul\":2729:2751   */\n          add\n            /* \"#utility.yul\":2708:2761   */\n          tag_142\n          jump\t// in\n        tag_201:\n            /* \"#utility.yul\":2698:2761   */\n          swap3\n          pop\n            /* \"#utility.yul\":2654:2771   */\n          pop\n            /* \"#utility.yul\":2810:2812   */\n          0x20\n            /* \"#utility.yul\":2836:2889   */\n          tag_202\n            /* \"#utility.yul\":2881:2888   */\n          dup6\n            /* \"#utility.yul\":2872:2878   */\n          dup3\n            /* \"#utility.yul\":2861:2870   */\n          dup7\n            /* \"#utility.yul\":2857:2879   */\n          add\n            /* \"#utility.yul\":2836:2889   */\n          tag_145\n          jump\t// in\n        tag_202:\n            /* \"#utility.yul\":2826:2889   */\n          swap2\n          pop\n            /* \"#utility.yul\":2781:2899   */\n          pop\n            /* \"#utility.yul\":2432:2906   */\n          swap3\n          pop\n          swap3\n          swap1\n          pop\n          jump\t// out\n            /* \"#utility.yul\":2912:3002   */\n        tag_146:\n            /* \"#utility.yul\":2946:2953   */\n          0x00\n            /* \"#utility.yul\":2989:2994   */\n          dup2\n            /* \"#utility.yul\":2982:2995   */\n          iszero\n            /* \"#utility.yul\":2975:2996   */\n          iszero\n            /* \"#utility.yul\":2964:2996   */\n          swap1\n          pop\n            /* \"#utility.yul\":2912:3002   */\n          swap2\n          swap1\n          pop\n          jump\t// out\n            /* \"#utility.yul\":3008:3117   */\n        tag_147:\n            /* \"#utility.yul\":3089:3110   */\n          tag_205\n            /* \"#utility.yul\":3104:3109   */\n          dup2\n            /* \"#utility.yul\":3089:3110   */\n          tag_146\n          jump\t// in\n        tag_205:\n            /* \"#utility.yul\":3084:3087   */\n          dup3\n            /* \"#utility.yul\":3077:3111   */\n          mstore\n            /* \"#utility.yul\":3008:3117   */\n          pop\n          pop\n          jump\t// out\n            /* \"#utility.yul\":3123:3333   */\n        tag_24:\n            /* \"#utility.yul\":3210:3214   */\n          0x00\n            /* \"#utility.yul\":3248:3250   */\n          0x20\n            /* \"#utility.yul\":3237:3246   */\n          dup3\n            /* \"#utility.yul\":3233:3251   */\n          add\n            /* \"#utility.yul\":3225:3251   */\n          swap1\n          pop\n            /* \"#utility.yul\":3261:3326   */\n          tag_207\n            /* \"#utility.yul\":3323:3324   */\n          0x00\n            /* \"#utility.yul\":3312:3321   */\n          dup4\n            /* \"#utility.yul\":3308:3325   */\n          add\n            /* \"#utility.yul\":3299:3305   */\n          dup5\n            /* \"#utility.yul\":3261:3326   */\n          tag_147\n          jump\t// in\n        tag_207:\n            /* \"#utility.yul\":3123:3333   */\n          swap3\n          swap2\n          pop\n          pop\n          jump\t// out\n            /* \"#utility.yul\":3339:3457   */\n        tag_148:\n            /* \"#utility.yul\":3426:3450   */\n          tag_209\n            /* \"#utility.yul\":3444:3449   */\n          dup2\n            /* \"#utility.yul\":3426:3450   */\n          tag_143\n          jump\t// in\n        tag_209:\n            /* \"#utility.yul\":3421:3424   */\n          dup3\n            /* \"#utility.yul\":3414:3451   */\n          mstore\n            /* \"#utility.yul\":3339:3457   */\n          pop\n          pop\n          jump\t// out\n            /* \"#utility.yul\":3463:3685   */\n        tag_28:\n            /* \"#utility.yul\":3556:3560   */\n          0x00\n            /* \"#utility.yul\":3594:3596   */\n          0x20\n            /* \"#utility.yul\":3583:3592   */\n          dup3\n            /* \"#utility.yul\":3579:3597   */\n          add\n            /* \"#utility.yul\":3571:3597   */\n          swap1\n          pop\n            /* \"#utility.yul\":3607:3678   */\n          tag_211\n            /* \"#utility.yul\":3675:3676   */\n          0x00\n            /* \"#utility.yul\":3664:3673   */\n          dup4\n            /* \"#utility.yul\":3660:3677   */\n          add\n            /* \"#utility.yul\":3651:3657   */\n          dup5\n            /* \"#utility.yul\":3607:3678   */\n          tag_148\n          jump\t// in\n        tag_211:\n            /* \"#utility.yul\":3463:3685   */\n          swap3\n          swap2\n          pop\n          pop\n          jump\t// out\n            /* \"#utility.yul\":3691:4310   */\n        tag_31:\n            /* \"#utility.yul\":3768:3774   */\n          0x00\n            /* \"#utility.yul\":3776:3782   */\n          0x00\n            /* \"#utility.yul\":3784:3790   */\n          0x00\n            /* \"#utility.yul\":3833:3835   */\n          0x60\n            /* \"#utility.yul\":3821:3830   */\n          dup5\n            /* \"#utility.yul\":3812:3819   */\n          dup7\n            /* \"#utility.yul\":3808:3831   */\n          sub\n            /* \"#utility.yul\":3804:3836   */\n          slt\n            /* \"#utility.yul\":3801:3920   */\n          iszero\n          tag_213\n          jumpi\n            /* \"#utility.yul\":3839:3918   */\n          tag_214\n          tag_137\n          jump\t// in\n        tag_214:\n            /* \"#utility.yul\":3801:3920   */\n        tag_213:\n            /* \"#utility.yul\":3959:3960   */\n          0x00\n            /* \"#utility.yul\":3984:4037   */\n          tag_215\n            /* \"#utility.yul\":4029:4036   */\n          dup7\n            /* \"#utility.yul\":4020:4026   */\n          dup3\n            /* \"#utility.yul\":4009:4018   */\n          dup8\n            /* \"#utility.yul\":4005:4027   */\n          add\n            /* \"#utility.yul\":3984:4037   */\n          tag_142\n          jump\t// in\n        tag_215:\n            /* \"#utility.yul\":3974:4037   */\n          swap4\n          pop\n            /* \"#utility.yul\":3930:4047   */\n          pop\n            /* \"#utility.yul\":4086:4088   */\n          0x20\n            /* \"#utility.yul\":4112:4165   */\n          tag_216\n            /* \"#utility.yul\":4157:4164   */\n          dup7\n            /* \"#utility.yul\":4148:4154   */\n          dup3\n            /* \"#utility.yul\":4137:4146   */\n          dup8\n            /* \"#utility.yul\":4133:4155   */\n          add\n            /* \"#utility.yul\":4112:4165   */\n          tag_142\n          jump\t// in\n        tag_216:\n            /* \"#utility.yul\":4102:4165   */\n          swap3\n          pop\n            /* \"#utility.yul\":4057:4175   */\n          pop\n            /* \"#utility.yul\":4214:4216   */\n          0x40\n            /* \"#utility.yul\":4240:4293   */\n          tag_217\n            /* \"#utility.yul\":4285:4292   */\n          dup7\n            /* \"#utility.yul\":4276:4282   */\n          dup3\n            /* \"#utility.yul\":4265:4274   */\n          dup8\n            /* \"#utility.yul\":4261:4283   */\n          add\n            /* \"#utility.yul\":4240:4293   */\n          tag_145\n          jump\t// in\n        tag_217:\n            /* \"#utility.yul\":4230:4293   */\n          swap2\n          pop\n            /* \"#utility.yul\":4185:4303   */\n          pop\n            /* \"#utility.yul\":3691:4310   */\n          swap3\n          pop\n          swap3\n          pop\n          swap3\n          jump\t// out\n            /* \"#utility.yul\":4316:4402   */\n        tag_149:\n            /* \"#utility.yul\":4351:4358   */\n          0x00\n            /* \"#utility.yul\":4391:4395   */\n          0xff\n            /* \"#utility.yul\":4384:4389   */\n          dup3\n            /* \"#utility.yul\":4380:4396   */\n          and\n            /* \"#utility.yul\":4369:4396   */\n          swap1\n          pop\n            /* \"#utility.yul\":4316:4402   */\n          swap2\n          swap1\n          pop\n          jump\t// out\n            /* \"#utility.yul\":4408:4520   */\n        tag_150:\n            /* \"#utility.yul\":4491:4513   */\n          tag_220\n            /* \"#utility.yul\":4507:4512   */\n          dup2\n            /* \"#utility.yul\":4491:4513   */\n          tag_149\n          jump\t// in\n        tag_220:\n            /* \"#utility.yul\":4486:4489   */\n          dup3\n            /* \"#utility.yul\":4479:4514   */\n          mstore\n            /* \"#utility.yul\":4408:4520   */\n          pop\n          pop\n          jump\t// out\n            /* \"#utility.yul\":4526:4740   */\n        tag_37:\n            /* \"#utility.yul\":4615:4619   */\n          0x00\n            /* \"#utility.yul\":4653:4655   */\n          0x20\n            /* \"#utility.yul\":4642:4651   */\n          dup3\n            /* \"#utility.yul\":4638:4656   */\n          add\n            /* \"#utility.yul\":4630:4656   */\n          swap1\n          pop\n            /* \"#utility.yul\":4666:4733   */\n          tag_222\n            /* \"#utility.yul\":4730:4731   */\n          0x00\n            /* \"#utility.yul\":4719:4728   */\n          dup4\n            /* \"#utility.yul\":4715:4732   */\n          add\n            /* \"#utility.yul\":4706:4712   */\n          dup5\n            /* \"#utility.yul\":4666:4733   */\n          tag_150\n          jump\t// in\n        tag_222:\n            /* \"#utility.yul\":4526:4740   */\n          swap3\n          swap2\n          pop\n          pop\n          jump\t// out\n            /* \"#utility.yul\":4746:5075   */\n        tag_43:\n            /* \"#utility.yul\":4805:4811   */\n          0x00\n            /* \"#utility.yul\":4854:4856   */\n          0x20\n            /* \"#utility.yul\":4842:4851   */\n          dup3\n            /* \"#utility.yul\":4833:4840   */\n          dup5\n            /* \"#utility.yul\":4829:4852   */\n          sub\n            /* \"#utility.yul\":4825:4857   */\n          slt\n            /* \"#utility.yul\":4822:4941   */\n          iszero\n          tag_224\n          jumpi\n            /* \"#utility.yul\":4860:4939   */\n          tag_225\n          tag_137\n          jump\t// in\n        tag_225:\n            /* \"#utility.yul\":4822:4941   */\n        tag_224:\n            /* \"#utility.yul\":4980:4981   */\n          0x00\n            /* \"#utility.yul\":5005:5058   */\n          tag_226\n            /* \"#utility.yul\":5050:5057   */\n          dup5\n            /* \"#utility.yul\":5041:5047   */\n          dup3\n            /* \"#utility.yul\":5030:5039   */\n          dup6\n            /* \"#utility.yul\":5026:5048   */\n          add\n            /* \"#utility.yul\":5005:5058   */\n          tag_142\n          jump\t// in\n        tag_226:\n            /* \"#utility.yul\":4995:5058   */\n          swap2\n          pop\n            /* \"#utility.yul\":4951:5068   */\n          pop\n            /* \"#utility.yul\":4746:5075   */\n          swap3\n          swap2\n          pop\n          pop\n          jump\t// out\n            /* \"#utility.yul\":5081:5555   */\n        tag_58:\n            /* \"#utility.yul\":5149:5155   */\n          0x00\n            /* \"#utility.yul\":5157:5163   */\n          0x00\n            /* \"#utility.yul\":5206:5208   */\n          0x40\n            /* \"#utility.yul\":5194:5203   */\n          dup4\n            /* \"#utility.yul\":5185:5192   */\n          dup6\n            /* \"#utility.yul\":5181:5204   */\n          sub\n            /* \"#utility.yul\":5177:5209   */\n          slt\n            /* \"#utility.yul\":5174:5293   */\n          iszero\n          tag_228\n          jumpi\n            /* \"#utility.yul\":5212:5291   */\n          tag_229\n          tag_137\n          jump\t// in\n        tag_229:\n            /* \"#utility.yul\":5174:5293   */\n        tag_228:\n            /* \"#utility.yul\":5332:5333   */\n          0x00\n            /* \"#utility.yul\":5357:5410   */\n          tag_230\n            /* \"#utility.yul\":5402:5409   */\n          dup6\n            /* \"#utility.yul\":5393:5399   */\n          dup3\n            /* \"#utility.yul\":5382:5391   */\n          dup7\n            /* \"#utility.yul\":5378:5400   */\n          add\n            /* \"#utility.yul\":5357:5410   */\n          tag_142\n          jump\t// in\n        tag_230:\n            /* \"#utility.yul\":5347:5410   */\n          swap3\n          pop\n            /* \"#utility.yul\":5303:5420   */\n          pop\n            /* \"#utility.yul\":5459:5461   */\n          0x20\n            /* \"#utility.yul\":5485:5538   */\n          tag_231\n            /* \"#utility.yul\":5530:5537   */\n          dup6\n            /* \"#utility.yul\":5521:5527   */\n          dup3\n            /* \"#utility.yul\":5510:5519   */\n          dup7\n            /* \"#utility.yul\":5506:5528   */\n          add\n            /* \"#utility.yul\":5485:5538   */\n          tag_142\n          jump\t// in\n        tag_231:\n            /* \"#utility.yul\":5475:5538   */\n          swap2\n          pop\n            /* \"#utility.yul\":5430:5548   */\n          pop\n            /* \"#utility.yul\":5081:5555   */\n          swap3\n          pop\n          swap3\n          swap1\n          pop\n          jump\t// out\n            /* \"#utility.yul\":5561:5741   */\n        tag_151:\n            /* \"#utility.yul\":5609:5686   */\n          0x4e487b7100000000000000000000000000000000000000000000000000000000\n            /* \"#utility.yul\":5606:5607   */\n          0x00\n            /* \"#utility.yul\":5599:5687   */\n          mstore\n            /* \"#utility.yul\":5706:5710   */\n          0x22\n            /* \"#utility.yul\":5703:5704   */\n          0x04\n            /* \"#utility.yul\":5696:5711   */\n          mstore\n            /* \"#utility.yul\":5730:5734   */\n          0x24\n            /* \"#utility.yul\":5727:5728   */\n          0x00\n            /* \"#utility.yul\":5720:5735   */\n          revert\n            /* \"#utility.yul\":5747:6067   */\n        tag_63:\n            /* \"#utility.yul\":5791:5797   */\n          0x00\n            /* \"#utility.yul\":5828:5829   */\n          0x02\n            /* \"#utility.yul\":5822:5826   */\n          dup3\n            /* \"#utility.yul\":5818:5830   */\n          div\n            /* \"#utility.yul\":5808:5830   */\n          swap1\n          pop\n            /* \"#utility.yul\":5875:5876   */\n          0x01\n            /* \"#utility.yul\":5869:5873   */\n          dup3\n            /* \"#utility.yul\":5865:5877   */\n          and\n            /* \"#utility.yul\":5896:5914   */\n          dup1\n            /* \"#utility.yul\":5886:5967   */\n          tag_234\n          jumpi\n            /* \"#utility.yul\":5952:5956   */\n          0x7f\n            /* \"#utility.yul\":5944:5950   */\n          dup3\n            /* \"#utility.yul\":5940:5957   */\n          and\n            /* \"#utility.yul\":5930:5957   */\n          swap2\n          pop\n            /* \"#utility.yul\":5886:5967   */\n        tag_234:\n            /* \"#utility.yul\":6014:6016   */\n          0x20\n            /* \"#utility.yul\":6006:6012   */\n          dup3\n            /* \"#utility.yul\":6003:6017   */\n          lt\n            /* \"#utility.yul\":5983:6001   */\n          dup2\n            /* \"#utility.yul\":5980:6018   */\n          sub\n            /* \"#utility.yul\":5977:6061   */\n          tag_235\n          jumpi\n            /* \"#utility.yul\":6033:6051   */\n          tag_236\n          tag_151\n          jump\t// in\n        tag_236:\n            /* \"#utility.yul\":5977:6061   */\n        tag_235:\n            /* \"#utility.yul\":5798:6067   */\n          pop\n            /* \"#utility.yul\":5747:6067   */\n          swap2\n          swap1\n          pop\n          jump\t// out\n            /* \"#utility.yul\":6073:6294   */\n        tag_152:\n            /* \"#utility.yul\":6213:6247   */\n          0x45524332303a20617070726f766520746f20746865207a65726f206164647265\n            /* \"#utility.yul\":6209:6210   */\n          0x00\n            /* \"#utility.yul\":6201:6207   */\n          dup3\n            /* \"#utility.yul\":6197:6211   */\n          add\n            /* \"#utility.yul\":6190:6248   */\n          mstore\n            /* \"#utility.yul\":6282:6286   */\n          0x7373000000000000000000000000000000000000000000000000000000000000\n            /* \"#utility.yul\":6277:6279   */\n          0x20\n            /* \"#utility.yul\":6269:6275   */\n          dup3\n            /* \"#utility.yul\":6265:6280   */\n          add\n            /* \"#utility.yul\":6258:6287   */\n          mstore\n            /* \"#utility.yul\":6073:6294   */\n          pop\n          jump\t// out\n            /* \"#utility.yul\":6300:6666   */\n        tag_153:\n            /* \"#utility.yul\":6442:6445   */\n          0x00\n            /* \"#utility.yul\":6463:6530   */\n          tag_239\n            /* \"#utility.yul\":6527:6529   */\n          0x22\n            /* \"#utility.yul\":6522:6525   */\n          dup4\n            /* \"#utility.yul\":6463:6530   */\n          tag_132\n          jump\t// in\n        tag_239:\n            /* \"#utility.yul\":6456:6530   */\n          swap2\n          pop\n            /* \"#utility.yul\":6539:6632   */\n          tag_240\n            /* \"#utility.yul\":6628:6631   */\n          dup3\n            /* \"#utility.yul\":6539:6632   */\n          tag_152\n          jump\t// in\n        tag_240:\n            /* \"#utility.yul\":6657:6659   */\n          0x40\n            /* \"#utility.yul\":6652:6655   */\n          dup3\n            /* \"#utility.yul\":6648:6660   */\n          add\n            /* \"#utility.yul\":6641:6660   */\n          swap1\n          pop\n            /* \"#utility.yul\":6300:6666   */\n          swap2\n          swap1\n          pop\n          jump\t// out\n            /* \"#utility.yul\":6672:7091   */\n        tag_71:\n            /* \"#utility.yul\":6838:6842   */\n          0x00\n            /* \"#utility.yul\":6876:6878   */\n          0x20\n            /* \"#utility.yul\":6865:6874   */\n          dup3\n            /* \"#utility.yul\":6861:6879   */\n          add\n            /* \"#utility.yul\":6853:6879   */\n          swap1\n          pop\n            /* \"#utility.yul\":6925:6934   */\n          dup2\n            /* \"#utility.yul\":6919:6923   */\n          dup2\n            /* \"#utility.yul\":6915:6935   */\n          sub\n            /* \"#utility.yul\":6911:6912   */\n          0x00\n            /* \"#utility.yul\":6900:6909   */\n          dup4\n            /* \"#utility.yul\":6896:6913   */\n          add\n            /* \"#utility.yul\":6889:6936   */\n          mstore\n            /* \"#utility.yul\":6953:7084   */\n          tag_242\n            /* \"#utility.yul\":7079:7083   */\n          dup2\n            /* \"#utility.yul\":6953:7084   */\n          tag_153\n          jump\t// in\n        tag_242:\n            /* \"#utility.yul\":6945:7084   */\n          swap1\n          pop\n            /* \"#utility.yul\":6672:7091   */\n          swap2\n          swap1\n          pop\n          jump\t// out\n            /* \"#utility.yul\":7097:7276   */\n        tag_154:\n            /* \"#utility.yul\":7237:7268   */\n          0x45524332303a20696e73756666696369656e7420616c6c6f77616e6365000000\n            /* \"#utility.yul\":7233:7234   */\n          0x00\n            /* \"#utility.yul\":7225:7231   */\n          dup3\n            /* \"#utility.yul\":7221:7235   */\n          add\n            /* \"#utility.yul\":7214:7269   */\n          mstore\n            /* \"#utility.yul\":7097:7276   */\n          pop\n          jump\t// out\n            /* \"#utility.yul\":7282:7648   */\n        tag_155:\n            /* \"#utility.yul\":7424:7427   */\n          0x00\n            /* \"#utility.yul\":7445:7512   */\n          tag_245\n            /* \"#utility.yul\":7509:7511   */\n          0x1d\n            /* \"#utility.yul\":7504:7507   */\n          dup4\n            /* \"#utility.yul\":7445:7512   */\n          tag_132\n          jump\t// in\n        tag_245:\n            /* \"#utility.yul\":7438:7512   */\n          swap2\n          pop\n            /* \"#utility.yul\":7521:7614   */\n          tag_246\n            /* \"#utility.yul\":7610:7613   */\n          dup3\n            /* \"#utility.yul\":7521:7614   */\n          tag_154\n          jump\t// in\n        tag_246:\n            /* \"#utility.yul\":7639:7641   */\n          0x20\n            /* \"#utility.yul\":7634:7637   */\n          dup3\n            /* \"#utility.yul\":7630:7642   */\n          add\n            /* \"#utility.yul\":7623:7642   */\n          swap1\n          pop\n            /* \"#utility.yul\":7282:7648   */\n          swap2\n          swap1\n          pop\n          jump\t// out\n            /* \"#utility.yul\":7654:8073   */\n        tag_77:\n            /* \"#utility.yul\":7820:7824   */\n          0x00\n            /* \"#utility.yul\":7858:7860   */\n          0x20\n            /* \"#utility.yul\":7847:7856   */\n          dup3\n            /* \"#utility.yul\":7843:7861   */\n          add\n            /* \"#utility.yul\":7835:7861   */\n          swap1\n          pop\n            /* \"#utility.yul\":7907:7916   */\n          dup2\n            /* \"#utility.yul\":7901:7905   */\n          dup2\n            /* \"#utility.yul\":7897:7917   */\n          sub\n            /* \"#utility.yul\":7893:7894   */\n          0x00\n            /* \"#utility.yul\":7882:7891   */\n          dup4\n            /* \"#utility.yul\":7878:7895   */\n          add\n            /* \"#utility.yul\":7871:7918   */\n          mstore\n            /* \"#utility.yul\":7935:8066   */\n          tag_248\n            /* \"#utility.yul\":8061:8065   */\n          dup2\n            /* \"#utility.yul\":7935:8066   */\n          tag_155\n          jump\t// in\n        tag_248:\n            /* \"#utility.yul\":7927:8066   */\n          swap1\n          pop\n            /* \"#utility.yul\":7654:8073   */\n          swap2\n          swap1\n          pop\n          jump\t// out\n            /* \"#utility.yul\":8079:8259   */\n        tag_156:\n            /* \"#utility.yul\":8127:8204   */\n          0x4e487b7100000000000000000000000000000000000000000000000000000000\n            /* \"#utility.yul\":8124:8125   */\n          0x00\n            /* \"#utility.yul\":8117:8205   */\n          mstore\n            /* \"#utility.yul\":8224:8228   */\n          0x11\n            /* \"#utility.yul\":8221:8222   */\n          0x04\n            /* \"#utility.yul\":8214:8229   */\n          mstore\n            /* \"#utility.yul\":8248:8252   */\n          0x24\n            /* \"#utility.yul\":8245:8246   */\n          0x00\n            /* \"#utility.yul\":8238:8253   */\n          revert\n            /* \"#utility.yul\":8265:8459   */\n        tag_79:\n            /* \"#utility.yul\":8305:8309   */\n          0x00\n            /* \"#utility.yul\":8325:8345   */\n          tag_251\n            /* \"#utility.yul\":8343:8344   */\n          dup3\n            /* \"#utility.yul\":8325:8345   */\n          tag_143\n          jump\t// in\n        tag_251:\n            /* \"#utility.yul\":8320:8345   */\n          swap2\n          pop\n            /* \"#utility.yul\":8359:8379   */\n          tag_252\n            /* \"#utility.yul\":8377:8378   */\n          dup4\n            /* \"#utility.yul\":8359:8379   */\n          tag_143\n          jump\t// in\n        tag_252:\n            /* \"#utility.yul\":8354:8379   */\n          swap3\n          pop\n            /* \"#utility.yul\":8403:8404   */\n          dup3\n            /* \"#utility.yul\":8400:8401   */\n          dup3\n            /* \"#utility.yul\":8396:8405   */\n          sub\n            /* \"#utility.yul\":8388:8405   */\n          swap1\n          pop\n            /* \"#utility.yul\":8427:8428   */\n          dup2\n            /* \"#utility.yul\":8421:8425   */\n          dup2\n            /* \"#utility.yul\":8418:8429   */\n          gt\n            /* \"#utility.yul\":8415:8452   */\n          iszero\n          tag_253\n          jumpi\n            /* \"#utility.yul\":8432:8450   */\n          tag_254\n          tag_156\n          jump\t// in\n        tag_254:\n            /* \"#utility.yul\":8415:8452   */\n        tag_253:\n            /* \"#utility.yul\":8265:8459   */\n          swap3\n          swap2\n          pop\n          pop\n          jump\t// out\n            /* \"#utility.yul\":8465:8689   */\n        tag_157:\n            /* \"#utility.yul\":8605:8639   */\n          0x45524332303a207472616e736665722066726f6d20746865207a65726f206164\n            /* \"#utility.yul\":8601:8602   */\n          0x00\n            /* \"#utility.yul\":8593:8599   */\n          dup3\n            /* \"#utility.yul\":8589:8603   */\n          add\n            /* \"#utility.yul\":8582:8640   */\n          mstore\n            /* \"#utility.yul\":8674:8681   */\n          0x6472657373000000000000000000000000000000000000000000000000000000\n            /* \"#utility.yul\":8669:8671   */\n          0x20\n            /* \"#utility.yul\":8661:8667   */\n          dup3\n            /* \"#utility.yul\":8657:8672   */\n          add\n            /* \"#utility.yul\":8650:8682   */\n          mstore\n            /* \"#utility.yul\":8465:8689   */\n          pop\n          jump\t// out\n            /* \"#utility.yul\":8695:9061   */\n        tag_158:\n            /* \"#utility.yul\":8837:8840   */\n          0x00\n            /* \"#utility.yul\":8858:8925   */\n          tag_257\n            /* \"#utility.yul\":8922:8924   */\n          0x25\n            /* \"#utility.yul\":8917:8920   */\n          dup4\n            /* \"#utility.yul\":8858:8925   */\n          tag_132\n          jump\t// in\n        tag_257:\n            /* \"#utility.yul\":8851:8925   */\n          swap2\n          pop\n            /* \"#utility.yul\":8934:9027   */\n          tag_258\n            /* \"#utility.yul\":9023:9026   */\n          dup3\n            /* \"#utility.yul\":8934:9027   */\n          tag_157\n          jump\t// in\n        tag_258:\n            /* \"#utility.yul\":9052:9054   */\n          0x40\n            /* \"#utility.yul\":9047:9050   */\n          dup3\n            /* \"#utility.yul\":9043:9055   */\n          add\n            /* \"#utility.yul\":9036:9055   */\n          swap1\n          pop\n            /* \"#utility.yul\":8695:9061   */\n          swap2\n          swap1\n          pop\n          jump\t// out\n            /* \"#utility.yul\":9067:9486   */\n        tag_103:\n            /* \"#utility.yul\":9233:9237   */\n          0x00\n            /* \"#utility.yul\":9271:9273   */\n          0x20\n            /* \"#utility.yul\":9260:9269   */\n          dup3\n            /* \"#utility.yul\":9256:9274   */\n          add\n            /* \"#utility.yul\":9248:9274   */\n          swap1\n          pop\n            /* \"#utility.yul\":9320:9329   */\n          dup2\n            /* \"#utility.yul\":9314:9318   */\n          dup2\n            /* \"#utility.yul\":9310:9330   */\n          sub\n            /* \"#utility.yul\":9306:9307   */\n          0x00\n            /* \"#utility.yul\":9295:9304   */\n          dup4\n            /* \"#utility.yul\":9291:9308   */\n          add\n            /* \"#utility.yul\":9284:9331   */\n          mstore\n            /* \"#utility.yul\":9348:9479   */\n          tag_260\n            /* \"#utility.yul\":9474:9478   */\n          dup2\n            /* \"#utility.yul\":9348:9479   */\n          tag_158\n          jump\t// in\n        tag_260:\n            /* \"#utility.yul\":9340:9479   */\n          swap1\n          pop\n            /* \"#utility.yul\":9067:9486   */\n          swap2\n          swap1\n          pop\n          jump\t// out\n            /* \"#utility.yul\":9492:9714   */\n        tag_159:\n            /* \"#utility.yul\":9632:9666   */\n          0x45524332303a207472616e7366657220746f20746865207a65726f2061646472\n            /* \"#utility.yul\":9628:9629   */\n          0x00\n            /* \"#utility.yul\":9620:9626   */\n          dup3\n            /* \"#utility.yul\":9616:9630   */\n          add\n            /* \"#utility.yul\":9609:9667   */\n          mstore\n            /* \"#utility.yul\":9701:9706   */\n          0x6573730000000000000000000000000000000000000000000000000000000000\n            /* \"#utility.yul\":9696:9698   */\n          0x20\n            /* \"#utility.yul\":9688:9694   */\n          dup3\n            /* \"#utility.yul\":9684:9699   */\n          add\n            /* \"#utility.yul\":9677:9707   */\n          mstore\n            /* \"#utility.yul\":9492:9714   */\n          pop\n          jump\t// out\n            /* \"#utility.yul\":9720:10086   */\n        tag_160:\n            /* \"#utility.yul\":9862:9865   */\n          0x00\n            /* \"#utility.yul\":9883:9950   */\n          tag_263\n            /* \"#utility.yul\":9947:9949   */\n          0x23\n            /* \"#utility.yul\":9942:9945   */\n          dup4\n            /* \"#utility.yul\":9883:9950   */\n          tag_132\n          jump\t// in\n        tag_263:\n            /* \"#utility.yul\":9876:9950   */\n          swap2\n          pop\n            /* \"#utility.yul\":9959:10052   */\n          tag_264\n            /* \"#utility.yul\":10048:10051   */\n          dup3\n            /* \"#utility.yul\":9959:10052   */\n          tag_159\n          jump\t// in\n        tag_264:\n            /* \"#utility.yul\":10077:10079   */\n          0x40\n            /* \"#utility.yul\":10072:10075   */\n          dup3\n            /* \"#utility.yul\":10068:10080   */\n          add\n            /* \"#utility.yul\":10061:10080   */\n          swap1\n          pop\n            /* \"#utility.yul\":9720:10086   */\n          swap2\n          swap1\n          pop\n          jump\t// out\n            /* \"#utility.yul\":10092:10511   */\n        tag_106:\n            /* \"#utility.yul\":10258:10262   */\n          0x00\n            /* \"#utility.yul\":10296:10298   */\n          0x20\n            /* \"#utility.yul\":10285:10294   */\n          dup3\n            /* \"#utility.yul\":10281:10299   */\n          add\n            /* \"#utility.yul\":10273:10299   */\n          swap1\n          pop\n            /* \"#utility.yul\":10345:10354   */\n          dup2\n            /* \"#utility.yul\":10339:10343   */\n          dup2\n            /* \"#utility.yul\":10335:10355   */\n          sub\n            /* \"#utility.yul\":10331:10332   */\n          0x00\n            /* \"#utility.yul\":10320:10329   */\n          dup4\n            /* \"#utility.yul\":10316:10333   */\n          add\n            /* \"#utility.yul\":10309:10356   */\n          mstore\n            /* \"#utility.yul\":10373:10504   */\n          tag_266\n            /* \"#utility.yul\":10499:10503   */\n          dup2\n            /* \"#utility.yul\":10373:10504   */\n          tag_160\n          jump\t// in\n        tag_266:\n            /* \"#utility.yul\":10365:10504   */\n          swap1\n          pop\n            /* \"#utility.yul\":10092:10511   */\n          swap2\n          swap1\n          pop\n          jump\t// out\n            /* \"#utility.yul\":10517:10742   */\n        tag_161:\n            /* \"#utility.yul\":10657:10691   */\n          0x45524332303a207472616e7366657220616d6f756e7420657863656564732062\n            /* \"#utility.yul\":10653:10654   */\n          0x00\n            /* \"#utility.yul\":10645:10651   */\n          dup3\n            /* \"#utility.yul\":10641:10655   */\n          add\n            /* \"#utility.yul\":10634:10692   */\n          mstore\n            /* \"#utility.yul\":10726:10734   */\n          0x616c616e63650000000000000000000000000000000000000000000000000000\n            /* \"#utility.yul\":10721:10723   */\n          0x20\n            /* \"#utility.yul\":10713:10719   */\n          dup3\n            /* \"#utility.yul\":10709:10724   */\n          add\n            /* \"#utility.yul\":10702:10735   */\n          mstore\n            /* \"#utility.yul\":10517:10742   */\n          pop\n          jump\t// out\n            /* \"#utility.yul\":10748:11114   */\n        tag_162:\n            /* \"#utility.yul\":10890:10893   */\n          0x00\n            /* \"#utility.yul\":10911:10978   */\n          tag_269\n            /* \"#utility.yul\":10975:10977   */\n          0x26\n            /* \"#utility.yul\":10970:10973   */\n          dup4\n            /* \"#utility.yul\":10911:10978   */\n          tag_132\n          jump\t// in\n        tag_269:\n            /* \"#utility.yul\":10904:10978   */\n          swap2\n          pop\n            /* \"#utility.yul\":10987:11080   */\n          tag_270\n            /* \"#utility.yul\":11076:11079   */\n          dup3\n            /* \"#utility.yul\":10987:11080   */\n          tag_161\n          jump\t// in\n        tag_270:\n            /* \"#utility.yul\":11105:11107   */\n          0x40\n            /* \"#utility.yul\":11100:11103   */\n          dup3\n            /* \"#utility.yul\":11096:11108   */\n          add\n            /* \"#utility.yul\":11089:11108   */\n          swap1\n          pop\n            /* \"#utility.yul\":10748:11114   */\n          swap2\n          swap1\n          pop\n          jump\t// out\n            /* \"#utility.yul\":11120:11539   */\n        tag_109:\n            /* \"#utility.yul\":11286:11290   */\n          0x00\n            /* \"#utility.yul\":11324:11326   */\n          0x20\n            /* \"#utility.yul\":11313:11322   */\n          dup3\n            /* \"#utility.yul\":11309:11327   */\n          add\n            /* \"#utility.yul\":11301:11327   */\n          swap1\n          pop\n            /* \"#utility.yul\":11373:11382   */\n          dup2\n            /* \"#utility.yul\":11367:11371   */\n          dup2\n            /* \"#utility.yul\":11363:11383   */\n          sub\n            /* \"#utility.yul\":11359:11360   */\n          0x00\n            /* \"#utility.yul\":11348:11357   */\n          dup4\n            /* \"#utility.yul\":11344:11361   */\n          add\n            /* \"#utility.yul\":11337:11384   */\n          mstore\n            /* \"#utility.yul\":11401:11532   */\n          tag_272\n            /* \"#utility.yul\":11527:11531   */\n          dup2\n            /* \"#utility.yul\":11401:11532   */\n          tag_162\n          jump\t// in\n        tag_272:\n            /* \"#utility.yul\":11393:11532   */\n          swap1\n          pop\n            /* \"#utility.yul\":11120:11539   */\n          swap2\n          swap1\n          pop\n          jump\t// out\n            /* \"#utility.yul\":11545:11736   */\n        tag_112:\n            /* \"#utility.yul\":11585:11588   */\n          0x00\n            /* \"#utility.yul\":11604:11624   */\n          tag_274\n            /* \"#utility.yul\":11622:11623   */\n          dup3\n            /* \"#utility.yul\":11604:11624   */\n          tag_143\n          jump\t// in\n        tag_274:\n            /* \"#utility.yul\":11599:11624   */\n          swap2\n          pop\n            /* \"#utility.yul\":11638:11658   */\n          tag_275\n            /* \"#utility.yul\":11656:11657   */\n          dup4\n            /* \"#utility.yul\":11638:11658   */\n          tag_143\n          jump\t// in\n        tag_275:\n            /* \"#utility.yul\":11633:11658   */\n          swap3\n          pop\n            /* \"#utility.yul\":11681:11682   */\n          dup3\n            /* \"#utility.yul\":11678:11679   */\n          dup3\n            /* \"#utility.yul\":11674:11683   */\n          add\n            /* \"#utility.yul\":11667:11683   */\n          swap1\n          pop\n            /* \"#utility.yul\":11702:11705   */\n          dup1\n            /* \"#utility.yul\":11699:11700   */\n          dup3\n            /* \"#utility.yul\":11696:11706   */\n          gt\n            /* \"#utility.yul\":11693:11729   */\n          iszero\n          tag_276\n          jumpi\n            /* \"#utility.yul\":11709:11727   */\n          tag_277\n          tag_156\n          jump\t// in\n        tag_277:\n            /* \"#utility.yul\":11693:11729   */\n        tag_276:\n            /* \"#utility.yul\":11545:11736   */\n          swap3\n          swap2\n          pop\n          pop\n          jump\t// out\n            /* \"#utility.yul\":11742:11923   */\n        tag_163:\n            /* \"#utility.yul\":11882:11915   */\n          0x45524332303a206d696e7420746f20746865207a65726f206164647265737300\n            /* \"#utility.yul\":11878:11879   */\n          0x00\n            /* \"#utility.yul\":11870:11876   */\n          dup3\n            /* \"#utility.yul\":11866:11880   */\n          add\n            /* \"#utility.yul\":11859:11916   */\n          mstore\n            /* \"#utility.yul\":11742:11923   */\n          pop\n          jump\t// out\n            /* \"#utility.yul\":11929:12295   */\n        tag_164:\n            /* \"#utility.yul\":12071:12074   */\n          0x00\n            /* \"#utility.yul\":12092:12159   */\n          tag_280\n            /* \"#utility.yul\":12156:12158   */\n          0x1f\n            /* \"#utility.yul\":12151:12154   */\n          dup4\n            /* \"#utility.yul\":12092:12159   */\n          tag_132\n          jump\t// in\n        tag_280:\n            /* \"#utility.yul\":12085:12159   */\n          swap2\n          pop\n            /* \"#utility.yul\":12168:12261   */\n          tag_281\n            /* \"#utility.yul\":12257:12260   */\n          dup3\n            /* \"#utility.yul\":12168:12261   */\n          tag_163\n          jump\t// in\n        tag_281:\n            /* \"#utility.yul\":12286:12288   */\n          0x20\n            /* \"#utility.yul\":12281:12284   */\n          dup3\n            /* \"#utility.yul\":12277:12289   */\n          add\n            /* \"#utility.yul\":12270:12289   */\n          swap1\n          pop\n            /* \"#utility.yul\":11929:12295   */\n          swap2\n          swap1\n          pop\n          jump\t// out\n            /* \"#utility.yul\":12301:12720   */\n        tag_117:\n            /* \"#utility.yul\":12467:12471   */\n          0x00\n            /* \"#utility.yul\":12505:12507   */\n          0x20\n            /* \"#utility.yul\":12494:12503   */\n          dup3\n            /* \"#utility.yul\":12490:12508   */\n          add\n            /* \"#utility.yul\":12482:12508   */\n          swap1\n          pop\n            /* \"#utility.yul\":12554:12563   */\n          dup2\n            /* \"#utility.yul\":12548:12552   */\n          dup2\n            /* \"#utility.yul\":12544:12564   */\n          sub\n            /* \"#utility.yul\":12540:12541   */\n          0x00\n            /* \"#utility.yul\":12529:12538   */\n          dup4\n            /* \"#utility.yul\":12525:12542   */\n          add\n            /* \"#utility.yul\":12518:12565   */\n          mstore\n            /* \"#utility.yul\":12582:12713   */\n          tag_283\n            /* \"#utility.yul\":12708:12712   */\n          dup2\n            /* \"#utility.yul\":12582:12713   */\n          tag_164\n          jump\t// in\n        tag_283:\n            /* \"#utility.yul\":12574:12713   */\n          swap1\n          pop\n            /* \"#utility.yul\":12301:12720   */\n          swap2\n          swap1\n          pop\n          jump\t// out\n            /* \"#utility.yul\":12726:12890   */\n        tag_165:\n            /* \"#utility.yul\":12866:12882   */\n          0x4e6f206861792061646472657373000000000000000000000000000000000000\n            /* \"#utility.yul\":12862:12863   */\n          0x00\n            /* \"#utility.yul\":12854:12860   */\n          dup3\n            /* \"#utility.yul\":12850:12864   */\n          add\n            /* \"#utility.yul\":12843:12883   */\n          mstore\n            /* \"#utility.yul\":12726:12890   */\n          pop\n          jump\t// out\n            /* \"#utility.yul\":12896:13262   */\n        tag_166:\n            /* \"#utility.yul\":13038:13041   */\n          0x00\n            /* \"#utility.yul\":13059:13126   */\n          tag_286\n            /* \"#utility.yul\":13123:13125   */\n          0x0e\n            /* \"#utility.yul\":13118:13121   */\n          dup4\n            /* \"#utility.yul\":13059:13126   */\n          tag_132\n          jump\t// in\n        tag_286:\n            /* \"#utility.yul\":13052:13126   */\n          swap2\n          pop\n            /* \"#utility.yul\":13135:13228   */\n          tag_287\n            /* \"#utility.yul\":13224:13227   */\n          dup3\n            /* \"#utility.yul\":13135:13228   */\n          tag_165\n          jump\t// in\n        tag_287:\n            /* \"#utility.yul\":13253:13255   */\n          0x20\n            /* \"#utility.yul\":13248:13251   */\n          dup3\n            /* \"#utility.yul\":13244:13256   */\n          add\n            /* \"#utility.yul\":13237:13256   */\n          swap1\n          pop\n            /* \"#utility.yul\":12896:13262   */\n          swap2\n          swap1\n          pop\n          jump\t// out\n            /* \"#utility.yul\":13268:13687   */\n        tag_124:\n            /* \"#utility.yul\":13434:13438   */\n          0x00\n            /* \"#utility.yul\":13472:13474   */\n          0x20\n            /* \"#utility.yul\":13461:13470   */\n          dup3\n            /* \"#utility.yul\":13457:13475   */\n          add\n            /* \"#utility.yul\":13449:13475   */\n          swap1\n          pop\n            /* \"#utility.yul\":13521:13530   */\n          dup2\n            /* \"#utility.yul\":13515:13519   */\n          dup2\n            /* \"#utility.yul\":13511:13531   */\n          sub\n            /* \"#utility.yul\":13507:13508   */\n          0x00\n            /* \"#utility.yul\":13496:13505   */\n          dup4\n            /* \"#utility.yul\":13492:13509   */\n          add\n            /* \"#utility.yul\":13485:13532   */\n          mstore\n            /* \"#utility.yul\":13549:13680   */\n          tag_289\n            /* \"#utility.yul\":13675:13679   */\n          dup2\n            /* \"#utility.yul\":13549:13680   */\n          tag_166\n          jump\t// in\n        tag_289:\n            /* \"#utility.yul\":13541:13680   */\n          swap1\n          pop\n            /* \"#utility.yul\":13268:13687   */\n          swap2\n          swap1\n          pop\n          jump\t// out\n            /* \"#utility.yul\":13693:13869   */\n        tag_167:\n            /* \"#utility.yul\":13833:13861   */\n          0x4e6f2068617920737566696369656e74657320746f6b656e732e000000000000\n            /* \"#utility.yul\":13829:13830   */\n          0x00\n            /* \"#utility.yul\":13821:13827   */\n          dup3\n            /* \"#utility.yul\":13817:13831   */\n          add\n            /* \"#utility.yul\":13810:13862   */\n          mstore\n            /* \"#utility.yul\":13693:13869   */\n          pop\n          jump\t// out\n            /* \"#utility.yul\":13875:14241   */\n        tag_168:\n            /* \"#utility.yul\":14017:14020   */\n          0x00\n            /* \"#utility.yul\":14038:14105   */\n          tag_292\n            /* \"#utility.yul\":14102:14104   */\n          0x1a\n            /* \"#utility.yul\":14097:14100   */\n          dup4\n            /* \"#utility.yul\":14038:14105   */\n          tag_132\n          jump\t// in\n        tag_292:\n            /* \"#utility.yul\":14031:14105   */\n          swap2\n          pop\n            /* \"#utility.yul\":14114:14207   */\n          tag_293\n            /* \"#utility.yul\":14203:14206   */\n          dup3\n            /* \"#utility.yul\":14114:14207   */\n          tag_167\n          jump\t// in\n        tag_293:\n            /* \"#utility.yul\":14232:14234   */\n          0x20\n            /* \"#utility.yul\":14227:14230   */\n          dup3\n            /* \"#utility.yul\":14223:14235   */\n          add\n            /* \"#utility.yul\":14216:14235   */\n          swap1\n          pop\n            /* \"#utility.yul\":13875:14241   */\n          swap2\n          swap1\n          pop\n          jump\t// out\n            /* \"#utility.yul\":14247:14666   */\n        tag_127:\n            /* \"#utility.yul\":14413:14417   */\n          0x00\n            /* \"#utility.yul\":14451:14453   */\n          0x20\n            /* \"#utility.yul\":14440:14449   */\n          dup3\n            /* \"#utility.yul\":14436:14454   */\n          add\n            /* \"#utility.yul\":14428:14454   */\n          swap1\n          pop\n            /* \"#utility.yul\":14500:14509   */\n          dup2\n            /* \"#utility.yul\":14494:14498   */\n          dup2\n            /* \"#utility.yul\":14490:14510   */\n          sub\n            /* \"#utility.yul\":14486:14487   */\n          0x00\n            /* \"#utility.yul\":14475:14484   */\n          dup4\n            /* \"#utility.yul\":14471:14488   */\n          add\n            /* \"#utility.yul\":14464:14511   */\n          mstore\n            /* \"#utility.yul\":14528:14659   */\n          tag_295\n            /* \"#utility.yul\":14654:14658   */\n          dup2\n            /* \"#utility.yul\":14528:14659   */\n          tag_168\n          jump\t// in\n        tag_295:\n            /* \"#utility.yul\":14520:14659   */\n          swap1\n          pop\n            /* \"#utility.yul\":14247:14666   */\n          swap2\n          swap1\n          pop\n          jump\t// out\n\n        auxdata: 0xa26469706673582212208414b2239914425ef28bab31b21608c806b8a1e0aefc8a746f6dd9f8a53f831164736f6c634300081f0033\n    }\n}\n",
				"bytecode": {
					"linkReferences": {},
					"object": "608060405234801561000f575f5ffd5b506040518060400160405280600781526020017f416972706f7274000000000000000000000000000000000000000000000000008152505f90816100539190610356565b503360035f6101000a81548173ffffffffffffffffffffffffffffffffffffffff021916908373ffffffffffffffffffffffffffffffffffffffff16021790555060055f6040516100a39061010c565b6100ae929190610547565b604051809103905ff0801580156100c7573d5f5f3e3d5ffd5b5060015f6101000a81548173ffffffffffffffffffffffffffffffffffffffff021916908373ffffffffffffffffffffffffffffffffffffffff160217905550610594565b611d27806114b983390190565b5f81519050919050565b7f4e487b71000000000000000000000000000000000000000000000000000000005f52604160045260245ffd5b7f4e487b71000000000000000000000000000000000000000000000000000000005f52602260045260245ffd5b5f600282049050600182168061019457607f821691505b6020821081036101a7576101a6610150565b5b50919050565b5f819050815f5260205f209050919050565b5f6020601f8301049050919050565b5f82821b905092915050565b5f600883026102097fffffffffffffffffffffffffffffffffffffffffffffffffffffffffffffffff826101ce565b61021386836101ce565b95508019841693508086168417925050509392505050565b5f819050919050565b5f819050919050565b5f61025761025261024d8461022b565b610234565b61022b565b9050919050565b5f819050919050565b6102708361023d565b61028461027c8261025e565b8484546101da565b825550505050565b5f5f905090565b61029b61028c565b6102a6818484610267565b505050565b5b818110156102c9576102be5f82610293565b6001810190506102ac565b5050565b601f82111561030e576102df816101ad565b6102e8846101bf565b810160208510156102f7578190505b61030b610303856101bf565b8301826102ab565b50505b505050565b5f82821c905092915050565b5f61032e5f1984600802610313565b1980831691505092915050565b5f610346838361031f565b9150826002028217905092915050565b61035f82610119565b67ffffffffffffffff81111561037857610377610123565b5b610382825461017d565b61038d8282856102cd565b5f60209050601f8311600181146103be575f84156103ac578287015190505b6103b6858261033b565b86555061041d565b601f1984166103cc866101ad565b5f5b828110156103f3578489015182556001820191506020850194506020810190506103ce565b86831015610410578489015161040c601f89168261031f565b8355505b6001600288020188555050505b505050505050565b5f82825260208201905092915050565b7f5675656c69746f730000000000000000000000000000000000000000000000005f82015250565b5f610469600883610425565b915061047482610435565b602082019050919050565b7f566c7400000000000000000000000000000000000000000000000000000000005f82015250565b5f6104b3600383610425565b91506104be8261047f565b602082019050919050565b5f819050919050565b5f60ff82169050919050565b5f6104f86104f36104ee846104c9565b610234565b6104d2565b9050919050565b610508816104de565b82525050565b5f819050919050565b5f61053161052c6105278461050e565b610234565b61022b565b9050919050565b61054181610517565b82525050565b5f6080820190508181035f83015261055e8161045d565b90508181036020830152610571816104a7565b905061058060408301856104ff565b61058d6060830184610538565b9392505050565b610f18806105a15f395ff3fe608060405234801561000f575f5ffd5b5060043610610055575f3560e01c806321df0da71461005957806332434a2e146100775780638da5cb5b14610093578063a401d24d146100b1578063d1df306c146100cd575b5f5ffd5b6100616100e9565b60405161006e9190610750565b60405180910390f35b610091600480360381019061008c91906108f1565b610111565b005b61009b61034a565b6040516100a8919061096b565b60405180910390f35b6100cb60048036038101906100c691906109b7565b61036f565b005b6100e760048036038101906100e291906109b7565b6104e1565b005b5f60015f9054906101000a900473ffffffffffffffffffffffffffffffffffffffff16905090565b60035f9054906101000a900473ffffffffffffffffffffffffffffffffffffffff1673ffffffffffffffffffffffffffffffffffffffff163373ffffffffffffffffffffffffffffffffffffffff16146101a0576040517f08c379a000000000000000000000000000000000000000000000000000000000815260040161019790610a4f565b60405180910390fd5b5f73ffffffffffffffffffffffffffffffffffffffff1660045f8473ffffffffffffffffffffffffffffffffffffffff1673ffffffffffffffffffffffffffffffffffffffff1681526020019081526020015f205f015f9054906101000a900473ffffffffffffffffffffffffffffffffffffffff1673ffffffffffffffffffffffffffffffffffffffff161461026c576040517f08c379a000000000000000000000000000000000000000000000000000000000815260040161026390610ab7565b60405180910390fd5b5f60405180606001604052808473ffffffffffffffffffffffffffffffffffffffff1681526020015f81526020018381525090508060045f8573ffffffffffffffffffffffffffffffffffffffff1673ffffffffffffffffffffffffffffffffffffffff1681526020019081526020015f205f820151815f015f6101000a81548173ffffffffffffffffffffffffffffffffffffffff021916908373ffffffffffffffffffffffffffffffffffffffff1602179055506020820151816001015560408201518160020190816103419190610cd3565b50905050505050565b60035f9054906101000a900473ffffffffffffffffffffffffffffffffffffffff1681565b60035f9054906101000a900473ffffffffffffffffffffffffffffffffffffffff1673ffffffffffffffffffffffffffffffffffffffff163373ffffffffffffffffffffffffffffffffffffffff16146103fe576040517f08c379a00000000000000000000000000000000000000000000000000000000081526004016103f590610a4f565b60405180910390fd5b60015f9054906101000a900473ffffffffffffffffffffffffffffffffffffffff1673ffffffffffffffffffffffffffffffffffffffff166340c10f1983836040518363ffffffff1660e01b815260040161045a929190610dc0565b5f604051808303815f87803b158015610471575f5ffd5b505af1158015610483573d5f5f3e3d5ffd5b505050508060045f8473ffffffffffffffffffffffffffffffffffffffff1673ffffffffffffffffffffffffffffffffffffffff1681526020019081526020015f206001015f8282546104d69190610e14565b925050819055505050565b60035f9054906101000a900473ffffffffffffffffffffffffffffffffffffffff1673ffffffffffffffffffffffffffffffffffffffff163373ffffffffffffffffffffffffffffffffffffffff1614610570576040517f08c379a000000000000000000000000000000000000000000000000000000000815260040161056790610a4f565b60405180910390fd5b8060045f8473ffffffffffffffffffffffffffffffffffffffff1673ffffffffffffffffffffffffffffffffffffffff1681526020019081526020015f206001015410156105f3576040517f08c379a00000000000000000000000000000000000000000000000000000000081526004016105ea90610e91565b60405180910390fd5b60015f9054906101000a900473ffffffffffffffffffffffffffffffffffffffff1673ffffffffffffffffffffffffffffffffffffffff16639dc29fac83836040518363ffffffff1660e01b815260040161064f929190610dc0565b5f604051808303815f87803b158015610666575f5ffd5b505af1158015610678573d5f5f3e3d5ffd5b505050508060045f8473ffffffffffffffffffffffffffffffffffffffff1673ffffffffffffffffffffffffffffffffffffffff1681526020019081526020015f206001015f8282546106cb9190610eaf565b925050819055505050565b5f73ffffffffffffffffffffffffffffffffffffffff82169050919050565b5f819050919050565b5f61071861071361070e846106d6565b6106f5565b6106d6565b9050919050565b5f610729826106fe565b9050919050565b5f61073a8261071f565b9050919050565b61074a81610730565b82525050565b5f6020820190506107635f830184610741565b92915050565b5f604051905090565b5f5ffd5b5f5ffd5b5f610784826106d6565b9050919050565b6107948161077a565b811461079e575f5ffd5b50565b5f813590506107af8161078b565b92915050565b5f5ffd5b5f5ffd5b5f601f19601f8301169050919050565b7f4e487b71000000000000000000000000000000000000000000000000000000005f52604160045260245ffd5b610803826107bd565b810181811067ffffffffffffffff82111715610822576108216107cd565b5b80604052505050565b5f610834610769565b905061084082826107fa565b919050565b5f67ffffffffffffffff82111561085f5761085e6107cd565b5b610868826107bd565b9050602081019050919050565b828183375f83830152505050565b5f61089561089084610845565b61082b565b9050828152602081018484840111156108b1576108b06107b9565b5b6108bc848285610875565b509392505050565b5f82601f8301126108d8576108d76107b5565b5b81356108e8848260208601610883565b91505092915050565b5f5f6040838503121561090757610906610772565b5b5f610914858286016107a1565b925050602083013567ffffffffffffffff81111561093557610934610776565b5b610941858286016108c4565b9150509250929050565b5f610955826106d6565b9050919050565b6109658161094b565b82525050565b5f60208201905061097e5f83018461095c565b92915050565b5f819050919050565b61099681610984565b81146109a0575f5ffd5b50565b5f813590506109b18161098d565b92915050565b5f5f604083850312156109cd576109cc610772565b5b5f6109da858286016107a1565b92505060206109eb858286016109a3565b9150509250929050565b5f82825260208201905092915050565b7f596f7520617265206e6f7420746865206f776e657200000000000000000000005f82015250565b5f610a396015836109f5565b9150610a4482610a05565b602082019050919050565b5f6020820190508181035f830152610a6681610a2d565b9050919050565b7f50617373656e67657220697320616c72656164792072656769737465726564005f82015250565b5f610aa1601f836109f5565b9150610aac82610a6d565b602082019050919050565b5f6020820190508181035f830152610ace81610a95565b9050919050565b5f81519050919050565b7f4e487b71000000000000000000000000000000000000000000000000000000005f52602260045260245ffd5b5f6002820490506001821680610b2357607f821691505b602082108103610b3657610b35610adf565b5b50919050565b5f819050815f5260205f209050919050565b5f6020601f8301049050919050565b5f82821b905092915050565b5f60088302610b987fffffffffffffffffffffffffffffffffffffffffffffffffffffffffffffffff82610b5d565b610ba28683610b5d565b95508019841693508086168417925050509392505050565b5f610bd4610bcf610bca84610984565b6106f5565b610984565b9050919050565b5f819050919050565b610bed83610bba565b610c01610bf982610bdb565b848454610b69565b825550505050565b5f5f905090565b610c18610c09565b610c23818484610be4565b505050565b5b81811015610c4657610c3b5f82610c10565b600181019050610c29565b5050565b601f821115610c8b57610c5c81610b3c565b610c6584610b4e565b81016020851015610c74578190505b610c88610c8085610b4e565b830182610c28565b50505b505050565b5f82821c905092915050565b5f610cab5f1984600802610c90565b1980831691505092915050565b5f610cc38383610c9c565b9150826002028217905092915050565b610cdc82610ad5565b67ffffffffffffffff811115610cf557610cf46107cd565b5b610cff8254610b0c565b610d0a828285610c4a565b5f60209050601f831160018114610d3b575f8415610d29578287015190505b610d338582610cb8565b865550610d9a565b601f198416610d4986610b3c565b5f5b82811015610d7057848901518255600182019150602085019450602081019050610d4b565b86831015610d8d5784890151610d89601f891682610c9c565b8355505b6001600288020188555050505b505050505050565b610dab8161077a565b82525050565b610dba81610984565b82525050565b5f604082019050610dd35f830185610da2565b610de06020830184610db1565b9392505050565b7f4e487b71000000000000000000000000000000000000000000000000000000005f52601160045260245ffd5b5f610e1e82610984565b9150610e2983610984565b9250828201905080821115610e4157610e40610de7565b5b92915050565b7f4e6f7420656e6f756768206d696c6573000000000000000000000000000000005f82015250565b5f610e7b6010836109f5565b9150610e8682610e47565b602082019050919050565b5f6020820190508181035f830152610ea881610e6f565b9050919050565b5f610eb982610984565b9150610ec483610984565b9250828203905081811115610edc57610edb610de7565b5b9291505056fea264697066735822122081a371acf391f55f5ea68c1286626eeffe7f03718072f7703a1009eca66ccc2164736f6c634300081f0033608060405234801561000f575f5ffd5b50604051611d27380380611d278339818101604052810190610031919061037b565b835f908161003f919061061e565b50826001908161004f919061061e565b508160025f6101000a81548160ff021916908360ff16021790555061007a338261008360201b60201c565b505050506107ed565b5f73ffffffffffffffffffffffffffffffffffffffff168273ffffffffffffffffffffffffffffffffffffffff16036100f1576040517f08c379a00000000000000000000000000000000000000000000000000000000081526004016100e890610747565b60405180910390fd5b8060035f8282546101029190610792565b925050819055508060045f8473ffffffffffffffffffffffffffffffffffffffff1673ffffffffffffffffffffffffffffffffffffffff1681526020019081526020015f205f8282546101559190610792565b925050819055508173ffffffffffffffffffffffffffffffffffffffff165f73ffffffffffffffffffffffffffffffffffffffff167fddf252ad1be2c89b69c2b068fc378daa952ba7f163c4a11628f55a4df523b3ef836040516101b991906107d4565b60405180910390a35050565b5f604051905090565b5f5ffd5b5f5ffd5b5f5ffd5b5f5ffd5b5f601f19601f8301169050919050565b7f4e487b71000000000000000000000000000000000000000000000000000000005f52604160045260245ffd5b610224826101de565b810181811067ffffffffffffffff82111715610243576102426101ee565b5b80604052505050565b5f6102556101c5565b9050610261828261021b565b919050565b5f67ffffffffffffffff8211156102805761027f6101ee565b5b610289826101de565b9050602081019050919050565b8281835e5f83830152505050565b5f6102b66102b184610266565b61024c565b9050828152602081018484840111156102d2576102d16101da565b5b6102dd848285610296565b509392505050565b5f82601f8301126102f9576102f86101d6565b5b81516103098482602086016102a4565b91505092915050565b5f60ff82169050919050565b61032781610312565b8114610331575f5ffd5b50565b5f815190506103428161031e565b92915050565b5f819050919050565b61035a81610348565b8114610364575f5ffd5b50565b5f8151905061037581610351565b92915050565b5f5f5f5f60808587031215610393576103926101ce565b5b5f85015167ffffffffffffffff8111156103b0576103af6101d2565b5b6103bc878288016102e5565b945050602085015167ffffffffffffffff8111156103dd576103dc6101d2565b5b6103e9878288016102e5565b93505060406103fa87828801610334565b925050606061040b87828801610367565b91505092959194509250565b5f81519050919050565b7f4e487b71000000000000000000000000000000000000000000000000000000005f52602260045260245ffd5b5f600282049050600182168061046557607f821691505b60208210810361047857610477610421565b5b50919050565b5f819050815f5260205f209050919050565b5f6020601f8301049050919050565b5f82821b905092915050565b5f600883026104da7fffffffffffffffffffffffffffffffffffffffffffffffffffffffffffffffff8261049f565b6104e4868361049f565b95508019841693508086168417925050509392505050565b5f819050919050565b5f61051f61051a61051584610348565b6104fc565b610348565b9050919050565b5f819050919050565b61053883610505565b61054c61054482610526565b8484546104ab565b825550505050565b5f5f905090565b610563610554565b61056e81848461052f565b505050565b5b81811015610591576105865f8261055b565b600181019050610574565b5050565b601f8211156105d6576105a78161047e565b6105b084610490565b810160208510156105bf578190505b6105d36105cb85610490565b830182610573565b50505b505050565b5f82821c905092915050565b5f6105f65f19846008026105db565b1980831691505092915050565b5f61060e83836105e7565b9150826002028217905092915050565b61062782610417565b67ffffffffffffffff8111156106405761063f6101ee565b5b61064a825461044e565b610655828285610595565b5f60209050601f831160018114610686575f8415610674578287015190505b61067e8582610603565b8655506106e5565b601f1984166106948661047e565b5f5b828110156106bb57848901518255600182019150602085019450602081019050610696565b868310156106d857848901516106d4601f8916826105e7565b8355505b6001600288020188555050505b505050505050565b5f82825260208201905092915050565b7f45524332303a206d696e7420746f20746865207a65726f2061646472657373005f82015250565b5f610731601f836106ed565b915061073c826106fd565b602082019050919050565b5f6020820190508181035f83015261075e81610725565b9050919050565b7f4e487b71000000000000000000000000000000000000000000000000000000005f52601160045260245ffd5b5f61079c82610348565b91506107a783610348565b92508282019050808211156107bf576107be610765565b5b92915050565b6107ce81610348565b82525050565b5f6020820190506107e75f8301846107c5565b92915050565b61152d806107fa5f395ff3fe608060405234801561000f575f5ffd5b50600436106100a7575f3560e01c806340c10f191161006f57806340c10f191461016557806370a082311461018157806395d89b41146101b15780639dc29fac146101cf578063a9059cbb146101eb578063dd62ed3e1461021b576100a7565b806306fdde03146100ab578063095ea7b3146100c957806318160ddd146100f957806323b872dd14610117578063313ce56714610147575b5f5ffd5b6100b361024b565b6040516100c09190610df8565b60405180910390f35b6100e360048036038101906100de9190610ea9565b6102da565b6040516100f09190610f01565b60405180910390f35b610101610435565b60405161010e9190610f29565b60405180910390f35b610131600480360381019061012c9190610f42565b61043e565b60405161013e9190610f01565b60405180910390f35b61014f61067a565b60405161015c9190610fad565b60405180910390f35b61017f600480360381019061017a9190610ea9565b61068f565b005b61019b60048036038101906101969190610fc6565b61069d565b6040516101a89190610f29565b60405180910390f35b6101b96106e3565b6040516101c69190610df8565b60405180910390f35b6101e960048036038101906101e49190610ea9565b610773565b005b61020560048036038101906102009190610ea9565b610781565b6040516102129190610f01565b60405180910390f35b61023560048036038101906102309190610ff1565b610797565b6040516102429190610f29565b60405180910390f35b60605f80546102599061105c565b80601f01602080910402602001604051908101604052809291908181526020018280546102859061105c565b80156102d05780601f106102a7576101008083540402835291602001916102d0565b820191905f5260205f20905b8154815290600101906020018083116102b357829003601f168201915b5050505050905090565b5f5f73ffffffffffffffffffffffffffffffffffffffff168373ffffffffffffffffffffffffffffffffffffffff1603610349576040517f08c379a0000000000000000000000000000000000000000000000000000000008152600401610340906110fc565b60405180910390fd5b8160055f3373ffffffffffffffffffffffffffffffffffffffff1673ffffffffffffffffffffffffffffffffffffffff1681526020019081526020015f205f8573ffffffffffffffffffffffffffffffffffffffff1673ffffffffffffffffffffffffffffffffffffffff1681526020019081526020015f20819055508273ffffffffffffffffffffffffffffffffffffffff163373ffffffffffffffffffffffffffffffffffffffff167f8c5be1e5ebec7d5bd14f71427d1e84f3dd0314c0f7b2291e5b200ac8c7c3b925846040516104239190610f29565b60405180910390a36001905092915050565b5f600354905090565b5f5f60055f8673ffffffffffffffffffffffffffffffffffffffff1673ffffffffffffffffffffffffffffffffffffffff1681526020019081526020015f205f3373ffffffffffffffffffffffffffffffffffffffff1673ffffffffffffffffffffffffffffffffffffffff1681526020019081526020015f20549050828110156104fe576040517f08c379a00000000000000000000000000000000000000000000000000000000081526004016104f590611164565b60405180910390fd5b828161050a91906111af565b60055f8773ffffffffffffffffffffffffffffffffffffffff1673ffffffffffffffffffffffffffffffffffffffff1681526020019081526020015f205f3373ffffffffffffffffffffffffffffffffffffffff1673ffffffffffffffffffffffffffffffffffffffff1681526020019081526020015f20819055503373ffffffffffffffffffffffffffffffffffffffff168573ffffffffffffffffffffffffffffffffffffffff167f8c5be1e5ebec7d5bd14f71427d1e84f3dd0314c0f7b2291e5b200ac8c7c3b92560055f8973ffffffffffffffffffffffffffffffffffffffff1673ffffffffffffffffffffffffffffffffffffffff1681526020019081526020015f205f3373ffffffffffffffffffffffffffffffffffffffff1673ffffffffffffffffffffffffffffffffffffffff1681526020019081526020015f205460405161065b9190610f29565b60405180910390a361066e858585610819565b60019150509392505050565b5f60025f9054906101000a900460ff16905090565b6106998282610a84565b5050565b5f60045f8373ffffffffffffffffffffffffffffffffffffffff1673ffffffffffffffffffffffffffffffffffffffff1681526020019081526020015f20549050919050565b6060600180546106f29061105c565b80601f016020809104026020016040519081016040528092919081815260200182805461071e9061105c565b80156107695780601f1061074057610100808354040283529160200191610769565b820191905f5260205f20905b81548152906001019060200180831161074c57829003601f168201915b5050505050905090565b61077d8282610bc6565b5050565b5f61078d338484610819565b6001905092915050565b5f60055f8473ffffffffffffffffffffffffffffffffffffffff1673ffffffffffffffffffffffffffffffffffffffff1681526020019081526020015f205f8373ffffffffffffffffffffffffffffffffffffffff1673ffffffffffffffffffffffffffffffffffffffff1681526020019081526020015f2054905092915050565b5f73ffffffffffffffffffffffffffffffffffffffff168373ffffffffffffffffffffffffffffffffffffffff1603610887576040517f08c379a000000000000000000000000000000000000000000000000000000000815260040161087e90611252565b60405180910390fd5b5f73ffffffffffffffffffffffffffffffffffffffff168273ffffffffffffffffffffffffffffffffffffffff16036108f5576040517f08c379a00000000000000000000000000000000000000000000000000000000081526004016108ec906112e0565b60405180910390fd5b5f60045f8573ffffffffffffffffffffffffffffffffffffffff1673ffffffffffffffffffffffffffffffffffffffff1681526020019081526020015f2054905081811015610979576040517f08c379a00000000000000000000000000000000000000000000000000000000081526004016109709061136e565b60405180910390fd5b818161098591906111af565b60045f8673ffffffffffffffffffffffffffffffffffffffff1673ffffffffffffffffffffffffffffffffffffffff1681526020019081526020015f20819055508160045f8573ffffffffffffffffffffffffffffffffffffffff1673ffffffffffffffffffffffffffffffffffffffff1681526020019081526020015f205f828254610a12919061138c565b925050819055508273ffffffffffffffffffffffffffffffffffffffff168473ffffffffffffffffffffffffffffffffffffffff167fddf252ad1be2c89b69c2b068fc378daa952ba7f163c4a11628f55a4df523b3ef84604051610a769190610f29565b60405180910390a350505050565b5f73ffffffffffffffffffffffffffffffffffffffff168273ffffffffffffffffffffffffffffffffffffffff1603610af2576040517f08c379a0000000000000000000000000000000000000000000000000000000008152600401610ae990611409565b60405180910390fd5b8060035f828254610b03919061138c565b925050819055508060045f8473ffffffffffffffffffffffffffffffffffffffff1673ffffffffffffffffffffffffffffffffffffffff1681526020019081526020015f205f828254610b56919061138c565b925050819055508173ffffffffffffffffffffffffffffffffffffffff165f73ffffffffffffffffffffffffffffffffffffffff167fddf252ad1be2c89b69c2b068fc378daa952ba7f163c4a11628f55a4df523b3ef83604051610bba9190610f29565b60405180910390a35050565b5f73ffffffffffffffffffffffffffffffffffffffff168273ffffffffffffffffffffffffffffffffffffffff1603610c34576040517f08c379a0000000000000000000000000000000000000000000000000000000008152600401610c2b90611471565b60405180910390fd5b8060045f8473ffffffffffffffffffffffffffffffffffffffff1673ffffffffffffffffffffffffffffffffffffffff1681526020019081526020015f20541015610cb4576040517f08c379a0000000000000000000000000000000000000000000000000000000008152600401610cab906114d9565b60405180910390fd5b8060045f8473ffffffffffffffffffffffffffffffffffffffff1673ffffffffffffffffffffffffffffffffffffffff1681526020019081526020015f205f828254610d0091906111af565b925050819055508060035f828254610d1891906111af565b925050819055505f73ffffffffffffffffffffffffffffffffffffffff168273ffffffffffffffffffffffffffffffffffffffff167fddf252ad1be2c89b69c2b068fc378daa952ba7f163c4a11628f55a4df523b3ef83604051610d7c9190610f29565b60405180910390a35050565b5f81519050919050565b5f82825260208201905092915050565b8281835e5f83830152505050565b5f601f19601f8301169050919050565b5f610dca82610d88565b610dd48185610d92565b9350610de4818560208601610da2565b610ded81610db0565b840191505092915050565b5f6020820190508181035f830152610e108184610dc0565b905092915050565b5f5ffd5b5f73ffffffffffffffffffffffffffffffffffffffff82169050919050565b5f610e4582610e1c565b9050919050565b610e5581610e3b565b8114610e5f575f5ffd5b50565b5f81359050610e7081610e4c565b92915050565b5f819050919050565b610e8881610e76565b8114610e92575f5ffd5b50565b5f81359050610ea381610e7f565b92915050565b5f5f60408385031215610ebf57610ebe610e18565b5b5f610ecc85828601610e62565b9250506020610edd85828601610e95565b9150509250929050565b5f8115159050919050565b610efb81610ee7565b82525050565b5f602082019050610f145f830184610ef2565b92915050565b610f2381610e76565b82525050565b5f602082019050610f3c5f830184610f1a565b92915050565b5f5f5f60608486031215610f5957610f58610e18565b5b5f610f6686828701610e62565b9350506020610f7786828701610e62565b9250506040610f8886828701610e95565b9150509250925092565b5f60ff82169050919050565b610fa781610f92565b82525050565b5f602082019050610fc05f830184610f9e565b92915050565b5f60208284031215610fdb57610fda610e18565b5b5f610fe884828501610e62565b91505092915050565b5f5f6040838503121561100757611006610e18565b5b5f61101485828601610e62565b925050602061102585828601610e62565b9150509250929050565b7f4e487b71000000000000000000000000000000000000000000000000000000005f52602260045260245ffd5b5f600282049050600182168061107357607f821691505b6020821081036110865761108561102f565b5b50919050565b7f45524332303a20617070726f766520746f20746865207a65726f2061646472655f8201527f7373000000000000000000000000000000000000000000000000000000000000602082015250565b5f6110e6602283610d92565b91506110f18261108c565b604082019050919050565b5f6020820190508181035f830152611113816110da565b9050919050565b7f45524332303a20696e73756666696369656e7420616c6c6f77616e63650000005f82015250565b5f61114e601d83610d92565b91506111598261111a565b602082019050919050565b5f6020820190508181035f83015261117b81611142565b9050919050565b7f4e487b71000000000000000000000000000000000000000000000000000000005f52601160045260245ffd5b5f6111b982610e76565b91506111c483610e76565b92508282039050818111156111dc576111db611182565b5b92915050565b7f45524332303a207472616e736665722066726f6d20746865207a65726f2061645f8201527f6472657373000000000000000000000000000000000000000000000000000000602082015250565b5f61123c602583610d92565b9150611247826111e2565b604082019050919050565b5f6020820190508181035f83015261126981611230565b9050919050565b7f45524332303a207472616e7366657220746f20746865207a65726f20616464725f8201527f6573730000000000000000000000000000000000000000000000000000000000602082015250565b5f6112ca602383610d92565b91506112d582611270565b604082019050919050565b5f6020820190508181035f8301526112f7816112be565b9050919050565b7f45524332303a207472616e7366657220616d6f756e74206578636565647320625f8201527f616c616e63650000000000000000000000000000000000000000000000000000602082015250565b5f611358602683610d92565b9150611363826112fe565b604082019050919050565b5f6020820190508181035f8301526113858161134c565b9050919050565b5f61139682610e76565b91506113a183610e76565b92508282019050808211156113b9576113b8611182565b5b92915050565b7f45524332303a206d696e7420746f20746865207a65726f2061646472657373005f82015250565b5f6113f3601f83610d92565b91506113fe826113bf565b602082019050919050565b5f6020820190508181035f830152611420816113e7565b9050919050565b7f4e6f2068617920616464726573730000000000000000000000000000000000005f82015250565b5f61145b600e83610d92565b915061146682611427565b602082019050919050565b5f6020820190508181035f8301526114888161144f565b9050919050565b7f4e6f2068617920737566696369656e74657320746f6b656e732e0000000000005f82015250565b5f6114c3601a83610d92565b91506114ce8261148f565b602082019050919050565b5f6020820190508181035f8301526114f0816114b7565b905091905056fea26469706673582212208414b2239914425ef28bab31b21608c806b8a1e0aefc8a746f6dd9f8a53f831164736f6c634300081f0033",
					"opcodes": "PUSH1 0x80 PUSH1 0x40 MSTORE CALLVALUE DUP1 ISZERO PUSH2 0xF JUMPI PUSH0 PUSH0 REVERT JUMPDEST POP PUSH1 0x40 MLOAD DUP1 PUSH1 0x40 ADD PUSH1 0x40 MSTORE DUP1 PUSH1 0x7 DUP2 MSTORE PUSH1 0x20 ADD PUSH32 0x416972706F727400000000000000000000000000000000000000000000000000 DUP2 MSTORE POP PUSH0 SWAP1 DUP2 PUSH2 0x53 SWAP2 SWAP1 PUSH2 0x356 JUMP JUMPDEST POP CALLER PUSH1 0x3 PUSH0 PUSH2 0x100 EXP DUP2 SLOAD DUP2 PUSH20 0xFFFFFFFFFFFFFFFFFFFFFFFFFFFFFFFFFFFFFFFF MUL NOT AND SWAP1 DUP4 PUSH20 0xFFFFFFFFFFFFFFFFFFFFFFFFFFFFFFFFFFFFFFFF AND MUL OR SWAP1 SSTORE POP PUSH1 0x5 PUSH0 PUSH1 0x40 MLOAD PUSH2 0xA3 SWAP1 PUSH2 0x10C JUMP JUMPDEST PUSH2 0xAE SWAP3 SWAP2 SWAP1 PUSH2 0x547 JUMP JUMPDEST PUSH1 0x40 MLOAD DUP1 SWAP2 SUB SWAP1 PUSH0 CREATE DUP1 ISZERO DUP1 ISZERO PUSH2 0xC7 JUMPI RETURNDATASIZE PUSH0 PUSH0 RETURNDATACOPY RETURNDATASIZE PUSH0 REVERT JUMPDEST POP PUSH1 0x1 PUSH0 PUSH2 0x100 EXP DUP2 SLOAD DUP2 PUSH20 0xFFFFFFFFFFFFFFFFFFFFFFFFFFFFFFFFFFFFFFFF MUL NOT AND SWAP1 DUP4 PUSH20 0xFFFFFFFFFFFFFFFFFFFFFFFFFFFFFFFFFFFFFFFF AND MUL OR SWAP1 SSTORE POP PUSH2 0x594 JUMP JUMPDEST PUSH2 0x1D27 DUP1 PUSH2 0x14B9 DUP4 CODECOPY ADD SWAP1 JUMP JUMPDEST PUSH0 DUP2 MLOAD SWAP1 POP SWAP2 SWAP1 POP JUMP JUMPDEST PUSH32 0x4E487B7100000000000000000000000000000000000000000000000000000000 PUSH0 MSTORE PUSH1 0x41 PUSH1 0x4 MSTORE PUSH1 0x24 PUSH0 REVERT JUMPDEST PUSH32 0x4E487B7100000000000000000000000000000000000000000000000000000000 PUSH0 MSTORE PUSH1 0x22 PUSH1 0x4 MSTORE PUSH1 0x24 PUSH0 REVERT JUMPDEST PUSH0 PUSH1 0x2 DUP3 DIV SWAP1 POP PUSH1 0x1 DUP3 AND DUP1 PUSH2 0x194 JUMPI PUSH1 0x7F DUP3 AND SWAP2 POP JUMPDEST PUSH1 0x20 DUP3 LT DUP2 SUB PUSH2 0x1A7 JUMPI PUSH2 0x1A6 PUSH2 0x150 JUMP JUMPDEST JUMPDEST POP SWAP2 SWAP1 POP JUMP JUMPDEST PUSH0 DUP2 SWAP1 POP DUP2 PUSH0 MSTORE PUSH1 0x20 PUSH0 KECCAK256 SWAP1 POP SWAP2 SWAP1 POP JUMP JUMPDEST PUSH0 PUSH1 0x20 PUSH1 0x1F DUP4 ADD DIV SWAP1 POP SWAP2 SWAP1 POP JUMP JUMPDEST PUSH0 DUP3 DUP3 SHL SWAP1 POP SWAP3 SWAP2 POP POP JUMP JUMPDEST PUSH0 PUSH1 0x8 DUP4 MUL PUSH2 0x209 PUSH32 0xFFFFFFFFFFFFFFFFFFFFFFFFFFFFFFFFFFFFFFFFFFFFFFFFFFFFFFFFFFFFFFFF DUP3 PUSH2 0x1CE JUMP JUMPDEST PUSH2 0x213 DUP7 DUP4 PUSH2 0x1CE JUMP JUMPDEST SWAP6 POP DUP1 NOT DUP5 AND SWAP4 POP DUP1 DUP7 AND DUP5 OR SWAP3 POP POP POP SWAP4 SWAP3 POP POP POP JUMP JUMPDEST PUSH0 DUP2 SWAP1 POP SWAP2 SWAP1 POP JUMP JUMPDEST PUSH0 DUP2 SWAP1 POP SWAP2 SWAP1 POP JUMP JUMPDEST PUSH0 PUSH2 0x257 PUSH2 0x252 PUSH2 0x24D DUP5 PUSH2 0x22B JUMP JUMPDEST PUSH2 0x234 JUMP JUMPDEST PUSH2 0x22B JUMP JUMPDEST SWAP1 POP SWAP2 SWAP1 POP JUMP JUMPDEST PUSH0 DUP2 SWAP1 POP SWAP2 SWAP1 POP JUMP JUMPDEST PUSH2 0x270 DUP4 PUSH2 0x23D JUMP JUMPDEST PUSH2 0x284 PUSH2 0x27C DUP3 PUSH2 0x25E JUMP JUMPDEST DUP5 DUP5 SLOAD PUSH2 0x1DA JUMP JUMPDEST DUP3 SSTORE POP POP POP POP JUMP JUMPDEST PUSH0 PUSH0 SWAP1 POP SWAP1 JUMP JUMPDEST PUSH2 0x29B PUSH2 0x28C JUMP JUMPDEST PUSH2 0x2A6 DUP2 DUP5 DUP5 PUSH2 0x267 JUMP JUMPDEST POP POP POP JUMP JUMPDEST JUMPDEST DUP2 DUP2 LT ISZERO PUSH2 0x2C9 JUMPI PUSH2 0x2BE PUSH0 DUP3 PUSH2 0x293 JUMP JUMPDEST PUSH1 0x1 DUP2 ADD SWAP1 POP PUSH2 0x2AC JUMP JUMPDEST POP POP JUMP JUMPDEST PUSH1 0x1F DUP3 GT ISZERO PUSH2 0x30E JUMPI PUSH2 0x2DF DUP2 PUSH2 0x1AD JUMP JUMPDEST PUSH2 0x2E8 DUP5 PUSH2 0x1BF JUMP JUMPDEST DUP2 ADD PUSH1 0x20 DUP6 LT ISZERO PUSH2 0x2F7 JUMPI DUP2 SWAP1 POP JUMPDEST PUSH2 0x30B PUSH2 0x303 DUP6 PUSH2 0x1BF JUMP JUMPDEST DUP4 ADD DUP3 PUSH2 0x2AB JUMP JUMPDEST POP POP JUMPDEST POP POP POP JUMP JUMPDEST PUSH0 DUP3 DUP3 SHR SWAP1 POP SWAP3 SWAP2 POP POP JUMP JUMPDEST PUSH0 PUSH2 0x32E PUSH0 NOT DUP5 PUSH1 0x8 MUL PUSH2 0x313 JUMP JUMPDEST NOT DUP1 DUP4 AND SWAP2 POP POP SWAP3 SWAP2 POP POP JUMP JUMPDEST PUSH0 PUSH2 0x346 DUP4 DUP4 PUSH2 0x31F JUMP JUMPDEST SWAP2 POP DUP3 PUSH1 0x2 MUL DUP3 OR SWAP1 POP SWAP3 SWAP2 POP POP JUMP JUMPDEST PUSH2 0x35F DUP3 PUSH2 0x119 JUMP JUMPDEST PUSH8 0xFFFFFFFFFFFFFFFF DUP2 GT ISZERO PUSH2 0x378 JUMPI PUSH2 0x377 PUSH2 0x123 JUMP JUMPDEST JUMPDEST PUSH2 0x382 DUP3 SLOAD PUSH2 0x17D JUMP JUMPDEST PUSH2 0x38D DUP3 DUP3 DUP6 PUSH2 0x2CD JUMP JUMPDEST PUSH0 PUSH1 0x20 SWAP1 POP PUSH1 0x1F DUP4 GT PUSH1 0x1 DUP2 EQ PUSH2 0x3BE JUMPI PUSH0 DUP5 ISZERO PUSH2 0x3AC JUMPI DUP3 DUP8 ADD MLOAD SWAP1 POP JUMPDEST PUSH2 0x3B6 DUP6 DUP3 PUSH2 0x33B JUMP JUMPDEST DUP7 SSTORE POP PUSH2 0x41D JUMP JUMPDEST PUSH1 0x1F NOT DUP5 AND PUSH2 0x3CC DUP7 PUSH2 0x1AD JUMP JUMPDEST PUSH0 JUMPDEST DUP3 DUP2 LT ISZERO PUSH2 0x3F3 JUMPI DUP5 DUP10 ADD MLOAD DUP3 SSTORE PUSH1 0x1 DUP3 ADD SWAP2 POP PUSH1 0x20 DUP6 ADD SWAP5 POP PUSH1 0x20 DUP2 ADD SWAP1 POP PUSH2 0x3CE JUMP JUMPDEST DUP7 DUP4 LT ISZERO PUSH2 0x410 JUMPI DUP5 DUP10 ADD MLOAD PUSH2 0x40C PUSH1 0x1F DUP10 AND DUP3 PUSH2 0x31F JUMP JUMPDEST DUP4 SSTORE POP JUMPDEST PUSH1 0x1 PUSH1 0x2 DUP9 MUL ADD DUP9 SSTORE POP POP POP JUMPDEST POP POP POP POP POP POP JUMP JUMPDEST PUSH0 DUP3 DUP3 MSTORE PUSH1 0x20 DUP3 ADD SWAP1 POP SWAP3 SWAP2 POP POP JUMP JUMPDEST PUSH32 0x5675656C69746F73000000000000000000000000000000000000000000000000 PUSH0 DUP3 ADD MSTORE POP JUMP JUMPDEST PUSH0 PUSH2 0x469 PUSH1 0x8 DUP4 PUSH2 0x425 JUMP JUMPDEST SWAP2 POP PUSH2 0x474 DUP3 PUSH2 0x435 JUMP JUMPDEST PUSH1 0x20 DUP3 ADD SWAP1 POP SWAP2 SWAP1 POP JUMP JUMPDEST PUSH32 0x566C740000000000000000000000000000000000000000000000000000000000 PUSH0 DUP3 ADD MSTORE POP JUMP JUMPDEST PUSH0 PUSH2 0x4B3 PUSH1 0x3 DUP4 PUSH2 0x425 JUMP JUMPDEST SWAP2 POP PUSH2 0x4BE DUP3 PUSH2 0x47F JUMP JUMPDEST PUSH1 0x20 DUP3 ADD SWAP1 POP SWAP2 SWAP1 POP JUMP JUMPDEST PUSH0 DUP2 SWAP1 POP SWAP2 SWAP1 POP JUMP JUMPDEST PUSH0 PUSH1 0xFF DUP3 AND SWAP1 POP SWAP2 SWAP1 POP JUMP JUMPDEST PUSH0 PUSH2 0x4F8 PUSH2 0x4F3 PUSH2 0x4EE DUP5 PUSH2 0x4C9 JUMP JUMPDEST PUSH2 0x234 JUMP JUMPDEST PUSH2 0x4D2 JUMP JUMPDEST SWAP1 POP SWAP2 SWAP1 POP JUMP JUMPDEST PUSH2 0x508 DUP2 PUSH2 0x4DE JUMP JUMPDEST DUP3 MSTORE POP POP JUMP JUMPDEST PUSH0 DUP2 SWAP1 POP SWAP2 SWAP1 POP JUMP JUMPDEST PUSH0 PUSH2 0x531 PUSH2 0x52C PUSH2 0x527 DUP5 PUSH2 0x50E JUMP JUMPDEST PUSH2 0x234 JUMP JUMPDEST PUSH2 0x22B JUMP JUMPDEST SWAP1 POP SWAP2 SWAP1 POP JUMP JUMPDEST PUSH2 0x541 DUP2 PUSH2 0x517 JUMP JUMPDEST DUP3 MSTORE POP POP JUMP JUMPDEST PUSH0 PUSH1 0x80 DUP3 ADD SWAP1 POP DUP2 DUP2 SUB PUSH0 DUP4 ADD MSTORE PUSH2 0x55E DUP2 PUSH2 0x45D JUMP JUMPDEST SWAP1 POP DUP2 DUP2 SUB PUSH1 0x20 DUP4 ADD MSTORE PUSH2 0x571 DUP2 PUSH2 0x4A7 JUMP JUMPDEST SWAP1 POP PUSH2 0x580 PUSH1 0x40 DUP4 ADD DUP6 PUSH2 0x4FF JUMP JUMPDEST PUSH2 0x58D PUSH1 0x60 DUP4 ADD DUP5 PUSH2 0x538 JUMP JUMPDEST SWAP4 SWAP3 POP POP POP JUMP JUMPDEST PUSH2 0xF18 DUP1 PUSH2 0x5A1 PUSH0 CODECOPY PUSH0 RETURN INVALID PUSH1 0x80 PUSH1 0x40 MSTORE CALLVALUE DUP1 ISZERO PUSH2 0xF JUMPI PUSH0 PUSH0 REVERT JUMPDEST POP PUSH1 0x4 CALLDATASIZE LT PUSH2 0x55 JUMPI PUSH0 CALLDATALOAD PUSH1 0xE0 SHR DUP1 PUSH4 0x21DF0DA7 EQ PUSH2 0x59 JUMPI DUP1 PUSH4 0x32434A2E EQ PUSH2 0x77 JUMPI DUP1 PUSH4 0x8DA5CB5B EQ PUSH2 0x93 JUMPI DUP1 PUSH4 0xA401D24D EQ PUSH2 0xB1 JUMPI DUP1 PUSH4 0xD1DF306C EQ PUSH2 0xCD JUMPI JUMPDEST PUSH0 PUSH0 REVERT JUMPDEST PUSH2 0x61 PUSH2 0xE9 JUMP JUMPDEST PUSH1 0x40 MLOAD PUSH2 0x6E SWAP2 SWAP1 PUSH2 0x750 JUMP JUMPDEST PUSH1 0x40 MLOAD DUP1 SWAP2 SUB SWAP1 RETURN JUMPDEST PUSH2 0x91 PUSH1 0x4 DUP1 CALLDATASIZE SUB DUP2 ADD SWAP1 PUSH2 0x8C SWAP2 SWAP1 PUSH2 0x8F1 JUMP JUMPDEST PUSH2 0x111 JUMP JUMPDEST STOP JUMPDEST PUSH2 0x9B PUSH2 0x34A JUMP JUMPDEST PUSH1 0x40 MLOAD PUSH2 0xA8 SWAP2 SWAP1 PUSH2 0x96B JUMP JUMPDEST PUSH1 0x40 MLOAD DUP1 SWAP2 SUB SWAP1 RETURN JUMPDEST PUSH2 0xCB PUSH1 0x4 DUP1 CALLDATASIZE SUB DUP2 ADD SWAP1 PUSH2 0xC6 SWAP2 SWAP1 PUSH2 0x9B7 JUMP JUMPDEST PUSH2 0x36F JUMP JUMPDEST STOP JUMPDEST PUSH2 0xE7 PUSH1 0x4 DUP1 CALLDATASIZE SUB DUP2 ADD SWAP1 PUSH2 0xE2 SWAP2 SWAP1 PUSH2 0x9B7 JUMP JUMPDEST PUSH2 0x4E1 JUMP JUMPDEST STOP JUMPDEST PUSH0 PUSH1 0x1 PUSH0 SWAP1 SLOAD SWAP1 PUSH2 0x100 EXP SWAP1 DIV PUSH20 0xFFFFFFFFFFFFFFFFFFFFFFFFFFFFFFFFFFFFFFFF AND SWAP1 POP SWAP1 JUMP JUMPDEST PUSH1 0x3 PUSH0 SWAP1 SLOAD SWAP1 PUSH2 0x100 EXP SWAP1 DIV PUSH20 0xFFFFFFFFFFFFFFFFFFFFFFFFFFFFFFFFFFFFFFFF AND PUSH20 0xFFFFFFFFFFFFFFFFFFFFFFFFFFFFFFFFFFFFFFFF AND CALLER PUSH20 0xFFFFFFFFFFFFFFFFFFFFFFFFFFFFFFFFFFFFFFFF AND EQ PUSH2 0x1A0 JUMPI PUSH1 0x40 MLOAD PUSH32 0x8C379A000000000000000000000000000000000000000000000000000000000 DUP2 MSTORE PUSH1 0x4 ADD PUSH2 0x197 SWAP1 PUSH2 0xA4F JUMP JUMPDEST PUSH1 0x40 MLOAD DUP1 SWAP2 SUB SWAP1 REVERT JUMPDEST PUSH0 PUSH20 0xFFFFFFFFFFFFFFFFFFFFFFFFFFFFFFFFFFFFFFFF AND PUSH1 0x4 PUSH0 DUP5 PUSH20 0xFFFFFFFFFFFFFFFFFFFFFFFFFFFFFFFFFFFFFFFF AND PUSH20 0xFFFFFFFFFFFFFFFFFFFFFFFFFFFFFFFFFFFFFFFF AND DUP2 MSTORE PUSH1 0x20 ADD SWAP1 DUP2 MSTORE PUSH1 0x20 ADD PUSH0 KECCAK256 PUSH0 ADD PUSH0 SWAP1 SLOAD SWAP1 PUSH2 0x100 EXP SWAP1 DIV PUSH20 0xFFFFFFFFFFFFFFFFFFFFFFFFFFFFFFFFFFFFFFFF AND PUSH20 0xFFFFFFFFFFFFFFFFFFFFFFFFFFFFFFFFFFFFFFFF AND EQ PUSH2 0x26C JUMPI PUSH1 0x40 MLOAD PUSH32 0x8C379A000000000000000000000000000000000000000000000000000000000 DUP2 MSTORE PUSH1 0x4 ADD PUSH2 0x263 SWAP1 PUSH2 0xAB7 JUMP JUMPDEST PUSH1 0x40 MLOAD DUP1 SWAP2 SUB SWAP1 REVERT JUMPDEST PUSH0 PUSH1 0x40 MLOAD DUP1 PUSH1 0x60 ADD PUSH1 0x40 MSTORE DUP1 DUP5 PUSH20 0xFFFFFFFFFFFFFFFFFFFFFFFFFFFFFFFFFFFFFFFF AND DUP2 MSTORE PUSH1 0x20 ADD PUSH0 DUP2 MSTORE PUSH1 0x20 ADD DUP4 DUP2 MSTORE POP SWAP1 POP DUP1 PUSH1 0x4 PUSH0 DUP6 PUSH20 0xFFFFFFFFFFFFFFFFFFFFFFFFFFFFFFFFFFFFFFFF AND PUSH20 0xFFFFFFFFFFFFFFFFFFFFFFFFFFFFFFFFFFFFFFFF AND DUP2 MSTORE PUSH1 0x20 ADD SWAP1 DUP2 MSTORE PUSH1 0x20 ADD PUSH0 KECCAK256 PUSH0 DUP3 ADD MLOAD DUP2 PUSH0 ADD PUSH0 PUSH2 0x100 EXP DUP2 SLOAD DUP2 PUSH20 0xFFFFFFFFFFFFFFFFFFFFFFFFFFFFFFFFFFFFFFFF MUL NOT AND SWAP1 DUP4 PUSH20 0xFFFFFFFFFFFFFFFFFFFFFFFFFFFFFFFFFFFFFFFF AND MUL OR SWAP1 SSTORE POP PUSH1 0x20 DUP3 ADD MLOAD DUP2 PUSH1 0x1 ADD SSTORE PUSH1 0x40 DUP3 ADD MLOAD DUP2 PUSH1 0x2 ADD SWAP1 DUP2 PUSH2 0x341 SWAP2 SWAP1 PUSH2 0xCD3 JUMP JUMPDEST POP SWAP1 POP POP POP POP POP JUMP JUMPDEST PUSH1 0x3 PUSH0 SWAP1 SLOAD SWAP1 PUSH2 0x100 EXP SWAP1 DIV PUSH20 0xFFFFFFFFFFFFFFFFFFFFFFFFFFFFFFFFFFFFFFFF AND DUP2 JUMP JUMPDEST PUSH1 0x3 PUSH0 SWAP1 SLOAD SWAP1 PUSH2 0x100 EXP SWAP1 DIV PUSH20 0xFFFFFFFFFFFFFFFFFFFFFFFFFFFFFFFFFFFFFFFF AND PUSH20 0xFFFFFFFFFFFFFFFFFFFFFFFFFFFFFFFFFFFFFFFF AND CALLER PUSH20 0xFFFFFFFFFFFFFFFFFFFFFFFFFFFFFFFFFFFFFFFF AND EQ PUSH2 0x3FE JUMPI PUSH1 0x40 MLOAD PUSH32 0x8C379A000000000000000000000000000000000000000000000000000000000 DUP2 MSTORE PUSH1 0x4 ADD PUSH2 0x3F5 SWAP1 PUSH2 0xA4F JUMP JUMPDEST PUSH1 0x40 MLOAD DUP1 SWAP2 SUB SWAP1 REVERT JUMPDEST PUSH1 0x1 PUSH0 SWAP1 SLOAD SWAP1 PUSH2 0x100 EXP SWAP1 DIV PUSH20 0xFFFFFFFFFFFFFFFFFFFFFFFFFFFFFFFFFFFFFFFF AND PUSH20 0xFFFFFFFFFFFFFFFFFFFFFFFFFFFFFFFFFFFFFFFF AND PUSH4 0x40C10F19 DUP4 DUP4 PUSH1 0x40 MLOAD DUP4 PUSH4 0xFFFFFFFF AND PUSH1 0xE0 SHL DUP2 MSTORE PUSH1 0x4 ADD PUSH2 0x45A SWAP3 SWAP2 SWAP1 PUSH2 0xDC0 JUMP JUMPDEST PUSH0 PUSH1 0x40 MLOAD DUP1 DUP4 SUB DUP2 PUSH0 DUP8 DUP1 EXTCODESIZE ISZERO DUP1 ISZERO PUSH2 0x471 JUMPI PUSH0 PUSH0 REVERT JUMPDEST POP GAS CALL ISZERO DUP1 ISZERO PUSH2 0x483 JUMPI RETURNDATASIZE PUSH0 PUSH0 RETURNDATACOPY RETURNDATASIZE PUSH0 REVERT JUMPDEST POP POP POP POP DUP1 PUSH1 0x4 PUSH0 DUP5 PUSH20 0xFFFFFFFFFFFFFFFFFFFFFFFFFFFFFFFFFFFFFFFF AND PUSH20 0xFFFFFFFFFFFFFFFFFFFFFFFFFFFFFFFFFFFFFFFF AND DUP2 MSTORE PUSH1 0x20 ADD SWAP1 DUP2 MSTORE PUSH1 0x20 ADD PUSH0 KECCAK256 PUSH1 0x1 ADD PUSH0 DUP3 DUP3 SLOAD PUSH2 0x4D6 SWAP2 SWAP1 PUSH2 0xE14 JUMP JUMPDEST SWAP3 POP POP DUP2 SWAP1 SSTORE POP POP POP JUMP JUMPDEST PUSH1 0x3 PUSH0 SWAP1 SLOAD SWAP1 PUSH2 0x100 EXP SWAP1 DIV PUSH20 0xFFFFFFFFFFFFFFFFFFFFFFFFFFFFFFFFFFFFFFFF AND PUSH20 0xFFFFFFFFFFFFFFFFFFFFFFFFFFFFFFFFFFFFFFFF AND CALLER PUSH20 0xFFFFFFFFFFFFFFFFFFFFFFFFFFFFFFFFFFFFFFFF AND EQ PUSH2 0x570 JUMPI PUSH1 0x40 MLOAD PUSH32 0x8C379A000000000000000000000000000000000000000000000000000000000 DUP2 MSTORE PUSH1 0x4 ADD PUSH2 0x567 SWAP1 PUSH2 0xA4F JUMP JUMPDEST PUSH1 0x40 MLOAD DUP1 SWAP2 SUB SWAP1 REVERT JUMPDEST DUP1 PUSH1 0x4 PUSH0 DUP5 PUSH20 0xFFFFFFFFFFFFFFFFFFFFFFFFFFFFFFFFFFFFFFFF AND PUSH20 0xFFFFFFFFFFFFFFFFFFFFFFFFFFFFFFFFFFFFFFFF AND DUP2 MSTORE PUSH1 0x20 ADD SWAP1 DUP2 MSTORE PUSH1 0x20 ADD PUSH0 KECCAK256 PUSH1 0x1 ADD SLOAD LT ISZERO PUSH2 0x5F3 JUMPI PUSH1 0x40 MLOAD PUSH32 0x8C379A000000000000000000000000000000000000000000000000000000000 DUP2 MSTORE PUSH1 0x4 ADD PUSH2 0x5EA SWAP1 PUSH2 0xE91 JUMP JUMPDEST PUSH1 0x40 MLOAD DUP1 SWAP2 SUB SWAP1 REVERT JUMPDEST PUSH1 0x1 PUSH0 SWAP1 SLOAD SWAP1 PUSH2 0x100 EXP SWAP1 DIV PUSH20 0xFFFFFFFFFFFFFFFFFFFFFFFFFFFFFFFFFFFFFFFF AND PUSH20 0xFFFFFFFFFFFFFFFFFFFFFFFFFFFFFFFFFFFFFFFF AND PUSH4 0x9DC29FAC DUP4 DUP4 PUSH1 0x40 MLOAD DUP4 PUSH4 0xFFFFFFFF AND PUSH1 0xE0 SHL DUP2 MSTORE PUSH1 0x4 ADD PUSH2 0x64F SWAP3 SWAP2 SWAP1 PUSH2 0xDC0 JUMP JUMPDEST PUSH0 PUSH1 0x40 MLOAD DUP1 DUP4 SUB DUP2 PUSH0 DUP8 DUP1 EXTCODESIZE ISZERO DUP1 ISZERO PUSH2 0x666 JUMPI PUSH0 PUSH0 REVERT JUMPDEST POP GAS CALL ISZERO DUP1 ISZERO PUSH2 0x678 JUMPI RETURNDATASIZE PUSH0 PUSH0 RETURNDATACOPY RETURNDATASIZE PUSH0 REVERT JUMPDEST POP POP POP POP DUP1 PUSH1 0x4 PUSH0 DUP5 PUSH20 0xFFFFFFFFFFFFFFFFFFFFFFFFFFFFFFFFFFFFFFFF AND PUSH20 0xFFFFFFFFFFFFFFFFFFFFFFFFFFFFFFFFFFFFFFFF AND DUP2 MSTORE PUSH1 0x20 ADD SWAP1 DUP2 MSTORE PUSH1 0x20 ADD PUSH0 KECCAK256 PUSH1 0x1 ADD PUSH0 DUP3 DUP3 SLOAD PUSH2 0x6CB SWAP2 SWAP1 PUSH2 0xEAF JUMP JUMPDEST SWAP3 POP POP DUP2 SWAP1 SSTORE POP POP POP JUMP JUMPDEST PUSH0 PUSH20 0xFFFFFFFFFFFFFFFFFFFFFFFFFFFFFFFFFFFFFFFF DUP3 AND SWAP1 POP SWAP2 SWAP1 POP JUMP JUMPDEST PUSH0 DUP2 SWAP1 POP SWAP2 SWAP1 POP JUMP JUMPDEST PUSH0 PUSH2 0x718 PUSH2 0x713 PUSH2 0x70E DUP5 PUSH2 0x6D6 JUMP JUMPDEST PUSH2 0x6F5 JUMP JUMPDEST PUSH2 0x6D6 JUMP JUMPDEST SWAP1 POP SWAP2 SWAP1 POP JUMP JUMPDEST PUSH0 PUSH2 0x729 DUP3 PUSH2 0x6FE JUMP JUMPDEST SWAP1 POP SWAP2 SWAP1 POP JUMP JUMPDEST PUSH0 PUSH2 0x73A DUP3 PUSH2 0x71F JUMP JUMPDEST SWAP1 POP SWAP2 SWAP1 POP JUMP JUMPDEST PUSH2 0x74A DUP2 PUSH2 0x730 JUMP JUMPDEST DUP3 MSTORE POP POP JUMP JUMPDEST PUSH0 PUSH1 0x20 DUP3 ADD SWAP1 POP PUSH2 0x763 PUSH0 DUP4 ADD DUP5 PUSH2 0x741 JUMP JUMPDEST SWAP3 SWAP2 POP POP JUMP JUMPDEST PUSH0 PUSH1 0x40 MLOAD SWAP1 POP SWAP1 JUMP JUMPDEST PUSH0 PUSH0 REVERT JUMPDEST PUSH0 PUSH0 REVERT JUMPDEST PUSH0 PUSH2 0x784 DUP3 PUSH2 0x6D6 JUMP JUMPDEST SWAP1 POP SWAP2 SWAP1 POP JUMP JUMPDEST PUSH2 0x794 DUP2 PUSH2 0x77A JUMP JUMPDEST DUP2 EQ PUSH2 0x79E JUMPI PUSH0 PUSH0 REVERT JUMPDEST POP JUMP JUMPDEST PUSH0 DUP2 CALLDATALOAD SWAP1 POP PUSH2 0x7AF DUP2 PUSH2 0x78B JUMP JUMPDEST SWAP3 SWAP2 POP POP JUMP JUMPDEST PUSH0 PUSH0 REVERT JUMPDEST PUSH0 PUSH0 REVERT JUMPDEST PUSH0 PUSH1 0x1F NOT PUSH1 0x1F DUP4 ADD AND SWAP1 POP SWAP2 SWAP1 POP JUMP JUMPDEST PUSH32 0x4E487B7100000000000000000000000000000000000000000000000000000000 PUSH0 MSTORE PUSH1 0x41 PUSH1 0x4 MSTORE PUSH1 0x24 PUSH0 REVERT JUMPDEST PUSH2 0x803 DUP3 PUSH2 0x7BD JUMP JUMPDEST DUP2 ADD DUP2 DUP2 LT PUSH8 0xFFFFFFFFFFFFFFFF DUP3 GT OR ISZERO PUSH2 0x822 JUMPI PUSH2 0x821 PUSH2 0x7CD JUMP JUMPDEST JUMPDEST DUP1 PUSH1 0x40 MSTORE POP POP POP JUMP JUMPDEST PUSH0 PUSH2 0x834 PUSH2 0x769 JUMP JUMPDEST SWAP1 POP PUSH2 0x840 DUP3 DUP3 PUSH2 0x7FA JUMP JUMPDEST SWAP2 SWAP1 POP JUMP JUMPDEST PUSH0 PUSH8 0xFFFFFFFFFFFFFFFF DUP3 GT ISZERO PUSH2 0x85F JUMPI PUSH2 0x85E PUSH2 0x7CD JUMP JUMPDEST JUMPDEST PUSH2 0x868 DUP3 PUSH2 0x7BD JUMP JUMPDEST SWAP1 POP PUSH1 0x20 DUP2 ADD SWAP1 POP SWAP2 SWAP1 POP JUMP JUMPDEST DUP3 DUP2 DUP4 CALLDATACOPY PUSH0 DUP4 DUP4 ADD MSTORE POP POP POP JUMP JUMPDEST PUSH0 PUSH2 0x895 PUSH2 0x890 DUP5 PUSH2 0x845 JUMP JUMPDEST PUSH2 0x82B JUMP JUMPDEST SWAP1 POP DUP3 DUP2 MSTORE PUSH1 0x20 DUP2 ADD DUP5 DUP5 DUP5 ADD GT ISZERO PUSH2 0x8B1 JUMPI PUSH2 0x8B0 PUSH2 0x7B9 JUMP JUMPDEST JUMPDEST PUSH2 0x8BC DUP5 DUP3 DUP6 PUSH2 0x875 JUMP JUMPDEST POP SWAP4 SWAP3 POP POP POP JUMP JUMPDEST PUSH0 DUP3 PUSH1 0x1F DUP4 ADD SLT PUSH2 0x8D8 JUMPI PUSH2 0x8D7 PUSH2 0x7B5 JUMP JUMPDEST JUMPDEST DUP2 CALLDATALOAD PUSH2 0x8E8 DUP5 DUP3 PUSH1 0x20 DUP7 ADD PUSH2 0x883 JUMP JUMPDEST SWAP2 POP POP SWAP3 SWAP2 POP POP JUMP JUMPDEST PUSH0 PUSH0 PUSH1 0x40 DUP4 DUP6 SUB SLT ISZERO PUSH2 0x907 JUMPI PUSH2 0x906 PUSH2 0x772 JUMP JUMPDEST JUMPDEST PUSH0 PUSH2 0x914 DUP6 DUP3 DUP7 ADD PUSH2 0x7A1 JUMP JUMPDEST SWAP3 POP POP PUSH1 0x20 DUP4 ADD CALLDATALOAD PUSH8 0xFFFFFFFFFFFFFFFF DUP2 GT ISZERO PUSH2 0x935 JUMPI PUSH2 0x934 PUSH2 0x776 JUMP JUMPDEST JUMPDEST PUSH2 0x941 DUP6 DUP3 DUP7 ADD PUSH2 0x8C4 JUMP JUMPDEST SWAP2 POP POP SWAP3 POP SWAP3 SWAP1 POP JUMP JUMPDEST PUSH0 PUSH2 0x955 DUP3 PUSH2 0x6D6 JUMP JUMPDEST SWAP1 POP SWAP2 SWAP1 POP JUMP JUMPDEST PUSH2 0x965 DUP2 PUSH2 0x94B JUMP JUMPDEST DUP3 MSTORE POP POP JUMP JUMPDEST PUSH0 PUSH1 0x20 DUP3 ADD SWAP1 POP PUSH2 0x97E PUSH0 DUP4 ADD DUP5 PUSH2 0x95C JUMP JUMPDEST SWAP3 SWAP2 POP POP JUMP JUMPDEST PUSH0 DUP2 SWAP1 POP SWAP2 SWAP1 POP JUMP JUMPDEST PUSH2 0x996 DUP2 PUSH2 0x984 JUMP JUMPDEST DUP2 EQ PUSH2 0x9A0 JUMPI PUSH0 PUSH0 REVERT JUMPDEST POP JUMP JUMPDEST PUSH0 DUP2 CALLDATALOAD SWAP1 POP PUSH2 0x9B1 DUP2 PUSH2 0x98D JUMP JUMPDEST SWAP3 SWAP2 POP POP JUMP JUMPDEST PUSH0 PUSH0 PUSH1 0x40 DUP4 DUP6 SUB SLT ISZERO PUSH2 0x9CD JUMPI PUSH2 0x9CC PUSH2 0x772 JUMP JUMPDEST JUMPDEST PUSH0 PUSH2 0x9DA DUP6 DUP3 DUP7 ADD PUSH2 0x7A1 JUMP JUMPDEST SWAP3 POP POP PUSH1 0x20 PUSH2 0x9EB DUP6 DUP3 DUP7 ADD PUSH2 0x9A3 JUMP JUMPDEST SWAP2 POP POP SWAP3 POP SWAP3 SWAP1 POP JUMP JUMPDEST PUSH0 DUP3 DUP3 MSTORE PUSH1 0x20 DUP3 ADD SWAP1 POP SWAP3 SWAP2 POP POP JUMP JUMPDEST PUSH32 0x596F7520617265206E6F7420746865206F776E65720000000000000000000000 PUSH0 DUP3 ADD MSTORE POP JUMP JUMPDEST PUSH0 PUSH2 0xA39 PUSH1 0x15 DUP4 PUSH2 0x9F5 JUMP JUMPDEST SWAP2 POP PUSH2 0xA44 DUP3 PUSH2 0xA05 JUMP JUMPDEST PUSH1 0x20 DUP3 ADD SWAP1 POP SWAP2 SWAP1 POP JUMP JUMPDEST PUSH0 PUSH1 0x20 DUP3 ADD SWAP1 POP DUP2 DUP2 SUB PUSH0 DUP4 ADD MSTORE PUSH2 0xA66 DUP2 PUSH2 0xA2D JUMP JUMPDEST SWAP1 POP SWAP2 SWAP1 POP JUMP JUMPDEST PUSH32 0x50617373656E67657220697320616C7265616479207265676973746572656400 PUSH0 DUP3 ADD MSTORE POP JUMP JUMPDEST PUSH0 PUSH2 0xAA1 PUSH1 0x1F DUP4 PUSH2 0x9F5 JUMP JUMPDEST SWAP2 POP PUSH2 0xAAC DUP3 PUSH2 0xA6D JUMP JUMPDEST PUSH1 0x20 DUP3 ADD SWAP1 POP SWAP2 SWAP1 POP JUMP JUMPDEST PUSH0 PUSH1 0x20 DUP3 ADD SWAP1 POP DUP2 DUP2 SUB PUSH0 DUP4 ADD MSTORE PUSH2 0xACE DUP2 PUSH2 0xA95 JUMP JUMPDEST SWAP1 POP SWAP2 SWAP1 POP JUMP JUMPDEST PUSH0 DUP2 MLOAD SWAP1 POP SWAP2 SWAP1 POP JUMP JUMPDEST PUSH32 0x4E487B7100000000000000000000000000000000000000000000000000000000 PUSH0 MSTORE PUSH1 0x22 PUSH1 0x4 MSTORE PUSH1 0x24 PUSH0 REVERT JUMPDEST PUSH0 PUSH1 0x2 DUP3 DIV SWAP1 POP PUSH1 0x1 DUP3 AND DUP1 PUSH2 0xB23 JUMPI PUSH1 0x7F DUP3 AND SWAP2 POP JUMPDEST PUSH1 0x20 DUP3 LT DUP2 SUB PUSH2 0xB36 JUMPI PUSH2 0xB35 PUSH2 0xADF JUMP JUMPDEST JUMPDEST POP SWAP2 SWAP1 POP JUMP JUMPDEST PUSH0 DUP2 SWAP1 POP DUP2 PUSH0 MSTORE PUSH1 0x20 PUSH0 KECCAK256 SWAP1 POP SWAP2 SWAP1 POP JUMP JUMPDEST PUSH0 PUSH1 0x20 PUSH1 0x1F DUP4 ADD DIV SWAP1 POP SWAP2 SWAP1 POP JUMP JUMPDEST PUSH0 DUP3 DUP3 SHL SWAP1 POP SWAP3 SWAP2 POP POP JUMP JUMPDEST PUSH0 PUSH1 0x8 DUP4 MUL PUSH2 0xB98 PUSH32 0xFFFFFFFFFFFFFFFFFFFFFFFFFFFFFFFFFFFFFFFFFFFFFFFFFFFFFFFFFFFFFFFF DUP3 PUSH2 0xB5D JUMP JUMPDEST PUSH2 0xBA2 DUP7 DUP4 PUSH2 0xB5D JUMP JUMPDEST SWAP6 POP DUP1 NOT DUP5 AND SWAP4 POP DUP1 DUP7 AND DUP5 OR SWAP3 POP POP POP SWAP4 SWAP3 POP POP POP JUMP JUMPDEST PUSH0 PUSH2 0xBD4 PUSH2 0xBCF PUSH2 0xBCA DUP5 PUSH2 0x984 JUMP JUMPDEST PUSH2 0x6F5 JUMP JUMPDEST PUSH2 0x984 JUMP JUMPDEST SWAP1 POP SWAP2 SWAP1 POP JUMP JUMPDEST PUSH0 DUP2 SWAP1 POP SWAP2 SWAP1 POP JUMP JUMPDEST PUSH2 0xBED DUP4 PUSH2 0xBBA JUMP JUMPDEST PUSH2 0xC01 PUSH2 0xBF9 DUP3 PUSH2 0xBDB JUMP JUMPDEST DUP5 DUP5 SLOAD PUSH2 0xB69 JUMP JUMPDEST DUP3 SSTORE POP POP POP POP JUMP JUMPDEST PUSH0 PUSH0 SWAP1 POP SWAP1 JUMP JUMPDEST PUSH2 0xC18 PUSH2 0xC09 JUMP JUMPDEST PUSH2 0xC23 DUP2 DUP5 DUP5 PUSH2 0xBE4 JUMP JUMPDEST POP POP POP JUMP JUMPDEST JUMPDEST DUP2 DUP2 LT ISZERO PUSH2 0xC46 JUMPI PUSH2 0xC3B PUSH0 DUP3 PUSH2 0xC10 JUMP JUMPDEST PUSH1 0x1 DUP2 ADD SWAP1 POP PUSH2 0xC29 JUMP JUMPDEST POP POP JUMP JUMPDEST PUSH1 0x1F DUP3 GT ISZERO PUSH2 0xC8B JUMPI PUSH2 0xC5C DUP2 PUSH2 0xB3C JUMP JUMPDEST PUSH2 0xC65 DUP5 PUSH2 0xB4E JUMP JUMPDEST DUP2 ADD PUSH1 0x20 DUP6 LT ISZERO PUSH2 0xC74 JUMPI DUP2 SWAP1 POP JUMPDEST PUSH2 0xC88 PUSH2 0xC80 DUP6 PUSH2 0xB4E JUMP JUMPDEST DUP4 ADD DUP3 PUSH2 0xC28 JUMP JUMPDEST POP POP JUMPDEST POP POP POP JUMP JUMPDEST PUSH0 DUP3 DUP3 SHR SWAP1 POP SWAP3 SWAP2 POP POP JUMP JUMPDEST PUSH0 PUSH2 0xCAB PUSH0 NOT DUP5 PUSH1 0x8 MUL PUSH2 0xC90 JUMP JUMPDEST NOT DUP1 DUP4 AND SWAP2 POP POP SWAP3 SWAP2 POP POP JUMP JUMPDEST PUSH0 PUSH2 0xCC3 DUP4 DUP4 PUSH2 0xC9C JUMP JUMPDEST SWAP2 POP DUP3 PUSH1 0x2 MUL DUP3 OR SWAP1 POP SWAP3 SWAP2 POP POP JUMP JUMPDEST PUSH2 0xCDC DUP3 PUSH2 0xAD5 JUMP JUMPDEST PUSH8 0xFFFFFFFFFFFFFFFF DUP2 GT ISZERO PUSH2 0xCF5 JUMPI PUSH2 0xCF4 PUSH2 0x7CD JUMP JUMPDEST JUMPDEST PUSH2 0xCFF DUP3 SLOAD PUSH2 0xB0C JUMP JUMPDEST PUSH2 0xD0A DUP3 DUP3 DUP6 PUSH2 0xC4A JUMP JUMPDEST PUSH0 PUSH1 0x20 SWAP1 POP PUSH1 0x1F DUP4 GT PUSH1 0x1 DUP2 EQ PUSH2 0xD3B JUMPI PUSH0 DUP5 ISZERO PUSH2 0xD29 JUMPI DUP3 DUP8 ADD MLOAD SWAP1 POP JUMPDEST PUSH2 0xD33 DUP6 DUP3 PUSH2 0xCB8 JUMP JUMPDEST DUP7 SSTORE POP PUSH2 0xD9A JUMP JUMPDEST PUSH1 0x1F NOT DUP5 AND PUSH2 0xD49 DUP7 PUSH2 0xB3C JUMP JUMPDEST PUSH0 JUMPDEST DUP3 DUP2 LT ISZERO PUSH2 0xD70 JUMPI DUP5 DUP10 ADD MLOAD DUP3 SSTORE PUSH1 0x1 DUP3 ADD SWAP2 POP PUSH1 0x20 DUP6 ADD SWAP5 POP PUSH1 0x20 DUP2 ADD SWAP1 POP PUSH2 0xD4B JUMP JUMPDEST DUP7 DUP4 LT ISZERO PUSH2 0xD8D JUMPI DUP5 DUP10 ADD MLOAD PUSH2 0xD89 PUSH1 0x1F DUP10 AND DUP3 PUSH2 0xC9C JUMP JUMPDEST DUP4 SSTORE POP JUMPDEST PUSH1 0x1 PUSH1 0x2 DUP9 MUL ADD DUP9 SSTORE POP POP POP JUMPDEST POP POP POP POP POP POP JUMP JUMPDEST PUSH2 0xDAB DUP2 PUSH2 0x77A JUMP JUMPDEST DUP3 MSTORE POP POP JUMP JUMPDEST PUSH2 0xDBA DUP2 PUSH2 0x984 JUMP JUMPDEST DUP3 MSTORE POP POP JUMP JUMPDEST PUSH0 PUSH1 0x40 DUP3 ADD SWAP1 POP PUSH2 0xDD3 PUSH0 DUP4 ADD DUP6 PUSH2 0xDA2 JUMP JUMPDEST PUSH2 0xDE0 PUSH1 0x20 DUP4 ADD DUP5 PUSH2 0xDB1 JUMP JUMPDEST SWAP4 SWAP3 POP POP POP JUMP JUMPDEST PUSH32 0x4E487B7100000000000000000000000000000000000000000000000000000000 PUSH0 MSTORE PUSH1 0x11 PUSH1 0x4 MSTORE PUSH1 0x24 PUSH0 REVERT JUMPDEST PUSH0 PUSH2 0xE1E DUP3 PUSH2 0x984 JUMP JUMPDEST SWAP2 POP PUSH2 0xE29 DUP4 PUSH2 0x984 JUMP JUMPDEST SWAP3 POP DUP3 DUP3 ADD SWAP1 POP DUP1 DUP3 GT ISZERO PUSH2 0xE41 JUMPI PUSH2 0xE40 PUSH2 0xDE7 JUMP JUMPDEST JUMPDEST SWAP3 SWAP2 POP POP JUMP JUMPDEST PUSH32 0x4E6F7420656E6F756768206D696C657300000000000000000000000000000000 PUSH0 DUP3 ADD MSTORE POP JUMP JUMPDEST PUSH0 PUSH2 0xE7B PUSH1 0x10 DUP4 PUSH2 0x9F5 JUMP JUMPDEST SWAP2 POP PUSH2 0xE86 DUP3 PUSH2 0xE47 JUMP JUMPDEST PUSH1 0x20 DUP3 ADD SWAP1 POP SWAP2 SWAP1 POP JUMP JUMPDEST PUSH0 PUSH1 0x20 DUP3 ADD SWAP1 POP DUP2 DUP2 SUB PUSH0 DUP4 ADD MSTORE PUSH2 0xEA8 DUP2 PUSH2 0xE6F JUMP JUMPDEST SWAP1 POP SWAP2 SWAP1 POP JUMP JUMPDEST PUSH0 PUSH2 0xEB9 DUP3 PUSH2 0x984 JUMP JUMPDEST SWAP2 POP PUSH2 0xEC4 DUP4 PUSH2 0x984 JUMP JUMPDEST SWAP3 POP DUP3 DUP3 SUB SWAP1 POP DUP2 DUP2 GT ISZERO PUSH2 0xEDC JUMPI PUSH2 0xEDB PUSH2 0xDE7 JUMP JUMPDEST JUMPDEST SWAP3 SWAP2 POP POP JUMP INVALID LOG2 PUSH5 0x6970667358 0x22 SLT KECCAK256 DUP2 LOG3 PUSH18 0xACF391F55F5EA68C1286626EEFFE7F037180 PUSH19 0xF7703A1009ECA66CCC2164736F6C634300081F STOP CALLER PUSH1 0x80 PUSH1 0x40 MSTORE CALLVALUE DUP1 ISZERO PUSH2 0xF JUMPI PUSH0 PUSH0 REVERT JUMPDEST POP PUSH1 0x40 MLOAD PUSH2 0x1D27 CODESIZE SUB DUP1 PUSH2 0x1D27 DUP4 CODECOPY DUP2 DUP2 ADD PUSH1 0x40 MSTORE DUP2 ADD SWAP1 PUSH2 0x31 SWAP2 SWAP1 PUSH2 0x37B JUMP JUMPDEST DUP4 PUSH0 SWAP1 DUP2 PUSH2 0x3F SWAP2 SWAP1 PUSH2 0x61E JUMP JUMPDEST POP DUP3 PUSH1 0x1 SWAP1 DUP2 PUSH2 0x4F SWAP2 SWAP1 PUSH2 0x61E JUMP JUMPDEST POP DUP2 PUSH1 0x2 PUSH0 PUSH2 0x100 EXP DUP2 SLOAD DUP2 PUSH1 0xFF MUL NOT AND SWAP1 DUP4 PUSH1 0xFF AND MUL OR SWAP1 SSTORE POP PUSH2 0x7A CALLER DUP3 PUSH2 0x83 PUSH1 0x20 SHL PUSH1 0x20 SHR JUMP JUMPDEST POP POP POP POP PUSH2 0x7ED JUMP JUMPDEST PUSH0 PUSH20 0xFFFFFFFFFFFFFFFFFFFFFFFFFFFFFFFFFFFFFFFF AND DUP3 PUSH20 0xFFFFFFFFFFFFFFFFFFFFFFFFFFFFFFFFFFFFFFFF AND SUB PUSH2 0xF1 JUMPI PUSH1 0x40 MLOAD PUSH32 0x8C379A000000000000000000000000000000000000000000000000000000000 DUP2 MSTORE PUSH1 0x4 ADD PUSH2 0xE8 SWAP1 PUSH2 0x747 JUMP JUMPDEST PUSH1 0x40 MLOAD DUP1 SWAP2 SUB SWAP1 REVERT JUMPDEST DUP1 PUSH1 0x3 PUSH0 DUP3 DUP3 SLOAD PUSH2 0x102 SWAP2 SWAP1 PUSH2 0x792 JUMP JUMPDEST SWAP3 POP POP DUP2 SWAP1 SSTORE POP DUP1 PUSH1 0x4 PUSH0 DUP5 PUSH20 0xFFFFFFFFFFFFFFFFFFFFFFFFFFFFFFFFFFFFFFFF AND PUSH20 0xFFFFFFFFFFFFFFFFFFFFFFFFFFFFFFFFFFFFFFFF AND DUP2 MSTORE PUSH1 0x20 ADD SWAP1 DUP2 MSTORE PUSH1 0x20 ADD PUSH0 KECCAK256 PUSH0 DUP3 DUP3 SLOAD PUSH2 0x155 SWAP2 SWAP1 PUSH2 0x792 JUMP JUMPDEST SWAP3 POP POP DUP2 SWAP1 SSTORE POP DUP2 PUSH20 0xFFFFFFFFFFFFFFFFFFFFFFFFFFFFFFFFFFFFFFFF AND PUSH0 PUSH20 0xFFFFFFFFFFFFFFFFFFFFFFFFFFFFFFFFFFFFFFFF AND PUSH32 0xDDF252AD1BE2C89B69C2B068FC378DAA952BA7F163C4A11628F55A4DF523B3EF DUP4 PUSH1 0x40 MLOAD PUSH2 0x1B9 SWAP2 SWAP1 PUSH2 0x7D4 JUMP JUMPDEST PUSH1 0x40 MLOAD DUP1 SWAP2 SUB SWAP1 LOG3 POP POP JUMP JUMPDEST PUSH0 PUSH1 0x40 MLOAD SWAP1 POP SWAP1 JUMP JUMPDEST PUSH0 PUSH0 REVERT JUMPDEST PUSH0 PUSH0 REVERT JUMPDEST PUSH0 PUSH0 REVERT JUMPDEST PUSH0 PUSH0 REVERT JUMPDEST PUSH0 PUSH1 0x1F NOT PUSH1 0x1F DUP4 ADD AND SWAP1 POP SWAP2 SWAP1 POP JUMP JUMPDEST PUSH32 0x4E487B7100000000000000000000000000000000000000000000000000000000 PUSH0 MSTORE PUSH1 0x41 PUSH1 0x4 MSTORE PUSH1 0x24 PUSH0 REVERT JUMPDEST PUSH2 0x224 DUP3 PUSH2 0x1DE JUMP JUMPDEST DUP2 ADD DUP2 DUP2 LT PUSH8 0xFFFFFFFFFFFFFFFF DUP3 GT OR ISZERO PUSH2 0x243 JUMPI PUSH2 0x242 PUSH2 0x1EE JUMP JUMPDEST JUMPDEST DUP1 PUSH1 0x40 MSTORE POP POP POP JUMP JUMPDEST PUSH0 PUSH2 0x255 PUSH2 0x1C5 JUMP JUMPDEST SWAP1 POP PUSH2 0x261 DUP3 DUP3 PUSH2 0x21B JUMP JUMPDEST SWAP2 SWAP1 POP JUMP JUMPDEST PUSH0 PUSH8 0xFFFFFFFFFFFFFFFF DUP3 GT ISZERO PUSH2 0x280 JUMPI PUSH2 0x27F PUSH2 0x1EE JUMP JUMPDEST JUMPDEST PUSH2 0x289 DUP3 PUSH2 0x1DE JUMP JUMPDEST SWAP1 POP PUSH1 0x20 DUP2 ADD SWAP1 POP SWAP2 SWAP1 POP JUMP JUMPDEST DUP3 DUP2 DUP4 MCOPY PUSH0 DUP4 DUP4 ADD MSTORE POP POP POP JUMP JUMPDEST PUSH0 PUSH2 0x2B6 PUSH2 0x2B1 DUP5 PUSH2 0x266 JUMP JUMPDEST PUSH2 0x24C JUMP JUMPDEST SWAP1 POP DUP3 DUP2 MSTORE PUSH1 0x20 DUP2 ADD DUP5 DUP5 DUP5 ADD GT ISZERO PUSH2 0x2D2 JUMPI PUSH2 0x2D1 PUSH2 0x1DA JUMP JUMPDEST JUMPDEST PUSH2 0x2DD DUP5 DUP3 DUP6 PUSH2 0x296 JUMP JUMPDEST POP SWAP4 SWAP3 POP POP POP JUMP JUMPDEST PUSH0 DUP3 PUSH1 0x1F DUP4 ADD SLT PUSH2 0x2F9 JUMPI PUSH2 0x2F8 PUSH2 0x1D6 JUMP JUMPDEST JUMPDEST DUP2 MLOAD PUSH2 0x309 DUP5 DUP3 PUSH1 0x20 DUP7 ADD PUSH2 0x2A4 JUMP JUMPDEST SWAP2 POP POP SWAP3 SWAP2 POP POP JUMP JUMPDEST PUSH0 PUSH1 0xFF DUP3 AND SWAP1 POP SWAP2 SWAP1 POP JUMP JUMPDEST PUSH2 0x327 DUP2 PUSH2 0x312 JUMP JUMPDEST DUP2 EQ PUSH2 0x331 JUMPI PUSH0 PUSH0 REVERT JUMPDEST POP JUMP JUMPDEST PUSH0 DUP2 MLOAD SWAP1 POP PUSH2 0x342 DUP2 PUSH2 0x31E JUMP JUMPDEST SWAP3 SWAP2 POP POP JUMP JUMPDEST PUSH0 DUP2 SWAP1 POP SWAP2 SWAP1 POP JUMP JUMPDEST PUSH2 0x35A DUP2 PUSH2 0x348 JUMP JUMPDEST DUP2 EQ PUSH2 0x364 JUMPI PUSH0 PUSH0 REVERT JUMPDEST POP JUMP JUMPDEST PUSH0 DUP2 MLOAD SWAP1 POP PUSH2 0x375 DUP2 PUSH2 0x351 JUMP JUMPDEST SWAP3 SWAP2 POP POP JUMP JUMPDEST PUSH0 PUSH0 PUSH0 PUSH0 PUSH1 0x80 DUP6 DUP8 SUB SLT ISZERO PUSH2 0x393 JUMPI PUSH2 0x392 PUSH2 0x1CE JUMP JUMPDEST JUMPDEST PUSH0 DUP6 ADD MLOAD PUSH8 0xFFFFFFFFFFFFFFFF DUP2 GT ISZERO PUSH2 0x3B0 JUMPI PUSH2 0x3AF PUSH2 0x1D2 JUMP JUMPDEST JUMPDEST PUSH2 0x3BC DUP8 DUP3 DUP9 ADD PUSH2 0x2E5 JUMP JUMPDEST SWAP5 POP POP PUSH1 0x20 DUP6 ADD MLOAD PUSH8 0xFFFFFFFFFFFFFFFF DUP2 GT ISZERO PUSH2 0x3DD JUMPI PUSH2 0x3DC PUSH2 0x1D2 JUMP JUMPDEST JUMPDEST PUSH2 0x3E9 DUP8 DUP3 DUP9 ADD PUSH2 0x2E5 JUMP JUMPDEST SWAP4 POP POP PUSH1 0x40 PUSH2 0x3FA DUP8 DUP3 DUP9 ADD PUSH2 0x334 JUMP JUMPDEST SWAP3 POP POP PUSH1 0x60 PUSH2 0x40B DUP8 DUP3 DUP9 ADD PUSH2 0x367 JUMP JUMPDEST SWAP2 POP POP SWAP3 SWAP6 SWAP2 SWAP5 POP SWAP3 POP JUMP JUMPDEST PUSH0 DUP2 MLOAD SWAP1 POP SWAP2 SWAP1 POP JUMP JUMPDEST PUSH32 0x4E487B7100000000000000000000000000000000000000000000000000000000 PUSH0 MSTORE PUSH1 0x22 PUSH1 0x4 MSTORE PUSH1 0x24 PUSH0 REVERT JUMPDEST PUSH0 PUSH1 0x2 DUP3 DIV SWAP1 POP PUSH1 0x1 DUP3 AND DUP1 PUSH2 0x465 JUMPI PUSH1 0x7F DUP3 AND SWAP2 POP JUMPDEST PUSH1 0x20 DUP3 LT DUP2 SUB PUSH2 0x478 JUMPI PUSH2 0x477 PUSH2 0x421 JUMP JUMPDEST JUMPDEST POP SWAP2 SWAP1 POP JUMP JUMPDEST PUSH0 DUP2 SWAP1 POP DUP2 PUSH0 MSTORE PUSH1 0x20 PUSH0 KECCAK256 SWAP1 POP SWAP2 SWAP1 POP JUMP JUMPDEST PUSH0 PUSH1 0x20 PUSH1 0x1F DUP4 ADD DIV SWAP1 POP SWAP2 SWAP1 POP JUMP JUMPDEST PUSH0 DUP3 DUP3 SHL SWAP1 POP SWAP3 SWAP2 POP POP JUMP JUMPDEST PUSH0 PUSH1 0x8 DUP4 MUL PUSH2 0x4DA PUSH32 0xFFFFFFFFFFFFFFFFFFFFFFFFFFFFFFFFFFFFFFFFFFFFFFFFFFFFFFFFFFFFFFFF DUP3 PUSH2 0x49F JUMP JUMPDEST PUSH2 0x4E4 DUP7 DUP4 PUSH2 0x49F JUMP JUMPDEST SWAP6 POP DUP1 NOT DUP5 AND SWAP4 POP DUP1 DUP7 AND DUP5 OR SWAP3 POP POP POP SWAP4 SWAP3 POP POP POP JUMP JUMPDEST PUSH0 DUP2 SWAP1 POP SWAP2 SWAP1 POP JUMP JUMPDEST PUSH0 PUSH2 0x51F PUSH2 0x51A PUSH2 0x515 DUP5 PUSH2 0x348 JUMP JUMPDEST PUSH2 0x4FC JUMP JUMPDEST PUSH2 0x348 JUMP JUMPDEST SWAP1 POP SWAP2 SWAP1 POP JUMP JUMPDEST PUSH0 DUP2 SWAP1 POP SWAP2 SWAP1 POP JUMP JUMPDEST PUSH2 0x538 DUP4 PUSH2 0x505 JUMP JUMPDEST PUSH2 0x54C PUSH2 0x544 DUP3 PUSH2 0x526 JUMP JUMPDEST DUP5 DUP5 SLOAD PUSH2 0x4AB JUMP JUMPDEST DUP3 SSTORE POP POP POP POP JUMP JUMPDEST PUSH0 PUSH0 SWAP1 POP SWAP1 JUMP JUMPDEST PUSH2 0x563 PUSH2 0x554 JUMP JUMPDEST PUSH2 0x56E DUP2 DUP5 DUP5 PUSH2 0x52F JUMP JUMPDEST POP POP POP JUMP JUMPDEST JUMPDEST DUP2 DUP2 LT ISZERO PUSH2 0x591 JUMPI PUSH2 0x586 PUSH0 DUP3 PUSH2 0x55B JUMP JUMPDEST PUSH1 0x1 DUP2 ADD SWAP1 POP PUSH2 0x574 JUMP JUMPDEST POP POP JUMP JUMPDEST PUSH1 0x1F DUP3 GT ISZERO PUSH2 0x5D6 JUMPI PUSH2 0x5A7 DUP2 PUSH2 0x47E JUMP JUMPDEST PUSH2 0x5B0 DUP5 PUSH2 0x490 JUMP JUMPDEST DUP2 ADD PUSH1 0x20 DUP6 LT ISZERO PUSH2 0x5BF JUMPI DUP2 SWAP1 POP JUMPDEST PUSH2 0x5D3 PUSH2 0x5CB DUP6 PUSH2 0x490 JUMP JUMPDEST DUP4 ADD DUP3 PUSH2 0x573 JUMP JUMPDEST POP POP JUMPDEST POP POP POP JUMP JUMPDEST PUSH0 DUP3 DUP3 SHR SWAP1 POP SWAP3 SWAP2 POP POP JUMP JUMPDEST PUSH0 PUSH2 0x5F6 PUSH0 NOT DUP5 PUSH1 0x8 MUL PUSH2 0x5DB JUMP JUMPDEST NOT DUP1 DUP4 AND SWAP2 POP POP SWAP3 SWAP2 POP POP JUMP JUMPDEST PUSH0 PUSH2 0x60E DUP4 DUP4 PUSH2 0x5E7 JUMP JUMPDEST SWAP2 POP DUP3 PUSH1 0x2 MUL DUP3 OR SWAP1 POP SWAP3 SWAP2 POP POP JUMP JUMPDEST PUSH2 0x627 DUP3 PUSH2 0x417 JUMP JUMPDEST PUSH8 0xFFFFFFFFFFFFFFFF DUP2 GT ISZERO PUSH2 0x640 JUMPI PUSH2 0x63F PUSH2 0x1EE JUMP JUMPDEST JUMPDEST PUSH2 0x64A DUP3 SLOAD PUSH2 0x44E JUMP JUMPDEST PUSH2 0x655 DUP3 DUP3 DUP6 PUSH2 0x595 JUMP JUMPDEST PUSH0 PUSH1 0x20 SWAP1 POP PUSH1 0x1F DUP4 GT PUSH1 0x1 DUP2 EQ PUSH2 0x686 JUMPI PUSH0 DUP5 ISZERO PUSH2 0x674 JUMPI DUP3 DUP8 ADD MLOAD SWAP1 POP JUMPDEST PUSH2 0x67E DUP6 DUP3 PUSH2 0x603 JUMP JUMPDEST DUP7 SSTORE POP PUSH2 0x6E5 JUMP JUMPDEST PUSH1 0x1F NOT DUP5 AND PUSH2 0x694 DUP7 PUSH2 0x47E JUMP JUMPDEST PUSH0 JUMPDEST DUP3 DUP2 LT ISZERO PUSH2 0x6BB JUMPI DUP5 DUP10 ADD MLOAD DUP3 SSTORE PUSH1 0x1 DUP3 ADD SWAP2 POP PUSH1 0x20 DUP6 ADD SWAP5 POP PUSH1 0x20 DUP2 ADD SWAP1 POP PUSH2 0x696 JUMP JUMPDEST DUP7 DUP4 LT ISZERO PUSH2 0x6D8 JUMPI DUP5 DUP10 ADD MLOAD PUSH2 0x6D4 PUSH1 0x1F DUP10 AND DUP3 PUSH2 0x5E7 JUMP JUMPDEST DUP4 SSTORE POP JUMPDEST PUSH1 0x1 PUSH1 0x2 DUP9 MUL ADD DUP9 SSTORE POP POP POP JUMPDEST POP POP POP POP POP POP JUMP JUMPDEST PUSH0 DUP3 DUP3 MSTORE PUSH1 0x20 DUP3 ADD SWAP1 POP SWAP3 SWAP2 POP POP JUMP JUMPDEST PUSH32 0x45524332303A206D696E7420746F20746865207A65726F206164647265737300 PUSH0 DUP3 ADD MSTORE POP JUMP JUMPDEST PUSH0 PUSH2 0x731 PUSH1 0x1F DUP4 PUSH2 0x6ED JUMP JUMPDEST SWAP2 POP PUSH2 0x73C DUP3 PUSH2 0x6FD JUMP JUMPDEST PUSH1 0x20 DUP3 ADD SWAP1 POP SWAP2 SWAP1 POP JUMP JUMPDEST PUSH0 PUSH1 0x20 DUP3 ADD SWAP1 POP DUP2 DUP2 SUB PUSH0 DUP4 ADD MSTORE PUSH2 0x75E DUP2 PUSH2 0x725 JUMP JUMPDEST SWAP1 POP SWAP2 SWAP1 POP JUMP JUMPDEST PUSH32 0x4E487B7100000000000000000000000000000000000000000000000000000000 PUSH0 MSTORE PUSH1 0x11 PUSH1 0x4 MSTORE PUSH1 0x24 PUSH0 REVERT JUMPDEST PUSH0 PUSH2 0x79C DUP3 PUSH2 0x348 JUMP JUMPDEST SWAP2 POP PUSH2 0x7A7 DUP4 PUSH2 0x348 JUMP JUMPDEST SWAP3 POP DUP3 DUP3 ADD SWAP1 POP DUP1 DUP3 GT ISZERO PUSH2 0x7BF JUMPI PUSH2 0x7BE PUSH2 0x765 JUMP JUMPDEST JUMPDEST SWAP3 SWAP2 POP POP JUMP JUMPDEST PUSH2 0x7CE DUP2 PUSH2 0x348 JUMP JUMPDEST DUP3 MSTORE POP POP JUMP JUMPDEST PUSH0 PUSH1 0x20 DUP3 ADD SWAP1 POP PUSH2 0x7E7 PUSH0 DUP4 ADD DUP5 PUSH2 0x7C5 JUMP JUMPDEST SWAP3 SWAP2 POP POP JUMP JUMPDEST PUSH2 0x152D DUP1 PUSH2 0x7FA PUSH0 CODECOPY PUSH0 RETURN INVALID PUSH1 0x80 PUSH1 0x40 MSTORE CALLVALUE DUP1 ISZERO PUSH2 0xF JUMPI PUSH0 PUSH0 REVERT JUMPDEST POP PUSH1 0x4 CALLDATASIZE LT PUSH2 0xA7 JUMPI PUSH0 CALLDATALOAD PUSH1 0xE0 SHR DUP1 PUSH4 0x40C10F19 GT PUSH2 0x6F JUMPI DUP1 PUSH4 0x40C10F19 EQ PUSH2 0x165 JUMPI DUP1 PUSH4 0x70A08231 EQ PUSH2 0x181 JUMPI DUP1 PUSH4 0x95D89B41 EQ PUSH2 0x1B1 JUMPI DUP1 PUSH4 0x9DC29FAC EQ PUSH2 0x1CF JUMPI DUP1 PUSH4 0xA9059CBB EQ PUSH2 0x1EB JUMPI DUP1 PUSH4 0xDD62ED3E EQ PUSH2 0x21B JUMPI PUSH2 0xA7 JUMP JUMPDEST DUP1 PUSH4 0x6FDDE03 EQ PUSH2 0xAB JUMPI DUP1 PUSH4 0x95EA7B3 EQ PUSH2 0xC9 JUMPI DUP1 PUSH4 0x18160DDD EQ PUSH2 0xF9 JUMPI DUP1 PUSH4 0x23B872DD EQ PUSH2 0x117 JUMPI DUP1 PUSH4 0x313CE567 EQ PUSH2 0x147 JUMPI JUMPDEST PUSH0 PUSH0 REVERT JUMPDEST PUSH2 0xB3 PUSH2 0x24B JUMP JUMPDEST PUSH1 0x40 MLOAD PUSH2 0xC0 SWAP2 SWAP1 PUSH2 0xDF8 JUMP JUMPDEST PUSH1 0x40 MLOAD DUP1 SWAP2 SUB SWAP1 RETURN JUMPDEST PUSH2 0xE3 PUSH1 0x4 DUP1 CALLDATASIZE SUB DUP2 ADD SWAP1 PUSH2 0xDE SWAP2 SWAP1 PUSH2 0xEA9 JUMP JUMPDEST PUSH2 0x2DA JUMP JUMPDEST PUSH1 0x40 MLOAD PUSH2 0xF0 SWAP2 SWAP1 PUSH2 0xF01 JUMP JUMPDEST PUSH1 0x40 MLOAD DUP1 SWAP2 SUB SWAP1 RETURN JUMPDEST PUSH2 0x101 PUSH2 0x435 JUMP JUMPDEST PUSH1 0x40 MLOAD PUSH2 0x10E SWAP2 SWAP1 PUSH2 0xF29 JUMP JUMPDEST PUSH1 0x40 MLOAD DUP1 SWAP2 SUB SWAP1 RETURN JUMPDEST PUSH2 0x131 PUSH1 0x4 DUP1 CALLDATASIZE SUB DUP2 ADD SWAP1 PUSH2 0x12C SWAP2 SWAP1 PUSH2 0xF42 JUMP JUMPDEST PUSH2 0x43E JUMP JUMPDEST PUSH1 0x40 MLOAD PUSH2 0x13E SWAP2 SWAP1 PUSH2 0xF01 JUMP JUMPDEST PUSH1 0x40 MLOAD DUP1 SWAP2 SUB SWAP1 RETURN JUMPDEST PUSH2 0x14F PUSH2 0x67A JUMP JUMPDEST PUSH1 0x40 MLOAD PUSH2 0x15C SWAP2 SWAP1 PUSH2 0xFAD JUMP JUMPDEST PUSH1 0x40 MLOAD DUP1 SWAP2 SUB SWAP1 RETURN JUMPDEST PUSH2 0x17F PUSH1 0x4 DUP1 CALLDATASIZE SUB DUP2 ADD SWAP1 PUSH2 0x17A SWAP2 SWAP1 PUSH2 0xEA9 JUMP JUMPDEST PUSH2 0x68F JUMP JUMPDEST STOP JUMPDEST PUSH2 0x19B PUSH1 0x4 DUP1 CALLDATASIZE SUB DUP2 ADD SWAP1 PUSH2 0x196 SWAP2 SWAP1 PUSH2 0xFC6 JUMP JUMPDEST PUSH2 0x69D JUMP JUMPDEST PUSH1 0x40 MLOAD PUSH2 0x1A8 SWAP2 SWAP1 PUSH2 0xF29 JUMP JUMPDEST PUSH1 0x40 MLOAD DUP1 SWAP2 SUB SWAP1 RETURN JUMPDEST PUSH2 0x1B9 PUSH2 0x6E3 JUMP JUMPDEST PUSH1 0x40 MLOAD PUSH2 0x1C6 SWAP2 SWAP1 PUSH2 0xDF8 JUMP JUMPDEST PUSH1 0x40 MLOAD DUP1 SWAP2 SUB SWAP1 RETURN JUMPDEST PUSH2 0x1E9 PUSH1 0x4 DUP1 CALLDATASIZE SUB DUP2 ADD SWAP1 PUSH2 0x1E4 SWAP2 SWAP1 PUSH2 0xEA9 JUMP JUMPDEST PUSH2 0x773 JUMP JUMPDEST STOP JUMPDEST PUSH2 0x205 PUSH1 0x4 DUP1 CALLDATASIZE SUB DUP2 ADD SWAP1 PUSH2 0x200 SWAP2 SWAP1 PUSH2 0xEA9 JUMP JUMPDEST PUSH2 0x781 JUMP JUMPDEST PUSH1 0x40 MLOAD PUSH2 0x212 SWAP2 SWAP1 PUSH2 0xF01 JUMP JUMPDEST PUSH1 0x40 MLOAD DUP1 SWAP2 SUB SWAP1 RETURN JUMPDEST PUSH2 0x235 PUSH1 0x4 DUP1 CALLDATASIZE SUB DUP2 ADD SWAP1 PUSH2 0x230 SWAP2 SWAP1 PUSH2 0xFF1 JUMP JUMPDEST PUSH2 0x797 JUMP JUMPDEST PUSH1 0x40 MLOAD PUSH2 0x242 SWAP2 SWAP1 PUSH2 0xF29 JUMP JUMPDEST PUSH1 0x40 MLOAD DUP1 SWAP2 SUB SWAP1 RETURN JUMPDEST PUSH1 0x60 PUSH0 DUP1 SLOAD PUSH2 0x259 SWAP1 PUSH2 0x105C JUMP JUMPDEST DUP1 PUSH1 0x1F ADD PUSH1 0x20 DUP1 SWAP2 DIV MUL PUSH1 0x20 ADD PUSH1 0x40 MLOAD SWAP1 DUP2 ADD PUSH1 0x40 MSTORE DUP1 SWAP3 SWAP2 SWAP1 DUP2 DUP2 MSTORE PUSH1 0x20 ADD DUP3 DUP1 SLOAD PUSH2 0x285 SWAP1 PUSH2 0x105C JUMP JUMPDEST DUP1 ISZERO PUSH2 0x2D0 JUMPI DUP1 PUSH1 0x1F LT PUSH2 0x2A7 JUMPI PUSH2 0x100 DUP1 DUP4 SLOAD DIV MUL DUP4 MSTORE SWAP2 PUSH1 0x20 ADD SWAP2 PUSH2 0x2D0 JUMP JUMPDEST DUP3 ADD SWAP2 SWAP1 PUSH0 MSTORE PUSH1 0x20 PUSH0 KECCAK256 SWAP1 JUMPDEST DUP2 SLOAD DUP2 MSTORE SWAP1 PUSH1 0x1 ADD SWAP1 PUSH1 0x20 ADD DUP1 DUP4 GT PUSH2 0x2B3 JUMPI DUP3 SWAP1 SUB PUSH1 0x1F AND DUP3 ADD SWAP2 JUMPDEST POP POP POP POP POP SWAP1 POP SWAP1 JUMP JUMPDEST PUSH0 PUSH0 PUSH20 0xFFFFFFFFFFFFFFFFFFFFFFFFFFFFFFFFFFFFFFFF AND DUP4 PUSH20 0xFFFFFFFFFFFFFFFFFFFFFFFFFFFFFFFFFFFFFFFF AND SUB PUSH2 0x349 JUMPI PUSH1 0x40 MLOAD PUSH32 0x8C379A000000000000000000000000000000000000000000000000000000000 DUP2 MSTORE PUSH1 0x4 ADD PUSH2 0x340 SWAP1 PUSH2 0x10FC JUMP JUMPDEST PUSH1 0x40 MLOAD DUP1 SWAP2 SUB SWAP1 REVERT JUMPDEST DUP2 PUSH1 0x5 PUSH0 CALLER PUSH20 0xFFFFFFFFFFFFFFFFFFFFFFFFFFFFFFFFFFFFFFFF AND PUSH20 0xFFFFFFFFFFFFFFFFFFFFFFFFFFFFFFFFFFFFFFFF AND DUP2 MSTORE PUSH1 0x20 ADD SWAP1 DUP2 MSTORE PUSH1 0x20 ADD PUSH0 KECCAK256 PUSH0 DUP6 PUSH20 0xFFFFFFFFFFFFFFFFFFFFFFFFFFFFFFFFFFFFFFFF AND PUSH20 0xFFFFFFFFFFFFFFFFFFFFFFFFFFFFFFFFFFFFFFFF AND DUP2 MSTORE PUSH1 0x20 ADD SWAP1 DUP2 MSTORE PUSH1 0x20 ADD PUSH0 KECCAK256 DUP2 SWAP1 SSTORE POP DUP3 PUSH20 0xFFFFFFFFFFFFFFFFFFFFFFFFFFFFFFFFFFFFFFFF AND CALLER PUSH20 0xFFFFFFFFFFFFFFFFFFFFFFFFFFFFFFFFFFFFFFFF AND PUSH32 0x8C5BE1E5EBEC7D5BD14F71427D1E84F3DD0314C0F7B2291E5B200AC8C7C3B925 DUP5 PUSH1 0x40 MLOAD PUSH2 0x423 SWAP2 SWAP1 PUSH2 0xF29 JUMP JUMPDEST PUSH1 0x40 MLOAD DUP1 SWAP2 SUB SWAP1 LOG3 PUSH1 0x1 SWAP1 POP SWAP3 SWAP2 POP POP JUMP JUMPDEST PUSH0 PUSH1 0x3 SLOAD SWAP1 POP SWAP1 JUMP JUMPDEST PUSH0 PUSH0 PUSH1 0x5 PUSH0 DUP7 PUSH20 0xFFFFFFFFFFFFFFFFFFFFFFFFFFFFFFFFFFFFFFFF AND PUSH20 0xFFFFFFFFFFFFFFFFFFFFFFFFFFFFFFFFFFFFFFFF AND DUP2 MSTORE PUSH1 0x20 ADD SWAP1 DUP2 MSTORE PUSH1 0x20 ADD PUSH0 KECCAK256 PUSH0 CALLER PUSH20 0xFFFFFFFFFFFFFFFFFFFFFFFFFFFFFFFFFFFFFFFF AND PUSH20 0xFFFFFFFFFFFFFFFFFFFFFFFFFFFFFFFFFFFFFFFF AND DUP2 MSTORE PUSH1 0x20 ADD SWAP1 DUP2 MSTORE PUSH1 0x20 ADD PUSH0 KECCAK256 SLOAD SWAP1 POP DUP3 DUP2 LT ISZERO PUSH2 0x4FE JUMPI PUSH1 0x40 MLOAD PUSH32 0x8C379A000000000000000000000000000000000000000000000000000000000 DUP2 MSTORE PUSH1 0x4 ADD PUSH2 0x4F5 SWAP1 PUSH2 0x1164 JUMP JUMPDEST PUSH1 0x40 MLOAD DUP1 SWAP2 SUB SWAP1 REVERT JUMPDEST DUP3 DUP2 PUSH2 0x50A SWAP2 SWAP1 PUSH2 0x11AF JUMP JUMPDEST PUSH1 0x5 PUSH0 DUP8 PUSH20 0xFFFFFFFFFFFFFFFFFFFFFFFFFFFFFFFFFFFFFFFF AND PUSH20 0xFFFFFFFFFFFFFFFFFFFFFFFFFFFFFFFFFFFFFFFF AND DUP2 MSTORE PUSH1 0x20 ADD SWAP1 DUP2 MSTORE PUSH1 0x20 ADD PUSH0 KECCAK256 PUSH0 CALLER PUSH20 0xFFFFFFFFFFFFFFFFFFFFFFFFFFFFFFFFFFFFFFFF AND PUSH20 0xFFFFFFFFFFFFFFFFFFFFFFFFFFFFFFFFFFFFFFFF AND DUP2 MSTORE PUSH1 0x20 ADD SWAP1 DUP2 MSTORE PUSH1 0x20 ADD PUSH0 KECCAK256 DUP2 SWAP1 SSTORE POP CALLER PUSH20 0xFFFFFFFFFFFFFFFFFFFFFFFFFFFFFFFFFFFFFFFF AND DUP6 PUSH20 0xFFFFFFFFFFFFFFFFFFFFFFFFFFFFFFFFFFFFFFFF AND PUSH32 0x8C5BE1E5EBEC7D5BD14F71427D1E84F3DD0314C0F7B2291E5B200AC8C7C3B925 PUSH1 0x5 PUSH0 DUP10 PUSH20 0xFFFFFFFFFFFFFFFFFFFFFFFFFFFFFFFFFFFFFFFF AND PUSH20 0xFFFFFFFFFFFFFFFFFFFFFFFFFFFFFFFFFFFFFFFF AND DUP2 MSTORE PUSH1 0x20 ADD SWAP1 DUP2 MSTORE PUSH1 0x20 ADD PUSH0 KECCAK256 PUSH0 CALLER PUSH20 0xFFFFFFFFFFFFFFFFFFFFFFFFFFFFFFFFFFFFFFFF AND PUSH20 0xFFFFFFFFFFFFFFFFFFFFFFFFFFFFFFFFFFFFFFFF AND DUP2 MSTORE PUSH1 0x20 ADD SWAP1 DUP2 MSTORE PUSH1 0x20 ADD PUSH0 KECCAK256 SLOAD PUSH1 0x40 MLOAD PUSH2 0x65B SWAP2 SWAP1 PUSH2 0xF29 JUMP JUMPDEST PUSH1 0x40 MLOAD DUP1 SWAP2 SUB SWAP1 LOG3 PUSH2 0x66E DUP6 DUP6 DUP6 PUSH2 0x819 JUMP JUMPDEST PUSH1 0x1 SWAP2 POP POP SWAP4 SWAP3 POP POP POP JUMP JUMPDEST PUSH0 PUSH1 0x2 PUSH0 SWAP1 SLOAD SWAP1 PUSH2 0x100 EXP SWAP1 DIV PUSH1 0xFF AND SWAP1 POP SWAP1 JUMP JUMPDEST PUSH2 0x699 DUP3 DUP3 PUSH2 0xA84 JUMP JUMPDEST POP POP JUMP JUMPDEST PUSH0 PUSH1 0x4 PUSH0 DUP4 PUSH20 0xFFFFFFFFFFFFFFFFFFFFFFFFFFFFFFFFFFFFFFFF AND PUSH20 0xFFFFFFFFFFFFFFFFFFFFFFFFFFFFFFFFFFFFFFFF AND DUP2 MSTORE PUSH1 0x20 ADD SWAP1 DUP2 MSTORE PUSH1 0x20 ADD PUSH0 KECCAK256 SLOAD SWAP1 POP SWAP2 SWAP1 POP JUMP JUMPDEST PUSH1 0x60 PUSH1 0x1 DUP1 SLOAD PUSH2 0x6F2 SWAP1 PUSH2 0x105C JUMP JUMPDEST DUP1 PUSH1 0x1F ADD PUSH1 0x20 DUP1 SWAP2 DIV MUL PUSH1 0x20 ADD PUSH1 0x40 MLOAD SWAP1 DUP2 ADD PUSH1 0x40 MSTORE DUP1 SWAP3 SWAP2 SWAP1 DUP2 DUP2 MSTORE PUSH1 0x20 ADD DUP3 DUP1 SLOAD PUSH2 0x71E SWAP1 PUSH2 0x105C JUMP JUMPDEST DUP1 ISZERO PUSH2 0x769 JUMPI DUP1 PUSH1 0x1F LT PUSH2 0x740 JUMPI PUSH2 0x100 DUP1 DUP4 SLOAD DIV MUL DUP4 MSTORE SWAP2 PUSH1 0x20 ADD SWAP2 PUSH2 0x769 JUMP JUMPDEST DUP3 ADD SWAP2 SWAP1 PUSH0 MSTORE PUSH1 0x20 PUSH0 KECCAK256 SWAP1 JUMPDEST DUP2 SLOAD DUP2 MSTORE SWAP1 PUSH1 0x1 ADD SWAP1 PUSH1 0x20 ADD DUP1 DUP4 GT PUSH2 0x74C JUMPI DUP3 SWAP1 SUB PUSH1 0x1F AND DUP3 ADD SWAP2 JUMPDEST POP POP POP POP POP SWAP1 POP SWAP1 JUMP JUMPDEST PUSH2 0x77D DUP3 DUP3 PUSH2 0xBC6 JUMP JUMPDEST POP POP JUMP JUMPDEST PUSH0 PUSH2 0x78D CALLER DUP5 DUP5 PUSH2 0x819 JUMP JUMPDEST PUSH1 0x1 SWAP1 POP SWAP3 SWAP2 POP POP JUMP JUMPDEST PUSH0 PUSH1 0x5 PUSH0 DUP5 PUSH20 0xFFFFFFFFFFFFFFFFFFFFFFFFFFFFFFFFFFFFFFFF AND PUSH20 0xFFFFFFFFFFFFFFFFFFFFFFFFFFFFFFFFFFFFFFFF AND DUP2 MSTORE PUSH1 0x20 ADD SWAP1 DUP2 MSTORE PUSH1 0x20 ADD PUSH0 KECCAK256 PUSH0 DUP4 PUSH20 0xFFFFFFFFFFFFFFFFFFFFFFFFFFFFFFFFFFFFFFFF AND PUSH20 0xFFFFFFFFFFFFFFFFFFFFFFFFFFFFFFFFFFFFFFFF AND DUP2 MSTORE PUSH1 0x20 ADD SWAP1 DUP2 MSTORE PUSH1 0x20 ADD PUSH0 KECCAK256 SLOAD SWAP1 POP SWAP3 SWAP2 POP POP JUMP JUMPDEST PUSH0 PUSH20 0xFFFFFFFFFFFFFFFFFFFFFFFFFFFFFFFFFFFFFFFF AND DUP4 PUSH20 0xFFFFFFFFFFFFFFFFFFFFFFFFFFFFFFFFFFFFFFFF AND SUB PUSH2 0x887 JUMPI PUSH1 0x40 MLOAD PUSH32 0x8C379A000000000000000000000000000000000000000000000000000000000 DUP2 MSTORE PUSH1 0x4 ADD PUSH2 0x87E SWAP1 PUSH2 0x1252 JUMP JUMPDEST PUSH1 0x40 MLOAD DUP1 SWAP2 SUB SWAP1 REVERT JUMPDEST PUSH0 PUSH20 0xFFFFFFFFFFFFFFFFFFFFFFFFFFFFFFFFFFFFFFFF AND DUP3 PUSH20 0xFFFFFFFFFFFFFFFFFFFFFFFFFFFFFFFFFFFFFFFF AND SUB PUSH2 0x8F5 JUMPI PUSH1 0x40 MLOAD PUSH32 0x8C379A000000000000000000000000000000000000000000000000000000000 DUP2 MSTORE PUSH1 0x4 ADD PUSH2 0x8EC SWAP1 PUSH2 0x12E0 JUMP JUMPDEST PUSH1 0x40 MLOAD DUP1 SWAP2 SUB SWAP1 REVERT JUMPDEST PUSH0 PUSH1 0x4 PUSH0 DUP6 PUSH20 0xFFFFFFFFFFFFFFFFFFFFFFFFFFFFFFFFFFFFFFFF AND PUSH20 0xFFFFFFFFFFFFFFFFFFFFFFFFFFFFFFFFFFFFFFFF AND DUP2 MSTORE PUSH1 0x20 ADD SWAP1 DUP2 MSTORE PUSH1 0x20 ADD PUSH0 KECCAK256 SLOAD SWAP1 POP DUP2 DUP2 LT ISZERO PUSH2 0x979 JUMPI PUSH1 0x40 MLOAD PUSH32 0x8C379A000000000000000000000000000000000000000000000000000000000 DUP2 MSTORE PUSH1 0x4 ADD PUSH2 0x970 SWAP1 PUSH2 0x136E JUMP JUMPDEST PUSH1 0x40 MLOAD DUP1 SWAP2 SUB SWAP1 REVERT JUMPDEST DUP2 DUP2 PUSH2 0x985 SWAP2 SWAP1 PUSH2 0x11AF JUMP JUMPDEST PUSH1 0x4 PUSH0 DUP7 PUSH20 0xFFFFFFFFFFFFFFFFFFFFFFFFFFFFFFFFFFFFFFFF AND PUSH20 0xFFFFFFFFFFFFFFFFFFFFFFFFFFFFFFFFFFFFFFFF AND DUP2 MSTORE PUSH1 0x20 ADD SWAP1 DUP2 MSTORE PUSH1 0x20 ADD PUSH0 KECCAK256 DUP2 SWAP1 SSTORE POP DUP2 PUSH1 0x4 PUSH0 DUP6 PUSH20 0xFFFFFFFFFFFFFFFFFFFFFFFFFFFFFFFFFFFFFFFF AND PUSH20 0xFFFFFFFFFFFFFFFFFFFFFFFFFFFFFFFFFFFFFFFF AND DUP2 MSTORE PUSH1 0x20 ADD SWAP1 DUP2 MSTORE PUSH1 0x20 ADD PUSH0 KECCAK256 PUSH0 DUP3 DUP3 SLOAD PUSH2 0xA12 SWAP2 SWAP1 PUSH2 0x138C JUMP JUMPDEST SWAP3 POP POP DUP2 SWAP1 SSTORE POP DUP3 PUSH20 0xFFFFFFFFFFFFFFFFFFFFFFFFFFFFFFFFFFFFFFFF AND DUP5 PUSH20 0xFFFFFFFFFFFFFFFFFFFFFFFFFFFFFFFFFFFFFFFF AND PUSH32 0xDDF252AD1BE2C89B69C2B068FC378DAA952BA7F163C4A11628F55A4DF523B3EF DUP5 PUSH1 0x40 MLOAD PUSH2 0xA76 SWAP2 SWAP1 PUSH2 0xF29 JUMP JUMPDEST PUSH1 0x40 MLOAD DUP1 SWAP2 SUB SWAP1 LOG3 POP POP POP POP JUMP JUMPDEST PUSH0 PUSH20 0xFFFFFFFFFFFFFFFFFFFFFFFFFFFFFFFFFFFFFFFF AND DUP3 PUSH20 0xFFFFFFFFFFFFFFFFFFFFFFFFFFFFFFFFFFFFFFFF AND SUB PUSH2 0xAF2 JUMPI PUSH1 0x40 MLOAD PUSH32 0x8C379A000000000000000000000000000000000000000000000000000000000 DUP2 MSTORE PUSH1 0x4 ADD PUSH2 0xAE9 SWAP1 PUSH2 0x1409 JUMP JUMPDEST PUSH1 0x40 MLOAD DUP1 SWAP2 SUB SWAP1 REVERT JUMPDEST DUP1 PUSH1 0x3 PUSH0 DUP3 DUP3 SLOAD PUSH2 0xB03 SWAP2 SWAP1 PUSH2 0x138C JUMP JUMPDEST SWAP3 POP POP DUP2 SWAP1 SSTORE POP DUP1 PUSH1 0x4 PUSH0 DUP5 PUSH20 0xFFFFFFFFFFFFFFFFFFFFFFFFFFFFFFFFFFFFFFFF AND PUSH20 0xFFFFFFFFFFFFFFFFFFFFFFFFFFFFFFFFFFFFFFFF AND DUP2 MSTORE PUSH1 0x20 ADD SWAP1 DUP2 MSTORE PUSH1 0x20 ADD PUSH0 KECCAK256 PUSH0 DUP3 DUP3 SLOAD PUSH2 0xB56 SWAP2 SWAP1 PUSH2 0x138C JUMP JUMPDEST SWAP3 POP POP DUP2 SWAP1 SSTORE POP DUP2 PUSH20 0xFFFFFFFFFFFFFFFFFFFFFFFFFFFFFFFFFFFFFFFF AND PUSH0 PUSH20 0xFFFFFFFFFFFFFFFFFFFFFFFFFFFFFFFFFFFFFFFF AND PUSH32 0xDDF252AD1BE2C89B69C2B068FC378DAA952BA7F163C4A11628F55A4DF523B3EF DUP4 PUSH1 0x40 MLOAD PUSH2 0xBBA SWAP2 SWAP1 PUSH2 0xF29 JUMP JUMPDEST PUSH1 0x40 MLOAD DUP1 SWAP2 SUB SWAP1 LOG3 POP POP JUMP JUMPDEST PUSH0 PUSH20 0xFFFFFFFFFFFFFFFFFFFFFFFFFFFFFFFFFFFFFFFF AND DUP3 PUSH20 0xFFFFFFFFFFFFFFFFFFFFFFFFFFFFFFFFFFFFFFFF AND SUB PUSH2 0xC34 JUMPI PUSH1 0x40 MLOAD PUSH32 0x8C379A000000000000000000000000000000000000000000000000000000000 DUP2 MSTORE PUSH1 0x4 ADD PUSH2 0xC2B SWAP1 PUSH2 0x1471 JUMP JUMPDEST PUSH1 0x40 MLOAD DUP1 SWAP2 SUB SWAP1 REVERT JUMPDEST DUP1 PUSH1 0x4 PUSH0 DUP5 PUSH20 0xFFFFFFFFFFFFFFFFFFFFFFFFFFFFFFFFFFFFFFFF AND PUSH20 0xFFFFFFFFFFFFFFFFFFFFFFFFFFFFFFFFFFFFFFFF AND DUP2 MSTORE PUSH1 0x20 ADD SWAP1 DUP2 MSTORE PUSH1 0x20 ADD PUSH0 KECCAK256 SLOAD LT ISZERO PUSH2 0xCB4 JUMPI PUSH1 0x40 MLOAD PUSH32 0x8C379A000000000000000000000000000000000000000000000000000000000 DUP2 MSTORE PUSH1 0x4 ADD PUSH2 0xCAB SWAP1 PUSH2 0x14D9 JUMP JUMPDEST PUSH1 0x40 MLOAD DUP1 SWAP2 SUB SWAP1 REVERT JUMPDEST DUP1 PUSH1 0x4 PUSH0 DUP5 PUSH20 0xFFFFFFFFFFFFFFFFFFFFFFFFFFFFFFFFFFFFFFFF AND PUSH20 0xFFFFFFFFFFFFFFFFFFFFFFFFFFFFFFFFFFFFFFFF AND DUP2 MSTORE PUSH1 0x20 ADD SWAP1 DUP2 MSTORE PUSH1 0x20 ADD PUSH0 KECCAK256 PUSH0 DUP3 DUP3 SLOAD PUSH2 0xD00 SWAP2 SWAP1 PUSH2 0x11AF JUMP JUMPDEST SWAP3 POP POP DUP2 SWAP1 SSTORE POP DUP1 PUSH1 0x3 PUSH0 DUP3 DUP3 SLOAD PUSH2 0xD18 SWAP2 SWAP1 PUSH2 0x11AF JUMP JUMPDEST SWAP3 POP POP DUP2 SWAP1 SSTORE POP PUSH0 PUSH20 0xFFFFFFFFFFFFFFFFFFFFFFFFFFFFFFFFFFFFFFFF AND DUP3 PUSH20 0xFFFFFFFFFFFFFFFFFFFFFFFFFFFFFFFFFFFFFFFF AND PUSH32 0xDDF252AD1BE2C89B69C2B068FC378DAA952BA7F163C4A11628F55A4DF523B3EF DUP4 PUSH1 0x40 MLOAD PUSH2 0xD7C SWAP2 SWAP1 PUSH2 0xF29 JUMP JUMPDEST PUSH1 0x40 MLOAD DUP1 SWAP2 SUB SWAP1 LOG3 POP POP JUMP JUMPDEST PUSH0 DUP2 MLOAD SWAP1 POP SWAP2 SWAP1 POP JUMP JUMPDEST PUSH0 DUP3 DUP3 MSTORE PUSH1 0x20 DUP3 ADD SWAP1 POP SWAP3 SWAP2 POP POP JUMP JUMPDEST DUP3 DUP2 DUP4 MCOPY PUSH0 DUP4 DUP4 ADD MSTORE POP POP POP JUMP JUMPDEST PUSH0 PUSH1 0x1F NOT PUSH1 0x1F DUP4 ADD AND SWAP1 POP SWAP2 SWAP1 POP JUMP JUMPDEST PUSH0 PUSH2 0xDCA DUP3 PUSH2 0xD88 JUMP JUMPDEST PUSH2 0xDD4 DUP2 DUP6 PUSH2 0xD92 JUMP JUMPDEST SWAP4 POP PUSH2 0xDE4 DUP2 DUP6 PUSH1 0x20 DUP7 ADD PUSH2 0xDA2 JUMP JUMPDEST PUSH2 0xDED DUP2 PUSH2 0xDB0 JUMP JUMPDEST DUP5 ADD SWAP2 POP POP SWAP3 SWAP2 POP POP JUMP JUMPDEST PUSH0 PUSH1 0x20 DUP3 ADD SWAP1 POP DUP2 DUP2 SUB PUSH0 DUP4 ADD MSTORE PUSH2 0xE10 DUP2 DUP5 PUSH2 0xDC0 JUMP JUMPDEST SWAP1 POP SWAP3 SWAP2 POP POP JUMP JUMPDEST PUSH0 PUSH0 REVERT JUMPDEST PUSH0 PUSH20 0xFFFFFFFFFFFFFFFFFFFFFFFFFFFFFFFFFFFFFFFF DUP3 AND SWAP1 POP SWAP2 SWAP1 POP JUMP JUMPDEST PUSH0 PUSH2 0xE45 DUP3 PUSH2 0xE1C JUMP JUMPDEST SWAP1 POP SWAP2 SWAP1 POP JUMP JUMPDEST PUSH2 0xE55 DUP2 PUSH2 0xE3B JUMP JUMPDEST DUP2 EQ PUSH2 0xE5F JUMPI PUSH0 PUSH0 REVERT JUMPDEST POP JUMP JUMPDEST PUSH0 DUP2 CALLDATALOAD SWAP1 POP PUSH2 0xE70 DUP2 PUSH2 0xE4C JUMP JUMPDEST SWAP3 SWAP2 POP POP JUMP JUMPDEST PUSH0 DUP2 SWAP1 POP SWAP2 SWAP1 POP JUMP JUMPDEST PUSH2 0xE88 DUP2 PUSH2 0xE76 JUMP JUMPDEST DUP2 EQ PUSH2 0xE92 JUMPI PUSH0 PUSH0 REVERT JUMPDEST POP JUMP JUMPDEST PUSH0 DUP2 CALLDATALOAD SWAP1 POP PUSH2 0xEA3 DUP2 PUSH2 0xE7F JUMP JUMPDEST SWAP3 SWAP2 POP POP JUMP JUMPDEST PUSH0 PUSH0 PUSH1 0x40 DUP4 DUP6 SUB SLT ISZERO PUSH2 0xEBF JUMPI PUSH2 0xEBE PUSH2 0xE18 JUMP JUMPDEST JUMPDEST PUSH0 PUSH2 0xECC DUP6 DUP3 DUP7 ADD PUSH2 0xE62 JUMP JUMPDEST SWAP3 POP POP PUSH1 0x20 PUSH2 0xEDD DUP6 DUP3 DUP7 ADD PUSH2 0xE95 JUMP JUMPDEST SWAP2 POP POP SWAP3 POP SWAP3 SWAP1 POP JUMP JUMPDEST PUSH0 DUP2 ISZERO ISZERO SWAP1 POP SWAP2 SWAP1 POP JUMP JUMPDEST PUSH2 0xEFB DUP2 PUSH2 0xEE7 JUMP JUMPDEST DUP3 MSTORE POP POP JUMP JUMPDEST PUSH0 PUSH1 0x20 DUP3 ADD SWAP1 POP PUSH2 0xF14 PUSH0 DUP4 ADD DUP5 PUSH2 0xEF2 JUMP JUMPDEST SWAP3 SWAP2 POP POP JUMP JUMPDEST PUSH2 0xF23 DUP2 PUSH2 0xE76 JUMP JUMPDEST DUP3 MSTORE POP POP JUMP JUMPDEST PUSH0 PUSH1 0x20 DUP3 ADD SWAP1 POP PUSH2 0xF3C PUSH0 DUP4 ADD DUP5 PUSH2 0xF1A JUMP JUMPDEST SWAP3 SWAP2 POP POP JUMP JUMPDEST PUSH0 PUSH0 PUSH0 PUSH1 0x60 DUP5 DUP7 SUB SLT ISZERO PUSH2 0xF59 JUMPI PUSH2 0xF58 PUSH2 0xE18 JUMP JUMPDEST JUMPDEST PUSH0 PUSH2 0xF66 DUP7 DUP3 DUP8 ADD PUSH2 0xE62 JUMP JUMPDEST SWAP4 POP POP PUSH1 0x20 PUSH2 0xF77 DUP7 DUP3 DUP8 ADD PUSH2 0xE62 JUMP JUMPDEST SWAP3 POP POP PUSH1 0x40 PUSH2 0xF88 DUP7 DUP3 DUP8 ADD PUSH2 0xE95 JUMP JUMPDEST SWAP2 POP POP SWAP3 POP SWAP3 POP SWAP3 JUMP JUMPDEST PUSH0 PUSH1 0xFF DUP3 AND SWAP1 POP SWAP2 SWAP1 POP JUMP JUMPDEST PUSH2 0xFA7 DUP2 PUSH2 0xF92 JUMP JUMPDEST DUP3 MSTORE POP POP JUMP JUMPDEST PUSH0 PUSH1 0x20 DUP3 ADD SWAP1 POP PUSH2 0xFC0 PUSH0 DUP4 ADD DUP5 PUSH2 0xF9E JUMP JUMPDEST SWAP3 SWAP2 POP POP JUMP JUMPDEST PUSH0 PUSH1 0x20 DUP3 DUP5 SUB SLT ISZERO PUSH2 0xFDB JUMPI PUSH2 0xFDA PUSH2 0xE18 JUMP JUMPDEST JUMPDEST PUSH0 PUSH2 0xFE8 DUP5 DUP3 DUP6 ADD PUSH2 0xE62 JUMP JUMPDEST SWAP2 POP POP SWAP3 SWAP2 POP POP JUMP JUMPDEST PUSH0 PUSH0 PUSH1 0x40 DUP4 DUP6 SUB SLT ISZERO PUSH2 0x1007 JUMPI PUSH2 0x1006 PUSH2 0xE18 JUMP JUMPDEST JUMPDEST PUSH0 PUSH2 0x1014 DUP6 DUP3 DUP7 ADD PUSH2 0xE62 JUMP JUMPDEST SWAP3 POP POP PUSH1 0x20 PUSH2 0x1025 DUP6 DUP3 DUP7 ADD PUSH2 0xE62 JUMP JUMPDEST SWAP2 POP POP SWAP3 POP SWAP3 SWAP1 POP JUMP JUMPDEST PUSH32 0x4E487B7100000000000000000000000000000000000000000000000000000000 PUSH0 MSTORE PUSH1 0x22 PUSH1 0x4 MSTORE PUSH1 0x24 PUSH0 REVERT JUMPDEST PUSH0 PUSH1 0x2 DUP3 DIV SWAP1 POP PUSH1 0x1 DUP3 AND DUP1 PUSH2 0x1073 JUMPI PUSH1 0x7F DUP3 AND SWAP2 POP JUMPDEST PUSH1 0x20 DUP3 LT DUP2 SUB PUSH2 0x1086 JUMPI PUSH2 0x1085 PUSH2 0x102F JUMP JUMPDEST JUMPDEST POP SWAP2 SWAP1 POP JUMP JUMPDEST PUSH32 0x45524332303A20617070726F766520746F20746865207A65726F206164647265 PUSH0 DUP3 ADD MSTORE PUSH32 0x7373000000000000000000000000000000000000000000000000000000000000 PUSH1 0x20 DUP3 ADD MSTORE POP JUMP JUMPDEST PUSH0 PUSH2 0x10E6 PUSH1 0x22 DUP4 PUSH2 0xD92 JUMP JUMPDEST SWAP2 POP PUSH2 0x10F1 DUP3 PUSH2 0x108C JUMP JUMPDEST PUSH1 0x40 DUP3 ADD SWAP1 POP SWAP2 SWAP1 POP JUMP JUMPDEST PUSH0 PUSH1 0x20 DUP3 ADD SWAP1 POP DUP2 DUP2 SUB PUSH0 DUP4 ADD MSTORE PUSH2 0x1113 DUP2 PUSH2 0x10DA JUMP JUMPDEST SWAP1 POP SWAP2 SWAP1 POP JUMP JUMPDEST PUSH32 0x45524332303A20696E73756666696369656E7420616C6C6F77616E6365000000 PUSH0 DUP3 ADD MSTORE POP JUMP JUMPDEST PUSH0 PUSH2 0x114E PUSH1 0x1D DUP4 PUSH2 0xD92 JUMP JUMPDEST SWAP2 POP PUSH2 0x1159 DUP3 PUSH2 0x111A JUMP JUMPDEST PUSH1 0x20 DUP3 ADD SWAP1 POP SWAP2 SWAP1 POP JUMP JUMPDEST PUSH0 PUSH1 0x20 DUP3 ADD SWAP1 POP DUP2 DUP2 SUB PUSH0 DUP4 ADD MSTORE PUSH2 0x117B DUP2 PUSH2 0x1142 JUMP JUMPDEST SWAP1 POP SWAP2 SWAP1 POP JUMP JUMPDEST PUSH32 0x4E487B7100000000000000000000000000000000000000000000000000000000 PUSH0 MSTORE PUSH1 0x11 PUSH1 0x4 MSTORE PUSH1 0x24 PUSH0 REVERT JUMPDEST PUSH0 PUSH2 0x11B9 DUP3 PUSH2 0xE76 JUMP JUMPDEST SWAP2 POP PUSH2 0x11C4 DUP4 PUSH2 0xE76 JUMP JUMPDEST SWAP3 POP DUP3 DUP3 SUB SWAP1 POP DUP2 DUP2 GT ISZERO PUSH2 0x11DC JUMPI PUSH2 0x11DB PUSH2 0x1182 JUMP JUMPDEST JUMPDEST SWAP3 SWAP2 POP POP JUMP JUMPDEST PUSH32 0x45524332303A207472616E736665722066726F6D20746865207A65726F206164 PUSH0 DUP3 ADD MSTORE PUSH32 0x6472657373000000000000000000000000000000000000000000000000000000 PUSH1 0x20 DUP3 ADD MSTORE POP JUMP JUMPDEST PUSH0 PUSH2 0x123C PUSH1 0x25 DUP4 PUSH2 0xD92 JUMP JUMPDEST SWAP2 POP PUSH2 0x1247 DUP3 PUSH2 0x11E2 JUMP JUMPDEST PUSH1 0x40 DUP3 ADD SWAP1 POP SWAP2 SWAP1 POP JUMP JUMPDEST PUSH0 PUSH1 0x20 DUP3 ADD SWAP1 POP DUP2 DUP2 SUB PUSH0 DUP4 ADD MSTORE PUSH2 0x1269 DUP2 PUSH2 0x1230 JUMP JUMPDEST SWAP1 POP SWAP2 SWAP1 POP JUMP JUMPDEST PUSH32 0x45524332303A207472616E7366657220746F20746865207A65726F2061646472 PUSH0 DUP3 ADD MSTORE PUSH32 0x6573730000000000000000000000000000000000000000000000000000000000 PUSH1 0x20 DUP3 ADD MSTORE POP JUMP JUMPDEST PUSH0 PUSH2 0x12CA PUSH1 0x23 DUP4 PUSH2 0xD92 JUMP JUMPDEST SWAP2 POP PUSH2 0x12D5 DUP3 PUSH2 0x1270 JUMP JUMPDEST PUSH1 0x40 DUP3 ADD SWAP1 POP SWAP2 SWAP1 POP JUMP JUMPDEST PUSH0 PUSH1 0x20 DUP3 ADD SWAP1 POP DUP2 DUP2 SUB PUSH0 DUP4 ADD MSTORE PUSH2 0x12F7 DUP2 PUSH2 0x12BE JUMP JUMPDEST SWAP1 POP SWAP2 SWAP1 POP JUMP JUMPDEST PUSH32 0x45524332303A207472616E7366657220616D6F756E7420657863656564732062 PUSH0 DUP3 ADD MSTORE PUSH32 0x616C616E63650000000000000000000000000000000000000000000000000000 PUSH1 0x20 DUP3 ADD MSTORE POP JUMP JUMPDEST PUSH0 PUSH2 0x1358 PUSH1 0x26 DUP4 PUSH2 0xD92 JUMP JUMPDEST SWAP2 POP PUSH2 0x1363 DUP3 PUSH2 0x12FE JUMP JUMPDEST PUSH1 0x40 DUP3 ADD SWAP1 POP SWAP2 SWAP1 POP JUMP JUMPDEST PUSH0 PUSH1 0x20 DUP3 ADD SWAP1 POP DUP2 DUP2 SUB PUSH0 DUP4 ADD MSTORE PUSH2 0x1385 DUP2 PUSH2 0x134C JUMP JUMPDEST SWAP1 POP SWAP2 SWAP1 POP JUMP JUMPDEST PUSH0 PUSH2 0x1396 DUP3 PUSH2 0xE76 JUMP JUMPDEST SWAP2 POP PUSH2 0x13A1 DUP4 PUSH2 0xE76 JUMP JUMPDEST SWAP3 POP DUP3 DUP3 ADD SWAP1 POP DUP1 DUP3 GT ISZERO PUSH2 0x13B9 JUMPI PUSH2 0x13B8 PUSH2 0x1182 JUMP JUMPDEST JUMPDEST SWAP3 SWAP2 POP POP JUMP JUMPDEST PUSH32 0x45524332303A206D696E7420746F20746865207A65726F206164647265737300 PUSH0 DUP3 ADD MSTORE POP JUMP JUMPDEST PUSH0 PUSH2 0x13F3 PUSH1 0x1F DUP4 PUSH2 0xD92 JUMP JUMPDEST SWAP2 POP PUSH2 0x13FE DUP3 PUSH2 0x13BF JUMP JUMPDEST PUSH1 0x20 DUP3 ADD SWAP1 POP SWAP2 SWAP1 POP JUMP JUMPDEST PUSH0 PUSH1 0x20 DUP3 ADD SWAP1 POP DUP2 DUP2 SUB PUSH0 DUP4 ADD MSTORE PUSH2 0x1420 DUP2 PUSH2 0x13E7 JUMP JUMPDEST SWAP1 POP SWAP2 SWAP1 POP JUMP JUMPDEST PUSH32 0x4E6F206861792061646472657373000000000000000000000000000000000000 PUSH0 DUP3 ADD MSTORE POP JUMP JUMPDEST PUSH0 PUSH2 0x145B PUSH1 0xE DUP4 PUSH2 0xD92 JUMP JUMPDEST SWAP2 POP PUSH2 0x1466 DUP3 PUSH2 0x1427 JUMP JUMPDEST PUSH1 0x20 DUP3 ADD SWAP1 POP SWAP2 SWAP1 POP JUMP JUMPDEST PUSH0 PUSH1 0x20 DUP3 ADD SWAP1 POP DUP2 DUP2 SUB PUSH0 DUP4 ADD MSTORE PUSH2 0x1488 DUP2 PUSH2 0x144F JUMP JUMPDEST SWAP1 POP SWAP2 SWAP1 POP JUMP JUMPDEST PUSH32 0x4E6F2068617920737566696369656E74657320746F6B656E732E000000000000 PUSH0 DUP3 ADD MSTORE POP JUMP JUMPDEST PUSH0 PUSH2 0x14C3 PUSH1 0x1A DUP4 PUSH2 0xD92 JUMP JUMPDEST SWAP2 POP PUSH2 0x14CE DUP3 PUSH2 0x148F JUMP JUMPDEST PUSH1 0x20 DUP3 ADD SWAP1 POP SWAP2 SWAP1 POP JUMP JUMPDEST PUSH0 PUSH1 0x20 DUP3 ADD SWAP1 POP DUP2 DUP2 SUB PUSH0 DUP4 ADD MSTORE PUSH2 0x14F0 DUP2 PUSH2 0x14B7 JUMP JUMPDEST SWAP1 POP SWAP2 SWAP1 POP JUMP INVALID LOG2 PUSH5 0x6970667358 0x22 SLT KECCAK256 DUP5 EQ 0xB2 0x23 SWAP10 EQ TIMESTAMP MCOPY CALLCODE DUP12 0xAB BALANCE 0xB2 AND ADDMOD 0xC8 MOD 0xB8 LOG1 RJUMP 0xAEFC DUP11 PUSH21 0x6F6DD9F8A53F831164736F6C634300081F00330000 "
				},
				"gasEstimates": {
					"creation": {
						"codeDepositCost": "772800",
						"executionCost": "infinite",
						"totalCost": "infinite"
					},
					"external": {
						"assignToken(address,uint256)": "infinite",
						"burnToken(address,uint256)": "infinite",
						"getToken()": "infinite",
						"owner()": "2530",
						"register(address,string)": "infinite"
					}
				},
				"methodIdentifiers": {
					"assignToken(address,uint256)": "a401d24d",
					"burnToken(address,uint256)": "d1df306c",
					"getToken()": "21df0da7",
					"owner()": "8da5cb5b",
					"register(address,string)": "32434a2e"
				}
			},
			"storageLayout": {
				"storage": [
					{
						"astId": 4,
						"contract": "contract.sol:AirportContract",
						"label": "_name",
						"offset": 0,
						"slot": "0",
						"type": "t_string_storage"
					},
					{
						"astId": 7,
						"contract": "contract.sol:AirportContract",
						"label": "_token",
						"offset": 0,
						"slot": "1",
						"type": "t_contract(ERC20Simple)584"
					},
					{
						"astId": 9,
						"contract": "contract.sol:AirportContract",
						"label": "_totalSupply",
						"offset": 0,
						"slot": "2",
						"type": "t_uint256"
					},
					{
						"astId": 11,
						"contract": "contract.sol:AirportContract",
						"label": "owner",
						"offset": 0,
						"slot": "3",
						"type": "t_address_payable"
					},
					{
						"astId": 23,
						"contract": "contract.sol:AirportContract",
						"label": "listPassengers",
						"offset": 0,
						"slot": "4",
						"type": "t_mapping(t_address,t_struct(Passenger)18_storage)"
					}
				],
				"types": {
					"t_address": {
						"encoding": "inplace",
						"label": "address",
						"numberOfBytes": "20"
					},
					"t_address_payable": {
						"encoding": "inplace",
						"label": "address payable",
						"numberOfBytes": "20"
					},
					"t_contract(ERC20Simple)584": {
						"encoding": "inplace",
						"label": "contract ERC20Simple",
						"numberOfBytes": "20"
					},
					"t_mapping(t_address,t_struct(Passenger)18_storage)": {
						"encoding": "mapping",
						"key": "t_address",
						"label": "mapping(address => struct AirportContract.Passenger)",
						"numberOfBytes": "32",
						"value": "t_struct(Passenger)18_storage"
					},
					"t_string_storage": {
						"encoding": "bytes",
						"label": "string",
						"numberOfBytes": "32"
					},
					"t_struct(Passenger)18_storage": {
						"encoding": "inplace",
						"label": "struct AirportContract.Passenger",
						"members": [
							{
								"astId": 13,
								"contract": "contract.sol:AirportContract",
								"label": "id",
								"offset": 0,
								"slot": "0",
								"type": "t_address"
							},
							{
								"astId": 15,
								"contract": "contract.sol:AirportContract",
								"label": "balance",
								"offset": 0,
								"slot": "1",
								"type": "t_uint256"
							},
							{
								"astId": 17,
								"contract": "contract.sol:AirportContract",
								"label": "name",
								"offset": 0,
								"slot": "2",
								"type": "t_string_storage"
							}
						],
						"numberOfBytes": "96"
					},
					"t_uint256": {
						"encoding": "inplace",
						"label": "uint256",
						"numberOfBytes": "32"
					}
				}
			},
			"userdoc": {
				"kind": "user",
				"methods": {},
				"version": 1
			}
		}
	}
}